{
	"contracts/callingSc1FromSc2.sol": {
		"called": {
			"abi": [
				{
					"anonymous": false,
					"inputs": [
						{
							"indexed": false,
							"internalType": "address",
							"name": "sender",
							"type": "address"
						},
						{
							"indexed": false,
							"internalType": "address",
							"name": "origin",
							"type": "address"
						},
						{
							"indexed": false,
							"internalType": "address",
							"name": "from",
							"type": "address"
						}
					],
					"name": "callEvent",
					"type": "event"
				},
				{
					"inputs": [],
					"name": "callThis",
					"outputs": [],
					"stateMutability": "nonpayable",
					"type": "function"
				}
			],
			"devdoc": {
				"kind": "dev",
				"methods": {},
				"version": 1
			},
			"evm": {
				"assembly": "    /* \"contracts/callingSc1FromSc2.sol\":60:248  contract called{... */\n  mstore(0x40, 0x80)\n  callvalue\n  dup1\n  iszero\n  tag_1\n  jumpi\n  0x00\n  dup1\n  revert\ntag_1:\n  pop\n  dataSize(sub_0)\n  dup1\n  dataOffset(sub_0)\n  0x00\n  codecopy\n  0x00\n  return\nstop\n\nsub_0: assembly {\n        /* \"contracts/callingSc1FromSc2.sol\":60:248  contract called{... */\n      mstore(0x40, 0x80)\n      callvalue\n      dup1\n      iszero\n      tag_1\n      jumpi\n      0x00\n      dup1\n      revert\n    tag_1:\n      pop\n      jumpi(tag_2, lt(calldatasize, 0x04))\n      shr(0xe0, calldataload(0x00))\n      dup1\n      0x243da18c\n      eq\n      tag_3\n      jumpi\n    tag_2:\n      0x00\n      dup1\n      revert\n        /* \"contracts/callingSc1FromSc2.sol\":148:245  function callThis() public{... */\n    tag_3:\n      tag_4\n      tag_5\n      jump\t// in\n    tag_4:\n      stop\n    tag_5:\n        /* \"contracts/callingSc1FromSc2.sol\":190:237  callEvent(msg.sender, tx.origin, address(this)) */\n      0xc90ed2a0abbce0ddd0cfd1fd303f15bf1a3860b32002dc1ed37873ea88948830\n        /* \"contracts/callingSc1FromSc2.sol\":200:210  msg.sender */\n      caller\n        /* \"contracts/callingSc1FromSc2.sol\":212:221  tx.origin */\n      origin\n        /* \"contracts/callingSc1FromSc2.sol\":231:235  this */\n      address\n        /* \"contracts/callingSc1FromSc2.sol\":190:237  callEvent(msg.sender, tx.origin, address(this)) */\n      mload(0x40)\n      tag_7\n      swap4\n      swap3\n      swap2\n      swap1\n      tag_8\n      jump\t// in\n    tag_7:\n      mload(0x40)\n      dup1\n      swap2\n      sub\n      swap1\n      log1\n        /* \"contracts/callingSc1FromSc2.sol\":148:245  function callThis() public{... */\n      jump\t// out\n        /* \"#utility.yul\":7:133   */\n    tag_9:\n        /* \"#utility.yul\":44:51   */\n      0x00\n        /* \"#utility.yul\":84:126   */\n      0xffffffffffffffffffffffffffffffffffffffff\n        /* \"#utility.yul\":77:82   */\n      dup3\n        /* \"#utility.yul\":73:127   */\n      and\n        /* \"#utility.yul\":62:127   */\n      swap1\n      pop\n        /* \"#utility.yul\":7:133   */\n      swap2\n      swap1\n      pop\n      jump\t// out\n        /* \"#utility.yul\":139:235   */\n    tag_10:\n        /* \"#utility.yul\":176:183   */\n      0x00\n        /* \"#utility.yul\":205:229   */\n      tag_15\n        /* \"#utility.yul\":223:228   */\n      dup3\n        /* \"#utility.yul\":205:229   */\n      tag_9\n      jump\t// in\n    tag_15:\n        /* \"#utility.yul\":194:229   */\n      swap1\n      pop\n        /* \"#utility.yul\":139:235   */\n      swap2\n      swap1\n      pop\n      jump\t// out\n        /* \"#utility.yul\":241:359   */\n    tag_11:\n        /* \"#utility.yul\":328:352   */\n      tag_17\n        /* \"#utility.yul\":346:351   */\n      dup2\n        /* \"#utility.yul\":328:352   */\n      tag_10\n      jump\t// in\n    tag_17:\n        /* \"#utility.yul\":323:326   */\n      dup3\n        /* \"#utility.yul\":316:353   */\n      mstore\n        /* \"#utility.yul\":241:359   */\n      pop\n      pop\n      jump\t// out\n        /* \"#utility.yul\":365:807   */\n    tag_8:\n        /* \"#utility.yul\":514:518   */\n      0x00\n        /* \"#utility.yul\":552:554   */\n      0x60\n        /* \"#utility.yul\":541:550   */\n      dup3\n        /* \"#utility.yul\":537:555   */\n      add\n        /* \"#utility.yul\":529:555   */\n      swap1\n      pop\n        /* \"#utility.yul\":565:636   */\n      tag_19\n        /* \"#utility.yul\":633:634   */\n      0x00\n        /* \"#utility.yul\":622:631   */\n      dup4\n        /* \"#utility.yul\":618:635   */\n      add\n        /* \"#utility.yul\":609:615   */\n      dup7\n        /* \"#utility.yul\":565:636   */\n      tag_11\n      jump\t// in\n    tag_19:\n        /* \"#utility.yul\":646:718   */\n      tag_20\n        /* \"#utility.yul\":714:716   */\n      0x20\n        /* \"#utility.yul\":703:712   */\n      dup4\n        /* \"#utility.yul\":699:717   */\n      add\n        /* \"#utility.yul\":690:696   */\n      dup6\n        /* \"#utility.yul\":646:718   */\n      tag_11\n      jump\t// in\n    tag_20:\n        /* \"#utility.yul\":728:800   */\n      tag_21\n        /* \"#utility.yul\":796:798   */\n      0x40\n        /* \"#utility.yul\":785:794   */\n      dup4\n        /* \"#utility.yul\":781:799   */\n      add\n        /* \"#utility.yul\":772:778   */\n      dup5\n        /* \"#utility.yul\":728:800   */\n      tag_11\n      jump\t// in\n    tag_21:\n        /* \"#utility.yul\":365:807   */\n      swap5\n      swap4\n      pop\n      pop\n      pop\n      pop\n      jump\t// out\n\n    auxdata: 0xa2646970667358221220665a929f4d05a599982b58979b510e6f318406fb70af6a5c7486ea591c58f8d564736f6c634300081a0033\n}\n",
				"bytecode": {
					"linkReferences": {},
					"object": "6080604052348015600e575f80fd5b5061010d8061001c5f395ff3fe6080604052348015600e575f80fd5b50600436106026575f3560e01c8063243da18c14602a575b5f80fd5b60306032565b005b7fc90ed2a0abbce0ddd0cfd1fd303f15bf1a3860b32002dc1ed37873ea8894883033323060405160639392919060a8565b60405180910390a1565b5f73ffffffffffffffffffffffffffffffffffffffff82169050919050565b5f609482606d565b9050919050565b60a281608c565b82525050565b5f60608201905060b95f830186609b565b60c46020830185609b565b60cf6040830184609b565b94935050505056fea2646970667358221220665a929f4d05a599982b58979b510e6f318406fb70af6a5c7486ea591c58f8d564736f6c634300081a0033",
					"opcodes": "PUSH1 0x80 PUSH1 0x40 MSTORE CALLVALUE DUP1 ISZERO PUSH1 0xE JUMPI PUSH0 DUP1 REVERT JUMPDEST POP PUSH2 0x10D DUP1 PUSH2 0x1C PUSH0 CODECOPY PUSH0 RETURN INVALID PUSH1 0x80 PUSH1 0x40 MSTORE CALLVALUE DUP1 ISZERO PUSH1 0xE JUMPI PUSH0 DUP1 REVERT JUMPDEST POP PUSH1 0x4 CALLDATASIZE LT PUSH1 0x26 JUMPI PUSH0 CALLDATALOAD PUSH1 0xE0 SHR DUP1 PUSH4 0x243DA18C EQ PUSH1 0x2A JUMPI JUMPDEST PUSH0 DUP1 REVERT JUMPDEST PUSH1 0x30 PUSH1 0x32 JUMP JUMPDEST STOP JUMPDEST PUSH32 0xC90ED2A0ABBCE0DDD0CFD1FD303F15BF1A3860B32002DC1ED37873EA88948830 CALLER ORIGIN ADDRESS PUSH1 0x40 MLOAD PUSH1 0x63 SWAP4 SWAP3 SWAP2 SWAP1 PUSH1 0xA8 JUMP JUMPDEST PUSH1 0x40 MLOAD DUP1 SWAP2 SUB SWAP1 LOG1 JUMP JUMPDEST PUSH0 PUSH20 0xFFFFFFFFFFFFFFFFFFFFFFFFFFFFFFFFFFFFFFFF DUP3 AND SWAP1 POP SWAP2 SWAP1 POP JUMP JUMPDEST PUSH0 PUSH1 0x94 DUP3 PUSH1 0x6D JUMP JUMPDEST SWAP1 POP SWAP2 SWAP1 POP JUMP JUMPDEST PUSH1 0xA2 DUP2 PUSH1 0x8C JUMP JUMPDEST DUP3 MSTORE POP POP JUMP JUMPDEST PUSH0 PUSH1 0x60 DUP3 ADD SWAP1 POP PUSH1 0xB9 PUSH0 DUP4 ADD DUP7 PUSH1 0x9B JUMP JUMPDEST PUSH1 0xC4 PUSH1 0x20 DUP4 ADD DUP6 PUSH1 0x9B JUMP JUMPDEST PUSH1 0xCF PUSH1 0x40 DUP4 ADD DUP5 PUSH1 0x9B JUMP JUMPDEST SWAP5 SWAP4 POP POP POP POP JUMP INVALID LOG2 PUSH5 0x6970667358 0x22 SLT KECCAK256 PUSH7 0x5A929F4D05A599 SWAP9 0x2B PC SWAP8 SWAP12 MLOAD 0xE PUSH16 0x318406FB70AF6A5C7486EA591C58F8D5 PUSH5 0x736F6C6343 STOP ADDMOD BYTE STOP CALLER "
				},
				"gasEstimates": {
					"creation": {
						"codeDepositCost": "53800",
						"executionCost": "103",
						"totalCost": "53903"
					},
					"external": {
						"callThis()": "infinite"
					}
				},
				"methodIdentifiers": {
					"callThis()": "243da18c"
				}
			},
			"storageLayout": {
				"storage": [],
				"types": null
			},
			"userdoc": {
				"kind": "user",
				"methods": {},
				"version": 1
			}
		}
	}
}