{
	"contracts/voting.sol": {
		"voting": {
			"abi": [
				{
					"inputs": [
						{
							"internalType": "string",
							"name": "name",
							"type": "string"
						},
						{
							"internalType": "string",
							"name": "party",
							"type": "string"
						}
					],
					"name": "addCandidate",
					"outputs": [
						{
							"internalType": "uint256",
							"name": "",
							"type": "uint256"
						}
					],
					"stateMutability": "nonpayable",
					"type": "function"
				},
				{
					"inputs": [
						{
							"internalType": "uint256",
							"name": "",
							"type": "uint256"
						}
					],
					"name": "candidates",
					"outputs": [
						{
							"internalType": "uint256",
							"name": "id",
							"type": "uint256"
						},
						{
							"internalType": "string",
							"name": "name",
							"type": "string"
						},
						{
							"internalType": "string",
							"name": "party",
							"type": "string"
						},
						{
							"internalType": "uint256",
							"name": "voteCount",
							"type": "uint256"
						}
					],
					"stateMutability": "view",
					"type": "function"
				},
				{
					"inputs": [],
					"name": "countCandidates",
					"outputs": [
						{
							"internalType": "uint256",
							"name": "",
							"type": "uint256"
						}
					],
					"stateMutability": "view",
					"type": "function"
				},
				{
					"inputs": [
						{
							"internalType": "uint256",
							"name": "candidateId",
							"type": "uint256"
						}
					],
					"name": "vote",
					"outputs": [],
					"stateMutability": "nonpayable",
					"type": "function"
				},
				{
					"inputs": [
						{
							"internalType": "address",
							"name": "",
							"type": "address"
						}
					],
					"name": "voters",
					"outputs": [
						{
							"internalType": "bool",
							"name": "",
							"type": "bool"
						}
					],
					"stateMutability": "view",
					"type": "function"
				},
				{
					"inputs": [],
					"name": "votingEnd",
					"outputs": [
						{
							"internalType": "uint256",
							"name": "",
							"type": "uint256"
						}
					],
					"stateMutability": "view",
					"type": "function"
				},
				{
					"inputs": [],
					"name": "votingStart",
					"outputs": [
						{
							"internalType": "uint256",
							"name": "",
							"type": "uint256"
						}
					],
					"stateMutability": "view",
					"type": "function"
				}
			],
			"devdoc": {
				"kind": "dev",
				"methods": {},
				"version": 1
			},
			"evm": {
				"assembly": "    /* \"contracts/voting.sol\":60:730  contract voting{... */\n  mstore(0x40, 0x80)\n  callvalue\n  dup1\n  iszero\n  tag_1\n  jumpi\n  0x00\n  dup1\n  revert\ntag_1:\n  pop\n  dataSize(sub_0)\n  dup1\n  dataOffset(sub_0)\n  0x00\n  codecopy\n  0x00\n  return\nstop\n\nsub_0: assembly {\n        /* \"contracts/voting.sol\":60:730  contract voting{... */\n      mstore(0x40, 0x80)\n      callvalue\n      dup1\n      iszero\n      tag_1\n      jumpi\n      0x00\n      dup1\n      revert\n    tag_1:\n      pop\n      jumpi(tag_2, lt(calldatasize, 0x04))\n      shr(0xe0, calldataload(0x00))\n      dup1\n      0x3477ee2e\n      gt\n      tag_10\n      jumpi\n      dup1\n      0x3477ee2e\n      eq\n      tag_6\n      jumpi\n      dup1\n      0x85a38635\n      eq\n      tag_7\n      jumpi\n      dup1\n      0xa3ec138d\n      eq\n      tag_8\n      jumpi\n      dup1\n      0xb86eda91\n      eq\n      tag_9\n      jumpi\n      jump(tag_2)\n    tag_10:\n      dup1\n      0x0121b93f\n      eq\n      tag_3\n      jumpi\n      dup1\n      0x101158af\n      eq\n      tag_4\n      jumpi\n      dup1\n      0x26541b56\n      eq\n      tag_5\n      jumpi\n    tag_2:\n      0x00\n      dup1\n      revert\n        /* \"contracts/voting.sol\":670:727  function vote(uint candidateId) public {... */\n    tag_3:\n      tag_11\n      0x04\n      dup1\n      calldatasize\n      sub\n      dup2\n      add\n      swap1\n      tag_12\n      swap2\n      swap1\n      tag_13\n      jump\t// in\n    tag_12:\n      tag_14\n      jump\t// in\n    tag_11:\n      stop\n        /* \"contracts/voting.sol\":334:360  uint256 public votingStart */\n    tag_4:\n      tag_15\n      tag_16\n      jump\t// in\n    tag_15:\n      mload(0x40)\n      tag_17\n      swap2\n      swap1\n      tag_18\n      jump\t// in\n    tag_17:\n      mload(0x40)\n      dup1\n      swap2\n      sub\n      swap1\n      return\n        /* \"contracts/voting.sol\":430:662  function addCandidate(string memory name,string memory party) public returns(uint) {... */\n    tag_5:\n      tag_19\n      0x04\n      dup1\n      calldatasize\n      sub\n      dup2\n      add\n      swap1\n      tag_20\n      swap2\n      swap1\n      tag_21\n      jump\t// in\n    tag_20:\n      tag_22\n      jump\t// in\n    tag_19:\n      mload(0x40)\n      tag_23\n      swap2\n      swap1\n      tag_18\n      jump\t// in\n    tag_23:\n      mload(0x40)\n      dup1\n      swap2\n      sub\n      swap1\n      return\n        /* \"contracts/voting.sol\":202:246  mapping(uint => Candidate) public candidates */\n    tag_6:\n      tag_24\n      0x04\n      dup1\n      calldatasize\n      sub\n      dup2\n      add\n      swap1\n      tag_25\n      swap2\n      swap1\n      tag_13\n      jump\t// in\n    tag_25:\n      tag_26\n      jump\t// in\n    tag_24:\n      mload(0x40)\n      tag_27\n      swap5\n      swap4\n      swap3\n      swap2\n      swap1\n      tag_28\n      jump\t// in\n    tag_27:\n      mload(0x40)\n      dup1\n      swap2\n      sub\n      swap1\n      return\n        /* \"contracts/voting.sol\":367:391  uint256 public votingEnd */\n    tag_7:\n      tag_29\n      tag_30\n      jump\t// in\n    tag_29:\n      mload(0x40)\n      tag_31\n      swap2\n      swap1\n      tag_18\n      jump\t// in\n    tag_31:\n      mload(0x40)\n      dup1\n      swap2\n      sub\n      swap1\n      return\n        /* \"contracts/voting.sol\":253:291  mapping(address => bool) public voters */\n    tag_8:\n      tag_32\n      0x04\n      dup1\n      calldatasize\n      sub\n      dup2\n      add\n      swap1\n      tag_33\n      swap2\n      swap1\n      tag_34\n      jump\t// in\n    tag_33:\n      tag_35\n      jump\t// in\n    tag_32:\n      mload(0x40)\n      tag_36\n      swap2\n      swap1\n      tag_37\n      jump\t// in\n    tag_36:\n      mload(0x40)\n      dup1\n      swap2\n      sub\n      swap1\n      return\n        /* \"contracts/voting.sol\":300:327  uint public countCandidates */\n    tag_9:\n      tag_38\n      tag_39\n      jump\t// in\n    tag_38:\n      mload(0x40)\n      tag_40\n      swap2\n      swap1\n      tag_18\n      jump\t// in\n    tag_40:\n      mload(0x40)\n      dup1\n      swap2\n      sub\n      swap1\n      return\n        /* \"contracts/voting.sol\":670:727  function vote(uint candidateId) public {... */\n    tag_14:\n      pop\n      jump\t// out\n        /* \"contracts/voting.sol\":334:360  uint256 public votingStart */\n    tag_16:\n      sload(0x03)\n      dup2\n      jump\t// out\n        /* \"contracts/voting.sol\":430:662  function addCandidate(string memory name,string memory party) public returns(uint) {... */\n    tag_22:\n        /* \"contracts/voting.sol\":507:511  uint */\n      0x00\n        /* \"contracts/voting.sol\":524:539  countCandidates */\n      0x02\n      0x00\n        /* \"contracts/voting.sol\":524:541  countCandidates++ */\n      dup2\n      sload\n      dup1\n      swap3\n      swap2\n      swap1\n      tag_43\n      swap1\n      tag_44\n      jump\t// in\n    tag_43:\n      swap2\n      swap1\n      pop\n      sstore\n      pop\n        /* \"contracts/voting.sol\":582:621  Candidate(countCandidates,name,party,0) */\n      mload(0x40)\n      dup1\n      0x80\n      add\n      0x40\n      mstore\n      dup1\n        /* \"contracts/voting.sol\":592:607  countCandidates */\n      sload(0x02)\n        /* \"contracts/voting.sol\":582:621  Candidate(countCandidates,name,party,0) */\n      dup2\n      mstore\n      0x20\n      add\n        /* \"contracts/voting.sol\":608:612  name */\n      dup5\n        /* \"contracts/voting.sol\":582:621  Candidate(countCandidates,name,party,0) */\n      dup2\n      mstore\n      0x20\n      add\n        /* \"contracts/voting.sol\":613:618  party */\n      dup4\n        /* \"contracts/voting.sol\":582:621  Candidate(countCandidates,name,party,0) */\n      dup2\n      mstore\n      0x20\n      add\n        /* \"contracts/voting.sol\":619:620  0 */\n      0x00\n        /* \"contracts/voting.sol\":582:621  Candidate(countCandidates,name,party,0) */\n      dup2\n      mstore\n      pop\n        /* \"contracts/voting.sol\":552:562  candidates */\n      0x00\n        /* \"contracts/voting.sol\":552:579  candidates[countCandidates] */\n      dup1\n        /* \"contracts/voting.sol\":563:578  countCandidates */\n      sload(0x02)\n        /* \"contracts/voting.sol\":552:579  candidates[countCandidates] */\n      dup2\n      mstore\n      0x20\n      add\n      swap1\n      dup2\n      mstore\n      0x20\n      add\n      0x00\n      keccak256\n        /* \"contracts/voting.sol\":552:621  candidates[countCandidates] = Candidate(countCandidates,name,party,0) */\n      0x00\n      dup3\n      add\n      mload\n      dup2\n      0x00\n      add\n      sstore\n      0x20\n      dup3\n      add\n      mload\n      dup2\n      0x01\n      add\n      swap1\n      dup2\n      tag_45\n      swap2\n      swap1\n      tag_46\n      jump\t// in\n    tag_45:\n      pop\n      0x40\n      dup3\n      add\n      mload\n      dup2\n      0x02\n      add\n      swap1\n      dup2\n      tag_47\n      swap2\n      swap1\n      tag_46\n      jump\t// in\n    tag_47:\n      pop\n      0x60\n      dup3\n      add\n      mload\n      dup2\n      0x03\n      add\n      sstore\n      swap1\n      pop\n      pop\n        /* \"contracts/voting.sol\":639:654  countCandidates */\n      sload(0x02)\n        /* \"contracts/voting.sol\":632:654  return countCandidates */\n      swap1\n      pop\n        /* \"contracts/voting.sol\":430:662  function addCandidate(string memory name,string memory party) public returns(uint) {... */\n      swap3\n      swap2\n      pop\n      pop\n      jump\t// out\n        /* \"contracts/voting.sol\":202:246  mapping(uint => Candidate) public candidates */\n    tag_26:\n      mstore(0x20, 0x00)\n      dup1\n      0x00\n      mstore\n      keccak256(0x00, 0x40)\n      0x00\n      swap2\n      pop\n      swap1\n      pop\n      dup1\n      0x00\n      add\n      sload\n      swap1\n      dup1\n      0x01\n      add\n      dup1\n      sload\n      tag_48\n      swap1\n      tag_49\n      jump\t// in\n    tag_48:\n      dup1\n      0x1f\n      add\n      0x20\n      dup1\n      swap2\n      div\n      mul\n      0x20\n      add\n      mload(0x40)\n      swap1\n      dup2\n      add\n      0x40\n      mstore\n      dup1\n      swap3\n      swap2\n      swap1\n      dup2\n      dup2\n      mstore\n      0x20\n      add\n      dup3\n      dup1\n      sload\n      tag_50\n      swap1\n      tag_49\n      jump\t// in\n    tag_50:\n      dup1\n      iszero\n      tag_51\n      jumpi\n      dup1\n      0x1f\n      lt\n      tag_52\n      jumpi\n      0x0100\n      dup1\n      dup4\n      sload\n      div\n      mul\n      dup4\n      mstore\n      swap2\n      0x20\n      add\n      swap2\n      jump(tag_51)\n    tag_52:\n      dup3\n      add\n      swap2\n      swap1\n      0x00\n      mstore\n      keccak256(0x00, 0x20)\n      swap1\n    tag_53:\n      dup2\n      sload\n      dup2\n      mstore\n      swap1\n      0x01\n      add\n      swap1\n      0x20\n      add\n      dup1\n      dup4\n      gt\n      tag_53\n      jumpi\n      dup3\n      swap1\n      sub\n      0x1f\n      and\n      dup3\n      add\n      swap2\n    tag_51:\n      pop\n      pop\n      pop\n      pop\n      pop\n      swap1\n      dup1\n      0x02\n      add\n      dup1\n      sload\n      tag_54\n      swap1\n      tag_49\n      jump\t// in\n    tag_54:\n      dup1\n      0x1f\n      add\n      0x20\n      dup1\n      swap2\n      div\n      mul\n      0x20\n      add\n      mload(0x40)\n      swap1\n      dup2\n      add\n      0x40\n      mstore\n      dup1\n      swap3\n      swap2\n      swap1\n      dup2\n      dup2\n      mstore\n      0x20\n      add\n      dup3\n      dup1\n      sload\n      tag_55\n      swap1\n      tag_49\n      jump\t// in\n    tag_55:\n      dup1\n      iszero\n      tag_56\n      jumpi\n      dup1\n      0x1f\n      lt\n      tag_57\n      jumpi\n      0x0100\n      dup1\n      dup4\n      sload\n      div\n      mul\n      dup4\n      mstore\n      swap2\n      0x20\n      add\n      swap2\n      jump(tag_56)\n    tag_57:\n      dup3\n      add\n      swap2\n      swap1\n      0x00\n      mstore\n      keccak256(0x00, 0x20)\n      swap1\n    tag_58:\n      dup2\n      sload\n      dup2\n      mstore\n      swap1\n      0x01\n      add\n      swap1\n      0x20\n      add\n      dup1\n      dup4\n      gt\n      tag_58\n      jumpi\n      dup3\n      swap1\n      sub\n      0x1f\n      and\n      dup3\n      add\n      swap2\n    tag_56:\n      pop\n      pop\n      pop\n      pop\n      pop\n      swap1\n      dup1\n      0x03\n      add\n      sload\n      swap1\n      pop\n      dup5\n      jump\t// out\n        /* \"contracts/voting.sol\":367:391  uint256 public votingEnd */\n    tag_30:\n      sload(0x04)\n      dup2\n      jump\t// out\n        /* \"contracts/voting.sol\":253:291  mapping(address => bool) public voters */\n    tag_35:\n      mstore(0x20, 0x01)\n      dup1\n      0x00\n      mstore\n      keccak256(0x00, 0x40)\n      0x00\n      swap2\n      pop\n      sload\n      swap1\n      0x0100\n      exp\n      swap1\n      div\n      0xff\n      and\n      dup2\n      jump\t// out\n        /* \"contracts/voting.sol\":300:327  uint public countCandidates */\n    tag_39:\n      sload(0x02)\n      dup2\n      jump\t// out\n        /* \"#utility.yul\":7:82   */\n    tag_59:\n        /* \"#utility.yul\":40:46   */\n      0x00\n        /* \"#utility.yul\":73:75   */\n      0x40\n        /* \"#utility.yul\":67:76   */\n      mload\n        /* \"#utility.yul\":57:76   */\n      swap1\n      pop\n        /* \"#utility.yul\":7:82   */\n      swap1\n      jump\t// out\n        /* \"#utility.yul\":88:205   */\n    tag_60:\n        /* \"#utility.yul\":197:198   */\n      0x00\n        /* \"#utility.yul\":194:195   */\n      dup1\n        /* \"#utility.yul\":187:199   */\n      revert\n        /* \"#utility.yul\":211:328   */\n    tag_61:\n        /* \"#utility.yul\":320:321   */\n      0x00\n        /* \"#utility.yul\":317:318   */\n      dup1\n        /* \"#utility.yul\":310:322   */\n      revert\n        /* \"#utility.yul\":334:411   */\n    tag_62:\n        /* \"#utility.yul\":371:378   */\n      0x00\n        /* \"#utility.yul\":400:405   */\n      dup2\n        /* \"#utility.yul\":389:405   */\n      swap1\n      pop\n        /* \"#utility.yul\":334:411   */\n      swap2\n      swap1\n      pop\n      jump\t// out\n        /* \"#utility.yul\":417:539   */\n    tag_63:\n        /* \"#utility.yul\":490:514   */\n      tag_109\n        /* \"#utility.yul\":508:513   */\n      dup2\n        /* \"#utility.yul\":490:514   */\n      tag_62\n      jump\t// in\n    tag_109:\n        /* \"#utility.yul\":483:488   */\n      dup2\n        /* \"#utility.yul\":480:515   */\n      eq\n        /* \"#utility.yul\":470:533   */\n      tag_110\n      jumpi\n        /* \"#utility.yul\":529:530   */\n      0x00\n        /* \"#utility.yul\":526:527   */\n      dup1\n        /* \"#utility.yul\":519:531   */\n      revert\n        /* \"#utility.yul\":470:533   */\n    tag_110:\n        /* \"#utility.yul\":417:539   */\n      pop\n      jump\t// out\n        /* \"#utility.yul\":545:684   */\n    tag_64:\n        /* \"#utility.yul\":591:596   */\n      0x00\n        /* \"#utility.yul\":629:635   */\n      dup2\n        /* \"#utility.yul\":616:636   */\n      calldataload\n        /* \"#utility.yul\":607:636   */\n      swap1\n      pop\n        /* \"#utility.yul\":645:678   */\n      tag_112\n        /* \"#utility.yul\":672:677   */\n      dup2\n        /* \"#utility.yul\":645:678   */\n      tag_63\n      jump\t// in\n    tag_112:\n        /* \"#utility.yul\":545:684   */\n      swap3\n      swap2\n      pop\n      pop\n      jump\t// out\n        /* \"#utility.yul\":690:1019   */\n    tag_13:\n        /* \"#utility.yul\":749:755   */\n      0x00\n        /* \"#utility.yul\":798:800   */\n      0x20\n        /* \"#utility.yul\":786:795   */\n      dup3\n        /* \"#utility.yul\":777:784   */\n      dup5\n        /* \"#utility.yul\":773:796   */\n      sub\n        /* \"#utility.yul\":769:801   */\n      slt\n        /* \"#utility.yul\":766:885   */\n      iszero\n      tag_114\n      jumpi\n        /* \"#utility.yul\":804:883   */\n      tag_115\n      tag_60\n      jump\t// in\n    tag_115:\n        /* \"#utility.yul\":766:885   */\n    tag_114:\n        /* \"#utility.yul\":924:925   */\n      0x00\n        /* \"#utility.yul\":949:1002   */\n      tag_116\n        /* \"#utility.yul\":994:1001   */\n      dup5\n        /* \"#utility.yul\":985:991   */\n      dup3\n        /* \"#utility.yul\":974:983   */\n      dup6\n        /* \"#utility.yul\":970:992   */\n      add\n        /* \"#utility.yul\":949:1002   */\n      tag_64\n      jump\t// in\n    tag_116:\n        /* \"#utility.yul\":939:1002   */\n      swap2\n      pop\n        /* \"#utility.yul\":895:1012   */\n      pop\n        /* \"#utility.yul\":690:1019   */\n      swap3\n      swap2\n      pop\n      pop\n      jump\t// out\n        /* \"#utility.yul\":1025:1143   */\n    tag_65:\n        /* \"#utility.yul\":1112:1136   */\n      tag_118\n        /* \"#utility.yul\":1130:1135   */\n      dup2\n        /* \"#utility.yul\":1112:1136   */\n      tag_62\n      jump\t// in\n    tag_118:\n        /* \"#utility.yul\":1107:1110   */\n      dup3\n        /* \"#utility.yul\":1100:1137   */\n      mstore\n        /* \"#utility.yul\":1025:1143   */\n      pop\n      pop\n      jump\t// out\n        /* \"#utility.yul\":1149:1371   */\n    tag_18:\n        /* \"#utility.yul\":1242:1246   */\n      0x00\n        /* \"#utility.yul\":1280:1282   */\n      0x20\n        /* \"#utility.yul\":1269:1278   */\n      dup3\n        /* \"#utility.yul\":1265:1283   */\n      add\n        /* \"#utility.yul\":1257:1283   */\n      swap1\n      pop\n        /* \"#utility.yul\":1293:1364   */\n      tag_120\n        /* \"#utility.yul\":1361:1362   */\n      0x00\n        /* \"#utility.yul\":1350:1359   */\n      dup4\n        /* \"#utility.yul\":1346:1363   */\n      add\n        /* \"#utility.yul\":1337:1343   */\n      dup5\n        /* \"#utility.yul\":1293:1364   */\n      tag_65\n      jump\t// in\n    tag_120:\n        /* \"#utility.yul\":1149:1371   */\n      swap3\n      swap2\n      pop\n      pop\n      jump\t// out\n        /* \"#utility.yul\":1377:1494   */\n    tag_66:\n        /* \"#utility.yul\":1486:1487   */\n      0x00\n        /* \"#utility.yul\":1483:1484   */\n      dup1\n        /* \"#utility.yul\":1476:1488   */\n      revert\n        /* \"#utility.yul\":1500:1617   */\n    tag_67:\n        /* \"#utility.yul\":1609:1610   */\n      0x00\n        /* \"#utility.yul\":1606:1607   */\n      dup1\n        /* \"#utility.yul\":1599:1611   */\n      revert\n        /* \"#utility.yul\":1623:1725   */\n    tag_68:\n        /* \"#utility.yul\":1664:1670   */\n      0x00\n        /* \"#utility.yul\":1715:1717   */\n      0x1f\n        /* \"#utility.yul\":1711:1718   */\n      not\n        /* \"#utility.yul\":1706:1708   */\n      0x1f\n        /* \"#utility.yul\":1699:1704   */\n      dup4\n        /* \"#utility.yul\":1695:1709   */\n      add\n        /* \"#utility.yul\":1691:1719   */\n      and\n        /* \"#utility.yul\":1681:1719   */\n      swap1\n      pop\n        /* \"#utility.yul\":1623:1725   */\n      swap2\n      swap1\n      pop\n      jump\t// out\n        /* \"#utility.yul\":1731:1911   */\n    tag_69:\n        /* \"#utility.yul\":1779:1856   */\n      0x4e487b7100000000000000000000000000000000000000000000000000000000\n        /* \"#utility.yul\":1776:1777   */\n      0x00\n        /* \"#utility.yul\":1769:1857   */\n      mstore\n        /* \"#utility.yul\":1876:1880   */\n      0x41\n        /* \"#utility.yul\":1873:1874   */\n      0x04\n        /* \"#utility.yul\":1866:1881   */\n      mstore\n        /* \"#utility.yul\":1900:1904   */\n      0x24\n        /* \"#utility.yul\":1897:1898   */\n      0x00\n        /* \"#utility.yul\":1890:1905   */\n      revert\n        /* \"#utility.yul\":1917:2198   */\n    tag_70:\n        /* \"#utility.yul\":2000:2027   */\n      tag_126\n        /* \"#utility.yul\":2022:2026   */\n      dup3\n        /* \"#utility.yul\":2000:2027   */\n      tag_68\n      jump\t// in\n    tag_126:\n        /* \"#utility.yul\":1992:1998   */\n      dup2\n        /* \"#utility.yul\":1988:2028   */\n      add\n        /* \"#utility.yul\":2130:2136   */\n      dup2\n        /* \"#utility.yul\":2118:2128   */\n      dup2\n        /* \"#utility.yul\":2115:2137   */\n      lt\n        /* \"#utility.yul\":2094:2112   */\n      0xffffffffffffffff\n        /* \"#utility.yul\":2082:2092   */\n      dup3\n        /* \"#utility.yul\":2079:2113   */\n      gt\n        /* \"#utility.yul\":2076:2138   */\n      or\n        /* \"#utility.yul\":2073:2161   */\n      iszero\n      tag_127\n      jumpi\n        /* \"#utility.yul\":2141:2159   */\n      tag_128\n      tag_69\n      jump\t// in\n    tag_128:\n        /* \"#utility.yul\":2073:2161   */\n    tag_127:\n        /* \"#utility.yul\":2181:2191   */\n      dup1\n        /* \"#utility.yul\":2177:2179   */\n      0x40\n        /* \"#utility.yul\":2170:2192   */\n      mstore\n        /* \"#utility.yul\":1960:2198   */\n      pop\n        /* \"#utility.yul\":1917:2198   */\n      pop\n      pop\n      jump\t// out\n        /* \"#utility.yul\":2204:2333   */\n    tag_71:\n        /* \"#utility.yul\":2238:2244   */\n      0x00\n        /* \"#utility.yul\":2265:2285   */\n      tag_130\n      tag_59\n      jump\t// in\n    tag_130:\n        /* \"#utility.yul\":2255:2285   */\n      swap1\n      pop\n        /* \"#utility.yul\":2294:2327   */\n      tag_131\n        /* \"#utility.yul\":2322:2326   */\n      dup3\n        /* \"#utility.yul\":2314:2320   */\n      dup3\n        /* \"#utility.yul\":2294:2327   */\n      tag_70\n      jump\t// in\n    tag_131:\n        /* \"#utility.yul\":2204:2333   */\n      swap2\n      swap1\n      pop\n      jump\t// out\n        /* \"#utility.yul\":2339:2647   */\n    tag_72:\n        /* \"#utility.yul\":2401:2405   */\n      0x00\n        /* \"#utility.yul\":2491:2509   */\n      0xffffffffffffffff\n        /* \"#utility.yul\":2483:2489   */\n      dup3\n        /* \"#utility.yul\":2480:2510   */\n      gt\n        /* \"#utility.yul\":2477:2533   */\n      iszero\n      tag_133\n      jumpi\n        /* \"#utility.yul\":2513:2531   */\n      tag_134\n      tag_69\n      jump\t// in\n    tag_134:\n        /* \"#utility.yul\":2477:2533   */\n    tag_133:\n        /* \"#utility.yul\":2551:2580   */\n      tag_135\n        /* \"#utility.yul\":2573:2579   */\n      dup3\n        /* \"#utility.yul\":2551:2580   */\n      tag_68\n      jump\t// in\n    tag_135:\n        /* \"#utility.yul\":2543:2580   */\n      swap1\n      pop\n        /* \"#utility.yul\":2635:2639   */\n      0x20\n        /* \"#utility.yul\":2629:2633   */\n      dup2\n        /* \"#utility.yul\":2625:2640   */\n      add\n        /* \"#utility.yul\":2617:2640   */\n      swap1\n      pop\n        /* \"#utility.yul\":2339:2647   */\n      swap2\n      swap1\n      pop\n      jump\t// out\n        /* \"#utility.yul\":2653:2801   */\n    tag_73:\n        /* \"#utility.yul\":2751:2757   */\n      dup3\n        /* \"#utility.yul\":2746:2749   */\n      dup2\n        /* \"#utility.yul\":2741:2744   */\n      dup4\n        /* \"#utility.yul\":2728:2758   */\n      calldatacopy\n        /* \"#utility.yul\":2792:2793   */\n      0x00\n        /* \"#utility.yul\":2783:2789   */\n      dup4\n        /* \"#utility.yul\":2778:2781   */\n      dup4\n        /* \"#utility.yul\":2774:2790   */\n      add\n        /* \"#utility.yul\":2767:2794   */\n      mstore\n        /* \"#utility.yul\":2653:2801   */\n      pop\n      pop\n      pop\n      jump\t// out\n        /* \"#utility.yul\":2807:3232   */\n    tag_74:\n        /* \"#utility.yul\":2885:2890   */\n      0x00\n        /* \"#utility.yul\":2910:2976   */\n      tag_138\n        /* \"#utility.yul\":2926:2975   */\n      tag_139\n        /* \"#utility.yul\":2968:2974   */\n      dup5\n        /* \"#utility.yul\":2926:2975   */\n      tag_72\n      jump\t// in\n    tag_139:\n        /* \"#utility.yul\":2910:2976   */\n      tag_71\n      jump\t// in\n    tag_138:\n        /* \"#utility.yul\":2901:2976   */\n      swap1\n      pop\n        /* \"#utility.yul\":2999:3005   */\n      dup3\n        /* \"#utility.yul\":2992:2997   */\n      dup2\n        /* \"#utility.yul\":2985:3006   */\n      mstore\n        /* \"#utility.yul\":3037:3041   */\n      0x20\n        /* \"#utility.yul\":3030:3035   */\n      dup2\n        /* \"#utility.yul\":3026:3042   */\n      add\n        /* \"#utility.yul\":3075:3078   */\n      dup5\n        /* \"#utility.yul\":3066:3072   */\n      dup5\n        /* \"#utility.yul\":3061:3064   */\n      dup5\n        /* \"#utility.yul\":3057:3073   */\n      add\n        /* \"#utility.yul\":3054:3079   */\n      gt\n        /* \"#utility.yul\":3051:3163   */\n      iszero\n      tag_140\n      jumpi\n        /* \"#utility.yul\":3082:3161   */\n      tag_141\n      tag_67\n      jump\t// in\n    tag_141:\n        /* \"#utility.yul\":3051:3163   */\n    tag_140:\n        /* \"#utility.yul\":3172:3226   */\n      tag_142\n        /* \"#utility.yul\":3219:3225   */\n      dup5\n        /* \"#utility.yul\":3214:3217   */\n      dup3\n        /* \"#utility.yul\":3209:3212   */\n      dup6\n        /* \"#utility.yul\":3172:3226   */\n      tag_73\n      jump\t// in\n    tag_142:\n        /* \"#utility.yul\":2891:3232   */\n      pop\n        /* \"#utility.yul\":2807:3232   */\n      swap4\n      swap3\n      pop\n      pop\n      pop\n      jump\t// out\n        /* \"#utility.yul\":3252:3592   */\n    tag_75:\n        /* \"#utility.yul\":3308:3313   */\n      0x00\n        /* \"#utility.yul\":3357:3360   */\n      dup3\n        /* \"#utility.yul\":3350:3354   */\n      0x1f\n        /* \"#utility.yul\":3342:3348   */\n      dup4\n        /* \"#utility.yul\":3338:3355   */\n      add\n        /* \"#utility.yul\":3334:3361   */\n      slt\n        /* \"#utility.yul\":3324:3446   */\n      tag_144\n      jumpi\n        /* \"#utility.yul\":3365:3444   */\n      tag_145\n      tag_66\n      jump\t// in\n    tag_145:\n        /* \"#utility.yul\":3324:3446   */\n    tag_144:\n        /* \"#utility.yul\":3482:3488   */\n      dup2\n        /* \"#utility.yul\":3469:3489   */\n      calldataload\n        /* \"#utility.yul\":3507:3586   */\n      tag_146\n        /* \"#utility.yul\":3582:3585   */\n      dup5\n        /* \"#utility.yul\":3574:3580   */\n      dup3\n        /* \"#utility.yul\":3567:3571   */\n      0x20\n        /* \"#utility.yul\":3559:3565   */\n      dup7\n        /* \"#utility.yul\":3555:3572   */\n      add\n        /* \"#utility.yul\":3507:3586   */\n      tag_74\n      jump\t// in\n    tag_146:\n        /* \"#utility.yul\":3498:3586   */\n      swap2\n      pop\n        /* \"#utility.yul\":3314:3592   */\n      pop\n        /* \"#utility.yul\":3252:3592   */\n      swap3\n      swap2\n      pop\n      pop\n      jump\t// out\n        /* \"#utility.yul\":3598:4432   */\n    tag_21:\n        /* \"#utility.yul\":3686:3692   */\n      0x00\n        /* \"#utility.yul\":3694:3700   */\n      dup1\n        /* \"#utility.yul\":3743:3745   */\n      0x40\n        /* \"#utility.yul\":3731:3740   */\n      dup4\n        /* \"#utility.yul\":3722:3729   */\n      dup6\n        /* \"#utility.yul\":3718:3741   */\n      sub\n        /* \"#utility.yul\":3714:3746   */\n      slt\n        /* \"#utility.yul\":3711:3830   */\n      iszero\n      tag_148\n      jumpi\n        /* \"#utility.yul\":3749:3828   */\n      tag_149\n      tag_60\n      jump\t// in\n    tag_149:\n        /* \"#utility.yul\":3711:3830   */\n    tag_148:\n        /* \"#utility.yul\":3897:3898   */\n      0x00\n        /* \"#utility.yul\":3886:3895   */\n      dup4\n        /* \"#utility.yul\":3882:3899   */\n      add\n        /* \"#utility.yul\":3869:3900   */\n      calldataload\n        /* \"#utility.yul\":3927:3945   */\n      0xffffffffffffffff\n        /* \"#utility.yul\":3919:3925   */\n      dup2\n        /* \"#utility.yul\":3916:3946   */\n      gt\n        /* \"#utility.yul\":3913:4030   */\n      iszero\n      tag_150\n      jumpi\n        /* \"#utility.yul\":3949:4028   */\n      tag_151\n      tag_61\n      jump\t// in\n    tag_151:\n        /* \"#utility.yul\":3913:4030   */\n    tag_150:\n        /* \"#utility.yul\":4054:4117   */\n      tag_152\n        /* \"#utility.yul\":4109:4116   */\n      dup6\n        /* \"#utility.yul\":4100:4106   */\n      dup3\n        /* \"#utility.yul\":4089:4098   */\n      dup7\n        /* \"#utility.yul\":4085:4107   */\n      add\n        /* \"#utility.yul\":4054:4117   */\n      tag_75\n      jump\t// in\n    tag_152:\n        /* \"#utility.yul\":4044:4117   */\n      swap3\n      pop\n        /* \"#utility.yul\":3840:4127   */\n      pop\n        /* \"#utility.yul\":4194:4196   */\n      0x20\n        /* \"#utility.yul\":4183:4192   */\n      dup4\n        /* \"#utility.yul\":4179:4197   */\n      add\n        /* \"#utility.yul\":4166:4198   */\n      calldataload\n        /* \"#utility.yul\":4225:4243   */\n      0xffffffffffffffff\n        /* \"#utility.yul\":4217:4223   */\n      dup2\n        /* \"#utility.yul\":4214:4244   */\n      gt\n        /* \"#utility.yul\":4211:4328   */\n      iszero\n      tag_153\n      jumpi\n        /* \"#utility.yul\":4247:4326   */\n      tag_154\n      tag_61\n      jump\t// in\n    tag_154:\n        /* \"#utility.yul\":4211:4328   */\n    tag_153:\n        /* \"#utility.yul\":4352:4415   */\n      tag_155\n        /* \"#utility.yul\":4407:4414   */\n      dup6\n        /* \"#utility.yul\":4398:4404   */\n      dup3\n        /* \"#utility.yul\":4387:4396   */\n      dup7\n        /* \"#utility.yul\":4383:4405   */\n      add\n        /* \"#utility.yul\":4352:4415   */\n      tag_75\n      jump\t// in\n    tag_155:\n        /* \"#utility.yul\":4342:4415   */\n      swap2\n      pop\n        /* \"#utility.yul\":4137:4425   */\n      pop\n        /* \"#utility.yul\":3598:4432   */\n      swap3\n      pop\n      swap3\n      swap1\n      pop\n      jump\t// out\n        /* \"#utility.yul\":4438:4537   */\n    tag_76:\n        /* \"#utility.yul\":4490:4496   */\n      0x00\n        /* \"#utility.yul\":4524:4529   */\n      dup2\n        /* \"#utility.yul\":4518:4530   */\n      mload\n        /* \"#utility.yul\":4508:4530   */\n      swap1\n      pop\n        /* \"#utility.yul\":4438:4537   */\n      swap2\n      swap1\n      pop\n      jump\t// out\n        /* \"#utility.yul\":4543:4712   */\n    tag_77:\n        /* \"#utility.yul\":4627:4638   */\n      0x00\n        /* \"#utility.yul\":4661:4667   */\n      dup3\n        /* \"#utility.yul\":4656:4659   */\n      dup3\n        /* \"#utility.yul\":4649:4668   */\n      mstore\n        /* \"#utility.yul\":4701:4705   */\n      0x20\n        /* \"#utility.yul\":4696:4699   */\n      dup3\n        /* \"#utility.yul\":4692:4706   */\n      add\n        /* \"#utility.yul\":4677:4706   */\n      swap1\n      pop\n        /* \"#utility.yul\":4543:4712   */\n      swap3\n      swap2\n      pop\n      pop\n      jump\t// out\n        /* \"#utility.yul\":4718:4857   */\n    tag_78:\n        /* \"#utility.yul\":4807:4813   */\n      dup3\n        /* \"#utility.yul\":4802:4805   */\n      dup2\n        /* \"#utility.yul\":4797:4800   */\n      dup4\n        /* \"#utility.yul\":4791:4814   */\n      mcopy\n        /* \"#utility.yul\":4848:4849   */\n      0x00\n        /* \"#utility.yul\":4839:4845   */\n      dup4\n        /* \"#utility.yul\":4834:4837   */\n      dup4\n        /* \"#utility.yul\":4830:4846   */\n      add\n        /* \"#utility.yul\":4823:4850   */\n      mstore\n        /* \"#utility.yul\":4718:4857   */\n      pop\n      pop\n      pop\n      jump\t// out\n        /* \"#utility.yul\":4863:5240   */\n    tag_79:\n        /* \"#utility.yul\":4951:4954   */\n      0x00\n        /* \"#utility.yul\":4979:5018   */\n      tag_160\n        /* \"#utility.yul\":5012:5017   */\n      dup3\n        /* \"#utility.yul\":4979:5018   */\n      tag_76\n      jump\t// in\n    tag_160:\n        /* \"#utility.yul\":5034:5105   */\n      tag_161\n        /* \"#utility.yul\":5098:5104   */\n      dup2\n        /* \"#utility.yul\":5093:5096   */\n      dup6\n        /* \"#utility.yul\":5034:5105   */\n      tag_77\n      jump\t// in\n    tag_161:\n        /* \"#utility.yul\":5027:5105   */\n      swap4\n      pop\n        /* \"#utility.yul\":5114:5179   */\n      tag_162\n        /* \"#utility.yul\":5172:5178   */\n      dup2\n        /* \"#utility.yul\":5167:5170   */\n      dup6\n        /* \"#utility.yul\":5160:5164   */\n      0x20\n        /* \"#utility.yul\":5153:5158   */\n      dup7\n        /* \"#utility.yul\":5149:5165   */\n      add\n        /* \"#utility.yul\":5114:5179   */\n      tag_78\n      jump\t// in\n    tag_162:\n        /* \"#utility.yul\":5204:5233   */\n      tag_163\n        /* \"#utility.yul\":5226:5232   */\n      dup2\n        /* \"#utility.yul\":5204:5233   */\n      tag_68\n      jump\t// in\n    tag_163:\n        /* \"#utility.yul\":5199:5202   */\n      dup5\n        /* \"#utility.yul\":5195:5234   */\n      add\n        /* \"#utility.yul\":5188:5234   */\n      swap2\n      pop\n        /* \"#utility.yul\":4955:5240   */\n      pop\n        /* \"#utility.yul\":4863:5240   */\n      swap3\n      swap2\n      pop\n      pop\n      jump\t// out\n        /* \"#utility.yul\":5246:5981   */\n    tag_28:\n        /* \"#utility.yul\":5463:5467   */\n      0x00\n        /* \"#utility.yul\":5501:5504   */\n      0x80\n        /* \"#utility.yul\":5490:5499   */\n      dup3\n        /* \"#utility.yul\":5486:5505   */\n      add\n        /* \"#utility.yul\":5478:5505   */\n      swap1\n      pop\n        /* \"#utility.yul\":5515:5586   */\n      tag_165\n        /* \"#utility.yul\":5583:5584   */\n      0x00\n        /* \"#utility.yul\":5572:5581   */\n      dup4\n        /* \"#utility.yul\":5568:5585   */\n      add\n        /* \"#utility.yul\":5559:5565   */\n      dup8\n        /* \"#utility.yul\":5515:5586   */\n      tag_65\n      jump\t// in\n    tag_165:\n        /* \"#utility.yul\":5633:5642   */\n      dup2\n        /* \"#utility.yul\":5627:5631   */\n      dup2\n        /* \"#utility.yul\":5623:5643   */\n      sub\n        /* \"#utility.yul\":5618:5620   */\n      0x20\n        /* \"#utility.yul\":5607:5616   */\n      dup4\n        /* \"#utility.yul\":5603:5621   */\n      add\n        /* \"#utility.yul\":5596:5644   */\n      mstore\n        /* \"#utility.yul\":5661:5739   */\n      tag_166\n        /* \"#utility.yul\":5734:5738   */\n      dup2\n        /* \"#utility.yul\":5725:5731   */\n      dup7\n        /* \"#utility.yul\":5661:5739   */\n      tag_79\n      jump\t// in\n    tag_166:\n        /* \"#utility.yul\":5653:5739   */\n      swap1\n      pop\n        /* \"#utility.yul\":5786:5795   */\n      dup2\n        /* \"#utility.yul\":5780:5784   */\n      dup2\n        /* \"#utility.yul\":5776:5796   */\n      sub\n        /* \"#utility.yul\":5771:5773   */\n      0x40\n        /* \"#utility.yul\":5760:5769   */\n      dup4\n        /* \"#utility.yul\":5756:5774   */\n      add\n        /* \"#utility.yul\":5749:5797   */\n      mstore\n        /* \"#utility.yul\":5814:5892   */\n      tag_167\n        /* \"#utility.yul\":5887:5891   */\n      dup2\n        /* \"#utility.yul\":5878:5884   */\n      dup6\n        /* \"#utility.yul\":5814:5892   */\n      tag_79\n      jump\t// in\n    tag_167:\n        /* \"#utility.yul\":5806:5892   */\n      swap1\n      pop\n        /* \"#utility.yul\":5902:5974   */\n      tag_168\n        /* \"#utility.yul\":5970:5972   */\n      0x60\n        /* \"#utility.yul\":5959:5968   */\n      dup4\n        /* \"#utility.yul\":5955:5973   */\n      add\n        /* \"#utility.yul\":5946:5952   */\n      dup5\n        /* \"#utility.yul\":5902:5974   */\n      tag_65\n      jump\t// in\n    tag_168:\n        /* \"#utility.yul\":5246:5981   */\n      swap6\n      swap5\n      pop\n      pop\n      pop\n      pop\n      pop\n      jump\t// out\n        /* \"#utility.yul\":5987:6113   */\n    tag_80:\n        /* \"#utility.yul\":6024:6031   */\n      0x00\n        /* \"#utility.yul\":6064:6106   */\n      0xffffffffffffffffffffffffffffffffffffffff\n        /* \"#utility.yul\":6057:6062   */\n      dup3\n        /* \"#utility.yul\":6053:6107   */\n      and\n        /* \"#utility.yul\":6042:6107   */\n      swap1\n      pop\n        /* \"#utility.yul\":5987:6113   */\n      swap2\n      swap1\n      pop\n      jump\t// out\n        /* \"#utility.yul\":6119:6215   */\n    tag_81:\n        /* \"#utility.yul\":6156:6163   */\n      0x00\n        /* \"#utility.yul\":6185:6209   */\n      tag_171\n        /* \"#utility.yul\":6203:6208   */\n      dup3\n        /* \"#utility.yul\":6185:6209   */\n      tag_80\n      jump\t// in\n    tag_171:\n        /* \"#utility.yul\":6174:6209   */\n      swap1\n      pop\n        /* \"#utility.yul\":6119:6215   */\n      swap2\n      swap1\n      pop\n      jump\t// out\n        /* \"#utility.yul\":6221:6343   */\n    tag_82:\n        /* \"#utility.yul\":6294:6318   */\n      tag_173\n        /* \"#utility.yul\":6312:6317   */\n      dup2\n        /* \"#utility.yul\":6294:6318   */\n      tag_81\n      jump\t// in\n    tag_173:\n        /* \"#utility.yul\":6287:6292   */\n      dup2\n        /* \"#utility.yul\":6284:6319   */\n      eq\n        /* \"#utility.yul\":6274:6337   */\n      tag_174\n      jumpi\n        /* \"#utility.yul\":6333:6334   */\n      0x00\n        /* \"#utility.yul\":6330:6331   */\n      dup1\n        /* \"#utility.yul\":6323:6335   */\n      revert\n        /* \"#utility.yul\":6274:6337   */\n    tag_174:\n        /* \"#utility.yul\":6221:6343   */\n      pop\n      jump\t// out\n        /* \"#utility.yul\":6349:6488   */\n    tag_83:\n        /* \"#utility.yul\":6395:6400   */\n      0x00\n        /* \"#utility.yul\":6433:6439   */\n      dup2\n        /* \"#utility.yul\":6420:6440   */\n      calldataload\n        /* \"#utility.yul\":6411:6440   */\n      swap1\n      pop\n        /* \"#utility.yul\":6449:6482   */\n      tag_176\n        /* \"#utility.yul\":6476:6481   */\n      dup2\n        /* \"#utility.yul\":6449:6482   */\n      tag_82\n      jump\t// in\n    tag_176:\n        /* \"#utility.yul\":6349:6488   */\n      swap3\n      swap2\n      pop\n      pop\n      jump\t// out\n        /* \"#utility.yul\":6494:6823   */\n    tag_34:\n        /* \"#utility.yul\":6553:6559   */\n      0x00\n        /* \"#utility.yul\":6602:6604   */\n      0x20\n        /* \"#utility.yul\":6590:6599   */\n      dup3\n        /* \"#utility.yul\":6581:6588   */\n      dup5\n        /* \"#utility.yul\":6577:6600   */\n      sub\n        /* \"#utility.yul\":6573:6605   */\n      slt\n        /* \"#utility.yul\":6570:6689   */\n      iszero\n      tag_178\n      jumpi\n        /* \"#utility.yul\":6608:6687   */\n      tag_179\n      tag_60\n      jump\t// in\n    tag_179:\n        /* \"#utility.yul\":6570:6689   */\n    tag_178:\n        /* \"#utility.yul\":6728:6729   */\n      0x00\n        /* \"#utility.yul\":6753:6806   */\n      tag_180\n        /* \"#utility.yul\":6798:6805   */\n      dup5\n        /* \"#utility.yul\":6789:6795   */\n      dup3\n        /* \"#utility.yul\":6778:6787   */\n      dup6\n        /* \"#utility.yul\":6774:6796   */\n      add\n        /* \"#utility.yul\":6753:6806   */\n      tag_83\n      jump\t// in\n    tag_180:\n        /* \"#utility.yul\":6743:6806   */\n      swap2\n      pop\n        /* \"#utility.yul\":6699:6816   */\n      pop\n        /* \"#utility.yul\":6494:6823   */\n      swap3\n      swap2\n      pop\n      pop\n      jump\t// out\n        /* \"#utility.yul\":6829:6919   */\n    tag_84:\n        /* \"#utility.yul\":6863:6870   */\n      0x00\n        /* \"#utility.yul\":6906:6911   */\n      dup2\n        /* \"#utility.yul\":6899:6912   */\n      iszero\n        /* \"#utility.yul\":6892:6913   */\n      iszero\n        /* \"#utility.yul\":6881:6913   */\n      swap1\n      pop\n        /* \"#utility.yul\":6829:6919   */\n      swap2\n      swap1\n      pop\n      jump\t// out\n        /* \"#utility.yul\":6925:7034   */\n    tag_85:\n        /* \"#utility.yul\":7006:7027   */\n      tag_183\n        /* \"#utility.yul\":7021:7026   */\n      dup2\n        /* \"#utility.yul\":7006:7027   */\n      tag_84\n      jump\t// in\n    tag_183:\n        /* \"#utility.yul\":7001:7004   */\n      dup3\n        /* \"#utility.yul\":6994:7028   */\n      mstore\n        /* \"#utility.yul\":6925:7034   */\n      pop\n      pop\n      jump\t// out\n        /* \"#utility.yul\":7040:7250   */\n    tag_37:\n        /* \"#utility.yul\":7127:7131   */\n      0x00\n        /* \"#utility.yul\":7165:7167   */\n      0x20\n        /* \"#utility.yul\":7154:7163   */\n      dup3\n        /* \"#utility.yul\":7150:7168   */\n      add\n        /* \"#utility.yul\":7142:7168   */\n      swap1\n      pop\n        /* \"#utility.yul\":7178:7243   */\n      tag_185\n        /* \"#utility.yul\":7240:7241   */\n      0x00\n        /* \"#utility.yul\":7229:7238   */\n      dup4\n        /* \"#utility.yul\":7225:7242   */\n      add\n        /* \"#utility.yul\":7216:7222   */\n      dup5\n        /* \"#utility.yul\":7178:7243   */\n      tag_85\n      jump\t// in\n    tag_185:\n        /* \"#utility.yul\":7040:7250   */\n      swap3\n      swap2\n      pop\n      pop\n      jump\t// out\n        /* \"#utility.yul\":7256:7436   */\n    tag_86:\n        /* \"#utility.yul\":7304:7381   */\n      0x4e487b7100000000000000000000000000000000000000000000000000000000\n        /* \"#utility.yul\":7301:7302   */\n      0x00\n        /* \"#utility.yul\":7294:7382   */\n      mstore\n        /* \"#utility.yul\":7401:7405   */\n      0x11\n        /* \"#utility.yul\":7398:7399   */\n      0x04\n        /* \"#utility.yul\":7391:7406   */\n      mstore\n        /* \"#utility.yul\":7425:7429   */\n      0x24\n        /* \"#utility.yul\":7422:7423   */\n      0x00\n        /* \"#utility.yul\":7415:7430   */\n      revert\n        /* \"#utility.yul\":7442:7675   */\n    tag_44:\n        /* \"#utility.yul\":7481:7484   */\n      0x00\n        /* \"#utility.yul\":7504:7528   */\n      tag_188\n        /* \"#utility.yul\":7522:7527   */\n      dup3\n        /* \"#utility.yul\":7504:7528   */\n      tag_62\n      jump\t// in\n    tag_188:\n        /* \"#utility.yul\":7495:7528   */\n      swap2\n      pop\n        /* \"#utility.yul\":7550:7616   */\n      0xffffffffffffffffffffffffffffffffffffffffffffffffffffffffffffffff\n        /* \"#utility.yul\":7543:7548   */\n      dup3\n        /* \"#utility.yul\":7540:7617   */\n      sub\n        /* \"#utility.yul\":7537:7640   */\n      tag_189\n      jumpi\n        /* \"#utility.yul\":7620:7638   */\n      tag_190\n      tag_86\n      jump\t// in\n    tag_190:\n        /* \"#utility.yul\":7537:7640   */\n    tag_189:\n        /* \"#utility.yul\":7667:7668   */\n      0x01\n        /* \"#utility.yul\":7660:7665   */\n      dup3\n        /* \"#utility.yul\":7656:7669   */\n      add\n        /* \"#utility.yul\":7649:7669   */\n      swap1\n      pop\n        /* \"#utility.yul\":7442:7675   */\n      swap2\n      swap1\n      pop\n      jump\t// out\n        /* \"#utility.yul\":7681:7861   */\n    tag_87:\n        /* \"#utility.yul\":7729:7806   */\n      0x4e487b7100000000000000000000000000000000000000000000000000000000\n        /* \"#utility.yul\":7726:7727   */\n      0x00\n        /* \"#utility.yul\":7719:7807   */\n      mstore\n        /* \"#utility.yul\":7826:7830   */\n      0x22\n        /* \"#utility.yul\":7823:7824   */\n      0x04\n        /* \"#utility.yul\":7816:7831   */\n      mstore\n        /* \"#utility.yul\":7850:7854   */\n      0x24\n        /* \"#utility.yul\":7847:7848   */\n      0x00\n        /* \"#utility.yul\":7840:7855   */\n      revert\n        /* \"#utility.yul\":7867:8187   */\n    tag_49:\n        /* \"#utility.yul\":7911:7917   */\n      0x00\n        /* \"#utility.yul\":7948:7949   */\n      0x02\n        /* \"#utility.yul\":7942:7946   */\n      dup3\n        /* \"#utility.yul\":7938:7950   */\n      div\n        /* \"#utility.yul\":7928:7950   */\n      swap1\n      pop\n        /* \"#utility.yul\":7995:7996   */\n      0x01\n        /* \"#utility.yul\":7989:7993   */\n      dup3\n        /* \"#utility.yul\":7985:7997   */\n      and\n        /* \"#utility.yul\":8016:8034   */\n      dup1\n        /* \"#utility.yul\":8006:8087   */\n      tag_193\n      jumpi\n        /* \"#utility.yul\":8072:8076   */\n      0x7f\n        /* \"#utility.yul\":8064:8070   */\n      dup3\n        /* \"#utility.yul\":8060:8077   */\n      and\n        /* \"#utility.yul\":8050:8077   */\n      swap2\n      pop\n        /* \"#utility.yul\":8006:8087   */\n    tag_193:\n        /* \"#utility.yul\":8134:8136   */\n      0x20\n        /* \"#utility.yul\":8126:8132   */\n      dup3\n        /* \"#utility.yul\":8123:8137   */\n      lt\n        /* \"#utility.yul\":8103:8121   */\n      dup2\n        /* \"#utility.yul\":8100:8138   */\n      sub\n        /* \"#utility.yul\":8097:8181   */\n      tag_194\n      jumpi\n        /* \"#utility.yul\":8153:8171   */\n      tag_195\n      tag_87\n      jump\t// in\n    tag_195:\n        /* \"#utility.yul\":8097:8181   */\n    tag_194:\n        /* \"#utility.yul\":7918:8187   */\n      pop\n        /* \"#utility.yul\":7867:8187   */\n      swap2\n      swap1\n      pop\n      jump\t// out\n        /* \"#utility.yul\":8193:8334   */\n    tag_88:\n        /* \"#utility.yul\":8242:8246   */\n      0x00\n        /* \"#utility.yul\":8265:8268   */\n      dup2\n        /* \"#utility.yul\":8257:8268   */\n      swap1\n      pop\n        /* \"#utility.yul\":8288:8291   */\n      dup2\n        /* \"#utility.yul\":8285:8286   */\n      0x00\n        /* \"#utility.yul\":8278:8292   */\n      mstore\n        /* \"#utility.yul\":8322:8326   */\n      0x20\n        /* \"#utility.yul\":8319:8320   */\n      0x00\n        /* \"#utility.yul\":8309:8327   */\n      keccak256\n        /* \"#utility.yul\":8301:8327   */\n      swap1\n      pop\n        /* \"#utility.yul\":8193:8334   */\n      swap2\n      swap1\n      pop\n      jump\t// out\n        /* \"#utility.yul\":8340:8433   */\n    tag_89:\n        /* \"#utility.yul\":8377:8383   */\n      0x00\n        /* \"#utility.yul\":8424:8426   */\n      0x20\n        /* \"#utility.yul\":8419:8421   */\n      0x1f\n        /* \"#utility.yul\":8412:8417   */\n      dup4\n        /* \"#utility.yul\":8408:8422   */\n      add\n        /* \"#utility.yul\":8404:8427   */\n      div\n        /* \"#utility.yul\":8394:8427   */\n      swap1\n      pop\n        /* \"#utility.yul\":8340:8433   */\n      swap2\n      swap1\n      pop\n      jump\t// out\n        /* \"#utility.yul\":8439:8546   */\n    tag_90:\n        /* \"#utility.yul\":8483:8491   */\n      0x00\n        /* \"#utility.yul\":8533:8538   */\n      dup3\n        /* \"#utility.yul\":8527:8531   */\n      dup3\n        /* \"#utility.yul\":8523:8539   */\n      shl\n        /* \"#utility.yul\":8502:8539   */\n      swap1\n      pop\n        /* \"#utility.yul\":8439:8546   */\n      swap3\n      swap2\n      pop\n      pop\n      jump\t// out\n        /* \"#utility.yul\":8552:8945   */\n    tag_91:\n        /* \"#utility.yul\":8621:8627   */\n      0x00\n        /* \"#utility.yul\":8671:8672   */\n      0x08\n        /* \"#utility.yul\":8659:8669   */\n      dup4\n        /* \"#utility.yul\":8655:8673   */\n      mul\n        /* \"#utility.yul\":8694:8791   */\n      tag_200\n        /* \"#utility.yul\":8724:8790   */\n      0xffffffffffffffffffffffffffffffffffffffffffffffffffffffffffffffff\n        /* \"#utility.yul\":8713:8722   */\n      dup3\n        /* \"#utility.yul\":8694:8791   */\n      tag_90\n      jump\t// in\n    tag_200:\n        /* \"#utility.yul\":8812:8851   */\n      tag_201\n        /* \"#utility.yul\":8842:8850   */\n      dup7\n        /* \"#utility.yul\":8831:8840   */\n      dup4\n        /* \"#utility.yul\":8812:8851   */\n      tag_90\n      jump\t// in\n    tag_201:\n        /* \"#utility.yul\":8800:8851   */\n      swap6\n      pop\n        /* \"#utility.yul\":8884:8888   */\n      dup1\n        /* \"#utility.yul\":8880:8889   */\n      not\n        /* \"#utility.yul\":8873:8878   */\n      dup5\n        /* \"#utility.yul\":8869:8890   */\n      and\n        /* \"#utility.yul\":8860:8890   */\n      swap4\n      pop\n        /* \"#utility.yul\":8933:8937   */\n      dup1\n        /* \"#utility.yul\":8923:8931   */\n      dup7\n        /* \"#utility.yul\":8919:8938   */\n      and\n        /* \"#utility.yul\":8912:8917   */\n      dup5\n        /* \"#utility.yul\":8909:8939   */\n      or\n        /* \"#utility.yul\":8899:8939   */\n      swap3\n      pop\n        /* \"#utility.yul\":8628:8945   */\n      pop\n      pop\n        /* \"#utility.yul\":8552:8945   */\n      swap4\n      swap3\n      pop\n      pop\n      pop\n      jump\t// out\n        /* \"#utility.yul\":8951:9011   */\n    tag_92:\n        /* \"#utility.yul\":8979:8982   */\n      0x00\n        /* \"#utility.yul\":9000:9005   */\n      dup2\n        /* \"#utility.yul\":8993:9005   */\n      swap1\n      pop\n        /* \"#utility.yul\":8951:9011   */\n      swap2\n      swap1\n      pop\n      jump\t// out\n        /* \"#utility.yul\":9017:9159   */\n    tag_93:\n        /* \"#utility.yul\":9067:9076   */\n      0x00\n        /* \"#utility.yul\":9100:9153   */\n      tag_204\n        /* \"#utility.yul\":9118:9152   */\n      tag_205\n        /* \"#utility.yul\":9127:9151   */\n      tag_206\n        /* \"#utility.yul\":9145:9150   */\n      dup5\n        /* \"#utility.yul\":9127:9151   */\n      tag_62\n      jump\t// in\n    tag_206:\n        /* \"#utility.yul\":9118:9152   */\n      tag_92\n      jump\t// in\n    tag_205:\n        /* \"#utility.yul\":9100:9153   */\n      tag_62\n      jump\t// in\n    tag_204:\n        /* \"#utility.yul\":9087:9153   */\n      swap1\n      pop\n        /* \"#utility.yul\":9017:9159   */\n      swap2\n      swap1\n      pop\n      jump\t// out\n        /* \"#utility.yul\":9165:9240   */\n    tag_94:\n        /* \"#utility.yul\":9208:9211   */\n      0x00\n        /* \"#utility.yul\":9229:9234   */\n      dup2\n        /* \"#utility.yul\":9222:9234   */\n      swap1\n      pop\n        /* \"#utility.yul\":9165:9240   */\n      swap2\n      swap1\n      pop\n      jump\t// out\n        /* \"#utility.yul\":9246:9515   */\n    tag_95:\n        /* \"#utility.yul\":9356:9395   */\n      tag_209\n        /* \"#utility.yul\":9387:9394   */\n      dup4\n        /* \"#utility.yul\":9356:9395   */\n      tag_93\n      jump\t// in\n    tag_209:\n        /* \"#utility.yul\":9417:9508   */\n      tag_210\n        /* \"#utility.yul\":9466:9507   */\n      tag_211\n        /* \"#utility.yul\":9490:9506   */\n      dup3\n        /* \"#utility.yul\":9466:9507   */\n      tag_94\n      jump\t// in\n    tag_211:\n        /* \"#utility.yul\":9458:9464   */\n      dup5\n        /* \"#utility.yul\":9451:9455   */\n      dup5\n        /* \"#utility.yul\":9445:9456   */\n      sload\n        /* \"#utility.yul\":9417:9508   */\n      tag_91\n      jump\t// in\n    tag_210:\n        /* \"#utility.yul\":9411:9415   */\n      dup3\n        /* \"#utility.yul\":9404:9509   */\n      sstore\n        /* \"#utility.yul\":9322:9515   */\n      pop\n        /* \"#utility.yul\":9246:9515   */\n      pop\n      pop\n      pop\n      jump\t// out\n        /* \"#utility.yul\":9521:9594   */\n    tag_96:\n        /* \"#utility.yul\":9566:9569   */\n      0x00\n        /* \"#utility.yul\":9521:9594   */\n      swap1\n      jump\t// out\n        /* \"#utility.yul\":9600:9789   */\n    tag_97:\n        /* \"#utility.yul\":9677:9709   */\n      tag_214\n      tag_96\n      jump\t// in\n    tag_214:\n        /* \"#utility.yul\":9718:9783   */\n      tag_215\n        /* \"#utility.yul\":9776:9782   */\n      dup2\n        /* \"#utility.yul\":9768:9774   */\n      dup5\n        /* \"#utility.yul\":9762:9766   */\n      dup5\n        /* \"#utility.yul\":9718:9783   */\n      tag_95\n      jump\t// in\n    tag_215:\n        /* \"#utility.yul\":9653:9789   */\n      pop\n        /* \"#utility.yul\":9600:9789   */\n      pop\n      pop\n      jump\t// out\n        /* \"#utility.yul\":9795:9981   */\n    tag_98:\n        /* \"#utility.yul\":9855:9975   */\n    tag_217:\n        /* \"#utility.yul\":9872:9875   */\n      dup2\n        /* \"#utility.yul\":9865:9870   */\n      dup2\n        /* \"#utility.yul\":9862:9876   */\n      lt\n        /* \"#utility.yul\":9855:9975   */\n      iszero\n      tag_219\n      jumpi\n        /* \"#utility.yul\":9926:9965   */\n      tag_220\n        /* \"#utility.yul\":9963:9964   */\n      0x00\n        /* \"#utility.yul\":9956:9961   */\n      dup3\n        /* \"#utility.yul\":9926:9965   */\n      tag_97\n      jump\t// in\n    tag_220:\n        /* \"#utility.yul\":9899:9900   */\n      0x01\n        /* \"#utility.yul\":9892:9897   */\n      dup2\n        /* \"#utility.yul\":9888:9901   */\n      add\n        /* \"#utility.yul\":9879:9901   */\n      swap1\n      pop\n        /* \"#utility.yul\":9855:9975   */\n      jump(tag_217)\n    tag_219:\n        /* \"#utility.yul\":9795:9981   */\n      pop\n      pop\n      jump\t// out\n        /* \"#utility.yul\":9987:10530   */\n    tag_99:\n        /* \"#utility.yul\":10088:10090   */\n      0x1f\n        /* \"#utility.yul\":10083:10086   */\n      dup3\n        /* \"#utility.yul\":10080:10091   */\n      gt\n        /* \"#utility.yul\":10077:10523   */\n      iszero\n      tag_222\n      jumpi\n        /* \"#utility.yul\":10122:10160   */\n      tag_223\n        /* \"#utility.yul\":10154:10159   */\n      dup2\n        /* \"#utility.yul\":10122:10160   */\n      tag_88\n      jump\t// in\n    tag_223:\n        /* \"#utility.yul\":10206:10235   */\n      tag_224\n        /* \"#utility.yul\":10224:10234   */\n      dup5\n        /* \"#utility.yul\":10206:10235   */\n      tag_89\n      jump\t// in\n    tag_224:\n        /* \"#utility.yul\":10196:10204   */\n      dup2\n        /* \"#utility.yul\":10192:10236   */\n      add\n        /* \"#utility.yul\":10389:10391   */\n      0x20\n        /* \"#utility.yul\":10377:10387   */\n      dup6\n        /* \"#utility.yul\":10374:10392   */\n      lt\n        /* \"#utility.yul\":10371:10420   */\n      iszero\n      tag_225\n      jumpi\n        /* \"#utility.yul\":10410:10418   */\n      dup2\n        /* \"#utility.yul\":10395:10418   */\n      swap1\n      pop\n        /* \"#utility.yul\":10371:10420   */\n    tag_225:\n        /* \"#utility.yul\":10433:10513   */\n      tag_226\n        /* \"#utility.yul\":10489:10511   */\n      tag_227\n        /* \"#utility.yul\":10507:10510   */\n      dup6\n        /* \"#utility.yul\":10489:10511   */\n      tag_89\n      jump\t// in\n    tag_227:\n        /* \"#utility.yul\":10479:10487   */\n      dup4\n        /* \"#utility.yul\":10475:10512   */\n      add\n        /* \"#utility.yul\":10462:10473   */\n      dup3\n        /* \"#utility.yul\":10433:10513   */\n      tag_98\n      jump\t// in\n    tag_226:\n        /* \"#utility.yul\":10092:10523   */\n      pop\n      pop\n        /* \"#utility.yul\":10077:10523   */\n    tag_222:\n        /* \"#utility.yul\":9987:10530   */\n      pop\n      pop\n      pop\n      jump\t// out\n        /* \"#utility.yul\":10536:10653   */\n    tag_100:\n        /* \"#utility.yul\":10590:10598   */\n      0x00\n        /* \"#utility.yul\":10640:10645   */\n      dup3\n        /* \"#utility.yul\":10634:10638   */\n      dup3\n        /* \"#utility.yul\":10630:10646   */\n      shr\n        /* \"#utility.yul\":10609:10646   */\n      swap1\n      pop\n        /* \"#utility.yul\":10536:10653   */\n      swap3\n      swap2\n      pop\n      pop\n      jump\t// out\n        /* \"#utility.yul\":10659:10828   */\n    tag_101:\n        /* \"#utility.yul\":10703:10709   */\n      0x00\n        /* \"#utility.yul\":10736:10787   */\n      tag_230\n        /* \"#utility.yul\":10784:10785   */\n      0x00\n        /* \"#utility.yul\":10780:10786   */\n      not\n        /* \"#utility.yul\":10772:10777   */\n      dup5\n        /* \"#utility.yul\":10769:10770   */\n      0x08\n        /* \"#utility.yul\":10765:10778   */\n      mul\n        /* \"#utility.yul\":10736:10787   */\n      tag_100\n      jump\t// in\n    tag_230:\n        /* \"#utility.yul\":10732:10788   */\n      not\n        /* \"#utility.yul\":10817:10821   */\n      dup1\n        /* \"#utility.yul\":10811:10815   */\n      dup4\n        /* \"#utility.yul\":10807:10822   */\n      and\n        /* \"#utility.yul\":10797:10822   */\n      swap2\n      pop\n        /* \"#utility.yul\":10710:10828   */\n      pop\n        /* \"#utility.yul\":10659:10828   */\n      swap3\n      swap2\n      pop\n      pop\n      jump\t// out\n        /* \"#utility.yul\":10833:11128   */\n    tag_102:\n        /* \"#utility.yul\":10909:10913   */\n      0x00\n        /* \"#utility.yul\":11055:11084   */\n      tag_232\n        /* \"#utility.yul\":11080:11083   */\n      dup4\n        /* \"#utility.yul\":11074:11078   */\n      dup4\n        /* \"#utility.yul\":11055:11084   */\n      tag_101\n      jump\t// in\n    tag_232:\n        /* \"#utility.yul\":11047:11084   */\n      swap2\n      pop\n        /* \"#utility.yul\":11117:11120   */\n      dup3\n        /* \"#utility.yul\":11114:11115   */\n      0x02\n        /* \"#utility.yul\":11110:11121   */\n      mul\n        /* \"#utility.yul\":11104:11108   */\n      dup3\n        /* \"#utility.yul\":11101:11122   */\n      or\n        /* \"#utility.yul\":11093:11122   */\n      swap1\n      pop\n        /* \"#utility.yul\":10833:11128   */\n      swap3\n      swap2\n      pop\n      pop\n      jump\t// out\n        /* \"#utility.yul\":11133:12528   */\n    tag_46:\n        /* \"#utility.yul\":11250:11287   */\n      tag_234\n        /* \"#utility.yul\":11283:11286   */\n      dup3\n        /* \"#utility.yul\":11250:11287   */\n      tag_76\n      jump\t// in\n    tag_234:\n        /* \"#utility.yul\":11352:11370   */\n      0xffffffffffffffff\n        /* \"#utility.yul\":11344:11350   */\n      dup2\n        /* \"#utility.yul\":11341:11371   */\n      gt\n        /* \"#utility.yul\":11338:11394   */\n      iszero\n      tag_235\n      jumpi\n        /* \"#utility.yul\":11374:11392   */\n      tag_236\n      tag_69\n      jump\t// in\n    tag_236:\n        /* \"#utility.yul\":11338:11394   */\n    tag_235:\n        /* \"#utility.yul\":11418:11456   */\n      tag_237\n        /* \"#utility.yul\":11450:11454   */\n      dup3\n        /* \"#utility.yul\":11444:11455   */\n      sload\n        /* \"#utility.yul\":11418:11456   */\n      tag_49\n      jump\t// in\n    tag_237:\n        /* \"#utility.yul\":11503:11570   */\n      tag_238\n        /* \"#utility.yul\":11563:11569   */\n      dup3\n        /* \"#utility.yul\":11555:11561   */\n      dup3\n        /* \"#utility.yul\":11549:11553   */\n      dup6\n        /* \"#utility.yul\":11503:11570   */\n      tag_99\n      jump\t// in\n    tag_238:\n        /* \"#utility.yul\":11597:11598   */\n      0x00\n        /* \"#utility.yul\":11621:11625   */\n      0x20\n        /* \"#utility.yul\":11608:11625   */\n      swap1\n      pop\n        /* \"#utility.yul\":11653:11655   */\n      0x1f\n        /* \"#utility.yul\":11645:11651   */\n      dup4\n        /* \"#utility.yul\":11642:11656   */\n      gt\n        /* \"#utility.yul\":11670:11671   */\n      0x01\n        /* \"#utility.yul\":11665:12283   */\n      dup2\n      eq\n      tag_240\n      jumpi\n        /* \"#utility.yul\":12327:12328   */\n      0x00\n        /* \"#utility.yul\":12344:12350   */\n      dup5\n        /* \"#utility.yul\":12341:12418   */\n      iszero\n      tag_241\n      jumpi\n        /* \"#utility.yul\":12393:12402   */\n      dup3\n        /* \"#utility.yul\":12388:12391   */\n      dup8\n        /* \"#utility.yul\":12384:12403   */\n      add\n        /* \"#utility.yul\":12378:12404   */\n      mload\n        /* \"#utility.yul\":12369:12404   */\n      swap1\n      pop\n        /* \"#utility.yul\":12341:12418   */\n    tag_241:\n        /* \"#utility.yul\":12444:12511   */\n      tag_242\n        /* \"#utility.yul\":12504:12510   */\n      dup6\n        /* \"#utility.yul\":12497:12502   */\n      dup3\n        /* \"#utility.yul\":12444:12511   */\n      tag_102\n      jump\t// in\n    tag_242:\n        /* \"#utility.yul\":12438:12442   */\n      dup7\n        /* \"#utility.yul\":12431:12512   */\n      sstore\n        /* \"#utility.yul\":12300:12522   */\n      pop\n        /* \"#utility.yul\":11635:12522   */\n      jump(tag_239)\n        /* \"#utility.yul\":11665:12283   */\n    tag_240:\n        /* \"#utility.yul\":11717:11721   */\n      0x1f\n        /* \"#utility.yul\":11713:11722   */\n      not\n        /* \"#utility.yul\":11705:11711   */\n      dup5\n        /* \"#utility.yul\":11701:11723   */\n      and\n        /* \"#utility.yul\":11751:11788   */\n      tag_243\n        /* \"#utility.yul\":11783:11787   */\n      dup7\n        /* \"#utility.yul\":11751:11788   */\n      tag_88\n      jump\t// in\n    tag_243:\n        /* \"#utility.yul\":11810:11811   */\n      0x00\n        /* \"#utility.yul\":11824:12032   */\n    tag_244:\n        /* \"#utility.yul\":11838:11845   */\n      dup3\n        /* \"#utility.yul\":11835:11836   */\n      dup2\n        /* \"#utility.yul\":11832:11846   */\n      lt\n        /* \"#utility.yul\":11824:12032   */\n      iszero\n      tag_246\n      jumpi\n        /* \"#utility.yul\":11917:11926   */\n      dup5\n        /* \"#utility.yul\":11912:11915   */\n      dup10\n        /* \"#utility.yul\":11908:11927   */\n      add\n        /* \"#utility.yul\":11902:11928   */\n      mload\n        /* \"#utility.yul\":11894:11900   */\n      dup3\n        /* \"#utility.yul\":11887:11929   */\n      sstore\n        /* \"#utility.yul\":11968:11969   */\n      0x01\n        /* \"#utility.yul\":11960:11966   */\n      dup3\n        /* \"#utility.yul\":11956:11970   */\n      add\n        /* \"#utility.yul\":11946:11970   */\n      swap2\n      pop\n        /* \"#utility.yul\":12015:12017   */\n      0x20\n        /* \"#utility.yul\":12004:12013   */\n      dup6\n        /* \"#utility.yul\":12000:12018   */\n      add\n        /* \"#utility.yul\":11987:12018   */\n      swap5\n      pop\n        /* \"#utility.yul\":11861:11865   */\n      0x20\n        /* \"#utility.yul\":11858:11859   */\n      dup2\n        /* \"#utility.yul\":11854:11866   */\n      add\n        /* \"#utility.yul\":11849:11866   */\n      swap1\n      pop\n        /* \"#utility.yul\":11824:12032   */\n      jump(tag_244)\n    tag_246:\n        /* \"#utility.yul\":12060:12066   */\n      dup7\n        /* \"#utility.yul\":12051:12058   */\n      dup4\n        /* \"#utility.yul\":12048:12067   */\n      lt\n        /* \"#utility.yul\":12045:12224   */\n      iszero\n      tag_247\n      jumpi\n        /* \"#utility.yul\":12118:12127   */\n      dup5\n        /* \"#utility.yul\":12113:12116   */\n      dup10\n        /* \"#utility.yul\":12109:12128   */\n      add\n        /* \"#utility.yul\":12103:12129   */\n      mload\n        /* \"#utility.yul\":12161:12209   */\n      tag_248\n        /* \"#utility.yul\":12203:12207   */\n      0x1f\n        /* \"#utility.yul\":12195:12201   */\n      dup10\n        /* \"#utility.yul\":12191:12208   */\n      and\n        /* \"#utility.yul\":12180:12189   */\n      dup3\n        /* \"#utility.yul\":12161:12209   */\n      tag_101\n      jump\t// in\n    tag_248:\n        /* \"#utility.yul\":12153:12159   */\n      dup4\n        /* \"#utility.yul\":12146:12210   */\n      sstore\n        /* \"#utility.yul\":12068:12224   */\n      pop\n        /* \"#utility.yul\":12045:12224   */\n    tag_247:\n        /* \"#utility.yul\":12270:12271   */\n      0x01\n        /* \"#utility.yul\":12266:12267   */\n      0x02\n        /* \"#utility.yul\":12258:12264   */\n      dup9\n        /* \"#utility.yul\":12254:12268   */\n      mul\n        /* \"#utility.yul\":12250:12272   */\n      add\n        /* \"#utility.yul\":12244:12248   */\n      dup9\n        /* \"#utility.yul\":12237:12273   */\n      sstore\n        /* \"#utility.yul\":11672:12283   */\n      pop\n      pop\n      pop\n        /* \"#utility.yul\":11635:12522   */\n    tag_239:\n      pop\n        /* \"#utility.yul\":11225:12528   */\n      pop\n      pop\n      pop\n        /* \"#utility.yul\":11133:12528   */\n      pop\n      pop\n      jump\t// out\n\n    auxdata: 0xa2646970667358221220b8e727d6c6b0c808cdea126e6b4c3574fa7a0d9a4146fd13306089f918673b3b64736f6c634300081a0033\n}\n",
				"bytecode": {
					"linkReferences": {},
					"object": "6080604052348015600e575f80fd5b50610aaf8061001c5f395ff3fe608060405234801561000f575f80fd5b506004361061007b575f3560e01c80633477ee2e116100595780633477ee2e146100e957806385a386351461011c578063a3ec138d1461013a578063b86eda911461016a5761007b565b80630121b93f1461007f578063101158af1461009b57806326541b56146100b9575b5f80fd5b610099600480360381019061009491906103ce565b610188565b005b6100a361018b565b6040516100b09190610408565b60405180910390f35b6100d360048036038101906100ce919061055d565b610191565b6040516100e09190610408565b60405180910390f35b61010360048036038101906100fe91906103ce565b61022a565b6040516101139493929190610633565b60405180910390f35b610124610361565b6040516101319190610408565b60405180910390f35b610154600480360381019061014f91906106de565b610367565b6040516101619190610723565b60405180910390f35b610172610384565b60405161017f9190610408565b60405180910390f35b50565b60035481565b5f60025f8154809291906101a490610769565b9190505550604051806080016040528060025481526020018481526020018381526020015f8152505f8060025481526020019081526020015f205f820151815f015560208201518160010190816101fb91906109aa565b50604082015181600201908161021191906109aa565b5060608201518160030155905050600254905092915050565b5f602052805f5260405f205f91509050805f01549080600101805461024e906107dd565b80601f016020809104026020016040519081016040528092919081815260200182805461027a906107dd565b80156102c55780601f1061029c576101008083540402835291602001916102c5565b820191905f5260205f20905b8154815290600101906020018083116102a857829003601f168201915b5050505050908060020180546102da906107dd565b80601f0160208091040260200160405190810160405280929190818152602001828054610306906107dd565b80156103515780601f1061032857610100808354040283529160200191610351565b820191905f5260205f20905b81548152906001019060200180831161033457829003601f168201915b5050505050908060030154905084565b60045481565b6001602052805f5260405f205f915054906101000a900460ff1681565b60025481565b5f604051905090565b5f80fd5b5f80fd5b5f819050919050565b6103ad8161039b565b81146103b7575f80fd5b50565b5f813590506103c8816103a4565b92915050565b5f602082840312156103e3576103e2610393565b5b5f6103f0848285016103ba565b91505092915050565b6104028161039b565b82525050565b5f60208201905061041b5f8301846103f9565b92915050565b5f80fd5b5f80fd5b5f601f19601f8301169050919050565b7f4e487b71000000000000000000000000000000000000000000000000000000005f52604160045260245ffd5b61046f82610429565b810181811067ffffffffffffffff8211171561048e5761048d610439565b5b80604052505050565b5f6104a061038a565b90506104ac8282610466565b919050565b5f67ffffffffffffffff8211156104cb576104ca610439565b5b6104d482610429565b9050602081019050919050565b828183375f83830152505050565b5f6105016104fc846104b1565b610497565b90508281526020810184848401111561051d5761051c610425565b5b6105288482856104e1565b509392505050565b5f82601f83011261054457610543610421565b5b81356105548482602086016104ef565b91505092915050565b5f806040838503121561057357610572610393565b5b5f83013567ffffffffffffffff8111156105905761058f610397565b5b61059c85828601610530565b925050602083013567ffffffffffffffff8111156105bd576105bc610397565b5b6105c985828601610530565b9150509250929050565b5f81519050919050565b5f82825260208201905092915050565b8281835e5f83830152505050565b5f610605826105d3565b61060f81856105dd565b935061061f8185602086016105ed565b61062881610429565b840191505092915050565b5f6080820190506106465f8301876103f9565b818103602083015261065881866105fb565b9050818103604083015261066c81856105fb565b905061067b60608301846103f9565b95945050505050565b5f73ffffffffffffffffffffffffffffffffffffffff82169050919050565b5f6106ad82610684565b9050919050565b6106bd816106a3565b81146106c7575f80fd5b50565b5f813590506106d8816106b4565b92915050565b5f602082840312156106f3576106f2610393565b5b5f610700848285016106ca565b91505092915050565b5f8115159050919050565b61071d81610709565b82525050565b5f6020820190506107365f830184610714565b92915050565b7f4e487b71000000000000000000000000000000000000000000000000000000005f52601160045260245ffd5b5f6107738261039b565b91507fffffffffffffffffffffffffffffffffffffffffffffffffffffffffffffffff82036107a5576107a461073c565b5b600182019050919050565b7f4e487b71000000000000000000000000000000000000000000000000000000005f52602260045260245ffd5b5f60028204905060018216806107f457607f821691505b602082108103610807576108066107b0565b5b50919050565b5f819050815f5260205f209050919050565b5f6020601f8301049050919050565b5f82821b905092915050565b5f600883026108697fffffffffffffffffffffffffffffffffffffffffffffffffffffffffffffffff8261082e565b610873868361082e565b95508019841693508086168417925050509392505050565b5f819050919050565b5f6108ae6108a96108a48461039b565b61088b565b61039b565b9050919050565b5f819050919050565b6108c783610894565b6108db6108d3826108b5565b84845461083a565b825550505050565b5f90565b6108ef6108e3565b6108fa8184846108be565b505050565b5b8181101561091d576109125f826108e7565b600181019050610900565b5050565b601f821115610962576109338161080d565b61093c8461081f565b8101602085101561094b578190505b61095f6109578561081f565b8301826108ff565b50505b505050565b5f82821c905092915050565b5f6109825f1984600802610967565b1980831691505092915050565b5f61099a8383610973565b9150826002028217905092915050565b6109b3826105d3565b67ffffffffffffffff8111156109cc576109cb610439565b5b6109d682546107dd565b6109e1828285610921565b5f60209050601f831160018114610a12575f8415610a00578287015190505b610a0a858261098f565b865550610a71565b601f198416610a208661080d565b5f5b82811015610a4757848901518255600182019150602085019450602081019050610a22565b86831015610a645784890151610a60601f891682610973565b8355505b6001600288020188555050505b50505050505056fea2646970667358221220b8e727d6c6b0c808cdea126e6b4c3574fa7a0d9a4146fd13306089f918673b3b64736f6c634300081a0033",
					"opcodes": "PUSH1 0x80 PUSH1 0x40 MSTORE CALLVALUE DUP1 ISZERO PUSH1 0xE JUMPI PUSH0 DUP1 REVERT JUMPDEST POP PUSH2 0xAAF DUP1 PUSH2 0x1C PUSH0 CODECOPY PUSH0 RETURN INVALID PUSH1 0x80 PUSH1 0x40 MSTORE CALLVALUE DUP1 ISZERO PUSH2 0xF JUMPI PUSH0 DUP1 REVERT JUMPDEST POP PUSH1 0x4 CALLDATASIZE LT PUSH2 0x7B JUMPI PUSH0 CALLDATALOAD PUSH1 0xE0 SHR DUP1 PUSH4 0x3477EE2E GT PUSH2 0x59 JUMPI DUP1 PUSH4 0x3477EE2E EQ PUSH2 0xE9 JUMPI DUP1 PUSH4 0x85A38635 EQ PUSH2 0x11C JUMPI DUP1 PUSH4 0xA3EC138D EQ PUSH2 0x13A JUMPI DUP1 PUSH4 0xB86EDA91 EQ PUSH2 0x16A JUMPI PUSH2 0x7B JUMP JUMPDEST DUP1 PUSH4 0x121B93F EQ PUSH2 0x7F JUMPI DUP1 PUSH4 0x101158AF EQ PUSH2 0x9B JUMPI DUP1 PUSH4 0x26541B56 EQ PUSH2 0xB9 JUMPI JUMPDEST PUSH0 DUP1 REVERT JUMPDEST PUSH2 0x99 PUSH1 0x4 DUP1 CALLDATASIZE SUB DUP2 ADD SWAP1 PUSH2 0x94 SWAP2 SWAP1 PUSH2 0x3CE JUMP JUMPDEST PUSH2 0x188 JUMP JUMPDEST STOP JUMPDEST PUSH2 0xA3 PUSH2 0x18B JUMP JUMPDEST PUSH1 0x40 MLOAD PUSH2 0xB0 SWAP2 SWAP1 PUSH2 0x408 JUMP JUMPDEST PUSH1 0x40 MLOAD DUP1 SWAP2 SUB SWAP1 RETURN JUMPDEST PUSH2 0xD3 PUSH1 0x4 DUP1 CALLDATASIZE SUB DUP2 ADD SWAP1 PUSH2 0xCE SWAP2 SWAP1 PUSH2 0x55D JUMP JUMPDEST PUSH2 0x191 JUMP JUMPDEST PUSH1 0x40 MLOAD PUSH2 0xE0 SWAP2 SWAP1 PUSH2 0x408 JUMP JUMPDEST PUSH1 0x40 MLOAD DUP1 SWAP2 SUB SWAP1 RETURN JUMPDEST PUSH2 0x103 PUSH1 0x4 DUP1 CALLDATASIZE SUB DUP2 ADD SWAP1 PUSH2 0xFE SWAP2 SWAP1 PUSH2 0x3CE JUMP JUMPDEST PUSH2 0x22A JUMP JUMPDEST PUSH1 0x40 MLOAD PUSH2 0x113 SWAP5 SWAP4 SWAP3 SWAP2 SWAP1 PUSH2 0x633 JUMP JUMPDEST PUSH1 0x40 MLOAD DUP1 SWAP2 SUB SWAP1 RETURN JUMPDEST PUSH2 0x124 PUSH2 0x361 JUMP JUMPDEST PUSH1 0x40 MLOAD PUSH2 0x131 SWAP2 SWAP1 PUSH2 0x408 JUMP JUMPDEST PUSH1 0x40 MLOAD DUP1 SWAP2 SUB SWAP1 RETURN JUMPDEST PUSH2 0x154 PUSH1 0x4 DUP1 CALLDATASIZE SUB DUP2 ADD SWAP1 PUSH2 0x14F SWAP2 SWAP1 PUSH2 0x6DE JUMP JUMPDEST PUSH2 0x367 JUMP JUMPDEST PUSH1 0x40 MLOAD PUSH2 0x161 SWAP2 SWAP1 PUSH2 0x723 JUMP JUMPDEST PUSH1 0x40 MLOAD DUP1 SWAP2 SUB SWAP1 RETURN JUMPDEST PUSH2 0x172 PUSH2 0x384 JUMP JUMPDEST PUSH1 0x40 MLOAD PUSH2 0x17F SWAP2 SWAP1 PUSH2 0x408 JUMP JUMPDEST PUSH1 0x40 MLOAD DUP1 SWAP2 SUB SWAP1 RETURN JUMPDEST POP JUMP JUMPDEST PUSH1 0x3 SLOAD DUP2 JUMP JUMPDEST PUSH0 PUSH1 0x2 PUSH0 DUP2 SLOAD DUP1 SWAP3 SWAP2 SWAP1 PUSH2 0x1A4 SWAP1 PUSH2 0x769 JUMP JUMPDEST SWAP2 SWAP1 POP SSTORE POP PUSH1 0x40 MLOAD DUP1 PUSH1 0x80 ADD PUSH1 0x40 MSTORE DUP1 PUSH1 0x2 SLOAD DUP2 MSTORE PUSH1 0x20 ADD DUP5 DUP2 MSTORE PUSH1 0x20 ADD DUP4 DUP2 MSTORE PUSH1 0x20 ADD PUSH0 DUP2 MSTORE POP PUSH0 DUP1 PUSH1 0x2 SLOAD DUP2 MSTORE PUSH1 0x20 ADD SWAP1 DUP2 MSTORE PUSH1 0x20 ADD PUSH0 KECCAK256 PUSH0 DUP3 ADD MLOAD DUP2 PUSH0 ADD SSTORE PUSH1 0x20 DUP3 ADD MLOAD DUP2 PUSH1 0x1 ADD SWAP1 DUP2 PUSH2 0x1FB SWAP2 SWAP1 PUSH2 0x9AA JUMP JUMPDEST POP PUSH1 0x40 DUP3 ADD MLOAD DUP2 PUSH1 0x2 ADD SWAP1 DUP2 PUSH2 0x211 SWAP2 SWAP1 PUSH2 0x9AA JUMP JUMPDEST POP PUSH1 0x60 DUP3 ADD MLOAD DUP2 PUSH1 0x3 ADD SSTORE SWAP1 POP POP PUSH1 0x2 SLOAD SWAP1 POP SWAP3 SWAP2 POP POP JUMP JUMPDEST PUSH0 PUSH1 0x20 MSTORE DUP1 PUSH0 MSTORE PUSH1 0x40 PUSH0 KECCAK256 PUSH0 SWAP2 POP SWAP1 POP DUP1 PUSH0 ADD SLOAD SWAP1 DUP1 PUSH1 0x1 ADD DUP1 SLOAD PUSH2 0x24E SWAP1 PUSH2 0x7DD JUMP JUMPDEST DUP1 PUSH1 0x1F ADD PUSH1 0x20 DUP1 SWAP2 DIV MUL PUSH1 0x20 ADD PUSH1 0x40 MLOAD SWAP1 DUP2 ADD PUSH1 0x40 MSTORE DUP1 SWAP3 SWAP2 SWAP1 DUP2 DUP2 MSTORE PUSH1 0x20 ADD DUP3 DUP1 SLOAD PUSH2 0x27A SWAP1 PUSH2 0x7DD JUMP JUMPDEST DUP1 ISZERO PUSH2 0x2C5 JUMPI DUP1 PUSH1 0x1F LT PUSH2 0x29C JUMPI PUSH2 0x100 DUP1 DUP4 SLOAD DIV MUL DUP4 MSTORE SWAP2 PUSH1 0x20 ADD SWAP2 PUSH2 0x2C5 JUMP JUMPDEST DUP3 ADD SWAP2 SWAP1 PUSH0 MSTORE PUSH1 0x20 PUSH0 KECCAK256 SWAP1 JUMPDEST DUP2 SLOAD DUP2 MSTORE SWAP1 PUSH1 0x1 ADD SWAP1 PUSH1 0x20 ADD DUP1 DUP4 GT PUSH2 0x2A8 JUMPI DUP3 SWAP1 SUB PUSH1 0x1F AND DUP3 ADD SWAP2 JUMPDEST POP POP POP POP POP SWAP1 DUP1 PUSH1 0x2 ADD DUP1 SLOAD PUSH2 0x2DA SWAP1 PUSH2 0x7DD JUMP JUMPDEST DUP1 PUSH1 0x1F ADD PUSH1 0x20 DUP1 SWAP2 DIV MUL PUSH1 0x20 ADD PUSH1 0x40 MLOAD SWAP1 DUP2 ADD PUSH1 0x40 MSTORE DUP1 SWAP3 SWAP2 SWAP1 DUP2 DUP2 MSTORE PUSH1 0x20 ADD DUP3 DUP1 SLOAD PUSH2 0x306 SWAP1 PUSH2 0x7DD JUMP JUMPDEST DUP1 ISZERO PUSH2 0x351 JUMPI DUP1 PUSH1 0x1F LT PUSH2 0x328 JUMPI PUSH2 0x100 DUP1 DUP4 SLOAD DIV MUL DUP4 MSTORE SWAP2 PUSH1 0x20 ADD SWAP2 PUSH2 0x351 JUMP JUMPDEST DUP3 ADD SWAP2 SWAP1 PUSH0 MSTORE PUSH1 0x20 PUSH0 KECCAK256 SWAP1 JUMPDEST DUP2 SLOAD DUP2 MSTORE SWAP1 PUSH1 0x1 ADD SWAP1 PUSH1 0x20 ADD DUP1 DUP4 GT PUSH2 0x334 JUMPI DUP3 SWAP1 SUB PUSH1 0x1F AND DUP3 ADD SWAP2 JUMPDEST POP POP POP POP POP SWAP1 DUP1 PUSH1 0x3 ADD SLOAD SWAP1 POP DUP5 JUMP JUMPDEST PUSH1 0x4 SLOAD DUP2 JUMP JUMPDEST PUSH1 0x1 PUSH1 0x20 MSTORE DUP1 PUSH0 MSTORE PUSH1 0x40 PUSH0 KECCAK256 PUSH0 SWAP2 POP SLOAD SWAP1 PUSH2 0x100 EXP SWAP1 DIV PUSH1 0xFF AND DUP2 JUMP JUMPDEST PUSH1 0x2 SLOAD DUP2 JUMP JUMPDEST PUSH0 PUSH1 0x40 MLOAD SWAP1 POP SWAP1 JUMP JUMPDEST PUSH0 DUP1 REVERT JUMPDEST PUSH0 DUP1 REVERT JUMPDEST PUSH0 DUP2 SWAP1 POP SWAP2 SWAP1 POP JUMP JUMPDEST PUSH2 0x3AD DUP2 PUSH2 0x39B JUMP JUMPDEST DUP2 EQ PUSH2 0x3B7 JUMPI PUSH0 DUP1 REVERT JUMPDEST POP JUMP JUMPDEST PUSH0 DUP2 CALLDATALOAD SWAP1 POP PUSH2 0x3C8 DUP2 PUSH2 0x3A4 JUMP JUMPDEST SWAP3 SWAP2 POP POP JUMP JUMPDEST PUSH0 PUSH1 0x20 DUP3 DUP5 SUB SLT ISZERO PUSH2 0x3E3 JUMPI PUSH2 0x3E2 PUSH2 0x393 JUMP JUMPDEST JUMPDEST PUSH0 PUSH2 0x3F0 DUP5 DUP3 DUP6 ADD PUSH2 0x3BA JUMP JUMPDEST SWAP2 POP POP SWAP3 SWAP2 POP POP JUMP JUMPDEST PUSH2 0x402 DUP2 PUSH2 0x39B JUMP JUMPDEST DUP3 MSTORE POP POP JUMP JUMPDEST PUSH0 PUSH1 0x20 DUP3 ADD SWAP1 POP PUSH2 0x41B PUSH0 DUP4 ADD DUP5 PUSH2 0x3F9 JUMP JUMPDEST SWAP3 SWAP2 POP POP JUMP JUMPDEST PUSH0 DUP1 REVERT JUMPDEST PUSH0 DUP1 REVERT JUMPDEST PUSH0 PUSH1 0x1F NOT PUSH1 0x1F DUP4 ADD AND SWAP1 POP SWAP2 SWAP1 POP JUMP JUMPDEST PUSH32 0x4E487B7100000000000000000000000000000000000000000000000000000000 PUSH0 MSTORE PUSH1 0x41 PUSH1 0x4 MSTORE PUSH1 0x24 PUSH0 REVERT JUMPDEST PUSH2 0x46F DUP3 PUSH2 0x429 JUMP JUMPDEST DUP2 ADD DUP2 DUP2 LT PUSH8 0xFFFFFFFFFFFFFFFF DUP3 GT OR ISZERO PUSH2 0x48E JUMPI PUSH2 0x48D PUSH2 0x439 JUMP JUMPDEST JUMPDEST DUP1 PUSH1 0x40 MSTORE POP POP POP JUMP JUMPDEST PUSH0 PUSH2 0x4A0 PUSH2 0x38A JUMP JUMPDEST SWAP1 POP PUSH2 0x4AC DUP3 DUP3 PUSH2 0x466 JUMP JUMPDEST SWAP2 SWAP1 POP JUMP JUMPDEST PUSH0 PUSH8 0xFFFFFFFFFFFFFFFF DUP3 GT ISZERO PUSH2 0x4CB JUMPI PUSH2 0x4CA PUSH2 0x439 JUMP JUMPDEST JUMPDEST PUSH2 0x4D4 DUP3 PUSH2 0x429 JUMP JUMPDEST SWAP1 POP PUSH1 0x20 DUP2 ADD SWAP1 POP SWAP2 SWAP1 POP JUMP JUMPDEST DUP3 DUP2 DUP4 CALLDATACOPY PUSH0 DUP4 DUP4 ADD MSTORE POP POP POP JUMP JUMPDEST PUSH0 PUSH2 0x501 PUSH2 0x4FC DUP5 PUSH2 0x4B1 JUMP JUMPDEST PUSH2 0x497 JUMP JUMPDEST SWAP1 POP DUP3 DUP2 MSTORE PUSH1 0x20 DUP2 ADD DUP5 DUP5 DUP5 ADD GT ISZERO PUSH2 0x51D JUMPI PUSH2 0x51C PUSH2 0x425 JUMP JUMPDEST JUMPDEST PUSH2 0x528 DUP5 DUP3 DUP6 PUSH2 0x4E1 JUMP JUMPDEST POP SWAP4 SWAP3 POP POP POP JUMP JUMPDEST PUSH0 DUP3 PUSH1 0x1F DUP4 ADD SLT PUSH2 0x544 JUMPI PUSH2 0x543 PUSH2 0x421 JUMP JUMPDEST JUMPDEST DUP2 CALLDATALOAD PUSH2 0x554 DUP5 DUP3 PUSH1 0x20 DUP7 ADD PUSH2 0x4EF JUMP JUMPDEST SWAP2 POP POP SWAP3 SWAP2 POP POP JUMP JUMPDEST PUSH0 DUP1 PUSH1 0x40 DUP4 DUP6 SUB SLT ISZERO PUSH2 0x573 JUMPI PUSH2 0x572 PUSH2 0x393 JUMP JUMPDEST JUMPDEST PUSH0 DUP4 ADD CALLDATALOAD PUSH8 0xFFFFFFFFFFFFFFFF DUP2 GT ISZERO PUSH2 0x590 JUMPI PUSH2 0x58F PUSH2 0x397 JUMP JUMPDEST JUMPDEST PUSH2 0x59C DUP6 DUP3 DUP7 ADD PUSH2 0x530 JUMP JUMPDEST SWAP3 POP POP PUSH1 0x20 DUP4 ADD CALLDATALOAD PUSH8 0xFFFFFFFFFFFFFFFF DUP2 GT ISZERO PUSH2 0x5BD JUMPI PUSH2 0x5BC PUSH2 0x397 JUMP JUMPDEST JUMPDEST PUSH2 0x5C9 DUP6 DUP3 DUP7 ADD PUSH2 0x530 JUMP JUMPDEST SWAP2 POP POP SWAP3 POP SWAP3 SWAP1 POP JUMP JUMPDEST PUSH0 DUP2 MLOAD SWAP1 POP SWAP2 SWAP1 POP JUMP JUMPDEST PUSH0 DUP3 DUP3 MSTORE PUSH1 0x20 DUP3 ADD SWAP1 POP SWAP3 SWAP2 POP POP JUMP JUMPDEST DUP3 DUP2 DUP4 MCOPY PUSH0 DUP4 DUP4 ADD MSTORE POP POP POP JUMP JUMPDEST PUSH0 PUSH2 0x605 DUP3 PUSH2 0x5D3 JUMP JUMPDEST PUSH2 0x60F DUP2 DUP6 PUSH2 0x5DD JUMP JUMPDEST SWAP4 POP PUSH2 0x61F DUP2 DUP6 PUSH1 0x20 DUP7 ADD PUSH2 0x5ED JUMP JUMPDEST PUSH2 0x628 DUP2 PUSH2 0x429 JUMP JUMPDEST DUP5 ADD SWAP2 POP POP SWAP3 SWAP2 POP POP JUMP JUMPDEST PUSH0 PUSH1 0x80 DUP3 ADD SWAP1 POP PUSH2 0x646 PUSH0 DUP4 ADD DUP8 PUSH2 0x3F9 JUMP JUMPDEST DUP2 DUP2 SUB PUSH1 0x20 DUP4 ADD MSTORE PUSH2 0x658 DUP2 DUP7 PUSH2 0x5FB JUMP JUMPDEST SWAP1 POP DUP2 DUP2 SUB PUSH1 0x40 DUP4 ADD MSTORE PUSH2 0x66C DUP2 DUP6 PUSH2 0x5FB JUMP JUMPDEST SWAP1 POP PUSH2 0x67B PUSH1 0x60 DUP4 ADD DUP5 PUSH2 0x3F9 JUMP JUMPDEST SWAP6 SWAP5 POP POP POP POP POP JUMP JUMPDEST PUSH0 PUSH20 0xFFFFFFFFFFFFFFFFFFFFFFFFFFFFFFFFFFFFFFFF DUP3 AND SWAP1 POP SWAP2 SWAP1 POP JUMP JUMPDEST PUSH0 PUSH2 0x6AD DUP3 PUSH2 0x684 JUMP JUMPDEST SWAP1 POP SWAP2 SWAP1 POP JUMP JUMPDEST PUSH2 0x6BD DUP2 PUSH2 0x6A3 JUMP JUMPDEST DUP2 EQ PUSH2 0x6C7 JUMPI PUSH0 DUP1 REVERT JUMPDEST POP JUMP JUMPDEST PUSH0 DUP2 CALLDATALOAD SWAP1 POP PUSH2 0x6D8 DUP2 PUSH2 0x6B4 JUMP JUMPDEST SWAP3 SWAP2 POP POP JUMP JUMPDEST PUSH0 PUSH1 0x20 DUP3 DUP5 SUB SLT ISZERO PUSH2 0x6F3 JUMPI PUSH2 0x6F2 PUSH2 0x393 JUMP JUMPDEST JUMPDEST PUSH0 PUSH2 0x700 DUP5 DUP3 DUP6 ADD PUSH2 0x6CA JUMP JUMPDEST SWAP2 POP POP SWAP3 SWAP2 POP POP JUMP JUMPDEST PUSH0 DUP2 ISZERO ISZERO SWAP1 POP SWAP2 SWAP1 POP JUMP JUMPDEST PUSH2 0x71D DUP2 PUSH2 0x709 JUMP JUMPDEST DUP3 MSTORE POP POP JUMP JUMPDEST PUSH0 PUSH1 0x20 DUP3 ADD SWAP1 POP PUSH2 0x736 PUSH0 DUP4 ADD DUP5 PUSH2 0x714 JUMP JUMPDEST SWAP3 SWAP2 POP POP JUMP JUMPDEST PUSH32 0x4E487B7100000000000000000000000000000000000000000000000000000000 PUSH0 MSTORE PUSH1 0x11 PUSH1 0x4 MSTORE PUSH1 0x24 PUSH0 REVERT JUMPDEST PUSH0 PUSH2 0x773 DUP3 PUSH2 0x39B JUMP JUMPDEST SWAP2 POP PUSH32 0xFFFFFFFFFFFFFFFFFFFFFFFFFFFFFFFFFFFFFFFFFFFFFFFFFFFFFFFFFFFFFFFF DUP3 SUB PUSH2 0x7A5 JUMPI PUSH2 0x7A4 PUSH2 0x73C JUMP JUMPDEST JUMPDEST PUSH1 0x1 DUP3 ADD SWAP1 POP SWAP2 SWAP1 POP JUMP JUMPDEST PUSH32 0x4E487B7100000000000000000000000000000000000000000000000000000000 PUSH0 MSTORE PUSH1 0x22 PUSH1 0x4 MSTORE PUSH1 0x24 PUSH0 REVERT JUMPDEST PUSH0 PUSH1 0x2 DUP3 DIV SWAP1 POP PUSH1 0x1 DUP3 AND DUP1 PUSH2 0x7F4 JUMPI PUSH1 0x7F DUP3 AND SWAP2 POP JUMPDEST PUSH1 0x20 DUP3 LT DUP2 SUB PUSH2 0x807 JUMPI PUSH2 0x806 PUSH2 0x7B0 JUMP JUMPDEST JUMPDEST POP SWAP2 SWAP1 POP JUMP JUMPDEST PUSH0 DUP2 SWAP1 POP DUP2 PUSH0 MSTORE PUSH1 0x20 PUSH0 KECCAK256 SWAP1 POP SWAP2 SWAP1 POP JUMP JUMPDEST PUSH0 PUSH1 0x20 PUSH1 0x1F DUP4 ADD DIV SWAP1 POP SWAP2 SWAP1 POP JUMP JUMPDEST PUSH0 DUP3 DUP3 SHL SWAP1 POP SWAP3 SWAP2 POP POP JUMP JUMPDEST PUSH0 PUSH1 0x8 DUP4 MUL PUSH2 0x869 PUSH32 0xFFFFFFFFFFFFFFFFFFFFFFFFFFFFFFFFFFFFFFFFFFFFFFFFFFFFFFFFFFFFFFFF DUP3 PUSH2 0x82E JUMP JUMPDEST PUSH2 0x873 DUP7 DUP4 PUSH2 0x82E JUMP JUMPDEST SWAP6 POP DUP1 NOT DUP5 AND SWAP4 POP DUP1 DUP7 AND DUP5 OR SWAP3 POP POP POP SWAP4 SWAP3 POP POP POP JUMP JUMPDEST PUSH0 DUP2 SWAP1 POP SWAP2 SWAP1 POP JUMP JUMPDEST PUSH0 PUSH2 0x8AE PUSH2 0x8A9 PUSH2 0x8A4 DUP5 PUSH2 0x39B JUMP JUMPDEST PUSH2 0x88B JUMP JUMPDEST PUSH2 0x39B JUMP JUMPDEST SWAP1 POP SWAP2 SWAP1 POP JUMP JUMPDEST PUSH0 DUP2 SWAP1 POP SWAP2 SWAP1 POP JUMP JUMPDEST PUSH2 0x8C7 DUP4 PUSH2 0x894 JUMP JUMPDEST PUSH2 0x8DB PUSH2 0x8D3 DUP3 PUSH2 0x8B5 JUMP JUMPDEST DUP5 DUP5 SLOAD PUSH2 0x83A JUMP JUMPDEST DUP3 SSTORE POP POP POP POP JUMP JUMPDEST PUSH0 SWAP1 JUMP JUMPDEST PUSH2 0x8EF PUSH2 0x8E3 JUMP JUMPDEST PUSH2 0x8FA DUP2 DUP5 DUP5 PUSH2 0x8BE JUMP JUMPDEST POP POP POP JUMP JUMPDEST JUMPDEST DUP2 DUP2 LT ISZERO PUSH2 0x91D JUMPI PUSH2 0x912 PUSH0 DUP3 PUSH2 0x8E7 JUMP JUMPDEST PUSH1 0x1 DUP2 ADD SWAP1 POP PUSH2 0x900 JUMP JUMPDEST POP POP JUMP JUMPDEST PUSH1 0x1F DUP3 GT ISZERO PUSH2 0x962 JUMPI PUSH2 0x933 DUP2 PUSH2 0x80D JUMP JUMPDEST PUSH2 0x93C DUP5 PUSH2 0x81F JUMP JUMPDEST DUP2 ADD PUSH1 0x20 DUP6 LT ISZERO PUSH2 0x94B JUMPI DUP2 SWAP1 POP JUMPDEST PUSH2 0x95F PUSH2 0x957 DUP6 PUSH2 0x81F JUMP JUMPDEST DUP4 ADD DUP3 PUSH2 0x8FF JUMP JUMPDEST POP POP JUMPDEST POP POP POP JUMP JUMPDEST PUSH0 DUP3 DUP3 SHR SWAP1 POP SWAP3 SWAP2 POP POP JUMP JUMPDEST PUSH0 PUSH2 0x982 PUSH0 NOT DUP5 PUSH1 0x8 MUL PUSH2 0x967 JUMP JUMPDEST NOT DUP1 DUP4 AND SWAP2 POP POP SWAP3 SWAP2 POP POP JUMP JUMPDEST PUSH0 PUSH2 0x99A DUP4 DUP4 PUSH2 0x973 JUMP JUMPDEST SWAP2 POP DUP3 PUSH1 0x2 MUL DUP3 OR SWAP1 POP SWAP3 SWAP2 POP POP JUMP JUMPDEST PUSH2 0x9B3 DUP3 PUSH2 0x5D3 JUMP JUMPDEST PUSH8 0xFFFFFFFFFFFFFFFF DUP2 GT ISZERO PUSH2 0x9CC JUMPI PUSH2 0x9CB PUSH2 0x439 JUMP JUMPDEST JUMPDEST PUSH2 0x9D6 DUP3 SLOAD PUSH2 0x7DD JUMP JUMPDEST PUSH2 0x9E1 DUP3 DUP3 DUP6 PUSH2 0x921 JUMP JUMPDEST PUSH0 PUSH1 0x20 SWAP1 POP PUSH1 0x1F DUP4 GT PUSH1 0x1 DUP2 EQ PUSH2 0xA12 JUMPI PUSH0 DUP5 ISZERO PUSH2 0xA00 JUMPI DUP3 DUP8 ADD MLOAD SWAP1 POP JUMPDEST PUSH2 0xA0A DUP6 DUP3 PUSH2 0x98F JUMP JUMPDEST DUP7 SSTORE POP PUSH2 0xA71 JUMP JUMPDEST PUSH1 0x1F NOT DUP5 AND PUSH2 0xA20 DUP7 PUSH2 0x80D JUMP JUMPDEST PUSH0 JUMPDEST DUP3 DUP2 LT ISZERO PUSH2 0xA47 JUMPI DUP5 DUP10 ADD MLOAD DUP3 SSTORE PUSH1 0x1 DUP3 ADD SWAP2 POP PUSH1 0x20 DUP6 ADD SWAP5 POP PUSH1 0x20 DUP2 ADD SWAP1 POP PUSH2 0xA22 JUMP JUMPDEST DUP7 DUP4 LT ISZERO PUSH2 0xA64 JUMPI DUP5 DUP10 ADD MLOAD PUSH2 0xA60 PUSH1 0x1F DUP10 AND DUP3 PUSH2 0x973 JUMP JUMPDEST DUP4 SSTORE POP JUMPDEST PUSH1 0x1 PUSH1 0x2 DUP9 MUL ADD DUP9 SSTORE POP POP POP JUMPDEST POP POP POP POP POP POP JUMP INVALID LOG2 PUSH5 0x6970667358 0x22 SLT KECCAK256 0xB8 0xE7 0x27 0xD6 0xC6 0xB0 0xC8 ADDMOD 0xCD 0xEA SLT PUSH15 0x6B4C3574FA7A0D9A4146FD13306089 0xF9 XOR PUSH8 0x3B3B64736F6C6343 STOP ADDMOD BYTE STOP CALLER "
				},
				"gasEstimates": {
					"creation": {
						"codeDepositCost": "547000",
						"executionCost": "579",
						"totalCost": "547579"
					},
					"external": {
						"addCandidate(string,string)": "infinite",
						"candidates(uint256)": "infinite",
						"countCandidates()": "2491",
						"vote(uint256)": "402",
						"voters(address)": "2877",
						"votingEnd()": "2447",
						"votingStart()": "2448"
					}
				},
				"methodIdentifiers": {
					"addCandidate(string,string)": "26541b56",
					"candidates(uint256)": "3477ee2e",
					"countCandidates()": "b86eda91",
					"vote(uint256)": "0121b93f",
					"voters(address)": "a3ec138d",
					"votingEnd()": "85a38635",
					"votingStart()": "101158af"
				}
			},
			"storageLayout": {
				"storage": [
					{
						"astId": 15,
						"contract": "contracts/voting.sol:voting",
						"label": "candidates",
						"offset": 0,
						"slot": "0",
						"type": "t_mapping(t_uint256,t_struct(Candidate)10_storage)"
					},
					{
						"astId": 19,
						"contract": "contracts/voting.sol:voting",
						"label": "voters",
						"offset": 0,
						"slot": "1",
						"type": "t_mapping(t_address,t_bool)"
					},
					{
						"astId": 21,
						"contract": "contracts/voting.sol:voting",
						"label": "countCandidates",
						"offset": 0,
						"slot": "2",
						"type": "t_uint256"
					},
					{
						"astId": 23,
						"contract": "contracts/voting.sol:voting",
						"label": "votingStart",
						"offset": 0,
						"slot": "3",
						"type": "t_uint256"
					},
					{
						"astId": 25,
						"contract": "contracts/voting.sol:voting",
						"label": "votingEnd",
						"offset": 0,
						"slot": "4",
						"type": "t_uint256"
					}
				],
				"types": {
					"t_address": {
						"encoding": "inplace",
						"label": "address",
						"numberOfBytes": "20"
					},
					"t_bool": {
						"encoding": "inplace",
						"label": "bool",
						"numberOfBytes": "1"
					},
					"t_mapping(t_address,t_bool)": {
						"encoding": "mapping",
						"key": "t_address",
						"label": "mapping(address => bool)",
						"numberOfBytes": "32",
						"value": "t_bool"
					},
					"t_mapping(t_uint256,t_struct(Candidate)10_storage)": {
						"encoding": "mapping",
						"key": "t_uint256",
						"label": "mapping(uint256 => struct voting.Candidate)",
						"numberOfBytes": "32",
						"value": "t_struct(Candidate)10_storage"
					},
					"t_string_storage": {
						"encoding": "bytes",
						"label": "string",
						"numberOfBytes": "32"
					},
					"t_struct(Candidate)10_storage": {
						"encoding": "inplace",
						"label": "struct voting.Candidate",
						"members": [
							{
								"astId": 3,
								"contract": "contracts/voting.sol:voting",
								"label": "id",
								"offset": 0,
								"slot": "0",
								"type": "t_uint256"
							},
							{
								"astId": 5,
								"contract": "contracts/voting.sol:voting",
								"label": "name",
								"offset": 0,
								"slot": "1",
								"type": "t_string_storage"
							},
							{
								"astId": 7,
								"contract": "contracts/voting.sol:voting",
								"label": "party",
								"offset": 0,
								"slot": "2",
								"type": "t_string_storage"
							},
							{
								"astId": 9,
								"contract": "contracts/voting.sol:voting",
								"label": "voteCount",
								"offset": 0,
								"slot": "3",
								"type": "t_uint256"
							}
						],
						"numberOfBytes": "128"
					},
					"t_uint256": {
						"encoding": "inplace",
						"label": "uint256",
						"numberOfBytes": "32"
					}
				}
			},
			"userdoc": {
				"kind": "user",
				"methods": {},
				"version": 1
			}
		}
	}
}