{
	"contracts/crowd-funding.sol": {
		"CrowdFunding": {
			"abi": [
				{
					"inputs": [
						{
							"internalType": "address",
							"name": "_owner",
							"type": "address"
						},
						{
							"internalType": "string",
							"name": "_name",
							"type": "string"
						},
						{
							"internalType": "string",
							"name": "_description",
							"type": "string"
						},
						{
							"internalType": "uint256",
							"name": "_goal",
							"type": "uint256"
						},
						{
							"internalType": "uint256",
							"name": "_durationInDays",
							"type": "uint256"
						}
					],
					"stateMutability": "nonpayable",
					"type": "constructor"
				},
				{
					"inputs": [
						{
							"internalType": "string",
							"name": "_name",
							"type": "string"
						},
						{
							"internalType": "uint256",
							"name": "_amount",
							"type": "uint256"
						}
					],
					"name": "addTier",
					"outputs": [],
					"stateMutability": "nonpayable",
					"type": "function"
				},
				{
					"inputs": [
						{
							"internalType": "address",
							"name": "",
							"type": "address"
						}
					],
					"name": "backers",
					"outputs": [
						{
							"internalType": "uint256",
							"name": "totalContribution",
							"type": "uint256"
						}
					],
					"stateMutability": "view",
					"type": "function"
				},
				{
					"inputs": [],
					"name": "deadline",
					"outputs": [
						{
							"internalType": "uint256",
							"name": "",
							"type": "uint256"
						}
					],
					"stateMutability": "view",
					"type": "function"
				},
				{
					"inputs": [],
					"name": "description",
					"outputs": [
						{
							"internalType": "string",
							"name": "",
							"type": "string"
						}
					],
					"stateMutability": "view",
					"type": "function"
				},
				{
					"inputs": [
						{
							"internalType": "uint256",
							"name": "_daysToAdd",
							"type": "uint256"
						}
					],
					"name": "extendDeadline",
					"outputs": [],
					"stateMutability": "nonpayable",
					"type": "function"
				},
				{
					"inputs": [
						{
							"internalType": "uint256",
							"name": "_tierIndex",
							"type": "uint256"
						}
					],
					"name": "fund",
					"outputs": [],
					"stateMutability": "payable",
					"type": "function"
				},
				{
					"inputs": [],
					"name": "getCampaignStatus",
					"outputs": [
						{
							"internalType": "enum CrowdFunding.CampaignState",
							"name": "",
							"type": "uint8"
						}
					],
					"stateMutability": "view",
					"type": "function"
				},
				{
					"inputs": [],
					"name": "getTiers",
					"outputs": [
						{
							"components": [
								{
									"internalType": "string",
									"name": "name",
									"type": "string"
								},
								{
									"internalType": "uint256",
									"name": "amount",
									"type": "uint256"
								},
								{
									"internalType": "uint256",
									"name": "backers",
									"type": "uint256"
								}
							],
							"internalType": "struct CrowdFunding.Tier[]",
							"name": "",
							"type": "tuple[]"
						}
					],
					"stateMutability": "view",
					"type": "function"
				},
				{
					"inputs": [],
					"name": "goal",
					"outputs": [
						{
							"internalType": "uint256",
							"name": "",
							"type": "uint256"
						}
					],
					"stateMutability": "view",
					"type": "function"
				},
				{
					"inputs": [
						{
							"internalType": "address",
							"name": "_backer",
							"type": "address"
						},
						{
							"internalType": "uint256",
							"name": "_tierIndex",
							"type": "uint256"
						}
					],
					"name": "hasFundedTier",
					"outputs": [
						{
							"internalType": "bool",
							"name": "",
							"type": "bool"
						}
					],
					"stateMutability": "view",
					"type": "function"
				},
				{
					"inputs": [],
					"name": "name",
					"outputs": [
						{
							"internalType": "string",
							"name": "",
							"type": "string"
						}
					],
					"stateMutability": "view",
					"type": "function"
				},
				{
					"inputs": [],
					"name": "owner",
					"outputs": [
						{
							"internalType": "address",
							"name": "",
							"type": "address"
						}
					],
					"stateMutability": "view",
					"type": "function"
				},
				{
					"inputs": [],
					"name": "paused",
					"outputs": [
						{
							"internalType": "bool",
							"name": "",
							"type": "bool"
						}
					],
					"stateMutability": "view",
					"type": "function"
				},
				{
					"inputs": [],
					"name": "refund",
					"outputs": [],
					"stateMutability": "nonpayable",
					"type": "function"
				},
				{
					"inputs": [
						{
							"internalType": "uint256",
							"name": "_index",
							"type": "uint256"
						}
					],
					"name": "removeTier",
					"outputs": [],
					"stateMutability": "nonpayable",
					"type": "function"
				},
				{
					"inputs": [],
					"name": "state",
					"outputs": [
						{
							"internalType": "enum CrowdFunding.CampaignState",
							"name": "",
							"type": "uint8"
						}
					],
					"stateMutability": "view",
					"type": "function"
				},
				{
					"inputs": [
						{
							"internalType": "uint256",
							"name": "",
							"type": "uint256"
						}
					],
					"name": "tiers",
					"outputs": [
						{
							"internalType": "string",
							"name": "name",
							"type": "string"
						},
						{
							"internalType": "uint256",
							"name": "amount",
							"type": "uint256"
						},
						{
							"internalType": "uint256",
							"name": "backers",
							"type": "uint256"
						}
					],
					"stateMutability": "view",
					"type": "function"
				},
				{
					"inputs": [],
					"name": "togglePause",
					"outputs": [],
					"stateMutability": "nonpayable",
					"type": "function"
				},
				{
					"inputs": [],
					"name": "withdraw",
					"outputs": [],
					"stateMutability": "nonpayable",
					"type": "function"
				}
			],
			"devdoc": {
				"kind": "dev",
				"methods": {},
				"version": 1
			},
			"evm": {
				"assembly": "    /* \"contracts/crowd-funding.sol\":60:3967  contract CrowdFunding {\r... */\n  mstore(0x40, 0x80)\n    /* \"contracts/crowd-funding.sol\":960:1350  constructor(\r... */\n  callvalue\n  dup1\n  iszero\n  tag_1\n  jumpi\n  0x00\n  dup1\n  revert\ntag_1:\n  pop\n  mload(0x40)\n  sub(codesize, bytecodeSize)\n  dup1\n  bytecodeSize\n  dup4\n  codecopy\n  dup2\n  dup2\n  add\n  0x40\n  mstore\n  dup2\n  add\n  swap1\n  tag_2\n  swap2\n  swap1\n  tag_3\n  jump\t// in\ntag_2:\n    /* \"contracts/crowd-funding.sol\":1147:1152  _name */\n  dup4\n    /* \"contracts/crowd-funding.sol\":1140:1144  name */\n  0x00\n    /* \"contracts/crowd-funding.sol\":1140:1152  name = _name */\n  swap1\n  dup1\n  mload\n  swap1\n  0x20\n  add\n  swap1\n  tag_6\n  swap3\n  swap2\n  swap1\n  tag_7\n  jump\t// in\ntag_6:\n  pop\n    /* \"contracts/crowd-funding.sol\":1177:1189  _description */\n  dup3\n    /* \"contracts/crowd-funding.sol\":1163:1174  description */\n  0x01\n    /* \"contracts/crowd-funding.sol\":1163:1189  description = _description */\n  swap1\n  dup1\n  mload\n  swap1\n  0x20\n  add\n  swap1\n  tag_8\n  swap3\n  swap2\n  swap1\n  tag_7\n  jump\t// in\ntag_8:\n  pop\n    /* \"contracts/crowd-funding.sol\":1207:1212  _goal */\n  dup2\n    /* \"contracts/crowd-funding.sol\":1200:1204  goal */\n  0x02\n    /* \"contracts/crowd-funding.sol\":1200:1212  goal = _goal */\n  dup2\n  swap1\n  sstore\n  pop\n    /* \"contracts/crowd-funding.sol\":1271:1277  1 days */\n  0x015180\n    /* \"contracts/crowd-funding.sol\":1253:1268  _durationInDays */\n  dup2\n    /* \"contracts/crowd-funding.sol\":1253:1277  _durationInDays * 1 days */\n  tag_9\n  swap2\n  swap1\n  tag_10\n  jump\t// in\ntag_9:\n    /* \"contracts/crowd-funding.sol\":1234:1249  block.timestamp */\n  timestamp\n    /* \"contracts/crowd-funding.sol\":1234:1278  block.timestamp + (_durationInDays * 1 days) */\n  tag_11\n  swap2\n  swap1\n  tag_12\n  jump\t// in\ntag_11:\n    /* \"contracts/crowd-funding.sol\":1223:1231  deadline */\n  0x03\n    /* \"contracts/crowd-funding.sol\":1223:1278  deadline = block.timestamp + (_durationInDays * 1 days) */\n  dup2\n  swap1\n  sstore\n  pop\n    /* \"contracts/crowd-funding.sol\":1297:1303  _owner */\n  dup5\n    /* \"contracts/crowd-funding.sol\":1289:1294  owner */\n  0x04\n  0x00\n    /* \"contracts/crowd-funding.sol\":1289:1303  owner = _owner */\n  0x0100\n  exp\n  dup2\n  sload\n  dup2\n  0xffffffffffffffffffffffffffffffffffffffff\n  mul\n  not\n  and\n  swap1\n  dup4\n  0xffffffffffffffffffffffffffffffffffffffff\n  and\n  mul\n  or\n  swap1\n  sstore\n  pop\n    /* \"contracts/crowd-funding.sol\":1322:1342  CampaignState.Active */\n  0x00\n    /* \"contracts/crowd-funding.sol\":1314:1319  state */\n  0x04\n  0x15\n    /* \"contracts/crowd-funding.sol\":1314:1342  state = CampaignState.Active */\n  0x0100\n  exp\n  dup2\n  sload\n  dup2\n  0xff\n  mul\n  not\n  and\n  swap1\n  dup4\n  0x02\n  dup2\n  gt\n  iszero\n  tag_13\n  jumpi\n  mstore(0x00, 0x4e487b7100000000000000000000000000000000000000000000000000000000)\n  mstore(0x04, 0x21)\n  revert(0x00, 0x24)\ntag_13:\n  mul\n  or\n  swap1\n  sstore\n  pop\n    /* \"contracts/crowd-funding.sol\":960:1350  constructor(\r... */\n  pop\n  pop\n  pop\n  pop\n  pop\n    /* \"contracts/crowd-funding.sol\":60:3967  contract CrowdFunding {\r... */\n  jump(tag_14)\ntag_7:\n  dup3\n  dup1\n  sload\n  tag_15\n  swap1\n  tag_16\n  jump\t// in\ntag_15:\n  swap1\n  0x00\n  mstore\n  keccak256(0x00, 0x20)\n  swap1\n  0x1f\n  add\n  0x20\n  swap1\n  div\n  dup2\n  add\n  swap3\n  dup3\n  tag_18\n  jumpi\n  0x00\n  dup6\n  sstore\n  jump(tag_17)\ntag_18:\n  dup3\n  0x1f\n  lt\n  tag_19\n  jumpi\n  dup1\n  mload\n  not(0xff)\n  and\n  dup4\n  dup1\n  add\n  or\n  dup6\n  sstore\n  jump(tag_17)\ntag_19:\n  dup3\n  dup1\n  add\n  0x01\n  add\n  dup6\n  sstore\n  dup3\n  iszero\n  tag_17\n  jumpi\n  swap2\n  dup3\n  add\ntag_20:\n  dup3\n  dup2\n  gt\n  iszero\n  tag_21\n  jumpi\n  dup3\n  mload\n  dup3\n  sstore\n  swap2\n  0x20\n  add\n  swap2\n  swap1\n  0x01\n  add\n  swap1\n  jump(tag_20)\ntag_21:\ntag_17:\n  pop\n  swap1\n  pop\n  tag_22\n  swap2\n  swap1\n  tag_23\n  jump\t// in\ntag_22:\n  pop\n  swap1\n  jump\t// out\ntag_23:\ntag_24:\n  dup1\n  dup3\n  gt\n  iszero\n  tag_25\n  jumpi\n  0x00\n  dup2\n  0x00\n  swap1\n  sstore\n  pop\n  0x01\n  add\n  jump(tag_24)\ntag_25:\n  pop\n  swap1\n  jump\t// out\n    /* \"#utility.yul\":7:361   */\ntag_27:\n  0x00\n    /* \"#utility.yul\":121:187   */\n  tag_29\n    /* \"#utility.yul\":137:186   */\n  tag_30\n    /* \"#utility.yul\":179:185   */\n  dup5\n    /* \"#utility.yul\":137:186   */\n  tag_31\n  jump\t// in\ntag_30:\n    /* \"#utility.yul\":121:187   */\n  tag_32\n  jump\t// in\ntag_29:\n    /* \"#utility.yul\":112:187   */\n  swap1\n  pop\n    /* \"#utility.yul\":210:216   */\n  dup3\n    /* \"#utility.yul\":203:208   */\n  dup2\n    /* \"#utility.yul\":196:217   */\n  mstore\n    /* \"#utility.yul\":248:252   */\n  0x20\n    /* \"#utility.yul\":241:246   */\n  dup2\n    /* \"#utility.yul\":237:253   */\n  add\n    /* \"#utility.yul\":286:289   */\n  dup5\n    /* \"#utility.yul\":277:283   */\n  dup5\n    /* \"#utility.yul\":272:275   */\n  dup5\n    /* \"#utility.yul\":268:284   */\n  add\n    /* \"#utility.yul\":265:290   */\n  gt\n    /* \"#utility.yul\":262:264   */\n  iszero\n  tag_33\n  jumpi\n    /* \"#utility.yul\":303:304   */\n  0x00\n    /* \"#utility.yul\":300:301   */\n  dup1\n    /* \"#utility.yul\":293:305   */\n  revert\n    /* \"#utility.yul\":262:264   */\ntag_33:\n    /* \"#utility.yul\":316:355   */\n  tag_34\n    /* \"#utility.yul\":348:354   */\n  dup5\n    /* \"#utility.yul\":343:346   */\n  dup3\n    /* \"#utility.yul\":338:341   */\n  dup6\n    /* \"#utility.yul\":316:355   */\n  tag_35\n  jump\t// in\ntag_34:\n    /* \"#utility.yul\":102:361   */\n  pop\n  swap4\n  swap3\n  pop\n  pop\n  pop\n  jump\t// out\n    /* \"#utility.yul\":367:510   */\ntag_36:\n  0x00\n    /* \"#utility.yul\":455:461   */\n  dup2\n    /* \"#utility.yul\":449:462   */\n  mload\n    /* \"#utility.yul\":440:462   */\n  swap1\n  pop\n    /* \"#utility.yul\":471:504   */\n  tag_38\n    /* \"#utility.yul\":498:503   */\n  dup2\n    /* \"#utility.yul\":471:504   */\n  tag_39\n  jump\t// in\ntag_38:\n    /* \"#utility.yul\":430:510   */\n  swap3\n  swap2\n  pop\n  pop\n  jump\t// out\n    /* \"#utility.yul\":530:818   */\ntag_40:\n  0x00\n    /* \"#utility.yul\":646:649   */\n  dup3\n    /* \"#utility.yul\":639:643   */\n  0x1f\n    /* \"#utility.yul\":631:637   */\n  dup4\n    /* \"#utility.yul\":627:644   */\n  add\n    /* \"#utility.yul\":623:650   */\n  slt\n    /* \"#utility.yul\":613:615   */\n  tag_42\n  jumpi\n    /* \"#utility.yul\":664:665   */\n  0x00\n    /* \"#utility.yul\":661:662   */\n  dup1\n    /* \"#utility.yul\":654:666   */\n  revert\n    /* \"#utility.yul\":613:615   */\ntag_42:\n    /* \"#utility.yul\":697:703   */\n  dup2\n    /* \"#utility.yul\":691:704   */\n  mload\n    /* \"#utility.yul\":722:812   */\n  tag_43\n    /* \"#utility.yul\":808:811   */\n  dup5\n    /* \"#utility.yul\":800:806   */\n  dup3\n    /* \"#utility.yul\":793:797   */\n  0x20\n    /* \"#utility.yul\":785:791   */\n  dup7\n    /* \"#utility.yul\":781:798   */\n  add\n    /* \"#utility.yul\":722:812   */\n  tag_27\n  jump\t// in\ntag_43:\n    /* \"#utility.yul\":713:812   */\n  swap2\n  pop\n    /* \"#utility.yul\":603:818   */\n  pop\n  swap3\n  swap2\n  pop\n  pop\n  jump\t// out\n    /* \"#utility.yul\":824:967   */\ntag_44:\n  0x00\n    /* \"#utility.yul\":912:918   */\n  dup2\n    /* \"#utility.yul\":906:919   */\n  mload\n    /* \"#utility.yul\":897:919   */\n  swap1\n  pop\n    /* \"#utility.yul\":928:961   */\n  tag_46\n    /* \"#utility.yul\":955:960   */\n  dup2\n    /* \"#utility.yul\":928:961   */\n  tag_47\n  jump\t// in\ntag_46:\n    /* \"#utility.yul\":887:967   */\n  swap3\n  swap2\n  pop\n  pop\n  jump\t// out\n    /* \"#utility.yul\":973:2095   */\ntag_3:\n  0x00\n  dup1\n  0x00\n  dup1\n  0x00\n    /* \"#utility.yul\":1180:1183   */\n  0xa0\n    /* \"#utility.yul\":1168:1177   */\n  dup7\n    /* \"#utility.yul\":1159:1166   */\n  dup9\n    /* \"#utility.yul\":1155:1178   */\n  sub\n    /* \"#utility.yul\":1151:1184   */\n  slt\n    /* \"#utility.yul\":1148:1150   */\n  iszero\n  tag_49\n  jumpi\n    /* \"#utility.yul\":1197:1198   */\n  0x00\n    /* \"#utility.yul\":1194:1195   */\n  dup1\n    /* \"#utility.yul\":1187:1199   */\n  revert\n    /* \"#utility.yul\":1148:1150   */\ntag_49:\n    /* \"#utility.yul\":1240:1241   */\n  0x00\n    /* \"#utility.yul\":1265:1329   */\n  tag_50\n    /* \"#utility.yul\":1321:1328   */\n  dup9\n    /* \"#utility.yul\":1312:1318   */\n  dup3\n    /* \"#utility.yul\":1301:1310   */\n  dup10\n    /* \"#utility.yul\":1297:1319   */\n  add\n    /* \"#utility.yul\":1265:1329   */\n  tag_36\n  jump\t// in\ntag_50:\n    /* \"#utility.yul\":1255:1329   */\n  swap6\n  pop\n    /* \"#utility.yul\":1211:1339   */\n  pop\n    /* \"#utility.yul\":1399:1401   */\n  0x20\n    /* \"#utility.yul\":1388:1397   */\n  dup7\n    /* \"#utility.yul\":1384:1402   */\n  add\n    /* \"#utility.yul\":1378:1403   */\n  mload\n    /* \"#utility.yul\":1430:1448   */\n  0xffffffffffffffff\n    /* \"#utility.yul\":1422:1428   */\n  dup2\n    /* \"#utility.yul\":1419:1449   */\n  gt\n    /* \"#utility.yul\":1416:1418   */\n  iszero\n  tag_51\n  jumpi\n    /* \"#utility.yul\":1462:1463   */\n  0x00\n    /* \"#utility.yul\":1459:1460   */\n  dup1\n    /* \"#utility.yul\":1452:1464   */\n  revert\n    /* \"#utility.yul\":1416:1418   */\ntag_51:\n    /* \"#utility.yul\":1490:1564   */\n  tag_52\n    /* \"#utility.yul\":1556:1563   */\n  dup9\n    /* \"#utility.yul\":1547:1553   */\n  dup3\n    /* \"#utility.yul\":1536:1545   */\n  dup10\n    /* \"#utility.yul\":1532:1554   */\n  add\n    /* \"#utility.yul\":1490:1564   */\n  tag_40\n  jump\t// in\ntag_52:\n    /* \"#utility.yul\":1480:1564   */\n  swap5\n  pop\n    /* \"#utility.yul\":1349:1574   */\n  pop\n    /* \"#utility.yul\":1634:1636   */\n  0x40\n    /* \"#utility.yul\":1623:1632   */\n  dup7\n    /* \"#utility.yul\":1619:1637   */\n  add\n    /* \"#utility.yul\":1613:1638   */\n  mload\n    /* \"#utility.yul\":1665:1683   */\n  0xffffffffffffffff\n    /* \"#utility.yul\":1657:1663   */\n  dup2\n    /* \"#utility.yul\":1654:1684   */\n  gt\n    /* \"#utility.yul\":1651:1653   */\n  iszero\n  tag_53\n  jumpi\n    /* \"#utility.yul\":1697:1698   */\n  0x00\n    /* \"#utility.yul\":1694:1695   */\n  dup1\n    /* \"#utility.yul\":1687:1699   */\n  revert\n    /* \"#utility.yul\":1651:1653   */\ntag_53:\n    /* \"#utility.yul\":1725:1799   */\n  tag_54\n    /* \"#utility.yul\":1791:1798   */\n  dup9\n    /* \"#utility.yul\":1782:1788   */\n  dup3\n    /* \"#utility.yul\":1771:1780   */\n  dup10\n    /* \"#utility.yul\":1767:1789   */\n  add\n    /* \"#utility.yul\":1725:1799   */\n  tag_40\n  jump\t// in\ntag_54:\n    /* \"#utility.yul\":1715:1799   */\n  swap4\n  pop\n    /* \"#utility.yul\":1584:1809   */\n  pop\n    /* \"#utility.yul\":1848:1850   */\n  0x60\n    /* \"#utility.yul\":1874:1938   */\n  tag_55\n    /* \"#utility.yul\":1930:1937   */\n  dup9\n    /* \"#utility.yul\":1921:1927   */\n  dup3\n    /* \"#utility.yul\":1910:1919   */\n  dup10\n    /* \"#utility.yul\":1906:1928   */\n  add\n    /* \"#utility.yul\":1874:1938   */\n  tag_44\n  jump\t// in\ntag_55:\n    /* \"#utility.yul\":1864:1938   */\n  swap3\n  pop\n    /* \"#utility.yul\":1819:1948   */\n  pop\n    /* \"#utility.yul\":1987:1990   */\n  0x80\n    /* \"#utility.yul\":2014:2078   */\n  tag_56\n    /* \"#utility.yul\":2070:2077   */\n  dup9\n    /* \"#utility.yul\":2061:2067   */\n  dup3\n    /* \"#utility.yul\":2050:2059   */\n  dup10\n    /* \"#utility.yul\":2046:2068   */\n  add\n    /* \"#utility.yul\":2014:2078   */\n  tag_44\n  jump\t// in\ntag_56:\n    /* \"#utility.yul\":2004:2078   */\n  swap2\n  pop\n    /* \"#utility.yul\":1958:2088   */\n  pop\n    /* \"#utility.yul\":1138:2095   */\n  swap3\n  swap6\n  pop\n  swap3\n  swap6\n  swap1\n  swap4\n  pop\n  jump\t// out\n    /* \"#utility.yul\":2101:2230   */\ntag_32:\n  0x00\n    /* \"#utility.yul\":2162:2182   */\n  tag_58\n  tag_59\n  jump\t// in\ntag_58:\n    /* \"#utility.yul\":2152:2182   */\n  swap1\n  pop\n    /* \"#utility.yul\":2191:2224   */\n  tag_60\n    /* \"#utility.yul\":2219:2223   */\n  dup3\n    /* \"#utility.yul\":2211:2217   */\n  dup3\n    /* \"#utility.yul\":2191:2224   */\n  tag_61\n  jump\t// in\ntag_60:\n    /* \"#utility.yul\":2142:2230   */\n  swap2\n  swap1\n  pop\n  jump\t// out\n    /* \"#utility.yul\":2236:2311   */\ntag_59:\n  0x00\n    /* \"#utility.yul\":2302:2304   */\n  0x40\n    /* \"#utility.yul\":2296:2305   */\n  mload\n    /* \"#utility.yul\":2286:2305   */\n  swap1\n  pop\n    /* \"#utility.yul\":2276:2311   */\n  swap1\n  jump\t// out\n    /* \"#utility.yul\":2317:2625   */\ntag_31:\n  0x00\n    /* \"#utility.yul\":2469:2487   */\n  0xffffffffffffffff\n    /* \"#utility.yul\":2461:2467   */\n  dup3\n    /* \"#utility.yul\":2458:2488   */\n  gt\n    /* \"#utility.yul\":2455:2457   */\n  iszero\n  tag_64\n  jumpi\n    /* \"#utility.yul\":2491:2509   */\n  tag_65\n  tag_66\n  jump\t// in\ntag_65:\n    /* \"#utility.yul\":2455:2457   */\ntag_64:\n    /* \"#utility.yul\":2529:2558   */\n  tag_67\n    /* \"#utility.yul\":2551:2557   */\n  dup3\n    /* \"#utility.yul\":2529:2558   */\n  tag_68\n  jump\t// in\ntag_67:\n    /* \"#utility.yul\":2521:2558   */\n  swap1\n  pop\n    /* \"#utility.yul\":2613:2617   */\n  0x20\n    /* \"#utility.yul\":2607:2611   */\n  dup2\n    /* \"#utility.yul\":2603:2618   */\n  add\n    /* \"#utility.yul\":2595:2618   */\n  swap1\n  pop\n    /* \"#utility.yul\":2384:2625   */\n  swap2\n  swap1\n  pop\n  jump\t// out\n    /* \"#utility.yul\":2631:2936   */\ntag_12:\n  0x00\n    /* \"#utility.yul\":2690:2710   */\n  tag_70\n    /* \"#utility.yul\":2708:2709   */\n  dup3\n    /* \"#utility.yul\":2690:2710   */\n  tag_71\n  jump\t// in\ntag_70:\n    /* \"#utility.yul\":2685:2710   */\n  swap2\n  pop\n    /* \"#utility.yul\":2724:2744   */\n  tag_72\n    /* \"#utility.yul\":2742:2743   */\n  dup4\n    /* \"#utility.yul\":2724:2744   */\n  tag_71\n  jump\t// in\ntag_72:\n    /* \"#utility.yul\":2719:2744   */\n  swap3\n  pop\n    /* \"#utility.yul\":2878:2879   */\n  dup3\n    /* \"#utility.yul\":2810:2876   */\n  0xffffffffffffffffffffffffffffffffffffffffffffffffffffffffffffffff\n    /* \"#utility.yul\":2806:2880   */\n  sub\n    /* \"#utility.yul\":2803:2804   */\n  dup3\n    /* \"#utility.yul\":2800:2881   */\n  gt\n    /* \"#utility.yul\":2797:2799   */\n  iszero\n  tag_73\n  jumpi\n    /* \"#utility.yul\":2884:2902   */\n  tag_74\n  tag_75\n  jump\t// in\ntag_74:\n    /* \"#utility.yul\":2797:2799   */\ntag_73:\n    /* \"#utility.yul\":2928:2929   */\n  dup3\n    /* \"#utility.yul\":2925:2926   */\n  dup3\n    /* \"#utility.yul\":2921:2930   */\n  add\n    /* \"#utility.yul\":2914:2930   */\n  swap1\n  pop\n    /* \"#utility.yul\":2675:2936   */\n  swap3\n  swap2\n  pop\n  pop\n  jump\t// out\n    /* \"#utility.yul\":2942:3290   */\ntag_10:\n  0x00\n    /* \"#utility.yul\":3005:3025   */\n  tag_77\n    /* \"#utility.yul\":3023:3024   */\n  dup3\n    /* \"#utility.yul\":3005:3025   */\n  tag_71\n  jump\t// in\ntag_77:\n    /* \"#utility.yul\":3000:3025   */\n  swap2\n  pop\n    /* \"#utility.yul\":3039:3059   */\n  tag_78\n    /* \"#utility.yul\":3057:3058   */\n  dup4\n    /* \"#utility.yul\":3039:3059   */\n  tag_71\n  jump\t// in\ntag_78:\n    /* \"#utility.yul\":3034:3059   */\n  swap3\n  pop\n    /* \"#utility.yul\":3227:3228   */\n  dup2\n    /* \"#utility.yul\":3159:3225   */\n  0xffffffffffffffffffffffffffffffffffffffffffffffffffffffffffffffff\n    /* \"#utility.yul\":3155:3229   */\n  div\n    /* \"#utility.yul\":3152:3153   */\n  dup4\n    /* \"#utility.yul\":3149:3230   */\n  gt\n    /* \"#utility.yul\":3144:3145   */\n  dup3\n    /* \"#utility.yul\":3137:3146   */\n  iszero\n    /* \"#utility.yul\":3130:3147   */\n  iszero\n    /* \"#utility.yul\":3126:3231   */\n  and\n    /* \"#utility.yul\":3123:3125   */\n  iszero\n  tag_79\n  jumpi\n    /* \"#utility.yul\":3234:3252   */\n  tag_80\n  tag_75\n  jump\t// in\ntag_80:\n    /* \"#utility.yul\":3123:3125   */\ntag_79:\n    /* \"#utility.yul\":3282:3283   */\n  dup3\n    /* \"#utility.yul\":3279:3280   */\n  dup3\n    /* \"#utility.yul\":3275:3284   */\n  mul\n    /* \"#utility.yul\":3264:3284   */\n  swap1\n  pop\n    /* \"#utility.yul\":2990:3290   */\n  swap3\n  swap2\n  pop\n  pop\n  jump\t// out\n    /* \"#utility.yul\":3296:3392   */\ntag_81:\n  0x00\n    /* \"#utility.yul\":3362:3386   */\n  tag_83\n    /* \"#utility.yul\":3380:3385   */\n  dup3\n    /* \"#utility.yul\":3362:3386   */\n  tag_84\n  jump\t// in\ntag_83:\n    /* \"#utility.yul\":3351:3386   */\n  swap1\n  pop\n    /* \"#utility.yul\":3341:3392   */\n  swap2\n  swap1\n  pop\n  jump\t// out\n    /* \"#utility.yul\":3398:3524   */\ntag_84:\n  0x00\n    /* \"#utility.yul\":3475:3517   */\n  0xffffffffffffffffffffffffffffffffffffffff\n    /* \"#utility.yul\":3468:3473   */\n  dup3\n    /* \"#utility.yul\":3464:3518   */\n  and\n    /* \"#utility.yul\":3453:3518   */\n  swap1\n  pop\n    /* \"#utility.yul\":3443:3524   */\n  swap2\n  swap1\n  pop\n  jump\t// out\n    /* \"#utility.yul\":3530:3607   */\ntag_71:\n  0x00\n    /* \"#utility.yul\":3596:3601   */\n  dup2\n    /* \"#utility.yul\":3585:3601   */\n  swap1\n  pop\n    /* \"#utility.yul\":3575:3607   */\n  swap2\n  swap1\n  pop\n  jump\t// out\n    /* \"#utility.yul\":3613:3920   */\ntag_35:\n    /* \"#utility.yul\":3681:3682   */\n  0x00\n    /* \"#utility.yul\":3691:3804   */\ntag_88:\n    /* \"#utility.yul\":3705:3711   */\n  dup4\n    /* \"#utility.yul\":3702:3703   */\n  dup2\n    /* \"#utility.yul\":3699:3712   */\n  lt\n    /* \"#utility.yul\":3691:3804   */\n  iszero\n  tag_90\n  jumpi\n    /* \"#utility.yul\":3790:3791   */\n  dup1\n    /* \"#utility.yul\":3785:3788   */\n  dup3\n    /* \"#utility.yul\":3781:3792   */\n  add\n    /* \"#utility.yul\":3775:3793   */\n  mload\n    /* \"#utility.yul\":3771:3772   */\n  dup2\n    /* \"#utility.yul\":3766:3769   */\n  dup5\n    /* \"#utility.yul\":3762:3773   */\n  add\n    /* \"#utility.yul\":3755:3794   */\n  mstore\n    /* \"#utility.yul\":3727:3729   */\n  0x20\n    /* \"#utility.yul\":3724:3725   */\n  dup2\n    /* \"#utility.yul\":3720:3730   */\n  add\n    /* \"#utility.yul\":3715:3730   */\n  swap1\n  pop\n    /* \"#utility.yul\":3691:3804   */\n  jump(tag_88)\ntag_90:\n    /* \"#utility.yul\":3822:3828   */\n  dup4\n    /* \"#utility.yul\":3819:3820   */\n  dup2\n    /* \"#utility.yul\":3816:3829   */\n  gt\n    /* \"#utility.yul\":3813:3815   */\n  iszero\n  tag_91\n  jumpi\n    /* \"#utility.yul\":3902:3903   */\n  0x00\n    /* \"#utility.yul\":3893:3899   */\n  dup5\n    /* \"#utility.yul\":3888:3891   */\n  dup5\n    /* \"#utility.yul\":3884:3900   */\n  add\n    /* \"#utility.yul\":3877:3904   */\n  mstore\n    /* \"#utility.yul\":3813:3815   */\ntag_91:\n    /* \"#utility.yul\":3662:3920   */\n  pop\n  pop\n  pop\n  pop\n  jump\t// out\n    /* \"#utility.yul\":3926:4246   */\ntag_16:\n  0x00\n    /* \"#utility.yul\":4007:4008   */\n  0x02\n    /* \"#utility.yul\":4001:4005   */\n  dup3\n    /* \"#utility.yul\":3997:4009   */\n  div\n    /* \"#utility.yul\":3987:4009   */\n  swap1\n  pop\n    /* \"#utility.yul\":4054:4055   */\n  0x01\n    /* \"#utility.yul\":4048:4052   */\n  dup3\n    /* \"#utility.yul\":4044:4056   */\n  and\n    /* \"#utility.yul\":4075:4093   */\n  dup1\n    /* \"#utility.yul\":4065:4067   */\n  tag_93\n  jumpi\n    /* \"#utility.yul\":4131:4135   */\n  0x7f\n    /* \"#utility.yul\":4123:4129   */\n  dup3\n    /* \"#utility.yul\":4119:4136   */\n  and\n    /* \"#utility.yul\":4109:4136   */\n  swap2\n  pop\n    /* \"#utility.yul\":4065:4067   */\ntag_93:\n    /* \"#utility.yul\":4193:4195   */\n  0x20\n    /* \"#utility.yul\":4185:4191   */\n  dup3\n    /* \"#utility.yul\":4182:4196   */\n  lt\n    /* \"#utility.yul\":4162:4180   */\n  dup2\n    /* \"#utility.yul\":4159:4197   */\n  eq\n    /* \"#utility.yul\":4156:4158   */\n  iszero\n  tag_94\n  jumpi\n    /* \"#utility.yul\":4212:4230   */\n  tag_95\n  tag_96\n  jump\t// in\ntag_95:\n    /* \"#utility.yul\":4156:4158   */\ntag_94:\n    /* \"#utility.yul\":3977:4246   */\n  pop\n  swap2\n  swap1\n  pop\n  jump\t// out\n    /* \"#utility.yul\":4252:4533   */\ntag_61:\n    /* \"#utility.yul\":4335:4362   */\n  tag_98\n    /* \"#utility.yul\":4357:4361   */\n  dup3\n    /* \"#utility.yul\":4335:4362   */\n  tag_68\n  jump\t// in\ntag_98:\n    /* \"#utility.yul\":4327:4333   */\n  dup2\n    /* \"#utility.yul\":4323:4363   */\n  add\n    /* \"#utility.yul\":4465:4471   */\n  dup2\n    /* \"#utility.yul\":4453:4463   */\n  dup2\n    /* \"#utility.yul\":4450:4472   */\n  lt\n    /* \"#utility.yul\":4429:4447   */\n  0xffffffffffffffff\n    /* \"#utility.yul\":4417:4427   */\n  dup3\n    /* \"#utility.yul\":4414:4448   */\n  gt\n    /* \"#utility.yul\":4411:4473   */\n  or\n    /* \"#utility.yul\":4408:4410   */\n  iszero\n  tag_99\n  jumpi\n    /* \"#utility.yul\":4476:4494   */\n  tag_100\n  tag_66\n  jump\t// in\ntag_100:\n    /* \"#utility.yul\":4408:4410   */\ntag_99:\n    /* \"#utility.yul\":4516:4526   */\n  dup1\n    /* \"#utility.yul\":4512:4514   */\n  0x40\n    /* \"#utility.yul\":4505:4527   */\n  mstore\n    /* \"#utility.yul\":4295:4533   */\n  pop\n  pop\n  pop\n  jump\t// out\n    /* \"#utility.yul\":4539:4719   */\ntag_75:\n    /* \"#utility.yul\":4587:4664   */\n  0x4e487b7100000000000000000000000000000000000000000000000000000000\n    /* \"#utility.yul\":4584:4585   */\n  0x00\n    /* \"#utility.yul\":4577:4665   */\n  mstore\n    /* \"#utility.yul\":4684:4688   */\n  0x11\n    /* \"#utility.yul\":4681:4682   */\n  0x04\n    /* \"#utility.yul\":4674:4689   */\n  mstore\n    /* \"#utility.yul\":4708:4712   */\n  0x24\n    /* \"#utility.yul\":4705:4706   */\n  0x00\n    /* \"#utility.yul\":4698:4713   */\n  revert\n    /* \"#utility.yul\":4725:4905   */\ntag_96:\n    /* \"#utility.yul\":4773:4850   */\n  0x4e487b7100000000000000000000000000000000000000000000000000000000\n    /* \"#utility.yul\":4770:4771   */\n  0x00\n    /* \"#utility.yul\":4763:4851   */\n  mstore\n    /* \"#utility.yul\":4870:4874   */\n  0x22\n    /* \"#utility.yul\":4867:4868   */\n  0x04\n    /* \"#utility.yul\":4860:4875   */\n  mstore\n    /* \"#utility.yul\":4894:4898   */\n  0x24\n    /* \"#utility.yul\":4891:4892   */\n  0x00\n    /* \"#utility.yul\":4884:4899   */\n  revert\n    /* \"#utility.yul\":4911:5091   */\ntag_66:\n    /* \"#utility.yul\":4959:5036   */\n  0x4e487b7100000000000000000000000000000000000000000000000000000000\n    /* \"#utility.yul\":4956:4957   */\n  0x00\n    /* \"#utility.yul\":4949:5037   */\n  mstore\n    /* \"#utility.yul\":5056:5060   */\n  0x41\n    /* \"#utility.yul\":5053:5054   */\n  0x04\n    /* \"#utility.yul\":5046:5061   */\n  mstore\n    /* \"#utility.yul\":5080:5084   */\n  0x24\n    /* \"#utility.yul\":5077:5078   */\n  0x00\n    /* \"#utility.yul\":5070:5085   */\n  revert\n    /* \"#utility.yul\":5097:5199   */\ntag_68:\n  0x00\n    /* \"#utility.yul\":5189:5191   */\n  0x1f\n    /* \"#utility.yul\":5185:5192   */\n  not\n    /* \"#utility.yul\":5180:5182   */\n  0x1f\n    /* \"#utility.yul\":5173:5178   */\n  dup4\n    /* \"#utility.yul\":5169:5183   */\n  add\n    /* \"#utility.yul\":5165:5193   */\n  and\n    /* \"#utility.yul\":5155:5193   */\n  swap1\n  pop\n    /* \"#utility.yul\":5145:5199   */\n  swap2\n  swap1\n  pop\n  jump\t// out\n    /* \"#utility.yul\":5205:5327   */\ntag_39:\n    /* \"#utility.yul\":5278:5302   */\n  tag_106\n    /* \"#utility.yul\":5296:5301   */\n  dup2\n    /* \"#utility.yul\":5278:5302   */\n  tag_81\n  jump\t// in\ntag_106:\n    /* \"#utility.yul\":5271:5276   */\n  dup2\n    /* \"#utility.yul\":5268:5303   */\n  eq\n    /* \"#utility.yul\":5258:5260   */\n  tag_107\n  jumpi\n    /* \"#utility.yul\":5317:5318   */\n  0x00\n    /* \"#utility.yul\":5314:5315   */\n  dup1\n    /* \"#utility.yul\":5307:5319   */\n  revert\n    /* \"#utility.yul\":5258:5260   */\ntag_107:\n    /* \"#utility.yul\":5248:5327   */\n  pop\n  jump\t// out\n    /* \"#utility.yul\":5333:5455   */\ntag_47:\n    /* \"#utility.yul\":5406:5430   */\n  tag_109\n    /* \"#utility.yul\":5424:5429   */\n  dup2\n    /* \"#utility.yul\":5406:5430   */\n  tag_71\n  jump\t// in\ntag_109:\n    /* \"#utility.yul\":5399:5404   */\n  dup2\n    /* \"#utility.yul\":5396:5431   */\n  eq\n    /* \"#utility.yul\":5386:5388   */\n  tag_110\n  jumpi\n    /* \"#utility.yul\":5445:5446   */\n  0x00\n    /* \"#utility.yul\":5442:5443   */\n  dup1\n    /* \"#utility.yul\":5435:5447   */\n  revert\n    /* \"#utility.yul\":5386:5388   */\ntag_110:\n    /* \"#utility.yul\":5376:5455   */\n  pop\n  jump\t// out\n    /* \"contracts/crowd-funding.sol\":60:3967  contract CrowdFunding {\r... */\ntag_14:\n  dataSize(sub_0)\n  dup1\n  dataOffset(sub_0)\n  0x00\n  codecopy\n  0x00\n  return\nstop\n\nsub_0: assembly {\n        /* \"contracts/crowd-funding.sol\":60:3967  contract CrowdFunding {\r... */\n      mstore(0x40, 0x80)\n      jumpi(tag_1, lt(calldatasize, 0x04))\n      shr(0xe0, calldataload(0x00))\n      dup1\n      0x7284e416\n      gt\n      tag_21\n      jumpi\n      dup1\n      0xb85dfb80\n      gt\n      tag_22\n      jumpi\n      dup1\n      0xb85dfb80\n      eq\n      tag_16\n      jumpi\n      dup1\n      0xc19d93fb\n      eq\n      tag_17\n      jumpi\n      dup1\n      0xc4ae3168\n      eq\n      tag_18\n      jumpi\n      dup1\n      0xca1d209d\n      eq\n      tag_19\n      jumpi\n      dup1\n      0xde170570\n      eq\n      tag_20\n      jumpi\n      jump(tag_1)\n    tag_22:\n      dup1\n      0x7284e416\n      eq\n      tag_11\n      jumpi\n      dup1\n      0x7497211b\n      eq\n      tag_12\n      jumpi\n      dup1\n      0x7adba527\n      eq\n      tag_13\n      jumpi\n      dup1\n      0x8da5cb5b\n      eq\n      tag_14\n      jumpi\n      dup1\n      0x8ece7b91\n      eq\n      tag_15\n      jumpi\n      jump(tag_1)\n    tag_21:\n      dup1\n      0x389b7533\n      gt\n      tag_23\n      jumpi\n      dup1\n      0x389b7533\n      eq\n      tag_6\n      jumpi\n      dup1\n      0x3ccfd60b\n      eq\n      tag_7\n      jumpi\n      dup1\n      0x40193883\n      eq\n      tag_8\n      jumpi\n      dup1\n      0x590e1ae3\n      eq\n      tag_9\n      jumpi\n      dup1\n      0x5c975abb\n      eq\n      tag_10\n      jumpi\n      jump(tag_1)\n    tag_23:\n      dup1\n      0x039af9eb\n      eq\n      tag_2\n      jumpi\n      dup1\n      0x06fdde03\n      eq\n      tag_3\n      jumpi\n      dup1\n      0x10550515\n      eq\n      tag_4\n      jumpi\n      dup1\n      0x29dcb0cf\n      eq\n      tag_5\n      jumpi\n    tag_1:\n      0x00\n      dup1\n      revert\n        /* \"contracts/crowd-funding.sol\":560:579  Tier[] public tiers */\n    tag_2:\n      callvalue\n      dup1\n      iszero\n      tag_24\n      jumpi\n      0x00\n      dup1\n      revert\n    tag_24:\n      pop\n      tag_25\n      0x04\n      dup1\n      calldatasize\n      sub\n      dup2\n      add\n      swap1\n      tag_26\n      swap2\n      swap1\n      tag_27\n      jump\t// in\n    tag_26:\n      tag_28\n      jump\t// in\n    tag_25:\n      mload(0x40)\n      tag_29\n      swap4\n      swap3\n      swap2\n      swap1\n      tag_30\n      jump\t// in\n    tag_29:\n      mload(0x40)\n      dup1\n      swap2\n      sub\n      swap1\n      return\n        /* \"contracts/crowd-funding.sol\":89:107  string public name */\n    tag_3:\n      callvalue\n      dup1\n      iszero\n      tag_31\n      jumpi\n      0x00\n      dup1\n      revert\n    tag_31:\n      pop\n      tag_32\n      tag_33\n      jump\t// in\n    tag_32:\n      mload(0x40)\n      tag_34\n      swap2\n      swap1\n      tag_35\n      jump\t// in\n    tag_34:\n      mload(0x40)\n      dup1\n      swap2\n      sub\n      swap1\n      return\n        /* \"contracts/crowd-funding.sol\":3544:3830  function getCampaignStatus() external view returns (CampaignState) {\r... */\n    tag_4:\n      callvalue\n      dup1\n      iszero\n      tag_36\n      jumpi\n      0x00\n      dup1\n      revert\n    tag_36:\n      pop\n      tag_37\n      tag_38\n      jump\t// in\n    tag_37:\n      mload(0x40)\n      tag_39\n      swap2\n      swap1\n      tag_40\n      jump\t// in\n    tag_39:\n      mload(0x40)\n      dup1\n      swap2\n      sub\n      swap1\n      return\n        /* \"contracts/crowd-funding.sol\":172:195  uint256 public deadline */\n    tag_5:\n      callvalue\n      dup1\n      iszero\n      tag_41\n      jumpi\n      0x00\n      dup1\n      revert\n    tag_41:\n      pop\n      tag_42\n      tag_43\n      jump\t// in\n    tag_42:\n      mload(0x40)\n      tag_44\n      swap2\n      swap1\n      tag_45\n      jump\t// in\n    tag_44:\n      mload(0x40)\n      dup1\n      swap2\n      sub\n      swap1\n      return\n        /* \"contracts/crowd-funding.sol\":3838:3964  function extendDeadline(uint256 _daysToAdd) external onlyOwner campaignOpen {\r... */\n    tag_6:\n      callvalue\n      dup1\n      iszero\n      tag_46\n      jumpi\n      0x00\n      dup1\n      revert\n    tag_46:\n      pop\n      tag_47\n      0x04\n      dup1\n      calldatasize\n      sub\n      dup2\n      add\n      swap1\n      tag_48\n      swap2\n      swap1\n      tag_27\n      jump\t// in\n    tag_48:\n      tag_49\n      jump\t// in\n    tag_47:\n      stop\n        /* \"contracts/crowd-funding.sol\":2080:2401  function withdraw() external onlyOwner {\r... */\n    tag_7:\n      callvalue\n      dup1\n      iszero\n      tag_50\n      jumpi\n      0x00\n      dup1\n      revert\n    tag_50:\n      pop\n      tag_51\n      tag_52\n      jump\t// in\n    tag_51:\n      stop\n        /* \"contracts/crowd-funding.sol\":146:165  uint256 public goal */\n    tag_8:\n      callvalue\n      dup1\n      iszero\n      tag_53\n      jumpi\n      0x00\n      dup1\n      revert\n    tag_53:\n      pop\n      tag_54\n      tag_55\n      jump\t// in\n    tag_54:\n      mload(0x40)\n      tag_56\n      swap2\n      swap1\n      tag_45\n      jump\t// in\n    tag_56:\n      mload(0x40)\n      dup1\n      swap2\n      sub\n      swap1\n      return\n        /* \"contracts/crowd-funding.sol\":2816:3191  function refund() external {\r... */\n    tag_9:\n      callvalue\n      dup1\n      iszero\n      tag_57\n      jumpi\n      0x00\n      dup1\n      revert\n    tag_57:\n      pop\n      tag_58\n      tag_59\n      jump\t// in\n    tag_58:\n      stop\n        /* \"contracts/crowd-funding.sol\":229:247  bool public paused */\n    tag_10:\n      callvalue\n      dup1\n      iszero\n      tag_60\n      jumpi\n      0x00\n      dup1\n      revert\n    tag_60:\n      pop\n      tag_61\n      tag_62\n      jump\t// in\n    tag_61:\n      mload(0x40)\n      tag_63\n      swap2\n      swap1\n      tag_64\n      jump\t// in\n    tag_63:\n      mload(0x40)\n      dup1\n      swap2\n      sub\n      swap1\n      return\n        /* \"contracts/crowd-funding.sol\":114:139  string public description */\n    tag_11:\n      callvalue\n      dup1\n      iszero\n      tag_65\n      jumpi\n      0x00\n      dup1\n      revert\n    tag_65:\n      pop\n      tag_66\n      tag_67\n      jump\t// in\n    tag_66:\n      mload(0x40)\n      tag_68\n      swap2\n      swap1\n      tag_35\n      jump\t// in\n    tag_68:\n      mload(0x40)\n      dup1\n      swap2\n      sub\n      swap1\n      return\n        /* \"contracts/crowd-funding.sol\":2609:2808  function removeTier(uint256 _index) external onlyOwner {\r... */\n    tag_12:\n      callvalue\n      dup1\n      iszero\n      tag_69\n      jumpi\n      0x00\n      dup1\n      revert\n    tag_69:\n      pop\n      tag_70\n      0x04\n      dup1\n      calldatasize\n      sub\n      dup2\n      add\n      swap1\n      tag_71\n      swap2\n      swap1\n      tag_27\n      jump\t// in\n    tag_71:\n      tag_72\n      jump\t// in\n    tag_70:\n      stop\n        /* \"contracts/crowd-funding.sol\":3199:3354  function hasFundedTier(address _backer, uint256 _tierIndex) external view returns (bool) {\r... */\n    tag_13:\n      callvalue\n      dup1\n      iszero\n      tag_73\n      jumpi\n      0x00\n      dup1\n      revert\n    tag_73:\n      pop\n      tag_74\n      0x04\n      dup1\n      calldatasize\n      sub\n      dup2\n      add\n      swap1\n      tag_75\n      swap2\n      swap1\n      tag_76\n      jump\t// in\n    tag_75:\n      tag_77\n      jump\t// in\n    tag_74:\n      mload(0x40)\n      tag_78\n      swap2\n      swap1\n      tag_64\n      jump\t// in\n    tag_78:\n      mload(0x40)\n      dup1\n      swap2\n      sub\n      swap1\n      return\n        /* \"contracts/crowd-funding.sol\":202:222  address public owner */\n    tag_14:\n      callvalue\n      dup1\n      iszero\n      tag_79\n      jumpi\n      0x00\n      dup1\n      revert\n    tag_79:\n      pop\n      tag_80\n      tag_81\n      jump\t// in\n    tag_80:\n      mload(0x40)\n      tag_82\n      swap2\n      swap1\n      tag_83\n      jump\t// in\n    tag_82:\n      mload(0x40)\n      dup1\n      swap2\n      sub\n      swap1\n      return\n        /* \"contracts/crowd-funding.sol\":2409:2601  function addTier(string memory _name, uint256 _amount) external onlyOwner {\r... */\n    tag_15:\n      callvalue\n      dup1\n      iszero\n      tag_84\n      jumpi\n      0x00\n      dup1\n      revert\n    tag_84:\n      pop\n      tag_85\n      0x04\n      dup1\n      calldatasize\n      sub\n      dup2\n      add\n      swap1\n      tag_86\n      swap2\n      swap1\n      tag_87\n      jump\t// in\n    tag_86:\n      tag_88\n      jump\t// in\n    tag_85:\n      stop\n        /* \"contracts/crowd-funding.sol\":586:627  mapping(address => Backer) public backers */\n    tag_16:\n      callvalue\n      dup1\n      iszero\n      tag_89\n      jumpi\n      0x00\n      dup1\n      revert\n    tag_89:\n      pop\n      tag_90\n      0x04\n      dup1\n      calldatasize\n      sub\n      dup2\n      add\n      swap1\n      tag_91\n      swap2\n      swap1\n      tag_92\n      jump\t// in\n    tag_91:\n      tag_93\n      jump\t// in\n    tag_90:\n      mload(0x40)\n      tag_94\n      swap2\n      swap1\n      tag_45\n      jump\t// in\n    tag_94:\n      mload(0x40)\n      dup1\n      swap2\n      sub\n      swap1\n      return\n        /* \"contracts/crowd-funding.sol\":311:337  CampaignState public state */\n    tag_17:\n      callvalue\n      dup1\n      iszero\n      tag_95\n      jumpi\n      0x00\n      dup1\n      revert\n    tag_95:\n      pop\n      tag_96\n      tag_97\n      jump\t// in\n    tag_96:\n      mload(0x40)\n      tag_98\n      swap2\n      swap1\n      tag_40\n      jump\t// in\n    tag_98:\n      mload(0x40)\n      dup1\n      swap2\n      sub\n      swap1\n      return\n        /* \"contracts/crowd-funding.sol\":3459:3536  function togglePause() external onlyOwner {\r... */\n    tag_18:\n      callvalue\n      dup1\n      iszero\n      tag_99\n      jumpi\n      0x00\n      dup1\n      revert\n    tag_99:\n      pop\n      tag_100\n      tag_101\n      jump\t// in\n    tag_100:\n      stop\n        /* \"contracts/crowd-funding.sol\":1648:2072  function fund(uint256 _tierIndex) external payable notPaused campaignOpen {\r... */\n    tag_19:\n      tag_102\n      0x04\n      dup1\n      calldatasize\n      sub\n      dup2\n      add\n      swap1\n      tag_103\n      swap2\n      swap1\n      tag_27\n      jump\t// in\n    tag_103:\n      tag_104\n      jump\t// in\n    tag_102:\n      stop\n        /* \"contracts/crowd-funding.sol\":3362:3451  function getTiers() external view returns (Tier[] memory) {\r... */\n    tag_20:\n      callvalue\n      dup1\n      iszero\n      tag_105\n      jumpi\n      0x00\n      dup1\n      revert\n    tag_105:\n      pop\n      tag_106\n      tag_107\n      jump\t// in\n    tag_106:\n      mload(0x40)\n      tag_108\n      swap2\n      swap1\n      tag_109\n      jump\t// in\n    tag_108:\n      mload(0x40)\n      dup1\n      swap2\n      sub\n      swap1\n      return\n        /* \"contracts/crowd-funding.sol\":560:579  Tier[] public tiers */\n    tag_28:\n      0x05\n      dup2\n      dup2\n      sload\n      dup2\n      lt\n      tag_110\n      jumpi\n      0x00\n      dup1\n      revert\n    tag_110:\n      swap1\n      0x00\n      mstore\n      keccak256(0x00, 0x20)\n      swap1\n      0x03\n      mul\n      add\n      0x00\n      swap2\n      pop\n      swap1\n      pop\n      dup1\n      0x00\n      add\n      dup1\n      sload\n      tag_112\n      swap1\n      tag_113\n      jump\t// in\n    tag_112:\n      dup1\n      0x1f\n      add\n      0x20\n      dup1\n      swap2\n      div\n      mul\n      0x20\n      add\n      mload(0x40)\n      swap1\n      dup2\n      add\n      0x40\n      mstore\n      dup1\n      swap3\n      swap2\n      swap1\n      dup2\n      dup2\n      mstore\n      0x20\n      add\n      dup3\n      dup1\n      sload\n      tag_114\n      swap1\n      tag_113\n      jump\t// in\n    tag_114:\n      dup1\n      iszero\n      tag_115\n      jumpi\n      dup1\n      0x1f\n      lt\n      tag_116\n      jumpi\n      0x0100\n      dup1\n      dup4\n      sload\n      div\n      mul\n      dup4\n      mstore\n      swap2\n      0x20\n      add\n      swap2\n      jump(tag_115)\n    tag_116:\n      dup3\n      add\n      swap2\n      swap1\n      0x00\n      mstore\n      keccak256(0x00, 0x20)\n      swap1\n    tag_117:\n      dup2\n      sload\n      dup2\n      mstore\n      swap1\n      0x01\n      add\n      swap1\n      0x20\n      add\n      dup1\n      dup4\n      gt\n      tag_117\n      jumpi\n      dup3\n      swap1\n      sub\n      0x1f\n      and\n      dup3\n      add\n      swap2\n    tag_115:\n      pop\n      pop\n      pop\n      pop\n      pop\n      swap1\n      dup1\n      0x01\n      add\n      sload\n      swap1\n      dup1\n      0x02\n      add\n      sload\n      swap1\n      pop\n      dup4\n      jump\t// out\n        /* \"contracts/crowd-funding.sol\":89:107  string public name */\n    tag_33:\n      0x00\n      dup1\n      sload\n      tag_118\n      swap1\n      tag_113\n      jump\t// in\n    tag_118:\n      dup1\n      0x1f\n      add\n      0x20\n      dup1\n      swap2\n      div\n      mul\n      0x20\n      add\n      mload(0x40)\n      swap1\n      dup2\n      add\n      0x40\n      mstore\n      dup1\n      swap3\n      swap2\n      swap1\n      dup2\n      dup2\n      mstore\n      0x20\n      add\n      dup3\n      dup1\n      sload\n      tag_119\n      swap1\n      tag_113\n      jump\t// in\n    tag_119:\n      dup1\n      iszero\n      tag_120\n      jumpi\n      dup1\n      0x1f\n      lt\n      tag_121\n      jumpi\n      0x0100\n      dup1\n      dup4\n      sload\n      div\n      mul\n      dup4\n      mstore\n      swap2\n      0x20\n      add\n      swap2\n      jump(tag_120)\n    tag_121:\n      dup3\n      add\n      swap2\n      swap1\n      0x00\n      mstore\n      keccak256(0x00, 0x20)\n      swap1\n    tag_122:\n      dup2\n      sload\n      dup2\n      mstore\n      swap1\n      0x01\n      add\n      swap1\n      0x20\n      add\n      dup1\n      dup4\n      gt\n      tag_122\n      jumpi\n      dup3\n      swap1\n      sub\n      0x1f\n      and\n      dup3\n      add\n      swap2\n    tag_120:\n      pop\n      pop\n      pop\n      pop\n      pop\n      dup2\n      jump\t// out\n        /* \"contracts/crowd-funding.sol\":3544:3830  function getCampaignStatus() external view returns (CampaignState) {\r... */\n    tag_38:\n        /* \"contracts/crowd-funding.sol\":3596:3609  CampaignState */\n      0x00\n        /* \"contracts/crowd-funding.sol\":3635:3655  CampaignState.Active */\n      dup1\n        /* \"contracts/crowd-funding.sol\":3626:3655  state == CampaignState.Active */\n      0x02\n      dup2\n      gt\n      iszero\n      tag_124\n      jumpi\n      mstore(0x00, 0x4e487b7100000000000000000000000000000000000000000000000000000000)\n      mstore(0x04, 0x21)\n      revert(0x00, 0x24)\n    tag_124:\n        /* \"contracts/crowd-funding.sol\":3626:3631  state */\n      0x04\n      0x15\n      swap1\n      sload\n      swap1\n      0x0100\n      exp\n      swap1\n      div\n      0xff\n      and\n        /* \"contracts/crowd-funding.sol\":3626:3655  state == CampaignState.Active */\n      0x02\n      dup2\n      gt\n      iszero\n      tag_125\n      jumpi\n      mstore(0x00, 0x4e487b7100000000000000000000000000000000000000000000000000000000)\n      mstore(0x04, 0x21)\n      revert(0x00, 0x24)\n    tag_125:\n      eq\n        /* \"contracts/crowd-funding.sol\":3626:3685  state == CampaignState.Active && block.timestamp > deadline */\n      dup1\n      iszero\n      tag_126\n      jumpi\n      pop\n        /* \"contracts/crowd-funding.sol\":3677:3685  deadline */\n      sload(0x03)\n        /* \"contracts/crowd-funding.sol\":3659:3674  block.timestamp */\n      timestamp\n        /* \"contracts/crowd-funding.sol\":3659:3685  block.timestamp > deadline */\n      gt\n        /* \"contracts/crowd-funding.sol\":3626:3685  state == CampaignState.Active && block.timestamp > deadline */\n    tag_126:\n        /* \"contracts/crowd-funding.sol\":3622:3800  if (state == CampaignState.Active && block.timestamp > deadline) {\r... */\n      iszero\n      tag_127\n      jumpi\n        /* \"contracts/crowd-funding.sol\":3734:3738  goal */\n      sload(0x02)\n        /* \"contracts/crowd-funding.sol\":3709:3730  address(this).balance */\n      selfbalance\n        /* \"contracts/crowd-funding.sol\":3709:3738  address(this).balance >= goal */\n      lt\n      iszero\n        /* \"contracts/crowd-funding.sol\":3709:3788  address(this).balance >= goal ? CampaignState.Successful : CampaignState.Failed */\n      tag_128\n      jumpi\n        /* \"contracts/crowd-funding.sol\":3768:3788  CampaignState.Failed */\n      0x02\n        /* \"contracts/crowd-funding.sol\":3709:3788  address(this).balance >= goal ? CampaignState.Successful : CampaignState.Failed */\n      jump(tag_129)\n    tag_128:\n        /* \"contracts/crowd-funding.sol\":3741:3765  CampaignState.Successful */\n      0x01\n        /* \"contracts/crowd-funding.sol\":3709:3788  address(this).balance >= goal ? CampaignState.Successful : CampaignState.Failed */\n    tag_129:\n        /* \"contracts/crowd-funding.sol\":3702:3788  return address(this).balance >= goal ? CampaignState.Successful : CampaignState.Failed */\n      swap1\n      pop\n      jump(tag_123)\n        /* \"contracts/crowd-funding.sol\":3622:3800  if (state == CampaignState.Active && block.timestamp > deadline) {\r... */\n    tag_127:\n        /* \"contracts/crowd-funding.sol\":3817:3822  state */\n      0x04\n      0x15\n      swap1\n      sload\n      swap1\n      0x0100\n      exp\n      swap1\n      div\n      0xff\n      and\n        /* \"contracts/crowd-funding.sol\":3810:3822  return state */\n      swap1\n      pop\n        /* \"contracts/crowd-funding.sol\":3544:3830  function getCampaignStatus() external view returns (CampaignState) {\r... */\n    tag_123:\n      swap1\n      jump\t// out\n        /* \"contracts/crowd-funding.sol\":172:195  uint256 public deadline */\n    tag_43:\n      sload(0x03)\n      dup2\n      jump\t// out\n        /* \"contracts/crowd-funding.sol\":3838:3964  function extendDeadline(uint256 _daysToAdd) external onlyOwner campaignOpen {\r... */\n    tag_49:\n        /* \"contracts/crowd-funding.sol\":688:693  owner */\n      0x04\n      0x00\n      swap1\n      sload\n      swap1\n      0x0100\n      exp\n      swap1\n      div\n      0xffffffffffffffffffffffffffffffffffffffff\n      and\n        /* \"contracts/crowd-funding.sol\":674:693  msg.sender == owner */\n      0xffffffffffffffffffffffffffffffffffffffff\n      and\n        /* \"contracts/crowd-funding.sol\":674:684  msg.sender */\n      caller\n        /* \"contracts/crowd-funding.sol\":674:693  msg.sender == owner */\n      0xffffffffffffffffffffffffffffffffffffffff\n      and\n      eq\n        /* \"contracts/crowd-funding.sol\":666:711  require(msg.sender == owner, \"Not the owner\") */\n      tag_131\n      jumpi\n      mload(0x40)\n      0x08c379a000000000000000000000000000000000000000000000000000000000\n      dup2\n      mstore\n      0x04\n      add\n      tag_132\n      swap1\n      tag_133\n      jump\t// in\n    tag_132:\n      mload(0x40)\n      dup1\n      swap2\n      sub\n      swap1\n      revert\n    tag_131:\n        /* \"contracts/crowd-funding.sol\":789:809  CampaignState.Active */\n      0x00\n        /* \"contracts/crowd-funding.sol\":780:809  state == CampaignState.Active */\n      0x02\n      dup2\n      gt\n      iszero\n      tag_135\n      jumpi\n      mstore(0x00, 0x4e487b7100000000000000000000000000000000000000000000000000000000)\n      mstore(0x04, 0x21)\n      revert(0x00, 0x24)\n    tag_135:\n        /* \"contracts/crowd-funding.sol\":780:785  state */\n      0x04\n      0x15\n      swap1\n      sload\n      swap1\n      0x0100\n      exp\n      swap1\n      div\n      0xff\n      and\n        /* \"contracts/crowd-funding.sol\":780:809  state == CampaignState.Active */\n      0x02\n      dup2\n      gt\n      iszero\n      tag_136\n      jumpi\n      mstore(0x00, 0x4e487b7100000000000000000000000000000000000000000000000000000000)\n      mstore(0x04, 0x21)\n      revert(0x00, 0x24)\n    tag_136:\n      eq\n        /* \"contracts/crowd-funding.sol\":772:836  require(state == CampaignState.Active, \"Campaign is not active\") */\n      tag_137\n      jumpi\n      mload(0x40)\n      0x08c379a000000000000000000000000000000000000000000000000000000000\n      dup2\n      mstore\n      0x04\n      add\n      tag_138\n      swap1\n      tag_139\n      jump\t// in\n    tag_138:\n      mload(0x40)\n      dup1\n      swap2\n      sub\n      swap1\n      revert\n    tag_137:\n        /* \"contracts/crowd-funding.sol\":3950:3956  1 days */\n      0x015180\n        /* \"contracts/crowd-funding.sol\":3937:3947  _daysToAdd */\n      dup2\n        /* \"contracts/crowd-funding.sol\":3937:3956  _daysToAdd * 1 days */\n      tag_141\n      swap2\n      swap1\n      tag_142\n      jump\t// in\n    tag_141:\n        /* \"contracts/crowd-funding.sol\":3925:3933  deadline */\n      0x03\n      0x00\n        /* \"contracts/crowd-funding.sol\":3925:3956  deadline += _daysToAdd * 1 days */\n      dup3\n      dup3\n      sload\n      tag_143\n      swap2\n      swap1\n      tag_144\n      jump\t// in\n    tag_143:\n      swap3\n      pop\n      pop\n      dup2\n      swap1\n      sstore\n      pop\n        /* \"contracts/crowd-funding.sol\":3838:3964  function extendDeadline(uint256 _daysToAdd) external onlyOwner campaignOpen {\r... */\n      pop\n      jump\t// out\n        /* \"contracts/crowd-funding.sol\":2080:2401  function withdraw() external onlyOwner {\r... */\n    tag_52:\n        /* \"contracts/crowd-funding.sol\":688:693  owner */\n      0x04\n      0x00\n      swap1\n      sload\n      swap1\n      0x0100\n      exp\n      swap1\n      div\n      0xffffffffffffffffffffffffffffffffffffffff\n      and\n        /* \"contracts/crowd-funding.sol\":674:693  msg.sender == owner */\n      0xffffffffffffffffffffffffffffffffffffffff\n      and\n        /* \"contracts/crowd-funding.sol\":674:684  msg.sender */\n      caller\n        /* \"contracts/crowd-funding.sol\":674:693  msg.sender == owner */\n      0xffffffffffffffffffffffffffffffffffffffff\n      and\n      eq\n        /* \"contracts/crowd-funding.sol\":666:711  require(msg.sender == owner, \"Not the owner\") */\n      tag_146\n      jumpi\n      mload(0x40)\n      0x08c379a000000000000000000000000000000000000000000000000000000000\n      dup2\n      mstore\n      0x04\n      add\n      tag_147\n      swap1\n      tag_133\n      jump\t// in\n    tag_147:\n      mload(0x40)\n      dup1\n      swap2\n      sub\n      swap1\n      revert\n    tag_146:\n        /* \"contracts/crowd-funding.sol\":2130:2159  checkAndUpdateCampaignState() */\n      tag_149\n        /* \"contracts/crowd-funding.sol\":2130:2157  checkAndUpdateCampaignState */\n      tag_150\n        /* \"contracts/crowd-funding.sol\":2130:2159  checkAndUpdateCampaignState() */\n      jump\t// in\n    tag_149:\n        /* \"contracts/crowd-funding.sol\":2187:2211  CampaignState.Successful */\n      0x01\n        /* \"contracts/crowd-funding.sol\":2178:2211  state == CampaignState.Successful */\n      0x02\n      dup2\n      gt\n      iszero\n      tag_151\n      jumpi\n      mstore(0x00, 0x4e487b7100000000000000000000000000000000000000000000000000000000)\n      mstore(0x04, 0x21)\n      revert(0x00, 0x24)\n    tag_151:\n        /* \"contracts/crowd-funding.sol\":2178:2183  state */\n      0x04\n      0x15\n      swap1\n      sload\n      swap1\n      0x0100\n      exp\n      swap1\n      div\n      0xff\n      and\n        /* \"contracts/crowd-funding.sol\":2178:2211  state == CampaignState.Successful */\n      0x02\n      dup2\n      gt\n      iszero\n      tag_152\n      jumpi\n      mstore(0x00, 0x4e487b7100000000000000000000000000000000000000000000000000000000)\n      mstore(0x04, 0x21)\n      revert(0x00, 0x24)\n    tag_152:\n      eq\n        /* \"contracts/crowd-funding.sol\":2170:2239  require(state == CampaignState.Successful, \"Campaign not successful\") */\n      tag_153\n      jumpi\n      mload(0x40)\n      0x08c379a000000000000000000000000000000000000000000000000000000000\n      dup2\n      mstore\n      0x04\n      add\n      tag_154\n      swap1\n      tag_155\n      jump\t// in\n    tag_154:\n      mload(0x40)\n      dup1\n      swap2\n      sub\n      swap1\n      revert\n    tag_153:\n        /* \"contracts/crowd-funding.sol\":2252:2267  uint256 balance */\n      0x00\n        /* \"contracts/crowd-funding.sol\":2270:2291  address(this).balance */\n      selfbalance\n        /* \"contracts/crowd-funding.sol\":2252:2291  uint256 balance = address(this).balance */\n      swap1\n      pop\n        /* \"contracts/crowd-funding.sol\":2320:2321  0 */\n      0x00\n        /* \"contracts/crowd-funding.sol\":2310:2317  balance */\n      dup2\n        /* \"contracts/crowd-funding.sol\":2310:2321  balance > 0 */\n      gt\n        /* \"contracts/crowd-funding.sol\":2302:2348  require(balance > 0, \"No balance to withdraw\") */\n      tag_156\n      jumpi\n      mload(0x40)\n      0x08c379a000000000000000000000000000000000000000000000000000000000\n      dup2\n      mstore\n      0x04\n      add\n      tag_157\n      swap1\n      tag_158\n      jump\t// in\n    tag_157:\n      mload(0x40)\n      dup1\n      swap2\n      sub\n      swap1\n      revert\n    tag_156:\n        /* \"contracts/crowd-funding.sol\":2369:2374  owner */\n      0x04\n      0x00\n      swap1\n      sload\n      swap1\n      0x0100\n      exp\n      swap1\n      div\n      0xffffffffffffffffffffffffffffffffffffffff\n      and\n        /* \"contracts/crowd-funding.sol\":2361:2384  payable(owner).transfer */\n      0xffffffffffffffffffffffffffffffffffffffff\n      and\n        /* \"contracts/crowd-funding.sol\":2361:2393  payable(owner).transfer(balance) */\n      0x08fc\n        /* \"contracts/crowd-funding.sol\":2385:2392  balance */\n      dup3\n        /* \"contracts/crowd-funding.sol\":2361:2393  payable(owner).transfer(balance) */\n      swap1\n      dup2\n      iszero\n      mul\n      swap1\n      mload(0x40)\n      0x00\n      mload(0x40)\n      dup1\n      dup4\n      sub\n      dup2\n      dup6\n      dup9\n      dup9\n      call\n      swap4\n      pop\n      pop\n      pop\n      pop\n      iszero\n      dup1\n      iszero\n      tag_160\n      jumpi\n      returndatasize\n      0x00\n      dup1\n      returndatacopy\n      revert(0x00, returndatasize)\n    tag_160:\n      pop\n        /* \"contracts/crowd-funding.sol\":722:723  _ */\n      pop\n        /* \"contracts/crowd-funding.sol\":2080:2401  function withdraw() external onlyOwner {\r... */\n      jump\t// out\n        /* \"contracts/crowd-funding.sol\":146:165  uint256 public goal */\n    tag_55:\n      sload(0x02)\n      dup2\n      jump\t// out\n        /* \"contracts/crowd-funding.sol\":2816:3191  function refund() external {\r... */\n    tag_59:\n        /* \"contracts/crowd-funding.sol\":2854:2883  checkAndUpdateCampaignState() */\n      tag_162\n        /* \"contracts/crowd-funding.sol\":2854:2881  checkAndUpdateCampaignState */\n      tag_150\n        /* \"contracts/crowd-funding.sol\":2854:2883  checkAndUpdateCampaignState() */\n      jump\t// in\n    tag_162:\n        /* \"contracts/crowd-funding.sol\":2911:2931  CampaignState.Failed */\n      0x02\n        /* \"contracts/crowd-funding.sol\":2902:2931  state == CampaignState.Failed */\n      dup1\n      dup2\n      gt\n      iszero\n      tag_163\n      jumpi\n      mstore(0x00, 0x4e487b7100000000000000000000000000000000000000000000000000000000)\n      mstore(0x04, 0x21)\n      revert(0x00, 0x24)\n    tag_163:\n        /* \"contracts/crowd-funding.sol\":2902:2907  state */\n      0x04\n      0x15\n      swap1\n      sload\n      swap1\n      0x0100\n      exp\n      swap1\n      div\n      0xff\n      and\n        /* \"contracts/crowd-funding.sol\":2902:2931  state == CampaignState.Failed */\n      0x02\n      dup2\n      gt\n      iszero\n      tag_164\n      jumpi\n      mstore(0x00, 0x4e487b7100000000000000000000000000000000000000000000000000000000)\n      mstore(0x04, 0x21)\n      revert(0x00, 0x24)\n    tag_164:\n      eq\n        /* \"contracts/crowd-funding.sol\":2894:2956  require(state == CampaignState.Failed, \"Refund not available\") */\n      tag_165\n      jumpi\n      mload(0x40)\n      0x08c379a000000000000000000000000000000000000000000000000000000000\n      dup2\n      mstore\n      0x04\n      add\n      tag_166\n      swap1\n      tag_167\n      jump\t// in\n    tag_166:\n      mload(0x40)\n      dup1\n      swap2\n      sub\n      swap1\n      revert\n    tag_165:\n        /* \"contracts/crowd-funding.sol\":2969:2983  uint256 amount */\n      0x00\n        /* \"contracts/crowd-funding.sol\":2986:2993  backers */\n      0x06\n        /* \"contracts/crowd-funding.sol\":2986:3005  backers[msg.sender] */\n      0x00\n        /* \"contracts/crowd-funding.sol\":2994:3004  msg.sender */\n      caller\n        /* \"contracts/crowd-funding.sol\":2986:3005  backers[msg.sender] */\n      0xffffffffffffffffffffffffffffffffffffffff\n      and\n      0xffffffffffffffffffffffffffffffffffffffff\n      and\n      dup2\n      mstore\n      0x20\n      add\n      swap1\n      dup2\n      mstore\n      0x20\n      add\n      0x00\n      keccak256\n        /* \"contracts/crowd-funding.sol\":2986:3023  backers[msg.sender].totalContribution */\n      0x00\n      add\n      sload\n        /* \"contracts/crowd-funding.sol\":2969:3023  uint256 amount = backers[msg.sender].totalContribution */\n      swap1\n      pop\n        /* \"contracts/crowd-funding.sol\":3051:3052  0 */\n      0x00\n        /* \"contracts/crowd-funding.sol\":3042:3048  amount */\n      dup2\n        /* \"contracts/crowd-funding.sol\":3042:3052  amount > 0 */\n      gt\n        /* \"contracts/crowd-funding.sol\":3034:3082  require(amount > 0, \"No contribution to refund\") */\n      tag_168\n      jumpi\n      mload(0x40)\n      0x08c379a000000000000000000000000000000000000000000000000000000000\n      dup2\n      mstore\n      0x04\n      add\n      tag_169\n      swap1\n      tag_170\n      jump\t// in\n    tag_169:\n      mload(0x40)\n      dup1\n      swap2\n      sub\n      swap1\n      revert\n    tag_168:\n        /* \"contracts/crowd-funding.sol\":3135:3136  0 */\n      0x00\n        /* \"contracts/crowd-funding.sol\":3095:3102  backers */\n      0x06\n        /* \"contracts/crowd-funding.sol\":3095:3114  backers[msg.sender] */\n      0x00\n        /* \"contracts/crowd-funding.sol\":3103:3113  msg.sender */\n      caller\n        /* \"contracts/crowd-funding.sol\":3095:3114  backers[msg.sender] */\n      0xffffffffffffffffffffffffffffffffffffffff\n      and\n      0xffffffffffffffffffffffffffffffffffffffff\n      and\n      dup2\n      mstore\n      0x20\n      add\n      swap1\n      dup2\n      mstore\n      0x20\n      add\n      0x00\n      keccak256\n        /* \"contracts/crowd-funding.sol\":3095:3132  backers[msg.sender].totalContribution */\n      0x00\n      add\n        /* \"contracts/crowd-funding.sol\":3095:3136  backers[msg.sender].totalContribution = 0 */\n      dup2\n      swap1\n      sstore\n      pop\n        /* \"contracts/crowd-funding.sol\":3155:3165  msg.sender */\n      caller\n        /* \"contracts/crowd-funding.sol\":3147:3175  payable(msg.sender).transfer */\n      0xffffffffffffffffffffffffffffffffffffffff\n      and\n        /* \"contracts/crowd-funding.sol\":3147:3183  payable(msg.sender).transfer(amount) */\n      0x08fc\n        /* \"contracts/crowd-funding.sol\":3176:3182  amount */\n      dup3\n        /* \"contracts/crowd-funding.sol\":3147:3183  payable(msg.sender).transfer(amount) */\n      swap1\n      dup2\n      iszero\n      mul\n      swap1\n      mload(0x40)\n      0x00\n      mload(0x40)\n      dup1\n      dup4\n      sub\n      dup2\n      dup6\n      dup9\n      dup9\n      call\n      swap4\n      pop\n      pop\n      pop\n      pop\n      iszero\n      dup1\n      iszero\n      tag_172\n      jumpi\n      returndatasize\n      0x00\n      dup1\n      returndatacopy\n      revert(0x00, returndatasize)\n    tag_172:\n      pop\n        /* \"contracts/crowd-funding.sol\":2816:3191  function refund() external {\r... */\n      pop\n      jump\t// out\n        /* \"contracts/crowd-funding.sol\":229:247  bool public paused */\n    tag_62:\n      0x04\n      0x14\n      swap1\n      sload\n      swap1\n      0x0100\n      exp\n      swap1\n      div\n      0xff\n      and\n      dup2\n      jump\t// out\n        /* \"contracts/crowd-funding.sol\":114:139  string public description */\n    tag_67:\n      0x01\n      dup1\n      sload\n      tag_173\n      swap1\n      tag_113\n      jump\t// in\n    tag_173:\n      dup1\n      0x1f\n      add\n      0x20\n      dup1\n      swap2\n      div\n      mul\n      0x20\n      add\n      mload(0x40)\n      swap1\n      dup2\n      add\n      0x40\n      mstore\n      dup1\n      swap3\n      swap2\n      swap1\n      dup2\n      dup2\n      mstore\n      0x20\n      add\n      dup3\n      dup1\n      sload\n      tag_174\n      swap1\n      tag_113\n      jump\t// in\n    tag_174:\n      dup1\n      iszero\n      tag_175\n      jumpi\n      dup1\n      0x1f\n      lt\n      tag_176\n      jumpi\n      0x0100\n      dup1\n      dup4\n      sload\n      div\n      mul\n      dup4\n      mstore\n      swap2\n      0x20\n      add\n      swap2\n      jump(tag_175)\n    tag_176:\n      dup3\n      add\n      swap2\n      swap1\n      0x00\n      mstore\n      keccak256(0x00, 0x20)\n      swap1\n    tag_177:\n      dup2\n      sload\n      dup2\n      mstore\n      swap1\n      0x01\n      add\n      swap1\n      0x20\n      add\n      dup1\n      dup4\n      gt\n      tag_177\n      jumpi\n      dup3\n      swap1\n      sub\n      0x1f\n      and\n      dup3\n      add\n      swap2\n    tag_175:\n      pop\n      pop\n      pop\n      pop\n      pop\n      dup2\n      jump\t// out\n        /* \"contracts/crowd-funding.sol\":2609:2808  function removeTier(uint256 _index) external onlyOwner {\r... */\n    tag_72:\n        /* \"contracts/crowd-funding.sol\":688:693  owner */\n      0x04\n      0x00\n      swap1\n      sload\n      swap1\n      0x0100\n      exp\n      swap1\n      div\n      0xffffffffffffffffffffffffffffffffffffffff\n      and\n        /* \"contracts/crowd-funding.sol\":674:693  msg.sender == owner */\n      0xffffffffffffffffffffffffffffffffffffffff\n      and\n        /* \"contracts/crowd-funding.sol\":674:684  msg.sender */\n      caller\n        /* \"contracts/crowd-funding.sol\":674:693  msg.sender == owner */\n      0xffffffffffffffffffffffffffffffffffffffff\n      and\n      eq\n        /* \"contracts/crowd-funding.sol\":666:711  require(msg.sender == owner, \"Not the owner\") */\n      tag_179\n      jumpi\n      mload(0x40)\n      0x08c379a000000000000000000000000000000000000000000000000000000000\n      dup2\n      mstore\n      0x04\n      add\n      tag_180\n      swap1\n      tag_133\n      jump\t// in\n    tag_180:\n      mload(0x40)\n      dup1\n      swap2\n      sub\n      swap1\n      revert\n    tag_179:\n        /* \"contracts/crowd-funding.sol\":2692:2697  tiers */\n      0x05\n        /* \"contracts/crowd-funding.sol\":2692:2704  tiers.length */\n      dup1\n      sload\n      swap1\n      pop\n        /* \"contracts/crowd-funding.sol\":2683:2689  _index */\n      dup2\n        /* \"contracts/crowd-funding.sol\":2683:2704  _index < tiers.length */\n      lt\n        /* \"contracts/crowd-funding.sol\":2675:2728  require(_index < tiers.length, \"Tier does not exist\") */\n      tag_182\n      jumpi\n      mload(0x40)\n      0x08c379a000000000000000000000000000000000000000000000000000000000\n      dup2\n      mstore\n      0x04\n      add\n      tag_183\n      swap1\n      tag_184\n      jump\t// in\n    tag_183:\n      mload(0x40)\n      dup1\n      swap2\n      sub\n      swap1\n      revert\n    tag_182:\n        /* \"contracts/crowd-funding.sol\":2755:2760  tiers */\n      0x05\n        /* \"contracts/crowd-funding.sol\":2776:2777  1 */\n      0x01\n        /* \"contracts/crowd-funding.sol\":2761:2766  tiers */\n      0x05\n        /* \"contracts/crowd-funding.sol\":2761:2773  tiers.length */\n      dup1\n      sload\n      swap1\n      pop\n        /* \"contracts/crowd-funding.sol\":2761:2777  tiers.length - 1 */\n      tag_185\n      swap2\n      swap1\n      tag_186\n      jump\t// in\n    tag_185:\n        /* \"contracts/crowd-funding.sol\":2755:2778  tiers[tiers.length - 1] */\n      dup2\n      sload\n      dup2\n      lt\n      tag_187\n      jumpi\n      mstore(0x00, 0x4e487b7100000000000000000000000000000000000000000000000000000000)\n      mstore(0x04, 0x32)\n      revert(0x00, 0x24)\n    tag_187:\n      swap1\n      0x00\n      mstore\n      keccak256(0x00, 0x20)\n      swap1\n      0x03\n      mul\n      add\n        /* \"contracts/crowd-funding.sol\":2739:2744  tiers */\n      0x05\n        /* \"contracts/crowd-funding.sol\":2745:2751  _index */\n      dup3\n        /* \"contracts/crowd-funding.sol\":2739:2752  tiers[_index] */\n      dup2\n      sload\n      dup2\n      lt\n      tag_189\n      jumpi\n      mstore(0x00, 0x4e487b7100000000000000000000000000000000000000000000000000000000)\n      mstore(0x04, 0x32)\n      revert(0x00, 0x24)\n    tag_189:\n      swap1\n      0x00\n      mstore\n      keccak256(0x00, 0x20)\n      swap1\n      0x03\n      mul\n      add\n        /* \"contracts/crowd-funding.sol\":2739:2778  tiers[_index] = tiers[tiers.length - 1] */\n      0x00\n      dup3\n      add\n      dup2\n      0x00\n      add\n      swap1\n      dup1\n      sload\n      tag_191\n      swap1\n      tag_113\n      jump\t// in\n    tag_191:\n      tag_192\n      swap3\n      swap2\n      swap1\n      tag_193\n      jump\t// in\n    tag_192:\n      pop\n      0x01\n      dup3\n      add\n      sload\n      dup2\n      0x01\n      add\n      sstore\n      0x02\n      dup3\n      add\n      sload\n      dup2\n      0x02\n      add\n      sstore\n      swap1\n      pop\n      pop\n        /* \"contracts/crowd-funding.sol\":2789:2794  tiers */\n      0x05\n        /* \"contracts/crowd-funding.sol\":2789:2800  tiers.pop() */\n      dup1\n      sload\n      dup1\n      tag_194\n      jumpi\n      mstore(0x00, 0x4e487b7100000000000000000000000000000000000000000000000000000000)\n      mstore(0x04, 0x31)\n      revert(0x00, 0x24)\n    tag_194:\n      0x01\n      swap1\n      sub\n      dup2\n      dup2\n      swap1\n      0x00\n      mstore\n      keccak256(0x00, 0x20)\n      swap1\n      0x03\n      mul\n      add\n      0x00\n      dup1\n      dup3\n      add\n      0x00\n      tag_196\n      swap2\n      swap1\n      tag_197\n      jump\t// in\n    tag_196:\n      0x01\n      dup3\n      add\n      0x00\n      swap1\n      sstore\n      0x02\n      dup3\n      add\n      0x00\n      swap1\n      sstore\n      pop\n      pop\n      swap1\n      sstore\n        /* \"contracts/crowd-funding.sol\":2609:2808  function removeTier(uint256 _index) external onlyOwner {\r... */\n      pop\n      jump\t// out\n        /* \"contracts/crowd-funding.sol\":3199:3354  function hasFundedTier(address _backer, uint256 _tierIndex) external view returns (bool) {\r... */\n    tag_77:\n        /* \"contracts/crowd-funding.sol\":3282:3286  bool */\n      0x00\n        /* \"contracts/crowd-funding.sol\":3306:3313  backers */\n      0x06\n        /* \"contracts/crowd-funding.sol\":3306:3322  backers[_backer] */\n      0x00\n        /* \"contracts/crowd-funding.sol\":3314:3321  _backer */\n      dup5\n        /* \"contracts/crowd-funding.sol\":3306:3322  backers[_backer] */\n      0xffffffffffffffffffffffffffffffffffffffff\n      and\n      0xffffffffffffffffffffffffffffffffffffffff\n      and\n      dup2\n      mstore\n      0x20\n      add\n      swap1\n      dup2\n      mstore\n      0x20\n      add\n      0x00\n      keccak256\n        /* \"contracts/crowd-funding.sol\":3306:3334  backers[_backer].fundedTiers */\n      0x01\n      add\n        /* \"contracts/crowd-funding.sol\":3306:3346  backers[_backer].fundedTiers[_tierIndex] */\n      0x00\n        /* \"contracts/crowd-funding.sol\":3335:3345  _tierIndex */\n      dup4\n        /* \"contracts/crowd-funding.sol\":3306:3346  backers[_backer].fundedTiers[_tierIndex] */\n      dup2\n      mstore\n      0x20\n      add\n      swap1\n      dup2\n      mstore\n      0x20\n      add\n      0x00\n      keccak256\n      0x00\n      swap1\n      sload\n      swap1\n      0x0100\n      exp\n      swap1\n      div\n      0xff\n      and\n        /* \"contracts/crowd-funding.sol\":3299:3346  return backers[_backer].fundedTiers[_tierIndex] */\n      swap1\n      pop\n        /* \"contracts/crowd-funding.sol\":3199:3354  function hasFundedTier(address _backer, uint256 _tierIndex) external view returns (bool) {\r... */\n      swap3\n      swap2\n      pop\n      pop\n      jump\t// out\n        /* \"contracts/crowd-funding.sol\":202:222  address public owner */\n    tag_81:\n      0x04\n      0x00\n      swap1\n      sload\n      swap1\n      0x0100\n      exp\n      swap1\n      div\n      0xffffffffffffffffffffffffffffffffffffffff\n      and\n      dup2\n      jump\t// out\n        /* \"contracts/crowd-funding.sol\":2409:2601  function addTier(string memory _name, uint256 _amount) external onlyOwner {\r... */\n    tag_88:\n        /* \"contracts/crowd-funding.sol\":688:693  owner */\n      0x04\n      0x00\n      swap1\n      sload\n      swap1\n      0x0100\n      exp\n      swap1\n      div\n      0xffffffffffffffffffffffffffffffffffffffff\n      and\n        /* \"contracts/crowd-funding.sol\":674:693  msg.sender == owner */\n      0xffffffffffffffffffffffffffffffffffffffff\n      and\n        /* \"contracts/crowd-funding.sol\":674:684  msg.sender */\n      caller\n        /* \"contracts/crowd-funding.sol\":674:693  msg.sender == owner */\n      0xffffffffffffffffffffffffffffffffffffffff\n      and\n      eq\n        /* \"contracts/crowd-funding.sol\":666:711  require(msg.sender == owner, \"Not the owner\") */\n      tag_200\n      jumpi\n      mload(0x40)\n      0x08c379a000000000000000000000000000000000000000000000000000000000\n      dup2\n      mstore\n      0x04\n      add\n      tag_201\n      swap1\n      tag_133\n      jump\t// in\n    tag_201:\n      mload(0x40)\n      dup1\n      swap2\n      sub\n      swap1\n      revert\n    tag_200:\n        /* \"contracts/crowd-funding.sol\":2512:2513  0 */\n      0x00\n        /* \"contracts/crowd-funding.sol\":2502:2509  _amount */\n      dup2\n        /* \"contracts/crowd-funding.sol\":2502:2513  _amount > 0 */\n      gt\n        /* \"contracts/crowd-funding.sol\":2494:2547  require(_amount > 0, \"Amount must be greater than 0\") */\n      tag_203\n      jumpi\n      mload(0x40)\n      0x08c379a000000000000000000000000000000000000000000000000000000000\n      dup2\n      mstore\n      0x04\n      add\n      tag_204\n      swap1\n      tag_205\n      jump\t// in\n    tag_204:\n      mload(0x40)\n      dup1\n      swap2\n      sub\n      swap1\n      revert\n    tag_203:\n        /* \"contracts/crowd-funding.sol\":2558:2563  tiers */\n      0x05\n        /* \"contracts/crowd-funding.sol\":2569:2592  Tier(_name, _amount, 0) */\n      mload(0x40)\n      dup1\n      0x60\n      add\n      0x40\n      mstore\n      dup1\n        /* \"contracts/crowd-funding.sol\":2574:2579  _name */\n      dup5\n        /* \"contracts/crowd-funding.sol\":2569:2592  Tier(_name, _amount, 0) */\n      dup2\n      mstore\n      0x20\n      add\n        /* \"contracts/crowd-funding.sol\":2581:2588  _amount */\n      dup4\n        /* \"contracts/crowd-funding.sol\":2569:2592  Tier(_name, _amount, 0) */\n      dup2\n      mstore\n      0x20\n      add\n        /* \"contracts/crowd-funding.sol\":2590:2591  0 */\n      0x00\n        /* \"contracts/crowd-funding.sol\":2569:2592  Tier(_name, _amount, 0) */\n      dup2\n      mstore\n      pop\n        /* \"contracts/crowd-funding.sol\":2558:2593  tiers.push(Tier(_name, _amount, 0)) */\n      swap1\n      dup1\n      0x01\n      dup2\n      sload\n      add\n      dup1\n      dup3\n      sstore\n      dup1\n      swap2\n      pop\n      pop\n      0x01\n      swap1\n      sub\n      swap1\n      0x00\n      mstore\n      keccak256(0x00, 0x20)\n      swap1\n      0x03\n      mul\n      add\n      0x00\n      swap1\n      swap2\n      swap1\n      swap2\n      swap1\n      swap2\n      pop\n      0x00\n      dup3\n      add\n      mload\n      dup2\n      0x00\n      add\n      swap1\n      dup1\n      mload\n      swap1\n      0x20\n      add\n      swap1\n      tag_207\n      swap3\n      swap2\n      swap1\n      tag_208\n      jump\t// in\n    tag_207:\n      pop\n      0x20\n      dup3\n      add\n      mload\n      dup2\n      0x01\n      add\n      sstore\n      0x40\n      dup3\n      add\n      mload\n      dup2\n      0x02\n      add\n      sstore\n      pop\n      pop\n        /* \"contracts/crowd-funding.sol\":2409:2601  function addTier(string memory _name, uint256 _amount) external onlyOwner {\r... */\n      pop\n      pop\n      jump\t// out\n        /* \"contracts/crowd-funding.sol\":586:627  mapping(address => Backer) public backers */\n    tag_93:\n      mstore(0x20, 0x06)\n      dup1\n      0x00\n      mstore\n      keccak256(0x00, 0x40)\n      0x00\n      swap2\n      pop\n      swap1\n      pop\n      dup1\n      0x00\n      add\n      sload\n      swap1\n      pop\n      dup2\n      jump\t// out\n        /* \"contracts/crowd-funding.sol\":311:337  CampaignState public state */\n    tag_97:\n      0x04\n      0x15\n      swap1\n      sload\n      swap1\n      0x0100\n      exp\n      swap1\n      div\n      0xff\n      and\n      dup2\n      jump\t// out\n        /* \"contracts/crowd-funding.sol\":3459:3536  function togglePause() external onlyOwner {\r... */\n    tag_101:\n        /* \"contracts/crowd-funding.sol\":688:693  owner */\n      0x04\n      0x00\n      swap1\n      sload\n      swap1\n      0x0100\n      exp\n      swap1\n      div\n      0xffffffffffffffffffffffffffffffffffffffff\n      and\n        /* \"contracts/crowd-funding.sol\":674:693  msg.sender == owner */\n      0xffffffffffffffffffffffffffffffffffffffff\n      and\n        /* \"contracts/crowd-funding.sol\":674:684  msg.sender */\n      caller\n        /* \"contracts/crowd-funding.sol\":674:693  msg.sender == owner */\n      0xffffffffffffffffffffffffffffffffffffffff\n      and\n      eq\n        /* \"contracts/crowd-funding.sol\":666:711  require(msg.sender == owner, \"Not the owner\") */\n      tag_210\n      jumpi\n      mload(0x40)\n      0x08c379a000000000000000000000000000000000000000000000000000000000\n      dup2\n      mstore\n      0x04\n      add\n      tag_211\n      swap1\n      tag_133\n      jump\t// in\n    tag_211:\n      mload(0x40)\n      dup1\n      swap2\n      sub\n      swap1\n      revert\n    tag_210:\n        /* \"contracts/crowd-funding.sol\":3522:3528  paused */\n      0x04\n      0x14\n      swap1\n      sload\n      swap1\n      0x0100\n      exp\n      swap1\n      div\n      0xff\n      and\n        /* \"contracts/crowd-funding.sol\":3521:3528  !paused */\n      iszero\n        /* \"contracts/crowd-funding.sol\":3512:3518  paused */\n      0x04\n      0x14\n        /* \"contracts/crowd-funding.sol\":3512:3528  paused = !paused */\n      0x0100\n      exp\n      dup2\n      sload\n      dup2\n      0xff\n      mul\n      not\n      and\n      swap1\n      dup4\n      iszero\n      iszero\n      mul\n      or\n      swap1\n      sstore\n      pop\n        /* \"contracts/crowd-funding.sol\":3459:3536  function togglePause() external onlyOwner {\r... */\n      jump\t// out\n        /* \"contracts/crowd-funding.sol\":1648:2072  function fund(uint256 _tierIndex) external payable notPaused campaignOpen {\r... */\n    tag_104:\n        /* \"contracts/crowd-funding.sol\":903:909  paused */\n      0x04\n      0x14\n      swap1\n      sload\n      swap1\n      0x0100\n      exp\n      swap1\n      div\n      0xff\n      and\n        /* \"contracts/crowd-funding.sol\":902:909  !paused */\n      iszero\n        /* \"contracts/crowd-funding.sol\":894:932  require(!paused, \"Contract is paused\") */\n      tag_214\n      jumpi\n      mload(0x40)\n      0x08c379a000000000000000000000000000000000000000000000000000000000\n      dup2\n      mstore\n      0x04\n      add\n      tag_215\n      swap1\n      tag_216\n      jump\t// in\n    tag_215:\n      mload(0x40)\n      dup1\n      swap2\n      sub\n      swap1\n      revert\n    tag_214:\n        /* \"contracts/crowd-funding.sol\":789:809  CampaignState.Active */\n      0x00\n        /* \"contracts/crowd-funding.sol\":780:809  state == CampaignState.Active */\n      0x02\n      dup2\n      gt\n      iszero\n      tag_218\n      jumpi\n      mstore(0x00, 0x4e487b7100000000000000000000000000000000000000000000000000000000)\n      mstore(0x04, 0x21)\n      revert(0x00, 0x24)\n    tag_218:\n        /* \"contracts/crowd-funding.sol\":780:785  state */\n      0x04\n      0x15\n      swap1\n      sload\n      swap1\n      0x0100\n      exp\n      swap1\n      div\n      0xff\n      and\n        /* \"contracts/crowd-funding.sol\":780:809  state == CampaignState.Active */\n      0x02\n      dup2\n      gt\n      iszero\n      tag_219\n      jumpi\n      mstore(0x00, 0x4e487b7100000000000000000000000000000000000000000000000000000000)\n      mstore(0x04, 0x21)\n      revert(0x00, 0x24)\n    tag_219:\n      eq\n        /* \"contracts/crowd-funding.sol\":772:836  require(state == CampaignState.Active, \"Campaign is not active\") */\n      tag_220\n      jumpi\n      mload(0x40)\n      0x08c379a000000000000000000000000000000000000000000000000000000000\n      dup2\n      mstore\n      0x04\n      add\n      tag_221\n      swap1\n      tag_139\n      jump\t// in\n    tag_221:\n      mload(0x40)\n      dup1\n      swap2\n      sub\n      swap1\n      revert\n    tag_220:\n        /* \"contracts/crowd-funding.sol\":1754:1759  tiers */\n      0x05\n        /* \"contracts/crowd-funding.sol\":1754:1766  tiers.length */\n      dup1\n      sload\n      swap1\n      pop\n        /* \"contracts/crowd-funding.sol\":1741:1751  _tierIndex */\n      dup2\n        /* \"contracts/crowd-funding.sol\":1741:1766  _tierIndex < tiers.length */\n      lt\n        /* \"contracts/crowd-funding.sol\":1733:1783  require(_tierIndex < tiers.length, \"Invalid tier\") */\n      tag_223\n      jumpi\n      mload(0x40)\n      0x08c379a000000000000000000000000000000000000000000000000000000000\n      dup2\n      mstore\n      0x04\n      add\n      tag_224\n      swap1\n      tag_225\n      jump\t// in\n    tag_224:\n      mload(0x40)\n      dup1\n      swap2\n      sub\n      swap1\n      revert\n    tag_223:\n        /* \"contracts/crowd-funding.sol\":1815:1820  tiers */\n      0x05\n        /* \"contracts/crowd-funding.sol\":1821:1831  _tierIndex */\n      dup2\n        /* \"contracts/crowd-funding.sol\":1815:1832  tiers[_tierIndex] */\n      dup2\n      sload\n      dup2\n      lt\n      tag_226\n      jumpi\n      mstore(0x00, 0x4e487b7100000000000000000000000000000000000000000000000000000000)\n      mstore(0x04, 0x32)\n      revert(0x00, 0x24)\n    tag_226:\n      swap1\n      0x00\n      mstore\n      keccak256(0x00, 0x20)\n      swap1\n      0x03\n      mul\n      add\n        /* \"contracts/crowd-funding.sol\":1815:1839  tiers[_tierIndex].amount */\n      0x01\n      add\n      sload\n        /* \"contracts/crowd-funding.sol\":1802:1811  msg.value */\n      callvalue\n        /* \"contracts/crowd-funding.sol\":1802:1839  msg.value == tiers[_tierIndex].amount */\n      eq\n        /* \"contracts/crowd-funding.sol\":1794:1860  require(msg.value == tiers[_tierIndex].amount, \"Incorrect amount\") */\n      tag_228\n      jumpi\n      mload(0x40)\n      0x08c379a000000000000000000000000000000000000000000000000000000000\n      dup2\n      mstore\n      0x04\n      add\n      tag_229\n      swap1\n      tag_230\n      jump\t// in\n    tag_229:\n      mload(0x40)\n      dup1\n      swap2\n      sub\n      swap1\n      revert\n    tag_228:\n        /* \"contracts/crowd-funding.sol\":1873:1878  tiers */\n      0x05\n        /* \"contracts/crowd-funding.sol\":1879:1889  _tierIndex */\n      dup2\n        /* \"contracts/crowd-funding.sol\":1873:1890  tiers[_tierIndex] */\n      dup2\n      sload\n      dup2\n      lt\n      tag_231\n      jumpi\n      mstore(0x00, 0x4e487b7100000000000000000000000000000000000000000000000000000000)\n      mstore(0x04, 0x32)\n      revert(0x00, 0x24)\n    tag_231:\n      swap1\n      0x00\n      mstore\n      keccak256(0x00, 0x20)\n      swap1\n      0x03\n      mul\n      add\n        /* \"contracts/crowd-funding.sol\":1873:1898  tiers[_tierIndex].backers */\n      0x02\n      add\n      0x00\n        /* \"contracts/crowd-funding.sol\":1873:1900  tiers[_tierIndex].backers++ */\n      dup2\n      sload\n      dup1\n      swap3\n      swap2\n      swap1\n      tag_233\n      swap1\n      tag_234\n      jump\t// in\n    tag_233:\n      swap2\n      swap1\n      pop\n      sstore\n      pop\n        /* \"contracts/crowd-funding.sol\":1952:1961  msg.value */\n      callvalue\n        /* \"contracts/crowd-funding.sol\":1911:1918  backers */\n      0x06\n        /* \"contracts/crowd-funding.sol\":1911:1930  backers[msg.sender] */\n      0x00\n        /* \"contracts/crowd-funding.sol\":1919:1929  msg.sender */\n      caller\n        /* \"contracts/crowd-funding.sol\":1911:1930  backers[msg.sender] */\n      0xffffffffffffffffffffffffffffffffffffffff\n      and\n      0xffffffffffffffffffffffffffffffffffffffff\n      and\n      dup2\n      mstore\n      0x20\n      add\n      swap1\n      dup2\n      mstore\n      0x20\n      add\n      0x00\n      keccak256\n        /* \"contracts/crowd-funding.sol\":1911:1948  backers[msg.sender].totalContribution */\n      0x00\n      add\n      0x00\n        /* \"contracts/crowd-funding.sol\":1911:1961  backers[msg.sender].totalContribution += msg.value */\n      dup3\n      dup3\n      sload\n      tag_235\n      swap2\n      swap1\n      tag_144\n      jump\t// in\n    tag_235:\n      swap3\n      pop\n      pop\n      dup2\n      swap1\n      sstore\n      pop\n        /* \"contracts/crowd-funding.sol\":2018:2022  true */\n      0x01\n        /* \"contracts/crowd-funding.sol\":1972:1979  backers */\n      0x06\n        /* \"contracts/crowd-funding.sol\":1972:1991  backers[msg.sender] */\n      0x00\n        /* \"contracts/crowd-funding.sol\":1980:1990  msg.sender */\n      caller\n        /* \"contracts/crowd-funding.sol\":1972:1991  backers[msg.sender] */\n      0xffffffffffffffffffffffffffffffffffffffff\n      and\n      0xffffffffffffffffffffffffffffffffffffffff\n      and\n      dup2\n      mstore\n      0x20\n      add\n      swap1\n      dup2\n      mstore\n      0x20\n      add\n      0x00\n      keccak256\n        /* \"contracts/crowd-funding.sol\":1972:2003  backers[msg.sender].fundedTiers */\n      0x01\n      add\n        /* \"contracts/crowd-funding.sol\":1972:2015  backers[msg.sender].fundedTiers[_tierIndex] */\n      0x00\n        /* \"contracts/crowd-funding.sol\":2004:2014  _tierIndex */\n      dup4\n        /* \"contracts/crowd-funding.sol\":1972:2015  backers[msg.sender].fundedTiers[_tierIndex] */\n      dup2\n      mstore\n      0x20\n      add\n      swap1\n      dup2\n      mstore\n      0x20\n      add\n      0x00\n      keccak256\n      0x00\n        /* \"contracts/crowd-funding.sol\":1972:2022  backers[msg.sender].fundedTiers[_tierIndex] = true */\n      0x0100\n      exp\n      dup2\n      sload\n      dup2\n      0xff\n      mul\n      not\n      and\n      swap1\n      dup4\n      iszero\n      iszero\n      mul\n      or\n      swap1\n      sstore\n      pop\n        /* \"contracts/crowd-funding.sol\":2035:2064  checkAndUpdateCampaignState() */\n      tag_236\n        /* \"contracts/crowd-funding.sol\":2035:2062  checkAndUpdateCampaignState */\n      tag_150\n        /* \"contracts/crowd-funding.sol\":2035:2064  checkAndUpdateCampaignState() */\n      jump\t// in\n    tag_236:\n        /* \"contracts/crowd-funding.sol\":1648:2072  function fund(uint256 _tierIndex) external payable notPaused campaignOpen {\r... */\n      pop\n      jump\t// out\n        /* \"contracts/crowd-funding.sol\":3362:3451  function getTiers() external view returns (Tier[] memory) {\r... */\n    tag_107:\n        /* \"contracts/crowd-funding.sol\":3405:3418  Tier[] memory */\n      0x60\n        /* \"contracts/crowd-funding.sol\":3438:3443  tiers */\n      0x05\n        /* \"contracts/crowd-funding.sol\":3431:3443  return tiers */\n      dup1\n      sload\n      dup1\n      0x20\n      mul\n      0x20\n      add\n      mload(0x40)\n      swap1\n      dup2\n      add\n      0x40\n      mstore\n      dup1\n      swap3\n      swap2\n      swap1\n      dup2\n      dup2\n      mstore\n      0x20\n      add\n      0x00\n      swap1\n    tag_238:\n      dup3\n      dup3\n      lt\n      iszero\n      tag_239\n      jumpi\n      dup4\n      dup3\n      swap1\n      0x00\n      mstore\n      keccak256(0x00, 0x20)\n      swap1\n      0x03\n      mul\n      add\n      mload(0x40)\n      dup1\n      0x60\n      add\n      0x40\n      mstore\n      swap1\n      dup2\n      0x00\n      dup3\n      add\n      dup1\n      sload\n      tag_241\n      swap1\n      tag_113\n      jump\t// in\n    tag_241:\n      dup1\n      0x1f\n      add\n      0x20\n      dup1\n      swap2\n      div\n      mul\n      0x20\n      add\n      mload(0x40)\n      swap1\n      dup2\n      add\n      0x40\n      mstore\n      dup1\n      swap3\n      swap2\n      swap1\n      dup2\n      dup2\n      mstore\n      0x20\n      add\n      dup3\n      dup1\n      sload\n      tag_242\n      swap1\n      tag_113\n      jump\t// in\n    tag_242:\n      dup1\n      iszero\n      tag_243\n      jumpi\n      dup1\n      0x1f\n      lt\n      tag_244\n      jumpi\n      0x0100\n      dup1\n      dup4\n      sload\n      div\n      mul\n      dup4\n      mstore\n      swap2\n      0x20\n      add\n      swap2\n      jump(tag_243)\n    tag_244:\n      dup3\n      add\n      swap2\n      swap1\n      0x00\n      mstore\n      keccak256(0x00, 0x20)\n      swap1\n    tag_245:\n      dup2\n      sload\n      dup2\n      mstore\n      swap1\n      0x01\n      add\n      swap1\n      0x20\n      add\n      dup1\n      dup4\n      gt\n      tag_245\n      jumpi\n      dup3\n      swap1\n      sub\n      0x1f\n      and\n      dup3\n      add\n      swap2\n    tag_243:\n      pop\n      pop\n      pop\n      pop\n      pop\n      dup2\n      mstore\n      0x20\n      add\n      0x01\n      dup3\n      add\n      sload\n      dup2\n      mstore\n      0x20\n      add\n      0x02\n      dup3\n      add\n      sload\n      dup2\n      mstore\n      pop\n      pop\n      dup2\n      mstore\n      0x20\n      add\n      swap1\n      0x01\n      add\n      swap1\n      jump(tag_238)\n    tag_239:\n      pop\n      pop\n      pop\n      pop\n      swap1\n      pop\n        /* \"contracts/crowd-funding.sol\":3362:3451  function getTiers() external view returns (Tier[] memory) {\r... */\n      swap1\n      jump\t// out\n        /* \"contracts/crowd-funding.sol\":1358:1640  function checkAndUpdateCampaignState() internal {\r... */\n    tag_150:\n        /* \"contracts/crowd-funding.sol\":1430:1450  CampaignState.Active */\n      0x00\n        /* \"contracts/crowd-funding.sol\":1421:1450  state == CampaignState.Active */\n      0x02\n      dup2\n      gt\n      iszero\n      tag_247\n      jumpi\n      mstore(0x00, 0x4e487b7100000000000000000000000000000000000000000000000000000000)\n      mstore(0x04, 0x21)\n      revert(0x00, 0x24)\n    tag_247:\n        /* \"contracts/crowd-funding.sol\":1421:1426  state */\n      0x04\n      0x15\n      swap1\n      sload\n      swap1\n      0x0100\n      exp\n      swap1\n      div\n      0xff\n      and\n        /* \"contracts/crowd-funding.sol\":1421:1450  state == CampaignState.Active */\n      0x02\n      dup2\n      gt\n      iszero\n      tag_248\n      jumpi\n      mstore(0x00, 0x4e487b7100000000000000000000000000000000000000000000000000000000)\n      mstore(0x04, 0x21)\n      revert(0x00, 0x24)\n    tag_248:\n      eq\n        /* \"contracts/crowd-funding.sol\":1417:1633  if (state == CampaignState.Active) {\r... */\n      iszero\n      tag_249\n      jumpi\n        /* \"contracts/crowd-funding.sol\":1490:1498  deadline */\n      sload(0x03)\n        /* \"contracts/crowd-funding.sol\":1471:1486  block.timestamp */\n      timestamp\n        /* \"contracts/crowd-funding.sol\":1471:1498  block.timestamp >= deadline */\n      lt\n        /* \"contracts/crowd-funding.sol\":1467:1622  if (block.timestamp >= deadline) {\r... */\n      tag_250\n      jumpi\n        /* \"contracts/crowd-funding.sol\":1552:1556  goal */\n      sload(0x02)\n        /* \"contracts/crowd-funding.sol\":1527:1548  address(this).balance */\n      selfbalance\n        /* \"contracts/crowd-funding.sol\":1527:1556  address(this).balance >= goal */\n      lt\n      iszero\n        /* \"contracts/crowd-funding.sol\":1527:1606  address(this).balance >= goal ? CampaignState.Successful : CampaignState.Failed */\n      tag_251\n      jumpi\n        /* \"contracts/crowd-funding.sol\":1586:1606  CampaignState.Failed */\n      0x02\n        /* \"contracts/crowd-funding.sol\":1527:1606  address(this).balance >= goal ? CampaignState.Successful : CampaignState.Failed */\n      jump(tag_252)\n    tag_251:\n        /* \"contracts/crowd-funding.sol\":1559:1583  CampaignState.Successful */\n      0x01\n        /* \"contracts/crowd-funding.sol\":1527:1606  address(this).balance >= goal ? CampaignState.Successful : CampaignState.Failed */\n    tag_252:\n        /* \"contracts/crowd-funding.sol\":1519:1524  state */\n      0x04\n      0x15\n        /* \"contracts/crowd-funding.sol\":1519:1606  state = address(this).balance >= goal ? CampaignState.Successful : CampaignState.Failed */\n      0x0100\n      exp\n      dup2\n      sload\n      dup2\n      0xff\n      mul\n      not\n      and\n      swap1\n      dup4\n      0x02\n      dup2\n      gt\n      iszero\n      tag_253\n      jumpi\n      mstore(0x00, 0x4e487b7100000000000000000000000000000000000000000000000000000000)\n      mstore(0x04, 0x21)\n      revert(0x00, 0x24)\n    tag_253:\n      mul\n      or\n      swap1\n      sstore\n      pop\n        /* \"contracts/crowd-funding.sol\":1467:1622  if (block.timestamp >= deadline) {\r... */\n    tag_250:\n        /* \"contracts/crowd-funding.sol\":1417:1633  if (state == CampaignState.Active) {\r... */\n    tag_249:\n        /* \"contracts/crowd-funding.sol\":1358:1640  function checkAndUpdateCampaignState() internal {\r... */\n      jump\t// out\n    tag_193:\n      dup3\n      dup1\n      sload\n      tag_254\n      swap1\n      tag_113\n      jump\t// in\n    tag_254:\n      swap1\n      0x00\n      mstore\n      keccak256(0x00, 0x20)\n      swap1\n      0x1f\n      add\n      0x20\n      swap1\n      div\n      dup2\n      add\n      swap3\n      dup3\n      tag_256\n      jumpi\n      0x00\n      dup6\n      sstore\n      jump(tag_255)\n    tag_256:\n      dup3\n      0x1f\n      lt\n      tag_257\n      jumpi\n      dup1\n      sload\n      dup6\n      sstore\n      jump(tag_255)\n    tag_257:\n      dup3\n      dup1\n      add\n      0x01\n      add\n      dup6\n      sstore\n      dup3\n      iszero\n      tag_255\n      jumpi\n      0x00\n      mstore\n      keccak256(0x00, 0x20)\n      swap2\n      0x1f\n      add\n      0x20\n      swap1\n      div\n      dup3\n      add\n    tag_258:\n      dup3\n      dup2\n      gt\n      iszero\n      tag_259\n      jumpi\n      dup3\n      sload\n      dup3\n      sstore\n      swap2\n      0x01\n      add\n      swap2\n      swap1\n      0x01\n      add\n      swap1\n      jump(tag_258)\n    tag_259:\n    tag_255:\n      pop\n      swap1\n      pop\n      tag_260\n      swap2\n      swap1\n      tag_261\n      jump\t// in\n    tag_260:\n      pop\n      swap1\n      jump\t// out\n    tag_197:\n      pop\n      dup1\n      sload\n      tag_262\n      swap1\n      tag_113\n      jump\t// in\n    tag_262:\n      0x00\n      dup3\n      sstore\n      dup1\n      0x1f\n      lt\n      tag_264\n      jumpi\n      pop\n      jump(tag_263)\n    tag_264:\n      0x1f\n      add\n      0x20\n      swap1\n      div\n      swap1\n      0x00\n      mstore\n      keccak256(0x00, 0x20)\n      swap1\n      dup2\n      add\n      swap1\n      tag_265\n      swap2\n      swap1\n      tag_261\n      jump\t// in\n    tag_265:\n    tag_263:\n      pop\n      jump\t// out\n    tag_208:\n      dup3\n      dup1\n      sload\n      tag_266\n      swap1\n      tag_113\n      jump\t// in\n    tag_266:\n      swap1\n      0x00\n      mstore\n      keccak256(0x00, 0x20)\n      swap1\n      0x1f\n      add\n      0x20\n      swap1\n      div\n      dup2\n      add\n      swap3\n      dup3\n      tag_268\n      jumpi\n      0x00\n      dup6\n      sstore\n      jump(tag_267)\n    tag_268:\n      dup3\n      0x1f\n      lt\n      tag_269\n      jumpi\n      dup1\n      mload\n      not(0xff)\n      and\n      dup4\n      dup1\n      add\n      or\n      dup6\n      sstore\n      jump(tag_267)\n    tag_269:\n      dup3\n      dup1\n      add\n      0x01\n      add\n      dup6\n      sstore\n      dup3\n      iszero\n      tag_267\n      jumpi\n      swap2\n      dup3\n      add\n    tag_270:\n      dup3\n      dup2\n      gt\n      iszero\n      tag_271\n      jumpi\n      dup3\n      mload\n      dup3\n      sstore\n      swap2\n      0x20\n      add\n      swap2\n      swap1\n      0x01\n      add\n      swap1\n      jump(tag_270)\n    tag_271:\n    tag_267:\n      pop\n      swap1\n      pop\n      tag_272\n      swap2\n      swap1\n      tag_261\n      jump\t// in\n    tag_272:\n      pop\n      swap1\n      jump\t// out\n    tag_261:\n    tag_273:\n      dup1\n      dup3\n      gt\n      iszero\n      tag_274\n      jumpi\n      0x00\n      dup2\n      0x00\n      swap1\n      sstore\n      pop\n      0x01\n      add\n      jump(tag_273)\n    tag_274:\n      pop\n      swap1\n      jump\t// out\n        /* \"#utility.yul\":7:352   */\n    tag_276:\n      0x00\n        /* \"#utility.yul\":110:176   */\n      tag_278\n        /* \"#utility.yul\":126:175   */\n      tag_279\n        /* \"#utility.yul\":168:174   */\n      dup5\n        /* \"#utility.yul\":126:175   */\n      tag_280\n      jump\t// in\n    tag_279:\n        /* \"#utility.yul\":110:176   */\n      tag_281\n      jump\t// in\n    tag_278:\n        /* \"#utility.yul\":101:176   */\n      swap1\n      pop\n        /* \"#utility.yul\":199:205   */\n      dup3\n        /* \"#utility.yul\":192:197   */\n      dup2\n        /* \"#utility.yul\":185:206   */\n      mstore\n        /* \"#utility.yul\":237:241   */\n      0x20\n        /* \"#utility.yul\":230:235   */\n      dup2\n        /* \"#utility.yul\":226:242   */\n      add\n        /* \"#utility.yul\":275:278   */\n      dup5\n        /* \"#utility.yul\":266:272   */\n      dup5\n        /* \"#utility.yul\":261:264   */\n      dup5\n        /* \"#utility.yul\":257:273   */\n      add\n        /* \"#utility.yul\":254:279   */\n      gt\n        /* \"#utility.yul\":251:253   */\n      iszero\n      tag_282\n      jumpi\n        /* \"#utility.yul\":292:293   */\n      0x00\n        /* \"#utility.yul\":289:290   */\n      dup1\n        /* \"#utility.yul\":282:294   */\n      revert\n        /* \"#utility.yul\":251:253   */\n    tag_282:\n        /* \"#utility.yul\":305:346   */\n      tag_283\n        /* \"#utility.yul\":339:345   */\n      dup5\n        /* \"#utility.yul\":334:337   */\n      dup3\n        /* \"#utility.yul\":329:332   */\n      dup6\n        /* \"#utility.yul\":305:346   */\n      tag_284\n      jump\t// in\n    tag_283:\n        /* \"#utility.yul\":91:352   */\n      pop\n      swap4\n      swap3\n      pop\n      pop\n      pop\n      jump\t// out\n        /* \"#utility.yul\":358:497   */\n    tag_285:\n      0x00\n        /* \"#utility.yul\":442:448   */\n      dup2\n        /* \"#utility.yul\":429:449   */\n      calldataload\n        /* \"#utility.yul\":420:449   */\n      swap1\n      pop\n        /* \"#utility.yul\":458:491   */\n      tag_287\n        /* \"#utility.yul\":485:490   */\n      dup2\n        /* \"#utility.yul\":458:491   */\n      tag_288\n      jump\t// in\n    tag_287:\n        /* \"#utility.yul\":410:497   */\n      swap3\n      swap2\n      pop\n      pop\n      jump\t// out\n        /* \"#utility.yul\":517:790   */\n    tag_289:\n      0x00\n        /* \"#utility.yul\":622:625   */\n      dup3\n        /* \"#utility.yul\":615:619   */\n      0x1f\n        /* \"#utility.yul\":607:613   */\n      dup4\n        /* \"#utility.yul\":603:620   */\n      add\n        /* \"#utility.yul\":599:626   */\n      slt\n        /* \"#utility.yul\":589:591   */\n      tag_291\n      jumpi\n        /* \"#utility.yul\":640:641   */\n      0x00\n        /* \"#utility.yul\":637:638   */\n      dup1\n        /* \"#utility.yul\":630:642   */\n      revert\n        /* \"#utility.yul\":589:591   */\n    tag_291:\n        /* \"#utility.yul\":680:686   */\n      dup2\n        /* \"#utility.yul\":667:687   */\n      calldataload\n        /* \"#utility.yul\":705:784   */\n      tag_292\n        /* \"#utility.yul\":780:783   */\n      dup5\n        /* \"#utility.yul\":772:778   */\n      dup3\n        /* \"#utility.yul\":765:769   */\n      0x20\n        /* \"#utility.yul\":757:763   */\n      dup7\n        /* \"#utility.yul\":753:770   */\n      add\n        /* \"#utility.yul\":705:784   */\n      tag_276\n      jump\t// in\n    tag_292:\n        /* \"#utility.yul\":696:784   */\n      swap2\n      pop\n        /* \"#utility.yul\":579:790   */\n      pop\n      swap3\n      swap2\n      pop\n      pop\n      jump\t// out\n        /* \"#utility.yul\":796:935   */\n    tag_293:\n      0x00\n        /* \"#utility.yul\":880:886   */\n      dup2\n        /* \"#utility.yul\":867:887   */\n      calldataload\n        /* \"#utility.yul\":858:887   */\n      swap1\n      pop\n        /* \"#utility.yul\":896:929   */\n      tag_295\n        /* \"#utility.yul\":923:928   */\n      dup2\n        /* \"#utility.yul\":896:929   */\n      tag_296\n      jump\t// in\n    tag_295:\n        /* \"#utility.yul\":848:935   */\n      swap3\n      swap2\n      pop\n      pop\n      jump\t// out\n        /* \"#utility.yul\":941:1203   */\n    tag_92:\n      0x00\n        /* \"#utility.yul\":1049:1051   */\n      0x20\n        /* \"#utility.yul\":1037:1046   */\n      dup3\n        /* \"#utility.yul\":1028:1035   */\n      dup5\n        /* \"#utility.yul\":1024:1047   */\n      sub\n        /* \"#utility.yul\":1020:1052   */\n      slt\n        /* \"#utility.yul\":1017:1019   */\n      iszero\n      tag_298\n      jumpi\n        /* \"#utility.yul\":1065:1066   */\n      0x00\n        /* \"#utility.yul\":1062:1063   */\n      dup1\n        /* \"#utility.yul\":1055:1067   */\n      revert\n        /* \"#utility.yul\":1017:1019   */\n    tag_298:\n        /* \"#utility.yul\":1108:1109   */\n      0x00\n        /* \"#utility.yul\":1133:1186   */\n      tag_299\n        /* \"#utility.yul\":1178:1185   */\n      dup5\n        /* \"#utility.yul\":1169:1175   */\n      dup3\n        /* \"#utility.yul\":1158:1167   */\n      dup6\n        /* \"#utility.yul\":1154:1176   */\n      add\n        /* \"#utility.yul\":1133:1186   */\n      tag_285\n      jump\t// in\n    tag_299:\n        /* \"#utility.yul\":1123:1186   */\n      swap2\n      pop\n        /* \"#utility.yul\":1079:1196   */\n      pop\n        /* \"#utility.yul\":1007:1203   */\n      swap3\n      swap2\n      pop\n      pop\n      jump\t// out\n        /* \"#utility.yul\":1209:1616   */\n    tag_76:\n      0x00\n      dup1\n        /* \"#utility.yul\":1334:1336   */\n      0x40\n        /* \"#utility.yul\":1322:1331   */\n      dup4\n        /* \"#utility.yul\":1313:1320   */\n      dup6\n        /* \"#utility.yul\":1309:1332   */\n      sub\n        /* \"#utility.yul\":1305:1337   */\n      slt\n        /* \"#utility.yul\":1302:1304   */\n      iszero\n      tag_301\n      jumpi\n        /* \"#utility.yul\":1350:1351   */\n      0x00\n        /* \"#utility.yul\":1347:1348   */\n      dup1\n        /* \"#utility.yul\":1340:1352   */\n      revert\n        /* \"#utility.yul\":1302:1304   */\n    tag_301:\n        /* \"#utility.yul\":1393:1394   */\n      0x00\n        /* \"#utility.yul\":1418:1471   */\n      tag_302\n        /* \"#utility.yul\":1463:1470   */\n      dup6\n        /* \"#utility.yul\":1454:1460   */\n      dup3\n        /* \"#utility.yul\":1443:1452   */\n      dup7\n        /* \"#utility.yul\":1439:1461   */\n      add\n        /* \"#utility.yul\":1418:1471   */\n      tag_285\n      jump\t// in\n    tag_302:\n        /* \"#utility.yul\":1408:1471   */\n      swap3\n      pop\n        /* \"#utility.yul\":1364:1481   */\n      pop\n        /* \"#utility.yul\":1520:1522   */\n      0x20\n        /* \"#utility.yul\":1546:1599   */\n      tag_303\n        /* \"#utility.yul\":1591:1598   */\n      dup6\n        /* \"#utility.yul\":1582:1588   */\n      dup3\n        /* \"#utility.yul\":1571:1580   */\n      dup7\n        /* \"#utility.yul\":1567:1589   */\n      add\n        /* \"#utility.yul\":1546:1599   */\n      tag_293\n      jump\t// in\n    tag_303:\n        /* \"#utility.yul\":1536:1599   */\n      swap2\n      pop\n        /* \"#utility.yul\":1491:1609   */\n      pop\n        /* \"#utility.yul\":1292:1616   */\n      swap3\n      pop\n      swap3\n      swap1\n      pop\n      jump\t// out\n        /* \"#utility.yul\":1622:2142   */\n    tag_87:\n      0x00\n      dup1\n        /* \"#utility.yul\":1757:1759   */\n      0x40\n        /* \"#utility.yul\":1745:1754   */\n      dup4\n        /* \"#utility.yul\":1736:1743   */\n      dup6\n        /* \"#utility.yul\":1732:1755   */\n      sub\n        /* \"#utility.yul\":1728:1760   */\n      slt\n        /* \"#utility.yul\":1725:1727   */\n      iszero\n      tag_305\n      jumpi\n        /* \"#utility.yul\":1773:1774   */\n      0x00\n        /* \"#utility.yul\":1770:1771   */\n      dup1\n        /* \"#utility.yul\":1763:1775   */\n      revert\n        /* \"#utility.yul\":1725:1727   */\n    tag_305:\n        /* \"#utility.yul\":1844:1845   */\n      0x00\n        /* \"#utility.yul\":1833:1842   */\n      dup4\n        /* \"#utility.yul\":1829:1846   */\n      add\n        /* \"#utility.yul\":1816:1847   */\n      calldataload\n        /* \"#utility.yul\":1874:1892   */\n      0xffffffffffffffff\n        /* \"#utility.yul\":1866:1872   */\n      dup2\n        /* \"#utility.yul\":1863:1893   */\n      gt\n        /* \"#utility.yul\":1860:1862   */\n      iszero\n      tag_306\n      jumpi\n        /* \"#utility.yul\":1906:1907   */\n      0x00\n        /* \"#utility.yul\":1903:1904   */\n      dup1\n        /* \"#utility.yul\":1896:1908   */\n      revert\n        /* \"#utility.yul\":1860:1862   */\n    tag_306:\n        /* \"#utility.yul\":1934:1997   */\n      tag_307\n        /* \"#utility.yul\":1989:1996   */\n      dup6\n        /* \"#utility.yul\":1980:1986   */\n      dup3\n        /* \"#utility.yul\":1969:1978   */\n      dup7\n        /* \"#utility.yul\":1965:1987   */\n      add\n        /* \"#utility.yul\":1934:1997   */\n      tag_289\n      jump\t// in\n    tag_307:\n        /* \"#utility.yul\":1924:1997   */\n      swap3\n      pop\n        /* \"#utility.yul\":1787:2007   */\n      pop\n        /* \"#utility.yul\":2046:2048   */\n      0x20\n        /* \"#utility.yul\":2072:2125   */\n      tag_308\n        /* \"#utility.yul\":2117:2124   */\n      dup6\n        /* \"#utility.yul\":2108:2114   */\n      dup3\n        /* \"#utility.yul\":2097:2106   */\n      dup7\n        /* \"#utility.yul\":2093:2115   */\n      add\n        /* \"#utility.yul\":2072:2125   */\n      tag_293\n      jump\t// in\n    tag_308:\n        /* \"#utility.yul\":2062:2125   */\n      swap2\n      pop\n        /* \"#utility.yul\":2017:2135   */\n      pop\n        /* \"#utility.yul\":1715:2142   */\n      swap3\n      pop\n      swap3\n      swap1\n      pop\n      jump\t// out\n        /* \"#utility.yul\":2148:2410   */\n    tag_27:\n      0x00\n        /* \"#utility.yul\":2256:2258   */\n      0x20\n        /* \"#utility.yul\":2244:2253   */\n      dup3\n        /* \"#utility.yul\":2235:2242   */\n      dup5\n        /* \"#utility.yul\":2231:2254   */\n      sub\n        /* \"#utility.yul\":2227:2259   */\n      slt\n        /* \"#utility.yul\":2224:2226   */\n      iszero\n      tag_310\n      jumpi\n        /* \"#utility.yul\":2272:2273   */\n      0x00\n        /* \"#utility.yul\":2269:2270   */\n      dup1\n        /* \"#utility.yul\":2262:2274   */\n      revert\n        /* \"#utility.yul\":2224:2226   */\n    tag_310:\n        /* \"#utility.yul\":2315:2316   */\n      0x00\n        /* \"#utility.yul\":2340:2393   */\n      tag_311\n        /* \"#utility.yul\":2385:2392   */\n      dup5\n        /* \"#utility.yul\":2376:2382   */\n      dup3\n        /* \"#utility.yul\":2365:2374   */\n      dup6\n        /* \"#utility.yul\":2361:2383   */\n      add\n        /* \"#utility.yul\":2340:2393   */\n      tag_293\n      jump\t// in\n    tag_311:\n        /* \"#utility.yul\":2330:2393   */\n      swap2\n      pop\n        /* \"#utility.yul\":2286:2403   */\n      pop\n        /* \"#utility.yul\":2214:2410   */\n      swap3\n      swap2\n      pop\n      pop\n      jump\t// out\n        /* \"#utility.yul\":2416:2652   */\n    tag_312:\n      0x00\n        /* \"#utility.yul\":2560:2646   */\n      tag_314\n        /* \"#utility.yul\":2642:2645   */\n      dup4\n        /* \"#utility.yul\":2634:2640   */\n      dup4\n        /* \"#utility.yul\":2560:2646   */\n      tag_315\n      jump\t// in\n    tag_314:\n        /* \"#utility.yul\":2546:2646   */\n      swap1\n      pop\n        /* \"#utility.yul\":2536:2652   */\n      swap3\n      swap2\n      pop\n      pop\n      jump\t// out\n        /* \"#utility.yul\":2658:2776   */\n    tag_316:\n        /* \"#utility.yul\":2745:2769   */\n      tag_318\n        /* \"#utility.yul\":2763:2768   */\n      dup2\n        /* \"#utility.yul\":2745:2769   */\n      tag_319\n      jump\t// in\n    tag_318:\n        /* \"#utility.yul\":2740:2743   */\n      dup3\n        /* \"#utility.yul\":2733:2770   */\n      mstore\n        /* \"#utility.yul\":2723:2776   */\n      pop\n      pop\n      jump\t// out\n        /* \"#utility.yul\":2846:3917   */\n    tag_320:\n      0x00\n        /* \"#utility.yul\":3034:3108   */\n      tag_322\n        /* \"#utility.yul\":3102:3107   */\n      dup3\n        /* \"#utility.yul\":3034:3108   */\n      tag_323\n      jump\t// in\n    tag_322:\n        /* \"#utility.yul\":3124:3230   */\n      tag_324\n        /* \"#utility.yul\":3223:3229   */\n      dup2\n        /* \"#utility.yul\":3218:3221   */\n      dup6\n        /* \"#utility.yul\":3124:3230   */\n      tag_325\n      jump\t// in\n    tag_324:\n        /* \"#utility.yul\":3117:3230   */\n      swap4\n      pop\n        /* \"#utility.yul\":3256:3259   */\n      dup4\n        /* \"#utility.yul\":3301:3305   */\n      0x20\n        /* \"#utility.yul\":3293:3299   */\n      dup3\n        /* \"#utility.yul\":3289:3306   */\n      mul\n        /* \"#utility.yul\":3284:3287   */\n      dup6\n        /* \"#utility.yul\":3280:3307   */\n      add\n        /* \"#utility.yul\":3331:3407   */\n      tag_326\n        /* \"#utility.yul\":3401:3406   */\n      dup6\n        /* \"#utility.yul\":3331:3407   */\n      tag_327\n      jump\t// in\n    tag_326:\n        /* \"#utility.yul\":3430:3437   */\n      dup1\n        /* \"#utility.yul\":3461:3462   */\n      0x00\n        /* \"#utility.yul\":3446:3872   */\n    tag_328:\n        /* \"#utility.yul\":3471:3477   */\n      dup6\n        /* \"#utility.yul\":3468:3469   */\n      dup2\n        /* \"#utility.yul\":3465:3478   */\n      lt\n        /* \"#utility.yul\":3446:3872   */\n      iszero\n      tag_330\n      jumpi\n        /* \"#utility.yul\":3542:3551   */\n      dup5\n        /* \"#utility.yul\":3536:3540   */\n      dup5\n        /* \"#utility.yul\":3532:3552   */\n      sub\n        /* \"#utility.yul\":3527:3530   */\n      dup10\n        /* \"#utility.yul\":3520:3553   */\n      mstore\n        /* \"#utility.yul\":3593:3599   */\n      dup2\n        /* \"#utility.yul\":3587:3600   */\n      mload\n        /* \"#utility.yul\":3621:3725   */\n      tag_331\n        /* \"#utility.yul\":3720:3724   */\n      dup6\n        /* \"#utility.yul\":3705:3718   */\n      dup3\n        /* \"#utility.yul\":3621:3725   */\n      tag_312\n      jump\t// in\n    tag_331:\n        /* \"#utility.yul\":3613:3725   */\n      swap5\n      pop\n        /* \"#utility.yul\":3748:3828   */\n      tag_332\n        /* \"#utility.yul\":3821:3827   */\n      dup4\n        /* \"#utility.yul\":3748:3828   */\n      tag_333\n      jump\t// in\n    tag_332:\n        /* \"#utility.yul\":3738:3828   */\n      swap3\n      pop\n        /* \"#utility.yul\":3857:3861   */\n      0x20\n        /* \"#utility.yul\":3852:3855   */\n      dup11\n        /* \"#utility.yul\":3848:3862   */\n      add\n        /* \"#utility.yul\":3841:3862   */\n      swap10\n      pop\n        /* \"#utility.yul\":3506:3872   */\n      pop\n        /* \"#utility.yul\":3493:3494   */\n      0x01\n        /* \"#utility.yul\":3490:3491   */\n      dup2\n        /* \"#utility.yul\":3486:3495   */\n      add\n        /* \"#utility.yul\":3481:3495   */\n      swap1\n      pop\n        /* \"#utility.yul\":3446:3872   */\n      jump(tag_328)\n    tag_330:\n        /* \"#utility.yul\":3450:3464   */\n      pop\n        /* \"#utility.yul\":3888:3892   */\n      dup3\n        /* \"#utility.yul\":3881:3892   */\n      swap8\n      pop\n        /* \"#utility.yul\":3908:3911   */\n      dup8\n        /* \"#utility.yul\":3901:3911   */\n      swap6\n      pop\n        /* \"#utility.yul\":3010:3917   */\n      pop\n      pop\n      pop\n      pop\n      pop\n      swap3\n      swap2\n      pop\n      pop\n      jump\t// out\n        /* \"#utility.yul\":3923:4032   */\n    tag_334:\n        /* \"#utility.yul\":4004:4025   */\n      tag_336\n        /* \"#utility.yul\":4019:4024   */\n      dup2\n        /* \"#utility.yul\":4004:4025   */\n      tag_337\n      jump\t// in\n    tag_336:\n        /* \"#utility.yul\":3999:4002   */\n      dup3\n        /* \"#utility.yul\":3992:4026   */\n      mstore\n        /* \"#utility.yul\":3982:4032   */\n      pop\n      pop\n      jump\t// out\n        /* \"#utility.yul\":4038:4197   */\n    tag_338:\n        /* \"#utility.yul\":4139:4190   */\n      tag_340\n        /* \"#utility.yul\":4184:4189   */\n      dup2\n        /* \"#utility.yul\":4139:4190   */\n      tag_341\n      jump\t// in\n    tag_340:\n        /* \"#utility.yul\":4134:4137   */\n      dup3\n        /* \"#utility.yul\":4127:4191   */\n      mstore\n        /* \"#utility.yul\":4117:4197   */\n      pop\n      pop\n      jump\t// out\n        /* \"#utility.yul\":4203:4547   */\n    tag_342:\n      0x00\n        /* \"#utility.yul\":4309:4348   */\n      tag_344\n        /* \"#utility.yul\":4342:4347   */\n      dup3\n        /* \"#utility.yul\":4309:4348   */\n      tag_345\n      jump\t// in\n    tag_344:\n        /* \"#utility.yul\":4364:4425   */\n      tag_346\n        /* \"#utility.yul\":4418:4424   */\n      dup2\n        /* \"#utility.yul\":4413:4416   */\n      dup6\n        /* \"#utility.yul\":4364:4425   */\n      tag_347\n      jump\t// in\n    tag_346:\n        /* \"#utility.yul\":4357:4425   */\n      swap4\n      pop\n        /* \"#utility.yul\":4434:4486   */\n      tag_348\n        /* \"#utility.yul\":4479:4485   */\n      dup2\n        /* \"#utility.yul\":4474:4477   */\n      dup6\n        /* \"#utility.yul\":4467:4471   */\n      0x20\n        /* \"#utility.yul\":4460:4465   */\n      dup7\n        /* \"#utility.yul\":4456:4472   */\n      add\n        /* \"#utility.yul\":4434:4486   */\n      tag_349\n      jump\t// in\n    tag_348:\n        /* \"#utility.yul\":4511:4540   */\n      tag_350\n        /* \"#utility.yul\":4533:4539   */\n      dup2\n        /* \"#utility.yul\":4511:4540   */\n      tag_351\n      jump\t// in\n    tag_350:\n        /* \"#utility.yul\":4506:4509   */\n      dup5\n        /* \"#utility.yul\":4502:4541   */\n      add\n        /* \"#utility.yul\":4495:4541   */\n      swap2\n      pop\n        /* \"#utility.yul\":4285:4547   */\n      pop\n      swap3\n      swap2\n      pop\n      pop\n      jump\t// out\n        /* \"#utility.yul\":4553:4917   */\n    tag_352:\n      0x00\n        /* \"#utility.yul\":4669:4708   */\n      tag_354\n        /* \"#utility.yul\":4702:4707   */\n      dup3\n        /* \"#utility.yul\":4669:4708   */\n      tag_345\n      jump\t// in\n    tag_354:\n        /* \"#utility.yul\":4724:4795   */\n      tag_355\n        /* \"#utility.yul\":4788:4794   */\n      dup2\n        /* \"#utility.yul\":4783:4786   */\n      dup6\n        /* \"#utility.yul\":4724:4795   */\n      tag_356\n      jump\t// in\n    tag_355:\n        /* \"#utility.yul\":4717:4795   */\n      swap4\n      pop\n        /* \"#utility.yul\":4804:4856   */\n      tag_357\n        /* \"#utility.yul\":4849:4855   */\n      dup2\n        /* \"#utility.yul\":4844:4847   */\n      dup6\n        /* \"#utility.yul\":4837:4841   */\n      0x20\n        /* \"#utility.yul\":4830:4835   */\n      dup7\n        /* \"#utility.yul\":4826:4842   */\n      add\n        /* \"#utility.yul\":4804:4856   */\n      tag_349\n      jump\t// in\n    tag_357:\n        /* \"#utility.yul\":4881:4910   */\n      tag_358\n        /* \"#utility.yul\":4903:4909   */\n      dup2\n        /* \"#utility.yul\":4881:4910   */\n      tag_351\n      jump\t// in\n    tag_358:\n        /* \"#utility.yul\":4876:4879   */\n      dup5\n        /* \"#utility.yul\":4872:4911   */\n      add\n        /* \"#utility.yul\":4865:4911   */\n      swap2\n      pop\n        /* \"#utility.yul\":4645:4917   */\n      pop\n      swap3\n      swap2\n      pop\n      pop\n      jump\t// out\n        /* \"#utility.yul\":4923:5289   */\n    tag_359:\n      0x00\n        /* \"#utility.yul\":5086:5153   */\n      tag_361\n        /* \"#utility.yul\":5150:5152   */\n      0x0c\n        /* \"#utility.yul\":5145:5148   */\n      dup4\n        /* \"#utility.yul\":5086:5153   */\n      tag_356\n      jump\t// in\n    tag_361:\n        /* \"#utility.yul\":5079:5153   */\n      swap2\n      pop\n        /* \"#utility.yul\":5162:5255   */\n      tag_362\n        /* \"#utility.yul\":5251:5254   */\n      dup3\n        /* \"#utility.yul\":5162:5255   */\n      tag_363\n      jump\t// in\n    tag_362:\n        /* \"#utility.yul\":5280:5282   */\n      0x20\n        /* \"#utility.yul\":5275:5278   */\n      dup3\n        /* \"#utility.yul\":5271:5283   */\n      add\n        /* \"#utility.yul\":5264:5283   */\n      swap1\n      pop\n        /* \"#utility.yul\":5069:5289   */\n      swap2\n      swap1\n      pop\n      jump\t// out\n        /* \"#utility.yul\":5295:5661   */\n    tag_364:\n      0x00\n        /* \"#utility.yul\":5458:5525   */\n      tag_366\n        /* \"#utility.yul\":5522:5524   */\n      0x14\n        /* \"#utility.yul\":5517:5520   */\n      dup4\n        /* \"#utility.yul\":5458:5525   */\n      tag_356\n      jump\t// in\n    tag_366:\n        /* \"#utility.yul\":5451:5525   */\n      swap2\n      pop\n        /* \"#utility.yul\":5534:5627   */\n      tag_367\n        /* \"#utility.yul\":5623:5626   */\n      dup3\n        /* \"#utility.yul\":5534:5627   */\n      tag_368\n      jump\t// in\n    tag_367:\n        /* \"#utility.yul\":5652:5654   */\n      0x20\n        /* \"#utility.yul\":5647:5650   */\n      dup3\n        /* \"#utility.yul\":5643:5655   */\n      add\n        /* \"#utility.yul\":5636:5655   */\n      swap1\n      pop\n        /* \"#utility.yul\":5441:5661   */\n      swap2\n      swap1\n      pop\n      jump\t// out\n        /* \"#utility.yul\":5667:6033   */\n    tag_369:\n      0x00\n        /* \"#utility.yul\":5830:5897   */\n      tag_371\n        /* \"#utility.yul\":5894:5896   */\n      0x1d\n        /* \"#utility.yul\":5889:5892   */\n      dup4\n        /* \"#utility.yul\":5830:5897   */\n      tag_356\n      jump\t// in\n    tag_371:\n        /* \"#utility.yul\":5823:5897   */\n      swap2\n      pop\n        /* \"#utility.yul\":5906:5999   */\n      tag_372\n        /* \"#utility.yul\":5995:5998   */\n      dup3\n        /* \"#utility.yul\":5906:5999   */\n      tag_373\n      jump\t// in\n    tag_372:\n        /* \"#utility.yul\":6024:6026   */\n      0x20\n        /* \"#utility.yul\":6019:6022   */\n      dup3\n        /* \"#utility.yul\":6015:6027   */\n      add\n        /* \"#utility.yul\":6008:6027   */\n      swap1\n      pop\n        /* \"#utility.yul\":5813:6033   */\n      swap2\n      swap1\n      pop\n      jump\t// out\n        /* \"#utility.yul\":6039:6405   */\n    tag_374:\n      0x00\n        /* \"#utility.yul\":6202:6269   */\n      tag_376\n        /* \"#utility.yul\":6266:6268   */\n      0x13\n        /* \"#utility.yul\":6261:6264   */\n      dup4\n        /* \"#utility.yul\":6202:6269   */\n      tag_356\n      jump\t// in\n    tag_376:\n        /* \"#utility.yul\":6195:6269   */\n      swap2\n      pop\n        /* \"#utility.yul\":6278:6371   */\n      tag_377\n        /* \"#utility.yul\":6367:6370   */\n      dup3\n        /* \"#utility.yul\":6278:6371   */\n      tag_378\n      jump\t// in\n    tag_377:\n        /* \"#utility.yul\":6396:6398   */\n      0x20\n        /* \"#utility.yul\":6391:6394   */\n      dup3\n        /* \"#utility.yul\":6387:6399   */\n      add\n        /* \"#utility.yul\":6380:6399   */\n      swap1\n      pop\n        /* \"#utility.yul\":6185:6405   */\n      swap2\n      swap1\n      pop\n      jump\t// out\n        /* \"#utility.yul\":6411:6777   */\n    tag_379:\n      0x00\n        /* \"#utility.yul\":6574:6641   */\n      tag_381\n        /* \"#utility.yul\":6638:6640   */\n      0x0d\n        /* \"#utility.yul\":6633:6636   */\n      dup4\n        /* \"#utility.yul\":6574:6641   */\n      tag_356\n      jump\t// in\n    tag_381:\n        /* \"#utility.yul\":6567:6641   */\n      swap2\n      pop\n        /* \"#utility.yul\":6650:6743   */\n      tag_382\n        /* \"#utility.yul\":6739:6742   */\n      dup3\n        /* \"#utility.yul\":6650:6743   */\n      tag_383\n      jump\t// in\n    tag_382:\n        /* \"#utility.yul\":6768:6770   */\n      0x20\n        /* \"#utility.yul\":6763:6766   */\n      dup3\n        /* \"#utility.yul\":6759:6771   */\n      add\n        /* \"#utility.yul\":6752:6771   */\n      swap1\n      pop\n        /* \"#utility.yul\":6557:6777   */\n      swap2\n      swap1\n      pop\n      jump\t// out\n        /* \"#utility.yul\":6783:7149   */\n    tag_384:\n      0x00\n        /* \"#utility.yul\":6946:7013   */\n      tag_386\n        /* \"#utility.yul\":7010:7012   */\n      0x16\n        /* \"#utility.yul\":7005:7008   */\n      dup4\n        /* \"#utility.yul\":6946:7013   */\n      tag_356\n      jump\t// in\n    tag_386:\n        /* \"#utility.yul\":6939:7013   */\n      swap2\n      pop\n        /* \"#utility.yul\":7022:7115   */\n      tag_387\n        /* \"#utility.yul\":7111:7114   */\n      dup3\n        /* \"#utility.yul\":7022:7115   */\n      tag_388\n      jump\t// in\n    tag_387:\n        /* \"#utility.yul\":7140:7142   */\n      0x20\n        /* \"#utility.yul\":7135:7138   */\n      dup3\n        /* \"#utility.yul\":7131:7143   */\n      add\n        /* \"#utility.yul\":7124:7143   */\n      swap1\n      pop\n        /* \"#utility.yul\":6929:7149   */\n      swap2\n      swap1\n      pop\n      jump\t// out\n        /* \"#utility.yul\":7155:7521   */\n    tag_389:\n      0x00\n        /* \"#utility.yul\":7318:7385   */\n      tag_391\n        /* \"#utility.yul\":7382:7384   */\n      0x19\n        /* \"#utility.yul\":7377:7380   */\n      dup4\n        /* \"#utility.yul\":7318:7385   */\n      tag_356\n      jump\t// in\n    tag_391:\n        /* \"#utility.yul\":7311:7385   */\n      swap2\n      pop\n        /* \"#utility.yul\":7394:7487   */\n      tag_392\n        /* \"#utility.yul\":7483:7486   */\n      dup3\n        /* \"#utility.yul\":7394:7487   */\n      tag_393\n      jump\t// in\n    tag_392:\n        /* \"#utility.yul\":7512:7514   */\n      0x20\n        /* \"#utility.yul\":7507:7510   */\n      dup3\n        /* \"#utility.yul\":7503:7515   */\n      add\n        /* \"#utility.yul\":7496:7515   */\n      swap1\n      pop\n        /* \"#utility.yul\":7301:7521   */\n      swap2\n      swap1\n      pop\n      jump\t// out\n        /* \"#utility.yul\":7527:7893   */\n    tag_394:\n      0x00\n        /* \"#utility.yul\":7690:7757   */\n      tag_396\n        /* \"#utility.yul\":7754:7756   */\n      0x16\n        /* \"#utility.yul\":7749:7752   */\n      dup4\n        /* \"#utility.yul\":7690:7757   */\n      tag_356\n      jump\t// in\n    tag_396:\n        /* \"#utility.yul\":7683:7757   */\n      swap2\n      pop\n        /* \"#utility.yul\":7766:7859   */\n      tag_397\n        /* \"#utility.yul\":7855:7858   */\n      dup3\n        /* \"#utility.yul\":7766:7859   */\n      tag_398\n      jump\t// in\n    tag_397:\n        /* \"#utility.yul\":7884:7886   */\n      0x20\n        /* \"#utility.yul\":7879:7882   */\n      dup3\n        /* \"#utility.yul\":7875:7887   */\n      add\n        /* \"#utility.yul\":7868:7887   */\n      swap1\n      pop\n        /* \"#utility.yul\":7673:7893   */\n      swap2\n      swap1\n      pop\n      jump\t// out\n        /* \"#utility.yul\":7899:8265   */\n    tag_399:\n      0x00\n        /* \"#utility.yul\":8062:8129   */\n      tag_401\n        /* \"#utility.yul\":8126:8128   */\n      0x17\n        /* \"#utility.yul\":8121:8124   */\n      dup4\n        /* \"#utility.yul\":8062:8129   */\n      tag_356\n      jump\t// in\n    tag_401:\n        /* \"#utility.yul\":8055:8129   */\n      swap2\n      pop\n        /* \"#utility.yul\":8138:8231   */\n      tag_402\n        /* \"#utility.yul\":8227:8230   */\n      dup3\n        /* \"#utility.yul\":8138:8231   */\n      tag_403\n      jump\t// in\n    tag_402:\n        /* \"#utility.yul\":8256:8258   */\n      0x20\n        /* \"#utility.yul\":8251:8254   */\n      dup3\n        /* \"#utility.yul\":8247:8259   */\n      add\n        /* \"#utility.yul\":8240:8259   */\n      swap1\n      pop\n        /* \"#utility.yul\":8045:8265   */\n      swap2\n      swap1\n      pop\n      jump\t// out\n        /* \"#utility.yul\":8271:8637   */\n    tag_404:\n      0x00\n        /* \"#utility.yul\":8434:8501   */\n      tag_406\n        /* \"#utility.yul\":8498:8500   */\n      0x12\n        /* \"#utility.yul\":8493:8496   */\n      dup4\n        /* \"#utility.yul\":8434:8501   */\n      tag_356\n      jump\t// in\n    tag_406:\n        /* \"#utility.yul\":8427:8501   */\n      swap2\n      pop\n        /* \"#utility.yul\":8510:8603   */\n      tag_407\n        /* \"#utility.yul\":8599:8602   */\n      dup3\n        /* \"#utility.yul\":8510:8603   */\n      tag_408\n      jump\t// in\n    tag_407:\n        /* \"#utility.yul\":8628:8630   */\n      0x20\n        /* \"#utility.yul\":8623:8626   */\n      dup3\n        /* \"#utility.yul\":8619:8631   */\n      add\n        /* \"#utility.yul\":8612:8631   */\n      swap1\n      pop\n        /* \"#utility.yul\":8417:8637   */\n      swap2\n      swap1\n      pop\n      jump\t// out\n        /* \"#utility.yul\":8643:9009   */\n    tag_409:\n      0x00\n        /* \"#utility.yul\":8806:8873   */\n      tag_411\n        /* \"#utility.yul\":8870:8872   */\n      0x10\n        /* \"#utility.yul\":8865:8868   */\n      dup4\n        /* \"#utility.yul\":8806:8873   */\n      tag_356\n      jump\t// in\n    tag_411:\n        /* \"#utility.yul\":8799:8873   */\n      swap2\n      pop\n        /* \"#utility.yul\":8882:8975   */\n      tag_412\n        /* \"#utility.yul\":8971:8974   */\n      dup3\n        /* \"#utility.yul\":8882:8975   */\n      tag_413\n      jump\t// in\n    tag_412:\n        /* \"#utility.yul\":9000:9002   */\n      0x20\n        /* \"#utility.yul\":8995:8998   */\n      dup3\n        /* \"#utility.yul\":8991:9003   */\n      add\n        /* \"#utility.yul\":8984:9003   */\n      swap1\n      pop\n        /* \"#utility.yul\":8789:9009   */\n      swap2\n      swap1\n      pop\n      jump\t// out\n        /* \"#utility.yul\":9075:9840   */\n    tag_315:\n      0x00\n        /* \"#utility.yul\":9210:9214   */\n      0x60\n        /* \"#utility.yul\":9205:9208   */\n      dup4\n        /* \"#utility.yul\":9201:9215   */\n      add\n        /* \"#utility.yul\":9297:9301   */\n      0x00\n        /* \"#utility.yul\":9290:9295   */\n      dup4\n        /* \"#utility.yul\":9286:9302   */\n      add\n        /* \"#utility.yul\":9280:9303   */\n      mload\n        /* \"#utility.yul\":9350:9353   */\n      dup5\n        /* \"#utility.yul\":9344:9348   */\n      dup3\n        /* \"#utility.yul\":9340:9354   */\n      sub\n        /* \"#utility.yul\":9333:9337   */\n      0x00\n        /* \"#utility.yul\":9328:9331   */\n      dup7\n        /* \"#utility.yul\":9324:9338   */\n      add\n        /* \"#utility.yul\":9317:9355   */\n      mstore\n        /* \"#utility.yul\":9376:9449   */\n      tag_415\n        /* \"#utility.yul\":9444:9448   */\n      dup3\n        /* \"#utility.yul\":9430:9442   */\n      dup3\n        /* \"#utility.yul\":9376:9449   */\n      tag_342\n      jump\t// in\n    tag_415:\n        /* \"#utility.yul\":9368:9449   */\n      swap2\n      pop\n        /* \"#utility.yul\":9225:9460   */\n      pop\n        /* \"#utility.yul\":9544:9548   */\n      0x20\n        /* \"#utility.yul\":9537:9542   */\n      dup4\n        /* \"#utility.yul\":9533:9549   */\n      add\n        /* \"#utility.yul\":9527:9550   */\n      mload\n        /* \"#utility.yul\":9563:9626   */\n      tag_416\n        /* \"#utility.yul\":9620:9624   */\n      0x20\n        /* \"#utility.yul\":9615:9618   */\n      dup7\n        /* \"#utility.yul\":9611:9625   */\n      add\n        /* \"#utility.yul\":9597:9609   */\n      dup3\n        /* \"#utility.yul\":9563:9626   */\n      tag_417\n      jump\t// in\n    tag_416:\n        /* \"#utility.yul\":9470:9636   */\n      pop\n        /* \"#utility.yul\":9721:9725   */\n      0x40\n        /* \"#utility.yul\":9714:9719   */\n      dup4\n        /* \"#utility.yul\":9710:9726   */\n      add\n        /* \"#utility.yul\":9704:9727   */\n      mload\n        /* \"#utility.yul\":9740:9803   */\n      tag_418\n        /* \"#utility.yul\":9797:9801   */\n      0x40\n        /* \"#utility.yul\":9792:9795   */\n      dup7\n        /* \"#utility.yul\":9788:9802   */\n      add\n        /* \"#utility.yul\":9774:9786   */\n      dup3\n        /* \"#utility.yul\":9740:9803   */\n      tag_417\n      jump\t// in\n    tag_418:\n        /* \"#utility.yul\":9646:9813   */\n      pop\n        /* \"#utility.yul\":9830:9834   */\n      dup1\n        /* \"#utility.yul\":9823:9834   */\n      swap2\n      pop\n        /* \"#utility.yul\":9179:9840   */\n      pop\n      swap3\n      swap2\n      pop\n      pop\n      jump\t// out\n        /* \"#utility.yul\":9846:9954   */\n    tag_417:\n        /* \"#utility.yul\":9923:9947   */\n      tag_420\n        /* \"#utility.yul\":9941:9946   */\n      dup2\n        /* \"#utility.yul\":9923:9947   */\n      tag_421\n      jump\t// in\n    tag_420:\n        /* \"#utility.yul\":9918:9921   */\n      dup3\n        /* \"#utility.yul\":9911:9948   */\n      mstore\n        /* \"#utility.yul\":9901:9954   */\n      pop\n      pop\n      jump\t// out\n        /* \"#utility.yul\":9960:10078   */\n    tag_422:\n        /* \"#utility.yul\":10047:10071   */\n      tag_424\n        /* \"#utility.yul\":10065:10070   */\n      dup2\n        /* \"#utility.yul\":10047:10071   */\n      tag_421\n      jump\t// in\n    tag_424:\n        /* \"#utility.yul\":10042:10045   */\n      dup3\n        /* \"#utility.yul\":10035:10072   */\n      mstore\n        /* \"#utility.yul\":10025:10078   */\n      pop\n      pop\n      jump\t// out\n        /* \"#utility.yul\":10084:10306   */\n    tag_83:\n      0x00\n        /* \"#utility.yul\":10215:10217   */\n      0x20\n        /* \"#utility.yul\":10204:10213   */\n      dup3\n        /* \"#utility.yul\":10200:10218   */\n      add\n        /* \"#utility.yul\":10192:10218   */\n      swap1\n      pop\n        /* \"#utility.yul\":10228:10299   */\n      tag_426\n        /* \"#utility.yul\":10296:10297   */\n      0x00\n        /* \"#utility.yul\":10285:10294   */\n      dup4\n        /* \"#utility.yul\":10281:10298   */\n      add\n        /* \"#utility.yul\":10272:10278   */\n      dup5\n        /* \"#utility.yul\":10228:10299   */\n      tag_316\n      jump\t// in\n    tag_426:\n        /* \"#utility.yul\":10182:10306   */\n      swap3\n      swap2\n      pop\n      pop\n      jump\t// out\n        /* \"#utility.yul\":10312:10765   */\n    tag_109:\n      0x00\n        /* \"#utility.yul\":10533:10535   */\n      0x20\n        /* \"#utility.yul\":10522:10531   */\n      dup3\n        /* \"#utility.yul\":10518:10536   */\n      add\n        /* \"#utility.yul\":10510:10536   */\n      swap1\n      pop\n        /* \"#utility.yul\":10582:10591   */\n      dup2\n        /* \"#utility.yul\":10576:10580   */\n      dup2\n        /* \"#utility.yul\":10572:10592   */\n      sub\n        /* \"#utility.yul\":10568:10569   */\n      0x00\n        /* \"#utility.yul\":10557:10566   */\n      dup4\n        /* \"#utility.yul\":10553:10570   */\n      add\n        /* \"#utility.yul\":10546:10593   */\n      mstore\n        /* \"#utility.yul\":10610:10758   */\n      tag_428\n        /* \"#utility.yul\":10753:10757   */\n      dup2\n        /* \"#utility.yul\":10744:10750   */\n      dup5\n        /* \"#utility.yul\":10610:10758   */\n      tag_320\n      jump\t// in\n    tag_428:\n        /* \"#utility.yul\":10602:10758   */\n      swap1\n      pop\n        /* \"#utility.yul\":10500:10765   */\n      swap3\n      swap2\n      pop\n      pop\n      jump\t// out\n        /* \"#utility.yul\":10771:10981   */\n    tag_64:\n      0x00\n        /* \"#utility.yul\":10896:10898   */\n      0x20\n        /* \"#utility.yul\":10885:10894   */\n      dup3\n        /* \"#utility.yul\":10881:10899   */\n      add\n        /* \"#utility.yul\":10873:10899   */\n      swap1\n      pop\n        /* \"#utility.yul\":10909:10974   */\n      tag_430\n        /* \"#utility.yul\":10971:10972   */\n      0x00\n        /* \"#utility.yul\":10960:10969   */\n      dup4\n        /* \"#utility.yul\":10956:10973   */\n      add\n        /* \"#utility.yul\":10947:10953   */\n      dup5\n        /* \"#utility.yul\":10909:10974   */\n      tag_334\n      jump\t// in\n    tag_430:\n        /* \"#utility.yul\":10863:10981   */\n      swap3\n      swap2\n      pop\n      pop\n      jump\t// out\n        /* \"#utility.yul\":10987:11237   */\n    tag_40:\n      0x00\n        /* \"#utility.yul\":11132:11134   */\n      0x20\n        /* \"#utility.yul\":11121:11130   */\n      dup3\n        /* \"#utility.yul\":11117:11135   */\n      add\n        /* \"#utility.yul\":11109:11135   */\n      swap1\n      pop\n        /* \"#utility.yul\":11145:11230   */\n      tag_432\n        /* \"#utility.yul\":11227:11228   */\n      0x00\n        /* \"#utility.yul\":11216:11225   */\n      dup4\n        /* \"#utility.yul\":11212:11229   */\n      add\n        /* \"#utility.yul\":11203:11209   */\n      dup5\n        /* \"#utility.yul\":11145:11230   */\n      tag_338\n      jump\t// in\n    tag_432:\n        /* \"#utility.yul\":11099:11237   */\n      swap3\n      swap2\n      pop\n      pop\n      jump\t// out\n        /* \"#utility.yul\":11243:11556   */\n    tag_35:\n      0x00\n        /* \"#utility.yul\":11394:11396   */\n      0x20\n        /* \"#utility.yul\":11383:11392   */\n      dup3\n        /* \"#utility.yul\":11379:11397   */\n      add\n        /* \"#utility.yul\":11371:11397   */\n      swap1\n      pop\n        /* \"#utility.yul\":11443:11452   */\n      dup2\n        /* \"#utility.yul\":11437:11441   */\n      dup2\n        /* \"#utility.yul\":11433:11453   */\n      sub\n        /* \"#utility.yul\":11429:11430   */\n      0x00\n        /* \"#utility.yul\":11418:11427   */\n      dup4\n        /* \"#utility.yul\":11414:11431   */\n      add\n        /* \"#utility.yul\":11407:11454   */\n      mstore\n        /* \"#utility.yul\":11471:11549   */\n      tag_434\n        /* \"#utility.yul\":11544:11548   */\n      dup2\n        /* \"#utility.yul\":11535:11541   */\n      dup5\n        /* \"#utility.yul\":11471:11549   */\n      tag_352\n      jump\t// in\n    tag_434:\n        /* \"#utility.yul\":11463:11549   */\n      swap1\n      pop\n        /* \"#utility.yul\":11361:11556   */\n      swap3\n      swap2\n      pop\n      pop\n      jump\t// out\n        /* \"#utility.yul\":11562:12095   */\n    tag_30:\n      0x00\n        /* \"#utility.yul\":11769:11771   */\n      0x60\n        /* \"#utility.yul\":11758:11767   */\n      dup3\n        /* \"#utility.yul\":11754:11772   */\n      add\n        /* \"#utility.yul\":11746:11772   */\n      swap1\n      pop\n        /* \"#utility.yul\":11818:11827   */\n      dup2\n        /* \"#utility.yul\":11812:11816   */\n      dup2\n        /* \"#utility.yul\":11808:11828   */\n      sub\n        /* \"#utility.yul\":11804:11805   */\n      0x00\n        /* \"#utility.yul\":11793:11802   */\n      dup4\n        /* \"#utility.yul\":11789:11806   */\n      add\n        /* \"#utility.yul\":11782:11829   */\n      mstore\n        /* \"#utility.yul\":11846:11924   */\n      tag_436\n        /* \"#utility.yul\":11919:11923   */\n      dup2\n        /* \"#utility.yul\":11910:11916   */\n      dup7\n        /* \"#utility.yul\":11846:11924   */\n      tag_352\n      jump\t// in\n    tag_436:\n        /* \"#utility.yul\":11838:11924   */\n      swap1\n      pop\n        /* \"#utility.yul\":11934:12006   */\n      tag_437\n        /* \"#utility.yul\":12002:12004   */\n      0x20\n        /* \"#utility.yul\":11991:12000   */\n      dup4\n        /* \"#utility.yul\":11987:12005   */\n      add\n        /* \"#utility.yul\":11978:11984   */\n      dup6\n        /* \"#utility.yul\":11934:12006   */\n      tag_422\n      jump\t// in\n    tag_437:\n        /* \"#utility.yul\":12016:12088   */\n      tag_438\n        /* \"#utility.yul\":12084:12086   */\n      0x40\n        /* \"#utility.yul\":12073:12082   */\n      dup4\n        /* \"#utility.yul\":12069:12087   */\n      add\n        /* \"#utility.yul\":12060:12066   */\n      dup5\n        /* \"#utility.yul\":12016:12088   */\n      tag_422\n      jump\t// in\n    tag_438:\n        /* \"#utility.yul\":11736:12095   */\n      swap5\n      swap4\n      pop\n      pop\n      pop\n      pop\n      jump\t// out\n        /* \"#utility.yul\":12101:12520   */\n    tag_225:\n      0x00\n        /* \"#utility.yul\":12305:12307   */\n      0x20\n        /* \"#utility.yul\":12294:12303   */\n      dup3\n        /* \"#utility.yul\":12290:12308   */\n      add\n        /* \"#utility.yul\":12282:12308   */\n      swap1\n      pop\n        /* \"#utility.yul\":12354:12363   */\n      dup2\n        /* \"#utility.yul\":12348:12352   */\n      dup2\n        /* \"#utility.yul\":12344:12364   */\n      sub\n        /* \"#utility.yul\":12340:12341   */\n      0x00\n        /* \"#utility.yul\":12329:12338   */\n      dup4\n        /* \"#utility.yul\":12325:12342   */\n      add\n        /* \"#utility.yul\":12318:12365   */\n      mstore\n        /* \"#utility.yul\":12382:12513   */\n      tag_440\n        /* \"#utility.yul\":12508:12512   */\n      dup2\n        /* \"#utility.yul\":12382:12513   */\n      tag_359\n      jump\t// in\n    tag_440:\n        /* \"#utility.yul\":12374:12513   */\n      swap1\n      pop\n        /* \"#utility.yul\":12272:12520   */\n      swap2\n      swap1\n      pop\n      jump\t// out\n        /* \"#utility.yul\":12526:12945   */\n    tag_167:\n      0x00\n        /* \"#utility.yul\":12730:12732   */\n      0x20\n        /* \"#utility.yul\":12719:12728   */\n      dup3\n        /* \"#utility.yul\":12715:12733   */\n      add\n        /* \"#utility.yul\":12707:12733   */\n      swap1\n      pop\n        /* \"#utility.yul\":12779:12788   */\n      dup2\n        /* \"#utility.yul\":12773:12777   */\n      dup2\n        /* \"#utility.yul\":12769:12789   */\n      sub\n        /* \"#utility.yul\":12765:12766   */\n      0x00\n        /* \"#utility.yul\":12754:12763   */\n      dup4\n        /* \"#utility.yul\":12750:12767   */\n      add\n        /* \"#utility.yul\":12743:12790   */\n      mstore\n        /* \"#utility.yul\":12807:12938   */\n      tag_442\n        /* \"#utility.yul\":12933:12937   */\n      dup2\n        /* \"#utility.yul\":12807:12938   */\n      tag_364\n      jump\t// in\n    tag_442:\n        /* \"#utility.yul\":12799:12938   */\n      swap1\n      pop\n        /* \"#utility.yul\":12697:12945   */\n      swap2\n      swap1\n      pop\n      jump\t// out\n        /* \"#utility.yul\":12951:13370   */\n    tag_205:\n      0x00\n        /* \"#utility.yul\":13155:13157   */\n      0x20\n        /* \"#utility.yul\":13144:13153   */\n      dup3\n        /* \"#utility.yul\":13140:13158   */\n      add\n        /* \"#utility.yul\":13132:13158   */\n      swap1\n      pop\n        /* \"#utility.yul\":13204:13213   */\n      dup2\n        /* \"#utility.yul\":13198:13202   */\n      dup2\n        /* \"#utility.yul\":13194:13214   */\n      sub\n        /* \"#utility.yul\":13190:13191   */\n      0x00\n        /* \"#utility.yul\":13179:13188   */\n      dup4\n        /* \"#utility.yul\":13175:13192   */\n      add\n        /* \"#utility.yul\":13168:13215   */\n      mstore\n        /* \"#utility.yul\":13232:13363   */\n      tag_444\n        /* \"#utility.yul\":13358:13362   */\n      dup2\n        /* \"#utility.yul\":13232:13363   */\n      tag_369\n      jump\t// in\n    tag_444:\n        /* \"#utility.yul\":13224:13363   */\n      swap1\n      pop\n        /* \"#utility.yul\":13122:13370   */\n      swap2\n      swap1\n      pop\n      jump\t// out\n        /* \"#utility.yul\":13376:13795   */\n    tag_184:\n      0x00\n        /* \"#utility.yul\":13580:13582   */\n      0x20\n        /* \"#utility.yul\":13569:13578   */\n      dup3\n        /* \"#utility.yul\":13565:13583   */\n      add\n        /* \"#utility.yul\":13557:13583   */\n      swap1\n      pop\n        /* \"#utility.yul\":13629:13638   */\n      dup2\n        /* \"#utility.yul\":13623:13627   */\n      dup2\n        /* \"#utility.yul\":13619:13639   */\n      sub\n        /* \"#utility.yul\":13615:13616   */\n      0x00\n        /* \"#utility.yul\":13604:13613   */\n      dup4\n        /* \"#utility.yul\":13600:13617   */\n      add\n        /* \"#utility.yul\":13593:13640   */\n      mstore\n        /* \"#utility.yul\":13657:13788   */\n      tag_446\n        /* \"#utility.yul\":13783:13787   */\n      dup2\n        /* \"#utility.yul\":13657:13788   */\n      tag_374\n      jump\t// in\n    tag_446:\n        /* \"#utility.yul\":13649:13788   */\n      swap1\n      pop\n        /* \"#utility.yul\":13547:13795   */\n      swap2\n      swap1\n      pop\n      jump\t// out\n        /* \"#utility.yul\":13801:14220   */\n    tag_133:\n      0x00\n        /* \"#utility.yul\":14005:14007   */\n      0x20\n        /* \"#utility.yul\":13994:14003   */\n      dup3\n        /* \"#utility.yul\":13990:14008   */\n      add\n        /* \"#utility.yul\":13982:14008   */\n      swap1\n      pop\n        /* \"#utility.yul\":14054:14063   */\n      dup2\n        /* \"#utility.yul\":14048:14052   */\n      dup2\n        /* \"#utility.yul\":14044:14064   */\n      sub\n        /* \"#utility.yul\":14040:14041   */\n      0x00\n        /* \"#utility.yul\":14029:14038   */\n      dup4\n        /* \"#utility.yul\":14025:14042   */\n      add\n        /* \"#utility.yul\":14018:14065   */\n      mstore\n        /* \"#utility.yul\":14082:14213   */\n      tag_448\n        /* \"#utility.yul\":14208:14212   */\n      dup2\n        /* \"#utility.yul\":14082:14213   */\n      tag_379\n      jump\t// in\n    tag_448:\n        /* \"#utility.yul\":14074:14213   */\n      swap1\n      pop\n        /* \"#utility.yul\":13972:14220   */\n      swap2\n      swap1\n      pop\n      jump\t// out\n        /* \"#utility.yul\":14226:14645   */\n    tag_139:\n      0x00\n        /* \"#utility.yul\":14430:14432   */\n      0x20\n        /* \"#utility.yul\":14419:14428   */\n      dup3\n        /* \"#utility.yul\":14415:14433   */\n      add\n        /* \"#utility.yul\":14407:14433   */\n      swap1\n      pop\n        /* \"#utility.yul\":14479:14488   */\n      dup2\n        /* \"#utility.yul\":14473:14477   */\n      dup2\n        /* \"#utility.yul\":14469:14489   */\n      sub\n        /* \"#utility.yul\":14465:14466   */\n      0x00\n        /* \"#utility.yul\":14454:14463   */\n      dup4\n        /* \"#utility.yul\":14450:14467   */\n      add\n        /* \"#utility.yul\":14443:14490   */\n      mstore\n        /* \"#utility.yul\":14507:14638   */\n      tag_450\n        /* \"#utility.yul\":14633:14637   */\n      dup2\n        /* \"#utility.yul\":14507:14638   */\n      tag_384\n      jump\t// in\n    tag_450:\n        /* \"#utility.yul\":14499:14638   */\n      swap1\n      pop\n        /* \"#utility.yul\":14397:14645   */\n      swap2\n      swap1\n      pop\n      jump\t// out\n        /* \"#utility.yul\":14651:15070   */\n    tag_170:\n      0x00\n        /* \"#utility.yul\":14855:14857   */\n      0x20\n        /* \"#utility.yul\":14844:14853   */\n      dup3\n        /* \"#utility.yul\":14840:14858   */\n      add\n        /* \"#utility.yul\":14832:14858   */\n      swap1\n      pop\n        /* \"#utility.yul\":14904:14913   */\n      dup2\n        /* \"#utility.yul\":14898:14902   */\n      dup2\n        /* \"#utility.yul\":14894:14914   */\n      sub\n        /* \"#utility.yul\":14890:14891   */\n      0x00\n        /* \"#utility.yul\":14879:14888   */\n      dup4\n        /* \"#utility.yul\":14875:14892   */\n      add\n        /* \"#utility.yul\":14868:14915   */\n      mstore\n        /* \"#utility.yul\":14932:15063   */\n      tag_452\n        /* \"#utility.yul\":15058:15062   */\n      dup2\n        /* \"#utility.yul\":14932:15063   */\n      tag_389\n      jump\t// in\n    tag_452:\n        /* \"#utility.yul\":14924:15063   */\n      swap1\n      pop\n        /* \"#utility.yul\":14822:15070   */\n      swap2\n      swap1\n      pop\n      jump\t// out\n        /* \"#utility.yul\":15076:15495   */\n    tag_158:\n      0x00\n        /* \"#utility.yul\":15280:15282   */\n      0x20\n        /* \"#utility.yul\":15269:15278   */\n      dup3\n        /* \"#utility.yul\":15265:15283   */\n      add\n        /* \"#utility.yul\":15257:15283   */\n      swap1\n      pop\n        /* \"#utility.yul\":15329:15338   */\n      dup2\n        /* \"#utility.yul\":15323:15327   */\n      dup2\n        /* \"#utility.yul\":15319:15339   */\n      sub\n        /* \"#utility.yul\":15315:15316   */\n      0x00\n        /* \"#utility.yul\":15304:15313   */\n      dup4\n        /* \"#utility.yul\":15300:15317   */\n      add\n        /* \"#utility.yul\":15293:15340   */\n      mstore\n        /* \"#utility.yul\":15357:15488   */\n      tag_454\n        /* \"#utility.yul\":15483:15487   */\n      dup2\n        /* \"#utility.yul\":15357:15488   */\n      tag_394\n      jump\t// in\n    tag_454:\n        /* \"#utility.yul\":15349:15488   */\n      swap1\n      pop\n        /* \"#utility.yul\":15247:15495   */\n      swap2\n      swap1\n      pop\n      jump\t// out\n        /* \"#utility.yul\":15501:15920   */\n    tag_155:\n      0x00\n        /* \"#utility.yul\":15705:15707   */\n      0x20\n        /* \"#utility.yul\":15694:15703   */\n      dup3\n        /* \"#utility.yul\":15690:15708   */\n      add\n        /* \"#utility.yul\":15682:15708   */\n      swap1\n      pop\n        /* \"#utility.yul\":15754:15763   */\n      dup2\n        /* \"#utility.yul\":15748:15752   */\n      dup2\n        /* \"#utility.yul\":15744:15764   */\n      sub\n        /* \"#utility.yul\":15740:15741   */\n      0x00\n        /* \"#utility.yul\":15729:15738   */\n      dup4\n        /* \"#utility.yul\":15725:15742   */\n      add\n        /* \"#utility.yul\":15718:15765   */\n      mstore\n        /* \"#utility.yul\":15782:15913   */\n      tag_456\n        /* \"#utility.yul\":15908:15912   */\n      dup2\n        /* \"#utility.yul\":15782:15913   */\n      tag_399\n      jump\t// in\n    tag_456:\n        /* \"#utility.yul\":15774:15913   */\n      swap1\n      pop\n        /* \"#utility.yul\":15672:15920   */\n      swap2\n      swap1\n      pop\n      jump\t// out\n        /* \"#utility.yul\":15926:16345   */\n    tag_216:\n      0x00\n        /* \"#utility.yul\":16130:16132   */\n      0x20\n        /* \"#utility.yul\":16119:16128   */\n      dup3\n        /* \"#utility.yul\":16115:16133   */\n      add\n        /* \"#utility.yul\":16107:16133   */\n      swap1\n      pop\n        /* \"#utility.yul\":16179:16188   */\n      dup2\n        /* \"#utility.yul\":16173:16177   */\n      dup2\n        /* \"#utility.yul\":16169:16189   */\n      sub\n        /* \"#utility.yul\":16165:16166   */\n      0x00\n        /* \"#utility.yul\":16154:16163   */\n      dup4\n        /* \"#utility.yul\":16150:16167   */\n      add\n        /* \"#utility.yul\":16143:16190   */\n      mstore\n        /* \"#utility.yul\":16207:16338   */\n      tag_458\n        /* \"#utility.yul\":16333:16337   */\n      dup2\n        /* \"#utility.yul\":16207:16338   */\n      tag_404\n      jump\t// in\n    tag_458:\n        /* \"#utility.yul\":16199:16338   */\n      swap1\n      pop\n        /* \"#utility.yul\":16097:16345   */\n      swap2\n      swap1\n      pop\n      jump\t// out\n        /* \"#utility.yul\":16351:16770   */\n    tag_230:\n      0x00\n        /* \"#utility.yul\":16555:16557   */\n      0x20\n        /* \"#utility.yul\":16544:16553   */\n      dup3\n        /* \"#utility.yul\":16540:16558   */\n      add\n        /* \"#utility.yul\":16532:16558   */\n      swap1\n      pop\n        /* \"#utility.yul\":16604:16613   */\n      dup2\n        /* \"#utility.yul\":16598:16602   */\n      dup2\n        /* \"#utility.yul\":16594:16614   */\n      sub\n        /* \"#utility.yul\":16590:16591   */\n      0x00\n        /* \"#utility.yul\":16579:16588   */\n      dup4\n        /* \"#utility.yul\":16575:16592   */\n      add\n        /* \"#utility.yul\":16568:16615   */\n      mstore\n        /* \"#utility.yul\":16632:16763   */\n      tag_460\n        /* \"#utility.yul\":16758:16762   */\n      dup2\n        /* \"#utility.yul\":16632:16763   */\n      tag_409\n      jump\t// in\n    tag_460:\n        /* \"#utility.yul\":16624:16763   */\n      swap1\n      pop\n        /* \"#utility.yul\":16522:16770   */\n      swap2\n      swap1\n      pop\n      jump\t// out\n        /* \"#utility.yul\":16776:16998   */\n    tag_45:\n      0x00\n        /* \"#utility.yul\":16907:16909   */\n      0x20\n        /* \"#utility.yul\":16896:16905   */\n      dup3\n        /* \"#utility.yul\":16892:16910   */\n      add\n        /* \"#utility.yul\":16884:16910   */\n      swap1\n      pop\n        /* \"#utility.yul\":16920:16991   */\n      tag_462\n        /* \"#utility.yul\":16988:16989   */\n      0x00\n        /* \"#utility.yul\":16977:16986   */\n      dup4\n        /* \"#utility.yul\":16973:16990   */\n      add\n        /* \"#utility.yul\":16964:16970   */\n      dup5\n        /* \"#utility.yul\":16920:16991   */\n      tag_422\n      jump\t// in\n    tag_462:\n        /* \"#utility.yul\":16874:16998   */\n      swap3\n      swap2\n      pop\n      pop\n      jump\t// out\n        /* \"#utility.yul\":17004:17133   */\n    tag_281:\n      0x00\n        /* \"#utility.yul\":17065:17085   */\n      tag_464\n      tag_465\n      jump\t// in\n    tag_464:\n        /* \"#utility.yul\":17055:17085   */\n      swap1\n      pop\n        /* \"#utility.yul\":17094:17127   */\n      tag_466\n        /* \"#utility.yul\":17122:17126   */\n      dup3\n        /* \"#utility.yul\":17114:17120   */\n      dup3\n        /* \"#utility.yul\":17094:17127   */\n      tag_467\n      jump\t// in\n    tag_466:\n        /* \"#utility.yul\":17045:17133   */\n      swap2\n      swap1\n      pop\n      jump\t// out\n        /* \"#utility.yul\":17139:17214   */\n    tag_465:\n      0x00\n        /* \"#utility.yul\":17205:17207   */\n      0x40\n        /* \"#utility.yul\":17199:17208   */\n      mload\n        /* \"#utility.yul\":17189:17208   */\n      swap1\n      pop\n        /* \"#utility.yul\":17179:17214   */\n      swap1\n      jump\t// out\n        /* \"#utility.yul\":17220:17528   */\n    tag_280:\n      0x00\n        /* \"#utility.yul\":17372:17390   */\n      0xffffffffffffffff\n        /* \"#utility.yul\":17364:17370   */\n      dup3\n        /* \"#utility.yul\":17361:17391   */\n      gt\n        /* \"#utility.yul\":17358:17360   */\n      iszero\n      tag_470\n      jumpi\n        /* \"#utility.yul\":17394:17412   */\n      tag_471\n      tag_472\n      jump\t// in\n    tag_471:\n        /* \"#utility.yul\":17358:17360   */\n    tag_470:\n        /* \"#utility.yul\":17432:17461   */\n      tag_473\n        /* \"#utility.yul\":17454:17460   */\n      dup3\n        /* \"#utility.yul\":17432:17461   */\n      tag_351\n      jump\t// in\n    tag_473:\n        /* \"#utility.yul\":17424:17461   */\n      swap1\n      pop\n        /* \"#utility.yul\":17516:17520   */\n      0x20\n        /* \"#utility.yul\":17510:17514   */\n      dup2\n        /* \"#utility.yul\":17506:17521   */\n      add\n        /* \"#utility.yul\":17498:17521   */\n      swap1\n      pop\n        /* \"#utility.yul\":17287:17528   */\n      swap2\n      swap1\n      pop\n      jump\t// out\n        /* \"#utility.yul\":17534:17686   */\n    tag_327:\n      0x00\n        /* \"#utility.yul\":17644:17647   */\n      dup2\n        /* \"#utility.yul\":17636:17647   */\n      swap1\n      pop\n        /* \"#utility.yul\":17674:17678   */\n      0x20\n        /* \"#utility.yul\":17669:17672   */\n      dup3\n        /* \"#utility.yul\":17665:17679   */\n      add\n        /* \"#utility.yul\":17657:17679   */\n      swap1\n      pop\n        /* \"#utility.yul\":17626:17686   */\n      swap2\n      swap1\n      pop\n      jump\t// out\n        /* \"#utility.yul\":17692:17826   */\n    tag_323:\n      0x00\n        /* \"#utility.yul\":17813:17818   */\n      dup2\n        /* \"#utility.yul\":17807:17819   */\n      mload\n        /* \"#utility.yul\":17797:17819   */\n      swap1\n      pop\n        /* \"#utility.yul\":17786:17826   */\n      swap2\n      swap1\n      pop\n      jump\t// out\n        /* \"#utility.yul\":17832:17931   */\n    tag_345:\n      0x00\n        /* \"#utility.yul\":17918:17923   */\n      dup2\n        /* \"#utility.yul\":17912:17924   */\n      mload\n        /* \"#utility.yul\":17902:17924   */\n      swap1\n      pop\n        /* \"#utility.yul\":17891:17931   */\n      swap2\n      swap1\n      pop\n      jump\t// out\n        /* \"#utility.yul\":17937:18070   */\n    tag_333:\n      0x00\n        /* \"#utility.yul\":18059:18063   */\n      0x20\n        /* \"#utility.yul\":18054:18057   */\n      dup3\n        /* \"#utility.yul\":18050:18064   */\n      add\n        /* \"#utility.yul\":18042:18064   */\n      swap1\n      pop\n        /* \"#utility.yul\":18032:18070   */\n      swap2\n      swap1\n      pop\n      jump\t// out\n        /* \"#utility.yul\":18076:18280   */\n    tag_325:\n      0x00\n        /* \"#utility.yul\":18229:18235   */\n      dup3\n        /* \"#utility.yul\":18224:18227   */\n      dup3\n        /* \"#utility.yul\":18217:18236   */\n      mstore\n        /* \"#utility.yul\":18269:18273   */\n      0x20\n        /* \"#utility.yul\":18264:18267   */\n      dup3\n        /* \"#utility.yul\":18260:18274   */\n      add\n        /* \"#utility.yul\":18245:18274   */\n      swap1\n      pop\n        /* \"#utility.yul\":18207:18280   */\n      swap3\n      swap2\n      pop\n      pop\n      jump\t// out\n        /* \"#utility.yul\":18286:18445   */\n    tag_347:\n      0x00\n        /* \"#utility.yul\":18394:18400   */\n      dup3\n        /* \"#utility.yul\":18389:18392   */\n      dup3\n        /* \"#utility.yul\":18382:18401   */\n      mstore\n        /* \"#utility.yul\":18434:18438   */\n      0x20\n        /* \"#utility.yul\":18429:18432   */\n      dup3\n        /* \"#utility.yul\":18425:18439   */\n      add\n        /* \"#utility.yul\":18410:18439   */\n      swap1\n      pop\n        /* \"#utility.yul\":18372:18445   */\n      swap3\n      swap2\n      pop\n      pop\n      jump\t// out\n        /* \"#utility.yul\":18451:18620   */\n    tag_356:\n      0x00\n        /* \"#utility.yul\":18569:18575   */\n      dup3\n        /* \"#utility.yul\":18564:18567   */\n      dup3\n        /* \"#utility.yul\":18557:18576   */\n      mstore\n        /* \"#utility.yul\":18609:18613   */\n      0x20\n        /* \"#utility.yul\":18604:18607   */\n      dup3\n        /* \"#utility.yul\":18600:18614   */\n      add\n        /* \"#utility.yul\":18585:18614   */\n      swap1\n      pop\n        /* \"#utility.yul\":18547:18620   */\n      swap3\n      swap2\n      pop\n      pop\n      jump\t// out\n        /* \"#utility.yul\":18626:18931   */\n    tag_144:\n      0x00\n        /* \"#utility.yul\":18685:18705   */\n      tag_482\n        /* \"#utility.yul\":18703:18704   */\n      dup3\n        /* \"#utility.yul\":18685:18705   */\n      tag_421\n      jump\t// in\n    tag_482:\n        /* \"#utility.yul\":18680:18705   */\n      swap2\n      pop\n        /* \"#utility.yul\":18719:18739   */\n      tag_483\n        /* \"#utility.yul\":18737:18738   */\n      dup4\n        /* \"#utility.yul\":18719:18739   */\n      tag_421\n      jump\t// in\n    tag_483:\n        /* \"#utility.yul\":18714:18739   */\n      swap3\n      pop\n        /* \"#utility.yul\":18873:18874   */\n      dup3\n        /* \"#utility.yul\":18805:18871   */\n      0xffffffffffffffffffffffffffffffffffffffffffffffffffffffffffffffff\n        /* \"#utility.yul\":18801:18875   */\n      sub\n        /* \"#utility.yul\":18798:18799   */\n      dup3\n        /* \"#utility.yul\":18795:18876   */\n      gt\n        /* \"#utility.yul\":18792:18794   */\n      iszero\n      tag_484\n      jumpi\n        /* \"#utility.yul\":18879:18897   */\n      tag_485\n      tag_486\n      jump\t// in\n    tag_485:\n        /* \"#utility.yul\":18792:18794   */\n    tag_484:\n        /* \"#utility.yul\":18923:18924   */\n      dup3\n        /* \"#utility.yul\":18920:18921   */\n      dup3\n        /* \"#utility.yul\":18916:18925   */\n      add\n        /* \"#utility.yul\":18909:18925   */\n      swap1\n      pop\n        /* \"#utility.yul\":18670:18931   */\n      swap3\n      swap2\n      pop\n      pop\n      jump\t// out\n        /* \"#utility.yul\":18937:19285   */\n    tag_142:\n      0x00\n        /* \"#utility.yul\":19000:19020   */\n      tag_488\n        /* \"#utility.yul\":19018:19019   */\n      dup3\n        /* \"#utility.yul\":19000:19020   */\n      tag_421\n      jump\t// in\n    tag_488:\n        /* \"#utility.yul\":18995:19020   */\n      swap2\n      pop\n        /* \"#utility.yul\":19034:19054   */\n      tag_489\n        /* \"#utility.yul\":19052:19053   */\n      dup4\n        /* \"#utility.yul\":19034:19054   */\n      tag_421\n      jump\t// in\n    tag_489:\n        /* \"#utility.yul\":19029:19054   */\n      swap3\n      pop\n        /* \"#utility.yul\":19222:19223   */\n      dup2\n        /* \"#utility.yul\":19154:19220   */\n      0xffffffffffffffffffffffffffffffffffffffffffffffffffffffffffffffff\n        /* \"#utility.yul\":19150:19224   */\n      div\n        /* \"#utility.yul\":19147:19148   */\n      dup4\n        /* \"#utility.yul\":19144:19225   */\n      gt\n        /* \"#utility.yul\":19139:19140   */\n      dup3\n        /* \"#utility.yul\":19132:19141   */\n      iszero\n        /* \"#utility.yul\":19125:19142   */\n      iszero\n        /* \"#utility.yul\":19121:19226   */\n      and\n        /* \"#utility.yul\":19118:19120   */\n      iszero\n      tag_490\n      jumpi\n        /* \"#utility.yul\":19229:19247   */\n      tag_491\n      tag_486\n      jump\t// in\n    tag_491:\n        /* \"#utility.yul\":19118:19120   */\n    tag_490:\n        /* \"#utility.yul\":19277:19278   */\n      dup3\n        /* \"#utility.yul\":19274:19275   */\n      dup3\n        /* \"#utility.yul\":19270:19279   */\n      mul\n        /* \"#utility.yul\":19259:19279   */\n      swap1\n      pop\n        /* \"#utility.yul\":18985:19285   */\n      swap3\n      swap2\n      pop\n      pop\n      jump\t// out\n        /* \"#utility.yul\":19291:19482   */\n    tag_186:\n      0x00\n        /* \"#utility.yul\":19351:19371   */\n      tag_493\n        /* \"#utility.yul\":19369:19370   */\n      dup3\n        /* \"#utility.yul\":19351:19371   */\n      tag_421\n      jump\t// in\n    tag_493:\n        /* \"#utility.yul\":19346:19371   */\n      swap2\n      pop\n        /* \"#utility.yul\":19385:19405   */\n      tag_494\n        /* \"#utility.yul\":19403:19404   */\n      dup4\n        /* \"#utility.yul\":19385:19405   */\n      tag_421\n      jump\t// in\n    tag_494:\n        /* \"#utility.yul\":19380:19405   */\n      swap3\n      pop\n        /* \"#utility.yul\":19424:19425   */\n      dup3\n        /* \"#utility.yul\":19421:19422   */\n      dup3\n        /* \"#utility.yul\":19418:19426   */\n      lt\n        /* \"#utility.yul\":19415:19417   */\n      iszero\n      tag_495\n      jumpi\n        /* \"#utility.yul\":19429:19447   */\n      tag_496\n      tag_486\n      jump\t// in\n    tag_496:\n        /* \"#utility.yul\":19415:19417   */\n    tag_495:\n        /* \"#utility.yul\":19474:19475   */\n      dup3\n        /* \"#utility.yul\":19471:19472   */\n      dup3\n        /* \"#utility.yul\":19467:19476   */\n      sub\n        /* \"#utility.yul\":19459:19476   */\n      swap1\n      pop\n        /* \"#utility.yul\":19336:19482   */\n      swap3\n      swap2\n      pop\n      pop\n      jump\t// out\n        /* \"#utility.yul\":19488:19584   */\n    tag_319:\n      0x00\n        /* \"#utility.yul\":19554:19578   */\n      tag_498\n        /* \"#utility.yul\":19572:19577   */\n      dup3\n        /* \"#utility.yul\":19554:19578   */\n      tag_499\n      jump\t// in\n    tag_498:\n        /* \"#utility.yul\":19543:19578   */\n      swap1\n      pop\n        /* \"#utility.yul\":19533:19584   */\n      swap2\n      swap1\n      pop\n      jump\t// out\n        /* \"#utility.yul\":19590:19680   */\n    tag_337:\n      0x00\n        /* \"#utility.yul\":19667:19672   */\n      dup2\n        /* \"#utility.yul\":19660:19673   */\n      iszero\n        /* \"#utility.yul\":19653:19674   */\n      iszero\n        /* \"#utility.yul\":19642:19674   */\n      swap1\n      pop\n        /* \"#utility.yul\":19632:19680   */\n      swap2\n      swap1\n      pop\n      jump\t// out\n        /* \"#utility.yul\":19686:19829   */\n    tag_501:\n      0x00\n        /* \"#utility.yul\":19768:19773   */\n      dup2\n        /* \"#utility.yul\":19757:19773   */\n      swap1\n      pop\n        /* \"#utility.yul\":19774:19823   */\n      tag_503\n        /* \"#utility.yul\":19817:19822   */\n      dup3\n        /* \"#utility.yul\":19774:19823   */\n      tag_504\n      jump\t// in\n    tag_503:\n        /* \"#utility.yul\":19747:19829   */\n      swap2\n      swap1\n      pop\n      jump\t// out\n        /* \"#utility.yul\":19835:19961   */\n    tag_499:\n      0x00\n        /* \"#utility.yul\":19912:19954   */\n      0xffffffffffffffffffffffffffffffffffffffff\n        /* \"#utility.yul\":19905:19910   */\n      dup3\n        /* \"#utility.yul\":19901:19955   */\n      and\n        /* \"#utility.yul\":19890:19955   */\n      swap1\n      pop\n        /* \"#utility.yul\":19880:19961   */\n      swap2\n      swap1\n      pop\n      jump\t// out\n        /* \"#utility.yul\":19967:20044   */\n    tag_421:\n      0x00\n        /* \"#utility.yul\":20033:20038   */\n      dup2\n        /* \"#utility.yul\":20022:20038   */\n      swap1\n      pop\n        /* \"#utility.yul\":20012:20044   */\n      swap2\n      swap1\n      pop\n      jump\t// out\n        /* \"#utility.yul\":20050:20193   */\n    tag_341:\n      0x00\n        /* \"#utility.yul\":20147:20187   */\n      tag_508\n        /* \"#utility.yul\":20181:20186   */\n      dup3\n        /* \"#utility.yul\":20147:20187   */\n      tag_501\n      jump\t// in\n    tag_508:\n        /* \"#utility.yul\":20134:20187   */\n      swap1\n      pop\n        /* \"#utility.yul\":20124:20193   */\n      swap2\n      swap1\n      pop\n      jump\t// out\n        /* \"#utility.yul\":20199:20353   */\n    tag_284:\n        /* \"#utility.yul\":20283:20289   */\n      dup3\n        /* \"#utility.yul\":20278:20281   */\n      dup2\n        /* \"#utility.yul\":20273:20276   */\n      dup4\n        /* \"#utility.yul\":20260:20290   */\n      calldatacopy\n        /* \"#utility.yul\":20345:20346   */\n      0x00\n        /* \"#utility.yul\":20336:20342   */\n      dup4\n        /* \"#utility.yul\":20331:20334   */\n      dup4\n        /* \"#utility.yul\":20327:20343   */\n      add\n        /* \"#utility.yul\":20320:20347   */\n      mstore\n        /* \"#utility.yul\":20250:20353   */\n      pop\n      pop\n      pop\n      jump\t// out\n        /* \"#utility.yul\":20359:20666   */\n    tag_349:\n        /* \"#utility.yul\":20427:20428   */\n      0x00\n        /* \"#utility.yul\":20437:20550   */\n    tag_511:\n        /* \"#utility.yul\":20451:20457   */\n      dup4\n        /* \"#utility.yul\":20448:20449   */\n      dup2\n        /* \"#utility.yul\":20445:20458   */\n      lt\n        /* \"#utility.yul\":20437:20550   */\n      iszero\n      tag_513\n      jumpi\n        /* \"#utility.yul\":20536:20537   */\n      dup1\n        /* \"#utility.yul\":20531:20534   */\n      dup3\n        /* \"#utility.yul\":20527:20538   */\n      add\n        /* \"#utility.yul\":20521:20539   */\n      mload\n        /* \"#utility.yul\":20517:20518   */\n      dup2\n        /* \"#utility.yul\":20512:20515   */\n      dup5\n        /* \"#utility.yul\":20508:20519   */\n      add\n        /* \"#utility.yul\":20501:20540   */\n      mstore\n        /* \"#utility.yul\":20473:20475   */\n      0x20\n        /* \"#utility.yul\":20470:20471   */\n      dup2\n        /* \"#utility.yul\":20466:20476   */\n      add\n        /* \"#utility.yul\":20461:20476   */\n      swap1\n      pop\n        /* \"#utility.yul\":20437:20550   */\n      jump(tag_511)\n    tag_513:\n        /* \"#utility.yul\":20568:20574   */\n      dup4\n        /* \"#utility.yul\":20565:20566   */\n      dup2\n        /* \"#utility.yul\":20562:20575   */\n      gt\n        /* \"#utility.yul\":20559:20561   */\n      iszero\n      tag_514\n      jumpi\n        /* \"#utility.yul\":20648:20649   */\n      0x00\n        /* \"#utility.yul\":20639:20645   */\n      dup5\n        /* \"#utility.yul\":20634:20637   */\n      dup5\n        /* \"#utility.yul\":20630:20646   */\n      add\n        /* \"#utility.yul\":20623:20650   */\n      mstore\n        /* \"#utility.yul\":20559:20561   */\n    tag_514:\n        /* \"#utility.yul\":20408:20666   */\n      pop\n      pop\n      pop\n      pop\n      jump\t// out\n        /* \"#utility.yul\":20672:20992   */\n    tag_113:\n      0x00\n        /* \"#utility.yul\":20753:20754   */\n      0x02\n        /* \"#utility.yul\":20747:20751   */\n      dup3\n        /* \"#utility.yul\":20743:20755   */\n      div\n        /* \"#utility.yul\":20733:20755   */\n      swap1\n      pop\n        /* \"#utility.yul\":20800:20801   */\n      0x01\n        /* \"#utility.yul\":20794:20798   */\n      dup3\n        /* \"#utility.yul\":20790:20802   */\n      and\n        /* \"#utility.yul\":20821:20839   */\n      dup1\n        /* \"#utility.yul\":20811:20813   */\n      tag_516\n      jumpi\n        /* \"#utility.yul\":20877:20881   */\n      0x7f\n        /* \"#utility.yul\":20869:20875   */\n      dup3\n        /* \"#utility.yul\":20865:20882   */\n      and\n        /* \"#utility.yul\":20855:20882   */\n      swap2\n      pop\n        /* \"#utility.yul\":20811:20813   */\n    tag_516:\n        /* \"#utility.yul\":20939:20941   */\n      0x20\n        /* \"#utility.yul\":20931:20937   */\n      dup3\n        /* \"#utility.yul\":20928:20942   */\n      lt\n        /* \"#utility.yul\":20908:20926   */\n      dup2\n        /* \"#utility.yul\":20905:20943   */\n      eq\n        /* \"#utility.yul\":20902:20904   */\n      iszero\n      tag_517\n      jumpi\n        /* \"#utility.yul\":20958:20976   */\n      tag_518\n      tag_519\n      jump\t// in\n    tag_518:\n        /* \"#utility.yul\":20902:20904   */\n    tag_517:\n        /* \"#utility.yul\":20723:20992   */\n      pop\n      swap2\n      swap1\n      pop\n      jump\t// out\n        /* \"#utility.yul\":20998:21279   */\n    tag_467:\n        /* \"#utility.yul\":21081:21108   */\n      tag_521\n        /* \"#utility.yul\":21103:21107   */\n      dup3\n        /* \"#utility.yul\":21081:21108   */\n      tag_351\n      jump\t// in\n    tag_521:\n        /* \"#utility.yul\":21073:21079   */\n      dup2\n        /* \"#utility.yul\":21069:21109   */\n      add\n        /* \"#utility.yul\":21211:21217   */\n      dup2\n        /* \"#utility.yul\":21199:21209   */\n      dup2\n        /* \"#utility.yul\":21196:21218   */\n      lt\n        /* \"#utility.yul\":21175:21193   */\n      0xffffffffffffffff\n        /* \"#utility.yul\":21163:21173   */\n      dup3\n        /* \"#utility.yul\":21160:21194   */\n      gt\n        /* \"#utility.yul\":21157:21219   */\n      or\n        /* \"#utility.yul\":21154:21156   */\n      iszero\n      tag_522\n      jumpi\n        /* \"#utility.yul\":21222:21240   */\n      tag_523\n      tag_472\n      jump\t// in\n    tag_523:\n        /* \"#utility.yul\":21154:21156   */\n    tag_522:\n        /* \"#utility.yul\":21262:21272   */\n      dup1\n        /* \"#utility.yul\":21258:21260   */\n      0x40\n        /* \"#utility.yul\":21251:21273   */\n      mstore\n        /* \"#utility.yul\":21041:21279   */\n      pop\n      pop\n      pop\n      jump\t// out\n        /* \"#utility.yul\":21285:21518   */\n    tag_234:\n      0x00\n        /* \"#utility.yul\":21347:21371   */\n      tag_525\n        /* \"#utility.yul\":21365:21370   */\n      dup3\n        /* \"#utility.yul\":21347:21371   */\n      tag_421\n      jump\t// in\n    tag_525:\n        /* \"#utility.yul\":21338:21371   */\n      swap2\n      pop\n        /* \"#utility.yul\":21393:21459   */\n      0xffffffffffffffffffffffffffffffffffffffffffffffffffffffffffffffff\n        /* \"#utility.yul\":21386:21391   */\n      dup3\n        /* \"#utility.yul\":21383:21460   */\n      eq\n        /* \"#utility.yul\":21380:21382   */\n      iszero\n      tag_526\n      jumpi\n        /* \"#utility.yul\":21463:21481   */\n      tag_527\n      tag_486\n      jump\t// in\n    tag_527:\n        /* \"#utility.yul\":21380:21382   */\n    tag_526:\n        /* \"#utility.yul\":21510:21511   */\n      0x01\n        /* \"#utility.yul\":21503:21508   */\n      dup3\n        /* \"#utility.yul\":21499:21512   */\n      add\n        /* \"#utility.yul\":21492:21512   */\n      swap1\n      pop\n        /* \"#utility.yul\":21328:21518   */\n      swap2\n      swap1\n      pop\n      jump\t// out\n        /* \"#utility.yul\":21524:21704   */\n    tag_486:\n        /* \"#utility.yul\":21572:21649   */\n      0x4e487b7100000000000000000000000000000000000000000000000000000000\n        /* \"#utility.yul\":21569:21570   */\n      0x00\n        /* \"#utility.yul\":21562:21650   */\n      mstore\n        /* \"#utility.yul\":21669:21673   */\n      0x11\n        /* \"#utility.yul\":21666:21667   */\n      0x04\n        /* \"#utility.yul\":21659:21674   */\n      mstore\n        /* \"#utility.yul\":21693:21697   */\n      0x24\n        /* \"#utility.yul\":21690:21691   */\n      0x00\n        /* \"#utility.yul\":21683:21698   */\n      revert\n        /* \"#utility.yul\":21710:21890   */\n    tag_529:\n        /* \"#utility.yul\":21758:21835   */\n      0x4e487b7100000000000000000000000000000000000000000000000000000000\n        /* \"#utility.yul\":21755:21756   */\n      0x00\n        /* \"#utility.yul\":21748:21836   */\n      mstore\n        /* \"#utility.yul\":21855:21859   */\n      0x21\n        /* \"#utility.yul\":21852:21853   */\n      0x04\n        /* \"#utility.yul\":21845:21860   */\n      mstore\n        /* \"#utility.yul\":21879:21883   */\n      0x24\n        /* \"#utility.yul\":21876:21877   */\n      0x00\n        /* \"#utility.yul\":21869:21884   */\n      revert\n        /* \"#utility.yul\":21896:22076   */\n    tag_519:\n        /* \"#utility.yul\":21944:22021   */\n      0x4e487b7100000000000000000000000000000000000000000000000000000000\n        /* \"#utility.yul\":21941:21942   */\n      0x00\n        /* \"#utility.yul\":21934:22022   */\n      mstore\n        /* \"#utility.yul\":22041:22045   */\n      0x22\n        /* \"#utility.yul\":22038:22039   */\n      0x04\n        /* \"#utility.yul\":22031:22046   */\n      mstore\n        /* \"#utility.yul\":22065:22069   */\n      0x24\n        /* \"#utility.yul\":22062:22063   */\n      0x00\n        /* \"#utility.yul\":22055:22070   */\n      revert\n        /* \"#utility.yul\":22082:22262   */\n    tag_472:\n        /* \"#utility.yul\":22130:22207   */\n      0x4e487b7100000000000000000000000000000000000000000000000000000000\n        /* \"#utility.yul\":22127:22128   */\n      0x00\n        /* \"#utility.yul\":22120:22208   */\n      mstore\n        /* \"#utility.yul\":22227:22231   */\n      0x41\n        /* \"#utility.yul\":22224:22225   */\n      0x04\n        /* \"#utility.yul\":22217:22232   */\n      mstore\n        /* \"#utility.yul\":22251:22255   */\n      0x24\n        /* \"#utility.yul\":22248:22249   */\n      0x00\n        /* \"#utility.yul\":22241:22256   */\n      revert\n        /* \"#utility.yul\":22268:22370   */\n    tag_351:\n      0x00\n        /* \"#utility.yul\":22360:22362   */\n      0x1f\n        /* \"#utility.yul\":22356:22363   */\n      not\n        /* \"#utility.yul\":22351:22353   */\n      0x1f\n        /* \"#utility.yul\":22344:22349   */\n      dup4\n        /* \"#utility.yul\":22340:22354   */\n      add\n        /* \"#utility.yul\":22336:22364   */\n      and\n        /* \"#utility.yul\":22326:22364   */\n      swap1\n      pop\n        /* \"#utility.yul\":22316:22370   */\n      swap2\n      swap1\n      pop\n      jump\t// out\n        /* \"#utility.yul\":22376:22538   */\n    tag_363:\n        /* \"#utility.yul\":22516:22530   */\n      0x496e76616c696420746965720000000000000000000000000000000000000000\n        /* \"#utility.yul\":22512:22513   */\n      0x00\n        /* \"#utility.yul\":22504:22510   */\n      dup3\n        /* \"#utility.yul\":22500:22514   */\n      add\n        /* \"#utility.yul\":22493:22531   */\n      mstore\n        /* \"#utility.yul\":22482:22538   */\n      pop\n      jump\t// out\n        /* \"#utility.yul\":22544:22714   */\n    tag_368:\n        /* \"#utility.yul\":22684:22706   */\n      0x526566756e64206e6f7420617661696c61626c65000000000000000000000000\n        /* \"#utility.yul\":22680:22681   */\n      0x00\n        /* \"#utility.yul\":22672:22678   */\n      dup3\n        /* \"#utility.yul\":22668:22682   */\n      add\n        /* \"#utility.yul\":22661:22707   */\n      mstore\n        /* \"#utility.yul\":22650:22714   */\n      pop\n      jump\t// out\n        /* \"#utility.yul\":22720:22899   */\n    tag_373:\n        /* \"#utility.yul\":22860:22891   */\n      0x416d6f756e74206d7573742062652067726561746572207468616e2030000000\n        /* \"#utility.yul\":22856:22857   */\n      0x00\n        /* \"#utility.yul\":22848:22854   */\n      dup3\n        /* \"#utility.yul\":22844:22858   */\n      add\n        /* \"#utility.yul\":22837:22892   */\n      mstore\n        /* \"#utility.yul\":22826:22899   */\n      pop\n      jump\t// out\n        /* \"#utility.yul\":22905:23074   */\n    tag_378:\n        /* \"#utility.yul\":23045:23066   */\n      0x5469657220646f6573206e6f7420657869737400000000000000000000000000\n        /* \"#utility.yul\":23041:23042   */\n      0x00\n        /* \"#utility.yul\":23033:23039   */\n      dup3\n        /* \"#utility.yul\":23029:23043   */\n      add\n        /* \"#utility.yul\":23022:23067   */\n      mstore\n        /* \"#utility.yul\":23011:23074   */\n      pop\n      jump\t// out\n        /* \"#utility.yul\":23080:23243   */\n    tag_383:\n        /* \"#utility.yul\":23220:23235   */\n      0x4e6f7420746865206f776e657200000000000000000000000000000000000000\n        /* \"#utility.yul\":23216:23217   */\n      0x00\n        /* \"#utility.yul\":23208:23214   */\n      dup3\n        /* \"#utility.yul\":23204:23218   */\n      add\n        /* \"#utility.yul\":23197:23236   */\n      mstore\n        /* \"#utility.yul\":23186:23243   */\n      pop\n      jump\t// out\n        /* \"#utility.yul\":23249:23421   */\n    tag_388:\n        /* \"#utility.yul\":23389:23413   */\n      0x43616d706169676e206973206e6f742061637469766500000000000000000000\n        /* \"#utility.yul\":23385:23386   */\n      0x00\n        /* \"#utility.yul\":23377:23383   */\n      dup3\n        /* \"#utility.yul\":23373:23387   */\n      add\n        /* \"#utility.yul\":23366:23414   */\n      mstore\n        /* \"#utility.yul\":23355:23421   */\n      pop\n      jump\t// out\n        /* \"#utility.yul\":23427:23602   */\n    tag_393:\n        /* \"#utility.yul\":23567:23594   */\n      0x4e6f20636f6e747269627574696f6e20746f20726566756e6400000000000000\n        /* \"#utility.yul\":23563:23564   */\n      0x00\n        /* \"#utility.yul\":23555:23561   */\n      dup3\n        /* \"#utility.yul\":23551:23565   */\n      add\n        /* \"#utility.yul\":23544:23595   */\n      mstore\n        /* \"#utility.yul\":23533:23602   */\n      pop\n      jump\t// out\n        /* \"#utility.yul\":23608:23780   */\n    tag_398:\n        /* \"#utility.yul\":23748:23772   */\n      0x4e6f2062616c616e636520746f20776974686472617700000000000000000000\n        /* \"#utility.yul\":23744:23745   */\n      0x00\n        /* \"#utility.yul\":23736:23742   */\n      dup3\n        /* \"#utility.yul\":23732:23746   */\n      add\n        /* \"#utility.yul\":23725:23773   */\n      mstore\n        /* \"#utility.yul\":23714:23780   */\n      pop\n      jump\t// out\n        /* \"#utility.yul\":23786:23959   */\n    tag_403:\n        /* \"#utility.yul\":23926:23951   */\n      0x43616d706169676e206e6f74207375636365737366756c000000000000000000\n        /* \"#utility.yul\":23922:23923   */\n      0x00\n        /* \"#utility.yul\":23914:23920   */\n      dup3\n        /* \"#utility.yul\":23910:23924   */\n      add\n        /* \"#utility.yul\":23903:23952   */\n      mstore\n        /* \"#utility.yul\":23892:23959   */\n      pop\n      jump\t// out\n        /* \"#utility.yul\":23965:24133   */\n    tag_408:\n        /* \"#utility.yul\":24105:24125   */\n      0x436f6e7472616374206973207061757365640000000000000000000000000000\n        /* \"#utility.yul\":24101:24102   */\n      0x00\n        /* \"#utility.yul\":24093:24099   */\n      dup3\n        /* \"#utility.yul\":24089:24103   */\n      add\n        /* \"#utility.yul\":24082:24126   */\n      mstore\n        /* \"#utility.yul\":24071:24133   */\n      pop\n      jump\t// out\n        /* \"#utility.yul\":24139:24305   */\n    tag_413:\n        /* \"#utility.yul\":24279:24297   */\n      0x496e636f727265637420616d6f756e7400000000000000000000000000000000\n        /* \"#utility.yul\":24275:24276   */\n      0x00\n        /* \"#utility.yul\":24267:24273   */\n      dup3\n        /* \"#utility.yul\":24263:24277   */\n      add\n        /* \"#utility.yul\":24256:24298   */\n      mstore\n        /* \"#utility.yul\":24245:24305   */\n      pop\n      jump\t// out\n        /* \"#utility.yul\":24311:24432   */\n    tag_504:\n        /* \"#utility.yul\":24400:24401   */\n      0x03\n        /* \"#utility.yul\":24393:24398   */\n      dup2\n        /* \"#utility.yul\":24390:24402   */\n      lt\n        /* \"#utility.yul\":24380:24382   */\n      tag_546\n      jumpi\n        /* \"#utility.yul\":24406:24424   */\n      tag_547\n      tag_529\n      jump\t// in\n    tag_547:\n        /* \"#utility.yul\":24380:24382   */\n    tag_546:\n        /* \"#utility.yul\":24370:24432   */\n      pop\n      jump\t// out\n        /* \"#utility.yul\":24438:24560   */\n    tag_288:\n        /* \"#utility.yul\":24511:24535   */\n      tag_549\n        /* \"#utility.yul\":24529:24534   */\n      dup2\n        /* \"#utility.yul\":24511:24535   */\n      tag_319\n      jump\t// in\n    tag_549:\n        /* \"#utility.yul\":24504:24509   */\n      dup2\n        /* \"#utility.yul\":24501:24536   */\n      eq\n        /* \"#utility.yul\":24491:24493   */\n      tag_550\n      jumpi\n        /* \"#utility.yul\":24550:24551   */\n      0x00\n        /* \"#utility.yul\":24547:24548   */\n      dup1\n        /* \"#utility.yul\":24540:24552   */\n      revert\n        /* \"#utility.yul\":24491:24493   */\n    tag_550:\n        /* \"#utility.yul\":24481:24560   */\n      pop\n      jump\t// out\n        /* \"#utility.yul\":24566:24688   */\n    tag_296:\n        /* \"#utility.yul\":24639:24663   */\n      tag_552\n        /* \"#utility.yul\":24657:24662   */\n      dup2\n        /* \"#utility.yul\":24639:24663   */\n      tag_421\n      jump\t// in\n    tag_552:\n        /* \"#utility.yul\":24632:24637   */\n      dup2\n        /* \"#utility.yul\":24629:24664   */\n      eq\n        /* \"#utility.yul\":24619:24621   */\n      tag_553\n      jumpi\n        /* \"#utility.yul\":24678:24679   */\n      0x00\n        /* \"#utility.yul\":24675:24676   */\n      dup1\n        /* \"#utility.yul\":24668:24680   */\n      revert\n        /* \"#utility.yul\":24619:24621   */\n    tag_553:\n        /* \"#utility.yul\":24609:24688   */\n      pop\n      jump\t// out\n\n    auxdata: 0xa2646970667358221220999e3191eae34b68d99f076c26582c301e7615ab3eaaf4e59a6b79ca79d9483a64736f6c63430008030033\n}\n",
				"bytecode": {
					"linkReferences": {},
					"object": "60806040523480156200001157600080fd5b5060405162002acb38038062002acb833981810160405281019062000037919062000282565b83600090805190602001906200004f92919062000132565b5082600190805190602001906200006892919062000132565b50816002819055506201518081620000819190620003f2565b426200008e919062000395565b60038190555084600460006101000a81548173ffffffffffffffffffffffffffffffffffffffff021916908373ffffffffffffffffffffffffffffffffffffffff1602179055506000600460156101000a81548160ff0219169083600281111562000122577f4e487b7100000000000000000000000000000000000000000000000000000000600052602160045260246000fd5b0217905550505050505062000605565b8280546200014090620004c7565b90600052602060002090601f016020900481019282620001645760008555620001b0565b82601f106200017f57805160ff1916838001178555620001b0565b82800160010185558215620001b0579182015b82811115620001af57825182559160200191906001019062000192565b5b509050620001bf9190620001c3565b5090565b5b80821115620001de576000816000905550600101620001c4565b5090565b6000620001f9620001f3846200035f565b62000336565b9050828152602081018484840111156200021257600080fd5b6200021f84828562000491565b509392505050565b6000815190506200023881620005d1565b92915050565b600082601f8301126200025057600080fd5b815162000262848260208601620001e2565b91505092915050565b6000815190506200027c81620005eb565b92915050565b600080600080600060a086880312156200029b57600080fd5b6000620002ab8882890162000227565b955050602086015167ffffffffffffffff811115620002c957600080fd5b620002d7888289016200023e565b945050604086015167ffffffffffffffff811115620002f557600080fd5b62000303888289016200023e565b935050606062000316888289016200026b565b925050608062000329888289016200026b565b9150509295509295909350565b60006200034262000355565b9050620003508282620004fd565b919050565b6000604051905090565b600067ffffffffffffffff8211156200037d576200037c62000591565b5b6200038882620005c0565b9050602081019050919050565b6000620003a28262000487565b9150620003af8362000487565b9250827fffffffffffffffffffffffffffffffffffffffffffffffffffffffffffffffff03821115620003e757620003e662000533565b5b828201905092915050565b6000620003ff8262000487565b91506200040c8362000487565b9250817fffffffffffffffffffffffffffffffffffffffffffffffffffffffffffffffff048311821515161562000448576200044762000533565b5b828202905092915050565b6000620004608262000467565b9050919050565b600073ffffffffffffffffffffffffffffffffffffffff82169050919050565b6000819050919050565b60005b83811015620004b157808201518184015260208101905062000494565b83811115620004c1576000848401525b50505050565b60006002820490506001821680620004e057607f821691505b60208210811415620004f757620004f662000562565b5b50919050565b6200050882620005c0565b810181811067ffffffffffffffff821117156200052a576200052962000591565b5b80604052505050565b7f4e487b7100000000000000000000000000000000000000000000000000000000600052601160045260246000fd5b7f4e487b7100000000000000000000000000000000000000000000000000000000600052602260045260246000fd5b7f4e487b7100000000000000000000000000000000000000000000000000000000600052604160045260246000fd5b6000601f19601f8301169050919050565b620005dc8162000453565b8114620005e857600080fd5b50565b620005f68162000487565b81146200060257600080fd5b50565b6124b680620006156000396000f3fe6080604052600436106101145760003560e01c80637284e416116100a0578063b85dfb8011610064578063b85dfb801461036b578063c19d93fb146103a8578063c4ae3168146103d3578063ca1d209d146103ea578063de1705701461040657610114565b80637284e416146102865780637497211b146102b15780637adba527146102da5780638da5cb5b146103175780638ece7b911461034257610114565b8063389b7533116100e7578063389b7533146101d95780633ccfd60b146102025780634019388314610219578063590e1ae3146102445780635c975abb1461025b57610114565b8063039af9eb1461011957806306fdde0314610158578063105505151461018357806329dcb0cf146101ae575b600080fd5b34801561012557600080fd5b50610140600480360381019061013b9190611925565b610431565b60405161014f93929190611cfa565b60405180910390f35b34801561016457600080fd5b5061016d6104f3565b60405161017a9190611cd8565b60405180910390f35b34801561018f57600080fd5b50610198610581565b6040516101a59190611cbd565b60405180910390f35b3480156101ba57600080fd5b506101c3610648565b6040516101d09190611e98565b60405180910390f35b3480156101e557600080fd5b5061020060048036038101906101fb9190611925565b61064e565b005b34801561020e57600080fd5b506102176107ca565b005b34801561022557600080fd5b5061022e6109d8565b60405161023b9190611e98565b60405180910390f35b34801561025057600080fd5b506102596109de565b005b34801561026757600080fd5b50610270610bc3565b60405161027d9190611ca2565b60405180910390f35b34801561029257600080fd5b5061029b610bd6565b6040516102a89190611cd8565b60405180910390f35b3480156102bd57600080fd5b506102d860048036038101906102d39190611925565b610c64565b005b3480156102e657600080fd5b5061030160048036038101906102fc9190611895565b610e87565b60405161030e9190611ca2565b60405180910390f35b34801561032357600080fd5b5061032c610ef2565b6040516103399190611c65565b60405180910390f35b34801561034e57600080fd5b50610369600480360381019061036491906118d1565b610f18565b005b34801561037757600080fd5b50610392600480360381019061038d919061186c565b611069565b60405161039f9190611e98565b60405180910390f35b3480156103b457600080fd5b506103bd611087565b6040516103ca9190611cbd565b60405180910390f35b3480156103df57600080fd5b506103e861109a565b005b61040460048036038101906103ff9190611925565b611156565b005b34801561041257600080fd5b5061041b61146d565b6040516104289190611c80565b60405180910390f35b6005818154811061044157600080fd5b906000526020600020906003020160009150905080600001805461046490612102565b80601f016020809104026020016040519081016040528092919081815260200182805461049090612102565b80156104dd5780601f106104b2576101008083540402835291602001916104dd565b820191906000526020600020905b8154815290600101906020018083116104c057829003601f168201915b5050505050908060010154908060020154905083565b6000805461050090612102565b80601f016020809104026020016040519081016040528092919081815260200182805461052c90612102565b80156105795780601f1061054e57610100808354040283529160200191610579565b820191906000526020600020905b81548152906001019060200180831161055c57829003601f168201915b505050505081565b60008060028111156105bc577f4e487b7100000000000000000000000000000000000000000000000000000000600052602160045260246000fd5b600460159054906101000a900460ff166002811115610604577f4e487b7100000000000000000000000000000000000000000000000000000000600052602160045260246000fd5b148015610612575060035442115b156106325760025447101561062857600261062b565b60015b9050610645565b600460159054906101000a900460ff1690505b90565b60035481565b600460009054906101000a900473ffffffffffffffffffffffffffffffffffffffff1673ffffffffffffffffffffffffffffffffffffffff163373ffffffffffffffffffffffffffffffffffffffff16146106de576040517f08c379a00000000000000000000000000000000000000000000000000000000081526004016106d590611db8565b60405180910390fd5b60006002811115610718577f4e487b7100000000000000000000000000000000000000000000000000000000600052602160045260246000fd5b600460159054906101000a900460ff166002811115610760577f4e487b7100000000000000000000000000000000000000000000000000000000600052602160045260246000fd5b146107a0576040517f08c379a000000000000000000000000000000000000000000000000000000000815260040161079790611dd8565b60405180910390fd5b62015180816107af9190611fc5565b600360008282546107c09190611f6f565b9250508190555050565b600460009054906101000a900473ffffffffffffffffffffffffffffffffffffffff1673ffffffffffffffffffffffffffffffffffffffff163373ffffffffffffffffffffffffffffffffffffffff161461085a576040517f08c379a000000000000000000000000000000000000000000000000000000000815260040161085190611db8565b60405180910390fd5b610862611572565b6001600281111561089c577f4e487b7100000000000000000000000000000000000000000000000000000000600052602160045260246000fd5b600460159054906101000a900460ff1660028111156108e4577f4e487b7100000000000000000000000000000000000000000000000000000000600052602160045260246000fd5b14610924576040517f08c379a000000000000000000000000000000000000000000000000000000000815260040161091b90611e38565b60405180910390fd5b60004790506000811161096c576040517f08c379a000000000000000000000000000000000000000000000000000000000815260040161096390611e18565b60405180910390fd5b600460009054906101000a900473ffffffffffffffffffffffffffffffffffffffff1673ffffffffffffffffffffffffffffffffffffffff166108fc829081150290604051600060405180830381858888f193505050501580156109d4573d6000803e3d6000fd5b5050565b60025481565b6109e6611572565b600280811115610a1f577f4e487b7100000000000000000000000000000000000000000000000000000000600052602160045260246000fd5b600460159054906101000a900460ff166002811115610a67577f4e487b7100000000000000000000000000000000000000000000000000000000600052602160045260246000fd5b14610aa7576040517f08c379a0000000000000000000000000000000000000000000000000000000008152600401610a9e90611d58565b60405180910390fd5b6000600660003373ffffffffffffffffffffffffffffffffffffffff1673ffffffffffffffffffffffffffffffffffffffff16815260200190815260200160002060000154905060008111610b31576040517f08c379a0000000000000000000000000000000000000000000000000000000008152600401610b2890611df8565b60405180910390fd5b6000600660003373ffffffffffffffffffffffffffffffffffffffff1673ffffffffffffffffffffffffffffffffffffffff168152602001908152602001600020600001819055503373ffffffffffffffffffffffffffffffffffffffff166108fc829081150290604051600060405180830381858888f19350505050158015610bbf573d6000803e3d6000fd5b5050565b600460149054906101000a900460ff1681565b60018054610be390612102565b80601f0160208091040260200160405190810160405280929190818152602001828054610c0f90612102565b8015610c5c5780601f10610c3157610100808354040283529160200191610c5c565b820191906000526020600020905b815481529060010190602001808311610c3f57829003601f168201915b505050505081565b600460009054906101000a900473ffffffffffffffffffffffffffffffffffffffff1673ffffffffffffffffffffffffffffffffffffffff163373ffffffffffffffffffffffffffffffffffffffff1614610cf4576040517f08c379a0000000000000000000000000000000000000000000000000000000008152600401610ceb90611db8565b60405180910390fd5b6005805490508110610d3b576040517f08c379a0000000000000000000000000000000000000000000000000000000008152600401610d3290611d98565b60405180910390fd5b60056001600580549050610d4f919061201f565b81548110610d86577f4e487b7100000000000000000000000000000000000000000000000000000000600052603260045260246000fd5b906000526020600020906003020160058281548110610dce577f4e487b7100000000000000000000000000000000000000000000000000000000600052603260045260246000fd5b90600052602060002090600302016000820181600001908054610df090612102565b610dfb92919061166a565b5060018201548160010155600282015481600201559050506005805480610e4b577f4e487b7100000000000000000000000000000000000000000000000000000000600052603160045260246000fd5b600190038181906000526020600020906003020160008082016000610e7091906116f7565b600182016000905560028201600090555050905550565b6000600660008473ffffffffffffffffffffffffffffffffffffffff1673ffffffffffffffffffffffffffffffffffffffff168152602001908152602001600020600101600083815260200190815260200160002060009054906101000a900460ff16905092915050565b600460009054906101000a900473ffffffffffffffffffffffffffffffffffffffff1681565b600460009054906101000a900473ffffffffffffffffffffffffffffffffffffffff1673ffffffffffffffffffffffffffffffffffffffff163373ffffffffffffffffffffffffffffffffffffffff1614610fa8576040517f08c379a0000000000000000000000000000000000000000000000000000000008152600401610f9f90611db8565b60405180910390fd5b60008111610feb576040517f08c379a0000000000000000000000000000000000000000000000000000000008152600401610fe290611d78565b60405180910390fd5b6005604051806060016040528084815260200183815260200160008152509080600181540180825580915050600190039060005260206000209060030201600090919091909150600082015181600001908051906020019061104e929190611737565b50602082015181600101556040820151816002015550505050565b60066020528060005260406000206000915090508060000154905081565b600460159054906101000a900460ff1681565b600460009054906101000a900473ffffffffffffffffffffffffffffffffffffffff1673ffffffffffffffffffffffffffffffffffffffff163373ffffffffffffffffffffffffffffffffffffffff161461112a576040517f08c379a000000000000000000000000000000000000000000000000000000000815260040161112190611db8565b60405180910390fd5b600460149054906101000a900460ff1615600460146101000a81548160ff021916908315150217905550565b600460149054906101000a900460ff16156111a6576040517f08c379a000000000000000000000000000000000000000000000000000000000815260040161119d90611e58565b60405180910390fd5b600060028111156111e0577f4e487b7100000000000000000000000000000000000000000000000000000000600052602160045260246000fd5b600460159054906101000a900460ff166002811115611228577f4e487b7100000000000000000000000000000000000000000000000000000000600052602160045260246000fd5b14611268576040517f08c379a000000000000000000000000000000000000000000000000000000000815260040161125f90611dd8565b60405180910390fd5b60058054905081106112af576040517f08c379a00000000000000000000000000000000000000000000000000000000081526004016112a690611d38565b60405180910390fd5b600581815481106112e9577f4e487b7100000000000000000000000000000000000000000000000000000000600052603260045260246000fd5b906000526020600020906003020160010154341461133c576040517f08c379a000000000000000000000000000000000000000000000000000000000815260040161133390611e78565b60405180910390fd5b60058181548110611376577f4e487b7100000000000000000000000000000000000000000000000000000000600052603260045260246000fd5b9060005260206000209060030201600201600081548092919061139890612165565b919050555034600660003373ffffffffffffffffffffffffffffffffffffffff1673ffffffffffffffffffffffffffffffffffffffff16815260200190815260200160002060000160008282546113ef9190611f6f565b925050819055506001600660003373ffffffffffffffffffffffffffffffffffffffff1673ffffffffffffffffffffffffffffffffffffffff168152602001908152602001600020600101600083815260200190815260200160002060006101000a81548160ff02191690831515021790555061146a611572565b50565b60606005805480602002602001604051908101604052809291908181526020016000905b8282101561156957838290600052602060002090600302016040518060600160405290816000820180546114c490612102565b80601f01602080910402602001604051908101604052809291908181526020018280546114f090612102565b801561153d5780601f106115125761010080835404028352916020019161153d565b820191906000526020600020905b81548152906001019060200180831161152057829003601f168201915b505050505081526020016001820154815260200160028201548152505081526020019060010190611491565b50505050905090565b600060028111156115ac577f4e487b7100000000000000000000000000000000000000000000000000000000600052602160045260246000fd5b600460159054906101000a900460ff1660028111156115f4577f4e487b7100000000000000000000000000000000000000000000000000000000600052602160045260246000fd5b141561166857600354421061166757600254471015611614576002611617565b60015b600460156101000a81548160ff02191690836002811115611661577f4e487b7100000000000000000000000000000000000000000000000000000000600052602160045260246000fd5b02179055505b5b565b82805461167690612102565b90600052602060002090601f01602090048101928261169857600085556116e6565b82601f106116a957805485556116e6565b828001600101855582156116e657600052602060002091601f016020900482015b828111156116e55782548255916001019190600101906116ca565b5b5090506116f391906117bd565b5090565b50805461170390612102565b6000825580601f106117155750611734565b601f01602090049060005260206000209081019061173391906117bd565b5b50565b82805461174390612102565b90600052602060002090601f01602090048101928261176557600085556117ac565b82601f1061177e57805160ff19168380011785556117ac565b828001600101855582156117ac579182015b828111156117ab578251825591602001919060010190611790565b5b5090506117b991906117bd565b5090565b5b808211156117d65760008160009055506001016117be565b5090565b60006117ed6117e884611ed8565b611eb3565b90508281526020810184848401111561180557600080fd5b6118108482856120c0565b509392505050565b60008135905061182781612452565b92915050565b600082601f83011261183e57600080fd5b813561184e8482602086016117da565b91505092915050565b60008135905061186681612469565b92915050565b60006020828403121561187e57600080fd5b600061188c84828501611818565b91505092915050565b600080604083850312156118a857600080fd5b60006118b685828601611818565b92505060206118c785828601611857565b9150509250929050565b600080604083850312156118e457600080fd5b600083013567ffffffffffffffff8111156118fe57600080fd5b61190a8582860161182d565b925050602061191b85828601611857565b9150509250929050565b60006020828403121561193757600080fd5b600061194584828501611857565b91505092915050565b600061195a8383611bf7565b905092915050565b61196b81612053565b82525050565b600061197c82611f19565b6119868185611f3c565b93508360208202850161199885611f09565b8060005b858110156119d457848403895281516119b5858261194e565b94506119c083611f2f565b925060208a0199505060018101905061199c565b50829750879550505050505092915050565b6119ef81612065565b82525050565b6119fe816120ae565b82525050565b6000611a0f82611f24565b611a198185611f4d565b9350611a298185602086016120cf565b611a328161226a565b840191505092915050565b6000611a4882611f24565b611a528185611f5e565b9350611a628185602086016120cf565b611a6b8161226a565b840191505092915050565b6000611a83600c83611f5e565b9150611a8e8261227b565b602082019050919050565b6000611aa6601483611f5e565b9150611ab1826122a4565b602082019050919050565b6000611ac9601d83611f5e565b9150611ad4826122cd565b602082019050919050565b6000611aec601383611f5e565b9150611af7826122f6565b602082019050919050565b6000611b0f600d83611f5e565b9150611b1a8261231f565b602082019050919050565b6000611b32601683611f5e565b9150611b3d82612348565b602082019050919050565b6000611b55601983611f5e565b9150611b6082612371565b602082019050919050565b6000611b78601683611f5e565b9150611b838261239a565b602082019050919050565b6000611b9b601783611f5e565b9150611ba6826123c3565b602082019050919050565b6000611bbe601283611f5e565b9150611bc9826123ec565b602082019050919050565b6000611be1601083611f5e565b9150611bec82612415565b602082019050919050565b60006060830160008301518482036000860152611c148282611a04565b9150506020830151611c296020860182611c47565b506040830151611c3c6040860182611c47565b508091505092915050565b611c50816120a4565b82525050565b611c5f816120a4565b82525050565b6000602082019050611c7a6000830184611962565b92915050565b60006020820190508181036000830152611c9a8184611971565b905092915050565b6000602082019050611cb760008301846119e6565b92915050565b6000602082019050611cd260008301846119f5565b92915050565b60006020820190508181036000830152611cf28184611a3d565b905092915050565b60006060820190508181036000830152611d148186611a3d565b9050611d236020830185611c56565b611d306040830184611c56565b949350505050565b60006020820190508181036000830152611d5181611a76565b9050919050565b60006020820190508181036000830152611d7181611a99565b9050919050565b60006020820190508181036000830152611d9181611abc565b9050919050565b60006020820190508181036000830152611db181611adf565b9050919050565b60006020820190508181036000830152611dd181611b02565b9050919050565b60006020820190508181036000830152611df181611b25565b9050919050565b60006020820190508181036000830152611e1181611b48565b9050919050565b60006020820190508181036000830152611e3181611b6b565b9050919050565b60006020820190508181036000830152611e5181611b8e565b9050919050565b60006020820190508181036000830152611e7181611bb1565b9050919050565b60006020820190508181036000830152611e9181611bd4565b9050919050565b6000602082019050611ead6000830184611c56565b92915050565b6000611ebd611ece565b9050611ec98282612134565b919050565b6000604051905090565b600067ffffffffffffffff821115611ef357611ef261223b565b5b611efc8261226a565b9050602081019050919050565b6000819050602082019050919050565b600081519050919050565b600081519050919050565b6000602082019050919050565b600082825260208201905092915050565b600082825260208201905092915050565b600082825260208201905092915050565b6000611f7a826120a4565b9150611f85836120a4565b9250827fffffffffffffffffffffffffffffffffffffffffffffffffffffffffffffffff03821115611fba57611fb96121ae565b5b828201905092915050565b6000611fd0826120a4565b9150611fdb836120a4565b9250817fffffffffffffffffffffffffffffffffffffffffffffffffffffffffffffffff0483118215151615612014576120136121ae565b5b828202905092915050565b600061202a826120a4565b9150612035836120a4565b925082821015612048576120476121ae565b5b828203905092915050565b600061205e82612084565b9050919050565b60008115159050919050565b600081905061207f8261243e565b919050565b600073ffffffffffffffffffffffffffffffffffffffff82169050919050565b6000819050919050565b60006120b982612071565b9050919050565b82818337600083830152505050565b60005b838110156120ed5780820151818401526020810190506120d2565b838111156120fc576000848401525b50505050565b6000600282049050600182168061211a57607f821691505b6020821081141561212e5761212d61220c565b5b50919050565b61213d8261226a565b810181811067ffffffffffffffff8211171561215c5761215b61223b565b5b80604052505050565b6000612170826120a4565b91507fffffffffffffffffffffffffffffffffffffffffffffffffffffffffffffffff8214156121a3576121a26121ae565b5b600182019050919050565b7f4e487b7100000000000000000000000000000000000000000000000000000000600052601160045260246000fd5b7f4e487b7100000000000000000000000000000000000000000000000000000000600052602160045260246000fd5b7f4e487b7100000000000000000000000000000000000000000000000000000000600052602260045260246000fd5b7f4e487b7100000000000000000000000000000000000000000000000000000000600052604160045260246000fd5b6000601f19601f8301169050919050565b7f496e76616c696420746965720000000000000000000000000000000000000000600082015250565b7f526566756e64206e6f7420617661696c61626c65000000000000000000000000600082015250565b7f416d6f756e74206d7573742062652067726561746572207468616e2030000000600082015250565b7f5469657220646f6573206e6f7420657869737400000000000000000000000000600082015250565b7f4e6f7420746865206f776e657200000000000000000000000000000000000000600082015250565b7f43616d706169676e206973206e6f742061637469766500000000000000000000600082015250565b7f4e6f20636f6e747269627574696f6e20746f20726566756e6400000000000000600082015250565b7f4e6f2062616c616e636520746f20776974686472617700000000000000000000600082015250565b7f43616d706169676e206e6f74207375636365737366756c000000000000000000600082015250565b7f436f6e7472616374206973207061757365640000000000000000000000000000600082015250565b7f496e636f727265637420616d6f756e7400000000000000000000000000000000600082015250565b6003811061244f5761244e6121dd565b5b50565b61245b81612053565b811461246657600080fd5b50565b612472816120a4565b811461247d57600080fd5b5056fea2646970667358221220999e3191eae34b68d99f076c26582c301e7615ab3eaaf4e59a6b79ca79d9483a64736f6c63430008030033",
					"opcodes": "PUSH1 0x80 PUSH1 0x40 MSTORE CALLVALUE DUP1 ISZERO PUSH3 0x11 JUMPI PUSH1 0x0 DUP1 REVERT JUMPDEST POP PUSH1 0x40 MLOAD PUSH3 0x2ACB CODESIZE SUB DUP1 PUSH3 0x2ACB DUP4 CODECOPY DUP2 DUP2 ADD PUSH1 0x40 MSTORE DUP2 ADD SWAP1 PUSH3 0x37 SWAP2 SWAP1 PUSH3 0x282 JUMP JUMPDEST DUP4 PUSH1 0x0 SWAP1 DUP1 MLOAD SWAP1 PUSH1 0x20 ADD SWAP1 PUSH3 0x4F SWAP3 SWAP2 SWAP1 PUSH3 0x132 JUMP JUMPDEST POP DUP3 PUSH1 0x1 SWAP1 DUP1 MLOAD SWAP1 PUSH1 0x20 ADD SWAP1 PUSH3 0x68 SWAP3 SWAP2 SWAP1 PUSH3 0x132 JUMP JUMPDEST POP DUP2 PUSH1 0x2 DUP2 SWAP1 SSTORE POP PUSH3 0x15180 DUP2 PUSH3 0x81 SWAP2 SWAP1 PUSH3 0x3F2 JUMP JUMPDEST TIMESTAMP PUSH3 0x8E SWAP2 SWAP1 PUSH3 0x395 JUMP JUMPDEST PUSH1 0x3 DUP2 SWAP1 SSTORE POP DUP5 PUSH1 0x4 PUSH1 0x0 PUSH2 0x100 EXP DUP2 SLOAD DUP2 PUSH20 0xFFFFFFFFFFFFFFFFFFFFFFFFFFFFFFFFFFFFFFFF MUL NOT AND SWAP1 DUP4 PUSH20 0xFFFFFFFFFFFFFFFFFFFFFFFFFFFFFFFFFFFFFFFF AND MUL OR SWAP1 SSTORE POP PUSH1 0x0 PUSH1 0x4 PUSH1 0x15 PUSH2 0x100 EXP DUP2 SLOAD DUP2 PUSH1 0xFF MUL NOT AND SWAP1 DUP4 PUSH1 0x2 DUP2 GT ISZERO PUSH3 0x122 JUMPI PUSH32 0x4E487B7100000000000000000000000000000000000000000000000000000000 PUSH1 0x0 MSTORE PUSH1 0x21 PUSH1 0x4 MSTORE PUSH1 0x24 PUSH1 0x0 REVERT JUMPDEST MUL OR SWAP1 SSTORE POP POP POP POP POP POP PUSH3 0x605 JUMP JUMPDEST DUP3 DUP1 SLOAD PUSH3 0x140 SWAP1 PUSH3 0x4C7 JUMP JUMPDEST SWAP1 PUSH1 0x0 MSTORE PUSH1 0x20 PUSH1 0x0 KECCAK256 SWAP1 PUSH1 0x1F ADD PUSH1 0x20 SWAP1 DIV DUP2 ADD SWAP3 DUP3 PUSH3 0x164 JUMPI PUSH1 0x0 DUP6 SSTORE PUSH3 0x1B0 JUMP JUMPDEST DUP3 PUSH1 0x1F LT PUSH3 0x17F JUMPI DUP1 MLOAD PUSH1 0xFF NOT AND DUP4 DUP1 ADD OR DUP6 SSTORE PUSH3 0x1B0 JUMP JUMPDEST DUP3 DUP1 ADD PUSH1 0x1 ADD DUP6 SSTORE DUP3 ISZERO PUSH3 0x1B0 JUMPI SWAP2 DUP3 ADD JUMPDEST DUP3 DUP2 GT ISZERO PUSH3 0x1AF JUMPI DUP3 MLOAD DUP3 SSTORE SWAP2 PUSH1 0x20 ADD SWAP2 SWAP1 PUSH1 0x1 ADD SWAP1 PUSH3 0x192 JUMP JUMPDEST JUMPDEST POP SWAP1 POP PUSH3 0x1BF SWAP2 SWAP1 PUSH3 0x1C3 JUMP JUMPDEST POP SWAP1 JUMP JUMPDEST JUMPDEST DUP1 DUP3 GT ISZERO PUSH3 0x1DE JUMPI PUSH1 0x0 DUP2 PUSH1 0x0 SWAP1 SSTORE POP PUSH1 0x1 ADD PUSH3 0x1C4 JUMP JUMPDEST POP SWAP1 JUMP JUMPDEST PUSH1 0x0 PUSH3 0x1F9 PUSH3 0x1F3 DUP5 PUSH3 0x35F JUMP JUMPDEST PUSH3 0x336 JUMP JUMPDEST SWAP1 POP DUP3 DUP2 MSTORE PUSH1 0x20 DUP2 ADD DUP5 DUP5 DUP5 ADD GT ISZERO PUSH3 0x212 JUMPI PUSH1 0x0 DUP1 REVERT JUMPDEST PUSH3 0x21F DUP5 DUP3 DUP6 PUSH3 0x491 JUMP JUMPDEST POP SWAP4 SWAP3 POP POP POP JUMP JUMPDEST PUSH1 0x0 DUP2 MLOAD SWAP1 POP PUSH3 0x238 DUP2 PUSH3 0x5D1 JUMP JUMPDEST SWAP3 SWAP2 POP POP JUMP JUMPDEST PUSH1 0x0 DUP3 PUSH1 0x1F DUP4 ADD SLT PUSH3 0x250 JUMPI PUSH1 0x0 DUP1 REVERT JUMPDEST DUP2 MLOAD PUSH3 0x262 DUP5 DUP3 PUSH1 0x20 DUP7 ADD PUSH3 0x1E2 JUMP JUMPDEST SWAP2 POP POP SWAP3 SWAP2 POP POP JUMP JUMPDEST PUSH1 0x0 DUP2 MLOAD SWAP1 POP PUSH3 0x27C DUP2 PUSH3 0x5EB JUMP JUMPDEST SWAP3 SWAP2 POP POP JUMP JUMPDEST PUSH1 0x0 DUP1 PUSH1 0x0 DUP1 PUSH1 0x0 PUSH1 0xA0 DUP7 DUP9 SUB SLT ISZERO PUSH3 0x29B JUMPI PUSH1 0x0 DUP1 REVERT JUMPDEST PUSH1 0x0 PUSH3 0x2AB DUP9 DUP3 DUP10 ADD PUSH3 0x227 JUMP JUMPDEST SWAP6 POP POP PUSH1 0x20 DUP7 ADD MLOAD PUSH8 0xFFFFFFFFFFFFFFFF DUP2 GT ISZERO PUSH3 0x2C9 JUMPI PUSH1 0x0 DUP1 REVERT JUMPDEST PUSH3 0x2D7 DUP9 DUP3 DUP10 ADD PUSH3 0x23E JUMP JUMPDEST SWAP5 POP POP PUSH1 0x40 DUP7 ADD MLOAD PUSH8 0xFFFFFFFFFFFFFFFF DUP2 GT ISZERO PUSH3 0x2F5 JUMPI PUSH1 0x0 DUP1 REVERT JUMPDEST PUSH3 0x303 DUP9 DUP3 DUP10 ADD PUSH3 0x23E JUMP JUMPDEST SWAP4 POP POP PUSH1 0x60 PUSH3 0x316 DUP9 DUP3 DUP10 ADD PUSH3 0x26B JUMP JUMPDEST SWAP3 POP POP PUSH1 0x80 PUSH3 0x329 DUP9 DUP3 DUP10 ADD PUSH3 0x26B JUMP JUMPDEST SWAP2 POP POP SWAP3 SWAP6 POP SWAP3 SWAP6 SWAP1 SWAP4 POP JUMP JUMPDEST PUSH1 0x0 PUSH3 0x342 PUSH3 0x355 JUMP JUMPDEST SWAP1 POP PUSH3 0x350 DUP3 DUP3 PUSH3 0x4FD JUMP JUMPDEST SWAP2 SWAP1 POP JUMP JUMPDEST PUSH1 0x0 PUSH1 0x40 MLOAD SWAP1 POP SWAP1 JUMP JUMPDEST PUSH1 0x0 PUSH8 0xFFFFFFFFFFFFFFFF DUP3 GT ISZERO PUSH3 0x37D JUMPI PUSH3 0x37C PUSH3 0x591 JUMP JUMPDEST JUMPDEST PUSH3 0x388 DUP3 PUSH3 0x5C0 JUMP JUMPDEST SWAP1 POP PUSH1 0x20 DUP2 ADD SWAP1 POP SWAP2 SWAP1 POP JUMP JUMPDEST PUSH1 0x0 PUSH3 0x3A2 DUP3 PUSH3 0x487 JUMP JUMPDEST SWAP2 POP PUSH3 0x3AF DUP4 PUSH3 0x487 JUMP JUMPDEST SWAP3 POP DUP3 PUSH32 0xFFFFFFFFFFFFFFFFFFFFFFFFFFFFFFFFFFFFFFFFFFFFFFFFFFFFFFFFFFFFFFFF SUB DUP3 GT ISZERO PUSH3 0x3E7 JUMPI PUSH3 0x3E6 PUSH3 0x533 JUMP JUMPDEST JUMPDEST DUP3 DUP3 ADD SWAP1 POP SWAP3 SWAP2 POP POP JUMP JUMPDEST PUSH1 0x0 PUSH3 0x3FF DUP3 PUSH3 0x487 JUMP JUMPDEST SWAP2 POP PUSH3 0x40C DUP4 PUSH3 0x487 JUMP JUMPDEST SWAP3 POP DUP2 PUSH32 0xFFFFFFFFFFFFFFFFFFFFFFFFFFFFFFFFFFFFFFFFFFFFFFFFFFFFFFFFFFFFFFFF DIV DUP4 GT DUP3 ISZERO ISZERO AND ISZERO PUSH3 0x448 JUMPI PUSH3 0x447 PUSH3 0x533 JUMP JUMPDEST JUMPDEST DUP3 DUP3 MUL SWAP1 POP SWAP3 SWAP2 POP POP JUMP JUMPDEST PUSH1 0x0 PUSH3 0x460 DUP3 PUSH3 0x467 JUMP JUMPDEST SWAP1 POP SWAP2 SWAP1 POP JUMP JUMPDEST PUSH1 0x0 PUSH20 0xFFFFFFFFFFFFFFFFFFFFFFFFFFFFFFFFFFFFFFFF DUP3 AND SWAP1 POP SWAP2 SWAP1 POP JUMP JUMPDEST PUSH1 0x0 DUP2 SWAP1 POP SWAP2 SWAP1 POP JUMP JUMPDEST PUSH1 0x0 JUMPDEST DUP4 DUP2 LT ISZERO PUSH3 0x4B1 JUMPI DUP1 DUP3 ADD MLOAD DUP2 DUP5 ADD MSTORE PUSH1 0x20 DUP2 ADD SWAP1 POP PUSH3 0x494 JUMP JUMPDEST DUP4 DUP2 GT ISZERO PUSH3 0x4C1 JUMPI PUSH1 0x0 DUP5 DUP5 ADD MSTORE JUMPDEST POP POP POP POP JUMP JUMPDEST PUSH1 0x0 PUSH1 0x2 DUP3 DIV SWAP1 POP PUSH1 0x1 DUP3 AND DUP1 PUSH3 0x4E0 JUMPI PUSH1 0x7F DUP3 AND SWAP2 POP JUMPDEST PUSH1 0x20 DUP3 LT DUP2 EQ ISZERO PUSH3 0x4F7 JUMPI PUSH3 0x4F6 PUSH3 0x562 JUMP JUMPDEST JUMPDEST POP SWAP2 SWAP1 POP JUMP JUMPDEST PUSH3 0x508 DUP3 PUSH3 0x5C0 JUMP JUMPDEST DUP2 ADD DUP2 DUP2 LT PUSH8 0xFFFFFFFFFFFFFFFF DUP3 GT OR ISZERO PUSH3 0x52A JUMPI PUSH3 0x529 PUSH3 0x591 JUMP JUMPDEST JUMPDEST DUP1 PUSH1 0x40 MSTORE POP POP POP JUMP JUMPDEST PUSH32 0x4E487B7100000000000000000000000000000000000000000000000000000000 PUSH1 0x0 MSTORE PUSH1 0x11 PUSH1 0x4 MSTORE PUSH1 0x24 PUSH1 0x0 REVERT JUMPDEST PUSH32 0x4E487B7100000000000000000000000000000000000000000000000000000000 PUSH1 0x0 MSTORE PUSH1 0x22 PUSH1 0x4 MSTORE PUSH1 0x24 PUSH1 0x0 REVERT JUMPDEST PUSH32 0x4E487B7100000000000000000000000000000000000000000000000000000000 PUSH1 0x0 MSTORE PUSH1 0x41 PUSH1 0x4 MSTORE PUSH1 0x24 PUSH1 0x0 REVERT JUMPDEST PUSH1 0x0 PUSH1 0x1F NOT PUSH1 0x1F DUP4 ADD AND SWAP1 POP SWAP2 SWAP1 POP JUMP JUMPDEST PUSH3 0x5DC DUP2 PUSH3 0x453 JUMP JUMPDEST DUP2 EQ PUSH3 0x5E8 JUMPI PUSH1 0x0 DUP1 REVERT JUMPDEST POP JUMP JUMPDEST PUSH3 0x5F6 DUP2 PUSH3 0x487 JUMP JUMPDEST DUP2 EQ PUSH3 0x602 JUMPI PUSH1 0x0 DUP1 REVERT JUMPDEST POP JUMP JUMPDEST PUSH2 0x24B6 DUP1 PUSH3 0x615 PUSH1 0x0 CODECOPY PUSH1 0x0 RETURN INVALID PUSH1 0x80 PUSH1 0x40 MSTORE PUSH1 0x4 CALLDATASIZE LT PUSH2 0x114 JUMPI PUSH1 0x0 CALLDATALOAD PUSH1 0xE0 SHR DUP1 PUSH4 0x7284E416 GT PUSH2 0xA0 JUMPI DUP1 PUSH4 0xB85DFB80 GT PUSH2 0x64 JUMPI DUP1 PUSH4 0xB85DFB80 EQ PUSH2 0x36B JUMPI DUP1 PUSH4 0xC19D93FB EQ PUSH2 0x3A8 JUMPI DUP1 PUSH4 0xC4AE3168 EQ PUSH2 0x3D3 JUMPI DUP1 PUSH4 0xCA1D209D EQ PUSH2 0x3EA JUMPI DUP1 PUSH4 0xDE170570 EQ PUSH2 0x406 JUMPI PUSH2 0x114 JUMP JUMPDEST DUP1 PUSH4 0x7284E416 EQ PUSH2 0x286 JUMPI DUP1 PUSH4 0x7497211B EQ PUSH2 0x2B1 JUMPI DUP1 PUSH4 0x7ADBA527 EQ PUSH2 0x2DA JUMPI DUP1 PUSH4 0x8DA5CB5B EQ PUSH2 0x317 JUMPI DUP1 PUSH4 0x8ECE7B91 EQ PUSH2 0x342 JUMPI PUSH2 0x114 JUMP JUMPDEST DUP1 PUSH4 0x389B7533 GT PUSH2 0xE7 JUMPI DUP1 PUSH4 0x389B7533 EQ PUSH2 0x1D9 JUMPI DUP1 PUSH4 0x3CCFD60B EQ PUSH2 0x202 JUMPI DUP1 PUSH4 0x40193883 EQ PUSH2 0x219 JUMPI DUP1 PUSH4 0x590E1AE3 EQ PUSH2 0x244 JUMPI DUP1 PUSH4 0x5C975ABB EQ PUSH2 0x25B JUMPI PUSH2 0x114 JUMP JUMPDEST DUP1 PUSH4 0x39AF9EB EQ PUSH2 0x119 JUMPI DUP1 PUSH4 0x6FDDE03 EQ PUSH2 0x158 JUMPI DUP1 PUSH4 0x10550515 EQ PUSH2 0x183 JUMPI DUP1 PUSH4 0x29DCB0CF EQ PUSH2 0x1AE JUMPI JUMPDEST PUSH1 0x0 DUP1 REVERT JUMPDEST CALLVALUE DUP1 ISZERO PUSH2 0x125 JUMPI PUSH1 0x0 DUP1 REVERT JUMPDEST POP PUSH2 0x140 PUSH1 0x4 DUP1 CALLDATASIZE SUB DUP2 ADD SWAP1 PUSH2 0x13B SWAP2 SWAP1 PUSH2 0x1925 JUMP JUMPDEST PUSH2 0x431 JUMP JUMPDEST PUSH1 0x40 MLOAD PUSH2 0x14F SWAP4 SWAP3 SWAP2 SWAP1 PUSH2 0x1CFA JUMP JUMPDEST PUSH1 0x40 MLOAD DUP1 SWAP2 SUB SWAP1 RETURN JUMPDEST CALLVALUE DUP1 ISZERO PUSH2 0x164 JUMPI PUSH1 0x0 DUP1 REVERT JUMPDEST POP PUSH2 0x16D PUSH2 0x4F3 JUMP JUMPDEST PUSH1 0x40 MLOAD PUSH2 0x17A SWAP2 SWAP1 PUSH2 0x1CD8 JUMP JUMPDEST PUSH1 0x40 MLOAD DUP1 SWAP2 SUB SWAP1 RETURN JUMPDEST CALLVALUE DUP1 ISZERO PUSH2 0x18F JUMPI PUSH1 0x0 DUP1 REVERT JUMPDEST POP PUSH2 0x198 PUSH2 0x581 JUMP JUMPDEST PUSH1 0x40 MLOAD PUSH2 0x1A5 SWAP2 SWAP1 PUSH2 0x1CBD JUMP JUMPDEST PUSH1 0x40 MLOAD DUP1 SWAP2 SUB SWAP1 RETURN JUMPDEST CALLVALUE DUP1 ISZERO PUSH2 0x1BA JUMPI PUSH1 0x0 DUP1 REVERT JUMPDEST POP PUSH2 0x1C3 PUSH2 0x648 JUMP JUMPDEST PUSH1 0x40 MLOAD PUSH2 0x1D0 SWAP2 SWAP1 PUSH2 0x1E98 JUMP JUMPDEST PUSH1 0x40 MLOAD DUP1 SWAP2 SUB SWAP1 RETURN JUMPDEST CALLVALUE DUP1 ISZERO PUSH2 0x1E5 JUMPI PUSH1 0x0 DUP1 REVERT JUMPDEST POP PUSH2 0x200 PUSH1 0x4 DUP1 CALLDATASIZE SUB DUP2 ADD SWAP1 PUSH2 0x1FB SWAP2 SWAP1 PUSH2 0x1925 JUMP JUMPDEST PUSH2 0x64E JUMP JUMPDEST STOP JUMPDEST CALLVALUE DUP1 ISZERO PUSH2 0x20E JUMPI PUSH1 0x0 DUP1 REVERT JUMPDEST POP PUSH2 0x217 PUSH2 0x7CA JUMP JUMPDEST STOP JUMPDEST CALLVALUE DUP1 ISZERO PUSH2 0x225 JUMPI PUSH1 0x0 DUP1 REVERT JUMPDEST POP PUSH2 0x22E PUSH2 0x9D8 JUMP JUMPDEST PUSH1 0x40 MLOAD PUSH2 0x23B SWAP2 SWAP1 PUSH2 0x1E98 JUMP JUMPDEST PUSH1 0x40 MLOAD DUP1 SWAP2 SUB SWAP1 RETURN JUMPDEST CALLVALUE DUP1 ISZERO PUSH2 0x250 JUMPI PUSH1 0x0 DUP1 REVERT JUMPDEST POP PUSH2 0x259 PUSH2 0x9DE JUMP JUMPDEST STOP JUMPDEST CALLVALUE DUP1 ISZERO PUSH2 0x267 JUMPI PUSH1 0x0 DUP1 REVERT JUMPDEST POP PUSH2 0x270 PUSH2 0xBC3 JUMP JUMPDEST PUSH1 0x40 MLOAD PUSH2 0x27D SWAP2 SWAP1 PUSH2 0x1CA2 JUMP JUMPDEST PUSH1 0x40 MLOAD DUP1 SWAP2 SUB SWAP1 RETURN JUMPDEST CALLVALUE DUP1 ISZERO PUSH2 0x292 JUMPI PUSH1 0x0 DUP1 REVERT JUMPDEST POP PUSH2 0x29B PUSH2 0xBD6 JUMP JUMPDEST PUSH1 0x40 MLOAD PUSH2 0x2A8 SWAP2 SWAP1 PUSH2 0x1CD8 JUMP JUMPDEST PUSH1 0x40 MLOAD DUP1 SWAP2 SUB SWAP1 RETURN JUMPDEST CALLVALUE DUP1 ISZERO PUSH2 0x2BD JUMPI PUSH1 0x0 DUP1 REVERT JUMPDEST POP PUSH2 0x2D8 PUSH1 0x4 DUP1 CALLDATASIZE SUB DUP2 ADD SWAP1 PUSH2 0x2D3 SWAP2 SWAP1 PUSH2 0x1925 JUMP JUMPDEST PUSH2 0xC64 JUMP JUMPDEST STOP JUMPDEST CALLVALUE DUP1 ISZERO PUSH2 0x2E6 JUMPI PUSH1 0x0 DUP1 REVERT JUMPDEST POP PUSH2 0x301 PUSH1 0x4 DUP1 CALLDATASIZE SUB DUP2 ADD SWAP1 PUSH2 0x2FC SWAP2 SWAP1 PUSH2 0x1895 JUMP JUMPDEST PUSH2 0xE87 JUMP JUMPDEST PUSH1 0x40 MLOAD PUSH2 0x30E SWAP2 SWAP1 PUSH2 0x1CA2 JUMP JUMPDEST PUSH1 0x40 MLOAD DUP1 SWAP2 SUB SWAP1 RETURN JUMPDEST CALLVALUE DUP1 ISZERO PUSH2 0x323 JUMPI PUSH1 0x0 DUP1 REVERT JUMPDEST POP PUSH2 0x32C PUSH2 0xEF2 JUMP JUMPDEST PUSH1 0x40 MLOAD PUSH2 0x339 SWAP2 SWAP1 PUSH2 0x1C65 JUMP JUMPDEST PUSH1 0x40 MLOAD DUP1 SWAP2 SUB SWAP1 RETURN JUMPDEST CALLVALUE DUP1 ISZERO PUSH2 0x34E JUMPI PUSH1 0x0 DUP1 REVERT JUMPDEST POP PUSH2 0x369 PUSH1 0x4 DUP1 CALLDATASIZE SUB DUP2 ADD SWAP1 PUSH2 0x364 SWAP2 SWAP1 PUSH2 0x18D1 JUMP JUMPDEST PUSH2 0xF18 JUMP JUMPDEST STOP JUMPDEST CALLVALUE DUP1 ISZERO PUSH2 0x377 JUMPI PUSH1 0x0 DUP1 REVERT JUMPDEST POP PUSH2 0x392 PUSH1 0x4 DUP1 CALLDATASIZE SUB DUP2 ADD SWAP1 PUSH2 0x38D SWAP2 SWAP1 PUSH2 0x186C JUMP JUMPDEST PUSH2 0x1069 JUMP JUMPDEST PUSH1 0x40 MLOAD PUSH2 0x39F SWAP2 SWAP1 PUSH2 0x1E98 JUMP JUMPDEST PUSH1 0x40 MLOAD DUP1 SWAP2 SUB SWAP1 RETURN JUMPDEST CALLVALUE DUP1 ISZERO PUSH2 0x3B4 JUMPI PUSH1 0x0 DUP1 REVERT JUMPDEST POP PUSH2 0x3BD PUSH2 0x1087 JUMP JUMPDEST PUSH1 0x40 MLOAD PUSH2 0x3CA SWAP2 SWAP1 PUSH2 0x1CBD JUMP JUMPDEST PUSH1 0x40 MLOAD DUP1 SWAP2 SUB SWAP1 RETURN JUMPDEST CALLVALUE DUP1 ISZERO PUSH2 0x3DF JUMPI PUSH1 0x0 DUP1 REVERT JUMPDEST POP PUSH2 0x3E8 PUSH2 0x109A JUMP JUMPDEST STOP JUMPDEST PUSH2 0x404 PUSH1 0x4 DUP1 CALLDATASIZE SUB DUP2 ADD SWAP1 PUSH2 0x3FF SWAP2 SWAP1 PUSH2 0x1925 JUMP JUMPDEST PUSH2 0x1156 JUMP JUMPDEST STOP JUMPDEST CALLVALUE DUP1 ISZERO PUSH2 0x412 JUMPI PUSH1 0x0 DUP1 REVERT JUMPDEST POP PUSH2 0x41B PUSH2 0x146D JUMP JUMPDEST PUSH1 0x40 MLOAD PUSH2 0x428 SWAP2 SWAP1 PUSH2 0x1C80 JUMP JUMPDEST PUSH1 0x40 MLOAD DUP1 SWAP2 SUB SWAP1 RETURN JUMPDEST PUSH1 0x5 DUP2 DUP2 SLOAD DUP2 LT PUSH2 0x441 JUMPI PUSH1 0x0 DUP1 REVERT JUMPDEST SWAP1 PUSH1 0x0 MSTORE PUSH1 0x20 PUSH1 0x0 KECCAK256 SWAP1 PUSH1 0x3 MUL ADD PUSH1 0x0 SWAP2 POP SWAP1 POP DUP1 PUSH1 0x0 ADD DUP1 SLOAD PUSH2 0x464 SWAP1 PUSH2 0x2102 JUMP JUMPDEST DUP1 PUSH1 0x1F ADD PUSH1 0x20 DUP1 SWAP2 DIV MUL PUSH1 0x20 ADD PUSH1 0x40 MLOAD SWAP1 DUP2 ADD PUSH1 0x40 MSTORE DUP1 SWAP3 SWAP2 SWAP1 DUP2 DUP2 MSTORE PUSH1 0x20 ADD DUP3 DUP1 SLOAD PUSH2 0x490 SWAP1 PUSH2 0x2102 JUMP JUMPDEST DUP1 ISZERO PUSH2 0x4DD JUMPI DUP1 PUSH1 0x1F LT PUSH2 0x4B2 JUMPI PUSH2 0x100 DUP1 DUP4 SLOAD DIV MUL DUP4 MSTORE SWAP2 PUSH1 0x20 ADD SWAP2 PUSH2 0x4DD JUMP JUMPDEST DUP3 ADD SWAP2 SWAP1 PUSH1 0x0 MSTORE PUSH1 0x20 PUSH1 0x0 KECCAK256 SWAP1 JUMPDEST DUP2 SLOAD DUP2 MSTORE SWAP1 PUSH1 0x1 ADD SWAP1 PUSH1 0x20 ADD DUP1 DUP4 GT PUSH2 0x4C0 JUMPI DUP3 SWAP1 SUB PUSH1 0x1F AND DUP3 ADD SWAP2 JUMPDEST POP POP POP POP POP SWAP1 DUP1 PUSH1 0x1 ADD SLOAD SWAP1 DUP1 PUSH1 0x2 ADD SLOAD SWAP1 POP DUP4 JUMP JUMPDEST PUSH1 0x0 DUP1 SLOAD PUSH2 0x500 SWAP1 PUSH2 0x2102 JUMP JUMPDEST DUP1 PUSH1 0x1F ADD PUSH1 0x20 DUP1 SWAP2 DIV MUL PUSH1 0x20 ADD PUSH1 0x40 MLOAD SWAP1 DUP2 ADD PUSH1 0x40 MSTORE DUP1 SWAP3 SWAP2 SWAP1 DUP2 DUP2 MSTORE PUSH1 0x20 ADD DUP3 DUP1 SLOAD PUSH2 0x52C SWAP1 PUSH2 0x2102 JUMP JUMPDEST DUP1 ISZERO PUSH2 0x579 JUMPI DUP1 PUSH1 0x1F LT PUSH2 0x54E JUMPI PUSH2 0x100 DUP1 DUP4 SLOAD DIV MUL DUP4 MSTORE SWAP2 PUSH1 0x20 ADD SWAP2 PUSH2 0x579 JUMP JUMPDEST DUP3 ADD SWAP2 SWAP1 PUSH1 0x0 MSTORE PUSH1 0x20 PUSH1 0x0 KECCAK256 SWAP1 JUMPDEST DUP2 SLOAD DUP2 MSTORE SWAP1 PUSH1 0x1 ADD SWAP1 PUSH1 0x20 ADD DUP1 DUP4 GT PUSH2 0x55C JUMPI DUP3 SWAP1 SUB PUSH1 0x1F AND DUP3 ADD SWAP2 JUMPDEST POP POP POP POP POP DUP2 JUMP JUMPDEST PUSH1 0x0 DUP1 PUSH1 0x2 DUP2 GT ISZERO PUSH2 0x5BC JUMPI PUSH32 0x4E487B7100000000000000000000000000000000000000000000000000000000 PUSH1 0x0 MSTORE PUSH1 0x21 PUSH1 0x4 MSTORE PUSH1 0x24 PUSH1 0x0 REVERT JUMPDEST PUSH1 0x4 PUSH1 0x15 SWAP1 SLOAD SWAP1 PUSH2 0x100 EXP SWAP1 DIV PUSH1 0xFF AND PUSH1 0x2 DUP2 GT ISZERO PUSH2 0x604 JUMPI PUSH32 0x4E487B7100000000000000000000000000000000000000000000000000000000 PUSH1 0x0 MSTORE PUSH1 0x21 PUSH1 0x4 MSTORE PUSH1 0x24 PUSH1 0x0 REVERT JUMPDEST EQ DUP1 ISZERO PUSH2 0x612 JUMPI POP PUSH1 0x3 SLOAD TIMESTAMP GT JUMPDEST ISZERO PUSH2 0x632 JUMPI PUSH1 0x2 SLOAD SELFBALANCE LT ISZERO PUSH2 0x628 JUMPI PUSH1 0x2 PUSH2 0x62B JUMP JUMPDEST PUSH1 0x1 JUMPDEST SWAP1 POP PUSH2 0x645 JUMP JUMPDEST PUSH1 0x4 PUSH1 0x15 SWAP1 SLOAD SWAP1 PUSH2 0x100 EXP SWAP1 DIV PUSH1 0xFF AND SWAP1 POP JUMPDEST SWAP1 JUMP JUMPDEST PUSH1 0x3 SLOAD DUP2 JUMP JUMPDEST PUSH1 0x4 PUSH1 0x0 SWAP1 SLOAD SWAP1 PUSH2 0x100 EXP SWAP1 DIV PUSH20 0xFFFFFFFFFFFFFFFFFFFFFFFFFFFFFFFFFFFFFFFF AND PUSH20 0xFFFFFFFFFFFFFFFFFFFFFFFFFFFFFFFFFFFFFFFF AND CALLER PUSH20 0xFFFFFFFFFFFFFFFFFFFFFFFFFFFFFFFFFFFFFFFF AND EQ PUSH2 0x6DE JUMPI PUSH1 0x40 MLOAD PUSH32 0x8C379A000000000000000000000000000000000000000000000000000000000 DUP2 MSTORE PUSH1 0x4 ADD PUSH2 0x6D5 SWAP1 PUSH2 0x1DB8 JUMP JUMPDEST PUSH1 0x40 MLOAD DUP1 SWAP2 SUB SWAP1 REVERT JUMPDEST PUSH1 0x0 PUSH1 0x2 DUP2 GT ISZERO PUSH2 0x718 JUMPI PUSH32 0x4E487B7100000000000000000000000000000000000000000000000000000000 PUSH1 0x0 MSTORE PUSH1 0x21 PUSH1 0x4 MSTORE PUSH1 0x24 PUSH1 0x0 REVERT JUMPDEST PUSH1 0x4 PUSH1 0x15 SWAP1 SLOAD SWAP1 PUSH2 0x100 EXP SWAP1 DIV PUSH1 0xFF AND PUSH1 0x2 DUP2 GT ISZERO PUSH2 0x760 JUMPI PUSH32 0x4E487B7100000000000000000000000000000000000000000000000000000000 PUSH1 0x0 MSTORE PUSH1 0x21 PUSH1 0x4 MSTORE PUSH1 0x24 PUSH1 0x0 REVERT JUMPDEST EQ PUSH2 0x7A0 JUMPI PUSH1 0x40 MLOAD PUSH32 0x8C379A000000000000000000000000000000000000000000000000000000000 DUP2 MSTORE PUSH1 0x4 ADD PUSH2 0x797 SWAP1 PUSH2 0x1DD8 JUMP JUMPDEST PUSH1 0x40 MLOAD DUP1 SWAP2 SUB SWAP1 REVERT JUMPDEST PUSH3 0x15180 DUP2 PUSH2 0x7AF SWAP2 SWAP1 PUSH2 0x1FC5 JUMP JUMPDEST PUSH1 0x3 PUSH1 0x0 DUP3 DUP3 SLOAD PUSH2 0x7C0 SWAP2 SWAP1 PUSH2 0x1F6F JUMP JUMPDEST SWAP3 POP POP DUP2 SWAP1 SSTORE POP POP JUMP JUMPDEST PUSH1 0x4 PUSH1 0x0 SWAP1 SLOAD SWAP1 PUSH2 0x100 EXP SWAP1 DIV PUSH20 0xFFFFFFFFFFFFFFFFFFFFFFFFFFFFFFFFFFFFFFFF AND PUSH20 0xFFFFFFFFFFFFFFFFFFFFFFFFFFFFFFFFFFFFFFFF AND CALLER PUSH20 0xFFFFFFFFFFFFFFFFFFFFFFFFFFFFFFFFFFFFFFFF AND EQ PUSH2 0x85A JUMPI PUSH1 0x40 MLOAD PUSH32 0x8C379A000000000000000000000000000000000000000000000000000000000 DUP2 MSTORE PUSH1 0x4 ADD PUSH2 0x851 SWAP1 PUSH2 0x1DB8 JUMP JUMPDEST PUSH1 0x40 MLOAD DUP1 SWAP2 SUB SWAP1 REVERT JUMPDEST PUSH2 0x862 PUSH2 0x1572 JUMP JUMPDEST PUSH1 0x1 PUSH1 0x2 DUP2 GT ISZERO PUSH2 0x89C JUMPI PUSH32 0x4E487B7100000000000000000000000000000000000000000000000000000000 PUSH1 0x0 MSTORE PUSH1 0x21 PUSH1 0x4 MSTORE PUSH1 0x24 PUSH1 0x0 REVERT JUMPDEST PUSH1 0x4 PUSH1 0x15 SWAP1 SLOAD SWAP1 PUSH2 0x100 EXP SWAP1 DIV PUSH1 0xFF AND PUSH1 0x2 DUP2 GT ISZERO PUSH2 0x8E4 JUMPI PUSH32 0x4E487B7100000000000000000000000000000000000000000000000000000000 PUSH1 0x0 MSTORE PUSH1 0x21 PUSH1 0x4 MSTORE PUSH1 0x24 PUSH1 0x0 REVERT JUMPDEST EQ PUSH2 0x924 JUMPI PUSH1 0x40 MLOAD PUSH32 0x8C379A000000000000000000000000000000000000000000000000000000000 DUP2 MSTORE PUSH1 0x4 ADD PUSH2 0x91B SWAP1 PUSH2 0x1E38 JUMP JUMPDEST PUSH1 0x40 MLOAD DUP1 SWAP2 SUB SWAP1 REVERT JUMPDEST PUSH1 0x0 SELFBALANCE SWAP1 POP PUSH1 0x0 DUP2 GT PUSH2 0x96C JUMPI PUSH1 0x40 MLOAD PUSH32 0x8C379A000000000000000000000000000000000000000000000000000000000 DUP2 MSTORE PUSH1 0x4 ADD PUSH2 0x963 SWAP1 PUSH2 0x1E18 JUMP JUMPDEST PUSH1 0x40 MLOAD DUP1 SWAP2 SUB SWAP1 REVERT JUMPDEST PUSH1 0x4 PUSH1 0x0 SWAP1 SLOAD SWAP1 PUSH2 0x100 EXP SWAP1 DIV PUSH20 0xFFFFFFFFFFFFFFFFFFFFFFFFFFFFFFFFFFFFFFFF AND PUSH20 0xFFFFFFFFFFFFFFFFFFFFFFFFFFFFFFFFFFFFFFFF AND PUSH2 0x8FC DUP3 SWAP1 DUP2 ISZERO MUL SWAP1 PUSH1 0x40 MLOAD PUSH1 0x0 PUSH1 0x40 MLOAD DUP1 DUP4 SUB DUP2 DUP6 DUP9 DUP9 CALL SWAP4 POP POP POP POP ISZERO DUP1 ISZERO PUSH2 0x9D4 JUMPI RETURNDATASIZE PUSH1 0x0 DUP1 RETURNDATACOPY RETURNDATASIZE PUSH1 0x0 REVERT JUMPDEST POP POP JUMP JUMPDEST PUSH1 0x2 SLOAD DUP2 JUMP JUMPDEST PUSH2 0x9E6 PUSH2 0x1572 JUMP JUMPDEST PUSH1 0x2 DUP1 DUP2 GT ISZERO PUSH2 0xA1F JUMPI PUSH32 0x4E487B7100000000000000000000000000000000000000000000000000000000 PUSH1 0x0 MSTORE PUSH1 0x21 PUSH1 0x4 MSTORE PUSH1 0x24 PUSH1 0x0 REVERT JUMPDEST PUSH1 0x4 PUSH1 0x15 SWAP1 SLOAD SWAP1 PUSH2 0x100 EXP SWAP1 DIV PUSH1 0xFF AND PUSH1 0x2 DUP2 GT ISZERO PUSH2 0xA67 JUMPI PUSH32 0x4E487B7100000000000000000000000000000000000000000000000000000000 PUSH1 0x0 MSTORE PUSH1 0x21 PUSH1 0x4 MSTORE PUSH1 0x24 PUSH1 0x0 REVERT JUMPDEST EQ PUSH2 0xAA7 JUMPI PUSH1 0x40 MLOAD PUSH32 0x8C379A000000000000000000000000000000000000000000000000000000000 DUP2 MSTORE PUSH1 0x4 ADD PUSH2 0xA9E SWAP1 PUSH2 0x1D58 JUMP JUMPDEST PUSH1 0x40 MLOAD DUP1 SWAP2 SUB SWAP1 REVERT JUMPDEST PUSH1 0x0 PUSH1 0x6 PUSH1 0x0 CALLER PUSH20 0xFFFFFFFFFFFFFFFFFFFFFFFFFFFFFFFFFFFFFFFF AND PUSH20 0xFFFFFFFFFFFFFFFFFFFFFFFFFFFFFFFFFFFFFFFF AND DUP2 MSTORE PUSH1 0x20 ADD SWAP1 DUP2 MSTORE PUSH1 0x20 ADD PUSH1 0x0 KECCAK256 PUSH1 0x0 ADD SLOAD SWAP1 POP PUSH1 0x0 DUP2 GT PUSH2 0xB31 JUMPI PUSH1 0x40 MLOAD PUSH32 0x8C379A000000000000000000000000000000000000000000000000000000000 DUP2 MSTORE PUSH1 0x4 ADD PUSH2 0xB28 SWAP1 PUSH2 0x1DF8 JUMP JUMPDEST PUSH1 0x40 MLOAD DUP1 SWAP2 SUB SWAP1 REVERT JUMPDEST PUSH1 0x0 PUSH1 0x6 PUSH1 0x0 CALLER PUSH20 0xFFFFFFFFFFFFFFFFFFFFFFFFFFFFFFFFFFFFFFFF AND PUSH20 0xFFFFFFFFFFFFFFFFFFFFFFFFFFFFFFFFFFFFFFFF AND DUP2 MSTORE PUSH1 0x20 ADD SWAP1 DUP2 MSTORE PUSH1 0x20 ADD PUSH1 0x0 KECCAK256 PUSH1 0x0 ADD DUP2 SWAP1 SSTORE POP CALLER PUSH20 0xFFFFFFFFFFFFFFFFFFFFFFFFFFFFFFFFFFFFFFFF AND PUSH2 0x8FC DUP3 SWAP1 DUP2 ISZERO MUL SWAP1 PUSH1 0x40 MLOAD PUSH1 0x0 PUSH1 0x40 MLOAD DUP1 DUP4 SUB DUP2 DUP6 DUP9 DUP9 CALL SWAP4 POP POP POP POP ISZERO DUP1 ISZERO PUSH2 0xBBF JUMPI RETURNDATASIZE PUSH1 0x0 DUP1 RETURNDATACOPY RETURNDATASIZE PUSH1 0x0 REVERT JUMPDEST POP POP JUMP JUMPDEST PUSH1 0x4 PUSH1 0x14 SWAP1 SLOAD SWAP1 PUSH2 0x100 EXP SWAP1 DIV PUSH1 0xFF AND DUP2 JUMP JUMPDEST PUSH1 0x1 DUP1 SLOAD PUSH2 0xBE3 SWAP1 PUSH2 0x2102 JUMP JUMPDEST DUP1 PUSH1 0x1F ADD PUSH1 0x20 DUP1 SWAP2 DIV MUL PUSH1 0x20 ADD PUSH1 0x40 MLOAD SWAP1 DUP2 ADD PUSH1 0x40 MSTORE DUP1 SWAP3 SWAP2 SWAP1 DUP2 DUP2 MSTORE PUSH1 0x20 ADD DUP3 DUP1 SLOAD PUSH2 0xC0F SWAP1 PUSH2 0x2102 JUMP JUMPDEST DUP1 ISZERO PUSH2 0xC5C JUMPI DUP1 PUSH1 0x1F LT PUSH2 0xC31 JUMPI PUSH2 0x100 DUP1 DUP4 SLOAD DIV MUL DUP4 MSTORE SWAP2 PUSH1 0x20 ADD SWAP2 PUSH2 0xC5C JUMP JUMPDEST DUP3 ADD SWAP2 SWAP1 PUSH1 0x0 MSTORE PUSH1 0x20 PUSH1 0x0 KECCAK256 SWAP1 JUMPDEST DUP2 SLOAD DUP2 MSTORE SWAP1 PUSH1 0x1 ADD SWAP1 PUSH1 0x20 ADD DUP1 DUP4 GT PUSH2 0xC3F JUMPI DUP3 SWAP1 SUB PUSH1 0x1F AND DUP3 ADD SWAP2 JUMPDEST POP POP POP POP POP DUP2 JUMP JUMPDEST PUSH1 0x4 PUSH1 0x0 SWAP1 SLOAD SWAP1 PUSH2 0x100 EXP SWAP1 DIV PUSH20 0xFFFFFFFFFFFFFFFFFFFFFFFFFFFFFFFFFFFFFFFF AND PUSH20 0xFFFFFFFFFFFFFFFFFFFFFFFFFFFFFFFFFFFFFFFF AND CALLER PUSH20 0xFFFFFFFFFFFFFFFFFFFFFFFFFFFFFFFFFFFFFFFF AND EQ PUSH2 0xCF4 JUMPI PUSH1 0x40 MLOAD PUSH32 0x8C379A000000000000000000000000000000000000000000000000000000000 DUP2 MSTORE PUSH1 0x4 ADD PUSH2 0xCEB SWAP1 PUSH2 0x1DB8 JUMP JUMPDEST PUSH1 0x40 MLOAD DUP1 SWAP2 SUB SWAP1 REVERT JUMPDEST PUSH1 0x5 DUP1 SLOAD SWAP1 POP DUP2 LT PUSH2 0xD3B JUMPI PUSH1 0x40 MLOAD PUSH32 0x8C379A000000000000000000000000000000000000000000000000000000000 DUP2 MSTORE PUSH1 0x4 ADD PUSH2 0xD32 SWAP1 PUSH2 0x1D98 JUMP JUMPDEST PUSH1 0x40 MLOAD DUP1 SWAP2 SUB SWAP1 REVERT JUMPDEST PUSH1 0x5 PUSH1 0x1 PUSH1 0x5 DUP1 SLOAD SWAP1 POP PUSH2 0xD4F SWAP2 SWAP1 PUSH2 0x201F JUMP JUMPDEST DUP2 SLOAD DUP2 LT PUSH2 0xD86 JUMPI PUSH32 0x4E487B7100000000000000000000000000000000000000000000000000000000 PUSH1 0x0 MSTORE PUSH1 0x32 PUSH1 0x4 MSTORE PUSH1 0x24 PUSH1 0x0 REVERT JUMPDEST SWAP1 PUSH1 0x0 MSTORE PUSH1 0x20 PUSH1 0x0 KECCAK256 SWAP1 PUSH1 0x3 MUL ADD PUSH1 0x5 DUP3 DUP2 SLOAD DUP2 LT PUSH2 0xDCE JUMPI PUSH32 0x4E487B7100000000000000000000000000000000000000000000000000000000 PUSH1 0x0 MSTORE PUSH1 0x32 PUSH1 0x4 MSTORE PUSH1 0x24 PUSH1 0x0 REVERT JUMPDEST SWAP1 PUSH1 0x0 MSTORE PUSH1 0x20 PUSH1 0x0 KECCAK256 SWAP1 PUSH1 0x3 MUL ADD PUSH1 0x0 DUP3 ADD DUP2 PUSH1 0x0 ADD SWAP1 DUP1 SLOAD PUSH2 0xDF0 SWAP1 PUSH2 0x2102 JUMP JUMPDEST PUSH2 0xDFB SWAP3 SWAP2 SWAP1 PUSH2 0x166A JUMP JUMPDEST POP PUSH1 0x1 DUP3 ADD SLOAD DUP2 PUSH1 0x1 ADD SSTORE PUSH1 0x2 DUP3 ADD SLOAD DUP2 PUSH1 0x2 ADD SSTORE SWAP1 POP POP PUSH1 0x5 DUP1 SLOAD DUP1 PUSH2 0xE4B JUMPI PUSH32 0x4E487B7100000000000000000000000000000000000000000000000000000000 PUSH1 0x0 MSTORE PUSH1 0x31 PUSH1 0x4 MSTORE PUSH1 0x24 PUSH1 0x0 REVERT JUMPDEST PUSH1 0x1 SWAP1 SUB DUP2 DUP2 SWAP1 PUSH1 0x0 MSTORE PUSH1 0x20 PUSH1 0x0 KECCAK256 SWAP1 PUSH1 0x3 MUL ADD PUSH1 0x0 DUP1 DUP3 ADD PUSH1 0x0 PUSH2 0xE70 SWAP2 SWAP1 PUSH2 0x16F7 JUMP JUMPDEST PUSH1 0x1 DUP3 ADD PUSH1 0x0 SWAP1 SSTORE PUSH1 0x2 DUP3 ADD PUSH1 0x0 SWAP1 SSTORE POP POP SWAP1 SSTORE POP JUMP JUMPDEST PUSH1 0x0 PUSH1 0x6 PUSH1 0x0 DUP5 PUSH20 0xFFFFFFFFFFFFFFFFFFFFFFFFFFFFFFFFFFFFFFFF AND PUSH20 0xFFFFFFFFFFFFFFFFFFFFFFFFFFFFFFFFFFFFFFFF AND DUP2 MSTORE PUSH1 0x20 ADD SWAP1 DUP2 MSTORE PUSH1 0x20 ADD PUSH1 0x0 KECCAK256 PUSH1 0x1 ADD PUSH1 0x0 DUP4 DUP2 MSTORE PUSH1 0x20 ADD SWAP1 DUP2 MSTORE PUSH1 0x20 ADD PUSH1 0x0 KECCAK256 PUSH1 0x0 SWAP1 SLOAD SWAP1 PUSH2 0x100 EXP SWAP1 DIV PUSH1 0xFF AND SWAP1 POP SWAP3 SWAP2 POP POP JUMP JUMPDEST PUSH1 0x4 PUSH1 0x0 SWAP1 SLOAD SWAP1 PUSH2 0x100 EXP SWAP1 DIV PUSH20 0xFFFFFFFFFFFFFFFFFFFFFFFFFFFFFFFFFFFFFFFF AND DUP2 JUMP JUMPDEST PUSH1 0x4 PUSH1 0x0 SWAP1 SLOAD SWAP1 PUSH2 0x100 EXP SWAP1 DIV PUSH20 0xFFFFFFFFFFFFFFFFFFFFFFFFFFFFFFFFFFFFFFFF AND PUSH20 0xFFFFFFFFFFFFFFFFFFFFFFFFFFFFFFFFFFFFFFFF AND CALLER PUSH20 0xFFFFFFFFFFFFFFFFFFFFFFFFFFFFFFFFFFFFFFFF AND EQ PUSH2 0xFA8 JUMPI PUSH1 0x40 MLOAD PUSH32 0x8C379A000000000000000000000000000000000000000000000000000000000 DUP2 MSTORE PUSH1 0x4 ADD PUSH2 0xF9F SWAP1 PUSH2 0x1DB8 JUMP JUMPDEST PUSH1 0x40 MLOAD DUP1 SWAP2 SUB SWAP1 REVERT JUMPDEST PUSH1 0x0 DUP2 GT PUSH2 0xFEB JUMPI PUSH1 0x40 MLOAD PUSH32 0x8C379A000000000000000000000000000000000000000000000000000000000 DUP2 MSTORE PUSH1 0x4 ADD PUSH2 0xFE2 SWAP1 PUSH2 0x1D78 JUMP JUMPDEST PUSH1 0x40 MLOAD DUP1 SWAP2 SUB SWAP1 REVERT JUMPDEST PUSH1 0x5 PUSH1 0x40 MLOAD DUP1 PUSH1 0x60 ADD PUSH1 0x40 MSTORE DUP1 DUP5 DUP2 MSTORE PUSH1 0x20 ADD DUP4 DUP2 MSTORE PUSH1 0x20 ADD PUSH1 0x0 DUP2 MSTORE POP SWAP1 DUP1 PUSH1 0x1 DUP2 SLOAD ADD DUP1 DUP3 SSTORE DUP1 SWAP2 POP POP PUSH1 0x1 SWAP1 SUB SWAP1 PUSH1 0x0 MSTORE PUSH1 0x20 PUSH1 0x0 KECCAK256 SWAP1 PUSH1 0x3 MUL ADD PUSH1 0x0 SWAP1 SWAP2 SWAP1 SWAP2 SWAP1 SWAP2 POP PUSH1 0x0 DUP3 ADD MLOAD DUP2 PUSH1 0x0 ADD SWAP1 DUP1 MLOAD SWAP1 PUSH1 0x20 ADD SWAP1 PUSH2 0x104E SWAP3 SWAP2 SWAP1 PUSH2 0x1737 JUMP JUMPDEST POP PUSH1 0x20 DUP3 ADD MLOAD DUP2 PUSH1 0x1 ADD SSTORE PUSH1 0x40 DUP3 ADD MLOAD DUP2 PUSH1 0x2 ADD SSTORE POP POP POP POP JUMP JUMPDEST PUSH1 0x6 PUSH1 0x20 MSTORE DUP1 PUSH1 0x0 MSTORE PUSH1 0x40 PUSH1 0x0 KECCAK256 PUSH1 0x0 SWAP2 POP SWAP1 POP DUP1 PUSH1 0x0 ADD SLOAD SWAP1 POP DUP2 JUMP JUMPDEST PUSH1 0x4 PUSH1 0x15 SWAP1 SLOAD SWAP1 PUSH2 0x100 EXP SWAP1 DIV PUSH1 0xFF AND DUP2 JUMP JUMPDEST PUSH1 0x4 PUSH1 0x0 SWAP1 SLOAD SWAP1 PUSH2 0x100 EXP SWAP1 DIV PUSH20 0xFFFFFFFFFFFFFFFFFFFFFFFFFFFFFFFFFFFFFFFF AND PUSH20 0xFFFFFFFFFFFFFFFFFFFFFFFFFFFFFFFFFFFFFFFF AND CALLER PUSH20 0xFFFFFFFFFFFFFFFFFFFFFFFFFFFFFFFFFFFFFFFF AND EQ PUSH2 0x112A JUMPI PUSH1 0x40 MLOAD PUSH32 0x8C379A000000000000000000000000000000000000000000000000000000000 DUP2 MSTORE PUSH1 0x4 ADD PUSH2 0x1121 SWAP1 PUSH2 0x1DB8 JUMP JUMPDEST PUSH1 0x40 MLOAD DUP1 SWAP2 SUB SWAP1 REVERT JUMPDEST PUSH1 0x4 PUSH1 0x14 SWAP1 SLOAD SWAP1 PUSH2 0x100 EXP SWAP1 DIV PUSH1 0xFF AND ISZERO PUSH1 0x4 PUSH1 0x14 PUSH2 0x100 EXP DUP2 SLOAD DUP2 PUSH1 0xFF MUL NOT AND SWAP1 DUP4 ISZERO ISZERO MUL OR SWAP1 SSTORE POP JUMP JUMPDEST PUSH1 0x4 PUSH1 0x14 SWAP1 SLOAD SWAP1 PUSH2 0x100 EXP SWAP1 DIV PUSH1 0xFF AND ISZERO PUSH2 0x11A6 JUMPI PUSH1 0x40 MLOAD PUSH32 0x8C379A000000000000000000000000000000000000000000000000000000000 DUP2 MSTORE PUSH1 0x4 ADD PUSH2 0x119D SWAP1 PUSH2 0x1E58 JUMP JUMPDEST PUSH1 0x40 MLOAD DUP1 SWAP2 SUB SWAP1 REVERT JUMPDEST PUSH1 0x0 PUSH1 0x2 DUP2 GT ISZERO PUSH2 0x11E0 JUMPI PUSH32 0x4E487B7100000000000000000000000000000000000000000000000000000000 PUSH1 0x0 MSTORE PUSH1 0x21 PUSH1 0x4 MSTORE PUSH1 0x24 PUSH1 0x0 REVERT JUMPDEST PUSH1 0x4 PUSH1 0x15 SWAP1 SLOAD SWAP1 PUSH2 0x100 EXP SWAP1 DIV PUSH1 0xFF AND PUSH1 0x2 DUP2 GT ISZERO PUSH2 0x1228 JUMPI PUSH32 0x4E487B7100000000000000000000000000000000000000000000000000000000 PUSH1 0x0 MSTORE PUSH1 0x21 PUSH1 0x4 MSTORE PUSH1 0x24 PUSH1 0x0 REVERT JUMPDEST EQ PUSH2 0x1268 JUMPI PUSH1 0x40 MLOAD PUSH32 0x8C379A000000000000000000000000000000000000000000000000000000000 DUP2 MSTORE PUSH1 0x4 ADD PUSH2 0x125F SWAP1 PUSH2 0x1DD8 JUMP JUMPDEST PUSH1 0x40 MLOAD DUP1 SWAP2 SUB SWAP1 REVERT JUMPDEST PUSH1 0x5 DUP1 SLOAD SWAP1 POP DUP2 LT PUSH2 0x12AF JUMPI PUSH1 0x40 MLOAD PUSH32 0x8C379A000000000000000000000000000000000000000000000000000000000 DUP2 MSTORE PUSH1 0x4 ADD PUSH2 0x12A6 SWAP1 PUSH2 0x1D38 JUMP JUMPDEST PUSH1 0x40 MLOAD DUP1 SWAP2 SUB SWAP1 REVERT JUMPDEST PUSH1 0x5 DUP2 DUP2 SLOAD DUP2 LT PUSH2 0x12E9 JUMPI PUSH32 0x4E487B7100000000000000000000000000000000000000000000000000000000 PUSH1 0x0 MSTORE PUSH1 0x32 PUSH1 0x4 MSTORE PUSH1 0x24 PUSH1 0x0 REVERT JUMPDEST SWAP1 PUSH1 0x0 MSTORE PUSH1 0x20 PUSH1 0x0 KECCAK256 SWAP1 PUSH1 0x3 MUL ADD PUSH1 0x1 ADD SLOAD CALLVALUE EQ PUSH2 0x133C JUMPI PUSH1 0x40 MLOAD PUSH32 0x8C379A000000000000000000000000000000000000000000000000000000000 DUP2 MSTORE PUSH1 0x4 ADD PUSH2 0x1333 SWAP1 PUSH2 0x1E78 JUMP JUMPDEST PUSH1 0x40 MLOAD DUP1 SWAP2 SUB SWAP1 REVERT JUMPDEST PUSH1 0x5 DUP2 DUP2 SLOAD DUP2 LT PUSH2 0x1376 JUMPI PUSH32 0x4E487B7100000000000000000000000000000000000000000000000000000000 PUSH1 0x0 MSTORE PUSH1 0x32 PUSH1 0x4 MSTORE PUSH1 0x24 PUSH1 0x0 REVERT JUMPDEST SWAP1 PUSH1 0x0 MSTORE PUSH1 0x20 PUSH1 0x0 KECCAK256 SWAP1 PUSH1 0x3 MUL ADD PUSH1 0x2 ADD PUSH1 0x0 DUP2 SLOAD DUP1 SWAP3 SWAP2 SWAP1 PUSH2 0x1398 SWAP1 PUSH2 0x2165 JUMP JUMPDEST SWAP2 SWAP1 POP SSTORE POP CALLVALUE PUSH1 0x6 PUSH1 0x0 CALLER PUSH20 0xFFFFFFFFFFFFFFFFFFFFFFFFFFFFFFFFFFFFFFFF AND PUSH20 0xFFFFFFFFFFFFFFFFFFFFFFFFFFFFFFFFFFFFFFFF AND DUP2 MSTORE PUSH1 0x20 ADD SWAP1 DUP2 MSTORE PUSH1 0x20 ADD PUSH1 0x0 KECCAK256 PUSH1 0x0 ADD PUSH1 0x0 DUP3 DUP3 SLOAD PUSH2 0x13EF SWAP2 SWAP1 PUSH2 0x1F6F JUMP JUMPDEST SWAP3 POP POP DUP2 SWAP1 SSTORE POP PUSH1 0x1 PUSH1 0x6 PUSH1 0x0 CALLER PUSH20 0xFFFFFFFFFFFFFFFFFFFFFFFFFFFFFFFFFFFFFFFF AND PUSH20 0xFFFFFFFFFFFFFFFFFFFFFFFFFFFFFFFFFFFFFFFF AND DUP2 MSTORE PUSH1 0x20 ADD SWAP1 DUP2 MSTORE PUSH1 0x20 ADD PUSH1 0x0 KECCAK256 PUSH1 0x1 ADD PUSH1 0x0 DUP4 DUP2 MSTORE PUSH1 0x20 ADD SWAP1 DUP2 MSTORE PUSH1 0x20 ADD PUSH1 0x0 KECCAK256 PUSH1 0x0 PUSH2 0x100 EXP DUP2 SLOAD DUP2 PUSH1 0xFF MUL NOT AND SWAP1 DUP4 ISZERO ISZERO MUL OR SWAP1 SSTORE POP PUSH2 0x146A PUSH2 0x1572 JUMP JUMPDEST POP JUMP JUMPDEST PUSH1 0x60 PUSH1 0x5 DUP1 SLOAD DUP1 PUSH1 0x20 MUL PUSH1 0x20 ADD PUSH1 0x40 MLOAD SWAP1 DUP2 ADD PUSH1 0x40 MSTORE DUP1 SWAP3 SWAP2 SWAP1 DUP2 DUP2 MSTORE PUSH1 0x20 ADD PUSH1 0x0 SWAP1 JUMPDEST DUP3 DUP3 LT ISZERO PUSH2 0x1569 JUMPI DUP4 DUP3 SWAP1 PUSH1 0x0 MSTORE PUSH1 0x20 PUSH1 0x0 KECCAK256 SWAP1 PUSH1 0x3 MUL ADD PUSH1 0x40 MLOAD DUP1 PUSH1 0x60 ADD PUSH1 0x40 MSTORE SWAP1 DUP2 PUSH1 0x0 DUP3 ADD DUP1 SLOAD PUSH2 0x14C4 SWAP1 PUSH2 0x2102 JUMP JUMPDEST DUP1 PUSH1 0x1F ADD PUSH1 0x20 DUP1 SWAP2 DIV MUL PUSH1 0x20 ADD PUSH1 0x40 MLOAD SWAP1 DUP2 ADD PUSH1 0x40 MSTORE DUP1 SWAP3 SWAP2 SWAP1 DUP2 DUP2 MSTORE PUSH1 0x20 ADD DUP3 DUP1 SLOAD PUSH2 0x14F0 SWAP1 PUSH2 0x2102 JUMP JUMPDEST DUP1 ISZERO PUSH2 0x153D JUMPI DUP1 PUSH1 0x1F LT PUSH2 0x1512 JUMPI PUSH2 0x100 DUP1 DUP4 SLOAD DIV MUL DUP4 MSTORE SWAP2 PUSH1 0x20 ADD SWAP2 PUSH2 0x153D JUMP JUMPDEST DUP3 ADD SWAP2 SWAP1 PUSH1 0x0 MSTORE PUSH1 0x20 PUSH1 0x0 KECCAK256 SWAP1 JUMPDEST DUP2 SLOAD DUP2 MSTORE SWAP1 PUSH1 0x1 ADD SWAP1 PUSH1 0x20 ADD DUP1 DUP4 GT PUSH2 0x1520 JUMPI DUP3 SWAP1 SUB PUSH1 0x1F AND DUP3 ADD SWAP2 JUMPDEST POP POP POP POP POP DUP2 MSTORE PUSH1 0x20 ADD PUSH1 0x1 DUP3 ADD SLOAD DUP2 MSTORE PUSH1 0x20 ADD PUSH1 0x2 DUP3 ADD SLOAD DUP2 MSTORE POP POP DUP2 MSTORE PUSH1 0x20 ADD SWAP1 PUSH1 0x1 ADD SWAP1 PUSH2 0x1491 JUMP JUMPDEST POP POP POP POP SWAP1 POP SWAP1 JUMP JUMPDEST PUSH1 0x0 PUSH1 0x2 DUP2 GT ISZERO PUSH2 0x15AC JUMPI PUSH32 0x4E487B7100000000000000000000000000000000000000000000000000000000 PUSH1 0x0 MSTORE PUSH1 0x21 PUSH1 0x4 MSTORE PUSH1 0x24 PUSH1 0x0 REVERT JUMPDEST PUSH1 0x4 PUSH1 0x15 SWAP1 SLOAD SWAP1 PUSH2 0x100 EXP SWAP1 DIV PUSH1 0xFF AND PUSH1 0x2 DUP2 GT ISZERO PUSH2 0x15F4 JUMPI PUSH32 0x4E487B7100000000000000000000000000000000000000000000000000000000 PUSH1 0x0 MSTORE PUSH1 0x21 PUSH1 0x4 MSTORE PUSH1 0x24 PUSH1 0x0 REVERT JUMPDEST EQ ISZERO PUSH2 0x1668 JUMPI PUSH1 0x3 SLOAD TIMESTAMP LT PUSH2 0x1667 JUMPI PUSH1 0x2 SLOAD SELFBALANCE LT ISZERO PUSH2 0x1614 JUMPI PUSH1 0x2 PUSH2 0x1617 JUMP JUMPDEST PUSH1 0x1 JUMPDEST PUSH1 0x4 PUSH1 0x15 PUSH2 0x100 EXP DUP2 SLOAD DUP2 PUSH1 0xFF MUL NOT AND SWAP1 DUP4 PUSH1 0x2 DUP2 GT ISZERO PUSH2 0x1661 JUMPI PUSH32 0x4E487B7100000000000000000000000000000000000000000000000000000000 PUSH1 0x0 MSTORE PUSH1 0x21 PUSH1 0x4 MSTORE PUSH1 0x24 PUSH1 0x0 REVERT JUMPDEST MUL OR SWAP1 SSTORE POP JUMPDEST JUMPDEST JUMP JUMPDEST DUP3 DUP1 SLOAD PUSH2 0x1676 SWAP1 PUSH2 0x2102 JUMP JUMPDEST SWAP1 PUSH1 0x0 MSTORE PUSH1 0x20 PUSH1 0x0 KECCAK256 SWAP1 PUSH1 0x1F ADD PUSH1 0x20 SWAP1 DIV DUP2 ADD SWAP3 DUP3 PUSH2 0x1698 JUMPI PUSH1 0x0 DUP6 SSTORE PUSH2 0x16E6 JUMP JUMPDEST DUP3 PUSH1 0x1F LT PUSH2 0x16A9 JUMPI DUP1 SLOAD DUP6 SSTORE PUSH2 0x16E6 JUMP JUMPDEST DUP3 DUP1 ADD PUSH1 0x1 ADD DUP6 SSTORE DUP3 ISZERO PUSH2 0x16E6 JUMPI PUSH1 0x0 MSTORE PUSH1 0x20 PUSH1 0x0 KECCAK256 SWAP2 PUSH1 0x1F ADD PUSH1 0x20 SWAP1 DIV DUP3 ADD JUMPDEST DUP3 DUP2 GT ISZERO PUSH2 0x16E5 JUMPI DUP3 SLOAD DUP3 SSTORE SWAP2 PUSH1 0x1 ADD SWAP2 SWAP1 PUSH1 0x1 ADD SWAP1 PUSH2 0x16CA JUMP JUMPDEST JUMPDEST POP SWAP1 POP PUSH2 0x16F3 SWAP2 SWAP1 PUSH2 0x17BD JUMP JUMPDEST POP SWAP1 JUMP JUMPDEST POP DUP1 SLOAD PUSH2 0x1703 SWAP1 PUSH2 0x2102 JUMP JUMPDEST PUSH1 0x0 DUP3 SSTORE DUP1 PUSH1 0x1F LT PUSH2 0x1715 JUMPI POP PUSH2 0x1734 JUMP JUMPDEST PUSH1 0x1F ADD PUSH1 0x20 SWAP1 DIV SWAP1 PUSH1 0x0 MSTORE PUSH1 0x20 PUSH1 0x0 KECCAK256 SWAP1 DUP2 ADD SWAP1 PUSH2 0x1733 SWAP2 SWAP1 PUSH2 0x17BD JUMP JUMPDEST JUMPDEST POP JUMP JUMPDEST DUP3 DUP1 SLOAD PUSH2 0x1743 SWAP1 PUSH2 0x2102 JUMP JUMPDEST SWAP1 PUSH1 0x0 MSTORE PUSH1 0x20 PUSH1 0x0 KECCAK256 SWAP1 PUSH1 0x1F ADD PUSH1 0x20 SWAP1 DIV DUP2 ADD SWAP3 DUP3 PUSH2 0x1765 JUMPI PUSH1 0x0 DUP6 SSTORE PUSH2 0x17AC JUMP JUMPDEST DUP3 PUSH1 0x1F LT PUSH2 0x177E JUMPI DUP1 MLOAD PUSH1 0xFF NOT AND DUP4 DUP1 ADD OR DUP6 SSTORE PUSH2 0x17AC JUMP JUMPDEST DUP3 DUP1 ADD PUSH1 0x1 ADD DUP6 SSTORE DUP3 ISZERO PUSH2 0x17AC JUMPI SWAP2 DUP3 ADD JUMPDEST DUP3 DUP2 GT ISZERO PUSH2 0x17AB JUMPI DUP3 MLOAD DUP3 SSTORE SWAP2 PUSH1 0x20 ADD SWAP2 SWAP1 PUSH1 0x1 ADD SWAP1 PUSH2 0x1790 JUMP JUMPDEST JUMPDEST POP SWAP1 POP PUSH2 0x17B9 SWAP2 SWAP1 PUSH2 0x17BD JUMP JUMPDEST POP SWAP1 JUMP JUMPDEST JUMPDEST DUP1 DUP3 GT ISZERO PUSH2 0x17D6 JUMPI PUSH1 0x0 DUP2 PUSH1 0x0 SWAP1 SSTORE POP PUSH1 0x1 ADD PUSH2 0x17BE JUMP JUMPDEST POP SWAP1 JUMP JUMPDEST PUSH1 0x0 PUSH2 0x17ED PUSH2 0x17E8 DUP5 PUSH2 0x1ED8 JUMP JUMPDEST PUSH2 0x1EB3 JUMP JUMPDEST SWAP1 POP DUP3 DUP2 MSTORE PUSH1 0x20 DUP2 ADD DUP5 DUP5 DUP5 ADD GT ISZERO PUSH2 0x1805 JUMPI PUSH1 0x0 DUP1 REVERT JUMPDEST PUSH2 0x1810 DUP5 DUP3 DUP6 PUSH2 0x20C0 JUMP JUMPDEST POP SWAP4 SWAP3 POP POP POP JUMP JUMPDEST PUSH1 0x0 DUP2 CALLDATALOAD SWAP1 POP PUSH2 0x1827 DUP2 PUSH2 0x2452 JUMP JUMPDEST SWAP3 SWAP2 POP POP JUMP JUMPDEST PUSH1 0x0 DUP3 PUSH1 0x1F DUP4 ADD SLT PUSH2 0x183E JUMPI PUSH1 0x0 DUP1 REVERT JUMPDEST DUP2 CALLDATALOAD PUSH2 0x184E DUP5 DUP3 PUSH1 0x20 DUP7 ADD PUSH2 0x17DA JUMP JUMPDEST SWAP2 POP POP SWAP3 SWAP2 POP POP JUMP JUMPDEST PUSH1 0x0 DUP2 CALLDATALOAD SWAP1 POP PUSH2 0x1866 DUP2 PUSH2 0x2469 JUMP JUMPDEST SWAP3 SWAP2 POP POP JUMP JUMPDEST PUSH1 0x0 PUSH1 0x20 DUP3 DUP5 SUB SLT ISZERO PUSH2 0x187E JUMPI PUSH1 0x0 DUP1 REVERT JUMPDEST PUSH1 0x0 PUSH2 0x188C DUP5 DUP3 DUP6 ADD PUSH2 0x1818 JUMP JUMPDEST SWAP2 POP POP SWAP3 SWAP2 POP POP JUMP JUMPDEST PUSH1 0x0 DUP1 PUSH1 0x40 DUP4 DUP6 SUB SLT ISZERO PUSH2 0x18A8 JUMPI PUSH1 0x0 DUP1 REVERT JUMPDEST PUSH1 0x0 PUSH2 0x18B6 DUP6 DUP3 DUP7 ADD PUSH2 0x1818 JUMP JUMPDEST SWAP3 POP POP PUSH1 0x20 PUSH2 0x18C7 DUP6 DUP3 DUP7 ADD PUSH2 0x1857 JUMP JUMPDEST SWAP2 POP POP SWAP3 POP SWAP3 SWAP1 POP JUMP JUMPDEST PUSH1 0x0 DUP1 PUSH1 0x40 DUP4 DUP6 SUB SLT ISZERO PUSH2 0x18E4 JUMPI PUSH1 0x0 DUP1 REVERT JUMPDEST PUSH1 0x0 DUP4 ADD CALLDATALOAD PUSH8 0xFFFFFFFFFFFFFFFF DUP2 GT ISZERO PUSH2 0x18FE JUMPI PUSH1 0x0 DUP1 REVERT JUMPDEST PUSH2 0x190A DUP6 DUP3 DUP7 ADD PUSH2 0x182D JUMP JUMPDEST SWAP3 POP POP PUSH1 0x20 PUSH2 0x191B DUP6 DUP3 DUP7 ADD PUSH2 0x1857 JUMP JUMPDEST SWAP2 POP POP SWAP3 POP SWAP3 SWAP1 POP JUMP JUMPDEST PUSH1 0x0 PUSH1 0x20 DUP3 DUP5 SUB SLT ISZERO PUSH2 0x1937 JUMPI PUSH1 0x0 DUP1 REVERT JUMPDEST PUSH1 0x0 PUSH2 0x1945 DUP5 DUP3 DUP6 ADD PUSH2 0x1857 JUMP JUMPDEST SWAP2 POP POP SWAP3 SWAP2 POP POP JUMP JUMPDEST PUSH1 0x0 PUSH2 0x195A DUP4 DUP4 PUSH2 0x1BF7 JUMP JUMPDEST SWAP1 POP SWAP3 SWAP2 POP POP JUMP JUMPDEST PUSH2 0x196B DUP2 PUSH2 0x2053 JUMP JUMPDEST DUP3 MSTORE POP POP JUMP JUMPDEST PUSH1 0x0 PUSH2 0x197C DUP3 PUSH2 0x1F19 JUMP JUMPDEST PUSH2 0x1986 DUP2 DUP6 PUSH2 0x1F3C JUMP JUMPDEST SWAP4 POP DUP4 PUSH1 0x20 DUP3 MUL DUP6 ADD PUSH2 0x1998 DUP6 PUSH2 0x1F09 JUMP JUMPDEST DUP1 PUSH1 0x0 JUMPDEST DUP6 DUP2 LT ISZERO PUSH2 0x19D4 JUMPI DUP5 DUP5 SUB DUP10 MSTORE DUP2 MLOAD PUSH2 0x19B5 DUP6 DUP3 PUSH2 0x194E JUMP JUMPDEST SWAP5 POP PUSH2 0x19C0 DUP4 PUSH2 0x1F2F JUMP JUMPDEST SWAP3 POP PUSH1 0x20 DUP11 ADD SWAP10 POP POP PUSH1 0x1 DUP2 ADD SWAP1 POP PUSH2 0x199C JUMP JUMPDEST POP DUP3 SWAP8 POP DUP8 SWAP6 POP POP POP POP POP POP SWAP3 SWAP2 POP POP JUMP JUMPDEST PUSH2 0x19EF DUP2 PUSH2 0x2065 JUMP JUMPDEST DUP3 MSTORE POP POP JUMP JUMPDEST PUSH2 0x19FE DUP2 PUSH2 0x20AE JUMP JUMPDEST DUP3 MSTORE POP POP JUMP JUMPDEST PUSH1 0x0 PUSH2 0x1A0F DUP3 PUSH2 0x1F24 JUMP JUMPDEST PUSH2 0x1A19 DUP2 DUP6 PUSH2 0x1F4D JUMP JUMPDEST SWAP4 POP PUSH2 0x1A29 DUP2 DUP6 PUSH1 0x20 DUP7 ADD PUSH2 0x20CF JUMP JUMPDEST PUSH2 0x1A32 DUP2 PUSH2 0x226A JUMP JUMPDEST DUP5 ADD SWAP2 POP POP SWAP3 SWAP2 POP POP JUMP JUMPDEST PUSH1 0x0 PUSH2 0x1A48 DUP3 PUSH2 0x1F24 JUMP JUMPDEST PUSH2 0x1A52 DUP2 DUP6 PUSH2 0x1F5E JUMP JUMPDEST SWAP4 POP PUSH2 0x1A62 DUP2 DUP6 PUSH1 0x20 DUP7 ADD PUSH2 0x20CF JUMP JUMPDEST PUSH2 0x1A6B DUP2 PUSH2 0x226A JUMP JUMPDEST DUP5 ADD SWAP2 POP POP SWAP3 SWAP2 POP POP JUMP JUMPDEST PUSH1 0x0 PUSH2 0x1A83 PUSH1 0xC DUP4 PUSH2 0x1F5E JUMP JUMPDEST SWAP2 POP PUSH2 0x1A8E DUP3 PUSH2 0x227B JUMP JUMPDEST PUSH1 0x20 DUP3 ADD SWAP1 POP SWAP2 SWAP1 POP JUMP JUMPDEST PUSH1 0x0 PUSH2 0x1AA6 PUSH1 0x14 DUP4 PUSH2 0x1F5E JUMP JUMPDEST SWAP2 POP PUSH2 0x1AB1 DUP3 PUSH2 0x22A4 JUMP JUMPDEST PUSH1 0x20 DUP3 ADD SWAP1 POP SWAP2 SWAP1 POP JUMP JUMPDEST PUSH1 0x0 PUSH2 0x1AC9 PUSH1 0x1D DUP4 PUSH2 0x1F5E JUMP JUMPDEST SWAP2 POP PUSH2 0x1AD4 DUP3 PUSH2 0x22CD JUMP JUMPDEST PUSH1 0x20 DUP3 ADD SWAP1 POP SWAP2 SWAP1 POP JUMP JUMPDEST PUSH1 0x0 PUSH2 0x1AEC PUSH1 0x13 DUP4 PUSH2 0x1F5E JUMP JUMPDEST SWAP2 POP PUSH2 0x1AF7 DUP3 PUSH2 0x22F6 JUMP JUMPDEST PUSH1 0x20 DUP3 ADD SWAP1 POP SWAP2 SWAP1 POP JUMP JUMPDEST PUSH1 0x0 PUSH2 0x1B0F PUSH1 0xD DUP4 PUSH2 0x1F5E JUMP JUMPDEST SWAP2 POP PUSH2 0x1B1A DUP3 PUSH2 0x231F JUMP JUMPDEST PUSH1 0x20 DUP3 ADD SWAP1 POP SWAP2 SWAP1 POP JUMP JUMPDEST PUSH1 0x0 PUSH2 0x1B32 PUSH1 0x16 DUP4 PUSH2 0x1F5E JUMP JUMPDEST SWAP2 POP PUSH2 0x1B3D DUP3 PUSH2 0x2348 JUMP JUMPDEST PUSH1 0x20 DUP3 ADD SWAP1 POP SWAP2 SWAP1 POP JUMP JUMPDEST PUSH1 0x0 PUSH2 0x1B55 PUSH1 0x19 DUP4 PUSH2 0x1F5E JUMP JUMPDEST SWAP2 POP PUSH2 0x1B60 DUP3 PUSH2 0x2371 JUMP JUMPDEST PUSH1 0x20 DUP3 ADD SWAP1 POP SWAP2 SWAP1 POP JUMP JUMPDEST PUSH1 0x0 PUSH2 0x1B78 PUSH1 0x16 DUP4 PUSH2 0x1F5E JUMP JUMPDEST SWAP2 POP PUSH2 0x1B83 DUP3 PUSH2 0x239A JUMP JUMPDEST PUSH1 0x20 DUP3 ADD SWAP1 POP SWAP2 SWAP1 POP JUMP JUMPDEST PUSH1 0x0 PUSH2 0x1B9B PUSH1 0x17 DUP4 PUSH2 0x1F5E JUMP JUMPDEST SWAP2 POP PUSH2 0x1BA6 DUP3 PUSH2 0x23C3 JUMP JUMPDEST PUSH1 0x20 DUP3 ADD SWAP1 POP SWAP2 SWAP1 POP JUMP JUMPDEST PUSH1 0x0 PUSH2 0x1BBE PUSH1 0x12 DUP4 PUSH2 0x1F5E JUMP JUMPDEST SWAP2 POP PUSH2 0x1BC9 DUP3 PUSH2 0x23EC JUMP JUMPDEST PUSH1 0x20 DUP3 ADD SWAP1 POP SWAP2 SWAP1 POP JUMP JUMPDEST PUSH1 0x0 PUSH2 0x1BE1 PUSH1 0x10 DUP4 PUSH2 0x1F5E JUMP JUMPDEST SWAP2 POP PUSH2 0x1BEC DUP3 PUSH2 0x2415 JUMP JUMPDEST PUSH1 0x20 DUP3 ADD SWAP1 POP SWAP2 SWAP1 POP JUMP JUMPDEST PUSH1 0x0 PUSH1 0x60 DUP4 ADD PUSH1 0x0 DUP4 ADD MLOAD DUP5 DUP3 SUB PUSH1 0x0 DUP7 ADD MSTORE PUSH2 0x1C14 DUP3 DUP3 PUSH2 0x1A04 JUMP JUMPDEST SWAP2 POP POP PUSH1 0x20 DUP4 ADD MLOAD PUSH2 0x1C29 PUSH1 0x20 DUP7 ADD DUP3 PUSH2 0x1C47 JUMP JUMPDEST POP PUSH1 0x40 DUP4 ADD MLOAD PUSH2 0x1C3C PUSH1 0x40 DUP7 ADD DUP3 PUSH2 0x1C47 JUMP JUMPDEST POP DUP1 SWAP2 POP POP SWAP3 SWAP2 POP POP JUMP JUMPDEST PUSH2 0x1C50 DUP2 PUSH2 0x20A4 JUMP JUMPDEST DUP3 MSTORE POP POP JUMP JUMPDEST PUSH2 0x1C5F DUP2 PUSH2 0x20A4 JUMP JUMPDEST DUP3 MSTORE POP POP JUMP JUMPDEST PUSH1 0x0 PUSH1 0x20 DUP3 ADD SWAP1 POP PUSH2 0x1C7A PUSH1 0x0 DUP4 ADD DUP5 PUSH2 0x1962 JUMP JUMPDEST SWAP3 SWAP2 POP POP JUMP JUMPDEST PUSH1 0x0 PUSH1 0x20 DUP3 ADD SWAP1 POP DUP2 DUP2 SUB PUSH1 0x0 DUP4 ADD MSTORE PUSH2 0x1C9A DUP2 DUP5 PUSH2 0x1971 JUMP JUMPDEST SWAP1 POP SWAP3 SWAP2 POP POP JUMP JUMPDEST PUSH1 0x0 PUSH1 0x20 DUP3 ADD SWAP1 POP PUSH2 0x1CB7 PUSH1 0x0 DUP4 ADD DUP5 PUSH2 0x19E6 JUMP JUMPDEST SWAP3 SWAP2 POP POP JUMP JUMPDEST PUSH1 0x0 PUSH1 0x20 DUP3 ADD SWAP1 POP PUSH2 0x1CD2 PUSH1 0x0 DUP4 ADD DUP5 PUSH2 0x19F5 JUMP JUMPDEST SWAP3 SWAP2 POP POP JUMP JUMPDEST PUSH1 0x0 PUSH1 0x20 DUP3 ADD SWAP1 POP DUP2 DUP2 SUB PUSH1 0x0 DUP4 ADD MSTORE PUSH2 0x1CF2 DUP2 DUP5 PUSH2 0x1A3D JUMP JUMPDEST SWAP1 POP SWAP3 SWAP2 POP POP JUMP JUMPDEST PUSH1 0x0 PUSH1 0x60 DUP3 ADD SWAP1 POP DUP2 DUP2 SUB PUSH1 0x0 DUP4 ADD MSTORE PUSH2 0x1D14 DUP2 DUP7 PUSH2 0x1A3D JUMP JUMPDEST SWAP1 POP PUSH2 0x1D23 PUSH1 0x20 DUP4 ADD DUP6 PUSH2 0x1C56 JUMP JUMPDEST PUSH2 0x1D30 PUSH1 0x40 DUP4 ADD DUP5 PUSH2 0x1C56 JUMP JUMPDEST SWAP5 SWAP4 POP POP POP POP JUMP JUMPDEST PUSH1 0x0 PUSH1 0x20 DUP3 ADD SWAP1 POP DUP2 DUP2 SUB PUSH1 0x0 DUP4 ADD MSTORE PUSH2 0x1D51 DUP2 PUSH2 0x1A76 JUMP JUMPDEST SWAP1 POP SWAP2 SWAP1 POP JUMP JUMPDEST PUSH1 0x0 PUSH1 0x20 DUP3 ADD SWAP1 POP DUP2 DUP2 SUB PUSH1 0x0 DUP4 ADD MSTORE PUSH2 0x1D71 DUP2 PUSH2 0x1A99 JUMP JUMPDEST SWAP1 POP SWAP2 SWAP1 POP JUMP JUMPDEST PUSH1 0x0 PUSH1 0x20 DUP3 ADD SWAP1 POP DUP2 DUP2 SUB PUSH1 0x0 DUP4 ADD MSTORE PUSH2 0x1D91 DUP2 PUSH2 0x1ABC JUMP JUMPDEST SWAP1 POP SWAP2 SWAP1 POP JUMP JUMPDEST PUSH1 0x0 PUSH1 0x20 DUP3 ADD SWAP1 POP DUP2 DUP2 SUB PUSH1 0x0 DUP4 ADD MSTORE PUSH2 0x1DB1 DUP2 PUSH2 0x1ADF JUMP JUMPDEST SWAP1 POP SWAP2 SWAP1 POP JUMP JUMPDEST PUSH1 0x0 PUSH1 0x20 DUP3 ADD SWAP1 POP DUP2 DUP2 SUB PUSH1 0x0 DUP4 ADD MSTORE PUSH2 0x1DD1 DUP2 PUSH2 0x1B02 JUMP JUMPDEST SWAP1 POP SWAP2 SWAP1 POP JUMP JUMPDEST PUSH1 0x0 PUSH1 0x20 DUP3 ADD SWAP1 POP DUP2 DUP2 SUB PUSH1 0x0 DUP4 ADD MSTORE PUSH2 0x1DF1 DUP2 PUSH2 0x1B25 JUMP JUMPDEST SWAP1 POP SWAP2 SWAP1 POP JUMP JUMPDEST PUSH1 0x0 PUSH1 0x20 DUP3 ADD SWAP1 POP DUP2 DUP2 SUB PUSH1 0x0 DUP4 ADD MSTORE PUSH2 0x1E11 DUP2 PUSH2 0x1B48 JUMP JUMPDEST SWAP1 POP SWAP2 SWAP1 POP JUMP JUMPDEST PUSH1 0x0 PUSH1 0x20 DUP3 ADD SWAP1 POP DUP2 DUP2 SUB PUSH1 0x0 DUP4 ADD MSTORE PUSH2 0x1E31 DUP2 PUSH2 0x1B6B JUMP JUMPDEST SWAP1 POP SWAP2 SWAP1 POP JUMP JUMPDEST PUSH1 0x0 PUSH1 0x20 DUP3 ADD SWAP1 POP DUP2 DUP2 SUB PUSH1 0x0 DUP4 ADD MSTORE PUSH2 0x1E51 DUP2 PUSH2 0x1B8E JUMP JUMPDEST SWAP1 POP SWAP2 SWAP1 POP JUMP JUMPDEST PUSH1 0x0 PUSH1 0x20 DUP3 ADD SWAP1 POP DUP2 DUP2 SUB PUSH1 0x0 DUP4 ADD MSTORE PUSH2 0x1E71 DUP2 PUSH2 0x1BB1 JUMP JUMPDEST SWAP1 POP SWAP2 SWAP1 POP JUMP JUMPDEST PUSH1 0x0 PUSH1 0x20 DUP3 ADD SWAP1 POP DUP2 DUP2 SUB PUSH1 0x0 DUP4 ADD MSTORE PUSH2 0x1E91 DUP2 PUSH2 0x1BD4 JUMP JUMPDEST SWAP1 POP SWAP2 SWAP1 POP JUMP JUMPDEST PUSH1 0x0 PUSH1 0x20 DUP3 ADD SWAP1 POP PUSH2 0x1EAD PUSH1 0x0 DUP4 ADD DUP5 PUSH2 0x1C56 JUMP JUMPDEST SWAP3 SWAP2 POP POP JUMP JUMPDEST PUSH1 0x0 PUSH2 0x1EBD PUSH2 0x1ECE JUMP JUMPDEST SWAP1 POP PUSH2 0x1EC9 DUP3 DUP3 PUSH2 0x2134 JUMP JUMPDEST SWAP2 SWAP1 POP JUMP JUMPDEST PUSH1 0x0 PUSH1 0x40 MLOAD SWAP1 POP SWAP1 JUMP JUMPDEST PUSH1 0x0 PUSH8 0xFFFFFFFFFFFFFFFF DUP3 GT ISZERO PUSH2 0x1EF3 JUMPI PUSH2 0x1EF2 PUSH2 0x223B JUMP JUMPDEST JUMPDEST PUSH2 0x1EFC DUP3 PUSH2 0x226A JUMP JUMPDEST SWAP1 POP PUSH1 0x20 DUP2 ADD SWAP1 POP SWAP2 SWAP1 POP JUMP JUMPDEST PUSH1 0x0 DUP2 SWAP1 POP PUSH1 0x20 DUP3 ADD SWAP1 POP SWAP2 SWAP1 POP JUMP JUMPDEST PUSH1 0x0 DUP2 MLOAD SWAP1 POP SWAP2 SWAP1 POP JUMP JUMPDEST PUSH1 0x0 DUP2 MLOAD SWAP1 POP SWAP2 SWAP1 POP JUMP JUMPDEST PUSH1 0x0 PUSH1 0x20 DUP3 ADD SWAP1 POP SWAP2 SWAP1 POP JUMP JUMPDEST PUSH1 0x0 DUP3 DUP3 MSTORE PUSH1 0x20 DUP3 ADD SWAP1 POP SWAP3 SWAP2 POP POP JUMP JUMPDEST PUSH1 0x0 DUP3 DUP3 MSTORE PUSH1 0x20 DUP3 ADD SWAP1 POP SWAP3 SWAP2 POP POP JUMP JUMPDEST PUSH1 0x0 DUP3 DUP3 MSTORE PUSH1 0x20 DUP3 ADD SWAP1 POP SWAP3 SWAP2 POP POP JUMP JUMPDEST PUSH1 0x0 PUSH2 0x1F7A DUP3 PUSH2 0x20A4 JUMP JUMPDEST SWAP2 POP PUSH2 0x1F85 DUP4 PUSH2 0x20A4 JUMP JUMPDEST SWAP3 POP DUP3 PUSH32 0xFFFFFFFFFFFFFFFFFFFFFFFFFFFFFFFFFFFFFFFFFFFFFFFFFFFFFFFFFFFFFFFF SUB DUP3 GT ISZERO PUSH2 0x1FBA JUMPI PUSH2 0x1FB9 PUSH2 0x21AE JUMP JUMPDEST JUMPDEST DUP3 DUP3 ADD SWAP1 POP SWAP3 SWAP2 POP POP JUMP JUMPDEST PUSH1 0x0 PUSH2 0x1FD0 DUP3 PUSH2 0x20A4 JUMP JUMPDEST SWAP2 POP PUSH2 0x1FDB DUP4 PUSH2 0x20A4 JUMP JUMPDEST SWAP3 POP DUP2 PUSH32 0xFFFFFFFFFFFFFFFFFFFFFFFFFFFFFFFFFFFFFFFFFFFFFFFFFFFFFFFFFFFFFFFF DIV DUP4 GT DUP3 ISZERO ISZERO AND ISZERO PUSH2 0x2014 JUMPI PUSH2 0x2013 PUSH2 0x21AE JUMP JUMPDEST JUMPDEST DUP3 DUP3 MUL SWAP1 POP SWAP3 SWAP2 POP POP JUMP JUMPDEST PUSH1 0x0 PUSH2 0x202A DUP3 PUSH2 0x20A4 JUMP JUMPDEST SWAP2 POP PUSH2 0x2035 DUP4 PUSH2 0x20A4 JUMP JUMPDEST SWAP3 POP DUP3 DUP3 LT ISZERO PUSH2 0x2048 JUMPI PUSH2 0x2047 PUSH2 0x21AE JUMP JUMPDEST JUMPDEST DUP3 DUP3 SUB SWAP1 POP SWAP3 SWAP2 POP POP JUMP JUMPDEST PUSH1 0x0 PUSH2 0x205E DUP3 PUSH2 0x2084 JUMP JUMPDEST SWAP1 POP SWAP2 SWAP1 POP JUMP JUMPDEST PUSH1 0x0 DUP2 ISZERO ISZERO SWAP1 POP SWAP2 SWAP1 POP JUMP JUMPDEST PUSH1 0x0 DUP2 SWAP1 POP PUSH2 0x207F DUP3 PUSH2 0x243E JUMP JUMPDEST SWAP2 SWAP1 POP JUMP JUMPDEST PUSH1 0x0 PUSH20 0xFFFFFFFFFFFFFFFFFFFFFFFFFFFFFFFFFFFFFFFF DUP3 AND SWAP1 POP SWAP2 SWAP1 POP JUMP JUMPDEST PUSH1 0x0 DUP2 SWAP1 POP SWAP2 SWAP1 POP JUMP JUMPDEST PUSH1 0x0 PUSH2 0x20B9 DUP3 PUSH2 0x2071 JUMP JUMPDEST SWAP1 POP SWAP2 SWAP1 POP JUMP JUMPDEST DUP3 DUP2 DUP4 CALLDATACOPY PUSH1 0x0 DUP4 DUP4 ADD MSTORE POP POP POP JUMP JUMPDEST PUSH1 0x0 JUMPDEST DUP4 DUP2 LT ISZERO PUSH2 0x20ED JUMPI DUP1 DUP3 ADD MLOAD DUP2 DUP5 ADD MSTORE PUSH1 0x20 DUP2 ADD SWAP1 POP PUSH2 0x20D2 JUMP JUMPDEST DUP4 DUP2 GT ISZERO PUSH2 0x20FC JUMPI PUSH1 0x0 DUP5 DUP5 ADD MSTORE JUMPDEST POP POP POP POP JUMP JUMPDEST PUSH1 0x0 PUSH1 0x2 DUP3 DIV SWAP1 POP PUSH1 0x1 DUP3 AND DUP1 PUSH2 0x211A JUMPI PUSH1 0x7F DUP3 AND SWAP2 POP JUMPDEST PUSH1 0x20 DUP3 LT DUP2 EQ ISZERO PUSH2 0x212E JUMPI PUSH2 0x212D PUSH2 0x220C JUMP JUMPDEST JUMPDEST POP SWAP2 SWAP1 POP JUMP JUMPDEST PUSH2 0x213D DUP3 PUSH2 0x226A JUMP JUMPDEST DUP2 ADD DUP2 DUP2 LT PUSH8 0xFFFFFFFFFFFFFFFF DUP3 GT OR ISZERO PUSH2 0x215C JUMPI PUSH2 0x215B PUSH2 0x223B JUMP JUMPDEST JUMPDEST DUP1 PUSH1 0x40 MSTORE POP POP POP JUMP JUMPDEST PUSH1 0x0 PUSH2 0x2170 DUP3 PUSH2 0x20A4 JUMP JUMPDEST SWAP2 POP PUSH32 0xFFFFFFFFFFFFFFFFFFFFFFFFFFFFFFFFFFFFFFFFFFFFFFFFFFFFFFFFFFFFFFFF DUP3 EQ ISZERO PUSH2 0x21A3 JUMPI PUSH2 0x21A2 PUSH2 0x21AE JUMP JUMPDEST JUMPDEST PUSH1 0x1 DUP3 ADD SWAP1 POP SWAP2 SWAP1 POP JUMP JUMPDEST PUSH32 0x4E487B7100000000000000000000000000000000000000000000000000000000 PUSH1 0x0 MSTORE PUSH1 0x11 PUSH1 0x4 MSTORE PUSH1 0x24 PUSH1 0x0 REVERT JUMPDEST PUSH32 0x4E487B7100000000000000000000000000000000000000000000000000000000 PUSH1 0x0 MSTORE PUSH1 0x21 PUSH1 0x4 MSTORE PUSH1 0x24 PUSH1 0x0 REVERT JUMPDEST PUSH32 0x4E487B7100000000000000000000000000000000000000000000000000000000 PUSH1 0x0 MSTORE PUSH1 0x22 PUSH1 0x4 MSTORE PUSH1 0x24 PUSH1 0x0 REVERT JUMPDEST PUSH32 0x4E487B7100000000000000000000000000000000000000000000000000000000 PUSH1 0x0 MSTORE PUSH1 0x41 PUSH1 0x4 MSTORE PUSH1 0x24 PUSH1 0x0 REVERT JUMPDEST PUSH1 0x0 PUSH1 0x1F NOT PUSH1 0x1F DUP4 ADD AND SWAP1 POP SWAP2 SWAP1 POP JUMP JUMPDEST PUSH32 0x496E76616C696420746965720000000000000000000000000000000000000000 PUSH1 0x0 DUP3 ADD MSTORE POP JUMP JUMPDEST PUSH32 0x526566756E64206E6F7420617661696C61626C65000000000000000000000000 PUSH1 0x0 DUP3 ADD MSTORE POP JUMP JUMPDEST PUSH32 0x416D6F756E74206D7573742062652067726561746572207468616E2030000000 PUSH1 0x0 DUP3 ADD MSTORE POP JUMP JUMPDEST PUSH32 0x5469657220646F6573206E6F7420657869737400000000000000000000000000 PUSH1 0x0 DUP3 ADD MSTORE POP JUMP JUMPDEST PUSH32 0x4E6F7420746865206F776E657200000000000000000000000000000000000000 PUSH1 0x0 DUP3 ADD MSTORE POP JUMP JUMPDEST PUSH32 0x43616D706169676E206973206E6F742061637469766500000000000000000000 PUSH1 0x0 DUP3 ADD MSTORE POP JUMP JUMPDEST PUSH32 0x4E6F20636F6E747269627574696F6E20746F20726566756E6400000000000000 PUSH1 0x0 DUP3 ADD MSTORE POP JUMP JUMPDEST PUSH32 0x4E6F2062616C616E636520746F20776974686472617700000000000000000000 PUSH1 0x0 DUP3 ADD MSTORE POP JUMP JUMPDEST PUSH32 0x43616D706169676E206E6F74207375636365737366756C000000000000000000 PUSH1 0x0 DUP3 ADD MSTORE POP JUMP JUMPDEST PUSH32 0x436F6E7472616374206973207061757365640000000000000000000000000000 PUSH1 0x0 DUP3 ADD MSTORE POP JUMP JUMPDEST PUSH32 0x496E636F727265637420616D6F756E7400000000000000000000000000000000 PUSH1 0x0 DUP3 ADD MSTORE POP JUMP JUMPDEST PUSH1 0x3 DUP2 LT PUSH2 0x244F JUMPI PUSH2 0x244E PUSH2 0x21DD JUMP JUMPDEST JUMPDEST POP JUMP JUMPDEST PUSH2 0x245B DUP2 PUSH2 0x2053 JUMP JUMPDEST DUP2 EQ PUSH2 0x2466 JUMPI PUSH1 0x0 DUP1 REVERT JUMPDEST POP JUMP JUMPDEST PUSH2 0x2472 DUP2 PUSH2 0x20A4 JUMP JUMPDEST DUP2 EQ PUSH2 0x247D JUMPI PUSH1 0x0 DUP1 REVERT JUMPDEST POP JUMP INVALID LOG2 PUSH5 0x6970667358 0x22 SLT KECCAK256 SWAP10 SWAP15 BALANCE SWAP2 0xEA 0xE3 0x4B PUSH9 0xD99F076C26582C301E PUSH23 0x15AB3EAAF4E59A6B79CA79D9483A64736F6C6343000803 STOP CALLER "
				},
				"gasEstimates": {
					"creation": {
						"codeDepositCost": "1879600",
						"executionCost": "infinite",
						"totalCost": "infinite"
					},
					"external": {
						"addTier(string,uint256)": "infinite",
						"backers(address)": "1550",
						"deadline()": "1219",
						"description()": "infinite",
						"extendDeadline(uint256)": "infinite",
						"fund(uint256)": "infinite",
						"getCampaignStatus()": "3181",
						"getTiers()": "infinite",
						"goal()": "1196",
						"hasFundedTier(address,uint256)": "1907",
						"name()": "infinite",
						"owner()": "1303",
						"paused()": "1332",
						"refund()": "infinite",
						"removeTier(uint256)": "infinite",
						"state()": "1354",
						"tiers(uint256)": "infinite",
						"togglePause()": "22886",
						"withdraw()": "infinite"
					},
					"internal": {
						"checkAndUpdateCampaignState()": "23571"
					}
				},
				"methodIdentifiers": {
					"addTier(string,uint256)": "8ece7b91",
					"backers(address)": "b85dfb80",
					"deadline()": "29dcb0cf",
					"description()": "7284e416",
					"extendDeadline(uint256)": "389b7533",
					"fund(uint256)": "ca1d209d",
					"getCampaignStatus()": "10550515",
					"getTiers()": "de170570",
					"goal()": "40193883",
					"hasFundedTier(address,uint256)": "7adba527",
					"name()": "06fdde03",
					"owner()": "8da5cb5b",
					"paused()": "5c975abb",
					"refund()": "590e1ae3",
					"removeTier(uint256)": "7497211b",
					"state()": "c19d93fb",
					"tiers(uint256)": "039af9eb",
					"togglePause()": "c4ae3168",
					"withdraw()": "3ccfd60b"
				}
			},
			"storageLayout": {
				"storage": [
					{
						"astId": 3,
						"contract": "contracts/crowd-funding.sol:CrowdFunding",
						"label": "name",
						"offset": 0,
						"slot": "0",
						"type": "t_string_storage"
					},
					{
						"astId": 5,
						"contract": "contracts/crowd-funding.sol:CrowdFunding",
						"label": "description",
						"offset": 0,
						"slot": "1",
						"type": "t_string_storage"
					},
					{
						"astId": 7,
						"contract": "contracts/crowd-funding.sol:CrowdFunding",
						"label": "goal",
						"offset": 0,
						"slot": "2",
						"type": "t_uint256"
					},
					{
						"astId": 9,
						"contract": "contracts/crowd-funding.sol:CrowdFunding",
						"label": "deadline",
						"offset": 0,
						"slot": "3",
						"type": "t_uint256"
					},
					{
						"astId": 11,
						"contract": "contracts/crowd-funding.sol:CrowdFunding",
						"label": "owner",
						"offset": 0,
						"slot": "4",
						"type": "t_address"
					},
					{
						"astId": 13,
						"contract": "contracts/crowd-funding.sol:CrowdFunding",
						"label": "paused",
						"offset": 20,
						"slot": "4",
						"type": "t_bool"
					},
					{
						"astId": 20,
						"contract": "contracts/crowd-funding.sol:CrowdFunding",
						"label": "state",
						"offset": 21,
						"slot": "4",
						"type": "t_enum(CampaignState)17"
					},
					{
						"astId": 38,
						"contract": "contracts/crowd-funding.sol:CrowdFunding",
						"label": "tiers",
						"offset": 0,
						"slot": "5",
						"type": "t_array(t_struct(Tier)27_storage)dyn_storage"
					},
					{
						"astId": 43,
						"contract": "contracts/crowd-funding.sol:CrowdFunding",
						"label": "backers",
						"offset": 0,
						"slot": "6",
						"type": "t_mapping(t_address,t_struct(Backer)34_storage)"
					}
				],
				"types": {
					"t_address": {
						"encoding": "inplace",
						"label": "address",
						"numberOfBytes": "20"
					},
					"t_array(t_struct(Tier)27_storage)dyn_storage": {
						"base": "t_struct(Tier)27_storage",
						"encoding": "dynamic_array",
						"label": "struct CrowdFunding.Tier[]",
						"numberOfBytes": "32"
					},
					"t_bool": {
						"encoding": "inplace",
						"label": "bool",
						"numberOfBytes": "1"
					},
					"t_enum(CampaignState)17": {
						"encoding": "inplace",
						"label": "enum CrowdFunding.CampaignState",
						"numberOfBytes": "1"
					},
					"t_mapping(t_address,t_struct(Backer)34_storage)": {
						"encoding": "mapping",
						"key": "t_address",
						"label": "mapping(address => struct CrowdFunding.Backer)",
						"numberOfBytes": "32",
						"value": "t_struct(Backer)34_storage"
					},
					"t_mapping(t_uint256,t_bool)": {
						"encoding": "mapping",
						"key": "t_uint256",
						"label": "mapping(uint256 => bool)",
						"numberOfBytes": "32",
						"value": "t_bool"
					},
					"t_string_storage": {
						"encoding": "bytes",
						"label": "string",
						"numberOfBytes": "32"
					},
					"t_struct(Backer)34_storage": {
						"encoding": "inplace",
						"label": "struct CrowdFunding.Backer",
						"members": [
							{
								"astId": 29,
								"contract": "contracts/crowd-funding.sol:CrowdFunding",
								"label": "totalContribution",
								"offset": 0,
								"slot": "0",
								"type": "t_uint256"
							},
							{
								"astId": 33,
								"contract": "contracts/crowd-funding.sol:CrowdFunding",
								"label": "fundedTiers",
								"offset": 0,
								"slot": "1",
								"type": "t_mapping(t_uint256,t_bool)"
							}
						],
						"numberOfBytes": "64"
					},
					"t_struct(Tier)27_storage": {
						"encoding": "inplace",
						"label": "struct CrowdFunding.Tier",
						"members": [
							{
								"astId": 22,
								"contract": "contracts/crowd-funding.sol:CrowdFunding",
								"label": "name",
								"offset": 0,
								"slot": "0",
								"type": "t_string_storage"
							},
							{
								"astId": 24,
								"contract": "contracts/crowd-funding.sol:CrowdFunding",
								"label": "amount",
								"offset": 0,
								"slot": "1",
								"type": "t_uint256"
							},
							{
								"astId": 26,
								"contract": "contracts/crowd-funding.sol:CrowdFunding",
								"label": "backers",
								"offset": 0,
								"slot": "2",
								"type": "t_uint256"
							}
						],
						"numberOfBytes": "96"
					},
					"t_uint256": {
						"encoding": "inplace",
						"label": "uint256",
						"numberOfBytes": "32"
					}
				}
			},
			"userdoc": {
				"kind": "user",
				"methods": {},
				"version": 1
			}
		}
	}
}