{
	"contracts/multipleFunctionCall.sol": {
		"Task": {
			"abi": [
				{
					"inputs": [],
					"stateMutability": "nonpayable",
					"type": "constructor"
				},
				{
					"inputs": [
						{
							"internalType": "string",
							"name": "a",
							"type": "string"
						},
						{
							"internalType": "string",
							"name": "b",
							"type": "string"
						}
					],
					"name": "addNewValues",
					"outputs": [],
					"stateMutability": "nonpayable",
					"type": "function"
				},
				{
					"inputs": [],
					"name": "data",
					"outputs": [
						{
							"internalType": "string",
							"name": "",
							"type": "string"
						}
					],
					"stateMutability": "view",
					"type": "function"
				},
				{
					"inputs": [
						{
							"internalType": "uint256",
							"name": "",
							"type": "uint256"
						}
					],
					"name": "nums",
					"outputs": [
						{
							"internalType": "string",
							"name": "",
							"type": "string"
						}
					],
					"stateMutability": "view",
					"type": "function"
				},
				{
					"inputs": [],
					"name": "returnMultipleValues",
					"outputs": [
						{
							"internalType": "uint256",
							"name": "",
							"type": "uint256"
						},
						{
							"internalType": "bool",
							"name": "",
							"type": "bool"
						},
						{
							"internalType": "string",
							"name": "",
							"type": "string"
						},
						{
							"internalType": "string[]",
							"name": "",
							"type": "string[]"
						}
					],
					"stateMutability": "view",
					"type": "function"
				}
			],
			"devdoc": {
				"kind": "dev",
				"methods": {},
				"version": 1
			},
			"evm": {
				"assembly": "    /* \"contracts/multipleFunctionCall.sol\":726:1578  contract Task {... */\n  mstore(0x40, 0x80)\n    /* \"contracts/multipleFunctionCall.sol\":747:785  string public data = \"I am Aditya Raj\" */\n  mload(0x40)\n  dup1\n  0x40\n  add\n  0x40\n  mstore\n  dup1\n  0x0f\n  dup2\n  mstore\n  0x20\n  add\n  0x4920616d204164697479612052616a0000000000000000000000000000000000\n  dup2\n  mstore\n  pop\n  0x00\n  swap1\n  dup2\n  tag_1\n  swap2\n  swap1\n  tag_2\n  jump\t// in\ntag_1:\n  pop\n    /* \"contracts/multipleFunctionCall.sol\":821:1088  constructor() {... */\n  callvalue\n  dup1\n  iszero\n  tag_3\n  jumpi\n  0x00\n  dup1\n  revert\ntag_3:\n  pop\n    /* \"contracts/multipleFunctionCall.sol\":898:902  nums */\n  0x01\n    /* \"contracts/multipleFunctionCall.sol\":898:921  nums.push(\"Blockchain\") */\n  dup1\n  0x01\n  dup2\n  sload\n  add\n  dup1\n  dup3\n  sstore\n  dup1\n  swap2\n  pop\n  pop\n  0x01\n  swap1\n  sub\n  swap1\n  0x00\n  mstore\n  keccak256(0x00, 0x20)\n  add\n  0x00\n  mload(0x40)\n  dup1\n  0x40\n  add\n  0x40\n  mstore\n  dup1\n  0x0a\n  dup2\n  mstore\n  0x20\n  add\n  0x426c6f636b636861696e00000000000000000000000000000000000000000000\n  dup2\n  mstore\n  pop\n  swap1\n  swap2\n  swap1\n  swap2\n  pop\n  swap1\n  dup2\n  tag_7\n  swap2\n  swap1\n  tag_2\n  jump\t// in\ntag_7:\n  pop\n    /* \"contracts/multipleFunctionCall.sol\":932:936  nums */\n  0x01\n    /* \"contracts/multipleFunctionCall.sol\":932:953  nums.push(\"Ethereum\") */\n  dup1\n  0x01\n  dup2\n  sload\n  add\n  dup1\n  dup3\n  sstore\n  dup1\n  swap2\n  pop\n  pop\n  0x01\n  swap1\n  sub\n  swap1\n  0x00\n  mstore\n  keccak256(0x00, 0x20)\n  add\n  0x00\n  mload(0x40)\n  dup1\n  0x40\n  add\n  0x40\n  mstore\n  dup1\n  0x08\n  dup2\n  mstore\n  0x20\n  add\n  0x457468657265756d000000000000000000000000000000000000000000000000\n  dup2\n  mstore\n  pop\n  swap1\n  swap2\n  swap1\n  swap2\n  pop\n  swap1\n  dup2\n  tag_9\n  swap2\n  swap1\n  tag_2\n  jump\t// in\ntag_9:\n  pop\n    /* \"contracts/multipleFunctionCall.sol\":964:968  nums */\n  0x01\n    /* \"contracts/multipleFunctionCall.sol\":964:985  nums.push(\"Polkadot\") */\n  dup1\n  0x01\n  dup2\n  sload\n  add\n  dup1\n  dup3\n  sstore\n  dup1\n  swap2\n  pop\n  pop\n  0x01\n  swap1\n  sub\n  swap1\n  0x00\n  mstore\n  keccak256(0x00, 0x20)\n  add\n  0x00\n  mload(0x40)\n  dup1\n  0x40\n  add\n  0x40\n  mstore\n  dup1\n  0x08\n  dup2\n  mstore\n  0x20\n  add\n  0x506f6c6b61646f74000000000000000000000000000000000000000000000000\n  dup2\n  mstore\n  pop\n  swap1\n  swap2\n  swap1\n  swap2\n  pop\n  swap1\n  dup2\n  tag_11\n  swap2\n  swap1\n  tag_2\n  jump\t// in\ntag_11:\n  pop\n    /* \"contracts/multipleFunctionCall.sol\":996:1000  nums */\n  0x01\n    /* \"contracts/multipleFunctionCall.sol\":996:1019  nums.push(\"AdityaFarm\") */\n  dup1\n  0x01\n  dup2\n  sload\n  add\n  dup1\n  dup3\n  sstore\n  dup1\n  swap2\n  pop\n  pop\n  0x01\n  swap1\n  sub\n  swap1\n  0x00\n  mstore\n  keccak256(0x00, 0x20)\n  add\n  0x00\n  mload(0x40)\n  dup1\n  0x40\n  add\n  0x40\n  mstore\n  dup1\n  0x0a\n  dup2\n  mstore\n  0x20\n  add\n  0x4164697479614661726d00000000000000000000000000000000000000000000\n  dup2\n  mstore\n  pop\n  swap1\n  swap2\n  swap1\n  swap2\n  pop\n  swap1\n  dup2\n  tag_13\n  swap2\n  swap1\n  tag_2\n  jump\t// in\ntag_13:\n  pop\n    /* \"contracts/multipleFunctionCall.sol\":1030:1034  nums */\n  0x01\n    /* \"contracts/multipleFunctionCall.sol\":1030:1050  nums.push(\"Bitc$in\") */\n  dup1\n  0x01\n  dup2\n  sload\n  add\n  dup1\n  dup3\n  sstore\n  dup1\n  swap2\n  pop\n  pop\n  0x01\n  swap1\n  sub\n  swap1\n  0x00\n  mstore\n  keccak256(0x00, 0x20)\n  add\n  0x00\n  mload(0x40)\n  dup1\n  0x40\n  add\n  0x40\n  mstore\n  dup1\n  0x07\n  dup2\n  mstore\n  0x20\n  add\n  0x4269746324696e00000000000000000000000000000000000000000000000000\n  dup2\n  mstore\n  pop\n  swap1\n  swap2\n  swap1\n  swap2\n  pop\n  swap1\n  dup2\n  tag_15\n  swap2\n  swap1\n  tag_2\n  jump\t// in\ntag_15:\n  pop\n    /* \"contracts/multipleFunctionCall.sol\":1061:1065  nums */\n  0x01\n    /* \"contracts/multipleFunctionCall.sol\":1061:1080  nums.push(\"Solana\") */\n  dup1\n  0x01\n  dup2\n  sload\n  add\n  dup1\n  dup3\n  sstore\n  dup1\n  swap2\n  pop\n  pop\n  0x01\n  swap1\n  sub\n  swap1\n  0x00\n  mstore\n  keccak256(0x00, 0x20)\n  add\n  0x00\n  mload(0x40)\n  dup1\n  0x40\n  add\n  0x40\n  mstore\n  dup1\n  0x06\n  dup2\n  mstore\n  0x20\n  add\n  0x536f6c616e610000000000000000000000000000000000000000000000000000\n  dup2\n  mstore\n  pop\n  swap1\n  swap2\n  swap1\n  swap2\n  pop\n  swap1\n  dup2\n  tag_17\n  swap2\n  swap1\n  tag_2\n  jump\t// in\ntag_17:\n  pop\n    /* \"contracts/multipleFunctionCall.sol\":726:1578  contract Task {... */\n  jump(tag_18)\n    /* \"#utility.yul\":7:106   */\ntag_19:\n    /* \"#utility.yul\":59:65   */\n  0x00\n    /* \"#utility.yul\":93:98   */\n  dup2\n    /* \"#utility.yul\":87:99   */\n  mload\n    /* \"#utility.yul\":77:99   */\n  swap1\n  pop\n    /* \"#utility.yul\":7:106   */\n  swap2\n  swap1\n  pop\n  jump\t// out\n    /* \"#utility.yul\":112:292   */\ntag_20:\n    /* \"#utility.yul\":160:237   */\n  0x4e487b7100000000000000000000000000000000000000000000000000000000\n    /* \"#utility.yul\":157:158   */\n  0x00\n    /* \"#utility.yul\":150:238   */\n  mstore\n    /* \"#utility.yul\":257:261   */\n  0x41\n    /* \"#utility.yul\":254:255   */\n  0x04\n    /* \"#utility.yul\":247:262   */\n  mstore\n    /* \"#utility.yul\":281:285   */\n  0x24\n    /* \"#utility.yul\":278:279   */\n  0x00\n    /* \"#utility.yul\":271:286   */\n  revert\n    /* \"#utility.yul\":298:478   */\ntag_21:\n    /* \"#utility.yul\":346:423   */\n  0x4e487b7100000000000000000000000000000000000000000000000000000000\n    /* \"#utility.yul\":343:344   */\n  0x00\n    /* \"#utility.yul\":336:424   */\n  mstore\n    /* \"#utility.yul\":443:447   */\n  0x22\n    /* \"#utility.yul\":440:441   */\n  0x04\n    /* \"#utility.yul\":433:448   */\n  mstore\n    /* \"#utility.yul\":467:471   */\n  0x24\n    /* \"#utility.yul\":464:465   */\n  0x00\n    /* \"#utility.yul\":457:472   */\n  revert\n    /* \"#utility.yul\":484:804   */\ntag_22:\n    /* \"#utility.yul\":528:534   */\n  0x00\n    /* \"#utility.yul\":565:566   */\n  0x02\n    /* \"#utility.yul\":559:563   */\n  dup3\n    /* \"#utility.yul\":555:567   */\n  div\n    /* \"#utility.yul\":545:567   */\n  swap1\n  pop\n    /* \"#utility.yul\":612:613   */\n  0x01\n    /* \"#utility.yul\":606:610   */\n  dup3\n    /* \"#utility.yul\":602:614   */\n  and\n    /* \"#utility.yul\":633:651   */\n  dup1\n    /* \"#utility.yul\":623:704   */\n  tag_44\n  jumpi\n    /* \"#utility.yul\":689:693   */\n  0x7f\n    /* \"#utility.yul\":681:687   */\n  dup3\n    /* \"#utility.yul\":677:694   */\n  and\n    /* \"#utility.yul\":667:694   */\n  swap2\n  pop\n    /* \"#utility.yul\":623:704   */\ntag_44:\n    /* \"#utility.yul\":751:753   */\n  0x20\n    /* \"#utility.yul\":743:749   */\n  dup3\n    /* \"#utility.yul\":740:754   */\n  lt\n    /* \"#utility.yul\":720:738   */\n  dup2\n    /* \"#utility.yul\":717:755   */\n  sub\n    /* \"#utility.yul\":714:798   */\n  tag_45\n  jumpi\n    /* \"#utility.yul\":770:788   */\n  tag_46\n  tag_21\n  jump\t// in\ntag_46:\n    /* \"#utility.yul\":714:798   */\ntag_45:\n    /* \"#utility.yul\":535:804   */\n  pop\n    /* \"#utility.yul\":484:804   */\n  swap2\n  swap1\n  pop\n  jump\t// out\n    /* \"#utility.yul\":810:951   */\ntag_23:\n    /* \"#utility.yul\":859:863   */\n  0x00\n    /* \"#utility.yul\":882:885   */\n  dup2\n    /* \"#utility.yul\":874:885   */\n  swap1\n  pop\n    /* \"#utility.yul\":905:908   */\n  dup2\n    /* \"#utility.yul\":902:903   */\n  0x00\n    /* \"#utility.yul\":895:909   */\n  mstore\n    /* \"#utility.yul\":939:943   */\n  0x20\n    /* \"#utility.yul\":936:937   */\n  0x00\n    /* \"#utility.yul\":926:944   */\n  keccak256\n    /* \"#utility.yul\":918:944   */\n  swap1\n  pop\n    /* \"#utility.yul\":810:951   */\n  swap2\n  swap1\n  pop\n  jump\t// out\n    /* \"#utility.yul\":957:1050   */\ntag_24:\n    /* \"#utility.yul\":994:1000   */\n  0x00\n    /* \"#utility.yul\":1041:1043   */\n  0x20\n    /* \"#utility.yul\":1036:1038   */\n  0x1f\n    /* \"#utility.yul\":1029:1034   */\n  dup4\n    /* \"#utility.yul\":1025:1039   */\n  add\n    /* \"#utility.yul\":1021:1044   */\n  div\n    /* \"#utility.yul\":1011:1044   */\n  swap1\n  pop\n    /* \"#utility.yul\":957:1050   */\n  swap2\n  swap1\n  pop\n  jump\t// out\n    /* \"#utility.yul\":1056:1163   */\ntag_25:\n    /* \"#utility.yul\":1100:1108   */\n  0x00\n    /* \"#utility.yul\":1150:1155   */\n  dup3\n    /* \"#utility.yul\":1144:1148   */\n  dup3\n    /* \"#utility.yul\":1140:1156   */\n  shl\n    /* \"#utility.yul\":1119:1156   */\n  swap1\n  pop\n    /* \"#utility.yul\":1056:1163   */\n  swap3\n  swap2\n  pop\n  pop\n  jump\t// out\n    /* \"#utility.yul\":1169:1562   */\ntag_26:\n    /* \"#utility.yul\":1238:1244   */\n  0x00\n    /* \"#utility.yul\":1288:1289   */\n  0x08\n    /* \"#utility.yul\":1276:1286   */\n  dup4\n    /* \"#utility.yul\":1272:1290   */\n  mul\n    /* \"#utility.yul\":1311:1408   */\n  tag_51\n    /* \"#utility.yul\":1341:1407   */\n  0xffffffffffffffffffffffffffffffffffffffffffffffffffffffffffffffff\n    /* \"#utility.yul\":1330:1339   */\n  dup3\n    /* \"#utility.yul\":1311:1408   */\n  tag_25\n  jump\t// in\ntag_51:\n    /* \"#utility.yul\":1429:1468   */\n  tag_52\n    /* \"#utility.yul\":1459:1467   */\n  dup7\n    /* \"#utility.yul\":1448:1457   */\n  dup4\n    /* \"#utility.yul\":1429:1468   */\n  tag_25\n  jump\t// in\ntag_52:\n    /* \"#utility.yul\":1417:1468   */\n  swap6\n  pop\n    /* \"#utility.yul\":1501:1505   */\n  dup1\n    /* \"#utility.yul\":1497:1506   */\n  not\n    /* \"#utility.yul\":1490:1495   */\n  dup5\n    /* \"#utility.yul\":1486:1507   */\n  and\n    /* \"#utility.yul\":1477:1507   */\n  swap4\n  pop\n    /* \"#utility.yul\":1550:1554   */\n  dup1\n    /* \"#utility.yul\":1540:1548   */\n  dup7\n    /* \"#utility.yul\":1536:1555   */\n  and\n    /* \"#utility.yul\":1529:1534   */\n  dup5\n    /* \"#utility.yul\":1526:1556   */\n  or\n    /* \"#utility.yul\":1516:1556   */\n  swap3\n  pop\n    /* \"#utility.yul\":1245:1562   */\n  pop\n  pop\n    /* \"#utility.yul\":1169:1562   */\n  swap4\n  swap3\n  pop\n  pop\n  pop\n  jump\t// out\n    /* \"#utility.yul\":1568:1645   */\ntag_27:\n    /* \"#utility.yul\":1605:1612   */\n  0x00\n    /* \"#utility.yul\":1634:1639   */\n  dup2\n    /* \"#utility.yul\":1623:1639   */\n  swap1\n  pop\n    /* \"#utility.yul\":1568:1645   */\n  swap2\n  swap1\n  pop\n  jump\t// out\n    /* \"#utility.yul\":1651:1711   */\ntag_28:\n    /* \"#utility.yul\":1679:1682   */\n  0x00\n    /* \"#utility.yul\":1700:1705   */\n  dup2\n    /* \"#utility.yul\":1693:1705   */\n  swap1\n  pop\n    /* \"#utility.yul\":1651:1711   */\n  swap2\n  swap1\n  pop\n  jump\t// out\n    /* \"#utility.yul\":1717:1859   */\ntag_29:\n    /* \"#utility.yul\":1767:1776   */\n  0x00\n    /* \"#utility.yul\":1800:1853   */\n  tag_56\n    /* \"#utility.yul\":1818:1852   */\n  tag_57\n    /* \"#utility.yul\":1827:1851   */\n  tag_58\n    /* \"#utility.yul\":1845:1850   */\n  dup5\n    /* \"#utility.yul\":1827:1851   */\n  tag_27\n  jump\t// in\ntag_58:\n    /* \"#utility.yul\":1818:1852   */\n  tag_28\n  jump\t// in\ntag_57:\n    /* \"#utility.yul\":1800:1853   */\n  tag_27\n  jump\t// in\ntag_56:\n    /* \"#utility.yul\":1787:1853   */\n  swap1\n  pop\n    /* \"#utility.yul\":1717:1859   */\n  swap2\n  swap1\n  pop\n  jump\t// out\n    /* \"#utility.yul\":1865:1940   */\ntag_30:\n    /* \"#utility.yul\":1908:1911   */\n  0x00\n    /* \"#utility.yul\":1929:1934   */\n  dup2\n    /* \"#utility.yul\":1922:1934   */\n  swap1\n  pop\n    /* \"#utility.yul\":1865:1940   */\n  swap2\n  swap1\n  pop\n  jump\t// out\n    /* \"#utility.yul\":1946:2215   */\ntag_31:\n    /* \"#utility.yul\":2056:2095   */\n  tag_61\n    /* \"#utility.yul\":2087:2094   */\n  dup4\n    /* \"#utility.yul\":2056:2095   */\n  tag_29\n  jump\t// in\ntag_61:\n    /* \"#utility.yul\":2117:2208   */\n  tag_62\n    /* \"#utility.yul\":2166:2207   */\n  tag_63\n    /* \"#utility.yul\":2190:2206   */\n  dup3\n    /* \"#utility.yul\":2166:2207   */\n  tag_30\n  jump\t// in\ntag_63:\n    /* \"#utility.yul\":2158:2164   */\n  dup5\n    /* \"#utility.yul\":2151:2155   */\n  dup5\n    /* \"#utility.yul\":2145:2156   */\n  sload\n    /* \"#utility.yul\":2117:2208   */\n  tag_26\n  jump\t// in\ntag_62:\n    /* \"#utility.yul\":2111:2115   */\n  dup3\n    /* \"#utility.yul\":2104:2209   */\n  sstore\n    /* \"#utility.yul\":2022:2215   */\n  pop\n    /* \"#utility.yul\":1946:2215   */\n  pop\n  pop\n  pop\n  jump\t// out\n    /* \"#utility.yul\":2221:2294   */\ntag_32:\n    /* \"#utility.yul\":2266:2269   */\n  0x00\n    /* \"#utility.yul\":2221:2294   */\n  swap1\n  jump\t// out\n    /* \"#utility.yul\":2300:2489   */\ntag_33:\n    /* \"#utility.yul\":2377:2409   */\n  tag_66\n  tag_32\n  jump\t// in\ntag_66:\n    /* \"#utility.yul\":2418:2483   */\n  tag_67\n    /* \"#utility.yul\":2476:2482   */\n  dup2\n    /* \"#utility.yul\":2468:2474   */\n  dup5\n    /* \"#utility.yul\":2462:2466   */\n  dup5\n    /* \"#utility.yul\":2418:2483   */\n  tag_31\n  jump\t// in\ntag_67:\n    /* \"#utility.yul\":2353:2489   */\n  pop\n    /* \"#utility.yul\":2300:2489   */\n  pop\n  pop\n  jump\t// out\n    /* \"#utility.yul\":2495:2681   */\ntag_34:\n    /* \"#utility.yul\":2555:2675   */\ntag_69:\n    /* \"#utility.yul\":2572:2575   */\n  dup2\n    /* \"#utility.yul\":2565:2570   */\n  dup2\n    /* \"#utility.yul\":2562:2576   */\n  lt\n    /* \"#utility.yul\":2555:2675   */\n  iszero\n  tag_71\n  jumpi\n    /* \"#utility.yul\":2626:2665   */\n  tag_72\n    /* \"#utility.yul\":2663:2664   */\n  0x00\n    /* \"#utility.yul\":2656:2661   */\n  dup3\n    /* \"#utility.yul\":2626:2665   */\n  tag_33\n  jump\t// in\ntag_72:\n    /* \"#utility.yul\":2599:2600   */\n  0x01\n    /* \"#utility.yul\":2592:2597   */\n  dup2\n    /* \"#utility.yul\":2588:2601   */\n  add\n    /* \"#utility.yul\":2579:2601   */\n  swap1\n  pop\n    /* \"#utility.yul\":2555:2675   */\n  jump(tag_69)\ntag_71:\n    /* \"#utility.yul\":2495:2681   */\n  pop\n  pop\n  jump\t// out\n    /* \"#utility.yul\":2687:3230   */\ntag_35:\n    /* \"#utility.yul\":2788:2790   */\n  0x1f\n    /* \"#utility.yul\":2783:2786   */\n  dup3\n    /* \"#utility.yul\":2780:2791   */\n  gt\n    /* \"#utility.yul\":2777:3223   */\n  iszero\n  tag_74\n  jumpi\n    /* \"#utility.yul\":2822:2860   */\n  tag_75\n    /* \"#utility.yul\":2854:2859   */\n  dup2\n    /* \"#utility.yul\":2822:2860   */\n  tag_23\n  jump\t// in\ntag_75:\n    /* \"#utility.yul\":2906:2935   */\n  tag_76\n    /* \"#utility.yul\":2924:2934   */\n  dup5\n    /* \"#utility.yul\":2906:2935   */\n  tag_24\n  jump\t// in\ntag_76:\n    /* \"#utility.yul\":2896:2904   */\n  dup2\n    /* \"#utility.yul\":2892:2936   */\n  add\n    /* \"#utility.yul\":3089:3091   */\n  0x20\n    /* \"#utility.yul\":3077:3087   */\n  dup6\n    /* \"#utility.yul\":3074:3092   */\n  lt\n    /* \"#utility.yul\":3071:3120   */\n  iszero\n  tag_77\n  jumpi\n    /* \"#utility.yul\":3110:3118   */\n  dup2\n    /* \"#utility.yul\":3095:3118   */\n  swap1\n  pop\n    /* \"#utility.yul\":3071:3120   */\ntag_77:\n    /* \"#utility.yul\":3133:3213   */\n  tag_78\n    /* \"#utility.yul\":3189:3211   */\n  tag_79\n    /* \"#utility.yul\":3207:3210   */\n  dup6\n    /* \"#utility.yul\":3189:3211   */\n  tag_24\n  jump\t// in\ntag_79:\n    /* \"#utility.yul\":3179:3187   */\n  dup4\n    /* \"#utility.yul\":3175:3212   */\n  add\n    /* \"#utility.yul\":3162:3173   */\n  dup3\n    /* \"#utility.yul\":3133:3213   */\n  tag_34\n  jump\t// in\ntag_78:\n    /* \"#utility.yul\":2792:3223   */\n  pop\n  pop\n    /* \"#utility.yul\":2777:3223   */\ntag_74:\n    /* \"#utility.yul\":2687:3230   */\n  pop\n  pop\n  pop\n  jump\t// out\n    /* \"#utility.yul\":3236:3353   */\ntag_36:\n    /* \"#utility.yul\":3290:3298   */\n  0x00\n    /* \"#utility.yul\":3340:3345   */\n  dup3\n    /* \"#utility.yul\":3334:3338   */\n  dup3\n    /* \"#utility.yul\":3330:3346   */\n  shr\n    /* \"#utility.yul\":3309:3346   */\n  swap1\n  pop\n    /* \"#utility.yul\":3236:3353   */\n  swap3\n  swap2\n  pop\n  pop\n  jump\t// out\n    /* \"#utility.yul\":3359:3528   */\ntag_37:\n    /* \"#utility.yul\":3403:3409   */\n  0x00\n    /* \"#utility.yul\":3436:3487   */\n  tag_82\n    /* \"#utility.yul\":3484:3485   */\n  0x00\n    /* \"#utility.yul\":3480:3486   */\n  not\n    /* \"#utility.yul\":3472:3477   */\n  dup5\n    /* \"#utility.yul\":3469:3470   */\n  0x08\n    /* \"#utility.yul\":3465:3478   */\n  mul\n    /* \"#utility.yul\":3436:3487   */\n  tag_36\n  jump\t// in\ntag_82:\n    /* \"#utility.yul\":3432:3488   */\n  not\n    /* \"#utility.yul\":3517:3521   */\n  dup1\n    /* \"#utility.yul\":3511:3515   */\n  dup4\n    /* \"#utility.yul\":3507:3522   */\n  and\n    /* \"#utility.yul\":3497:3522   */\n  swap2\n  pop\n    /* \"#utility.yul\":3410:3528   */\n  pop\n    /* \"#utility.yul\":3359:3528   */\n  swap3\n  swap2\n  pop\n  pop\n  jump\t// out\n    /* \"#utility.yul\":3533:3828   */\ntag_38:\n    /* \"#utility.yul\":3609:3613   */\n  0x00\n    /* \"#utility.yul\":3755:3784   */\n  tag_84\n    /* \"#utility.yul\":3780:3783   */\n  dup4\n    /* \"#utility.yul\":3774:3778   */\n  dup4\n    /* \"#utility.yul\":3755:3784   */\n  tag_37\n  jump\t// in\ntag_84:\n    /* \"#utility.yul\":3747:3784   */\n  swap2\n  pop\n    /* \"#utility.yul\":3817:3820   */\n  dup3\n    /* \"#utility.yul\":3814:3815   */\n  0x02\n    /* \"#utility.yul\":3810:3821   */\n  mul\n    /* \"#utility.yul\":3804:3808   */\n  dup3\n    /* \"#utility.yul\":3801:3822   */\n  or\n    /* \"#utility.yul\":3793:3822   */\n  swap1\n  pop\n    /* \"#utility.yul\":3533:3828   */\n  swap3\n  swap2\n  pop\n  pop\n  jump\t// out\n    /* \"#utility.yul\":3833:5228   */\ntag_2:\n    /* \"#utility.yul\":3950:3987   */\n  tag_86\n    /* \"#utility.yul\":3983:3986   */\n  dup3\n    /* \"#utility.yul\":3950:3987   */\n  tag_19\n  jump\t// in\ntag_86:\n    /* \"#utility.yul\":4052:4070   */\n  0xffffffffffffffff\n    /* \"#utility.yul\":4044:4050   */\n  dup2\n    /* \"#utility.yul\":4041:4071   */\n  gt\n    /* \"#utility.yul\":4038:4094   */\n  iszero\n  tag_87\n  jumpi\n    /* \"#utility.yul\":4074:4092   */\n  tag_88\n  tag_20\n  jump\t// in\ntag_88:\n    /* \"#utility.yul\":4038:4094   */\ntag_87:\n    /* \"#utility.yul\":4118:4156   */\n  tag_89\n    /* \"#utility.yul\":4150:4154   */\n  dup3\n    /* \"#utility.yul\":4144:4155   */\n  sload\n    /* \"#utility.yul\":4118:4156   */\n  tag_22\n  jump\t// in\ntag_89:\n    /* \"#utility.yul\":4203:4270   */\n  tag_90\n    /* \"#utility.yul\":4263:4269   */\n  dup3\n    /* \"#utility.yul\":4255:4261   */\n  dup3\n    /* \"#utility.yul\":4249:4253   */\n  dup6\n    /* \"#utility.yul\":4203:4270   */\n  tag_35\n  jump\t// in\ntag_90:\n    /* \"#utility.yul\":4297:4298   */\n  0x00\n    /* \"#utility.yul\":4321:4325   */\n  0x20\n    /* \"#utility.yul\":4308:4325   */\n  swap1\n  pop\n    /* \"#utility.yul\":4353:4355   */\n  0x1f\n    /* \"#utility.yul\":4345:4351   */\n  dup4\n    /* \"#utility.yul\":4342:4356   */\n  gt\n    /* \"#utility.yul\":4370:4371   */\n  0x01\n    /* \"#utility.yul\":4365:4983   */\n  dup2\n  eq\n  tag_92\n  jumpi\n    /* \"#utility.yul\":5027:5028   */\n  0x00\n    /* \"#utility.yul\":5044:5050   */\n  dup5\n    /* \"#utility.yul\":5041:5118   */\n  iszero\n  tag_93\n  jumpi\n    /* \"#utility.yul\":5093:5102   */\n  dup3\n    /* \"#utility.yul\":5088:5091   */\n  dup8\n    /* \"#utility.yul\":5084:5103   */\n  add\n    /* \"#utility.yul\":5078:5104   */\n  mload\n    /* \"#utility.yul\":5069:5104   */\n  swap1\n  pop\n    /* \"#utility.yul\":5041:5118   */\ntag_93:\n    /* \"#utility.yul\":5144:5211   */\n  tag_94\n    /* \"#utility.yul\":5204:5210   */\n  dup6\n    /* \"#utility.yul\":5197:5202   */\n  dup3\n    /* \"#utility.yul\":5144:5211   */\n  tag_38\n  jump\t// in\ntag_94:\n    /* \"#utility.yul\":5138:5142   */\n  dup7\n    /* \"#utility.yul\":5131:5212   */\n  sstore\n    /* \"#utility.yul\":5000:5222   */\n  pop\n    /* \"#utility.yul\":4335:5222   */\n  jump(tag_91)\n    /* \"#utility.yul\":4365:4983   */\ntag_92:\n    /* \"#utility.yul\":4417:4421   */\n  0x1f\n    /* \"#utility.yul\":4413:4422   */\n  not\n    /* \"#utility.yul\":4405:4411   */\n  dup5\n    /* \"#utility.yul\":4401:4423   */\n  and\n    /* \"#utility.yul\":4451:4488   */\n  tag_95\n    /* \"#utility.yul\":4483:4487   */\n  dup7\n    /* \"#utility.yul\":4451:4488   */\n  tag_23\n  jump\t// in\ntag_95:\n    /* \"#utility.yul\":4510:4511   */\n  0x00\n    /* \"#utility.yul\":4524:4732   */\ntag_96:\n    /* \"#utility.yul\":4538:4545   */\n  dup3\n    /* \"#utility.yul\":4535:4536   */\n  dup2\n    /* \"#utility.yul\":4532:4546   */\n  lt\n    /* \"#utility.yul\":4524:4732   */\n  iszero\n  tag_98\n  jumpi\n    /* \"#utility.yul\":4617:4626   */\n  dup5\n    /* \"#utility.yul\":4612:4615   */\n  dup10\n    /* \"#utility.yul\":4608:4627   */\n  add\n    /* \"#utility.yul\":4602:4628   */\n  mload\n    /* \"#utility.yul\":4594:4600   */\n  dup3\n    /* \"#utility.yul\":4587:4629   */\n  sstore\n    /* \"#utility.yul\":4668:4669   */\n  0x01\n    /* \"#utility.yul\":4660:4666   */\n  dup3\n    /* \"#utility.yul\":4656:4670   */\n  add\n    /* \"#utility.yul\":4646:4670   */\n  swap2\n  pop\n    /* \"#utility.yul\":4715:4717   */\n  0x20\n    /* \"#utility.yul\":4704:4713   */\n  dup6\n    /* \"#utility.yul\":4700:4718   */\n  add\n    /* \"#utility.yul\":4687:4718   */\n  swap5\n  pop\n    /* \"#utility.yul\":4561:4565   */\n  0x20\n    /* \"#utility.yul\":4558:4559   */\n  dup2\n    /* \"#utility.yul\":4554:4566   */\n  add\n    /* \"#utility.yul\":4549:4566   */\n  swap1\n  pop\n    /* \"#utility.yul\":4524:4732   */\n  jump(tag_96)\ntag_98:\n    /* \"#utility.yul\":4760:4766   */\n  dup7\n    /* \"#utility.yul\":4751:4758   */\n  dup4\n    /* \"#utility.yul\":4748:4767   */\n  lt\n    /* \"#utility.yul\":4745:4924   */\n  iszero\n  tag_99\n  jumpi\n    /* \"#utility.yul\":4818:4827   */\n  dup5\n    /* \"#utility.yul\":4813:4816   */\n  dup10\n    /* \"#utility.yul\":4809:4828   */\n  add\n    /* \"#utility.yul\":4803:4829   */\n  mload\n    /* \"#utility.yul\":4861:4909   */\n  tag_100\n    /* \"#utility.yul\":4903:4907   */\n  0x1f\n    /* \"#utility.yul\":4895:4901   */\n  dup10\n    /* \"#utility.yul\":4891:4908   */\n  and\n    /* \"#utility.yul\":4880:4889   */\n  dup3\n    /* \"#utility.yul\":4861:4909   */\n  tag_37\n  jump\t// in\ntag_100:\n    /* \"#utility.yul\":4853:4859   */\n  dup4\n    /* \"#utility.yul\":4846:4910   */\n  sstore\n    /* \"#utility.yul\":4768:4924   */\n  pop\n    /* \"#utility.yul\":4745:4924   */\ntag_99:\n    /* \"#utility.yul\":4970:4971   */\n  0x01\n    /* \"#utility.yul\":4966:4967   */\n  0x02\n    /* \"#utility.yul\":4958:4964   */\n  dup9\n    /* \"#utility.yul\":4954:4968   */\n  mul\n    /* \"#utility.yul\":4950:4972   */\n  add\n    /* \"#utility.yul\":4944:4948   */\n  dup9\n    /* \"#utility.yul\":4937:4973   */\n  sstore\n    /* \"#utility.yul\":4372:4983   */\n  pop\n  pop\n  pop\n    /* \"#utility.yul\":4335:5222   */\ntag_91:\n  pop\n    /* \"#utility.yul\":3925:5228   */\n  pop\n  pop\n  pop\n    /* \"#utility.yul\":3833:5228   */\n  pop\n  pop\n  jump\t// out\n    /* \"contracts/multipleFunctionCall.sol\":726:1578  contract Task {... */\ntag_18:\n  dataSize(sub_0)\n  dup1\n  dataOffset(sub_0)\n  0x00\n  codecopy\n  0x00\n  return\nstop\n\nsub_0: assembly {\n        /* \"contracts/multipleFunctionCall.sol\":726:1578  contract Task {... */\n      mstore(0x40, 0x80)\n      callvalue\n      dup1\n      iszero\n      tag_1\n      jumpi\n      0x00\n      dup1\n      revert\n    tag_1:\n      pop\n      jumpi(tag_2, lt(calldatasize, 0x04))\n      shr(0xe0, calldataload(0x00))\n      dup1\n      0x73d4a13a\n      eq\n      tag_3\n      jumpi\n      dup1\n      0xde77a97d\n      eq\n      tag_4\n      jumpi\n      dup1\n      0xf5d02149\n      eq\n      tag_5\n      jumpi\n      dup1\n      0xfd1ee54c\n      eq\n      tag_6\n      jumpi\n    tag_2:\n      0x00\n      dup1\n      revert\n        /* \"contracts/multipleFunctionCall.sol\":747:785  string public data = \"I am Aditya Raj\" */\n    tag_3:\n      tag_7\n      tag_8\n      jump\t// in\n    tag_7:\n      mload(0x40)\n      tag_9\n      swap2\n      swap1\n      tag_10\n      jump\t// in\n    tag_9:\n      mload(0x40)\n      dup1\n      swap2\n      sub\n      swap1\n      return\n        /* \"contracts/multipleFunctionCall.sol\":1368:1575  function returnMultipleValues() public view returns (uint, bool, string memory, string[] memory) {... */\n    tag_4:\n      tag_11\n      tag_12\n      jump\t// in\n    tag_11:\n      mload(0x40)\n      tag_13\n      swap5\n      swap4\n      swap3\n      swap2\n      swap1\n      tag_14\n      jump\t// in\n    tag_13:\n      mload(0x40)\n      dup1\n      swap2\n      sub\n      swap1\n      return\n        /* \"contracts/multipleFunctionCall.sol\":1216:1360  function addNewValues(string memory a, string memory b) public {... */\n    tag_5:\n      tag_15\n      0x04\n      dup1\n      calldatasize\n      sub\n      dup2\n      add\n      swap1\n      tag_16\n      swap2\n      swap1\n      tag_17\n      jump\t// in\n    tag_16:\n      tag_18\n      jump\t// in\n    tag_15:\n      stop\n        /* \"contracts/multipleFunctionCall.sol\":792:812  string[] public nums */\n    tag_6:\n      tag_19\n      0x04\n      dup1\n      calldatasize\n      sub\n      dup2\n      add\n      swap1\n      tag_20\n      swap2\n      swap1\n      tag_21\n      jump\t// in\n    tag_20:\n      tag_22\n      jump\t// in\n    tag_19:\n      mload(0x40)\n      tag_23\n      swap2\n      swap1\n      tag_10\n      jump\t// in\n    tag_23:\n      mload(0x40)\n      dup1\n      swap2\n      sub\n      swap1\n      return\n        /* \"contracts/multipleFunctionCall.sol\":747:785  string public data = \"I am Aditya Raj\" */\n    tag_8:\n      0x00\n      dup1\n      sload\n      tag_24\n      swap1\n      tag_25\n      jump\t// in\n    tag_24:\n      dup1\n      0x1f\n      add\n      0x20\n      dup1\n      swap2\n      div\n      mul\n      0x20\n      add\n      mload(0x40)\n      swap1\n      dup2\n      add\n      0x40\n      mstore\n      dup1\n      swap3\n      swap2\n      swap1\n      dup2\n      dup2\n      mstore\n      0x20\n      add\n      dup3\n      dup1\n      sload\n      tag_26\n      swap1\n      tag_25\n      jump\t// in\n    tag_26:\n      dup1\n      iszero\n      tag_27\n      jumpi\n      dup1\n      0x1f\n      lt\n      tag_28\n      jumpi\n      0x0100\n      dup1\n      dup4\n      sload\n      div\n      mul\n      dup4\n      mstore\n      swap2\n      0x20\n      add\n      swap2\n      jump(tag_27)\n    tag_28:\n      dup3\n      add\n      swap2\n      swap1\n      0x00\n      mstore\n      keccak256(0x00, 0x20)\n      swap1\n    tag_29:\n      dup2\n      sload\n      dup2\n      mstore\n      swap1\n      0x01\n      add\n      swap1\n      0x20\n      add\n      dup1\n      dup4\n      gt\n      tag_29\n      jumpi\n      dup3\n      swap1\n      sub\n      0x1f\n      and\n      dup3\n      add\n      swap2\n    tag_27:\n      pop\n      pop\n      pop\n      pop\n      pop\n      dup2\n      jump\t// out\n        /* \"contracts/multipleFunctionCall.sol\":1368:1575  function returnMultipleValues() public view returns (uint, bool, string memory, string[] memory) {... */\n    tag_12:\n        /* \"contracts/multipleFunctionCall.sol\":1421:1425  uint */\n      0x00\n        /* \"contracts/multipleFunctionCall.sol\":1427:1431  bool */\n      dup1\n        /* \"contracts/multipleFunctionCall.sol\":1433:1446  string memory */\n      0x60\n        /* \"contracts/multipleFunctionCall.sol\":1448:1463  string[] memory */\n      dup1\n        /* \"contracts/multipleFunctionCall.sol\":1547:1548  1 */\n      0x01\n        /* \"contracts/multipleFunctionCall.sol\":1550:1554  true */\n      dup1\n        /* \"contracts/multipleFunctionCall.sol\":1556:1560  data */\n      0x00\n        /* \"contracts/multipleFunctionCall.sol\":1562:1566  nums */\n      0x01\n        /* \"contracts/multipleFunctionCall.sol\":1539:1567  return (1, true, data, nums) */\n      dup2\n      dup1\n      sload\n      tag_31\n      swap1\n      tag_25\n      jump\t// in\n    tag_31:\n      dup1\n      0x1f\n      add\n      0x20\n      dup1\n      swap2\n      div\n      mul\n      0x20\n      add\n      mload(0x40)\n      swap1\n      dup2\n      add\n      0x40\n      mstore\n      dup1\n      swap3\n      swap2\n      swap1\n      dup2\n      dup2\n      mstore\n      0x20\n      add\n      dup3\n      dup1\n      sload\n      tag_32\n      swap1\n      tag_25\n      jump\t// in\n    tag_32:\n      dup1\n      iszero\n      tag_33\n      jumpi\n      dup1\n      0x1f\n      lt\n      tag_34\n      jumpi\n      0x0100\n      dup1\n      dup4\n      sload\n      div\n      mul\n      dup4\n      mstore\n      swap2\n      0x20\n      add\n      swap2\n      jump(tag_33)\n    tag_34:\n      dup3\n      add\n      swap2\n      swap1\n      0x00\n      mstore\n      keccak256(0x00, 0x20)\n      swap1\n    tag_35:\n      dup2\n      sload\n      dup2\n      mstore\n      swap1\n      0x01\n      add\n      swap1\n      0x20\n      add\n      dup1\n      dup4\n      gt\n      tag_35\n      jumpi\n      dup3\n      swap1\n      sub\n      0x1f\n      and\n      dup3\n      add\n      swap2\n    tag_33:\n      pop\n      pop\n      pop\n      pop\n      pop\n      swap2\n      pop\n      dup1\n      dup1\n      sload\n      dup1\n      0x20\n      mul\n      0x20\n      add\n      mload(0x40)\n      swap1\n      dup2\n      add\n      0x40\n      mstore\n      dup1\n      swap3\n      swap2\n      swap1\n      dup2\n      dup2\n      mstore\n      0x20\n      add\n      0x00\n      swap1\n    tag_36:\n      dup3\n      dup3\n      lt\n      iszero\n      tag_37\n      jumpi\n      dup4\n      dup3\n      swap1\n      0x00\n      mstore\n      keccak256(0x00, 0x20)\n      add\n      dup1\n      sload\n      tag_39\n      swap1\n      tag_25\n      jump\t// in\n    tag_39:\n      dup1\n      0x1f\n      add\n      0x20\n      dup1\n      swap2\n      div\n      mul\n      0x20\n      add\n      mload(0x40)\n      swap1\n      dup2\n      add\n      0x40\n      mstore\n      dup1\n      swap3\n      swap2\n      swap1\n      dup2\n      dup2\n      mstore\n      0x20\n      add\n      dup3\n      dup1\n      sload\n      tag_40\n      swap1\n      tag_25\n      jump\t// in\n    tag_40:\n      dup1\n      iszero\n      tag_41\n      jumpi\n      dup1\n      0x1f\n      lt\n      tag_42\n      jumpi\n      0x0100\n      dup1\n      dup4\n      sload\n      div\n      mul\n      dup4\n      mstore\n      swap2\n      0x20\n      add\n      swap2\n      jump(tag_41)\n    tag_42:\n      dup3\n      add\n      swap2\n      swap1\n      0x00\n      mstore\n      keccak256(0x00, 0x20)\n      swap1\n    tag_43:\n      dup2\n      sload\n      dup2\n      mstore\n      swap1\n      0x01\n      add\n      swap1\n      0x20\n      add\n      dup1\n      dup4\n      gt\n      tag_43\n      jumpi\n      dup3\n      swap1\n      sub\n      0x1f\n      and\n      dup3\n      add\n      swap2\n    tag_41:\n      pop\n      pop\n      pop\n      pop\n      pop\n      dup2\n      mstore\n      0x20\n      add\n      swap1\n      0x01\n      add\n      swap1\n      jump(tag_36)\n    tag_37:\n      pop\n      pop\n      pop\n      pop\n      swap1\n      pop\n      swap4\n      pop\n      swap4\n      pop\n      swap4\n      pop\n      swap4\n      pop\n        /* \"contracts/multipleFunctionCall.sol\":1368:1575  function returnMultipleValues() public view returns (uint, bool, string memory, string[] memory) {... */\n      swap1\n      swap2\n      swap3\n      swap4\n      jump\t// out\n        /* \"contracts/multipleFunctionCall.sol\":1216:1360  function addNewValues(string memory a, string memory b) public {... */\n    tag_18:\n        /* \"contracts/multipleFunctionCall.sol\":1341:1352  addMe(a, b) */\n      tag_45\n        /* \"contracts/multipleFunctionCall.sol\":1347:1348  a */\n      dup3\n        /* \"contracts/multipleFunctionCall.sol\":1350:1351  b */\n      dup3\n        /* \"contracts/multipleFunctionCall.sol\":1341:1346  addMe */\n      tag_46\n        /* \"contracts/multipleFunctionCall.sol\":1341:1352  addMe(a, b) */\n      jump\t// in\n    tag_45:\n        /* \"contracts/multipleFunctionCall.sol\":1216:1360  function addNewValues(string memory a, string memory b) public {... */\n      pop\n      pop\n      jump\t// out\n        /* \"contracts/multipleFunctionCall.sol\":792:812  string[] public nums */\n    tag_22:\n      0x01\n      dup2\n      dup2\n      sload\n      dup2\n      lt\n      tag_47\n      jumpi\n      0x00\n      dup1\n      revert\n    tag_47:\n      swap1\n      0x00\n      mstore\n      keccak256(0x00, 0x20)\n      add\n      0x00\n      swap2\n      pop\n      swap1\n      pop\n      dup1\n      sload\n      tag_49\n      swap1\n      tag_25\n      jump\t// in\n    tag_49:\n      dup1\n      0x1f\n      add\n      0x20\n      dup1\n      swap2\n      div\n      mul\n      0x20\n      add\n      mload(0x40)\n      swap1\n      dup2\n      add\n      0x40\n      mstore\n      dup1\n      swap3\n      swap2\n      swap1\n      dup2\n      dup2\n      mstore\n      0x20\n      add\n      dup3\n      dup1\n      sload\n      tag_50\n      swap1\n      tag_25\n      jump\t// in\n    tag_50:\n      dup1\n      iszero\n      tag_51\n      jumpi\n      dup1\n      0x1f\n      lt\n      tag_52\n      jumpi\n      0x0100\n      dup1\n      dup4\n      sload\n      div\n      mul\n      dup4\n      mstore\n      swap2\n      0x20\n      add\n      swap2\n      jump(tag_51)\n    tag_52:\n      dup3\n      add\n      swap2\n      swap1\n      0x00\n      mstore\n      keccak256(0x00, 0x20)\n      swap1\n    tag_53:\n      dup2\n      sload\n      dup2\n      mstore\n      swap1\n      0x01\n      add\n      swap1\n      0x20\n      add\n      dup1\n      dup4\n      gt\n      tag_53\n      jumpi\n      dup3\n      swap1\n      sub\n      0x1f\n      and\n      dup3\n      add\n      swap2\n    tag_51:\n      pop\n      pop\n      pop\n      pop\n      pop\n      dup2\n      jump\t// out\n        /* \"contracts/multipleFunctionCall.sol\":1096:1208  function addMe(string memory a, string memory b) internal {... */\n    tag_46:\n        /* \"contracts/multipleFunctionCall.sol\":1165:1169  nums */\n      0x01\n        /* \"contracts/multipleFunctionCall.sol\":1175:1176  a */\n      dup3\n        /* \"contracts/multipleFunctionCall.sol\":1165:1177  nums.push(a) */\n      swap1\n      dup1\n      0x01\n      dup2\n      sload\n      add\n      dup1\n      dup3\n      sstore\n      dup1\n      swap2\n      pop\n      pop\n      0x01\n      swap1\n      sub\n      swap1\n      0x00\n      mstore\n      keccak256(0x00, 0x20)\n      add\n      0x00\n      swap1\n      swap2\n      swap1\n      swap2\n      swap1\n      swap2\n      pop\n      swap1\n      dup2\n      tag_56\n      swap2\n      swap1\n      tag_57\n      jump\t// in\n    tag_56:\n      pop\n        /* \"contracts/multipleFunctionCall.sol\":1188:1192  nums */\n      0x01\n        /* \"contracts/multipleFunctionCall.sol\":1198:1199  b */\n      dup2\n        /* \"contracts/multipleFunctionCall.sol\":1188:1200  nums.push(b) */\n      swap1\n      dup1\n      0x01\n      dup2\n      sload\n      add\n      dup1\n      dup3\n      sstore\n      dup1\n      swap2\n      pop\n      pop\n      0x01\n      swap1\n      sub\n      swap1\n      0x00\n      mstore\n      keccak256(0x00, 0x20)\n      add\n      0x00\n      swap1\n      swap2\n      swap1\n      swap2\n      swap1\n      swap2\n      pop\n      swap1\n      dup2\n      tag_59\n      swap2\n      swap1\n      tag_57\n      jump\t// in\n    tag_59:\n      pop\n        /* \"contracts/multipleFunctionCall.sol\":1096:1208  function addMe(string memory a, string memory b) internal {... */\n      pop\n      pop\n      jump\t// out\n        /* \"#utility.yul\":7:106   */\n    tag_60:\n        /* \"#utility.yul\":59:65   */\n      0x00\n        /* \"#utility.yul\":93:98   */\n      dup2\n        /* \"#utility.yul\":87:99   */\n      mload\n        /* \"#utility.yul\":77:99   */\n      swap1\n      pop\n        /* \"#utility.yul\":7:106   */\n      swap2\n      swap1\n      pop\n      jump\t// out\n        /* \"#utility.yul\":112:281   */\n    tag_61:\n        /* \"#utility.yul\":196:207   */\n      0x00\n        /* \"#utility.yul\":230:236   */\n      dup3\n        /* \"#utility.yul\":225:228   */\n      dup3\n        /* \"#utility.yul\":218:237   */\n      mstore\n        /* \"#utility.yul\":270:274   */\n      0x20\n        /* \"#utility.yul\":265:268   */\n      dup3\n        /* \"#utility.yul\":261:275   */\n      add\n        /* \"#utility.yul\":246:275   */\n      swap1\n      pop\n        /* \"#utility.yul\":112:281   */\n      swap3\n      swap2\n      pop\n      pop\n      jump\t// out\n        /* \"#utility.yul\":287:426   */\n    tag_62:\n        /* \"#utility.yul\":376:382   */\n      dup3\n        /* \"#utility.yul\":371:374   */\n      dup2\n        /* \"#utility.yul\":366:369   */\n      dup4\n        /* \"#utility.yul\":360:383   */\n      mcopy\n        /* \"#utility.yul\":417:418   */\n      0x00\n        /* \"#utility.yul\":408:414   */\n      dup4\n        /* \"#utility.yul\":403:406   */\n      dup4\n        /* \"#utility.yul\":399:415   */\n      add\n        /* \"#utility.yul\":392:419   */\n      mstore\n        /* \"#utility.yul\":287:426   */\n      pop\n      pop\n      pop\n      jump\t// out\n        /* \"#utility.yul\":432:534   */\n    tag_63:\n        /* \"#utility.yul\":473:479   */\n      0x00\n        /* \"#utility.yul\":524:526   */\n      0x1f\n        /* \"#utility.yul\":520:527   */\n      not\n        /* \"#utility.yul\":515:517   */\n      0x1f\n        /* \"#utility.yul\":508:513   */\n      dup4\n        /* \"#utility.yul\":504:518   */\n      add\n        /* \"#utility.yul\":500:528   */\n      and\n        /* \"#utility.yul\":490:528   */\n      swap1\n      pop\n        /* \"#utility.yul\":432:534   */\n      swap2\n      swap1\n      pop\n      jump\t// out\n        /* \"#utility.yul\":540:917   */\n    tag_64:\n        /* \"#utility.yul\":628:631   */\n      0x00\n        /* \"#utility.yul\":656:695   */\n      tag_113\n        /* \"#utility.yul\":689:694   */\n      dup3\n        /* \"#utility.yul\":656:695   */\n      tag_60\n      jump\t// in\n    tag_113:\n        /* \"#utility.yul\":711:782   */\n      tag_114\n        /* \"#utility.yul\":775:781   */\n      dup2\n        /* \"#utility.yul\":770:773   */\n      dup6\n        /* \"#utility.yul\":711:782   */\n      tag_61\n      jump\t// in\n    tag_114:\n        /* \"#utility.yul\":704:782   */\n      swap4\n      pop\n        /* \"#utility.yul\":791:856   */\n      tag_115\n        /* \"#utility.yul\":849:855   */\n      dup2\n        /* \"#utility.yul\":844:847   */\n      dup6\n        /* \"#utility.yul\":837:841   */\n      0x20\n        /* \"#utility.yul\":830:835   */\n      dup7\n        /* \"#utility.yul\":826:842   */\n      add\n        /* \"#utility.yul\":791:856   */\n      tag_62\n      jump\t// in\n    tag_115:\n        /* \"#utility.yul\":881:910   */\n      tag_116\n        /* \"#utility.yul\":903:909   */\n      dup2\n        /* \"#utility.yul\":881:910   */\n      tag_63\n      jump\t// in\n    tag_116:\n        /* \"#utility.yul\":876:879   */\n      dup5\n        /* \"#utility.yul\":872:911   */\n      add\n        /* \"#utility.yul\":865:911   */\n      swap2\n      pop\n        /* \"#utility.yul\":632:917   */\n      pop\n        /* \"#utility.yul\":540:917   */\n      swap3\n      swap2\n      pop\n      pop\n      jump\t// out\n        /* \"#utility.yul\":923:1236   */\n    tag_10:\n        /* \"#utility.yul\":1036:1040   */\n      0x00\n        /* \"#utility.yul\":1074:1076   */\n      0x20\n        /* \"#utility.yul\":1063:1072   */\n      dup3\n        /* \"#utility.yul\":1059:1077   */\n      add\n        /* \"#utility.yul\":1051:1077   */\n      swap1\n      pop\n        /* \"#utility.yul\":1123:1132   */\n      dup2\n        /* \"#utility.yul\":1117:1121   */\n      dup2\n        /* \"#utility.yul\":1113:1133   */\n      sub\n        /* \"#utility.yul\":1109:1110   */\n      0x00\n        /* \"#utility.yul\":1098:1107   */\n      dup4\n        /* \"#utility.yul\":1094:1111   */\n      add\n        /* \"#utility.yul\":1087:1134   */\n      mstore\n        /* \"#utility.yul\":1151:1229   */\n      tag_118\n        /* \"#utility.yul\":1224:1228   */\n      dup2\n        /* \"#utility.yul\":1215:1221   */\n      dup5\n        /* \"#utility.yul\":1151:1229   */\n      tag_64\n      jump\t// in\n    tag_118:\n        /* \"#utility.yul\":1143:1229   */\n      swap1\n      pop\n        /* \"#utility.yul\":923:1236   */\n      swap3\n      swap2\n      pop\n      pop\n      jump\t// out\n        /* \"#utility.yul\":1242:1319   */\n    tag_65:\n        /* \"#utility.yul\":1279:1286   */\n      0x00\n        /* \"#utility.yul\":1308:1313   */\n      dup2\n        /* \"#utility.yul\":1297:1313   */\n      swap1\n      pop\n        /* \"#utility.yul\":1242:1319   */\n      swap2\n      swap1\n      pop\n      jump\t// out\n        /* \"#utility.yul\":1325:1443   */\n    tag_66:\n        /* \"#utility.yul\":1412:1436   */\n      tag_121\n        /* \"#utility.yul\":1430:1435   */\n      dup2\n        /* \"#utility.yul\":1412:1436   */\n      tag_65\n      jump\t// in\n    tag_121:\n        /* \"#utility.yul\":1407:1410   */\n      dup3\n        /* \"#utility.yul\":1400:1437   */\n      mstore\n        /* \"#utility.yul\":1325:1443   */\n      pop\n      pop\n      jump\t// out\n        /* \"#utility.yul\":1449:1539   */\n    tag_67:\n        /* \"#utility.yul\":1483:1490   */\n      0x00\n        /* \"#utility.yul\":1526:1531   */\n      dup2\n        /* \"#utility.yul\":1519:1532   */\n      iszero\n        /* \"#utility.yul\":1512:1533   */\n      iszero\n        /* \"#utility.yul\":1501:1533   */\n      swap1\n      pop\n        /* \"#utility.yul\":1449:1539   */\n      swap2\n      swap1\n      pop\n      jump\t// out\n        /* \"#utility.yul\":1545:1654   */\n    tag_68:\n        /* \"#utility.yul\":1626:1647   */\n      tag_124\n        /* \"#utility.yul\":1641:1646   */\n      dup2\n        /* \"#utility.yul\":1626:1647   */\n      tag_67\n      jump\t// in\n    tag_124:\n        /* \"#utility.yul\":1621:1624   */\n      dup3\n        /* \"#utility.yul\":1614:1648   */\n      mstore\n        /* \"#utility.yul\":1545:1654   */\n      pop\n      pop\n      jump\t// out\n        /* \"#utility.yul\":1660:1784   */\n    tag_69:\n        /* \"#utility.yul\":1737:1743   */\n      0x00\n        /* \"#utility.yul\":1771:1776   */\n      dup2\n        /* \"#utility.yul\":1765:1777   */\n      mload\n        /* \"#utility.yul\":1755:1777   */\n      swap1\n      pop\n        /* \"#utility.yul\":1660:1784   */\n      swap2\n      swap1\n      pop\n      jump\t// out\n        /* \"#utility.yul\":1790:1984   */\n    tag_70:\n        /* \"#utility.yul\":1899:1910   */\n      0x00\n        /* \"#utility.yul\":1933:1939   */\n      dup3\n        /* \"#utility.yul\":1928:1931   */\n      dup3\n        /* \"#utility.yul\":1921:1940   */\n      mstore\n        /* \"#utility.yul\":1973:1977   */\n      0x20\n        /* \"#utility.yul\":1968:1971   */\n      dup3\n        /* \"#utility.yul\":1964:1978   */\n      add\n        /* \"#utility.yul\":1949:1978   */\n      swap1\n      pop\n        /* \"#utility.yul\":1790:1984   */\n      swap3\n      swap2\n      pop\n      pop\n      jump\t// out\n        /* \"#utility.yul\":1990:2132   */\n    tag_71:\n        /* \"#utility.yul\":2067:2071   */\n      0x00\n        /* \"#utility.yul\":2090:2093   */\n      dup2\n        /* \"#utility.yul\":2082:2093   */\n      swap1\n      pop\n        /* \"#utility.yul\":2120:2124   */\n      0x20\n        /* \"#utility.yul\":2115:2118   */\n      dup3\n        /* \"#utility.yul\":2111:2125   */\n      add\n        /* \"#utility.yul\":2103:2125   */\n      swap1\n      pop\n        /* \"#utility.yul\":1990:2132   */\n      swap2\n      swap1\n      pop\n      jump\t// out\n        /* \"#utility.yul\":2138:2297   */\n    tag_72:\n        /* \"#utility.yul\":2212:2223   */\n      0x00\n        /* \"#utility.yul\":2246:2252   */\n      dup3\n        /* \"#utility.yul\":2241:2244   */\n      dup3\n        /* \"#utility.yul\":2234:2253   */\n      mstore\n        /* \"#utility.yul\":2286:2290   */\n      0x20\n        /* \"#utility.yul\":2281:2284   */\n      dup3\n        /* \"#utility.yul\":2277:2291   */\n      add\n        /* \"#utility.yul\":2262:2291   */\n      swap1\n      pop\n        /* \"#utility.yul\":2138:2297   */\n      swap3\n      swap2\n      pop\n      pop\n      jump\t// out\n        /* \"#utility.yul\":2303:2660   */\n    tag_73:\n        /* \"#utility.yul\":2381:2384   */\n      0x00\n        /* \"#utility.yul\":2409:2448   */\n      tag_130\n        /* \"#utility.yul\":2442:2447   */\n      dup3\n        /* \"#utility.yul\":2409:2448   */\n      tag_60\n      jump\t// in\n    tag_130:\n        /* \"#utility.yul\":2464:2525   */\n      tag_131\n        /* \"#utility.yul\":2518:2524   */\n      dup2\n        /* \"#utility.yul\":2513:2516   */\n      dup6\n        /* \"#utility.yul\":2464:2525   */\n      tag_72\n      jump\t// in\n    tag_131:\n        /* \"#utility.yul\":2457:2525   */\n      swap4\n      pop\n        /* \"#utility.yul\":2534:2599   */\n      tag_132\n        /* \"#utility.yul\":2592:2598   */\n      dup2\n        /* \"#utility.yul\":2587:2590   */\n      dup6\n        /* \"#utility.yul\":2580:2584   */\n      0x20\n        /* \"#utility.yul\":2573:2578   */\n      dup7\n        /* \"#utility.yul\":2569:2585   */\n      add\n        /* \"#utility.yul\":2534:2599   */\n      tag_62\n      jump\t// in\n    tag_132:\n        /* \"#utility.yul\":2624:2653   */\n      tag_133\n        /* \"#utility.yul\":2646:2652   */\n      dup2\n        /* \"#utility.yul\":2624:2653   */\n      tag_63\n      jump\t// in\n    tag_133:\n        /* \"#utility.yul\":2619:2622   */\n      dup5\n        /* \"#utility.yul\":2615:2654   */\n      add\n        /* \"#utility.yul\":2608:2654   */\n      swap2\n      pop\n        /* \"#utility.yul\":2385:2660   */\n      pop\n        /* \"#utility.yul\":2303:2660   */\n      swap3\n      swap2\n      pop\n      pop\n      jump\t// out\n        /* \"#utility.yul\":2666:2862   */\n    tag_74:\n        /* \"#utility.yul\":2755:2765   */\n      0x00\n        /* \"#utility.yul\":2790:2856   */\n      tag_135\n        /* \"#utility.yul\":2852:2855   */\n      dup4\n        /* \"#utility.yul\":2844:2850   */\n      dup4\n        /* \"#utility.yul\":2790:2856   */\n      tag_73\n      jump\t// in\n    tag_135:\n        /* \"#utility.yul\":2776:2856   */\n      swap1\n      pop\n        /* \"#utility.yul\":2666:2862   */\n      swap3\n      swap2\n      pop\n      pop\n      jump\t// out\n        /* \"#utility.yul\":2868:2991   */\n    tag_75:\n        /* \"#utility.yul\":2948:2952   */\n      0x00\n        /* \"#utility.yul\":2980:2984   */\n      0x20\n        /* \"#utility.yul\":2975:2978   */\n      dup3\n        /* \"#utility.yul\":2971:2985   */\n      add\n        /* \"#utility.yul\":2963:2985   */\n      swap1\n      pop\n        /* \"#utility.yul\":2868:2991   */\n      swap2\n      swap1\n      pop\n      jump\t// out\n        /* \"#utility.yul\":3025:4016   */\n    tag_76:\n        /* \"#utility.yul\":3164:3167   */\n      0x00\n        /* \"#utility.yul\":3193:3257   */\n      tag_138\n        /* \"#utility.yul\":3251:3256   */\n      dup3\n        /* \"#utility.yul\":3193:3257   */\n      tag_69\n      jump\t// in\n    tag_138:\n        /* \"#utility.yul\":3273:3369   */\n      tag_139\n        /* \"#utility.yul\":3362:3368   */\n      dup2\n        /* \"#utility.yul\":3357:3360   */\n      dup6\n        /* \"#utility.yul\":3273:3369   */\n      tag_70\n      jump\t// in\n    tag_139:\n        /* \"#utility.yul\":3266:3369   */\n      swap4\n      pop\n        /* \"#utility.yul\":3395:3398   */\n      dup4\n        /* \"#utility.yul\":3440:3444   */\n      0x20\n        /* \"#utility.yul\":3432:3438   */\n      dup3\n        /* \"#utility.yul\":3428:3445   */\n      mul\n        /* \"#utility.yul\":3423:3426   */\n      dup6\n        /* \"#utility.yul\":3419:3446   */\n      add\n        /* \"#utility.yul\":3470:3536   */\n      tag_140\n        /* \"#utility.yul\":3530:3535   */\n      dup6\n        /* \"#utility.yul\":3470:3536   */\n      tag_71\n      jump\t// in\n    tag_140:\n        /* \"#utility.yul\":3559:3566   */\n      dup1\n        /* \"#utility.yul\":3590:3591   */\n      0x00\n        /* \"#utility.yul\":3575:3971   */\n    tag_141:\n        /* \"#utility.yul\":3600:3606   */\n      dup6\n        /* \"#utility.yul\":3597:3598   */\n      dup2\n        /* \"#utility.yul\":3594:3607   */\n      lt\n        /* \"#utility.yul\":3575:3971   */\n      iszero\n      tag_143\n      jumpi\n        /* \"#utility.yul\":3671:3680   */\n      dup5\n        /* \"#utility.yul\":3665:3669   */\n      dup5\n        /* \"#utility.yul\":3661:3681   */\n      sub\n        /* \"#utility.yul\":3656:3659   */\n      dup10\n        /* \"#utility.yul\":3649:3682   */\n      mstore\n        /* \"#utility.yul\":3722:3728   */\n      dup2\n        /* \"#utility.yul\":3716:3729   */\n      mload\n        /* \"#utility.yul\":3750:3834   */\n      tag_144\n        /* \"#utility.yul\":3829:3833   */\n      dup6\n        /* \"#utility.yul\":3814:3827   */\n      dup3\n        /* \"#utility.yul\":3750:3834   */\n      tag_74\n      jump\t// in\n    tag_144:\n        /* \"#utility.yul\":3742:3834   */\n      swap5\n      pop\n        /* \"#utility.yul\":3857:3927   */\n      tag_145\n        /* \"#utility.yul\":3920:3926   */\n      dup4\n        /* \"#utility.yul\":3857:3927   */\n      tag_75\n      jump\t// in\n    tag_145:\n        /* \"#utility.yul\":3847:3927   */\n      swap3\n      pop\n        /* \"#utility.yul\":3956:3960   */\n      0x20\n        /* \"#utility.yul\":3951:3954   */\n      dup11\n        /* \"#utility.yul\":3947:3961   */\n      add\n        /* \"#utility.yul\":3940:3961   */\n      swap10\n      pop\n        /* \"#utility.yul\":3635:3971   */\n      pop\n        /* \"#utility.yul\":3622:3623   */\n      0x01\n        /* \"#utility.yul\":3619:3620   */\n      dup2\n        /* \"#utility.yul\":3615:3624   */\n      add\n        /* \"#utility.yul\":3610:3624   */\n      swap1\n      pop\n        /* \"#utility.yul\":3575:3971   */\n      jump(tag_141)\n    tag_143:\n        /* \"#utility.yul\":3579:3593   */\n      pop\n        /* \"#utility.yul\":3987:3991   */\n      dup3\n        /* \"#utility.yul\":3980:3991   */\n      swap8\n      pop\n        /* \"#utility.yul\":4007:4010   */\n      dup8\n        /* \"#utility.yul\":4000:4010   */\n      swap6\n      pop\n        /* \"#utility.yul\":3169:4016   */\n      pop\n      pop\n      pop\n      pop\n      pop\n        /* \"#utility.yul\":3025:4016   */\n      swap3\n      swap2\n      pop\n      pop\n      jump\t// out\n        /* \"#utility.yul\":4022:4845   */\n    tag_14:\n        /* \"#utility.yul\":4283:4287   */\n      0x00\n        /* \"#utility.yul\":4321:4324   */\n      0x80\n        /* \"#utility.yul\":4310:4319   */\n      dup3\n        /* \"#utility.yul\":4306:4325   */\n      add\n        /* \"#utility.yul\":4298:4325   */\n      swap1\n      pop\n        /* \"#utility.yul\":4335:4406   */\n      tag_147\n        /* \"#utility.yul\":4403:4404   */\n      0x00\n        /* \"#utility.yul\":4392:4401   */\n      dup4\n        /* \"#utility.yul\":4388:4405   */\n      add\n        /* \"#utility.yul\":4379:4385   */\n      dup8\n        /* \"#utility.yul\":4335:4406   */\n      tag_66\n      jump\t// in\n    tag_147:\n        /* \"#utility.yul\":4416:4482   */\n      tag_148\n        /* \"#utility.yul\":4478:4480   */\n      0x20\n        /* \"#utility.yul\":4467:4476   */\n      dup4\n        /* \"#utility.yul\":4463:4481   */\n      add\n        /* \"#utility.yul\":4454:4460   */\n      dup7\n        /* \"#utility.yul\":4416:4482   */\n      tag_68\n      jump\t// in\n    tag_148:\n        /* \"#utility.yul\":4529:4538   */\n      dup2\n        /* \"#utility.yul\":4523:4527   */\n      dup2\n        /* \"#utility.yul\":4519:4539   */\n      sub\n        /* \"#utility.yul\":4514:4516   */\n      0x40\n        /* \"#utility.yul\":4503:4512   */\n      dup4\n        /* \"#utility.yul\":4499:4517   */\n      add\n        /* \"#utility.yul\":4492:4540   */\n      mstore\n        /* \"#utility.yul\":4557:4635   */\n      tag_149\n        /* \"#utility.yul\":4630:4634   */\n      dup2\n        /* \"#utility.yul\":4621:4627   */\n      dup6\n        /* \"#utility.yul\":4557:4635   */\n      tag_64\n      jump\t// in\n    tag_149:\n        /* \"#utility.yul\":4549:4635   */\n      swap1\n      pop\n        /* \"#utility.yul\":4682:4691   */\n      dup2\n        /* \"#utility.yul\":4676:4680   */\n      dup2\n        /* \"#utility.yul\":4672:4692   */\n      sub\n        /* \"#utility.yul\":4667:4669   */\n      0x60\n        /* \"#utility.yul\":4656:4665   */\n      dup4\n        /* \"#utility.yul\":4652:4670   */\n      add\n        /* \"#utility.yul\":4645:4693   */\n      mstore\n        /* \"#utility.yul\":4710:4838   */\n      tag_150\n        /* \"#utility.yul\":4833:4837   */\n      dup2\n        /* \"#utility.yul\":4824:4830   */\n      dup5\n        /* \"#utility.yul\":4710:4838   */\n      tag_76\n      jump\t// in\n    tag_150:\n        /* \"#utility.yul\":4702:4838   */\n      swap1\n      pop\n        /* \"#utility.yul\":4022:4845   */\n      swap6\n      swap5\n      pop\n      pop\n      pop\n      pop\n      pop\n      jump\t// out\n        /* \"#utility.yul\":4851:4926   */\n    tag_77:\n        /* \"#utility.yul\":4884:4890   */\n      0x00\n        /* \"#utility.yul\":4917:4919   */\n      0x40\n        /* \"#utility.yul\":4911:4920   */\n      mload\n        /* \"#utility.yul\":4901:4920   */\n      swap1\n      pop\n        /* \"#utility.yul\":4851:4926   */\n      swap1\n      jump\t// out\n        /* \"#utility.yul\":4932:5049   */\n    tag_78:\n        /* \"#utility.yul\":5041:5042   */\n      0x00\n        /* \"#utility.yul\":5038:5039   */\n      dup1\n        /* \"#utility.yul\":5031:5043   */\n      revert\n        /* \"#utility.yul\":5055:5172   */\n    tag_79:\n        /* \"#utility.yul\":5164:5165   */\n      0x00\n        /* \"#utility.yul\":5161:5162   */\n      dup1\n        /* \"#utility.yul\":5154:5166   */\n      revert\n        /* \"#utility.yul\":5178:5295   */\n    tag_80:\n        /* \"#utility.yul\":5287:5288   */\n      0x00\n        /* \"#utility.yul\":5284:5285   */\n      dup1\n        /* \"#utility.yul\":5277:5289   */\n      revert\n        /* \"#utility.yul\":5301:5418   */\n    tag_81:\n        /* \"#utility.yul\":5410:5411   */\n      0x00\n        /* \"#utility.yul\":5407:5408   */\n      dup1\n        /* \"#utility.yul\":5400:5412   */\n      revert\n        /* \"#utility.yul\":5424:5604   */\n    tag_82:\n        /* \"#utility.yul\":5472:5549   */\n      0x4e487b7100000000000000000000000000000000000000000000000000000000\n        /* \"#utility.yul\":5469:5470   */\n      0x00\n        /* \"#utility.yul\":5462:5550   */\n      mstore\n        /* \"#utility.yul\":5569:5573   */\n      0x41\n        /* \"#utility.yul\":5566:5567   */\n      0x04\n        /* \"#utility.yul\":5559:5574   */\n      mstore\n        /* \"#utility.yul\":5593:5597   */\n      0x24\n        /* \"#utility.yul\":5590:5591   */\n      0x00\n        /* \"#utility.yul\":5583:5598   */\n      revert\n        /* \"#utility.yul\":5610:5891   */\n    tag_83:\n        /* \"#utility.yul\":5693:5720   */\n      tag_158\n        /* \"#utility.yul\":5715:5719   */\n      dup3\n        /* \"#utility.yul\":5693:5720   */\n      tag_63\n      jump\t// in\n    tag_158:\n        /* \"#utility.yul\":5685:5691   */\n      dup2\n        /* \"#utility.yul\":5681:5721   */\n      add\n        /* \"#utility.yul\":5823:5829   */\n      dup2\n        /* \"#utility.yul\":5811:5821   */\n      dup2\n        /* \"#utility.yul\":5808:5830   */\n      lt\n        /* \"#utility.yul\":5787:5805   */\n      0xffffffffffffffff\n        /* \"#utility.yul\":5775:5785   */\n      dup3\n        /* \"#utility.yul\":5772:5806   */\n      gt\n        /* \"#utility.yul\":5769:5831   */\n      or\n        /* \"#utility.yul\":5766:5854   */\n      iszero\n      tag_159\n      jumpi\n        /* \"#utility.yul\":5834:5852   */\n      tag_160\n      tag_82\n      jump\t// in\n    tag_160:\n        /* \"#utility.yul\":5766:5854   */\n    tag_159:\n        /* \"#utility.yul\":5874:5884   */\n      dup1\n        /* \"#utility.yul\":5870:5872   */\n      0x40\n        /* \"#utility.yul\":5863:5885   */\n      mstore\n        /* \"#utility.yul\":5653:5891   */\n      pop\n        /* \"#utility.yul\":5610:5891   */\n      pop\n      pop\n      jump\t// out\n        /* \"#utility.yul\":5897:6026   */\n    tag_84:\n        /* \"#utility.yul\":5931:5937   */\n      0x00\n        /* \"#utility.yul\":5958:5978   */\n      tag_162\n      tag_77\n      jump\t// in\n    tag_162:\n        /* \"#utility.yul\":5948:5978   */\n      swap1\n      pop\n        /* \"#utility.yul\":5987:6020   */\n      tag_163\n        /* \"#utility.yul\":6015:6019   */\n      dup3\n        /* \"#utility.yul\":6007:6013   */\n      dup3\n        /* \"#utility.yul\":5987:6020   */\n      tag_83\n      jump\t// in\n    tag_163:\n        /* \"#utility.yul\":5897:6026   */\n      swap2\n      swap1\n      pop\n      jump\t// out\n        /* \"#utility.yul\":6032:6340   */\n    tag_85:\n        /* \"#utility.yul\":6094:6098   */\n      0x00\n        /* \"#utility.yul\":6184:6202   */\n      0xffffffffffffffff\n        /* \"#utility.yul\":6176:6182   */\n      dup3\n        /* \"#utility.yul\":6173:6203   */\n      gt\n        /* \"#utility.yul\":6170:6226   */\n      iszero\n      tag_165\n      jumpi\n        /* \"#utility.yul\":6206:6224   */\n      tag_166\n      tag_82\n      jump\t// in\n    tag_166:\n        /* \"#utility.yul\":6170:6226   */\n    tag_165:\n        /* \"#utility.yul\":6244:6273   */\n      tag_167\n        /* \"#utility.yul\":6266:6272   */\n      dup3\n        /* \"#utility.yul\":6244:6273   */\n      tag_63\n      jump\t// in\n    tag_167:\n        /* \"#utility.yul\":6236:6273   */\n      swap1\n      pop\n        /* \"#utility.yul\":6328:6332   */\n      0x20\n        /* \"#utility.yul\":6322:6326   */\n      dup2\n        /* \"#utility.yul\":6318:6333   */\n      add\n        /* \"#utility.yul\":6310:6333   */\n      swap1\n      pop\n        /* \"#utility.yul\":6032:6340   */\n      swap2\n      swap1\n      pop\n      jump\t// out\n        /* \"#utility.yul\":6346:6494   */\n    tag_86:\n        /* \"#utility.yul\":6444:6450   */\n      dup3\n        /* \"#utility.yul\":6439:6442   */\n      dup2\n        /* \"#utility.yul\":6434:6437   */\n      dup4\n        /* \"#utility.yul\":6421:6451   */\n      calldatacopy\n        /* \"#utility.yul\":6485:6486   */\n      0x00\n        /* \"#utility.yul\":6476:6482   */\n      dup4\n        /* \"#utility.yul\":6471:6474   */\n      dup4\n        /* \"#utility.yul\":6467:6483   */\n      add\n        /* \"#utility.yul\":6460:6487   */\n      mstore\n        /* \"#utility.yul\":6346:6494   */\n      pop\n      pop\n      pop\n      jump\t// out\n        /* \"#utility.yul\":6500:6925   */\n    tag_87:\n        /* \"#utility.yul\":6578:6583   */\n      0x00\n        /* \"#utility.yul\":6603:6669   */\n      tag_170\n        /* \"#utility.yul\":6619:6668   */\n      tag_171\n        /* \"#utility.yul\":6661:6667   */\n      dup5\n        /* \"#utility.yul\":6619:6668   */\n      tag_85\n      jump\t// in\n    tag_171:\n        /* \"#utility.yul\":6603:6669   */\n      tag_84\n      jump\t// in\n    tag_170:\n        /* \"#utility.yul\":6594:6669   */\n      swap1\n      pop\n        /* \"#utility.yul\":6692:6698   */\n      dup3\n        /* \"#utility.yul\":6685:6690   */\n      dup2\n        /* \"#utility.yul\":6678:6699   */\n      mstore\n        /* \"#utility.yul\":6730:6734   */\n      0x20\n        /* \"#utility.yul\":6723:6728   */\n      dup2\n        /* \"#utility.yul\":6719:6735   */\n      add\n        /* \"#utility.yul\":6768:6771   */\n      dup5\n        /* \"#utility.yul\":6759:6765   */\n      dup5\n        /* \"#utility.yul\":6754:6757   */\n      dup5\n        /* \"#utility.yul\":6750:6766   */\n      add\n        /* \"#utility.yul\":6747:6772   */\n      gt\n        /* \"#utility.yul\":6744:6856   */\n      iszero\n      tag_172\n      jumpi\n        /* \"#utility.yul\":6775:6854   */\n      tag_173\n      tag_81\n      jump\t// in\n    tag_173:\n        /* \"#utility.yul\":6744:6856   */\n    tag_172:\n        /* \"#utility.yul\":6865:6919   */\n      tag_174\n        /* \"#utility.yul\":6912:6918   */\n      dup5\n        /* \"#utility.yul\":6907:6910   */\n      dup3\n        /* \"#utility.yul\":6902:6905   */\n      dup6\n        /* \"#utility.yul\":6865:6919   */\n      tag_86\n      jump\t// in\n    tag_174:\n        /* \"#utility.yul\":6584:6925   */\n      pop\n        /* \"#utility.yul\":6500:6925   */\n      swap4\n      swap3\n      pop\n      pop\n      pop\n      jump\t// out\n        /* \"#utility.yul\":6945:7285   */\n    tag_88:\n        /* \"#utility.yul\":7001:7006   */\n      0x00\n        /* \"#utility.yul\":7050:7053   */\n      dup3\n        /* \"#utility.yul\":7043:7047   */\n      0x1f\n        /* \"#utility.yul\":7035:7041   */\n      dup4\n        /* \"#utility.yul\":7031:7048   */\n      add\n        /* \"#utility.yul\":7027:7054   */\n      slt\n        /* \"#utility.yul\":7017:7139   */\n      tag_176\n      jumpi\n        /* \"#utility.yul\":7058:7137   */\n      tag_177\n      tag_80\n      jump\t// in\n    tag_177:\n        /* \"#utility.yul\":7017:7139   */\n    tag_176:\n        /* \"#utility.yul\":7175:7181   */\n      dup2\n        /* \"#utility.yul\":7162:7182   */\n      calldataload\n        /* \"#utility.yul\":7200:7279   */\n      tag_178\n        /* \"#utility.yul\":7275:7278   */\n      dup5\n        /* \"#utility.yul\":7267:7273   */\n      dup3\n        /* \"#utility.yul\":7260:7264   */\n      0x20\n        /* \"#utility.yul\":7252:7258   */\n      dup7\n        /* \"#utility.yul\":7248:7265   */\n      add\n        /* \"#utility.yul\":7200:7279   */\n      tag_87\n      jump\t// in\n    tag_178:\n        /* \"#utility.yul\":7191:7279   */\n      swap2\n      pop\n        /* \"#utility.yul\":7007:7285   */\n      pop\n        /* \"#utility.yul\":6945:7285   */\n      swap3\n      swap2\n      pop\n      pop\n      jump\t// out\n        /* \"#utility.yul\":7291:8125   */\n    tag_17:\n        /* \"#utility.yul\":7379:7385   */\n      0x00\n        /* \"#utility.yul\":7387:7393   */\n      dup1\n        /* \"#utility.yul\":7436:7438   */\n      0x40\n        /* \"#utility.yul\":7424:7433   */\n      dup4\n        /* \"#utility.yul\":7415:7422   */\n      dup6\n        /* \"#utility.yul\":7411:7434   */\n      sub\n        /* \"#utility.yul\":7407:7439   */\n      slt\n        /* \"#utility.yul\":7404:7523   */\n      iszero\n      tag_180\n      jumpi\n        /* \"#utility.yul\":7442:7521   */\n      tag_181\n      tag_78\n      jump\t// in\n    tag_181:\n        /* \"#utility.yul\":7404:7523   */\n    tag_180:\n        /* \"#utility.yul\":7590:7591   */\n      0x00\n        /* \"#utility.yul\":7579:7588   */\n      dup4\n        /* \"#utility.yul\":7575:7592   */\n      add\n        /* \"#utility.yul\":7562:7593   */\n      calldataload\n        /* \"#utility.yul\":7620:7638   */\n      0xffffffffffffffff\n        /* \"#utility.yul\":7612:7618   */\n      dup2\n        /* \"#utility.yul\":7609:7639   */\n      gt\n        /* \"#utility.yul\":7606:7723   */\n      iszero\n      tag_182\n      jumpi\n        /* \"#utility.yul\":7642:7721   */\n      tag_183\n      tag_79\n      jump\t// in\n    tag_183:\n        /* \"#utility.yul\":7606:7723   */\n    tag_182:\n        /* \"#utility.yul\":7747:7810   */\n      tag_184\n        /* \"#utility.yul\":7802:7809   */\n      dup6\n        /* \"#utility.yul\":7793:7799   */\n      dup3\n        /* \"#utility.yul\":7782:7791   */\n      dup7\n        /* \"#utility.yul\":7778:7800   */\n      add\n        /* \"#utility.yul\":7747:7810   */\n      tag_88\n      jump\t// in\n    tag_184:\n        /* \"#utility.yul\":7737:7810   */\n      swap3\n      pop\n        /* \"#utility.yul\":7533:7820   */\n      pop\n        /* \"#utility.yul\":7887:7889   */\n      0x20\n        /* \"#utility.yul\":7876:7885   */\n      dup4\n        /* \"#utility.yul\":7872:7890   */\n      add\n        /* \"#utility.yul\":7859:7891   */\n      calldataload\n        /* \"#utility.yul\":7918:7936   */\n      0xffffffffffffffff\n        /* \"#utility.yul\":7910:7916   */\n      dup2\n        /* \"#utility.yul\":7907:7937   */\n      gt\n        /* \"#utility.yul\":7904:8021   */\n      iszero\n      tag_185\n      jumpi\n        /* \"#utility.yul\":7940:8019   */\n      tag_186\n      tag_79\n      jump\t// in\n    tag_186:\n        /* \"#utility.yul\":7904:8021   */\n    tag_185:\n        /* \"#utility.yul\":8045:8108   */\n      tag_187\n        /* \"#utility.yul\":8100:8107   */\n      dup6\n        /* \"#utility.yul\":8091:8097   */\n      dup3\n        /* \"#utility.yul\":8080:8089   */\n      dup7\n        /* \"#utility.yul\":8076:8098   */\n      add\n        /* \"#utility.yul\":8045:8108   */\n      tag_88\n      jump\t// in\n    tag_187:\n        /* \"#utility.yul\":8035:8108   */\n      swap2\n      pop\n        /* \"#utility.yul\":7830:8118   */\n      pop\n        /* \"#utility.yul\":7291:8125   */\n      swap3\n      pop\n      swap3\n      swap1\n      pop\n      jump\t// out\n        /* \"#utility.yul\":8131:8253   */\n    tag_89:\n        /* \"#utility.yul\":8204:8228   */\n      tag_189\n        /* \"#utility.yul\":8222:8227   */\n      dup2\n        /* \"#utility.yul\":8204:8228   */\n      tag_65\n      jump\t// in\n    tag_189:\n        /* \"#utility.yul\":8197:8202   */\n      dup2\n        /* \"#utility.yul\":8194:8229   */\n      eq\n        /* \"#utility.yul\":8184:8247   */\n      tag_190\n      jumpi\n        /* \"#utility.yul\":8243:8244   */\n      0x00\n        /* \"#utility.yul\":8240:8241   */\n      dup1\n        /* \"#utility.yul\":8233:8245   */\n      revert\n        /* \"#utility.yul\":8184:8247   */\n    tag_190:\n        /* \"#utility.yul\":8131:8253   */\n      pop\n      jump\t// out\n        /* \"#utility.yul\":8259:8398   */\n    tag_90:\n        /* \"#utility.yul\":8305:8310   */\n      0x00\n        /* \"#utility.yul\":8343:8349   */\n      dup2\n        /* \"#utility.yul\":8330:8350   */\n      calldataload\n        /* \"#utility.yul\":8321:8350   */\n      swap1\n      pop\n        /* \"#utility.yul\":8359:8392   */\n      tag_192\n        /* \"#utility.yul\":8386:8391   */\n      dup2\n        /* \"#utility.yul\":8359:8392   */\n      tag_89\n      jump\t// in\n    tag_192:\n        /* \"#utility.yul\":8259:8398   */\n      swap3\n      swap2\n      pop\n      pop\n      jump\t// out\n        /* \"#utility.yul\":8404:8733   */\n    tag_21:\n        /* \"#utility.yul\":8463:8469   */\n      0x00\n        /* \"#utility.yul\":8512:8514   */\n      0x20\n        /* \"#utility.yul\":8500:8509   */\n      dup3\n        /* \"#utility.yul\":8491:8498   */\n      dup5\n        /* \"#utility.yul\":8487:8510   */\n      sub\n        /* \"#utility.yul\":8483:8515   */\n      slt\n        /* \"#utility.yul\":8480:8599   */\n      iszero\n      tag_194\n      jumpi\n        /* \"#utility.yul\":8518:8597   */\n      tag_195\n      tag_78\n      jump\t// in\n    tag_195:\n        /* \"#utility.yul\":8480:8599   */\n    tag_194:\n        /* \"#utility.yul\":8638:8639   */\n      0x00\n        /* \"#utility.yul\":8663:8716   */\n      tag_196\n        /* \"#utility.yul\":8708:8715   */\n      dup5\n        /* \"#utility.yul\":8699:8705   */\n      dup3\n        /* \"#utility.yul\":8688:8697   */\n      dup6\n        /* \"#utility.yul\":8684:8706   */\n      add\n        /* \"#utility.yul\":8663:8716   */\n      tag_90\n      jump\t// in\n    tag_196:\n        /* \"#utility.yul\":8653:8716   */\n      swap2\n      pop\n        /* \"#utility.yul\":8609:8726   */\n      pop\n        /* \"#utility.yul\":8404:8733   */\n      swap3\n      swap2\n      pop\n      pop\n      jump\t// out\n        /* \"#utility.yul\":8739:8919   */\n    tag_91:\n        /* \"#utility.yul\":8787:8864   */\n      0x4e487b7100000000000000000000000000000000000000000000000000000000\n        /* \"#utility.yul\":8784:8785   */\n      0x00\n        /* \"#utility.yul\":8777:8865   */\n      mstore\n        /* \"#utility.yul\":8884:8888   */\n      0x22\n        /* \"#utility.yul\":8881:8882   */\n      0x04\n        /* \"#utility.yul\":8874:8889   */\n      mstore\n        /* \"#utility.yul\":8908:8912   */\n      0x24\n        /* \"#utility.yul\":8905:8906   */\n      0x00\n        /* \"#utility.yul\":8898:8913   */\n      revert\n        /* \"#utility.yul\":8925:9245   */\n    tag_25:\n        /* \"#utility.yul\":8969:8975   */\n      0x00\n        /* \"#utility.yul\":9006:9007   */\n      0x02\n        /* \"#utility.yul\":9000:9004   */\n      dup3\n        /* \"#utility.yul\":8996:9008   */\n      div\n        /* \"#utility.yul\":8986:9008   */\n      swap1\n      pop\n        /* \"#utility.yul\":9053:9054   */\n      0x01\n        /* \"#utility.yul\":9047:9051   */\n      dup3\n        /* \"#utility.yul\":9043:9055   */\n      and\n        /* \"#utility.yul\":9074:9092   */\n      dup1\n        /* \"#utility.yul\":9064:9145   */\n      tag_199\n      jumpi\n        /* \"#utility.yul\":9130:9134   */\n      0x7f\n        /* \"#utility.yul\":9122:9128   */\n      dup3\n        /* \"#utility.yul\":9118:9135   */\n      and\n        /* \"#utility.yul\":9108:9135   */\n      swap2\n      pop\n        /* \"#utility.yul\":9064:9145   */\n    tag_199:\n        /* \"#utility.yul\":9192:9194   */\n      0x20\n        /* \"#utility.yul\":9184:9190   */\n      dup3\n        /* \"#utility.yul\":9181:9195   */\n      lt\n        /* \"#utility.yul\":9161:9179   */\n      dup2\n        /* \"#utility.yul\":9158:9196   */\n      sub\n        /* \"#utility.yul\":9155:9239   */\n      tag_200\n      jumpi\n        /* \"#utility.yul\":9211:9229   */\n      tag_201\n      tag_91\n      jump\t// in\n    tag_201:\n        /* \"#utility.yul\":9155:9239   */\n    tag_200:\n        /* \"#utility.yul\":8976:9245   */\n      pop\n        /* \"#utility.yul\":8925:9245   */\n      swap2\n      swap1\n      pop\n      jump\t// out\n        /* \"#utility.yul\":9251:9392   */\n    tag_92:\n        /* \"#utility.yul\":9300:9304   */\n      0x00\n        /* \"#utility.yul\":9323:9326   */\n      dup2\n        /* \"#utility.yul\":9315:9326   */\n      swap1\n      pop\n        /* \"#utility.yul\":9346:9349   */\n      dup2\n        /* \"#utility.yul\":9343:9344   */\n      0x00\n        /* \"#utility.yul\":9336:9350   */\n      mstore\n        /* \"#utility.yul\":9380:9384   */\n      0x20\n        /* \"#utility.yul\":9377:9378   */\n      0x00\n        /* \"#utility.yul\":9367:9385   */\n      keccak256\n        /* \"#utility.yul\":9359:9385   */\n      swap1\n      pop\n        /* \"#utility.yul\":9251:9392   */\n      swap2\n      swap1\n      pop\n      jump\t// out\n        /* \"#utility.yul\":9398:9491   */\n    tag_93:\n        /* \"#utility.yul\":9435:9441   */\n      0x00\n        /* \"#utility.yul\":9482:9484   */\n      0x20\n        /* \"#utility.yul\":9477:9479   */\n      0x1f\n        /* \"#utility.yul\":9470:9475   */\n      dup4\n        /* \"#utility.yul\":9466:9480   */\n      add\n        /* \"#utility.yul\":9462:9485   */\n      div\n        /* \"#utility.yul\":9452:9485   */\n      swap1\n      pop\n        /* \"#utility.yul\":9398:9491   */\n      swap2\n      swap1\n      pop\n      jump\t// out\n        /* \"#utility.yul\":9497:9604   */\n    tag_94:\n        /* \"#utility.yul\":9541:9549   */\n      0x00\n        /* \"#utility.yul\":9591:9596   */\n      dup3\n        /* \"#utility.yul\":9585:9589   */\n      dup3\n        /* \"#utility.yul\":9581:9597   */\n      shl\n        /* \"#utility.yul\":9560:9597   */\n      swap1\n      pop\n        /* \"#utility.yul\":9497:9604   */\n      swap3\n      swap2\n      pop\n      pop\n      jump\t// out\n        /* \"#utility.yul\":9610:10003   */\n    tag_95:\n        /* \"#utility.yul\":9679:9685   */\n      0x00\n        /* \"#utility.yul\":9729:9730   */\n      0x08\n        /* \"#utility.yul\":9717:9727   */\n      dup4\n        /* \"#utility.yul\":9713:9731   */\n      mul\n        /* \"#utility.yul\":9752:9849   */\n      tag_206\n        /* \"#utility.yul\":9782:9848   */\n      0xffffffffffffffffffffffffffffffffffffffffffffffffffffffffffffffff\n        /* \"#utility.yul\":9771:9780   */\n      dup3\n        /* \"#utility.yul\":9752:9849   */\n      tag_94\n      jump\t// in\n    tag_206:\n        /* \"#utility.yul\":9870:9909   */\n      tag_207\n        /* \"#utility.yul\":9900:9908   */\n      dup7\n        /* \"#utility.yul\":9889:9898   */\n      dup4\n        /* \"#utility.yul\":9870:9909   */\n      tag_94\n      jump\t// in\n    tag_207:\n        /* \"#utility.yul\":9858:9909   */\n      swap6\n      pop\n        /* \"#utility.yul\":9942:9946   */\n      dup1\n        /* \"#utility.yul\":9938:9947   */\n      not\n        /* \"#utility.yul\":9931:9936   */\n      dup5\n        /* \"#utility.yul\":9927:9948   */\n      and\n        /* \"#utility.yul\":9918:9948   */\n      swap4\n      pop\n        /* \"#utility.yul\":9991:9995   */\n      dup1\n        /* \"#utility.yul\":9981:9989   */\n      dup7\n        /* \"#utility.yul\":9977:9996   */\n      and\n        /* \"#utility.yul\":9970:9975   */\n      dup5\n        /* \"#utility.yul\":9967:9997   */\n      or\n        /* \"#utility.yul\":9957:9997   */\n      swap3\n      pop\n        /* \"#utility.yul\":9686:10003   */\n      pop\n      pop\n        /* \"#utility.yul\":9610:10003   */\n      swap4\n      swap3\n      pop\n      pop\n      pop\n      jump\t// out\n        /* \"#utility.yul\":10009:10069   */\n    tag_96:\n        /* \"#utility.yul\":10037:10040   */\n      0x00\n        /* \"#utility.yul\":10058:10063   */\n      dup2\n        /* \"#utility.yul\":10051:10063   */\n      swap1\n      pop\n        /* \"#utility.yul\":10009:10069   */\n      swap2\n      swap1\n      pop\n      jump\t// out\n        /* \"#utility.yul\":10075:10217   */\n    tag_97:\n        /* \"#utility.yul\":10125:10134   */\n      0x00\n        /* \"#utility.yul\":10158:10211   */\n      tag_210\n        /* \"#utility.yul\":10176:10210   */\n      tag_211\n        /* \"#utility.yul\":10185:10209   */\n      tag_212\n        /* \"#utility.yul\":10203:10208   */\n      dup5\n        /* \"#utility.yul\":10185:10209   */\n      tag_65\n      jump\t// in\n    tag_212:\n        /* \"#utility.yul\":10176:10210   */\n      tag_96\n      jump\t// in\n    tag_211:\n        /* \"#utility.yul\":10158:10211   */\n      tag_65\n      jump\t// in\n    tag_210:\n        /* \"#utility.yul\":10145:10211   */\n      swap1\n      pop\n        /* \"#utility.yul\":10075:10217   */\n      swap2\n      swap1\n      pop\n      jump\t// out\n        /* \"#utility.yul\":10223:10298   */\n    tag_98:\n        /* \"#utility.yul\":10266:10269   */\n      0x00\n        /* \"#utility.yul\":10287:10292   */\n      dup2\n        /* \"#utility.yul\":10280:10292   */\n      swap1\n      pop\n        /* \"#utility.yul\":10223:10298   */\n      swap2\n      swap1\n      pop\n      jump\t// out\n        /* \"#utility.yul\":10304:10573   */\n    tag_99:\n        /* \"#utility.yul\":10414:10453   */\n      tag_215\n        /* \"#utility.yul\":10445:10452   */\n      dup4\n        /* \"#utility.yul\":10414:10453   */\n      tag_97\n      jump\t// in\n    tag_215:\n        /* \"#utility.yul\":10475:10566   */\n      tag_216\n        /* \"#utility.yul\":10524:10565   */\n      tag_217\n        /* \"#utility.yul\":10548:10564   */\n      dup3\n        /* \"#utility.yul\":10524:10565   */\n      tag_98\n      jump\t// in\n    tag_217:\n        /* \"#utility.yul\":10516:10522   */\n      dup5\n        /* \"#utility.yul\":10509:10513   */\n      dup5\n        /* \"#utility.yul\":10503:10514   */\n      sload\n        /* \"#utility.yul\":10475:10566   */\n      tag_95\n      jump\t// in\n    tag_216:\n        /* \"#utility.yul\":10469:10473   */\n      dup3\n        /* \"#utility.yul\":10462:10567   */\n      sstore\n        /* \"#utility.yul\":10380:10573   */\n      pop\n        /* \"#utility.yul\":10304:10573   */\n      pop\n      pop\n      pop\n      jump\t// out\n        /* \"#utility.yul\":10579:10652   */\n    tag_100:\n        /* \"#utility.yul\":10624:10627   */\n      0x00\n        /* \"#utility.yul\":10579:10652   */\n      swap1\n      jump\t// out\n        /* \"#utility.yul\":10658:10847   */\n    tag_101:\n        /* \"#utility.yul\":10735:10767   */\n      tag_220\n      tag_100\n      jump\t// in\n    tag_220:\n        /* \"#utility.yul\":10776:10841   */\n      tag_221\n        /* \"#utility.yul\":10834:10840   */\n      dup2\n        /* \"#utility.yul\":10826:10832   */\n      dup5\n        /* \"#utility.yul\":10820:10824   */\n      dup5\n        /* \"#utility.yul\":10776:10841   */\n      tag_99\n      jump\t// in\n    tag_221:\n        /* \"#utility.yul\":10711:10847   */\n      pop\n        /* \"#utility.yul\":10658:10847   */\n      pop\n      pop\n      jump\t// out\n        /* \"#utility.yul\":10853:11039   */\n    tag_102:\n        /* \"#utility.yul\":10913:11033   */\n    tag_223:\n        /* \"#utility.yul\":10930:10933   */\n      dup2\n        /* \"#utility.yul\":10923:10928   */\n      dup2\n        /* \"#utility.yul\":10920:10934   */\n      lt\n        /* \"#utility.yul\":10913:11033   */\n      iszero\n      tag_225\n      jumpi\n        /* \"#utility.yul\":10984:11023   */\n      tag_226\n        /* \"#utility.yul\":11021:11022   */\n      0x00\n        /* \"#utility.yul\":11014:11019   */\n      dup3\n        /* \"#utility.yul\":10984:11023   */\n      tag_101\n      jump\t// in\n    tag_226:\n        /* \"#utility.yul\":10957:10958   */\n      0x01\n        /* \"#utility.yul\":10950:10955   */\n      dup2\n        /* \"#utility.yul\":10946:10959   */\n      add\n        /* \"#utility.yul\":10937:10959   */\n      swap1\n      pop\n        /* \"#utility.yul\":10913:11033   */\n      jump(tag_223)\n    tag_225:\n        /* \"#utility.yul\":10853:11039   */\n      pop\n      pop\n      jump\t// out\n        /* \"#utility.yul\":11045:11588   */\n    tag_103:\n        /* \"#utility.yul\":11146:11148   */\n      0x1f\n        /* \"#utility.yul\":11141:11144   */\n      dup3\n        /* \"#utility.yul\":11138:11149   */\n      gt\n        /* \"#utility.yul\":11135:11581   */\n      iszero\n      tag_228\n      jumpi\n        /* \"#utility.yul\":11180:11218   */\n      tag_229\n        /* \"#utility.yul\":11212:11217   */\n      dup2\n        /* \"#utility.yul\":11180:11218   */\n      tag_92\n      jump\t// in\n    tag_229:\n        /* \"#utility.yul\":11264:11293   */\n      tag_230\n        /* \"#utility.yul\":11282:11292   */\n      dup5\n        /* \"#utility.yul\":11264:11293   */\n      tag_93\n      jump\t// in\n    tag_230:\n        /* \"#utility.yul\":11254:11262   */\n      dup2\n        /* \"#utility.yul\":11250:11294   */\n      add\n        /* \"#utility.yul\":11447:11449   */\n      0x20\n        /* \"#utility.yul\":11435:11445   */\n      dup6\n        /* \"#utility.yul\":11432:11450   */\n      lt\n        /* \"#utility.yul\":11429:11478   */\n      iszero\n      tag_231\n      jumpi\n        /* \"#utility.yul\":11468:11476   */\n      dup2\n        /* \"#utility.yul\":11453:11476   */\n      swap1\n      pop\n        /* \"#utility.yul\":11429:11478   */\n    tag_231:\n        /* \"#utility.yul\":11491:11571   */\n      tag_232\n        /* \"#utility.yul\":11547:11569   */\n      tag_233\n        /* \"#utility.yul\":11565:11568   */\n      dup6\n        /* \"#utility.yul\":11547:11569   */\n      tag_93\n      jump\t// in\n    tag_233:\n        /* \"#utility.yul\":11537:11545   */\n      dup4\n        /* \"#utility.yul\":11533:11570   */\n      add\n        /* \"#utility.yul\":11520:11531   */\n      dup3\n        /* \"#utility.yul\":11491:11571   */\n      tag_102\n      jump\t// in\n    tag_232:\n        /* \"#utility.yul\":11150:11581   */\n      pop\n      pop\n        /* \"#utility.yul\":11135:11581   */\n    tag_228:\n        /* \"#utility.yul\":11045:11588   */\n      pop\n      pop\n      pop\n      jump\t// out\n        /* \"#utility.yul\":11594:11711   */\n    tag_104:\n        /* \"#utility.yul\":11648:11656   */\n      0x00\n        /* \"#utility.yul\":11698:11703   */\n      dup3\n        /* \"#utility.yul\":11692:11696   */\n      dup3\n        /* \"#utility.yul\":11688:11704   */\n      shr\n        /* \"#utility.yul\":11667:11704   */\n      swap1\n      pop\n        /* \"#utility.yul\":11594:11711   */\n      swap3\n      swap2\n      pop\n      pop\n      jump\t// out\n        /* \"#utility.yul\":11717:11886   */\n    tag_105:\n        /* \"#utility.yul\":11761:11767   */\n      0x00\n        /* \"#utility.yul\":11794:11845   */\n      tag_236\n        /* \"#utility.yul\":11842:11843   */\n      0x00\n        /* \"#utility.yul\":11838:11844   */\n      not\n        /* \"#utility.yul\":11830:11835   */\n      dup5\n        /* \"#utility.yul\":11827:11828   */\n      0x08\n        /* \"#utility.yul\":11823:11836   */\n      mul\n        /* \"#utility.yul\":11794:11845   */\n      tag_104\n      jump\t// in\n    tag_236:\n        /* \"#utility.yul\":11790:11846   */\n      not\n        /* \"#utility.yul\":11875:11879   */\n      dup1\n        /* \"#utility.yul\":11869:11873   */\n      dup4\n        /* \"#utility.yul\":11865:11880   */\n      and\n        /* \"#utility.yul\":11855:11880   */\n      swap2\n      pop\n        /* \"#utility.yul\":11768:11886   */\n      pop\n        /* \"#utility.yul\":11717:11886   */\n      swap3\n      swap2\n      pop\n      pop\n      jump\t// out\n        /* \"#utility.yul\":11891:12186   */\n    tag_106:\n        /* \"#utility.yul\":11967:11971   */\n      0x00\n        /* \"#utility.yul\":12113:12142   */\n      tag_238\n        /* \"#utility.yul\":12138:12141   */\n      dup4\n        /* \"#utility.yul\":12132:12136   */\n      dup4\n        /* \"#utility.yul\":12113:12142   */\n      tag_105\n      jump\t// in\n    tag_238:\n        /* \"#utility.yul\":12105:12142   */\n      swap2\n      pop\n        /* \"#utility.yul\":12175:12178   */\n      dup3\n        /* \"#utility.yul\":12172:12173   */\n      0x02\n        /* \"#utility.yul\":12168:12179   */\n      mul\n        /* \"#utility.yul\":12162:12166   */\n      dup3\n        /* \"#utility.yul\":12159:12180   */\n      or\n        /* \"#utility.yul\":12151:12180   */\n      swap1\n      pop\n        /* \"#utility.yul\":11891:12186   */\n      swap3\n      swap2\n      pop\n      pop\n      jump\t// out\n        /* \"#utility.yul\":12191:13586   */\n    tag_57:\n        /* \"#utility.yul\":12308:12345   */\n      tag_240\n        /* \"#utility.yul\":12341:12344   */\n      dup3\n        /* \"#utility.yul\":12308:12345   */\n      tag_60\n      jump\t// in\n    tag_240:\n        /* \"#utility.yul\":12410:12428   */\n      0xffffffffffffffff\n        /* \"#utility.yul\":12402:12408   */\n      dup2\n        /* \"#utility.yul\":12399:12429   */\n      gt\n        /* \"#utility.yul\":12396:12452   */\n      iszero\n      tag_241\n      jumpi\n        /* \"#utility.yul\":12432:12450   */\n      tag_242\n      tag_82\n      jump\t// in\n    tag_242:\n        /* \"#utility.yul\":12396:12452   */\n    tag_241:\n        /* \"#utility.yul\":12476:12514   */\n      tag_243\n        /* \"#utility.yul\":12508:12512   */\n      dup3\n        /* \"#utility.yul\":12502:12513   */\n      sload\n        /* \"#utility.yul\":12476:12514   */\n      tag_25\n      jump\t// in\n    tag_243:\n        /* \"#utility.yul\":12561:12628   */\n      tag_244\n        /* \"#utility.yul\":12621:12627   */\n      dup3\n        /* \"#utility.yul\":12613:12619   */\n      dup3\n        /* \"#utility.yul\":12607:12611   */\n      dup6\n        /* \"#utility.yul\":12561:12628   */\n      tag_103\n      jump\t// in\n    tag_244:\n        /* \"#utility.yul\":12655:12656   */\n      0x00\n        /* \"#utility.yul\":12679:12683   */\n      0x20\n        /* \"#utility.yul\":12666:12683   */\n      swap1\n      pop\n        /* \"#utility.yul\":12711:12713   */\n      0x1f\n        /* \"#utility.yul\":12703:12709   */\n      dup4\n        /* \"#utility.yul\":12700:12714   */\n      gt\n        /* \"#utility.yul\":12728:12729   */\n      0x01\n        /* \"#utility.yul\":12723:13341   */\n      dup2\n      eq\n      tag_246\n      jumpi\n        /* \"#utility.yul\":13385:13386   */\n      0x00\n        /* \"#utility.yul\":13402:13408   */\n      dup5\n        /* \"#utility.yul\":13399:13476   */\n      iszero\n      tag_247\n      jumpi\n        /* \"#utility.yul\":13451:13460   */\n      dup3\n        /* \"#utility.yul\":13446:13449   */\n      dup8\n        /* \"#utility.yul\":13442:13461   */\n      add\n        /* \"#utility.yul\":13436:13462   */\n      mload\n        /* \"#utility.yul\":13427:13462   */\n      swap1\n      pop\n        /* \"#utility.yul\":13399:13476   */\n    tag_247:\n        /* \"#utility.yul\":13502:13569   */\n      tag_248\n        /* \"#utility.yul\":13562:13568   */\n      dup6\n        /* \"#utility.yul\":13555:13560   */\n      dup3\n        /* \"#utility.yul\":13502:13569   */\n      tag_106\n      jump\t// in\n    tag_248:\n        /* \"#utility.yul\":13496:13500   */\n      dup7\n        /* \"#utility.yul\":13489:13570   */\n      sstore\n        /* \"#utility.yul\":13358:13580   */\n      pop\n        /* \"#utility.yul\":12693:13580   */\n      jump(tag_245)\n        /* \"#utility.yul\":12723:13341   */\n    tag_246:\n        /* \"#utility.yul\":12775:12779   */\n      0x1f\n        /* \"#utility.yul\":12771:12780   */\n      not\n        /* \"#utility.yul\":12763:12769   */\n      dup5\n        /* \"#utility.yul\":12759:12781   */\n      and\n        /* \"#utility.yul\":12809:12846   */\n      tag_249\n        /* \"#utility.yul\":12841:12845   */\n      dup7\n        /* \"#utility.yul\":12809:12846   */\n      tag_92\n      jump\t// in\n    tag_249:\n        /* \"#utility.yul\":12868:12869   */\n      0x00\n        /* \"#utility.yul\":12882:13090   */\n    tag_250:\n        /* \"#utility.yul\":12896:12903   */\n      dup3\n        /* \"#utility.yul\":12893:12894   */\n      dup2\n        /* \"#utility.yul\":12890:12904   */\n      lt\n        /* \"#utility.yul\":12882:13090   */\n      iszero\n      tag_252\n      jumpi\n        /* \"#utility.yul\":12975:12984   */\n      dup5\n        /* \"#utility.yul\":12970:12973   */\n      dup10\n        /* \"#utility.yul\":12966:12985   */\n      add\n        /* \"#utility.yul\":12960:12986   */\n      mload\n        /* \"#utility.yul\":12952:12958   */\n      dup3\n        /* \"#utility.yul\":12945:12987   */\n      sstore\n        /* \"#utility.yul\":13026:13027   */\n      0x01\n        /* \"#utility.yul\":13018:13024   */\n      dup3\n        /* \"#utility.yul\":13014:13028   */\n      add\n        /* \"#utility.yul\":13004:13028   */\n      swap2\n      pop\n        /* \"#utility.yul\":13073:13075   */\n      0x20\n        /* \"#utility.yul\":13062:13071   */\n      dup6\n        /* \"#utility.yul\":13058:13076   */\n      add\n        /* \"#utility.yul\":13045:13076   */\n      swap5\n      pop\n        /* \"#utility.yul\":12919:12923   */\n      0x20\n        /* \"#utility.yul\":12916:12917   */\n      dup2\n        /* \"#utility.yul\":12912:12924   */\n      add\n        /* \"#utility.yul\":12907:12924   */\n      swap1\n      pop\n        /* \"#utility.yul\":12882:13090   */\n      jump(tag_250)\n    tag_252:\n        /* \"#utility.yul\":13118:13124   */\n      dup7\n        /* \"#utility.yul\":13109:13116   */\n      dup4\n        /* \"#utility.yul\":13106:13125   */\n      lt\n        /* \"#utility.yul\":13103:13282   */\n      iszero\n      tag_253\n      jumpi\n        /* \"#utility.yul\":13176:13185   */\n      dup5\n        /* \"#utility.yul\":13171:13174   */\n      dup10\n        /* \"#utility.yul\":13167:13186   */\n      add\n        /* \"#utility.yul\":13161:13187   */\n      mload\n        /* \"#utility.yul\":13219:13267   */\n      tag_254\n        /* \"#utility.yul\":13261:13265   */\n      0x1f\n        /* \"#utility.yul\":13253:13259   */\n      dup10\n        /* \"#utility.yul\":13249:13266   */\n      and\n        /* \"#utility.yul\":13238:13247   */\n      dup3\n        /* \"#utility.yul\":13219:13267   */\n      tag_105\n      jump\t// in\n    tag_254:\n        /* \"#utility.yul\":13211:13217   */\n      dup4\n        /* \"#utility.yul\":13204:13268   */\n      sstore\n        /* \"#utility.yul\":13126:13282   */\n      pop\n        /* \"#utility.yul\":13103:13282   */\n    tag_253:\n        /* \"#utility.yul\":13328:13329   */\n      0x01\n        /* \"#utility.yul\":13324:13325   */\n      0x02\n        /* \"#utility.yul\":13316:13322   */\n      dup9\n        /* \"#utility.yul\":13312:13326   */\n      mul\n        /* \"#utility.yul\":13308:13330   */\n      add\n        /* \"#utility.yul\":13302:13306   */\n      dup9\n        /* \"#utility.yul\":13295:13331   */\n      sstore\n        /* \"#utility.yul\":12730:13341   */\n      pop\n      pop\n      pop\n        /* \"#utility.yul\":12693:13580   */\n    tag_245:\n      pop\n        /* \"#utility.yul\":12283:13586   */\n      pop\n      pop\n      pop\n        /* \"#utility.yul\":12191:13586   */\n      pop\n      pop\n      jump\t// out\n\n    auxdata: 0xa2646970667358221220ce4b1ceb84e7387856ff6c95695e5d2af17b3a123959ad4afe44023a463e7d1b64736f6c634300081a0033\n}\n",
				"bytecode": {
					"linkReferences": {},
					"object": "60806040526040518060400160405280600f81526020017f4920616d204164697479612052616a00000000000000000000000000000000008152505f908161004791906104eb565b50348015610053575f80fd5b5060018060018154018082558091505060019003905f5260205f20015f6040518060400160405280600a81526020017f426c6f636b636861696e00000000000000000000000000000000000000000000815250909190915090816100b791906104eb565b5060018060018154018082558091505060019003905f5260205f20015f6040518060400160405280600881526020017f457468657265756d0000000000000000000000000000000000000000000000008152509091909150908161011b91906104eb565b5060018060018154018082558091505060019003905f5260205f20015f6040518060400160405280600881526020017f506f6c6b61646f740000000000000000000000000000000000000000000000008152509091909150908161017f91906104eb565b5060018060018154018082558091505060019003905f5260205f20015f6040518060400160405280600a81526020017f4164697479614661726d00000000000000000000000000000000000000000000815250909190915090816101e391906104eb565b5060018060018154018082558091505060019003905f5260205f20015f6040518060400160405280600781526020017f4269746324696e000000000000000000000000000000000000000000000000008152509091909150908161024791906104eb565b5060018060018154018082558091505060019003905f5260205f20015f6040518060400160405280600681526020017f536f6c616e610000000000000000000000000000000000000000000000000000815250909190915090816102ab91906104eb565b506105ba565b5f81519050919050565b7f4e487b71000000000000000000000000000000000000000000000000000000005f52604160045260245ffd5b7f4e487b71000000000000000000000000000000000000000000000000000000005f52602260045260245ffd5b5f600282049050600182168061032c57607f821691505b60208210810361033f5761033e6102e8565b5b50919050565b5f819050815f5260205f209050919050565b5f6020601f8301049050919050565b5f82821b905092915050565b5f600883026103a17fffffffffffffffffffffffffffffffffffffffffffffffffffffffffffffffff82610366565b6103ab8683610366565b95508019841693508086168417925050509392505050565b5f819050919050565b5f819050919050565b5f6103ef6103ea6103e5846103c3565b6103cc565b6103c3565b9050919050565b5f819050919050565b610408836103d5565b61041c610414826103f6565b848454610372565b825550505050565b5f90565b610430610424565b61043b8184846103ff565b505050565b5b8181101561045e576104535f82610428565b600181019050610441565b5050565b601f8211156104a35761047481610345565b61047d84610357565b8101602085101561048c578190505b6104a061049885610357565b830182610440565b50505b505050565b5f82821c905092915050565b5f6104c35f19846008026104a8565b1980831691505092915050565b5f6104db83836104b4565b9150826002028217905092915050565b6104f4826102b1565b67ffffffffffffffff81111561050d5761050c6102bb565b5b6105178254610315565b610522828285610462565b5f60209050601f831160018114610553575f8415610541578287015190505b61054b85826104d0565b8655506105b2565b601f19841661056186610345565b5f5b8281101561058857848901518255600182019150602085019450602081019050610563565b868310156105a557848901516105a1601f8916826104b4565b8355505b6001600288020188555050505b505050505050565b610b0e806105c75f395ff3fe608060405234801561000f575f80fd5b506004361061004a575f3560e01c806373d4a13a1461004e578063de77a97d1461006c578063f5d021491461008d578063fd1ee54c146100a9575b5f80fd5b6100566100d9565b6040516100639190610461565b60405180910390f35b610074610164565b60405161008494939291906105b6565b60405180910390f35b6100a760048036038101906100a29190610744565b6102d5565b005b6100c360048036038101906100be91906107e4565b6102e3565b6040516100d09190610461565b60405180910390f35b5f80546100e59061083c565b80601f01602080910402602001604051908101604052809291908181526020018280546101119061083c565b801561015c5780601f106101335761010080835404028352916020019161015c565b820191905f5260205f20905b81548152906001019060200180831161013f57829003601f168201915b505050505081565b5f806060806001805f600181805461017b9061083c565b80601f01602080910402602001604051908101604052809291908181526020018280546101a79061083c565b80156101f25780601f106101c9576101008083540402835291602001916101f2565b820191905f5260205f20905b8154815290600101906020018083116101d557829003601f168201915b5050505050915080805480602002602001604051908101604052809291908181526020015f905b828210156102c1578382905f5260205f200180546102369061083c565b80601f01602080910402602001604051908101604052809291908181526020018280546102629061083c565b80156102ad5780601f10610284576101008083540402835291602001916102ad565b820191905f5260205f20905b81548152906001019060200180831161029057829003601f168201915b505050505081526020019060010190610219565b505050509050935093509350935090919293565b6102df8282610389565b5050565b600181815481106102f2575f80fd5b905f5260205f20015f91509050805461030a9061083c565b80601f01602080910402602001604051908101604052809291908181526020018280546103369061083c565b80156103815780601f1061035857610100808354040283529160200191610381565b820191905f5260205f20905b81548152906001019060200180831161036457829003601f168201915b505050505081565b600182908060018154018082558091505060019003905f5260205f20015f9091909190915090816103ba9190610a09565b50600181908060018154018082558091505060019003905f5260205f20015f9091909190915090816103ec9190610a09565b505050565b5f81519050919050565b5f82825260208201905092915050565b8281835e5f83830152505050565b5f601f19601f8301169050919050565b5f610433826103f1565b61043d81856103fb565b935061044d81856020860161040b565b61045681610419565b840191505092915050565b5f6020820190508181035f8301526104798184610429565b905092915050565b5f819050919050565b61049381610481565b82525050565b5f8115159050919050565b6104ad81610499565b82525050565b5f81519050919050565b5f82825260208201905092915050565b5f819050602082019050919050565b5f82825260208201905092915050565b5f6104f6826103f1565b61050081856104dc565b935061051081856020860161040b565b61051981610419565b840191505092915050565b5f61052f83836104ec565b905092915050565b5f602082019050919050565b5f61054d826104b3565b61055781856104bd565b935083602082028501610569856104cd565b805f5b858110156105a457848403895281516105858582610524565b945061059083610537565b925060208a0199505060018101905061056c565b50829750879550505050505092915050565b5f6080820190506105c95f83018761048a565b6105d660208301866104a4565b81810360408301526105e88185610429565b905081810360608301526105fc8184610543565b905095945050505050565b5f604051905090565b5f80fd5b5f80fd5b5f80fd5b5f80fd5b7f4e487b71000000000000000000000000000000000000000000000000000000005f52604160045260245ffd5b61065682610419565b810181811067ffffffffffffffff8211171561067557610674610620565b5b80604052505050565b5f610687610607565b9050610693828261064d565b919050565b5f67ffffffffffffffff8211156106b2576106b1610620565b5b6106bb82610419565b9050602081019050919050565b828183375f83830152505050565b5f6106e86106e384610698565b61067e565b9050828152602081018484840111156107045761070361061c565b5b61070f8482856106c8565b509392505050565b5f82601f83011261072b5761072a610618565b5b813561073b8482602086016106d6565b91505092915050565b5f806040838503121561075a57610759610610565b5b5f83013567ffffffffffffffff81111561077757610776610614565b5b61078385828601610717565b925050602083013567ffffffffffffffff8111156107a4576107a3610614565b5b6107b085828601610717565b9150509250929050565b6107c381610481565b81146107cd575f80fd5b50565b5f813590506107de816107ba565b92915050565b5f602082840312156107f9576107f8610610565b5b5f610806848285016107d0565b91505092915050565b7f4e487b71000000000000000000000000000000000000000000000000000000005f52602260045260245ffd5b5f600282049050600182168061085357607f821691505b6020821081036108665761086561080f565b5b50919050565b5f819050815f5260205f209050919050565b5f6020601f8301049050919050565b5f82821b905092915050565b5f600883026108c87fffffffffffffffffffffffffffffffffffffffffffffffffffffffffffffffff8261088d565b6108d2868361088d565b95508019841693508086168417925050509392505050565b5f819050919050565b5f61090d61090861090384610481565b6108ea565b610481565b9050919050565b5f819050919050565b610926836108f3565b61093a61093282610914565b848454610899565b825550505050565b5f90565b61094e610942565b61095981848461091d565b505050565b5b8181101561097c576109715f82610946565b60018101905061095f565b5050565b601f8211156109c1576109928161086c565b61099b8461087e565b810160208510156109aa578190505b6109be6109b68561087e565b83018261095e565b50505b505050565b5f82821c905092915050565b5f6109e15f19846008026109c6565b1980831691505092915050565b5f6109f983836109d2565b9150826002028217905092915050565b610a12826103f1565b67ffffffffffffffff811115610a2b57610a2a610620565b5b610a35825461083c565b610a40828285610980565b5f60209050601f831160018114610a71575f8415610a5f578287015190505b610a6985826109ee565b865550610ad0565b601f198416610a7f8661086c565b5f5b82811015610aa657848901518255600182019150602085019450602081019050610a81565b86831015610ac35784890151610abf601f8916826109d2565b8355505b6001600288020188555050505b50505050505056fea2646970667358221220ce4b1ceb84e7387856ff6c95695e5d2af17b3a123959ad4afe44023a463e7d1b64736f6c634300081a0033",
					"opcodes": "PUSH1 0x80 PUSH1 0x40 MSTORE PUSH1 0x40 MLOAD DUP1 PUSH1 0x40 ADD PUSH1 0x40 MSTORE DUP1 PUSH1 0xF DUP2 MSTORE PUSH1 0x20 ADD PUSH32 0x4920616D204164697479612052616A0000000000000000000000000000000000 DUP2 MSTORE POP PUSH0 SWAP1 DUP2 PUSH2 0x47 SWAP2 SWAP1 PUSH2 0x4EB JUMP JUMPDEST POP CALLVALUE DUP1 ISZERO PUSH2 0x53 JUMPI PUSH0 DUP1 REVERT JUMPDEST POP PUSH1 0x1 DUP1 PUSH1 0x1 DUP2 SLOAD ADD DUP1 DUP3 SSTORE DUP1 SWAP2 POP POP PUSH1 0x1 SWAP1 SUB SWAP1 PUSH0 MSTORE PUSH1 0x20 PUSH0 KECCAK256 ADD PUSH0 PUSH1 0x40 MLOAD DUP1 PUSH1 0x40 ADD PUSH1 0x40 MSTORE DUP1 PUSH1 0xA DUP2 MSTORE PUSH1 0x20 ADD PUSH32 0x426C6F636B636861696E00000000000000000000000000000000000000000000 DUP2 MSTORE POP SWAP1 SWAP2 SWAP1 SWAP2 POP SWAP1 DUP2 PUSH2 0xB7 SWAP2 SWAP1 PUSH2 0x4EB JUMP JUMPDEST POP PUSH1 0x1 DUP1 PUSH1 0x1 DUP2 SLOAD ADD DUP1 DUP3 SSTORE DUP1 SWAP2 POP POP PUSH1 0x1 SWAP1 SUB SWAP1 PUSH0 MSTORE PUSH1 0x20 PUSH0 KECCAK256 ADD PUSH0 PUSH1 0x40 MLOAD DUP1 PUSH1 0x40 ADD PUSH1 0x40 MSTORE DUP1 PUSH1 0x8 DUP2 MSTORE PUSH1 0x20 ADD PUSH32 0x457468657265756D000000000000000000000000000000000000000000000000 DUP2 MSTORE POP SWAP1 SWAP2 SWAP1 SWAP2 POP SWAP1 DUP2 PUSH2 0x11B SWAP2 SWAP1 PUSH2 0x4EB JUMP JUMPDEST POP PUSH1 0x1 DUP1 PUSH1 0x1 DUP2 SLOAD ADD DUP1 DUP3 SSTORE DUP1 SWAP2 POP POP PUSH1 0x1 SWAP1 SUB SWAP1 PUSH0 MSTORE PUSH1 0x20 PUSH0 KECCAK256 ADD PUSH0 PUSH1 0x40 MLOAD DUP1 PUSH1 0x40 ADD PUSH1 0x40 MSTORE DUP1 PUSH1 0x8 DUP2 MSTORE PUSH1 0x20 ADD PUSH32 0x506F6C6B61646F74000000000000000000000000000000000000000000000000 DUP2 MSTORE POP SWAP1 SWAP2 SWAP1 SWAP2 POP SWAP1 DUP2 PUSH2 0x17F SWAP2 SWAP1 PUSH2 0x4EB JUMP JUMPDEST POP PUSH1 0x1 DUP1 PUSH1 0x1 DUP2 SLOAD ADD DUP1 DUP3 SSTORE DUP1 SWAP2 POP POP PUSH1 0x1 SWAP1 SUB SWAP1 PUSH0 MSTORE PUSH1 0x20 PUSH0 KECCAK256 ADD PUSH0 PUSH1 0x40 MLOAD DUP1 PUSH1 0x40 ADD PUSH1 0x40 MSTORE DUP1 PUSH1 0xA DUP2 MSTORE PUSH1 0x20 ADD PUSH32 0x4164697479614661726D00000000000000000000000000000000000000000000 DUP2 MSTORE POP SWAP1 SWAP2 SWAP1 SWAP2 POP SWAP1 DUP2 PUSH2 0x1E3 SWAP2 SWAP1 PUSH2 0x4EB JUMP JUMPDEST POP PUSH1 0x1 DUP1 PUSH1 0x1 DUP2 SLOAD ADD DUP1 DUP3 SSTORE DUP1 SWAP2 POP POP PUSH1 0x1 SWAP1 SUB SWAP1 PUSH0 MSTORE PUSH1 0x20 PUSH0 KECCAK256 ADD PUSH0 PUSH1 0x40 MLOAD DUP1 PUSH1 0x40 ADD PUSH1 0x40 MSTORE DUP1 PUSH1 0x7 DUP2 MSTORE PUSH1 0x20 ADD PUSH32 0x4269746324696E00000000000000000000000000000000000000000000000000 DUP2 MSTORE POP SWAP1 SWAP2 SWAP1 SWAP2 POP SWAP1 DUP2 PUSH2 0x247 SWAP2 SWAP1 PUSH2 0x4EB JUMP JUMPDEST POP PUSH1 0x1 DUP1 PUSH1 0x1 DUP2 SLOAD ADD DUP1 DUP3 SSTORE DUP1 SWAP2 POP POP PUSH1 0x1 SWAP1 SUB SWAP1 PUSH0 MSTORE PUSH1 0x20 PUSH0 KECCAK256 ADD PUSH0 PUSH1 0x40 MLOAD DUP1 PUSH1 0x40 ADD PUSH1 0x40 MSTORE DUP1 PUSH1 0x6 DUP2 MSTORE PUSH1 0x20 ADD PUSH32 0x536F6C616E610000000000000000000000000000000000000000000000000000 DUP2 MSTORE POP SWAP1 SWAP2 SWAP1 SWAP2 POP SWAP1 DUP2 PUSH2 0x2AB SWAP2 SWAP1 PUSH2 0x4EB JUMP JUMPDEST POP PUSH2 0x5BA JUMP JUMPDEST PUSH0 DUP2 MLOAD SWAP1 POP SWAP2 SWAP1 POP JUMP JUMPDEST PUSH32 0x4E487B7100000000000000000000000000000000000000000000000000000000 PUSH0 MSTORE PUSH1 0x41 PUSH1 0x4 MSTORE PUSH1 0x24 PUSH0 REVERT JUMPDEST PUSH32 0x4E487B7100000000000000000000000000000000000000000000000000000000 PUSH0 MSTORE PUSH1 0x22 PUSH1 0x4 MSTORE PUSH1 0x24 PUSH0 REVERT JUMPDEST PUSH0 PUSH1 0x2 DUP3 DIV SWAP1 POP PUSH1 0x1 DUP3 AND DUP1 PUSH2 0x32C JUMPI PUSH1 0x7F DUP3 AND SWAP2 POP JUMPDEST PUSH1 0x20 DUP3 LT DUP2 SUB PUSH2 0x33F JUMPI PUSH2 0x33E PUSH2 0x2E8 JUMP JUMPDEST JUMPDEST POP SWAP2 SWAP1 POP JUMP JUMPDEST PUSH0 DUP2 SWAP1 POP DUP2 PUSH0 MSTORE PUSH1 0x20 PUSH0 KECCAK256 SWAP1 POP SWAP2 SWAP1 POP JUMP JUMPDEST PUSH0 PUSH1 0x20 PUSH1 0x1F DUP4 ADD DIV SWAP1 POP SWAP2 SWAP1 POP JUMP JUMPDEST PUSH0 DUP3 DUP3 SHL SWAP1 POP SWAP3 SWAP2 POP POP JUMP JUMPDEST PUSH0 PUSH1 0x8 DUP4 MUL PUSH2 0x3A1 PUSH32 0xFFFFFFFFFFFFFFFFFFFFFFFFFFFFFFFFFFFFFFFFFFFFFFFFFFFFFFFFFFFFFFFF DUP3 PUSH2 0x366 JUMP JUMPDEST PUSH2 0x3AB DUP7 DUP4 PUSH2 0x366 JUMP JUMPDEST SWAP6 POP DUP1 NOT DUP5 AND SWAP4 POP DUP1 DUP7 AND DUP5 OR SWAP3 POP POP POP SWAP4 SWAP3 POP POP POP JUMP JUMPDEST PUSH0 DUP2 SWAP1 POP SWAP2 SWAP1 POP JUMP JUMPDEST PUSH0 DUP2 SWAP1 POP SWAP2 SWAP1 POP JUMP JUMPDEST PUSH0 PUSH2 0x3EF PUSH2 0x3EA PUSH2 0x3E5 DUP5 PUSH2 0x3C3 JUMP JUMPDEST PUSH2 0x3CC JUMP JUMPDEST PUSH2 0x3C3 JUMP JUMPDEST SWAP1 POP SWAP2 SWAP1 POP JUMP JUMPDEST PUSH0 DUP2 SWAP1 POP SWAP2 SWAP1 POP JUMP JUMPDEST PUSH2 0x408 DUP4 PUSH2 0x3D5 JUMP JUMPDEST PUSH2 0x41C PUSH2 0x414 DUP3 PUSH2 0x3F6 JUMP JUMPDEST DUP5 DUP5 SLOAD PUSH2 0x372 JUMP JUMPDEST DUP3 SSTORE POP POP POP POP JUMP JUMPDEST PUSH0 SWAP1 JUMP JUMPDEST PUSH2 0x430 PUSH2 0x424 JUMP JUMPDEST PUSH2 0x43B DUP2 DUP5 DUP5 PUSH2 0x3FF JUMP JUMPDEST POP POP POP JUMP JUMPDEST JUMPDEST DUP2 DUP2 LT ISZERO PUSH2 0x45E JUMPI PUSH2 0x453 PUSH0 DUP3 PUSH2 0x428 JUMP JUMPDEST PUSH1 0x1 DUP2 ADD SWAP1 POP PUSH2 0x441 JUMP JUMPDEST POP POP JUMP JUMPDEST PUSH1 0x1F DUP3 GT ISZERO PUSH2 0x4A3 JUMPI PUSH2 0x474 DUP2 PUSH2 0x345 JUMP JUMPDEST PUSH2 0x47D DUP5 PUSH2 0x357 JUMP JUMPDEST DUP2 ADD PUSH1 0x20 DUP6 LT ISZERO PUSH2 0x48C JUMPI DUP2 SWAP1 POP JUMPDEST PUSH2 0x4A0 PUSH2 0x498 DUP6 PUSH2 0x357 JUMP JUMPDEST DUP4 ADD DUP3 PUSH2 0x440 JUMP JUMPDEST POP POP JUMPDEST POP POP POP JUMP JUMPDEST PUSH0 DUP3 DUP3 SHR SWAP1 POP SWAP3 SWAP2 POP POP JUMP JUMPDEST PUSH0 PUSH2 0x4C3 PUSH0 NOT DUP5 PUSH1 0x8 MUL PUSH2 0x4A8 JUMP JUMPDEST NOT DUP1 DUP4 AND SWAP2 POP POP SWAP3 SWAP2 POP POP JUMP JUMPDEST PUSH0 PUSH2 0x4DB DUP4 DUP4 PUSH2 0x4B4 JUMP JUMPDEST SWAP2 POP DUP3 PUSH1 0x2 MUL DUP3 OR SWAP1 POP SWAP3 SWAP2 POP POP JUMP JUMPDEST PUSH2 0x4F4 DUP3 PUSH2 0x2B1 JUMP JUMPDEST PUSH8 0xFFFFFFFFFFFFFFFF DUP2 GT ISZERO PUSH2 0x50D JUMPI PUSH2 0x50C PUSH2 0x2BB JUMP JUMPDEST JUMPDEST PUSH2 0x517 DUP3 SLOAD PUSH2 0x315 JUMP JUMPDEST PUSH2 0x522 DUP3 DUP3 DUP6 PUSH2 0x462 JUMP JUMPDEST PUSH0 PUSH1 0x20 SWAP1 POP PUSH1 0x1F DUP4 GT PUSH1 0x1 DUP2 EQ PUSH2 0x553 JUMPI PUSH0 DUP5 ISZERO PUSH2 0x541 JUMPI DUP3 DUP8 ADD MLOAD SWAP1 POP JUMPDEST PUSH2 0x54B DUP6 DUP3 PUSH2 0x4D0 JUMP JUMPDEST DUP7 SSTORE POP PUSH2 0x5B2 JUMP JUMPDEST PUSH1 0x1F NOT DUP5 AND PUSH2 0x561 DUP7 PUSH2 0x345 JUMP JUMPDEST PUSH0 JUMPDEST DUP3 DUP2 LT ISZERO PUSH2 0x588 JUMPI DUP5 DUP10 ADD MLOAD DUP3 SSTORE PUSH1 0x1 DUP3 ADD SWAP2 POP PUSH1 0x20 DUP6 ADD SWAP5 POP PUSH1 0x20 DUP2 ADD SWAP1 POP PUSH2 0x563 JUMP JUMPDEST DUP7 DUP4 LT ISZERO PUSH2 0x5A5 JUMPI DUP5 DUP10 ADD MLOAD PUSH2 0x5A1 PUSH1 0x1F DUP10 AND DUP3 PUSH2 0x4B4 JUMP JUMPDEST DUP4 SSTORE POP JUMPDEST PUSH1 0x1 PUSH1 0x2 DUP9 MUL ADD DUP9 SSTORE POP POP POP JUMPDEST POP POP POP POP POP POP JUMP JUMPDEST PUSH2 0xB0E DUP1 PUSH2 0x5C7 PUSH0 CODECOPY PUSH0 RETURN INVALID PUSH1 0x80 PUSH1 0x40 MSTORE CALLVALUE DUP1 ISZERO PUSH2 0xF JUMPI PUSH0 DUP1 REVERT JUMPDEST POP PUSH1 0x4 CALLDATASIZE LT PUSH2 0x4A JUMPI PUSH0 CALLDATALOAD PUSH1 0xE0 SHR DUP1 PUSH4 0x73D4A13A EQ PUSH2 0x4E JUMPI DUP1 PUSH4 0xDE77A97D EQ PUSH2 0x6C JUMPI DUP1 PUSH4 0xF5D02149 EQ PUSH2 0x8D JUMPI DUP1 PUSH4 0xFD1EE54C EQ PUSH2 0xA9 JUMPI JUMPDEST PUSH0 DUP1 REVERT JUMPDEST PUSH2 0x56 PUSH2 0xD9 JUMP JUMPDEST PUSH1 0x40 MLOAD PUSH2 0x63 SWAP2 SWAP1 PUSH2 0x461 JUMP JUMPDEST PUSH1 0x40 MLOAD DUP1 SWAP2 SUB SWAP1 RETURN JUMPDEST PUSH2 0x74 PUSH2 0x164 JUMP JUMPDEST PUSH1 0x40 MLOAD PUSH2 0x84 SWAP5 SWAP4 SWAP3 SWAP2 SWAP1 PUSH2 0x5B6 JUMP JUMPDEST PUSH1 0x40 MLOAD DUP1 SWAP2 SUB SWAP1 RETURN JUMPDEST PUSH2 0xA7 PUSH1 0x4 DUP1 CALLDATASIZE SUB DUP2 ADD SWAP1 PUSH2 0xA2 SWAP2 SWAP1 PUSH2 0x744 JUMP JUMPDEST PUSH2 0x2D5 JUMP JUMPDEST STOP JUMPDEST PUSH2 0xC3 PUSH1 0x4 DUP1 CALLDATASIZE SUB DUP2 ADD SWAP1 PUSH2 0xBE SWAP2 SWAP1 PUSH2 0x7E4 JUMP JUMPDEST PUSH2 0x2E3 JUMP JUMPDEST PUSH1 0x40 MLOAD PUSH2 0xD0 SWAP2 SWAP1 PUSH2 0x461 JUMP JUMPDEST PUSH1 0x40 MLOAD DUP1 SWAP2 SUB SWAP1 RETURN JUMPDEST PUSH0 DUP1 SLOAD PUSH2 0xE5 SWAP1 PUSH2 0x83C JUMP JUMPDEST DUP1 PUSH1 0x1F ADD PUSH1 0x20 DUP1 SWAP2 DIV MUL PUSH1 0x20 ADD PUSH1 0x40 MLOAD SWAP1 DUP2 ADD PUSH1 0x40 MSTORE DUP1 SWAP3 SWAP2 SWAP1 DUP2 DUP2 MSTORE PUSH1 0x20 ADD DUP3 DUP1 SLOAD PUSH2 0x111 SWAP1 PUSH2 0x83C JUMP JUMPDEST DUP1 ISZERO PUSH2 0x15C JUMPI DUP1 PUSH1 0x1F LT PUSH2 0x133 JUMPI PUSH2 0x100 DUP1 DUP4 SLOAD DIV MUL DUP4 MSTORE SWAP2 PUSH1 0x20 ADD SWAP2 PUSH2 0x15C JUMP JUMPDEST DUP3 ADD SWAP2 SWAP1 PUSH0 MSTORE PUSH1 0x20 PUSH0 KECCAK256 SWAP1 JUMPDEST DUP2 SLOAD DUP2 MSTORE SWAP1 PUSH1 0x1 ADD SWAP1 PUSH1 0x20 ADD DUP1 DUP4 GT PUSH2 0x13F JUMPI DUP3 SWAP1 SUB PUSH1 0x1F AND DUP3 ADD SWAP2 JUMPDEST POP POP POP POP POP DUP2 JUMP JUMPDEST PUSH0 DUP1 PUSH1 0x60 DUP1 PUSH1 0x1 DUP1 PUSH0 PUSH1 0x1 DUP2 DUP1 SLOAD PUSH2 0x17B SWAP1 PUSH2 0x83C JUMP JUMPDEST DUP1 PUSH1 0x1F ADD PUSH1 0x20 DUP1 SWAP2 DIV MUL PUSH1 0x20 ADD PUSH1 0x40 MLOAD SWAP1 DUP2 ADD PUSH1 0x40 MSTORE DUP1 SWAP3 SWAP2 SWAP1 DUP2 DUP2 MSTORE PUSH1 0x20 ADD DUP3 DUP1 SLOAD PUSH2 0x1A7 SWAP1 PUSH2 0x83C JUMP JUMPDEST DUP1 ISZERO PUSH2 0x1F2 JUMPI DUP1 PUSH1 0x1F LT PUSH2 0x1C9 JUMPI PUSH2 0x100 DUP1 DUP4 SLOAD DIV MUL DUP4 MSTORE SWAP2 PUSH1 0x20 ADD SWAP2 PUSH2 0x1F2 JUMP JUMPDEST DUP3 ADD SWAP2 SWAP1 PUSH0 MSTORE PUSH1 0x20 PUSH0 KECCAK256 SWAP1 JUMPDEST DUP2 SLOAD DUP2 MSTORE SWAP1 PUSH1 0x1 ADD SWAP1 PUSH1 0x20 ADD DUP1 DUP4 GT PUSH2 0x1D5 JUMPI DUP3 SWAP1 SUB PUSH1 0x1F AND DUP3 ADD SWAP2 JUMPDEST POP POP POP POP POP SWAP2 POP DUP1 DUP1 SLOAD DUP1 PUSH1 0x20 MUL PUSH1 0x20 ADD PUSH1 0x40 MLOAD SWAP1 DUP2 ADD PUSH1 0x40 MSTORE DUP1 SWAP3 SWAP2 SWAP1 DUP2 DUP2 MSTORE PUSH1 0x20 ADD PUSH0 SWAP1 JUMPDEST DUP3 DUP3 LT ISZERO PUSH2 0x2C1 JUMPI DUP4 DUP3 SWAP1 PUSH0 MSTORE PUSH1 0x20 PUSH0 KECCAK256 ADD DUP1 SLOAD PUSH2 0x236 SWAP1 PUSH2 0x83C JUMP JUMPDEST DUP1 PUSH1 0x1F ADD PUSH1 0x20 DUP1 SWAP2 DIV MUL PUSH1 0x20 ADD PUSH1 0x40 MLOAD SWAP1 DUP2 ADD PUSH1 0x40 MSTORE DUP1 SWAP3 SWAP2 SWAP1 DUP2 DUP2 MSTORE PUSH1 0x20 ADD DUP3 DUP1 SLOAD PUSH2 0x262 SWAP1 PUSH2 0x83C JUMP JUMPDEST DUP1 ISZERO PUSH2 0x2AD JUMPI DUP1 PUSH1 0x1F LT PUSH2 0x284 JUMPI PUSH2 0x100 DUP1 DUP4 SLOAD DIV MUL DUP4 MSTORE SWAP2 PUSH1 0x20 ADD SWAP2 PUSH2 0x2AD JUMP JUMPDEST DUP3 ADD SWAP2 SWAP1 PUSH0 MSTORE PUSH1 0x20 PUSH0 KECCAK256 SWAP1 JUMPDEST DUP2 SLOAD DUP2 MSTORE SWAP1 PUSH1 0x1 ADD SWAP1 PUSH1 0x20 ADD DUP1 DUP4 GT PUSH2 0x290 JUMPI DUP3 SWAP1 SUB PUSH1 0x1F AND DUP3 ADD SWAP2 JUMPDEST POP POP POP POP POP DUP2 MSTORE PUSH1 0x20 ADD SWAP1 PUSH1 0x1 ADD SWAP1 PUSH2 0x219 JUMP JUMPDEST POP POP POP POP SWAP1 POP SWAP4 POP SWAP4 POP SWAP4 POP SWAP4 POP SWAP1 SWAP2 SWAP3 SWAP4 JUMP JUMPDEST PUSH2 0x2DF DUP3 DUP3 PUSH2 0x389 JUMP JUMPDEST POP POP JUMP JUMPDEST PUSH1 0x1 DUP2 DUP2 SLOAD DUP2 LT PUSH2 0x2F2 JUMPI PUSH0 DUP1 REVERT JUMPDEST SWAP1 PUSH0 MSTORE PUSH1 0x20 PUSH0 KECCAK256 ADD PUSH0 SWAP2 POP SWAP1 POP DUP1 SLOAD PUSH2 0x30A SWAP1 PUSH2 0x83C JUMP JUMPDEST DUP1 PUSH1 0x1F ADD PUSH1 0x20 DUP1 SWAP2 DIV MUL PUSH1 0x20 ADD PUSH1 0x40 MLOAD SWAP1 DUP2 ADD PUSH1 0x40 MSTORE DUP1 SWAP3 SWAP2 SWAP1 DUP2 DUP2 MSTORE PUSH1 0x20 ADD DUP3 DUP1 SLOAD PUSH2 0x336 SWAP1 PUSH2 0x83C JUMP JUMPDEST DUP1 ISZERO PUSH2 0x381 JUMPI DUP1 PUSH1 0x1F LT PUSH2 0x358 JUMPI PUSH2 0x100 DUP1 DUP4 SLOAD DIV MUL DUP4 MSTORE SWAP2 PUSH1 0x20 ADD SWAP2 PUSH2 0x381 JUMP JUMPDEST DUP3 ADD SWAP2 SWAP1 PUSH0 MSTORE PUSH1 0x20 PUSH0 KECCAK256 SWAP1 JUMPDEST DUP2 SLOAD DUP2 MSTORE SWAP1 PUSH1 0x1 ADD SWAP1 PUSH1 0x20 ADD DUP1 DUP4 GT PUSH2 0x364 JUMPI DUP3 SWAP1 SUB PUSH1 0x1F AND DUP3 ADD SWAP2 JUMPDEST POP POP POP POP POP DUP2 JUMP JUMPDEST PUSH1 0x1 DUP3 SWAP1 DUP1 PUSH1 0x1 DUP2 SLOAD ADD DUP1 DUP3 SSTORE DUP1 SWAP2 POP POP PUSH1 0x1 SWAP1 SUB SWAP1 PUSH0 MSTORE PUSH1 0x20 PUSH0 KECCAK256 ADD PUSH0 SWAP1 SWAP2 SWAP1 SWAP2 SWAP1 SWAP2 POP SWAP1 DUP2 PUSH2 0x3BA SWAP2 SWAP1 PUSH2 0xA09 JUMP JUMPDEST POP PUSH1 0x1 DUP2 SWAP1 DUP1 PUSH1 0x1 DUP2 SLOAD ADD DUP1 DUP3 SSTORE DUP1 SWAP2 POP POP PUSH1 0x1 SWAP1 SUB SWAP1 PUSH0 MSTORE PUSH1 0x20 PUSH0 KECCAK256 ADD PUSH0 SWAP1 SWAP2 SWAP1 SWAP2 SWAP1 SWAP2 POP SWAP1 DUP2 PUSH2 0x3EC SWAP2 SWAP1 PUSH2 0xA09 JUMP JUMPDEST POP POP POP JUMP JUMPDEST PUSH0 DUP2 MLOAD SWAP1 POP SWAP2 SWAP1 POP JUMP JUMPDEST PUSH0 DUP3 DUP3 MSTORE PUSH1 0x20 DUP3 ADD SWAP1 POP SWAP3 SWAP2 POP POP JUMP JUMPDEST DUP3 DUP2 DUP4 MCOPY PUSH0 DUP4 DUP4 ADD MSTORE POP POP POP JUMP JUMPDEST PUSH0 PUSH1 0x1F NOT PUSH1 0x1F DUP4 ADD AND SWAP1 POP SWAP2 SWAP1 POP JUMP JUMPDEST PUSH0 PUSH2 0x433 DUP3 PUSH2 0x3F1 JUMP JUMPDEST PUSH2 0x43D DUP2 DUP6 PUSH2 0x3FB JUMP JUMPDEST SWAP4 POP PUSH2 0x44D DUP2 DUP6 PUSH1 0x20 DUP7 ADD PUSH2 0x40B JUMP JUMPDEST PUSH2 0x456 DUP2 PUSH2 0x419 JUMP JUMPDEST DUP5 ADD SWAP2 POP POP SWAP3 SWAP2 POP POP JUMP JUMPDEST PUSH0 PUSH1 0x20 DUP3 ADD SWAP1 POP DUP2 DUP2 SUB PUSH0 DUP4 ADD MSTORE PUSH2 0x479 DUP2 DUP5 PUSH2 0x429 JUMP JUMPDEST SWAP1 POP SWAP3 SWAP2 POP POP JUMP JUMPDEST PUSH0 DUP2 SWAP1 POP SWAP2 SWAP1 POP JUMP JUMPDEST PUSH2 0x493 DUP2 PUSH2 0x481 JUMP JUMPDEST DUP3 MSTORE POP POP JUMP JUMPDEST PUSH0 DUP2 ISZERO ISZERO SWAP1 POP SWAP2 SWAP1 POP JUMP JUMPDEST PUSH2 0x4AD DUP2 PUSH2 0x499 JUMP JUMPDEST DUP3 MSTORE POP POP JUMP JUMPDEST PUSH0 DUP2 MLOAD SWAP1 POP SWAP2 SWAP1 POP JUMP JUMPDEST PUSH0 DUP3 DUP3 MSTORE PUSH1 0x20 DUP3 ADD SWAP1 POP SWAP3 SWAP2 POP POP JUMP JUMPDEST PUSH0 DUP2 SWAP1 POP PUSH1 0x20 DUP3 ADD SWAP1 POP SWAP2 SWAP1 POP JUMP JUMPDEST PUSH0 DUP3 DUP3 MSTORE PUSH1 0x20 DUP3 ADD SWAP1 POP SWAP3 SWAP2 POP POP JUMP JUMPDEST PUSH0 PUSH2 0x4F6 DUP3 PUSH2 0x3F1 JUMP JUMPDEST PUSH2 0x500 DUP2 DUP6 PUSH2 0x4DC JUMP JUMPDEST SWAP4 POP PUSH2 0x510 DUP2 DUP6 PUSH1 0x20 DUP7 ADD PUSH2 0x40B JUMP JUMPDEST PUSH2 0x519 DUP2 PUSH2 0x419 JUMP JUMPDEST DUP5 ADD SWAP2 POP POP SWAP3 SWAP2 POP POP JUMP JUMPDEST PUSH0 PUSH2 0x52F DUP4 DUP4 PUSH2 0x4EC JUMP JUMPDEST SWAP1 POP SWAP3 SWAP2 POP POP JUMP JUMPDEST PUSH0 PUSH1 0x20 DUP3 ADD SWAP1 POP SWAP2 SWAP1 POP JUMP JUMPDEST PUSH0 PUSH2 0x54D DUP3 PUSH2 0x4B3 JUMP JUMPDEST PUSH2 0x557 DUP2 DUP6 PUSH2 0x4BD JUMP JUMPDEST SWAP4 POP DUP4 PUSH1 0x20 DUP3 MUL DUP6 ADD PUSH2 0x569 DUP6 PUSH2 0x4CD JUMP JUMPDEST DUP1 PUSH0 JUMPDEST DUP6 DUP2 LT ISZERO PUSH2 0x5A4 JUMPI DUP5 DUP5 SUB DUP10 MSTORE DUP2 MLOAD PUSH2 0x585 DUP6 DUP3 PUSH2 0x524 JUMP JUMPDEST SWAP5 POP PUSH2 0x590 DUP4 PUSH2 0x537 JUMP JUMPDEST SWAP3 POP PUSH1 0x20 DUP11 ADD SWAP10 POP POP PUSH1 0x1 DUP2 ADD SWAP1 POP PUSH2 0x56C JUMP JUMPDEST POP DUP3 SWAP8 POP DUP8 SWAP6 POP POP POP POP POP POP SWAP3 SWAP2 POP POP JUMP JUMPDEST PUSH0 PUSH1 0x80 DUP3 ADD SWAP1 POP PUSH2 0x5C9 PUSH0 DUP4 ADD DUP8 PUSH2 0x48A JUMP JUMPDEST PUSH2 0x5D6 PUSH1 0x20 DUP4 ADD DUP7 PUSH2 0x4A4 JUMP JUMPDEST DUP2 DUP2 SUB PUSH1 0x40 DUP4 ADD MSTORE PUSH2 0x5E8 DUP2 DUP6 PUSH2 0x429 JUMP JUMPDEST SWAP1 POP DUP2 DUP2 SUB PUSH1 0x60 DUP4 ADD MSTORE PUSH2 0x5FC DUP2 DUP5 PUSH2 0x543 JUMP JUMPDEST SWAP1 POP SWAP6 SWAP5 POP POP POP POP POP JUMP JUMPDEST PUSH0 PUSH1 0x40 MLOAD SWAP1 POP SWAP1 JUMP JUMPDEST PUSH0 DUP1 REVERT JUMPDEST PUSH0 DUP1 REVERT JUMPDEST PUSH0 DUP1 REVERT JUMPDEST PUSH0 DUP1 REVERT JUMPDEST PUSH32 0x4E487B7100000000000000000000000000000000000000000000000000000000 PUSH0 MSTORE PUSH1 0x41 PUSH1 0x4 MSTORE PUSH1 0x24 PUSH0 REVERT JUMPDEST PUSH2 0x656 DUP3 PUSH2 0x419 JUMP JUMPDEST DUP2 ADD DUP2 DUP2 LT PUSH8 0xFFFFFFFFFFFFFFFF DUP3 GT OR ISZERO PUSH2 0x675 JUMPI PUSH2 0x674 PUSH2 0x620 JUMP JUMPDEST JUMPDEST DUP1 PUSH1 0x40 MSTORE POP POP POP JUMP JUMPDEST PUSH0 PUSH2 0x687 PUSH2 0x607 JUMP JUMPDEST SWAP1 POP PUSH2 0x693 DUP3 DUP3 PUSH2 0x64D JUMP JUMPDEST SWAP2 SWAP1 POP JUMP JUMPDEST PUSH0 PUSH8 0xFFFFFFFFFFFFFFFF DUP3 GT ISZERO PUSH2 0x6B2 JUMPI PUSH2 0x6B1 PUSH2 0x620 JUMP JUMPDEST JUMPDEST PUSH2 0x6BB DUP3 PUSH2 0x419 JUMP JUMPDEST SWAP1 POP PUSH1 0x20 DUP2 ADD SWAP1 POP SWAP2 SWAP1 POP JUMP JUMPDEST DUP3 DUP2 DUP4 CALLDATACOPY PUSH0 DUP4 DUP4 ADD MSTORE POP POP POP JUMP JUMPDEST PUSH0 PUSH2 0x6E8 PUSH2 0x6E3 DUP5 PUSH2 0x698 JUMP JUMPDEST PUSH2 0x67E JUMP JUMPDEST SWAP1 POP DUP3 DUP2 MSTORE PUSH1 0x20 DUP2 ADD DUP5 DUP5 DUP5 ADD GT ISZERO PUSH2 0x704 JUMPI PUSH2 0x703 PUSH2 0x61C JUMP JUMPDEST JUMPDEST PUSH2 0x70F DUP5 DUP3 DUP6 PUSH2 0x6C8 JUMP JUMPDEST POP SWAP4 SWAP3 POP POP POP JUMP JUMPDEST PUSH0 DUP3 PUSH1 0x1F DUP4 ADD SLT PUSH2 0x72B JUMPI PUSH2 0x72A PUSH2 0x618 JUMP JUMPDEST JUMPDEST DUP2 CALLDATALOAD PUSH2 0x73B DUP5 DUP3 PUSH1 0x20 DUP7 ADD PUSH2 0x6D6 JUMP JUMPDEST SWAP2 POP POP SWAP3 SWAP2 POP POP JUMP JUMPDEST PUSH0 DUP1 PUSH1 0x40 DUP4 DUP6 SUB SLT ISZERO PUSH2 0x75A JUMPI PUSH2 0x759 PUSH2 0x610 JUMP JUMPDEST JUMPDEST PUSH0 DUP4 ADD CALLDATALOAD PUSH8 0xFFFFFFFFFFFFFFFF DUP2 GT ISZERO PUSH2 0x777 JUMPI PUSH2 0x776 PUSH2 0x614 JUMP JUMPDEST JUMPDEST PUSH2 0x783 DUP6 DUP3 DUP7 ADD PUSH2 0x717 JUMP JUMPDEST SWAP3 POP POP PUSH1 0x20 DUP4 ADD CALLDATALOAD PUSH8 0xFFFFFFFFFFFFFFFF DUP2 GT ISZERO PUSH2 0x7A4 JUMPI PUSH2 0x7A3 PUSH2 0x614 JUMP JUMPDEST JUMPDEST PUSH2 0x7B0 DUP6 DUP3 DUP7 ADD PUSH2 0x717 JUMP JUMPDEST SWAP2 POP POP SWAP3 POP SWAP3 SWAP1 POP JUMP JUMPDEST PUSH2 0x7C3 DUP2 PUSH2 0x481 JUMP JUMPDEST DUP2 EQ PUSH2 0x7CD JUMPI PUSH0 DUP1 REVERT JUMPDEST POP JUMP JUMPDEST PUSH0 DUP2 CALLDATALOAD SWAP1 POP PUSH2 0x7DE DUP2 PUSH2 0x7BA JUMP JUMPDEST SWAP3 SWAP2 POP POP JUMP JUMPDEST PUSH0 PUSH1 0x20 DUP3 DUP5 SUB SLT ISZERO PUSH2 0x7F9 JUMPI PUSH2 0x7F8 PUSH2 0x610 JUMP JUMPDEST JUMPDEST PUSH0 PUSH2 0x806 DUP5 DUP3 DUP6 ADD PUSH2 0x7D0 JUMP JUMPDEST SWAP2 POP POP SWAP3 SWAP2 POP POP JUMP JUMPDEST PUSH32 0x4E487B7100000000000000000000000000000000000000000000000000000000 PUSH0 MSTORE PUSH1 0x22 PUSH1 0x4 MSTORE PUSH1 0x24 PUSH0 REVERT JUMPDEST PUSH0 PUSH1 0x2 DUP3 DIV SWAP1 POP PUSH1 0x1 DUP3 AND DUP1 PUSH2 0x853 JUMPI PUSH1 0x7F DUP3 AND SWAP2 POP JUMPDEST PUSH1 0x20 DUP3 LT DUP2 SUB PUSH2 0x866 JUMPI PUSH2 0x865 PUSH2 0x80F JUMP JUMPDEST JUMPDEST POP SWAP2 SWAP1 POP JUMP JUMPDEST PUSH0 DUP2 SWAP1 POP DUP2 PUSH0 MSTORE PUSH1 0x20 PUSH0 KECCAK256 SWAP1 POP SWAP2 SWAP1 POP JUMP JUMPDEST PUSH0 PUSH1 0x20 PUSH1 0x1F DUP4 ADD DIV SWAP1 POP SWAP2 SWAP1 POP JUMP JUMPDEST PUSH0 DUP3 DUP3 SHL SWAP1 POP SWAP3 SWAP2 POP POP JUMP JUMPDEST PUSH0 PUSH1 0x8 DUP4 MUL PUSH2 0x8C8 PUSH32 0xFFFFFFFFFFFFFFFFFFFFFFFFFFFFFFFFFFFFFFFFFFFFFFFFFFFFFFFFFFFFFFFF DUP3 PUSH2 0x88D JUMP JUMPDEST PUSH2 0x8D2 DUP7 DUP4 PUSH2 0x88D JUMP JUMPDEST SWAP6 POP DUP1 NOT DUP5 AND SWAP4 POP DUP1 DUP7 AND DUP5 OR SWAP3 POP POP POP SWAP4 SWAP3 POP POP POP JUMP JUMPDEST PUSH0 DUP2 SWAP1 POP SWAP2 SWAP1 POP JUMP JUMPDEST PUSH0 PUSH2 0x90D PUSH2 0x908 PUSH2 0x903 DUP5 PUSH2 0x481 JUMP JUMPDEST PUSH2 0x8EA JUMP JUMPDEST PUSH2 0x481 JUMP JUMPDEST SWAP1 POP SWAP2 SWAP1 POP JUMP JUMPDEST PUSH0 DUP2 SWAP1 POP SWAP2 SWAP1 POP JUMP JUMPDEST PUSH2 0x926 DUP4 PUSH2 0x8F3 JUMP JUMPDEST PUSH2 0x93A PUSH2 0x932 DUP3 PUSH2 0x914 JUMP JUMPDEST DUP5 DUP5 SLOAD PUSH2 0x899 JUMP JUMPDEST DUP3 SSTORE POP POP POP POP JUMP JUMPDEST PUSH0 SWAP1 JUMP JUMPDEST PUSH2 0x94E PUSH2 0x942 JUMP JUMPDEST PUSH2 0x959 DUP2 DUP5 DUP5 PUSH2 0x91D JUMP JUMPDEST POP POP POP JUMP JUMPDEST JUMPDEST DUP2 DUP2 LT ISZERO PUSH2 0x97C JUMPI PUSH2 0x971 PUSH0 DUP3 PUSH2 0x946 JUMP JUMPDEST PUSH1 0x1 DUP2 ADD SWAP1 POP PUSH2 0x95F JUMP JUMPDEST POP POP JUMP JUMPDEST PUSH1 0x1F DUP3 GT ISZERO PUSH2 0x9C1 JUMPI PUSH2 0x992 DUP2 PUSH2 0x86C JUMP JUMPDEST PUSH2 0x99B DUP5 PUSH2 0x87E JUMP JUMPDEST DUP2 ADD PUSH1 0x20 DUP6 LT ISZERO PUSH2 0x9AA JUMPI DUP2 SWAP1 POP JUMPDEST PUSH2 0x9BE PUSH2 0x9B6 DUP6 PUSH2 0x87E JUMP JUMPDEST DUP4 ADD DUP3 PUSH2 0x95E JUMP JUMPDEST POP POP JUMPDEST POP POP POP JUMP JUMPDEST PUSH0 DUP3 DUP3 SHR SWAP1 POP SWAP3 SWAP2 POP POP JUMP JUMPDEST PUSH0 PUSH2 0x9E1 PUSH0 NOT DUP5 PUSH1 0x8 MUL PUSH2 0x9C6 JUMP JUMPDEST NOT DUP1 DUP4 AND SWAP2 POP POP SWAP3 SWAP2 POP POP JUMP JUMPDEST PUSH0 PUSH2 0x9F9 DUP4 DUP4 PUSH2 0x9D2 JUMP JUMPDEST SWAP2 POP DUP3 PUSH1 0x2 MUL DUP3 OR SWAP1 POP SWAP3 SWAP2 POP POP JUMP JUMPDEST PUSH2 0xA12 DUP3 PUSH2 0x3F1 JUMP JUMPDEST PUSH8 0xFFFFFFFFFFFFFFFF DUP2 GT ISZERO PUSH2 0xA2B JUMPI PUSH2 0xA2A PUSH2 0x620 JUMP JUMPDEST JUMPDEST PUSH2 0xA35 DUP3 SLOAD PUSH2 0x83C JUMP JUMPDEST PUSH2 0xA40 DUP3 DUP3 DUP6 PUSH2 0x980 JUMP JUMPDEST PUSH0 PUSH1 0x20 SWAP1 POP PUSH1 0x1F DUP4 GT PUSH1 0x1 DUP2 EQ PUSH2 0xA71 JUMPI PUSH0 DUP5 ISZERO PUSH2 0xA5F JUMPI DUP3 DUP8 ADD MLOAD SWAP1 POP JUMPDEST PUSH2 0xA69 DUP6 DUP3 PUSH2 0x9EE JUMP JUMPDEST DUP7 SSTORE POP PUSH2 0xAD0 JUMP JUMPDEST PUSH1 0x1F NOT DUP5 AND PUSH2 0xA7F DUP7 PUSH2 0x86C JUMP JUMPDEST PUSH0 JUMPDEST DUP3 DUP2 LT ISZERO PUSH2 0xAA6 JUMPI DUP5 DUP10 ADD MLOAD DUP3 SSTORE PUSH1 0x1 DUP3 ADD SWAP2 POP PUSH1 0x20 DUP6 ADD SWAP5 POP PUSH1 0x20 DUP2 ADD SWAP1 POP PUSH2 0xA81 JUMP JUMPDEST DUP7 DUP4 LT ISZERO PUSH2 0xAC3 JUMPI DUP5 DUP10 ADD MLOAD PUSH2 0xABF PUSH1 0x1F DUP10 AND DUP3 PUSH2 0x9D2 JUMP JUMPDEST DUP4 SSTORE POP JUMPDEST PUSH1 0x1 PUSH1 0x2 DUP9 MUL ADD DUP9 SSTORE POP POP POP JUMPDEST POP POP POP POP POP POP JUMP INVALID LOG2 PUSH5 0x6970667358 0x22 SLT KECCAK256 0xCE 0x4B SHR 0xEB DUP5 0xE7 CODESIZE PUSH25 0x56FF6C95695E5D2AF17B3A123959AD4AFE44023A463E7D1B64 PUSH20 0x6F6C634300081A00330000000000000000000000 "
				},
				"gasEstimates": {
					"creation": {
						"codeDepositCost": "566000",
						"executionCost": "infinite",
						"totalCost": "infinite"
					},
					"external": {
						"addNewValues(string,string)": "infinite",
						"data()": "infinite",
						"nums(uint256)": "infinite",
						"returnMultipleValues()": "infinite"
					},
					"internal": {
						"addMe(string memory,string memory)": "infinite"
					}
				},
				"methodIdentifiers": {
					"addNewValues(string,string)": "f5d02149",
					"data()": "73d4a13a",
					"nums(uint256)": "fd1ee54c",
					"returnMultipleValues()": "de77a97d"
				}
			},
			"storageLayout": {
				"storage": [
					{
						"astId": 4,
						"contract": "contracts/multipleFunctionCall.sol:Task",
						"label": "data",
						"offset": 0,
						"slot": "0",
						"type": "t_string_storage"
					},
					{
						"astId": 7,
						"contract": "contracts/multipleFunctionCall.sol:Task",
						"label": "nums",
						"offset": 0,
						"slot": "1",
						"type": "t_array(t_string_storage)dyn_storage"
					}
				],
				"types": {
					"t_array(t_string_storage)dyn_storage": {
						"base": "t_string_storage",
						"encoding": "dynamic_array",
						"label": "string[]",
						"numberOfBytes": "32"
					},
					"t_string_storage": {
						"encoding": "bytes",
						"label": "string",
						"numberOfBytes": "32"
					}
				}
			},
			"userdoc": {
				"kind": "user",
				"methods": {},
				"version": 1
			}
		}
	}
}