{
	"contracts/calculator.sol": {
		"calculator": {
			"abi": [
				{
					"inputs": [
						{
							"internalType": "uint256",
							"name": "x",
							"type": "uint256"
						},
						{
							"internalType": "uint256",
							"name": "y",
							"type": "uint256"
						}
					],
					"name": "add",
					"outputs": [],
					"stateMutability": "nonpayable",
					"type": "function"
				},
				{
					"inputs": [
						{
							"internalType": "uint256",
							"name": "x",
							"type": "uint256"
						},
						{
							"internalType": "uint256",
							"name": "y",
							"type": "uint256"
						}
					],
					"name": "divide",
					"outputs": [],
					"stateMutability": "nonpayable",
					"type": "function"
				},
				{
					"inputs": [],
					"name": "getError",
					"outputs": [
						{
							"internalType": "string",
							"name": "",
							"type": "string"
						}
					],
					"stateMutability": "view",
					"type": "function"
				},
				{
					"inputs": [],
					"name": "getResult",
					"outputs": [
						{
							"internalType": "uint256",
							"name": "",
							"type": "uint256"
						}
					],
					"stateMutability": "view",
					"type": "function"
				},
				{
					"inputs": [
						{
							"internalType": "uint256",
							"name": "x",
							"type": "uint256"
						},
						{
							"internalType": "uint256",
							"name": "y",
							"type": "uint256"
						}
					],
					"name": "mulitiply",
					"outputs": [],
					"stateMutability": "nonpayable",
					"type": "function"
				},
				{
					"inputs": [
						{
							"internalType": "uint256",
							"name": "x",
							"type": "uint256"
						},
						{
							"internalType": "uint256",
							"name": "y",
							"type": "uint256"
						}
					],
					"name": "subtract",
					"outputs": [],
					"stateMutability": "nonpayable",
					"type": "function"
				}
			],
			"devdoc": {
				"kind": "dev",
				"methods": {},
				"version": 1
			},
			"evm": {
				"assembly": "    /* \"contracts/calculator.sol\":62:1191  contract calculator {... */\n  mstore(0x40, 0x80)\n    /* \"contracts/calculator.sol\":109:143  string err = \"you are good to go \" */\n  mload(0x40)\n  dup1\n  0x40\n  add\n  0x40\n  mstore\n  dup1\n  0x13\n  dup2\n  mstore\n  0x20\n  add\n  0x796f752061726520676f6f6420746f20676f2000000000000000000000000000\n  dup2\n  mstore\n  pop\n  0x01\n  swap1\n  dup2\n  tag_1\n  swap2\n  swap1\n  tag_2\n  jump\t// in\ntag_1:\n  pop\n    /* \"contracts/calculator.sol\":62:1191  contract calculator {... */\n  callvalue\n  dup1\n  iszero\n  tag_3\n  jumpi\n  revert(0x00, 0x00)\ntag_3:\n  pop\n  jump(tag_4)\n    /* \"#utility.yul\":7:106   */\ntag_5:\n    /* \"#utility.yul\":59:65   */\n  0x00\n    /* \"#utility.yul\":93:98   */\n  dup2\n    /* \"#utility.yul\":87:99   */\n  mload\n    /* \"#utility.yul\":77:99   */\n  swap1\n  pop\n    /* \"#utility.yul\":7:106   */\n  swap2\n  swap1\n  pop\n  jump\t// out\n    /* \"#utility.yul\":112:292   */\ntag_6:\n    /* \"#utility.yul\":160:237   */\n  0x4e487b7100000000000000000000000000000000000000000000000000000000\n    /* \"#utility.yul\":157:158   */\n  0x00\n    /* \"#utility.yul\":150:238   */\n  mstore\n    /* \"#utility.yul\":257:261   */\n  0x41\n    /* \"#utility.yul\":254:255   */\n  0x04\n    /* \"#utility.yul\":247:262   */\n  mstore\n    /* \"#utility.yul\":281:285   */\n  0x24\n    /* \"#utility.yul\":278:279   */\n  0x00\n    /* \"#utility.yul\":271:286   */\n  revert\n    /* \"#utility.yul\":298:478   */\ntag_7:\n    /* \"#utility.yul\":346:423   */\n  0x4e487b7100000000000000000000000000000000000000000000000000000000\n    /* \"#utility.yul\":343:344   */\n  0x00\n    /* \"#utility.yul\":336:424   */\n  mstore\n    /* \"#utility.yul\":443:447   */\n  0x22\n    /* \"#utility.yul\":440:441   */\n  0x04\n    /* \"#utility.yul\":433:448   */\n  mstore\n    /* \"#utility.yul\":467:471   */\n  0x24\n    /* \"#utility.yul\":464:465   */\n  0x00\n    /* \"#utility.yul\":457:472   */\n  revert\n    /* \"#utility.yul\":484:804   */\ntag_8:\n    /* \"#utility.yul\":528:534   */\n  0x00\n    /* \"#utility.yul\":565:566   */\n  0x02\n    /* \"#utility.yul\":559:563   */\n  dup3\n    /* \"#utility.yul\":555:567   */\n  div\n    /* \"#utility.yul\":545:567   */\n  swap1\n  pop\n    /* \"#utility.yul\":612:613   */\n  0x01\n    /* \"#utility.yul\":606:610   */\n  dup3\n    /* \"#utility.yul\":602:614   */\n  and\n    /* \"#utility.yul\":633:651   */\n  dup1\n    /* \"#utility.yul\":623:704   */\n  tag_30\n  jumpi\n    /* \"#utility.yul\":689:693   */\n  0x7f\n    /* \"#utility.yul\":681:687   */\n  dup3\n    /* \"#utility.yul\":677:694   */\n  and\n    /* \"#utility.yul\":667:694   */\n  swap2\n  pop\n    /* \"#utility.yul\":623:704   */\ntag_30:\n    /* \"#utility.yul\":751:753   */\n  0x20\n    /* \"#utility.yul\":743:749   */\n  dup3\n    /* \"#utility.yul\":740:754   */\n  lt\n    /* \"#utility.yul\":720:738   */\n  dup2\n    /* \"#utility.yul\":717:755   */\n  sub\n    /* \"#utility.yul\":714:798   */\n  tag_31\n  jumpi\n    /* \"#utility.yul\":770:788   */\n  tag_32\n  tag_7\n  jump\t// in\ntag_32:\n    /* \"#utility.yul\":714:798   */\ntag_31:\n    /* \"#utility.yul\":535:804   */\n  pop\n    /* \"#utility.yul\":484:804   */\n  swap2\n  swap1\n  pop\n  jump\t// out\n    /* \"#utility.yul\":810:951   */\ntag_9:\n    /* \"#utility.yul\":859:863   */\n  0x00\n    /* \"#utility.yul\":882:885   */\n  dup2\n    /* \"#utility.yul\":874:885   */\n  swap1\n  pop\n    /* \"#utility.yul\":905:908   */\n  dup2\n    /* \"#utility.yul\":902:903   */\n  0x00\n    /* \"#utility.yul\":895:909   */\n  mstore\n    /* \"#utility.yul\":939:943   */\n  0x20\n    /* \"#utility.yul\":936:937   */\n  0x00\n    /* \"#utility.yul\":926:944   */\n  keccak256\n    /* \"#utility.yul\":918:944   */\n  swap1\n  pop\n    /* \"#utility.yul\":810:951   */\n  swap2\n  swap1\n  pop\n  jump\t// out\n    /* \"#utility.yul\":957:1050   */\ntag_10:\n    /* \"#utility.yul\":994:1000   */\n  0x00\n    /* \"#utility.yul\":1041:1043   */\n  0x20\n    /* \"#utility.yul\":1036:1038   */\n  0x1f\n    /* \"#utility.yul\":1029:1034   */\n  dup4\n    /* \"#utility.yul\":1025:1039   */\n  add\n    /* \"#utility.yul\":1021:1044   */\n  div\n    /* \"#utility.yul\":1011:1044   */\n  swap1\n  pop\n    /* \"#utility.yul\":957:1050   */\n  swap2\n  swap1\n  pop\n  jump\t// out\n    /* \"#utility.yul\":1056:1163   */\ntag_11:\n    /* \"#utility.yul\":1100:1108   */\n  0x00\n    /* \"#utility.yul\":1150:1155   */\n  dup3\n    /* \"#utility.yul\":1144:1148   */\n  dup3\n    /* \"#utility.yul\":1140:1156   */\n  shl\n    /* \"#utility.yul\":1119:1156   */\n  swap1\n  pop\n    /* \"#utility.yul\":1056:1163   */\n  swap3\n  swap2\n  pop\n  pop\n  jump\t// out\n    /* \"#utility.yul\":1169:1562   */\ntag_12:\n    /* \"#utility.yul\":1238:1244   */\n  0x00\n    /* \"#utility.yul\":1288:1289   */\n  0x08\n    /* \"#utility.yul\":1276:1286   */\n  dup4\n    /* \"#utility.yul\":1272:1290   */\n  mul\n    /* \"#utility.yul\":1311:1408   */\n  tag_37\n    /* \"#utility.yul\":1341:1407   */\n  0xffffffffffffffffffffffffffffffffffffffffffffffffffffffffffffffff\n    /* \"#utility.yul\":1330:1339   */\n  dup3\n    /* \"#utility.yul\":1311:1408   */\n  tag_11\n  jump\t// in\ntag_37:\n    /* \"#utility.yul\":1429:1468   */\n  tag_38\n    /* \"#utility.yul\":1459:1467   */\n  dup7\n    /* \"#utility.yul\":1448:1457   */\n  dup4\n    /* \"#utility.yul\":1429:1468   */\n  tag_11\n  jump\t// in\ntag_38:\n    /* \"#utility.yul\":1417:1468   */\n  swap6\n  pop\n    /* \"#utility.yul\":1501:1505   */\n  dup1\n    /* \"#utility.yul\":1497:1506   */\n  not\n    /* \"#utility.yul\":1490:1495   */\n  dup5\n    /* \"#utility.yul\":1486:1507   */\n  and\n    /* \"#utility.yul\":1477:1507   */\n  swap4\n  pop\n    /* \"#utility.yul\":1550:1554   */\n  dup1\n    /* \"#utility.yul\":1540:1548   */\n  dup7\n    /* \"#utility.yul\":1536:1555   */\n  and\n    /* \"#utility.yul\":1529:1534   */\n  dup5\n    /* \"#utility.yul\":1526:1556   */\n  or\n    /* \"#utility.yul\":1516:1556   */\n  swap3\n  pop\n    /* \"#utility.yul\":1245:1562   */\n  pop\n  pop\n    /* \"#utility.yul\":1169:1562   */\n  swap4\n  swap3\n  pop\n  pop\n  pop\n  jump\t// out\n    /* \"#utility.yul\":1568:1645   */\ntag_13:\n    /* \"#utility.yul\":1605:1612   */\n  0x00\n    /* \"#utility.yul\":1634:1639   */\n  dup2\n    /* \"#utility.yul\":1623:1639   */\n  swap1\n  pop\n    /* \"#utility.yul\":1568:1645   */\n  swap2\n  swap1\n  pop\n  jump\t// out\n    /* \"#utility.yul\":1651:1711   */\ntag_14:\n    /* \"#utility.yul\":1679:1682   */\n  0x00\n    /* \"#utility.yul\":1700:1705   */\n  dup2\n    /* \"#utility.yul\":1693:1705   */\n  swap1\n  pop\n    /* \"#utility.yul\":1651:1711   */\n  swap2\n  swap1\n  pop\n  jump\t// out\n    /* \"#utility.yul\":1717:1859   */\ntag_15:\n    /* \"#utility.yul\":1767:1776   */\n  0x00\n    /* \"#utility.yul\":1800:1853   */\n  tag_42\n    /* \"#utility.yul\":1818:1852   */\n  tag_43\n    /* \"#utility.yul\":1827:1851   */\n  tag_44\n    /* \"#utility.yul\":1845:1850   */\n  dup5\n    /* \"#utility.yul\":1827:1851   */\n  tag_13\n  jump\t// in\ntag_44:\n    /* \"#utility.yul\":1818:1852   */\n  tag_14\n  jump\t// in\ntag_43:\n    /* \"#utility.yul\":1800:1853   */\n  tag_13\n  jump\t// in\ntag_42:\n    /* \"#utility.yul\":1787:1853   */\n  swap1\n  pop\n    /* \"#utility.yul\":1717:1859   */\n  swap2\n  swap1\n  pop\n  jump\t// out\n    /* \"#utility.yul\":1865:1940   */\ntag_16:\n    /* \"#utility.yul\":1908:1911   */\n  0x00\n    /* \"#utility.yul\":1929:1934   */\n  dup2\n    /* \"#utility.yul\":1922:1934   */\n  swap1\n  pop\n    /* \"#utility.yul\":1865:1940   */\n  swap2\n  swap1\n  pop\n  jump\t// out\n    /* \"#utility.yul\":1946:2215   */\ntag_17:\n    /* \"#utility.yul\":2056:2095   */\n  tag_47\n    /* \"#utility.yul\":2087:2094   */\n  dup4\n    /* \"#utility.yul\":2056:2095   */\n  tag_15\n  jump\t// in\ntag_47:\n    /* \"#utility.yul\":2117:2208   */\n  tag_48\n    /* \"#utility.yul\":2166:2207   */\n  tag_49\n    /* \"#utility.yul\":2190:2206   */\n  dup3\n    /* \"#utility.yul\":2166:2207   */\n  tag_16\n  jump\t// in\ntag_49:\n    /* \"#utility.yul\":2158:2164   */\n  dup5\n    /* \"#utility.yul\":2151:2155   */\n  dup5\n    /* \"#utility.yul\":2145:2156   */\n  sload\n    /* \"#utility.yul\":2117:2208   */\n  tag_12\n  jump\t// in\ntag_48:\n    /* \"#utility.yul\":2111:2115   */\n  dup3\n    /* \"#utility.yul\":2104:2209   */\n  sstore\n    /* \"#utility.yul\":2022:2215   */\n  pop\n    /* \"#utility.yul\":1946:2215   */\n  pop\n  pop\n  pop\n  jump\t// out\n    /* \"#utility.yul\":2221:2294   */\ntag_18:\n    /* \"#utility.yul\":2266:2269   */\n  0x00\n    /* \"#utility.yul\":2287:2288   */\n  0x00\n    /* \"#utility.yul\":2280:2288   */\n  swap1\n  pop\n    /* \"#utility.yul\":2221:2294   */\n  swap1\n  jump\t// out\n    /* \"#utility.yul\":2300:2489   */\ntag_19:\n    /* \"#utility.yul\":2377:2409   */\n  tag_52\n  tag_18\n  jump\t// in\ntag_52:\n    /* \"#utility.yul\":2418:2483   */\n  tag_53\n    /* \"#utility.yul\":2476:2482   */\n  dup2\n    /* \"#utility.yul\":2468:2474   */\n  dup5\n    /* \"#utility.yul\":2462:2466   */\n  dup5\n    /* \"#utility.yul\":2418:2483   */\n  tag_17\n  jump\t// in\ntag_53:\n    /* \"#utility.yul\":2353:2489   */\n  pop\n    /* \"#utility.yul\":2300:2489   */\n  pop\n  pop\n  jump\t// out\n    /* \"#utility.yul\":2495:2681   */\ntag_20:\n    /* \"#utility.yul\":2555:2675   */\ntag_55:\n    /* \"#utility.yul\":2572:2575   */\n  dup2\n    /* \"#utility.yul\":2565:2570   */\n  dup2\n    /* \"#utility.yul\":2562:2576   */\n  lt\n    /* \"#utility.yul\":2555:2675   */\n  iszero\n  tag_57\n  jumpi\n    /* \"#utility.yul\":2626:2665   */\n  tag_58\n    /* \"#utility.yul\":2663:2664   */\n  0x00\n    /* \"#utility.yul\":2656:2661   */\n  dup3\n    /* \"#utility.yul\":2626:2665   */\n  tag_19\n  jump\t// in\ntag_58:\n    /* \"#utility.yul\":2599:2600   */\n  0x01\n    /* \"#utility.yul\":2592:2597   */\n  dup2\n    /* \"#utility.yul\":2588:2601   */\n  add\n    /* \"#utility.yul\":2579:2601   */\n  swap1\n  pop\n    /* \"#utility.yul\":2555:2675   */\n  jump(tag_55)\ntag_57:\n    /* \"#utility.yul\":2495:2681   */\n  pop\n  pop\n  jump\t// out\n    /* \"#utility.yul\":2687:3230   */\ntag_21:\n    /* \"#utility.yul\":2788:2790   */\n  0x1f\n    /* \"#utility.yul\":2783:2786   */\n  dup3\n    /* \"#utility.yul\":2780:2791   */\n  gt\n    /* \"#utility.yul\":2777:3223   */\n  iszero\n  tag_60\n  jumpi\n    /* \"#utility.yul\":2822:2860   */\n  tag_61\n    /* \"#utility.yul\":2854:2859   */\n  dup2\n    /* \"#utility.yul\":2822:2860   */\n  tag_9\n  jump\t// in\ntag_61:\n    /* \"#utility.yul\":2906:2935   */\n  tag_62\n    /* \"#utility.yul\":2924:2934   */\n  dup5\n    /* \"#utility.yul\":2906:2935   */\n  tag_10\n  jump\t// in\ntag_62:\n    /* \"#utility.yul\":2896:2904   */\n  dup2\n    /* \"#utility.yul\":2892:2936   */\n  add\n    /* \"#utility.yul\":3089:3091   */\n  0x20\n    /* \"#utility.yul\":3077:3087   */\n  dup6\n    /* \"#utility.yul\":3074:3092   */\n  lt\n    /* \"#utility.yul\":3071:3120   */\n  iszero\n  tag_63\n  jumpi\n    /* \"#utility.yul\":3110:3118   */\n  dup2\n    /* \"#utility.yul\":3095:3118   */\n  swap1\n  pop\n    /* \"#utility.yul\":3071:3120   */\ntag_63:\n    /* \"#utility.yul\":3133:3213   */\n  tag_64\n    /* \"#utility.yul\":3189:3211   */\n  tag_65\n    /* \"#utility.yul\":3207:3210   */\n  dup6\n    /* \"#utility.yul\":3189:3211   */\n  tag_10\n  jump\t// in\ntag_65:\n    /* \"#utility.yul\":3179:3187   */\n  dup4\n    /* \"#utility.yul\":3175:3212   */\n  add\n    /* \"#utility.yul\":3162:3173   */\n  dup3\n    /* \"#utility.yul\":3133:3213   */\n  tag_20\n  jump\t// in\ntag_64:\n    /* \"#utility.yul\":2792:3223   */\n  pop\n  pop\n    /* \"#utility.yul\":2777:3223   */\ntag_60:\n    /* \"#utility.yul\":2687:3230   */\n  pop\n  pop\n  pop\n  jump\t// out\n    /* \"#utility.yul\":3236:3353   */\ntag_22:\n    /* \"#utility.yul\":3290:3298   */\n  0x00\n    /* \"#utility.yul\":3340:3345   */\n  dup3\n    /* \"#utility.yul\":3334:3338   */\n  dup3\n    /* \"#utility.yul\":3330:3346   */\n  shr\n    /* \"#utility.yul\":3309:3346   */\n  swap1\n  pop\n    /* \"#utility.yul\":3236:3353   */\n  swap3\n  swap2\n  pop\n  pop\n  jump\t// out\n    /* \"#utility.yul\":3359:3528   */\ntag_23:\n    /* \"#utility.yul\":3403:3409   */\n  0x00\n    /* \"#utility.yul\":3436:3487   */\n  tag_68\n    /* \"#utility.yul\":3484:3485   */\n  0x00\n    /* \"#utility.yul\":3480:3486   */\n  not\n    /* \"#utility.yul\":3472:3477   */\n  dup5\n    /* \"#utility.yul\":3469:3470   */\n  0x08\n    /* \"#utility.yul\":3465:3478   */\n  mul\n    /* \"#utility.yul\":3436:3487   */\n  tag_22\n  jump\t// in\ntag_68:\n    /* \"#utility.yul\":3432:3488   */\n  not\n    /* \"#utility.yul\":3517:3521   */\n  dup1\n    /* \"#utility.yul\":3511:3515   */\n  dup4\n    /* \"#utility.yul\":3507:3522   */\n  and\n    /* \"#utility.yul\":3497:3522   */\n  swap2\n  pop\n    /* \"#utility.yul\":3410:3528   */\n  pop\n    /* \"#utility.yul\":3359:3528   */\n  swap3\n  swap2\n  pop\n  pop\n  jump\t// out\n    /* \"#utility.yul\":3533:3828   */\ntag_24:\n    /* \"#utility.yul\":3609:3613   */\n  0x00\n    /* \"#utility.yul\":3755:3784   */\n  tag_70\n    /* \"#utility.yul\":3780:3783   */\n  dup4\n    /* \"#utility.yul\":3774:3778   */\n  dup4\n    /* \"#utility.yul\":3755:3784   */\n  tag_23\n  jump\t// in\ntag_70:\n    /* \"#utility.yul\":3747:3784   */\n  swap2\n  pop\n    /* \"#utility.yul\":3817:3820   */\n  dup3\n    /* \"#utility.yul\":3814:3815   */\n  0x02\n    /* \"#utility.yul\":3810:3821   */\n  mul\n    /* \"#utility.yul\":3804:3808   */\n  dup3\n    /* \"#utility.yul\":3801:3822   */\n  or\n    /* \"#utility.yul\":3793:3822   */\n  swap1\n  pop\n    /* \"#utility.yul\":3533:3828   */\n  swap3\n  swap2\n  pop\n  pop\n  jump\t// out\n    /* \"#utility.yul\":3833:5228   */\ntag_2:\n    /* \"#utility.yul\":3950:3987   */\n  tag_72\n    /* \"#utility.yul\":3983:3986   */\n  dup3\n    /* \"#utility.yul\":3950:3987   */\n  tag_5\n  jump\t// in\ntag_72:\n    /* \"#utility.yul\":4052:4070   */\n  0xffffffffffffffff\n    /* \"#utility.yul\":4044:4050   */\n  dup2\n    /* \"#utility.yul\":4041:4071   */\n  gt\n    /* \"#utility.yul\":4038:4094   */\n  iszero\n  tag_73\n  jumpi\n    /* \"#utility.yul\":4074:4092   */\n  tag_74\n  tag_6\n  jump\t// in\ntag_74:\n    /* \"#utility.yul\":4038:4094   */\ntag_73:\n    /* \"#utility.yul\":4118:4156   */\n  tag_75\n    /* \"#utility.yul\":4150:4154   */\n  dup3\n    /* \"#utility.yul\":4144:4155   */\n  sload\n    /* \"#utility.yul\":4118:4156   */\n  tag_8\n  jump\t// in\ntag_75:\n    /* \"#utility.yul\":4203:4270   */\n  tag_76\n    /* \"#utility.yul\":4263:4269   */\n  dup3\n    /* \"#utility.yul\":4255:4261   */\n  dup3\n    /* \"#utility.yul\":4249:4253   */\n  dup6\n    /* \"#utility.yul\":4203:4270   */\n  tag_21\n  jump\t// in\ntag_76:\n    /* \"#utility.yul\":4297:4298   */\n  0x00\n    /* \"#utility.yul\":4321:4325   */\n  0x20\n    /* \"#utility.yul\":4308:4325   */\n  swap1\n  pop\n    /* \"#utility.yul\":4353:4355   */\n  0x1f\n    /* \"#utility.yul\":4345:4351   */\n  dup4\n    /* \"#utility.yul\":4342:4356   */\n  gt\n    /* \"#utility.yul\":4370:4371   */\n  0x01\n    /* \"#utility.yul\":4365:4983   */\n  dup2\n  eq\n  tag_78\n  jumpi\n    /* \"#utility.yul\":5027:5028   */\n  0x00\n    /* \"#utility.yul\":5044:5050   */\n  dup5\n    /* \"#utility.yul\":5041:5118   */\n  iszero\n  tag_79\n  jumpi\n    /* \"#utility.yul\":5093:5102   */\n  dup3\n    /* \"#utility.yul\":5088:5091   */\n  dup8\n    /* \"#utility.yul\":5084:5103   */\n  add\n    /* \"#utility.yul\":5078:5104   */\n  mload\n    /* \"#utility.yul\":5069:5104   */\n  swap1\n  pop\n    /* \"#utility.yul\":5041:5118   */\ntag_79:\n    /* \"#utility.yul\":5144:5211   */\n  tag_80\n    /* \"#utility.yul\":5204:5210   */\n  dup6\n    /* \"#utility.yul\":5197:5202   */\n  dup3\n    /* \"#utility.yul\":5144:5211   */\n  tag_24\n  jump\t// in\ntag_80:\n    /* \"#utility.yul\":5138:5142   */\n  dup7\n    /* \"#utility.yul\":5131:5212   */\n  sstore\n    /* \"#utility.yul\":5000:5222   */\n  pop\n    /* \"#utility.yul\":4335:5222   */\n  jump(tag_77)\n    /* \"#utility.yul\":4365:4983   */\ntag_78:\n    /* \"#utility.yul\":4417:4421   */\n  0x1f\n    /* \"#utility.yul\":4413:4422   */\n  not\n    /* \"#utility.yul\":4405:4411   */\n  dup5\n    /* \"#utility.yul\":4401:4423   */\n  and\n    /* \"#utility.yul\":4451:4488   */\n  tag_81\n    /* \"#utility.yul\":4483:4487   */\n  dup7\n    /* \"#utility.yul\":4451:4488   */\n  tag_9\n  jump\t// in\ntag_81:\n    /* \"#utility.yul\":4510:4511   */\n  0x00\n    /* \"#utility.yul\":4524:4732   */\ntag_82:\n    /* \"#utility.yul\":4538:4545   */\n  dup3\n    /* \"#utility.yul\":4535:4536   */\n  dup2\n    /* \"#utility.yul\":4532:4546   */\n  lt\n    /* \"#utility.yul\":4524:4732   */\n  iszero\n  tag_84\n  jumpi\n    /* \"#utility.yul\":4617:4626   */\n  dup5\n    /* \"#utility.yul\":4612:4615   */\n  dup10\n    /* \"#utility.yul\":4608:4627   */\n  add\n    /* \"#utility.yul\":4602:4628   */\n  mload\n    /* \"#utility.yul\":4594:4600   */\n  dup3\n    /* \"#utility.yul\":4587:4629   */\n  sstore\n    /* \"#utility.yul\":4668:4669   */\n  0x01\n    /* \"#utility.yul\":4660:4666   */\n  dup3\n    /* \"#utility.yul\":4656:4670   */\n  add\n    /* \"#utility.yul\":4646:4670   */\n  swap2\n  pop\n    /* \"#utility.yul\":4715:4717   */\n  0x20\n    /* \"#utility.yul\":4704:4713   */\n  dup6\n    /* \"#utility.yul\":4700:4718   */\n  add\n    /* \"#utility.yul\":4687:4718   */\n  swap5\n  pop\n    /* \"#utility.yul\":4561:4565   */\n  0x20\n    /* \"#utility.yul\":4558:4559   */\n  dup2\n    /* \"#utility.yul\":4554:4566   */\n  add\n    /* \"#utility.yul\":4549:4566   */\n  swap1\n  pop\n    /* \"#utility.yul\":4524:4732   */\n  jump(tag_82)\ntag_84:\n    /* \"#utility.yul\":4760:4766   */\n  dup7\n    /* \"#utility.yul\":4751:4758   */\n  dup4\n    /* \"#utility.yul\":4748:4767   */\n  lt\n    /* \"#utility.yul\":4745:4924   */\n  iszero\n  tag_85\n  jumpi\n    /* \"#utility.yul\":4818:4827   */\n  dup5\n    /* \"#utility.yul\":4813:4816   */\n  dup10\n    /* \"#utility.yul\":4809:4828   */\n  add\n    /* \"#utility.yul\":4803:4829   */\n  mload\n    /* \"#utility.yul\":4861:4909   */\n  tag_86\n    /* \"#utility.yul\":4903:4907   */\n  0x1f\n    /* \"#utility.yul\":4895:4901   */\n  dup10\n    /* \"#utility.yul\":4891:4908   */\n  and\n    /* \"#utility.yul\":4880:4889   */\n  dup3\n    /* \"#utility.yul\":4861:4909   */\n  tag_23\n  jump\t// in\ntag_86:\n    /* \"#utility.yul\":4853:4859   */\n  dup4\n    /* \"#utility.yul\":4846:4910   */\n  sstore\n    /* \"#utility.yul\":4768:4924   */\n  pop\n    /* \"#utility.yul\":4745:4924   */\ntag_85:\n    /* \"#utility.yul\":4970:4971   */\n  0x01\n    /* \"#utility.yul\":4966:4967   */\n  0x02\n    /* \"#utility.yul\":4958:4964   */\n  dup9\n    /* \"#utility.yul\":4954:4968   */\n  mul\n    /* \"#utility.yul\":4950:4972   */\n  add\n    /* \"#utility.yul\":4944:4948   */\n  dup9\n    /* \"#utility.yul\":4937:4973   */\n  sstore\n    /* \"#utility.yul\":4372:4983   */\n  pop\n  pop\n  pop\n    /* \"#utility.yul\":4335:5222   */\ntag_77:\n  pop\n    /* \"#utility.yul\":3925:5228   */\n  pop\n  pop\n  pop\n    /* \"#utility.yul\":3833:5228   */\n  pop\n  pop\n  jump\t// out\n    /* \"contracts/calculator.sol\":62:1191  contract calculator {... */\ntag_4:\n  dataSize(sub_0)\n  dup1\n  dataOffset(sub_0)\n  0x00\n  codecopy\n  0x00\n  return\nstop\n\nsub_0: assembly {\n        /* \"contracts/calculator.sol\":62:1191  contract calculator {... */\n      mstore(0x40, 0x80)\n      callvalue\n      dup1\n      iszero\n      tag_1\n      jumpi\n      revert(0x00, 0x00)\n    tag_1:\n      pop\n      jumpi(tag_2, lt(calldatasize, 0x04))\n      shr(0xe0, calldataload(0x00))\n      dup1\n      0x3ef5e445\n      eq\n      tag_3\n      jumpi\n      dup1\n      0x635a3753\n      eq\n      tag_4\n      jumpi\n      dup1\n      0x66aaa1ae\n      eq\n      tag_5\n      jumpi\n      dup1\n      0x771602f7\n      eq\n      tag_6\n      jumpi\n      dup1\n      0xde292789\n      eq\n      tag_7\n      jumpi\n      dup1\n      0xf88e9fbf\n      eq\n      tag_8\n      jumpi\n    tag_2:\n      revert(0x00, 0x00)\n        /* \"contracts/calculator.sol\":338:689  function subtract(uint x,uint y) public {... */\n    tag_3:\n      tag_9\n      0x04\n      dup1\n      calldatasize\n      sub\n      dup2\n      add\n      swap1\n      tag_10\n      swap2\n      swap1\n      tag_11\n      jump\t// in\n    tag_10:\n      tag_12\n      jump\t// in\n    tag_9:\n      stop\n        /* \"contracts/calculator.sol\":152:235  function getError() view public returns(string memory){... */\n    tag_4:\n      tag_13\n      tag_14\n      jump\t// in\n    tag_13:\n      mload(0x40)\n      tag_15\n      swap2\n      swap1\n      tag_16\n      jump\t// in\n    tag_15:\n      mload(0x40)\n      dup1\n      swap2\n      sub\n      swap1\n      return\n        /* \"contracts/calculator.sol\":697:790  function mulitiply(uint x,uint y) public {... */\n    tag_5:\n      tag_17\n      0x04\n      dup1\n      calldatasize\n      sub\n      dup2\n      add\n      swap1\n      tag_18\n      swap2\n      swap1\n      tag_11\n      jump\t// in\n    tag_18:\n      tag_19\n      jump\t// in\n    tag_17:\n      stop\n        /* \"contracts/calculator.sol\":243:330  function add(uint x,uint y) public {... */\n    tag_6:\n      tag_20\n      0x04\n      dup1\n      calldatasize\n      sub\n      dup2\n      add\n      swap1\n      tag_21\n      swap2\n      swap1\n      tag_11\n      jump\t// in\n    tag_21:\n      tag_22\n      jump\t// in\n    tag_20:\n      stop\n        /* \"contracts/calculator.sol\":1108:1186  function getResult() view public returns(uint){... */\n    tag_7:\n      tag_23\n      tag_24\n      jump\t// in\n    tag_23:\n      mload(0x40)\n      tag_25\n      swap2\n      swap1\n      tag_26\n      jump\t// in\n    tag_25:\n      mload(0x40)\n      dup1\n      swap2\n      sub\n      swap1\n      return\n        /* \"contracts/calculator.sol\":798:1100  function divide(uint x,uint y) public {... */\n    tag_8:\n      tag_27\n      0x04\n      dup1\n      calldatasize\n      sub\n      dup2\n      add\n      swap1\n      tag_28\n      swap2\n      swap1\n      tag_11\n      jump\t// in\n    tag_28:\n      tag_29\n      jump\t// in\n    tag_27:\n      stop\n        /* \"contracts/calculator.sol\":338:689  function subtract(uint x,uint y) public {... */\n    tag_12:\n        /* \"contracts/calculator.sol\":487:488  0 */\n      0x00\n        /* \"contracts/calculator.sol\":478:484  result */\n      0x00\n        /* \"contracts/calculator.sol\":478:488  result = 0 */\n      dup2\n      swap1\n      sstore\n      pop\n        /* \"contracts/calculator.sol\":506:507  y */\n      dup1\n        /* \"contracts/calculator.sol\":502:503  x */\n      dup3\n        /* \"contracts/calculator.sol\":502:507  x < y */\n      lt\n        /* \"contracts/calculator.sol\":499:682  if(x < y){... */\n      iszero\n      tag_31\n      jumpi\n        /* \"contracts/calculator.sol\":523:586  err = \"UnderFlow Error X should be greater than or equal to y \" */\n      mload(0x40)\n      dup1\n      0x60\n      add\n      0x40\n      mstore\n      dup1\n      0x37\n      dup2\n      mstore\n      0x20\n      add\n      data_ffd7301b28126c2af6742e121bb7b2e6328ec8d5511cff77f78ffd7483d3e3ba\n      0x37\n      swap2\n      codecopy\n        /* \"contracts/calculator.sol\":523:526  err */\n      0x01\n        /* \"contracts/calculator.sol\":523:586  err = \"UnderFlow Error X should be greater than or equal to y \" */\n      swap1\n      dup2\n      tag_32\n      swap2\n      swap1\n      tag_33\n      jump\t// in\n    tag_32:\n      pop\n        /* \"contracts/calculator.sol\":499:682  if(x < y){... */\n      jump(tag_34)\n    tag_31:\n        /* \"contracts/calculator.sol\":617:643  err = \"you are good to go\" */\n      mload(0x40)\n      dup1\n      0x40\n      add\n      0x40\n      mstore\n      dup1\n      0x12\n      dup2\n      mstore\n      0x20\n      add\n      0x796f752061726520676f6f6420746f20676f0000000000000000000000000000\n      dup2\n      mstore\n      pop\n        /* \"contracts/calculator.sol\":617:620  err */\n      0x01\n        /* \"contracts/calculator.sol\":617:643  err = \"you are good to go\" */\n      swap1\n      dup2\n      tag_35\n      swap2\n      swap1\n      tag_33\n      jump\t// in\n    tag_35:\n      pop\n        /* \"contracts/calculator.sol\":669:670  y */\n      dup1\n        /* \"contracts/calculator.sol\":667:668  x */\n      dup3\n        /* \"contracts/calculator.sol\":667:670  x-y */\n      tag_36\n      swap2\n      swap1\n      tag_37\n      jump\t// in\n    tag_36:\n        /* \"contracts/calculator.sol\":658:664  result */\n      0x00\n        /* \"contracts/calculator.sol\":658:670  result = x-y */\n      dup2\n      swap1\n      sstore\n      pop\n        /* \"contracts/calculator.sol\":499:682  if(x < y){... */\n    tag_34:\n        /* \"contracts/calculator.sol\":338:689  function subtract(uint x,uint y) public {... */\n      pop\n      pop\n      jump\t// out\n        /* \"contracts/calculator.sol\":152:235  function getError() view public returns(string memory){... */\n    tag_14:\n        /* \"contracts/calculator.sol\":192:205  string memory */\n      0x60\n        /* \"contracts/calculator.sol\":224:227  err */\n      0x01\n        /* \"contracts/calculator.sol\":217:227  return err */\n      dup1\n      sload\n      tag_39\n      swap1\n      tag_40\n      jump\t// in\n    tag_39:\n      dup1\n      0x1f\n      add\n      0x20\n      dup1\n      swap2\n      div\n      mul\n      0x20\n      add\n      mload(0x40)\n      swap1\n      dup2\n      add\n      0x40\n      mstore\n      dup1\n      swap3\n      swap2\n      swap1\n      dup2\n      dup2\n      mstore\n      0x20\n      add\n      dup3\n      dup1\n      sload\n      tag_41\n      swap1\n      tag_40\n      jump\t// in\n    tag_41:\n      dup1\n      iszero\n      tag_42\n      jumpi\n      dup1\n      0x1f\n      lt\n      tag_43\n      jumpi\n      0x0100\n      dup1\n      dup4\n      sload\n      div\n      mul\n      dup4\n      mstore\n      swap2\n      0x20\n      add\n      swap2\n      jump(tag_42)\n    tag_43:\n      dup3\n      add\n      swap2\n      swap1\n      0x00\n      mstore\n      keccak256(0x00, 0x20)\n      swap1\n    tag_44:\n      dup2\n      sload\n      dup2\n      mstore\n      swap1\n      0x01\n      add\n      swap1\n      0x20\n      add\n      dup1\n      dup4\n      gt\n      tag_44\n      jumpi\n      dup3\n      swap1\n      sub\n      0x1f\n      and\n      dup3\n      add\n      swap2\n    tag_42:\n      pop\n      pop\n      pop\n      pop\n      pop\n      swap1\n      pop\n        /* \"contracts/calculator.sol\":152:235  function getError() view public returns(string memory){... */\n      swap1\n      jump\t// out\n        /* \"contracts/calculator.sol\":697:790  function mulitiply(uint x,uint y) public {... */\n    tag_19:\n        /* \"contracts/calculator.sol\":758:759  0 */\n      0x00\n        /* \"contracts/calculator.sol\":749:755  result */\n      0x00\n        /* \"contracts/calculator.sol\":749:759  result = 0 */\n      dup2\n      swap1\n      sstore\n      pop\n        /* \"contracts/calculator.sol\":780:781  y */\n      dup1\n        /* \"contracts/calculator.sol\":778:779  x */\n      dup3\n        /* \"contracts/calculator.sol\":778:781  x*y */\n      tag_46\n      swap2\n      swap1\n      tag_47\n      jump\t// in\n    tag_46:\n        /* \"contracts/calculator.sol\":770:776  result */\n      0x00\n        /* \"contracts/calculator.sol\":770:782  result=(x*y) */\n      dup2\n      swap1\n      sstore\n      pop\n        /* \"contracts/calculator.sol\":697:790  function mulitiply(uint x,uint y) public {... */\n      pop\n      pop\n      jump\t// out\n        /* \"contracts/calculator.sol\":243:330  function add(uint x,uint y) public {... */\n    tag_22:\n        /* \"contracts/calculator.sol\":298:299  0 */\n      0x00\n        /* \"contracts/calculator.sol\":289:295  result */\n      0x00\n        /* \"contracts/calculator.sol\":289:299  result = 0 */\n      dup2\n      swap1\n      sstore\n      pop\n        /* \"contracts/calculator.sol\":321:322  y */\n      dup1\n        /* \"contracts/calculator.sol\":319:320  x */\n      dup3\n        /* \"contracts/calculator.sol\":319:322  x+y */\n      tag_49\n      swap2\n      swap1\n      tag_50\n      jump\t// in\n    tag_49:\n        /* \"contracts/calculator.sol\":310:316  result */\n      0x00\n        /* \"contracts/calculator.sol\":310:322  result = x+y */\n      dup2\n      swap1\n      sstore\n      pop\n        /* \"contracts/calculator.sol\":243:330  function add(uint x,uint y) public {... */\n      pop\n      pop\n      jump\t// out\n        /* \"contracts/calculator.sol\":1108:1186  function getResult() view public returns(uint){... */\n    tag_24:\n        /* \"contracts/calculator.sol\":1149:1153  uint */\n      0x00\n        /* \"contracts/calculator.sol\":1172:1178  result */\n      sload(0x00)\n        /* \"contracts/calculator.sol\":1165:1178  return result */\n      swap1\n      pop\n        /* \"contracts/calculator.sol\":1108:1186  function getResult() view public returns(uint){... */\n      swap1\n      jump\t// out\n        /* \"contracts/calculator.sol\":798:1100  function divide(uint x,uint y) public {... */\n    tag_29:\n        /* \"contracts/calculator.sol\":856:857  0 */\n      0x00\n        /* \"contracts/calculator.sol\":847:853  result */\n      0x00\n        /* \"contracts/calculator.sol\":847:857  result = 0 */\n      dup2\n      swap1\n      sstore\n      pop\n        /* \"contracts/calculator.sol\":955:956  0 */\n      0x00\n        /* \"contracts/calculator.sol\":950:951  y */\n      dup2\n        /* \"contracts/calculator.sol\":950:956  y <= 0 */\n      gt\n        /* \"contracts/calculator.sol\":947:1093  if(y <= 0 ){... */\n      tag_53\n      jumpi\n        /* \"contracts/calculator.sol\":973:998  err = \"Exception occured\" */\n      mload(0x40)\n      dup1\n      0x40\n      add\n      0x40\n      mstore\n      dup1\n      0x11\n      dup2\n      mstore\n      0x20\n      add\n      0x457863657074696f6e206f636375726564000000000000000000000000000000\n      dup2\n      mstore\n      pop\n        /* \"contracts/calculator.sol\":973:976  err */\n      0x01\n        /* \"contracts/calculator.sol\":973:998  err = \"Exception occured\" */\n      swap1\n      dup2\n      tag_54\n      swap2\n      swap1\n      tag_33\n      jump\t// in\n    tag_54:\n      pop\n        /* \"contracts/calculator.sol\":947:1093  if(y <= 0 ){... */\n      jump(tag_55)\n    tag_53:\n        /* \"contracts/calculator.sol\":1029:1054  err = \"You are all good \" */\n      mload(0x40)\n      dup1\n      0x40\n      add\n      0x40\n      mstore\n      dup1\n      0x11\n      dup2\n      mstore\n      0x20\n      add\n      0x596f752061726520616c6c20676f6f6420000000000000000000000000000000\n      dup2\n      mstore\n      pop\n        /* \"contracts/calculator.sol\":1029:1032  err */\n      0x01\n        /* \"contracts/calculator.sol\":1029:1054  err = \"You are all good \" */\n      swap1\n      dup2\n      tag_56\n      swap2\n      swap1\n      tag_33\n      jump\t// in\n    tag_56:\n      pop\n        /* \"contracts/calculator.sol\":1080:1081  y */\n      dup1\n        /* \"contracts/calculator.sol\":1078:1079  x */\n      dup3\n        /* \"contracts/calculator.sol\":1078:1081  x/y */\n      tag_57\n      swap2\n      swap1\n      tag_58\n      jump\t// in\n    tag_57:\n        /* \"contracts/calculator.sol\":1069:1075  result */\n      0x00\n        /* \"contracts/calculator.sol\":1069:1081  result = x/y */\n      dup2\n      swap1\n      sstore\n      pop\n        /* \"contracts/calculator.sol\":947:1093  if(y <= 0 ){... */\n    tag_55:\n        /* \"contracts/calculator.sol\":798:1100  function divide(uint x,uint y) public {... */\n      pop\n      pop\n      jump\t// out\n        /* \"#utility.yul\":88:205   */\n    tag_60:\n        /* \"#utility.yul\":197:198   */\n      0x00\n        /* \"#utility.yul\":194:195   */\n      0x00\n        /* \"#utility.yul\":187:199   */\n      revert\n        /* \"#utility.yul\":334:411   */\n    tag_62:\n        /* \"#utility.yul\":371:378   */\n      0x00\n        /* \"#utility.yul\":400:405   */\n      dup2\n        /* \"#utility.yul\":389:405   */\n      swap1\n      pop\n        /* \"#utility.yul\":334:411   */\n      swap2\n      swap1\n      pop\n      jump\t// out\n        /* \"#utility.yul\":417:539   */\n    tag_63:\n        /* \"#utility.yul\":490:514   */\n      tag_96\n        /* \"#utility.yul\":508:513   */\n      dup2\n        /* \"#utility.yul\":490:514   */\n      tag_62\n      jump\t// in\n    tag_96:\n        /* \"#utility.yul\":483:488   */\n      dup2\n        /* \"#utility.yul\":480:515   */\n      eq\n        /* \"#utility.yul\":470:533   */\n      tag_97\n      jumpi\n        /* \"#utility.yul\":529:530   */\n      0x00\n        /* \"#utility.yul\":526:527   */\n      0x00\n        /* \"#utility.yul\":519:531   */\n      revert\n        /* \"#utility.yul\":470:533   */\n    tag_97:\n        /* \"#utility.yul\":417:539   */\n      pop\n      jump\t// out\n        /* \"#utility.yul\":545:684   */\n    tag_64:\n        /* \"#utility.yul\":591:596   */\n      0x00\n        /* \"#utility.yul\":629:635   */\n      dup2\n        /* \"#utility.yul\":616:636   */\n      calldataload\n        /* \"#utility.yul\":607:636   */\n      swap1\n      pop\n        /* \"#utility.yul\":645:678   */\n      tag_99\n        /* \"#utility.yul\":672:677   */\n      dup2\n        /* \"#utility.yul\":645:678   */\n      tag_63\n      jump\t// in\n    tag_99:\n        /* \"#utility.yul\":545:684   */\n      swap3\n      swap2\n      pop\n      pop\n      jump\t// out\n        /* \"#utility.yul\":690:1164   */\n    tag_11:\n        /* \"#utility.yul\":758:764   */\n      0x00\n        /* \"#utility.yul\":766:772   */\n      0x00\n        /* \"#utility.yul\":815:817   */\n      0x40\n        /* \"#utility.yul\":803:812   */\n      dup4\n        /* \"#utility.yul\":794:801   */\n      dup6\n        /* \"#utility.yul\":790:813   */\n      sub\n        /* \"#utility.yul\":786:818   */\n      slt\n        /* \"#utility.yul\":783:902   */\n      iszero\n      tag_101\n      jumpi\n        /* \"#utility.yul\":821:900   */\n      tag_102\n      tag_60\n      jump\t// in\n    tag_102:\n        /* \"#utility.yul\":783:902   */\n    tag_101:\n        /* \"#utility.yul\":941:942   */\n      0x00\n        /* \"#utility.yul\":966:1019   */\n      tag_103\n        /* \"#utility.yul\":1011:1018   */\n      dup6\n        /* \"#utility.yul\":1002:1008   */\n      dup3\n        /* \"#utility.yul\":991:1000   */\n      dup7\n        /* \"#utility.yul\":987:1009   */\n      add\n        /* \"#utility.yul\":966:1019   */\n      tag_64\n      jump\t// in\n    tag_103:\n        /* \"#utility.yul\":956:1019   */\n      swap3\n      pop\n        /* \"#utility.yul\":912:1029   */\n      pop\n        /* \"#utility.yul\":1068:1070   */\n      0x20\n        /* \"#utility.yul\":1094:1147   */\n      tag_104\n        /* \"#utility.yul\":1139:1146   */\n      dup6\n        /* \"#utility.yul\":1130:1136   */\n      dup3\n        /* \"#utility.yul\":1119:1128   */\n      dup7\n        /* \"#utility.yul\":1115:1137   */\n      add\n        /* \"#utility.yul\":1094:1147   */\n      tag_64\n      jump\t// in\n    tag_104:\n        /* \"#utility.yul\":1084:1147   */\n      swap2\n      pop\n        /* \"#utility.yul\":1039:1157   */\n      pop\n        /* \"#utility.yul\":690:1164   */\n      swap3\n      pop\n      swap3\n      swap1\n      pop\n      jump\t// out\n        /* \"#utility.yul\":1170:1269   */\n    tag_65:\n        /* \"#utility.yul\":1222:1228   */\n      0x00\n        /* \"#utility.yul\":1256:1261   */\n      dup2\n        /* \"#utility.yul\":1250:1262   */\n      mload\n        /* \"#utility.yul\":1240:1262   */\n      swap1\n      pop\n        /* \"#utility.yul\":1170:1269   */\n      swap2\n      swap1\n      pop\n      jump\t// out\n        /* \"#utility.yul\":1275:1444   */\n    tag_66:\n        /* \"#utility.yul\":1359:1370   */\n      0x00\n        /* \"#utility.yul\":1393:1399   */\n      dup3\n        /* \"#utility.yul\":1388:1391   */\n      dup3\n        /* \"#utility.yul\":1381:1400   */\n      mstore\n        /* \"#utility.yul\":1433:1437   */\n      0x20\n        /* \"#utility.yul\":1428:1431   */\n      dup3\n        /* \"#utility.yul\":1424:1438   */\n      add\n        /* \"#utility.yul\":1409:1438   */\n      swap1\n      pop\n        /* \"#utility.yul\":1275:1444   */\n      swap3\n      swap2\n      pop\n      pop\n      jump\t// out\n        /* \"#utility.yul\":1450:1589   */\n    tag_67:\n        /* \"#utility.yul\":1539:1545   */\n      dup3\n        /* \"#utility.yul\":1534:1537   */\n      dup2\n        /* \"#utility.yul\":1529:1532   */\n      dup4\n        /* \"#utility.yul\":1523:1546   */\n      mcopy\n        /* \"#utility.yul\":1580:1581   */\n      0x00\n        /* \"#utility.yul\":1571:1577   */\n      dup4\n        /* \"#utility.yul\":1566:1569   */\n      dup4\n        /* \"#utility.yul\":1562:1578   */\n      add\n        /* \"#utility.yul\":1555:1582   */\n      mstore\n        /* \"#utility.yul\":1450:1589   */\n      pop\n      pop\n      pop\n      jump\t// out\n        /* \"#utility.yul\":1595:1697   */\n    tag_68:\n        /* \"#utility.yul\":1636:1642   */\n      0x00\n        /* \"#utility.yul\":1687:1689   */\n      0x1f\n        /* \"#utility.yul\":1683:1690   */\n      not\n        /* \"#utility.yul\":1678:1680   */\n      0x1f\n        /* \"#utility.yul\":1671:1676   */\n      dup4\n        /* \"#utility.yul\":1667:1681   */\n      add\n        /* \"#utility.yul\":1663:1691   */\n      and\n        /* \"#utility.yul\":1653:1691   */\n      swap1\n      pop\n        /* \"#utility.yul\":1595:1697   */\n      swap2\n      swap1\n      pop\n      jump\t// out\n        /* \"#utility.yul\":1703:2080   */\n    tag_69:\n        /* \"#utility.yul\":1791:1794   */\n      0x00\n        /* \"#utility.yul\":1819:1858   */\n      tag_110\n        /* \"#utility.yul\":1852:1857   */\n      dup3\n        /* \"#utility.yul\":1819:1858   */\n      tag_65\n      jump\t// in\n    tag_110:\n        /* \"#utility.yul\":1874:1945   */\n      tag_111\n        /* \"#utility.yul\":1938:1944   */\n      dup2\n        /* \"#utility.yul\":1933:1936   */\n      dup6\n        /* \"#utility.yul\":1874:1945   */\n      tag_66\n      jump\t// in\n    tag_111:\n        /* \"#utility.yul\":1867:1945   */\n      swap4\n      pop\n        /* \"#utility.yul\":1954:2019   */\n      tag_112\n        /* \"#utility.yul\":2012:2018   */\n      dup2\n        /* \"#utility.yul\":2007:2010   */\n      dup6\n        /* \"#utility.yul\":2000:2004   */\n      0x20\n        /* \"#utility.yul\":1993:1998   */\n      dup7\n        /* \"#utility.yul\":1989:2005   */\n      add\n        /* \"#utility.yul\":1954:2019   */\n      tag_67\n      jump\t// in\n    tag_112:\n        /* \"#utility.yul\":2044:2073   */\n      tag_113\n        /* \"#utility.yul\":2066:2072   */\n      dup2\n        /* \"#utility.yul\":2044:2073   */\n      tag_68\n      jump\t// in\n    tag_113:\n        /* \"#utility.yul\":2039:2042   */\n      dup5\n        /* \"#utility.yul\":2035:2074   */\n      add\n        /* \"#utility.yul\":2028:2074   */\n      swap2\n      pop\n        /* \"#utility.yul\":1795:2080   */\n      pop\n        /* \"#utility.yul\":1703:2080   */\n      swap3\n      swap2\n      pop\n      pop\n      jump\t// out\n        /* \"#utility.yul\":2086:2399   */\n    tag_16:\n        /* \"#utility.yul\":2199:2203   */\n      0x00\n        /* \"#utility.yul\":2237:2239   */\n      0x20\n        /* \"#utility.yul\":2226:2235   */\n      dup3\n        /* \"#utility.yul\":2222:2240   */\n      add\n        /* \"#utility.yul\":2214:2240   */\n      swap1\n      pop\n        /* \"#utility.yul\":2286:2295   */\n      dup2\n        /* \"#utility.yul\":2280:2284   */\n      dup2\n        /* \"#utility.yul\":2276:2296   */\n      sub\n        /* \"#utility.yul\":2272:2273   */\n      0x00\n        /* \"#utility.yul\":2261:2270   */\n      dup4\n        /* \"#utility.yul\":2257:2274   */\n      add\n        /* \"#utility.yul\":2250:2297   */\n      mstore\n        /* \"#utility.yul\":2314:2392   */\n      tag_115\n        /* \"#utility.yul\":2387:2391   */\n      dup2\n        /* \"#utility.yul\":2378:2384   */\n      dup5\n        /* \"#utility.yul\":2314:2392   */\n      tag_69\n      jump\t// in\n    tag_115:\n        /* \"#utility.yul\":2306:2392   */\n      swap1\n      pop\n        /* \"#utility.yul\":2086:2399   */\n      swap3\n      swap2\n      pop\n      pop\n      jump\t// out\n        /* \"#utility.yul\":2405:2523   */\n    tag_70:\n        /* \"#utility.yul\":2492:2516   */\n      tag_117\n        /* \"#utility.yul\":2510:2515   */\n      dup2\n        /* \"#utility.yul\":2492:2516   */\n      tag_62\n      jump\t// in\n    tag_117:\n        /* \"#utility.yul\":2487:2490   */\n      dup3\n        /* \"#utility.yul\":2480:2517   */\n      mstore\n        /* \"#utility.yul\":2405:2523   */\n      pop\n      pop\n      jump\t// out\n        /* \"#utility.yul\":2529:2751   */\n    tag_26:\n        /* \"#utility.yul\":2622:2626   */\n      0x00\n        /* \"#utility.yul\":2660:2662   */\n      0x20\n        /* \"#utility.yul\":2649:2658   */\n      dup3\n        /* \"#utility.yul\":2645:2663   */\n      add\n        /* \"#utility.yul\":2637:2663   */\n      swap1\n      pop\n        /* \"#utility.yul\":2673:2744   */\n      tag_119\n        /* \"#utility.yul\":2741:2742   */\n      0x00\n        /* \"#utility.yul\":2730:2739   */\n      dup4\n        /* \"#utility.yul\":2726:2743   */\n      add\n        /* \"#utility.yul\":2717:2723   */\n      dup5\n        /* \"#utility.yul\":2673:2744   */\n      tag_70\n      jump\t// in\n    tag_119:\n        /* \"#utility.yul\":2529:2751   */\n      swap3\n      swap2\n      pop\n      pop\n      jump\t// out\n        /* \"#utility.yul\":2757:2937   */\n    tag_71:\n        /* \"#utility.yul\":2805:2882   */\n      0x4e487b7100000000000000000000000000000000000000000000000000000000\n        /* \"#utility.yul\":2802:2803   */\n      0x00\n        /* \"#utility.yul\":2795:2883   */\n      mstore\n        /* \"#utility.yul\":2902:2906   */\n      0x41\n        /* \"#utility.yul\":2899:2900   */\n      0x04\n        /* \"#utility.yul\":2892:2907   */\n      mstore\n        /* \"#utility.yul\":2926:2930   */\n      0x24\n        /* \"#utility.yul\":2923:2924   */\n      0x00\n        /* \"#utility.yul\":2916:2931   */\n      revert\n        /* \"#utility.yul\":2943:3123   */\n    tag_72:\n        /* \"#utility.yul\":2991:3068   */\n      0x4e487b7100000000000000000000000000000000000000000000000000000000\n        /* \"#utility.yul\":2988:2989   */\n      0x00\n        /* \"#utility.yul\":2981:3069   */\n      mstore\n        /* \"#utility.yul\":3088:3092   */\n      0x22\n        /* \"#utility.yul\":3085:3086   */\n      0x04\n        /* \"#utility.yul\":3078:3093   */\n      mstore\n        /* \"#utility.yul\":3112:3116   */\n      0x24\n        /* \"#utility.yul\":3109:3110   */\n      0x00\n        /* \"#utility.yul\":3102:3117   */\n      revert\n        /* \"#utility.yul\":3129:3449   */\n    tag_40:\n        /* \"#utility.yul\":3173:3179   */\n      0x00\n        /* \"#utility.yul\":3210:3211   */\n      0x02\n        /* \"#utility.yul\":3204:3208   */\n      dup3\n        /* \"#utility.yul\":3200:3212   */\n      div\n        /* \"#utility.yul\":3190:3212   */\n      swap1\n      pop\n        /* \"#utility.yul\":3257:3258   */\n      0x01\n        /* \"#utility.yul\":3251:3255   */\n      dup3\n        /* \"#utility.yul\":3247:3259   */\n      and\n        /* \"#utility.yul\":3278:3296   */\n      dup1\n        /* \"#utility.yul\":3268:3349   */\n      tag_123\n      jumpi\n        /* \"#utility.yul\":3334:3338   */\n      0x7f\n        /* \"#utility.yul\":3326:3332   */\n      dup3\n        /* \"#utility.yul\":3322:3339   */\n      and\n        /* \"#utility.yul\":3312:3339   */\n      swap2\n      pop\n        /* \"#utility.yul\":3268:3349   */\n    tag_123:\n        /* \"#utility.yul\":3396:3398   */\n      0x20\n        /* \"#utility.yul\":3388:3394   */\n      dup3\n        /* \"#utility.yul\":3385:3399   */\n      lt\n        /* \"#utility.yul\":3365:3383   */\n      dup2\n        /* \"#utility.yul\":3362:3400   */\n      sub\n        /* \"#utility.yul\":3359:3443   */\n      tag_124\n      jumpi\n        /* \"#utility.yul\":3415:3433   */\n      tag_125\n      tag_72\n      jump\t// in\n    tag_125:\n        /* \"#utility.yul\":3359:3443   */\n    tag_124:\n        /* \"#utility.yul\":3180:3449   */\n      pop\n        /* \"#utility.yul\":3129:3449   */\n      swap2\n      swap1\n      pop\n      jump\t// out\n        /* \"#utility.yul\":3455:3596   */\n    tag_73:\n        /* \"#utility.yul\":3504:3508   */\n      0x00\n        /* \"#utility.yul\":3527:3530   */\n      dup2\n        /* \"#utility.yul\":3519:3530   */\n      swap1\n      pop\n        /* \"#utility.yul\":3550:3553   */\n      dup2\n        /* \"#utility.yul\":3547:3548   */\n      0x00\n        /* \"#utility.yul\":3540:3554   */\n      mstore\n        /* \"#utility.yul\":3584:3588   */\n      0x20\n        /* \"#utility.yul\":3581:3582   */\n      0x00\n        /* \"#utility.yul\":3571:3589   */\n      keccak256\n        /* \"#utility.yul\":3563:3589   */\n      swap1\n      pop\n        /* \"#utility.yul\":3455:3596   */\n      swap2\n      swap1\n      pop\n      jump\t// out\n        /* \"#utility.yul\":3602:3695   */\n    tag_74:\n        /* \"#utility.yul\":3639:3645   */\n      0x00\n        /* \"#utility.yul\":3686:3688   */\n      0x20\n        /* \"#utility.yul\":3681:3683   */\n      0x1f\n        /* \"#utility.yul\":3674:3679   */\n      dup4\n        /* \"#utility.yul\":3670:3684   */\n      add\n        /* \"#utility.yul\":3666:3689   */\n      div\n        /* \"#utility.yul\":3656:3689   */\n      swap1\n      pop\n        /* \"#utility.yul\":3602:3695   */\n      swap2\n      swap1\n      pop\n      jump\t// out\n        /* \"#utility.yul\":3701:3808   */\n    tag_75:\n        /* \"#utility.yul\":3745:3753   */\n      0x00\n        /* \"#utility.yul\":3795:3800   */\n      dup3\n        /* \"#utility.yul\":3789:3793   */\n      dup3\n        /* \"#utility.yul\":3785:3801   */\n      shl\n        /* \"#utility.yul\":3764:3801   */\n      swap1\n      pop\n        /* \"#utility.yul\":3701:3808   */\n      swap3\n      swap2\n      pop\n      pop\n      jump\t// out\n        /* \"#utility.yul\":3814:4207   */\n    tag_76:\n        /* \"#utility.yul\":3883:3889   */\n      0x00\n        /* \"#utility.yul\":3933:3934   */\n      0x08\n        /* \"#utility.yul\":3921:3931   */\n      dup4\n        /* \"#utility.yul\":3917:3935   */\n      mul\n        /* \"#utility.yul\":3956:4053   */\n      tag_130\n        /* \"#utility.yul\":3986:4052   */\n      0xffffffffffffffffffffffffffffffffffffffffffffffffffffffffffffffff\n        /* \"#utility.yul\":3975:3984   */\n      dup3\n        /* \"#utility.yul\":3956:4053   */\n      tag_75\n      jump\t// in\n    tag_130:\n        /* \"#utility.yul\":4074:4113   */\n      tag_131\n        /* \"#utility.yul\":4104:4112   */\n      dup7\n        /* \"#utility.yul\":4093:4102   */\n      dup4\n        /* \"#utility.yul\":4074:4113   */\n      tag_75\n      jump\t// in\n    tag_131:\n        /* \"#utility.yul\":4062:4113   */\n      swap6\n      pop\n        /* \"#utility.yul\":4146:4150   */\n      dup1\n        /* \"#utility.yul\":4142:4151   */\n      not\n        /* \"#utility.yul\":4135:4140   */\n      dup5\n        /* \"#utility.yul\":4131:4152   */\n      and\n        /* \"#utility.yul\":4122:4152   */\n      swap4\n      pop\n        /* \"#utility.yul\":4195:4199   */\n      dup1\n        /* \"#utility.yul\":4185:4193   */\n      dup7\n        /* \"#utility.yul\":4181:4200   */\n      and\n        /* \"#utility.yul\":4174:4179   */\n      dup5\n        /* \"#utility.yul\":4171:4201   */\n      or\n        /* \"#utility.yul\":4161:4201   */\n      swap3\n      pop\n        /* \"#utility.yul\":3890:4207   */\n      pop\n      pop\n        /* \"#utility.yul\":3814:4207   */\n      swap4\n      swap3\n      pop\n      pop\n      pop\n      jump\t// out\n        /* \"#utility.yul\":4213:4273   */\n    tag_77:\n        /* \"#utility.yul\":4241:4244   */\n      0x00\n        /* \"#utility.yul\":4262:4267   */\n      dup2\n        /* \"#utility.yul\":4255:4267   */\n      swap1\n      pop\n        /* \"#utility.yul\":4213:4273   */\n      swap2\n      swap1\n      pop\n      jump\t// out\n        /* \"#utility.yul\":4279:4421   */\n    tag_78:\n        /* \"#utility.yul\":4329:4338   */\n      0x00\n        /* \"#utility.yul\":4362:4415   */\n      tag_134\n        /* \"#utility.yul\":4380:4414   */\n      tag_135\n        /* \"#utility.yul\":4389:4413   */\n      tag_136\n        /* \"#utility.yul\":4407:4412   */\n      dup5\n        /* \"#utility.yul\":4389:4413   */\n      tag_62\n      jump\t// in\n    tag_136:\n        /* \"#utility.yul\":4380:4414   */\n      tag_77\n      jump\t// in\n    tag_135:\n        /* \"#utility.yul\":4362:4415   */\n      tag_62\n      jump\t// in\n    tag_134:\n        /* \"#utility.yul\":4349:4415   */\n      swap1\n      pop\n        /* \"#utility.yul\":4279:4421   */\n      swap2\n      swap1\n      pop\n      jump\t// out\n        /* \"#utility.yul\":4427:4502   */\n    tag_79:\n        /* \"#utility.yul\":4470:4473   */\n      0x00\n        /* \"#utility.yul\":4491:4496   */\n      dup2\n        /* \"#utility.yul\":4484:4496   */\n      swap1\n      pop\n        /* \"#utility.yul\":4427:4502   */\n      swap2\n      swap1\n      pop\n      jump\t// out\n        /* \"#utility.yul\":4508:4777   */\n    tag_80:\n        /* \"#utility.yul\":4618:4657   */\n      tag_139\n        /* \"#utility.yul\":4649:4656   */\n      dup4\n        /* \"#utility.yul\":4618:4657   */\n      tag_78\n      jump\t// in\n    tag_139:\n        /* \"#utility.yul\":4679:4770   */\n      tag_140\n        /* \"#utility.yul\":4728:4769   */\n      tag_141\n        /* \"#utility.yul\":4752:4768   */\n      dup3\n        /* \"#utility.yul\":4728:4769   */\n      tag_79\n      jump\t// in\n    tag_141:\n        /* \"#utility.yul\":4720:4726   */\n      dup5\n        /* \"#utility.yul\":4713:4717   */\n      dup5\n        /* \"#utility.yul\":4707:4718   */\n      sload\n        /* \"#utility.yul\":4679:4770   */\n      tag_76\n      jump\t// in\n    tag_140:\n        /* \"#utility.yul\":4673:4677   */\n      dup3\n        /* \"#utility.yul\":4666:4771   */\n      sstore\n        /* \"#utility.yul\":4584:4777   */\n      pop\n        /* \"#utility.yul\":4508:4777   */\n      pop\n      pop\n      pop\n      jump\t// out\n        /* \"#utility.yul\":4783:4856   */\n    tag_81:\n        /* \"#utility.yul\":4828:4831   */\n      0x00\n        /* \"#utility.yul\":4849:4850   */\n      0x00\n        /* \"#utility.yul\":4842:4850   */\n      swap1\n      pop\n        /* \"#utility.yul\":4783:4856   */\n      swap1\n      jump\t// out\n        /* \"#utility.yul\":4862:5051   */\n    tag_82:\n        /* \"#utility.yul\":4939:4971   */\n      tag_144\n      tag_81\n      jump\t// in\n    tag_144:\n        /* \"#utility.yul\":4980:5045   */\n      tag_145\n        /* \"#utility.yul\":5038:5044   */\n      dup2\n        /* \"#utility.yul\":5030:5036   */\n      dup5\n        /* \"#utility.yul\":5024:5028   */\n      dup5\n        /* \"#utility.yul\":4980:5045   */\n      tag_80\n      jump\t// in\n    tag_145:\n        /* \"#utility.yul\":4915:5051   */\n      pop\n        /* \"#utility.yul\":4862:5051   */\n      pop\n      pop\n      jump\t// out\n        /* \"#utility.yul\":5057:5243   */\n    tag_83:\n        /* \"#utility.yul\":5117:5237   */\n    tag_147:\n        /* \"#utility.yul\":5134:5137   */\n      dup2\n        /* \"#utility.yul\":5127:5132   */\n      dup2\n        /* \"#utility.yul\":5124:5138   */\n      lt\n        /* \"#utility.yul\":5117:5237   */\n      iszero\n      tag_149\n      jumpi\n        /* \"#utility.yul\":5188:5227   */\n      tag_150\n        /* \"#utility.yul\":5225:5226   */\n      0x00\n        /* \"#utility.yul\":5218:5223   */\n      dup3\n        /* \"#utility.yul\":5188:5227   */\n      tag_82\n      jump\t// in\n    tag_150:\n        /* \"#utility.yul\":5161:5162   */\n      0x01\n        /* \"#utility.yul\":5154:5159   */\n      dup2\n        /* \"#utility.yul\":5150:5163   */\n      add\n        /* \"#utility.yul\":5141:5163   */\n      swap1\n      pop\n        /* \"#utility.yul\":5117:5237   */\n      jump(tag_147)\n    tag_149:\n        /* \"#utility.yul\":5057:5243   */\n      pop\n      pop\n      jump\t// out\n        /* \"#utility.yul\":5249:5792   */\n    tag_84:\n        /* \"#utility.yul\":5350:5352   */\n      0x1f\n        /* \"#utility.yul\":5345:5348   */\n      dup3\n        /* \"#utility.yul\":5342:5353   */\n      gt\n        /* \"#utility.yul\":5339:5785   */\n      iszero\n      tag_152\n      jumpi\n        /* \"#utility.yul\":5384:5422   */\n      tag_153\n        /* \"#utility.yul\":5416:5421   */\n      dup2\n        /* \"#utility.yul\":5384:5422   */\n      tag_73\n      jump\t// in\n    tag_153:\n        /* \"#utility.yul\":5468:5497   */\n      tag_154\n        /* \"#utility.yul\":5486:5496   */\n      dup5\n        /* \"#utility.yul\":5468:5497   */\n      tag_74\n      jump\t// in\n    tag_154:\n        /* \"#utility.yul\":5458:5466   */\n      dup2\n        /* \"#utility.yul\":5454:5498   */\n      add\n        /* \"#utility.yul\":5651:5653   */\n      0x20\n        /* \"#utility.yul\":5639:5649   */\n      dup6\n        /* \"#utility.yul\":5636:5654   */\n      lt\n        /* \"#utility.yul\":5633:5682   */\n      iszero\n      tag_155\n      jumpi\n        /* \"#utility.yul\":5672:5680   */\n      dup2\n        /* \"#utility.yul\":5657:5680   */\n      swap1\n      pop\n        /* \"#utility.yul\":5633:5682   */\n    tag_155:\n        /* \"#utility.yul\":5695:5775   */\n      tag_156\n        /* \"#utility.yul\":5751:5773   */\n      tag_157\n        /* \"#utility.yul\":5769:5772   */\n      dup6\n        /* \"#utility.yul\":5751:5773   */\n      tag_74\n      jump\t// in\n    tag_157:\n        /* \"#utility.yul\":5741:5749   */\n      dup4\n        /* \"#utility.yul\":5737:5774   */\n      add\n        /* \"#utility.yul\":5724:5735   */\n      dup3\n        /* \"#utility.yul\":5695:5775   */\n      tag_83\n      jump\t// in\n    tag_156:\n        /* \"#utility.yul\":5354:5785   */\n      pop\n      pop\n        /* \"#utility.yul\":5339:5785   */\n    tag_152:\n        /* \"#utility.yul\":5249:5792   */\n      pop\n      pop\n      pop\n      jump\t// out\n        /* \"#utility.yul\":5798:5915   */\n    tag_85:\n        /* \"#utility.yul\":5852:5860   */\n      0x00\n        /* \"#utility.yul\":5902:5907   */\n      dup3\n        /* \"#utility.yul\":5896:5900   */\n      dup3\n        /* \"#utility.yul\":5892:5908   */\n      shr\n        /* \"#utility.yul\":5871:5908   */\n      swap1\n      pop\n        /* \"#utility.yul\":5798:5915   */\n      swap3\n      swap2\n      pop\n      pop\n      jump\t// out\n        /* \"#utility.yul\":5921:6090   */\n    tag_86:\n        /* \"#utility.yul\":5965:5971   */\n      0x00\n        /* \"#utility.yul\":5998:6049   */\n      tag_160\n        /* \"#utility.yul\":6046:6047   */\n      0x00\n        /* \"#utility.yul\":6042:6048   */\n      not\n        /* \"#utility.yul\":6034:6039   */\n      dup5\n        /* \"#utility.yul\":6031:6032   */\n      0x08\n        /* \"#utility.yul\":6027:6040   */\n      mul\n        /* \"#utility.yul\":5998:6049   */\n      tag_85\n      jump\t// in\n    tag_160:\n        /* \"#utility.yul\":5994:6050   */\n      not\n        /* \"#utility.yul\":6079:6083   */\n      dup1\n        /* \"#utility.yul\":6073:6077   */\n      dup4\n        /* \"#utility.yul\":6069:6084   */\n      and\n        /* \"#utility.yul\":6059:6084   */\n      swap2\n      pop\n        /* \"#utility.yul\":5972:6090   */\n      pop\n        /* \"#utility.yul\":5921:6090   */\n      swap3\n      swap2\n      pop\n      pop\n      jump\t// out\n        /* \"#utility.yul\":6095:6390   */\n    tag_87:\n        /* \"#utility.yul\":6171:6175   */\n      0x00\n        /* \"#utility.yul\":6317:6346   */\n      tag_162\n        /* \"#utility.yul\":6342:6345   */\n      dup4\n        /* \"#utility.yul\":6336:6340   */\n      dup4\n        /* \"#utility.yul\":6317:6346   */\n      tag_86\n      jump\t// in\n    tag_162:\n        /* \"#utility.yul\":6309:6346   */\n      swap2\n      pop\n        /* \"#utility.yul\":6379:6382   */\n      dup3\n        /* \"#utility.yul\":6376:6377   */\n      0x02\n        /* \"#utility.yul\":6372:6383   */\n      mul\n        /* \"#utility.yul\":6366:6370   */\n      dup3\n        /* \"#utility.yul\":6363:6384   */\n      or\n        /* \"#utility.yul\":6355:6384   */\n      swap1\n      pop\n        /* \"#utility.yul\":6095:6390   */\n      swap3\n      swap2\n      pop\n      pop\n      jump\t// out\n        /* \"#utility.yul\":6395:7790   */\n    tag_33:\n        /* \"#utility.yul\":6512:6549   */\n      tag_164\n        /* \"#utility.yul\":6545:6548   */\n      dup3\n        /* \"#utility.yul\":6512:6549   */\n      tag_65\n      jump\t// in\n    tag_164:\n        /* \"#utility.yul\":6614:6632   */\n      0xffffffffffffffff\n        /* \"#utility.yul\":6606:6612   */\n      dup2\n        /* \"#utility.yul\":6603:6633   */\n      gt\n        /* \"#utility.yul\":6600:6656   */\n      iszero\n      tag_165\n      jumpi\n        /* \"#utility.yul\":6636:6654   */\n      tag_166\n      tag_71\n      jump\t// in\n    tag_166:\n        /* \"#utility.yul\":6600:6656   */\n    tag_165:\n        /* \"#utility.yul\":6680:6718   */\n      tag_167\n        /* \"#utility.yul\":6712:6716   */\n      dup3\n        /* \"#utility.yul\":6706:6717   */\n      sload\n        /* \"#utility.yul\":6680:6718   */\n      tag_40\n      jump\t// in\n    tag_167:\n        /* \"#utility.yul\":6765:6832   */\n      tag_168\n        /* \"#utility.yul\":6825:6831   */\n      dup3\n        /* \"#utility.yul\":6817:6823   */\n      dup3\n        /* \"#utility.yul\":6811:6815   */\n      dup6\n        /* \"#utility.yul\":6765:6832   */\n      tag_84\n      jump\t// in\n    tag_168:\n        /* \"#utility.yul\":6859:6860   */\n      0x00\n        /* \"#utility.yul\":6883:6887   */\n      0x20\n        /* \"#utility.yul\":6870:6887   */\n      swap1\n      pop\n        /* \"#utility.yul\":6915:6917   */\n      0x1f\n        /* \"#utility.yul\":6907:6913   */\n      dup4\n        /* \"#utility.yul\":6904:6918   */\n      gt\n        /* \"#utility.yul\":6932:6933   */\n      0x01\n        /* \"#utility.yul\":6927:7545   */\n      dup2\n      eq\n      tag_170\n      jumpi\n        /* \"#utility.yul\":7589:7590   */\n      0x00\n        /* \"#utility.yul\":7606:7612   */\n      dup5\n        /* \"#utility.yul\":7603:7680   */\n      iszero\n      tag_171\n      jumpi\n        /* \"#utility.yul\":7655:7664   */\n      dup3\n        /* \"#utility.yul\":7650:7653   */\n      dup8\n        /* \"#utility.yul\":7646:7665   */\n      add\n        /* \"#utility.yul\":7640:7666   */\n      mload\n        /* \"#utility.yul\":7631:7666   */\n      swap1\n      pop\n        /* \"#utility.yul\":7603:7680   */\n    tag_171:\n        /* \"#utility.yul\":7706:7773   */\n      tag_172\n        /* \"#utility.yul\":7766:7772   */\n      dup6\n        /* \"#utility.yul\":7759:7764   */\n      dup3\n        /* \"#utility.yul\":7706:7773   */\n      tag_87\n      jump\t// in\n    tag_172:\n        /* \"#utility.yul\":7700:7704   */\n      dup7\n        /* \"#utility.yul\":7693:7774   */\n      sstore\n        /* \"#utility.yul\":7562:7784   */\n      pop\n        /* \"#utility.yul\":6897:7784   */\n      jump(tag_169)\n        /* \"#utility.yul\":6927:7545   */\n    tag_170:\n        /* \"#utility.yul\":6979:6983   */\n      0x1f\n        /* \"#utility.yul\":6975:6984   */\n      not\n        /* \"#utility.yul\":6967:6973   */\n      dup5\n        /* \"#utility.yul\":6963:6985   */\n      and\n        /* \"#utility.yul\":7013:7050   */\n      tag_173\n        /* \"#utility.yul\":7045:7049   */\n      dup7\n        /* \"#utility.yul\":7013:7050   */\n      tag_73\n      jump\t// in\n    tag_173:\n        /* \"#utility.yul\":7072:7073   */\n      0x00\n        /* \"#utility.yul\":7086:7294   */\n    tag_174:\n        /* \"#utility.yul\":7100:7107   */\n      dup3\n        /* \"#utility.yul\":7097:7098   */\n      dup2\n        /* \"#utility.yul\":7094:7108   */\n      lt\n        /* \"#utility.yul\":7086:7294   */\n      iszero\n      tag_176\n      jumpi\n        /* \"#utility.yul\":7179:7188   */\n      dup5\n        /* \"#utility.yul\":7174:7177   */\n      dup10\n        /* \"#utility.yul\":7170:7189   */\n      add\n        /* \"#utility.yul\":7164:7190   */\n      mload\n        /* \"#utility.yul\":7156:7162   */\n      dup3\n        /* \"#utility.yul\":7149:7191   */\n      sstore\n        /* \"#utility.yul\":7230:7231   */\n      0x01\n        /* \"#utility.yul\":7222:7228   */\n      dup3\n        /* \"#utility.yul\":7218:7232   */\n      add\n        /* \"#utility.yul\":7208:7232   */\n      swap2\n      pop\n        /* \"#utility.yul\":7277:7279   */\n      0x20\n        /* \"#utility.yul\":7266:7275   */\n      dup6\n        /* \"#utility.yul\":7262:7280   */\n      add\n        /* \"#utility.yul\":7249:7280   */\n      swap5\n      pop\n        /* \"#utility.yul\":7123:7127   */\n      0x20\n        /* \"#utility.yul\":7120:7121   */\n      dup2\n        /* \"#utility.yul\":7116:7128   */\n      add\n        /* \"#utility.yul\":7111:7128   */\n      swap1\n      pop\n        /* \"#utility.yul\":7086:7294   */\n      jump(tag_174)\n    tag_176:\n        /* \"#utility.yul\":7322:7328   */\n      dup7\n        /* \"#utility.yul\":7313:7320   */\n      dup4\n        /* \"#utility.yul\":7310:7329   */\n      lt\n        /* \"#utility.yul\":7307:7486   */\n      iszero\n      tag_177\n      jumpi\n        /* \"#utility.yul\":7380:7389   */\n      dup5\n        /* \"#utility.yul\":7375:7378   */\n      dup10\n        /* \"#utility.yul\":7371:7390   */\n      add\n        /* \"#utility.yul\":7365:7391   */\n      mload\n        /* \"#utility.yul\":7423:7471   */\n      tag_178\n        /* \"#utility.yul\":7465:7469   */\n      0x1f\n        /* \"#utility.yul\":7457:7463   */\n      dup10\n        /* \"#utility.yul\":7453:7470   */\n      and\n        /* \"#utility.yul\":7442:7451   */\n      dup3\n        /* \"#utility.yul\":7423:7471   */\n      tag_86\n      jump\t// in\n    tag_178:\n        /* \"#utility.yul\":7415:7421   */\n      dup4\n        /* \"#utility.yul\":7408:7472   */\n      sstore\n        /* \"#utility.yul\":7330:7486   */\n      pop\n        /* \"#utility.yul\":7307:7486   */\n    tag_177:\n        /* \"#utility.yul\":7532:7533   */\n      0x01\n        /* \"#utility.yul\":7528:7529   */\n      0x02\n        /* \"#utility.yul\":7520:7526   */\n      dup9\n        /* \"#utility.yul\":7516:7530   */\n      mul\n        /* \"#utility.yul\":7512:7534   */\n      add\n        /* \"#utility.yul\":7506:7510   */\n      dup9\n        /* \"#utility.yul\":7499:7535   */\n      sstore\n        /* \"#utility.yul\":6934:7545   */\n      pop\n      pop\n      pop\n        /* \"#utility.yul\":6897:7784   */\n    tag_169:\n      pop\n        /* \"#utility.yul\":6487:7790   */\n      pop\n      pop\n      pop\n        /* \"#utility.yul\":6395:7790   */\n      pop\n      pop\n      jump\t// out\n        /* \"#utility.yul\":7796:7976   */\n    tag_88:\n        /* \"#utility.yul\":7844:7921   */\n      0x4e487b7100000000000000000000000000000000000000000000000000000000\n        /* \"#utility.yul\":7841:7842   */\n      0x00\n        /* \"#utility.yul\":7834:7922   */\n      mstore\n        /* \"#utility.yul\":7941:7945   */\n      0x11\n        /* \"#utility.yul\":7938:7939   */\n      0x04\n        /* \"#utility.yul\":7931:7946   */\n      mstore\n        /* \"#utility.yul\":7965:7969   */\n      0x24\n        /* \"#utility.yul\":7962:7963   */\n      0x00\n        /* \"#utility.yul\":7955:7970   */\n      revert\n        /* \"#utility.yul\":7982:8176   */\n    tag_37:\n        /* \"#utility.yul\":8022:8026   */\n      0x00\n        /* \"#utility.yul\":8042:8062   */\n      tag_181\n        /* \"#utility.yul\":8060:8061   */\n      dup3\n        /* \"#utility.yul\":8042:8062   */\n      tag_62\n      jump\t// in\n    tag_181:\n        /* \"#utility.yul\":8037:8062   */\n      swap2\n      pop\n        /* \"#utility.yul\":8076:8096   */\n      tag_182\n        /* \"#utility.yul\":8094:8095   */\n      dup4\n        /* \"#utility.yul\":8076:8096   */\n      tag_62\n      jump\t// in\n    tag_182:\n        /* \"#utility.yul\":8071:8096   */\n      swap3\n      pop\n        /* \"#utility.yul\":8120:8121   */\n      dup3\n        /* \"#utility.yul\":8117:8118   */\n      dup3\n        /* \"#utility.yul\":8113:8122   */\n      sub\n        /* \"#utility.yul\":8105:8122   */\n      swap1\n      pop\n        /* \"#utility.yul\":8144:8145   */\n      dup2\n        /* \"#utility.yul\":8138:8142   */\n      dup2\n        /* \"#utility.yul\":8135:8146   */\n      gt\n        /* \"#utility.yul\":8132:8169   */\n      iszero\n      tag_183\n      jumpi\n        /* \"#utility.yul\":8149:8167   */\n      tag_184\n      tag_88\n      jump\t// in\n    tag_184:\n        /* \"#utility.yul\":8132:8169   */\n    tag_183:\n        /* \"#utility.yul\":7982:8176   */\n      swap3\n      swap2\n      pop\n      pop\n      jump\t// out\n        /* \"#utility.yul\":8182:8592   */\n    tag_47:\n        /* \"#utility.yul\":8222:8229   */\n      0x00\n        /* \"#utility.yul\":8245:8265   */\n      tag_186\n        /* \"#utility.yul\":8263:8264   */\n      dup3\n        /* \"#utility.yul\":8245:8265   */\n      tag_62\n      jump\t// in\n    tag_186:\n        /* \"#utility.yul\":8240:8265   */\n      swap2\n      pop\n        /* \"#utility.yul\":8279:8299   */\n      tag_187\n        /* \"#utility.yul\":8297:8298   */\n      dup4\n        /* \"#utility.yul\":8279:8299   */\n      tag_62\n      jump\t// in\n    tag_187:\n        /* \"#utility.yul\":8274:8299   */\n      swap3\n      pop\n        /* \"#utility.yul\":8334:8335   */\n      dup3\n        /* \"#utility.yul\":8331:8332   */\n      dup3\n        /* \"#utility.yul\":8327:8336   */\n      mul\n        /* \"#utility.yul\":8356:8386   */\n      tag_188\n        /* \"#utility.yul\":8374:8385   */\n      dup2\n        /* \"#utility.yul\":8356:8386   */\n      tag_62\n      jump\t// in\n    tag_188:\n        /* \"#utility.yul\":8345:8386   */\n      swap2\n      pop\n        /* \"#utility.yul\":8535:8536   */\n      dup3\n        /* \"#utility.yul\":8526:8533   */\n      dup3\n        /* \"#utility.yul\":8522:8537   */\n      div\n        /* \"#utility.yul\":8519:8520   */\n      dup5\n        /* \"#utility.yul\":8516:8538   */\n      eq\n        /* \"#utility.yul\":8496:8497   */\n      dup4\n        /* \"#utility.yul\":8489:8498   */\n      iszero\n        /* \"#utility.yul\":8469:8552   */\n      or\n        /* \"#utility.yul\":8446:8585   */\n      tag_189\n      jumpi\n        /* \"#utility.yul\":8565:8583   */\n      tag_190\n      tag_88\n      jump\t// in\n    tag_190:\n        /* \"#utility.yul\":8446:8585   */\n    tag_189:\n        /* \"#utility.yul\":8230:8592   */\n      pop\n        /* \"#utility.yul\":8182:8592   */\n      swap3\n      swap2\n      pop\n      pop\n      jump\t// out\n        /* \"#utility.yul\":8598:8789   */\n    tag_50:\n        /* \"#utility.yul\":8638:8641   */\n      0x00\n        /* \"#utility.yul\":8657:8677   */\n      tag_192\n        /* \"#utility.yul\":8675:8676   */\n      dup3\n        /* \"#utility.yul\":8657:8677   */\n      tag_62\n      jump\t// in\n    tag_192:\n        /* \"#utility.yul\":8652:8677   */\n      swap2\n      pop\n        /* \"#utility.yul\":8691:8711   */\n      tag_193\n        /* \"#utility.yul\":8709:8710   */\n      dup4\n        /* \"#utility.yul\":8691:8711   */\n      tag_62\n      jump\t// in\n    tag_193:\n        /* \"#utility.yul\":8686:8711   */\n      swap3\n      pop\n        /* \"#utility.yul\":8734:8735   */\n      dup3\n        /* \"#utility.yul\":8731:8732   */\n      dup3\n        /* \"#utility.yul\":8727:8736   */\n      add\n        /* \"#utility.yul\":8720:8736   */\n      swap1\n      pop\n        /* \"#utility.yul\":8755:8758   */\n      dup1\n        /* \"#utility.yul\":8752:8753   */\n      dup3\n        /* \"#utility.yul\":8749:8759   */\n      gt\n        /* \"#utility.yul\":8746:8782   */\n      iszero\n      tag_194\n      jumpi\n        /* \"#utility.yul\":8762:8780   */\n      tag_195\n      tag_88\n      jump\t// in\n    tag_195:\n        /* \"#utility.yul\":8746:8782   */\n    tag_194:\n        /* \"#utility.yul\":8598:8789   */\n      swap3\n      swap2\n      pop\n      pop\n      jump\t// out\n        /* \"#utility.yul\":8795:8975   */\n    tag_89:\n        /* \"#utility.yul\":8843:8920   */\n      0x4e487b7100000000000000000000000000000000000000000000000000000000\n        /* \"#utility.yul\":8840:8841   */\n      0x00\n        /* \"#utility.yul\":8833:8921   */\n      mstore\n        /* \"#utility.yul\":8940:8944   */\n      0x12\n        /* \"#utility.yul\":8937:8938   */\n      0x04\n        /* \"#utility.yul\":8930:8945   */\n      mstore\n        /* \"#utility.yul\":8964:8968   */\n      0x24\n        /* \"#utility.yul\":8961:8962   */\n      0x00\n        /* \"#utility.yul\":8954:8969   */\n      revert\n        /* \"#utility.yul\":8981:9166   */\n    tag_58:\n        /* \"#utility.yul\":9021:9022   */\n      0x00\n        /* \"#utility.yul\":9038:9058   */\n      tag_198\n        /* \"#utility.yul\":9056:9057   */\n      dup3\n        /* \"#utility.yul\":9038:9058   */\n      tag_62\n      jump\t// in\n    tag_198:\n        /* \"#utility.yul\":9033:9058   */\n      swap2\n      pop\n        /* \"#utility.yul\":9072:9092   */\n      tag_199\n        /* \"#utility.yul\":9090:9091   */\n      dup4\n        /* \"#utility.yul\":9072:9092   */\n      tag_62\n      jump\t// in\n    tag_199:\n        /* \"#utility.yul\":9067:9092   */\n      swap3\n      pop\n        /* \"#utility.yul\":9111:9112   */\n      dup3\n        /* \"#utility.yul\":9101:9136   */\n      tag_200\n      jumpi\n        /* \"#utility.yul\":9116:9134   */\n      tag_201\n      tag_89\n      jump\t// in\n    tag_201:\n        /* \"#utility.yul\":9101:9136   */\n    tag_200:\n        /* \"#utility.yul\":9158:9159   */\n      dup3\n        /* \"#utility.yul\":9155:9156   */\n      dup3\n        /* \"#utility.yul\":9151:9160   */\n      div\n        /* \"#utility.yul\":9146:9160   */\n      swap1\n      pop\n        /* \"#utility.yul\":8981:9166   */\n      swap3\n      swap2\n      pop\n      pop\n      jump\t// out\n    stop\n    data_ffd7301b28126c2af6742e121bb7b2e6328ec8d5511cff77f78ffd7483d3e3ba 556e646572466c6f77204572726f7220582073686f756c642062652067726561746572207468616e206f7220657175616c20746f207920\n\n    auxdata: 0xa264697066735822122082ed504e0b80620b490b6bbb086a8184f16d5aaec4902969ff768db45ad9d0d064736f6c634300081c0033\n}\n",
				"bytecode": {
					"linkReferences": {},
					"object": "60806040526040518060400160405280601381526020017f796f752061726520676f6f6420746f20676f2000000000000000000000000000815250600190816100489190610297565b50348015610054575f5ffd5b50610366565b5f81519050919050565b7f4e487b71000000000000000000000000000000000000000000000000000000005f52604160045260245ffd5b7f4e487b71000000000000000000000000000000000000000000000000000000005f52602260045260245ffd5b5f60028204905060018216806100d557607f821691505b6020821081036100e8576100e7610091565b5b50919050565b5f819050815f5260205f209050919050565b5f6020601f8301049050919050565b5f82821b905092915050565b5f6008830261014a7fffffffffffffffffffffffffffffffffffffffffffffffffffffffffffffffff8261010f565b610154868361010f565b95508019841693508086168417925050509392505050565b5f819050919050565b5f819050919050565b5f61019861019361018e8461016c565b610175565b61016c565b9050919050565b5f819050919050565b6101b18361017e565b6101c56101bd8261019f565b84845461011b565b825550505050565b5f5f905090565b6101dc6101cd565b6101e78184846101a8565b505050565b5b8181101561020a576101ff5f826101d4565b6001810190506101ed565b5050565b601f82111561024f57610220816100ee565b61022984610100565b81016020851015610238578190505b61024c61024485610100565b8301826101ec565b50505b505050565b5f82821c905092915050565b5f61026f5f1984600802610254565b1980831691505092915050565b5f6102878383610260565b9150826002028217905092915050565b6102a08261005a565b67ffffffffffffffff8111156102b9576102b8610064565b5b6102c382546100be565b6102ce82828561020e565b5f60209050601f8311600181146102ff575f84156102ed578287015190505b6102f7858261027c565b86555061035e565b601f19841661030d866100ee565b5f5b828110156103345784890151825560018201915060208501945060208101905061030f565b86831015610351578489015161034d601f891682610260565b8355505b6001600288020188555050505b505050505050565b6108ea806103735f395ff3fe608060405234801561000f575f5ffd5b5060043610610060575f3560e01c80633ef5e44514610064578063635a37531461008057806366aaa1ae1461009e578063771602f7146100ba578063de292789146100d6578063f88e9fbf146100f4575b5f5ffd5b61007e6004803603810190610079919061035d565b610110565b005b6100886101a6565b604051610095919061040b565b60405180910390f35b6100b860048036038101906100b3919061035d565b610236565b005b6100d460048036038101906100cf919061035d565b610251565b005b6100de61026c565b6040516100eb919061043a565b60405180910390f35b61010e6004803603810190610109919061035d565b610274565b005b5f5f819055508082101561014b5760405180606001604052806037815260200161087e6037913960019081610145919061067d565b506101a2565b6040518060400160405280601281526020017f796f752061726520676f6f6420746f20676f00000000000000000000000000008152506001908161018f919061067d565b50808261019c9190610779565b5f819055505b5050565b6060600180546101b5906104ad565b80601f01602080910402602001604051908101604052809291908181526020018280546101e1906104ad565b801561022c5780601f106102035761010080835404028352916020019161022c565b820191905f5260205f20905b81548152906001019060200180831161020f57829003601f168201915b5050505050905090565b5f5f81905550808261024891906107ac565b5f819055505050565b5f5f81905550808261026391906107ed565b5f819055505050565b5f5f54905090565b5f5f819055505f81116102cb576040518060400160405280601181526020017f457863657074696f6e206f636375726564000000000000000000000000000000815250600190816102c5919061067d565b50610322565b6040518060400160405280601181526020017f596f752061726520616c6c20676f6f64200000000000000000000000000000008152506001908161030f919061067d565b50808261031c919061084d565b5f819055505b5050565b5f5ffd5b5f819050919050565b61033c8161032a565b8114610346575f5ffd5b50565b5f8135905061035781610333565b92915050565b5f5f6040838503121561037357610372610326565b5b5f61038085828601610349565b925050602061039185828601610349565b9150509250929050565b5f81519050919050565b5f82825260208201905092915050565b8281835e5f83830152505050565b5f601f19601f8301169050919050565b5f6103dd8261039b565b6103e781856103a5565b93506103f78185602086016103b5565b610400816103c3565b840191505092915050565b5f6020820190508181035f83015261042381846103d3565b905092915050565b6104348161032a565b82525050565b5f60208201905061044d5f83018461042b565b92915050565b7f4e487b71000000000000000000000000000000000000000000000000000000005f52604160045260245ffd5b7f4e487b71000000000000000000000000000000000000000000000000000000005f52602260045260245ffd5b5f60028204905060018216806104c457607f821691505b6020821081036104d7576104d6610480565b5b50919050565b5f819050815f5260205f209050919050565b5f6020601f8301049050919050565b5f82821b905092915050565b5f600883026105397fffffffffffffffffffffffffffffffffffffffffffffffffffffffffffffffff826104fe565b61054386836104fe565b95508019841693508086168417925050509392505050565b5f819050919050565b5f61057e6105796105748461032a565b61055b565b61032a565b9050919050565b5f819050919050565b61059783610564565b6105ab6105a382610585565b84845461050a565b825550505050565b5f5f905090565b6105c26105b3565b6105cd81848461058e565b505050565b5b818110156105f0576105e55f826105ba565b6001810190506105d3565b5050565b601f82111561063557610606816104dd565b61060f846104ef565b8101602085101561061e578190505b61063261062a856104ef565b8301826105d2565b50505b505050565b5f82821c905092915050565b5f6106555f198460080261063a565b1980831691505092915050565b5f61066d8383610646565b9150826002028217905092915050565b6106868261039b565b67ffffffffffffffff81111561069f5761069e610453565b5b6106a982546104ad565b6106b48282856105f4565b5f60209050601f8311600181146106e5575f84156106d3578287015190505b6106dd8582610662565b865550610744565b601f1984166106f3866104dd565b5f5b8281101561071a578489015182556001820191506020850194506020810190506106f5565b868310156107375784890151610733601f891682610646565b8355505b6001600288020188555050505b505050505050565b7f4e487b71000000000000000000000000000000000000000000000000000000005f52601160045260245ffd5b5f6107838261032a565b915061078e8361032a565b92508282039050818111156107a6576107a561074c565b5b92915050565b5f6107b68261032a565b91506107c18361032a565b92508282026107cf8161032a565b915082820484148315176107e6576107e561074c565b5b5092915050565b5f6107f78261032a565b91506108028361032a565b925082820190508082111561081a5761081961074c565b5b92915050565b7f4e487b71000000000000000000000000000000000000000000000000000000005f52601260045260245ffd5b5f6108578261032a565b91506108628361032a565b92508261087257610871610820565b5b82820490509291505056fe556e646572466c6f77204572726f7220582073686f756c642062652067726561746572207468616e206f7220657175616c20746f207920a264697066735822122082ed504e0b80620b490b6bbb086a8184f16d5aaec4902969ff768db45ad9d0d064736f6c634300081c0033",
					"opcodes": "PUSH1 0x80 PUSH1 0x40 MSTORE PUSH1 0x40 MLOAD DUP1 PUSH1 0x40 ADD PUSH1 0x40 MSTORE DUP1 PUSH1 0x13 DUP2 MSTORE PUSH1 0x20 ADD PUSH32 0x796F752061726520676F6F6420746F20676F2000000000000000000000000000 DUP2 MSTORE POP PUSH1 0x1 SWAP1 DUP2 PUSH2 0x48 SWAP2 SWAP1 PUSH2 0x297 JUMP JUMPDEST POP CALLVALUE DUP1 ISZERO PUSH2 0x54 JUMPI PUSH0 PUSH0 REVERT JUMPDEST POP PUSH2 0x366 JUMP JUMPDEST PUSH0 DUP2 MLOAD SWAP1 POP SWAP2 SWAP1 POP JUMP JUMPDEST PUSH32 0x4E487B7100000000000000000000000000000000000000000000000000000000 PUSH0 MSTORE PUSH1 0x41 PUSH1 0x4 MSTORE PUSH1 0x24 PUSH0 REVERT JUMPDEST PUSH32 0x4E487B7100000000000000000000000000000000000000000000000000000000 PUSH0 MSTORE PUSH1 0x22 PUSH1 0x4 MSTORE PUSH1 0x24 PUSH0 REVERT JUMPDEST PUSH0 PUSH1 0x2 DUP3 DIV SWAP1 POP PUSH1 0x1 DUP3 AND DUP1 PUSH2 0xD5 JUMPI PUSH1 0x7F DUP3 AND SWAP2 POP JUMPDEST PUSH1 0x20 DUP3 LT DUP2 SUB PUSH2 0xE8 JUMPI PUSH2 0xE7 PUSH2 0x91 JUMP JUMPDEST JUMPDEST POP SWAP2 SWAP1 POP JUMP JUMPDEST PUSH0 DUP2 SWAP1 POP DUP2 PUSH0 MSTORE PUSH1 0x20 PUSH0 KECCAK256 SWAP1 POP SWAP2 SWAP1 POP JUMP JUMPDEST PUSH0 PUSH1 0x20 PUSH1 0x1F DUP4 ADD DIV SWAP1 POP SWAP2 SWAP1 POP JUMP JUMPDEST PUSH0 DUP3 DUP3 SHL SWAP1 POP SWAP3 SWAP2 POP POP JUMP JUMPDEST PUSH0 PUSH1 0x8 DUP4 MUL PUSH2 0x14A PUSH32 0xFFFFFFFFFFFFFFFFFFFFFFFFFFFFFFFFFFFFFFFFFFFFFFFFFFFFFFFFFFFFFFFF DUP3 PUSH2 0x10F JUMP JUMPDEST PUSH2 0x154 DUP7 DUP4 PUSH2 0x10F JUMP JUMPDEST SWAP6 POP DUP1 NOT DUP5 AND SWAP4 POP DUP1 DUP7 AND DUP5 OR SWAP3 POP POP POP SWAP4 SWAP3 POP POP POP JUMP JUMPDEST PUSH0 DUP2 SWAP1 POP SWAP2 SWAP1 POP JUMP JUMPDEST PUSH0 DUP2 SWAP1 POP SWAP2 SWAP1 POP JUMP JUMPDEST PUSH0 PUSH2 0x198 PUSH2 0x193 PUSH2 0x18E DUP5 PUSH2 0x16C JUMP JUMPDEST PUSH2 0x175 JUMP JUMPDEST PUSH2 0x16C JUMP JUMPDEST SWAP1 POP SWAP2 SWAP1 POP JUMP JUMPDEST PUSH0 DUP2 SWAP1 POP SWAP2 SWAP1 POP JUMP JUMPDEST PUSH2 0x1B1 DUP4 PUSH2 0x17E JUMP JUMPDEST PUSH2 0x1C5 PUSH2 0x1BD DUP3 PUSH2 0x19F JUMP JUMPDEST DUP5 DUP5 SLOAD PUSH2 0x11B JUMP JUMPDEST DUP3 SSTORE POP POP POP POP JUMP JUMPDEST PUSH0 PUSH0 SWAP1 POP SWAP1 JUMP JUMPDEST PUSH2 0x1DC PUSH2 0x1CD JUMP JUMPDEST PUSH2 0x1E7 DUP2 DUP5 DUP5 PUSH2 0x1A8 JUMP JUMPDEST POP POP POP JUMP JUMPDEST JUMPDEST DUP2 DUP2 LT ISZERO PUSH2 0x20A JUMPI PUSH2 0x1FF PUSH0 DUP3 PUSH2 0x1D4 JUMP JUMPDEST PUSH1 0x1 DUP2 ADD SWAP1 POP PUSH2 0x1ED JUMP JUMPDEST POP POP JUMP JUMPDEST PUSH1 0x1F DUP3 GT ISZERO PUSH2 0x24F JUMPI PUSH2 0x220 DUP2 PUSH2 0xEE JUMP JUMPDEST PUSH2 0x229 DUP5 PUSH2 0x100 JUMP JUMPDEST DUP2 ADD PUSH1 0x20 DUP6 LT ISZERO PUSH2 0x238 JUMPI DUP2 SWAP1 POP JUMPDEST PUSH2 0x24C PUSH2 0x244 DUP6 PUSH2 0x100 JUMP JUMPDEST DUP4 ADD DUP3 PUSH2 0x1EC JUMP JUMPDEST POP POP JUMPDEST POP POP POP JUMP JUMPDEST PUSH0 DUP3 DUP3 SHR SWAP1 POP SWAP3 SWAP2 POP POP JUMP JUMPDEST PUSH0 PUSH2 0x26F PUSH0 NOT DUP5 PUSH1 0x8 MUL PUSH2 0x254 JUMP JUMPDEST NOT DUP1 DUP4 AND SWAP2 POP POP SWAP3 SWAP2 POP POP JUMP JUMPDEST PUSH0 PUSH2 0x287 DUP4 DUP4 PUSH2 0x260 JUMP JUMPDEST SWAP2 POP DUP3 PUSH1 0x2 MUL DUP3 OR SWAP1 POP SWAP3 SWAP2 POP POP JUMP JUMPDEST PUSH2 0x2A0 DUP3 PUSH2 0x5A JUMP JUMPDEST PUSH8 0xFFFFFFFFFFFFFFFF DUP2 GT ISZERO PUSH2 0x2B9 JUMPI PUSH2 0x2B8 PUSH2 0x64 JUMP JUMPDEST JUMPDEST PUSH2 0x2C3 DUP3 SLOAD PUSH2 0xBE JUMP JUMPDEST PUSH2 0x2CE DUP3 DUP3 DUP6 PUSH2 0x20E JUMP JUMPDEST PUSH0 PUSH1 0x20 SWAP1 POP PUSH1 0x1F DUP4 GT PUSH1 0x1 DUP2 EQ PUSH2 0x2FF JUMPI PUSH0 DUP5 ISZERO PUSH2 0x2ED JUMPI DUP3 DUP8 ADD MLOAD SWAP1 POP JUMPDEST PUSH2 0x2F7 DUP6 DUP3 PUSH2 0x27C JUMP JUMPDEST DUP7 SSTORE POP PUSH2 0x35E JUMP JUMPDEST PUSH1 0x1F NOT DUP5 AND PUSH2 0x30D DUP7 PUSH2 0xEE JUMP JUMPDEST PUSH0 JUMPDEST DUP3 DUP2 LT ISZERO PUSH2 0x334 JUMPI DUP5 DUP10 ADD MLOAD DUP3 SSTORE PUSH1 0x1 DUP3 ADD SWAP2 POP PUSH1 0x20 DUP6 ADD SWAP5 POP PUSH1 0x20 DUP2 ADD SWAP1 POP PUSH2 0x30F JUMP JUMPDEST DUP7 DUP4 LT ISZERO PUSH2 0x351 JUMPI DUP5 DUP10 ADD MLOAD PUSH2 0x34D PUSH1 0x1F DUP10 AND DUP3 PUSH2 0x260 JUMP JUMPDEST DUP4 SSTORE POP JUMPDEST PUSH1 0x1 PUSH1 0x2 DUP9 MUL ADD DUP9 SSTORE POP POP POP JUMPDEST POP POP POP POP POP POP JUMP JUMPDEST PUSH2 0x8EA DUP1 PUSH2 0x373 PUSH0 CODECOPY PUSH0 RETURN INVALID PUSH1 0x80 PUSH1 0x40 MSTORE CALLVALUE DUP1 ISZERO PUSH2 0xF JUMPI PUSH0 PUSH0 REVERT JUMPDEST POP PUSH1 0x4 CALLDATASIZE LT PUSH2 0x60 JUMPI PUSH0 CALLDATALOAD PUSH1 0xE0 SHR DUP1 PUSH4 0x3EF5E445 EQ PUSH2 0x64 JUMPI DUP1 PUSH4 0x635A3753 EQ PUSH2 0x80 JUMPI DUP1 PUSH4 0x66AAA1AE EQ PUSH2 0x9E JUMPI DUP1 PUSH4 0x771602F7 EQ PUSH2 0xBA JUMPI DUP1 PUSH4 0xDE292789 EQ PUSH2 0xD6 JUMPI DUP1 PUSH4 0xF88E9FBF EQ PUSH2 0xF4 JUMPI JUMPDEST PUSH0 PUSH0 REVERT JUMPDEST PUSH2 0x7E PUSH1 0x4 DUP1 CALLDATASIZE SUB DUP2 ADD SWAP1 PUSH2 0x79 SWAP2 SWAP1 PUSH2 0x35D JUMP JUMPDEST PUSH2 0x110 JUMP JUMPDEST STOP JUMPDEST PUSH2 0x88 PUSH2 0x1A6 JUMP JUMPDEST PUSH1 0x40 MLOAD PUSH2 0x95 SWAP2 SWAP1 PUSH2 0x40B JUMP JUMPDEST PUSH1 0x40 MLOAD DUP1 SWAP2 SUB SWAP1 RETURN JUMPDEST PUSH2 0xB8 PUSH1 0x4 DUP1 CALLDATASIZE SUB DUP2 ADD SWAP1 PUSH2 0xB3 SWAP2 SWAP1 PUSH2 0x35D JUMP JUMPDEST PUSH2 0x236 JUMP JUMPDEST STOP JUMPDEST PUSH2 0xD4 PUSH1 0x4 DUP1 CALLDATASIZE SUB DUP2 ADD SWAP1 PUSH2 0xCF SWAP2 SWAP1 PUSH2 0x35D JUMP JUMPDEST PUSH2 0x251 JUMP JUMPDEST STOP JUMPDEST PUSH2 0xDE PUSH2 0x26C JUMP JUMPDEST PUSH1 0x40 MLOAD PUSH2 0xEB SWAP2 SWAP1 PUSH2 0x43A JUMP JUMPDEST PUSH1 0x40 MLOAD DUP1 SWAP2 SUB SWAP1 RETURN JUMPDEST PUSH2 0x10E PUSH1 0x4 DUP1 CALLDATASIZE SUB DUP2 ADD SWAP1 PUSH2 0x109 SWAP2 SWAP1 PUSH2 0x35D JUMP JUMPDEST PUSH2 0x274 JUMP JUMPDEST STOP JUMPDEST PUSH0 PUSH0 DUP2 SWAP1 SSTORE POP DUP1 DUP3 LT ISZERO PUSH2 0x14B JUMPI PUSH1 0x40 MLOAD DUP1 PUSH1 0x60 ADD PUSH1 0x40 MSTORE DUP1 PUSH1 0x37 DUP2 MSTORE PUSH1 0x20 ADD PUSH2 0x87E PUSH1 0x37 SWAP2 CODECOPY PUSH1 0x1 SWAP1 DUP2 PUSH2 0x145 SWAP2 SWAP1 PUSH2 0x67D JUMP JUMPDEST POP PUSH2 0x1A2 JUMP JUMPDEST PUSH1 0x40 MLOAD DUP1 PUSH1 0x40 ADD PUSH1 0x40 MSTORE DUP1 PUSH1 0x12 DUP2 MSTORE PUSH1 0x20 ADD PUSH32 0x796F752061726520676F6F6420746F20676F0000000000000000000000000000 DUP2 MSTORE POP PUSH1 0x1 SWAP1 DUP2 PUSH2 0x18F SWAP2 SWAP1 PUSH2 0x67D JUMP JUMPDEST POP DUP1 DUP3 PUSH2 0x19C SWAP2 SWAP1 PUSH2 0x779 JUMP JUMPDEST PUSH0 DUP2 SWAP1 SSTORE POP JUMPDEST POP POP JUMP JUMPDEST PUSH1 0x60 PUSH1 0x1 DUP1 SLOAD PUSH2 0x1B5 SWAP1 PUSH2 0x4AD JUMP JUMPDEST DUP1 PUSH1 0x1F ADD PUSH1 0x20 DUP1 SWAP2 DIV MUL PUSH1 0x20 ADD PUSH1 0x40 MLOAD SWAP1 DUP2 ADD PUSH1 0x40 MSTORE DUP1 SWAP3 SWAP2 SWAP1 DUP2 DUP2 MSTORE PUSH1 0x20 ADD DUP3 DUP1 SLOAD PUSH2 0x1E1 SWAP1 PUSH2 0x4AD JUMP JUMPDEST DUP1 ISZERO PUSH2 0x22C JUMPI DUP1 PUSH1 0x1F LT PUSH2 0x203 JUMPI PUSH2 0x100 DUP1 DUP4 SLOAD DIV MUL DUP4 MSTORE SWAP2 PUSH1 0x20 ADD SWAP2 PUSH2 0x22C JUMP JUMPDEST DUP3 ADD SWAP2 SWAP1 PUSH0 MSTORE PUSH1 0x20 PUSH0 KECCAK256 SWAP1 JUMPDEST DUP2 SLOAD DUP2 MSTORE SWAP1 PUSH1 0x1 ADD SWAP1 PUSH1 0x20 ADD DUP1 DUP4 GT PUSH2 0x20F JUMPI DUP3 SWAP1 SUB PUSH1 0x1F AND DUP3 ADD SWAP2 JUMPDEST POP POP POP POP POP SWAP1 POP SWAP1 JUMP JUMPDEST PUSH0 PUSH0 DUP2 SWAP1 SSTORE POP DUP1 DUP3 PUSH2 0x248 SWAP2 SWAP1 PUSH2 0x7AC JUMP JUMPDEST PUSH0 DUP2 SWAP1 SSTORE POP POP POP JUMP JUMPDEST PUSH0 PUSH0 DUP2 SWAP1 SSTORE POP DUP1 DUP3 PUSH2 0x263 SWAP2 SWAP1 PUSH2 0x7ED JUMP JUMPDEST PUSH0 DUP2 SWAP1 SSTORE POP POP POP JUMP JUMPDEST PUSH0 PUSH0 SLOAD SWAP1 POP SWAP1 JUMP JUMPDEST PUSH0 PUSH0 DUP2 SWAP1 SSTORE POP PUSH0 DUP2 GT PUSH2 0x2CB JUMPI PUSH1 0x40 MLOAD DUP1 PUSH1 0x40 ADD PUSH1 0x40 MSTORE DUP1 PUSH1 0x11 DUP2 MSTORE PUSH1 0x20 ADD PUSH32 0x457863657074696F6E206F636375726564000000000000000000000000000000 DUP2 MSTORE POP PUSH1 0x1 SWAP1 DUP2 PUSH2 0x2C5 SWAP2 SWAP1 PUSH2 0x67D JUMP JUMPDEST POP PUSH2 0x322 JUMP JUMPDEST PUSH1 0x40 MLOAD DUP1 PUSH1 0x40 ADD PUSH1 0x40 MSTORE DUP1 PUSH1 0x11 DUP2 MSTORE PUSH1 0x20 ADD PUSH32 0x596F752061726520616C6C20676F6F6420000000000000000000000000000000 DUP2 MSTORE POP PUSH1 0x1 SWAP1 DUP2 PUSH2 0x30F SWAP2 SWAP1 PUSH2 0x67D JUMP JUMPDEST POP DUP1 DUP3 PUSH2 0x31C SWAP2 SWAP1 PUSH2 0x84D JUMP JUMPDEST PUSH0 DUP2 SWAP1 SSTORE POP JUMPDEST POP POP JUMP JUMPDEST PUSH0 PUSH0 REVERT JUMPDEST PUSH0 DUP2 SWAP1 POP SWAP2 SWAP1 POP JUMP JUMPDEST PUSH2 0x33C DUP2 PUSH2 0x32A JUMP JUMPDEST DUP2 EQ PUSH2 0x346 JUMPI PUSH0 PUSH0 REVERT JUMPDEST POP JUMP JUMPDEST PUSH0 DUP2 CALLDATALOAD SWAP1 POP PUSH2 0x357 DUP2 PUSH2 0x333 JUMP JUMPDEST SWAP3 SWAP2 POP POP JUMP JUMPDEST PUSH0 PUSH0 PUSH1 0x40 DUP4 DUP6 SUB SLT ISZERO PUSH2 0x373 JUMPI PUSH2 0x372 PUSH2 0x326 JUMP JUMPDEST JUMPDEST PUSH0 PUSH2 0x380 DUP6 DUP3 DUP7 ADD PUSH2 0x349 JUMP JUMPDEST SWAP3 POP POP PUSH1 0x20 PUSH2 0x391 DUP6 DUP3 DUP7 ADD PUSH2 0x349 JUMP JUMPDEST SWAP2 POP POP SWAP3 POP SWAP3 SWAP1 POP JUMP JUMPDEST PUSH0 DUP2 MLOAD SWAP1 POP SWAP2 SWAP1 POP JUMP JUMPDEST PUSH0 DUP3 DUP3 MSTORE PUSH1 0x20 DUP3 ADD SWAP1 POP SWAP3 SWAP2 POP POP JUMP JUMPDEST DUP3 DUP2 DUP4 MCOPY PUSH0 DUP4 DUP4 ADD MSTORE POP POP POP JUMP JUMPDEST PUSH0 PUSH1 0x1F NOT PUSH1 0x1F DUP4 ADD AND SWAP1 POP SWAP2 SWAP1 POP JUMP JUMPDEST PUSH0 PUSH2 0x3DD DUP3 PUSH2 0x39B JUMP JUMPDEST PUSH2 0x3E7 DUP2 DUP6 PUSH2 0x3A5 JUMP JUMPDEST SWAP4 POP PUSH2 0x3F7 DUP2 DUP6 PUSH1 0x20 DUP7 ADD PUSH2 0x3B5 JUMP JUMPDEST PUSH2 0x400 DUP2 PUSH2 0x3C3 JUMP JUMPDEST DUP5 ADD SWAP2 POP POP SWAP3 SWAP2 POP POP JUMP JUMPDEST PUSH0 PUSH1 0x20 DUP3 ADD SWAP1 POP DUP2 DUP2 SUB PUSH0 DUP4 ADD MSTORE PUSH2 0x423 DUP2 DUP5 PUSH2 0x3D3 JUMP JUMPDEST SWAP1 POP SWAP3 SWAP2 POP POP JUMP JUMPDEST PUSH2 0x434 DUP2 PUSH2 0x32A JUMP JUMPDEST DUP3 MSTORE POP POP JUMP JUMPDEST PUSH0 PUSH1 0x20 DUP3 ADD SWAP1 POP PUSH2 0x44D PUSH0 DUP4 ADD DUP5 PUSH2 0x42B JUMP JUMPDEST SWAP3 SWAP2 POP POP JUMP JUMPDEST PUSH32 0x4E487B7100000000000000000000000000000000000000000000000000000000 PUSH0 MSTORE PUSH1 0x41 PUSH1 0x4 MSTORE PUSH1 0x24 PUSH0 REVERT JUMPDEST PUSH32 0x4E487B7100000000000000000000000000000000000000000000000000000000 PUSH0 MSTORE PUSH1 0x22 PUSH1 0x4 MSTORE PUSH1 0x24 PUSH0 REVERT JUMPDEST PUSH0 PUSH1 0x2 DUP3 DIV SWAP1 POP PUSH1 0x1 DUP3 AND DUP1 PUSH2 0x4C4 JUMPI PUSH1 0x7F DUP3 AND SWAP2 POP JUMPDEST PUSH1 0x20 DUP3 LT DUP2 SUB PUSH2 0x4D7 JUMPI PUSH2 0x4D6 PUSH2 0x480 JUMP JUMPDEST JUMPDEST POP SWAP2 SWAP1 POP JUMP JUMPDEST PUSH0 DUP2 SWAP1 POP DUP2 PUSH0 MSTORE PUSH1 0x20 PUSH0 KECCAK256 SWAP1 POP SWAP2 SWAP1 POP JUMP JUMPDEST PUSH0 PUSH1 0x20 PUSH1 0x1F DUP4 ADD DIV SWAP1 POP SWAP2 SWAP1 POP JUMP JUMPDEST PUSH0 DUP3 DUP3 SHL SWAP1 POP SWAP3 SWAP2 POP POP JUMP JUMPDEST PUSH0 PUSH1 0x8 DUP4 MUL PUSH2 0x539 PUSH32 0xFFFFFFFFFFFFFFFFFFFFFFFFFFFFFFFFFFFFFFFFFFFFFFFFFFFFFFFFFFFFFFFF DUP3 PUSH2 0x4FE JUMP JUMPDEST PUSH2 0x543 DUP7 DUP4 PUSH2 0x4FE JUMP JUMPDEST SWAP6 POP DUP1 NOT DUP5 AND SWAP4 POP DUP1 DUP7 AND DUP5 OR SWAP3 POP POP POP SWAP4 SWAP3 POP POP POP JUMP JUMPDEST PUSH0 DUP2 SWAP1 POP SWAP2 SWAP1 POP JUMP JUMPDEST PUSH0 PUSH2 0x57E PUSH2 0x579 PUSH2 0x574 DUP5 PUSH2 0x32A JUMP JUMPDEST PUSH2 0x55B JUMP JUMPDEST PUSH2 0x32A JUMP JUMPDEST SWAP1 POP SWAP2 SWAP1 POP JUMP JUMPDEST PUSH0 DUP2 SWAP1 POP SWAP2 SWAP1 POP JUMP JUMPDEST PUSH2 0x597 DUP4 PUSH2 0x564 JUMP JUMPDEST PUSH2 0x5AB PUSH2 0x5A3 DUP3 PUSH2 0x585 JUMP JUMPDEST DUP5 DUP5 SLOAD PUSH2 0x50A JUMP JUMPDEST DUP3 SSTORE POP POP POP POP JUMP JUMPDEST PUSH0 PUSH0 SWAP1 POP SWAP1 JUMP JUMPDEST PUSH2 0x5C2 PUSH2 0x5B3 JUMP JUMPDEST PUSH2 0x5CD DUP2 DUP5 DUP5 PUSH2 0x58E JUMP JUMPDEST POP POP POP JUMP JUMPDEST JUMPDEST DUP2 DUP2 LT ISZERO PUSH2 0x5F0 JUMPI PUSH2 0x5E5 PUSH0 DUP3 PUSH2 0x5BA JUMP JUMPDEST PUSH1 0x1 DUP2 ADD SWAP1 POP PUSH2 0x5D3 JUMP JUMPDEST POP POP JUMP JUMPDEST PUSH1 0x1F DUP3 GT ISZERO PUSH2 0x635 JUMPI PUSH2 0x606 DUP2 PUSH2 0x4DD JUMP JUMPDEST PUSH2 0x60F DUP5 PUSH2 0x4EF JUMP JUMPDEST DUP2 ADD PUSH1 0x20 DUP6 LT ISZERO PUSH2 0x61E JUMPI DUP2 SWAP1 POP JUMPDEST PUSH2 0x632 PUSH2 0x62A DUP6 PUSH2 0x4EF JUMP JUMPDEST DUP4 ADD DUP3 PUSH2 0x5D2 JUMP JUMPDEST POP POP JUMPDEST POP POP POP JUMP JUMPDEST PUSH0 DUP3 DUP3 SHR SWAP1 POP SWAP3 SWAP2 POP POP JUMP JUMPDEST PUSH0 PUSH2 0x655 PUSH0 NOT DUP5 PUSH1 0x8 MUL PUSH2 0x63A JUMP JUMPDEST NOT DUP1 DUP4 AND SWAP2 POP POP SWAP3 SWAP2 POP POP JUMP JUMPDEST PUSH0 PUSH2 0x66D DUP4 DUP4 PUSH2 0x646 JUMP JUMPDEST SWAP2 POP DUP3 PUSH1 0x2 MUL DUP3 OR SWAP1 POP SWAP3 SWAP2 POP POP JUMP JUMPDEST PUSH2 0x686 DUP3 PUSH2 0x39B JUMP JUMPDEST PUSH8 0xFFFFFFFFFFFFFFFF DUP2 GT ISZERO PUSH2 0x69F JUMPI PUSH2 0x69E PUSH2 0x453 JUMP JUMPDEST JUMPDEST PUSH2 0x6A9 DUP3 SLOAD PUSH2 0x4AD JUMP JUMPDEST PUSH2 0x6B4 DUP3 DUP3 DUP6 PUSH2 0x5F4 JUMP JUMPDEST PUSH0 PUSH1 0x20 SWAP1 POP PUSH1 0x1F DUP4 GT PUSH1 0x1 DUP2 EQ PUSH2 0x6E5 JUMPI PUSH0 DUP5 ISZERO PUSH2 0x6D3 JUMPI DUP3 DUP8 ADD MLOAD SWAP1 POP JUMPDEST PUSH2 0x6DD DUP6 DUP3 PUSH2 0x662 JUMP JUMPDEST DUP7 SSTORE POP PUSH2 0x744 JUMP JUMPDEST PUSH1 0x1F NOT DUP5 AND PUSH2 0x6F3 DUP7 PUSH2 0x4DD JUMP JUMPDEST PUSH0 JUMPDEST DUP3 DUP2 LT ISZERO PUSH2 0x71A JUMPI DUP5 DUP10 ADD MLOAD DUP3 SSTORE PUSH1 0x1 DUP3 ADD SWAP2 POP PUSH1 0x20 DUP6 ADD SWAP5 POP PUSH1 0x20 DUP2 ADD SWAP1 POP PUSH2 0x6F5 JUMP JUMPDEST DUP7 DUP4 LT ISZERO PUSH2 0x737 JUMPI DUP5 DUP10 ADD MLOAD PUSH2 0x733 PUSH1 0x1F DUP10 AND DUP3 PUSH2 0x646 JUMP JUMPDEST DUP4 SSTORE POP JUMPDEST PUSH1 0x1 PUSH1 0x2 DUP9 MUL ADD DUP9 SSTORE POP POP POP JUMPDEST POP POP POP POP POP POP JUMP JUMPDEST PUSH32 0x4E487B7100000000000000000000000000000000000000000000000000000000 PUSH0 MSTORE PUSH1 0x11 PUSH1 0x4 MSTORE PUSH1 0x24 PUSH0 REVERT JUMPDEST PUSH0 PUSH2 0x783 DUP3 PUSH2 0x32A JUMP JUMPDEST SWAP2 POP PUSH2 0x78E DUP4 PUSH2 0x32A JUMP JUMPDEST SWAP3 POP DUP3 DUP3 SUB SWAP1 POP DUP2 DUP2 GT ISZERO PUSH2 0x7A6 JUMPI PUSH2 0x7A5 PUSH2 0x74C JUMP JUMPDEST JUMPDEST SWAP3 SWAP2 POP POP JUMP JUMPDEST PUSH0 PUSH2 0x7B6 DUP3 PUSH2 0x32A JUMP JUMPDEST SWAP2 POP PUSH2 0x7C1 DUP4 PUSH2 0x32A JUMP JUMPDEST SWAP3 POP DUP3 DUP3 MUL PUSH2 0x7CF DUP2 PUSH2 0x32A JUMP JUMPDEST SWAP2 POP DUP3 DUP3 DIV DUP5 EQ DUP4 ISZERO OR PUSH2 0x7E6 JUMPI PUSH2 0x7E5 PUSH2 0x74C JUMP JUMPDEST JUMPDEST POP SWAP3 SWAP2 POP POP JUMP JUMPDEST PUSH0 PUSH2 0x7F7 DUP3 PUSH2 0x32A JUMP JUMPDEST SWAP2 POP PUSH2 0x802 DUP4 PUSH2 0x32A JUMP JUMPDEST SWAP3 POP DUP3 DUP3 ADD SWAP1 POP DUP1 DUP3 GT ISZERO PUSH2 0x81A JUMPI PUSH2 0x819 PUSH2 0x74C JUMP JUMPDEST JUMPDEST SWAP3 SWAP2 POP POP JUMP JUMPDEST PUSH32 0x4E487B7100000000000000000000000000000000000000000000000000000000 PUSH0 MSTORE PUSH1 0x12 PUSH1 0x4 MSTORE PUSH1 0x24 PUSH0 REVERT JUMPDEST PUSH0 PUSH2 0x857 DUP3 PUSH2 0x32A JUMP JUMPDEST SWAP2 POP PUSH2 0x862 DUP4 PUSH2 0x32A JUMP JUMPDEST SWAP3 POP DUP3 PUSH2 0x872 JUMPI PUSH2 0x871 PUSH2 0x820 JUMP JUMPDEST JUMPDEST DUP3 DUP3 DIV SWAP1 POP SWAP3 SWAP2 POP POP JUMP INVALID SSTORE PUSH15 0x646572466C6F77204572726F722058 KECCAK256 PUSH20 0x686F756C64206265206772656174657220746861 PUSH15 0x206F7220657175616C20746F207920 LOG2 PUSH5 0x6970667358 0x22 SLT KECCAK256 DUP3 0xED POP 0x4E SIGNEXTEND DUP1 PUSH3 0xB490B PUSH12 0xBB086A8184F16D5AAEC49029 PUSH10 0xFF768DB45AD9D0D06473 PUSH16 0x6C634300081C00330000000000000000 "
				},
				"gasEstimates": {
					"creation": {
						"codeDepositCost": "456400",
						"executionCost": "infinite",
						"totalCost": "infinite"
					},
					"external": {
						"add(uint256,uint256)": "infinite",
						"divide(uint256,uint256)": "infinite",
						"getError()": "infinite",
						"getResult()": "2497",
						"mulitiply(uint256,uint256)": "infinite",
						"subtract(uint256,uint256)": "infinite"
					}
				},
				"methodIdentifiers": {
					"add(uint256,uint256)": "771602f7",
					"divide(uint256,uint256)": "f88e9fbf",
					"getError()": "635a3753",
					"getResult()": "de292789",
					"mulitiply(uint256,uint256)": "66aaa1ae",
					"subtract(uint256,uint256)": "3ef5e445"
				}
			},
			"storageLayout": {
				"storage": [
					{
						"astId": 3,
						"contract": "contracts/calculator.sol:calculator",
						"label": "result",
						"offset": 0,
						"slot": "0",
						"type": "t_uint256"
					},
					{
						"astId": 6,
						"contract": "contracts/calculator.sol:calculator",
						"label": "err",
						"offset": 0,
						"slot": "1",
						"type": "t_string_storage"
					}
				],
				"types": {
					"t_string_storage": {
						"encoding": "bytes",
						"label": "string",
						"numberOfBytes": "32"
					},
					"t_uint256": {
						"encoding": "inplace",
						"label": "uint256",
						"numberOfBytes": "32"
					}
				}
			},
			"userdoc": {
				"kind": "user",
				"methods": {},
				"version": 1
			}
		}
	}
}