{
	"contracts/counter.sol": {
		"Counter": {
			"abi": [
				{
					"inputs": [],
					"name": "Decrement",
					"outputs": [],
					"stateMutability": "nonpayable",
					"type": "function"
				},
				{
					"inputs": [],
					"name": "Increment",
					"outputs": [],
					"stateMutability": "nonpayable",
					"type": "function"
				},
				{
					"inputs": [],
					"name": "abc",
					"outputs": [
						{
							"internalType": "uint256",
							"name": "",
							"type": "uint256"
						}
					],
					"stateMutability": "pure",
					"type": "function"
				},
				{
					"inputs": [],
					"name": "getCount",
					"outputs": [
						{
							"internalType": "uint256",
							"name": "",
							"type": "uint256"
						}
					],
					"stateMutability": "view",
					"type": "function"
				}
			],
			"devdoc": {
				"kind": "dev",
				"methods": {},
				"version": 1
			},
			"evm": {
				"assembly": "    /* \"contracts/counter.sol\":66:424  contract Counter{\r... */\n  mstore(0x40, 0x80)\n  callvalue\n  dup1\n  iszero\n  tag_1\n  jumpi\n  0x00\n  dup1\n  revert\ntag_1:\n  pop\n  dataSize(sub_0)\n  dup1\n  dataOffset(sub_0)\n  0x00\n  codecopy\n  0x00\n  return\nstop\n\nsub_0: assembly {\n        /* \"contracts/counter.sol\":66:424  contract Counter{\r... */\n      mstore(0x40, 0x80)\n      callvalue\n      dup1\n      iszero\n      tag_1\n      jumpi\n      0x00\n      dup1\n      revert\n    tag_1:\n      pop\n      jumpi(tag_2, lt(calldatasize, 0x04))\n      shr(0xe0, calldataload(0x00))\n      dup1\n      0x20ed8b89\n      eq\n      tag_3\n      jumpi\n      dup1\n      0x648b7ce8\n      eq\n      tag_4\n      jumpi\n      dup1\n      0x92277933\n      eq\n      tag_5\n      jumpi\n      dup1\n      0xa87d942c\n      eq\n      tag_6\n      jumpi\n    tag_2:\n      0x00\n      dup1\n      revert\n        /* \"contracts/counter.sol\":203:257  function Decrement() public {\r... */\n    tag_3:\n      tag_7\n      tag_8\n      jump\t// in\n    tag_7:\n      stop\n        /* \"contracts/counter.sol\":141:195  function Increment() public {\r... */\n    tag_4:\n      tag_9\n      tag_10\n      jump\t// in\n    tag_9:\n      stop\n        /* \"contracts/counter.sol\":349:419  function abc() public pure returns(uint) {\r... */\n    tag_5:\n      tag_11\n      tag_12\n      jump\t// in\n    tag_11:\n      mload(0x40)\n      tag_13\n      swap2\n      swap1\n      tag_14\n      jump\t// in\n    tag_13:\n      mload(0x40)\n      dup1\n      swap2\n      sub\n      swap1\n      return\n        /* \"contracts/counter.sol\":265:341  function getCount() public view returns(uint){\r... */\n    tag_6:\n      tag_15\n      tag_16\n      jump\t// in\n    tag_15:\n      mload(0x40)\n      tag_17\n      swap2\n      swap1\n      tag_14\n      jump\t// in\n    tag_17:\n      mload(0x40)\n      dup1\n      swap2\n      sub\n      swap1\n      return\n        /* \"contracts/counter.sol\":203:257  function Decrement() public {\r... */\n    tag_8:\n        /* \"contracts/counter.sol\":242:247  count */\n      0x00\n      dup1\n        /* \"contracts/counter.sol\":242:249  count-- */\n      dup2\n      sload\n      dup1\n      swap3\n      swap2\n      swap1\n      tag_19\n      swap1\n      tag_20\n      jump\t// in\n    tag_19:\n      swap2\n      swap1\n      pop\n      sstore\n      pop\n        /* \"contracts/counter.sol\":203:257  function Decrement() public {\r... */\n      jump\t// out\n        /* \"contracts/counter.sol\":141:195  function Increment() public {\r... */\n    tag_10:\n        /* \"contracts/counter.sol\":180:185  count */\n      0x00\n      dup1\n        /* \"contracts/counter.sol\":180:187  count++ */\n      dup2\n      sload\n      dup1\n      swap3\n      swap2\n      swap1\n      tag_22\n      swap1\n      tag_23\n      jump\t// in\n    tag_22:\n      swap2\n      swap1\n      pop\n      sstore\n      pop\n        /* \"contracts/counter.sol\":141:195  function Increment() public {\r... */\n      jump\t// out\n        /* \"contracts/counter.sol\":349:419  function abc() public pure returns(uint) {\r... */\n    tag_12:\n        /* \"contracts/counter.sol\":384:388  uint */\n      0x00\n        /* \"contracts/counter.sol\":408:411  2+3 */\n      0x05\n        /* \"contracts/counter.sol\":401:411  return 2+3 */\n      swap1\n      pop\n        /* \"contracts/counter.sol\":349:419  function abc() public pure returns(uint) {\r... */\n      swap1\n      jump\t// out\n        /* \"contracts/counter.sol\":265:341  function getCount() public view returns(uint){\r... */\n    tag_16:\n        /* \"contracts/counter.sol\":305:309  uint */\n      0x00\n        /* \"contracts/counter.sol\":328:333  count */\n      dup1\n      sload\n        /* \"contracts/counter.sol\":321:333  return count */\n      swap1\n      pop\n        /* \"contracts/counter.sol\":265:341  function getCount() public view returns(uint){\r... */\n      swap1\n      jump\t// out\n        /* \"#utility.yul\":7:125   */\n    tag_27:\n        /* \"#utility.yul\":94:118   */\n      tag_29\n        /* \"#utility.yul\":112:117   */\n      dup2\n        /* \"#utility.yul\":94:118   */\n      tag_30\n      jump\t// in\n    tag_29:\n        /* \"#utility.yul\":89:92   */\n      dup3\n        /* \"#utility.yul\":82:119   */\n      mstore\n        /* \"#utility.yul\":72:125   */\n      pop\n      pop\n      jump\t// out\n        /* \"#utility.yul\":131:353   */\n    tag_14:\n      0x00\n        /* \"#utility.yul\":262:264   */\n      0x20\n        /* \"#utility.yul\":251:260   */\n      dup3\n        /* \"#utility.yul\":247:265   */\n      add\n        /* \"#utility.yul\":239:265   */\n      swap1\n      pop\n        /* \"#utility.yul\":275:346   */\n      tag_32\n        /* \"#utility.yul\":343:344   */\n      0x00\n        /* \"#utility.yul\":332:341   */\n      dup4\n        /* \"#utility.yul\":328:345   */\n      add\n        /* \"#utility.yul\":319:325   */\n      dup5\n        /* \"#utility.yul\":275:346   */\n      tag_27\n      jump\t// in\n    tag_32:\n        /* \"#utility.yul\":229:353   */\n      swap3\n      swap2\n      pop\n      pop\n      jump\t// out\n        /* \"#utility.yul\":359:436   */\n    tag_30:\n      0x00\n        /* \"#utility.yul\":425:430   */\n      dup2\n        /* \"#utility.yul\":414:430   */\n      swap1\n      pop\n        /* \"#utility.yul\":404:436   */\n      swap2\n      swap1\n      pop\n      jump\t// out\n        /* \"#utility.yul\":442:613   */\n    tag_20:\n      0x00\n        /* \"#utility.yul\":504:528   */\n      tag_35\n        /* \"#utility.yul\":522:527   */\n      dup3\n        /* \"#utility.yul\":504:528   */\n      tag_30\n      jump\t// in\n    tag_35:\n        /* \"#utility.yul\":495:528   */\n      swap2\n      pop\n        /* \"#utility.yul\":550:554   */\n      0x00\n        /* \"#utility.yul\":543:548   */\n      dup3\n        /* \"#utility.yul\":540:555   */\n      eq\n        /* \"#utility.yul\":537:539   */\n      iszero\n      tag_36\n      jumpi\n        /* \"#utility.yul\":558:576   */\n      tag_37\n      tag_38\n      jump\t// in\n    tag_37:\n        /* \"#utility.yul\":537:539   */\n    tag_36:\n        /* \"#utility.yul\":605:606   */\n      0x01\n        /* \"#utility.yul\":598:603   */\n      dup3\n        /* \"#utility.yul\":594:607   */\n      sub\n        /* \"#utility.yul\":587:607   */\n      swap1\n      pop\n        /* \"#utility.yul\":485:613   */\n      swap2\n      swap1\n      pop\n      jump\t// out\n        /* \"#utility.yul\":619:852   */\n    tag_23:\n      0x00\n        /* \"#utility.yul\":681:705   */\n      tag_40\n        /* \"#utility.yul\":699:704   */\n      dup3\n        /* \"#utility.yul\":681:705   */\n      tag_30\n      jump\t// in\n    tag_40:\n        /* \"#utility.yul\":672:705   */\n      swap2\n      pop\n        /* \"#utility.yul\":727:793   */\n      0xffffffffffffffffffffffffffffffffffffffffffffffffffffffffffffffff\n        /* \"#utility.yul\":720:725   */\n      dup3\n        /* \"#utility.yul\":717:794   */\n      eq\n        /* \"#utility.yul\":714:716   */\n      iszero\n      tag_41\n      jumpi\n        /* \"#utility.yul\":797:815   */\n      tag_42\n      tag_38\n      jump\t// in\n    tag_42:\n        /* \"#utility.yul\":714:716   */\n    tag_41:\n        /* \"#utility.yul\":844:845   */\n      0x01\n        /* \"#utility.yul\":837:842   */\n      dup3\n        /* \"#utility.yul\":833:846   */\n      add\n        /* \"#utility.yul\":826:846   */\n      swap1\n      pop\n        /* \"#utility.yul\":662:852   */\n      swap2\n      swap1\n      pop\n      jump\t// out\n        /* \"#utility.yul\":858:1038   */\n    tag_38:\n        /* \"#utility.yul\":906:983   */\n      0x4e487b7100000000000000000000000000000000000000000000000000000000\n        /* \"#utility.yul\":903:904   */\n      0x00\n        /* \"#utility.yul\":896:984   */\n      mstore\n        /* \"#utility.yul\":1003:1007   */\n      0x11\n        /* \"#utility.yul\":1000:1001   */\n      0x04\n        /* \"#utility.yul\":993:1008   */\n      mstore\n        /* \"#utility.yul\":1027:1031   */\n      0x24\n        /* \"#utility.yul\":1024:1025   */\n      0x00\n        /* \"#utility.yul\":1017:1032   */\n      revert\n\n    auxdata: 0xa2646970667358221220ba4ee52e2401add9b27412cac00499f7c891fea2f305384e9ade0610450cb63464736f6c63430008030033\n}\n",
				"bytecode": {
					"linkReferences": {},
					"object": "608060405234801561001057600080fd5b506101f1806100206000396000f3fe608060405234801561001057600080fd5b506004361061004c5760003560e01c806320ed8b8914610051578063648b7ce81461005b5780639227793314610065578063a87d942c14610083575b600080fd5b6100596100a1565b005b6100636100ba565b005b61006d6100d3565b60405161007a91906100f4565b60405180910390f35b61008b6100dc565b60405161009891906100f4565b60405180910390f35b6000808154809291906100b390610119565b9190505550565b6000808154809291906100cc90610143565b9190505550565b60006005905090565b60008054905090565b6100ee8161010f565b82525050565b600060208201905061010960008301846100e5565b92915050565b6000819050919050565b60006101248261010f565b915060008214156101385761013761018c565b5b600182039050919050565b600061014e8261010f565b91507fffffffffffffffffffffffffffffffffffffffffffffffffffffffffffffffff8214156101815761018061018c565b5b600182019050919050565b7f4e487b7100000000000000000000000000000000000000000000000000000000600052601160045260246000fdfea2646970667358221220ba4ee52e2401add9b27412cac00499f7c891fea2f305384e9ade0610450cb63464736f6c63430008030033",
					"opcodes": "PUSH1 0x80 PUSH1 0x40 MSTORE CALLVALUE DUP1 ISZERO PUSH2 0x10 JUMPI PUSH1 0x0 DUP1 REVERT JUMPDEST POP PUSH2 0x1F1 DUP1 PUSH2 0x20 PUSH1 0x0 CODECOPY PUSH1 0x0 RETURN INVALID PUSH1 0x80 PUSH1 0x40 MSTORE CALLVALUE DUP1 ISZERO PUSH2 0x10 JUMPI PUSH1 0x0 DUP1 REVERT JUMPDEST POP PUSH1 0x4 CALLDATASIZE LT PUSH2 0x4C JUMPI PUSH1 0x0 CALLDATALOAD PUSH1 0xE0 SHR DUP1 PUSH4 0x20ED8B89 EQ PUSH2 0x51 JUMPI DUP1 PUSH4 0x648B7CE8 EQ PUSH2 0x5B JUMPI DUP1 PUSH4 0x92277933 EQ PUSH2 0x65 JUMPI DUP1 PUSH4 0xA87D942C EQ PUSH2 0x83 JUMPI JUMPDEST PUSH1 0x0 DUP1 REVERT JUMPDEST PUSH2 0x59 PUSH2 0xA1 JUMP JUMPDEST STOP JUMPDEST PUSH2 0x63 PUSH2 0xBA JUMP JUMPDEST STOP JUMPDEST PUSH2 0x6D PUSH2 0xD3 JUMP JUMPDEST PUSH1 0x40 MLOAD PUSH2 0x7A SWAP2 SWAP1 PUSH2 0xF4 JUMP JUMPDEST PUSH1 0x40 MLOAD DUP1 SWAP2 SUB SWAP1 RETURN JUMPDEST PUSH2 0x8B PUSH2 0xDC JUMP JUMPDEST PUSH1 0x40 MLOAD PUSH2 0x98 SWAP2 SWAP1 PUSH2 0xF4 JUMP JUMPDEST PUSH1 0x40 MLOAD DUP1 SWAP2 SUB SWAP1 RETURN JUMPDEST PUSH1 0x0 DUP1 DUP2 SLOAD DUP1 SWAP3 SWAP2 SWAP1 PUSH2 0xB3 SWAP1 PUSH2 0x119 JUMP JUMPDEST SWAP2 SWAP1 POP SSTORE POP JUMP JUMPDEST PUSH1 0x0 DUP1 DUP2 SLOAD DUP1 SWAP3 SWAP2 SWAP1 PUSH2 0xCC SWAP1 PUSH2 0x143 JUMP JUMPDEST SWAP2 SWAP1 POP SSTORE POP JUMP JUMPDEST PUSH1 0x0 PUSH1 0x5 SWAP1 POP SWAP1 JUMP JUMPDEST PUSH1 0x0 DUP1 SLOAD SWAP1 POP SWAP1 JUMP JUMPDEST PUSH2 0xEE DUP2 PUSH2 0x10F JUMP JUMPDEST DUP3 MSTORE POP POP JUMP JUMPDEST PUSH1 0x0 PUSH1 0x20 DUP3 ADD SWAP1 POP PUSH2 0x109 PUSH1 0x0 DUP4 ADD DUP5 PUSH2 0xE5 JUMP JUMPDEST SWAP3 SWAP2 POP POP JUMP JUMPDEST PUSH1 0x0 DUP2 SWAP1 POP SWAP2 SWAP1 POP JUMP JUMPDEST PUSH1 0x0 PUSH2 0x124 DUP3 PUSH2 0x10F JUMP JUMPDEST SWAP2 POP PUSH1 0x0 DUP3 EQ ISZERO PUSH2 0x138 JUMPI PUSH2 0x137 PUSH2 0x18C JUMP JUMPDEST JUMPDEST PUSH1 0x1 DUP3 SUB SWAP1 POP SWAP2 SWAP1 POP JUMP JUMPDEST PUSH1 0x0 PUSH2 0x14E DUP3 PUSH2 0x10F JUMP JUMPDEST SWAP2 POP PUSH32 0xFFFFFFFFFFFFFFFFFFFFFFFFFFFFFFFFFFFFFFFFFFFFFFFFFFFFFFFFFFFFFFFF DUP3 EQ ISZERO PUSH2 0x181 JUMPI PUSH2 0x180 PUSH2 0x18C JUMP JUMPDEST JUMPDEST PUSH1 0x1 DUP3 ADD SWAP1 POP SWAP2 SWAP1 POP JUMP JUMPDEST PUSH32 0x4E487B7100000000000000000000000000000000000000000000000000000000 PUSH1 0x0 MSTORE PUSH1 0x11 PUSH1 0x4 MSTORE PUSH1 0x24 PUSH1 0x0 REVERT INVALID LOG2 PUSH5 0x6970667358 0x22 SLT KECCAK256 0xBA 0x4E 0xE5 0x2E 0x24 ADD 0xAD 0xD9 0xB2 PUSH21 0x12CAC00499F7C891FEA2F305384E9ADE0610450CB6 CALLVALUE PUSH5 0x736F6C6343 STOP ADDMOD SUB STOP CALLER "
				},
				"gasEstimates": {
					"creation": {
						"codeDepositCost": "99400",
						"executionCost": "147",
						"totalCost": "99547"
					},
					"external": {
						"Decrement()": "21082",
						"Increment()": "21104",
						"abc()": "359",
						"getCount()": "1181"
					}
				},
				"methodIdentifiers": {
					"Decrement()": "20ed8b89",
					"Increment()": "648b7ce8",
					"abc()": "92277933",
					"getCount()": "a87d942c"
				}
			},
			"storageLayout": {
				"storage": [
					{
						"astId": 3,
						"contract": "contracts/counter.sol:Counter",
						"label": "count",
						"offset": 0,
						"slot": "0",
						"type": "t_uint256"
					}
				],
				"types": {
					"t_uint256": {
						"encoding": "inplace",
						"label": "uint256",
						"numberOfBytes": "32"
					}
				}
			},
			"userdoc": {
				"kind": "user",
				"methods": {},
				"version": 1
			}
		}
	}
}