{
	"contracts/userdefined-struct.sol": {
		"StudentDetails": {
			"abi": [
				{
					"inputs": [],
					"name": "getBookDetails",
					"outputs": [
						{
							"internalType": "string",
							"name": "",
							"type": "string"
						},
						{
							"internalType": "string",
							"name": "",
							"type": "string"
						},
						{
							"internalType": "uint256",
							"name": "",
							"type": "uint256"
						}
					],
					"stateMutability": "view",
					"type": "function"
				},
				{
					"inputs": [
						{
							"internalType": "string",
							"name": "title",
							"type": "string"
						},
						{
							"internalType": "string",
							"name": "author",
							"type": "string"
						},
						{
							"internalType": "uint256",
							"name": "bookId",
							"type": "uint256"
						},
						{
							"internalType": "uint256",
							"name": "price",
							"type": "uint256"
						}
					],
					"name": "setBook",
					"outputs": [],
					"stateMutability": "nonpayable",
					"type": "function"
				}
			],
			"devdoc": {
				"kind": "dev",
				"methods": {},
				"version": 1
			},
			"evm": {
				"assembly": "    /* \"contracts/userdefined-struct.sol\":62:538  contract StudentDetails {\r... */\n  mstore(0x40, 0x80)\n  callvalue\n  dup1\n  iszero\n  tag_1\n  jumpi\n  0x00\n  dup1\n  revert\ntag_1:\n  pop\n  dataSize(sub_0)\n  dup1\n  dataOffset(sub_0)\n  0x00\n  codecopy\n  0x00\n  return\nstop\n\nsub_0: assembly {\n        /* \"contracts/userdefined-struct.sol\":62:538  contract StudentDetails {\r... */\n      mstore(0x40, 0x80)\n      callvalue\n      dup1\n      iszero\n      tag_1\n      jumpi\n      0x00\n      dup1\n      revert\n    tag_1:\n      pop\n      jumpi(tag_2, lt(calldatasize, 0x04))\n      shr(0xe0, calldataload(0x00))\n      dup1\n      0x3cd0738d\n      eq\n      tag_3\n      jumpi\n      dup1\n      0xde761c66\n      eq\n      tag_4\n      jumpi\n    tag_2:\n      0x00\n      dup1\n      revert\n        /* \"contracts/userdefined-struct.sol\":233:378  function setBook(string memory title,string memory author,uint bookId,uint price) public {\r... */\n    tag_3:\n      tag_5\n      0x04\n      dup1\n      calldatasize\n      sub\n      dup2\n      add\n      swap1\n      tag_6\n      swap2\n      swap1\n      tag_7\n      jump\t// in\n    tag_6:\n      tag_8\n      jump\t// in\n    tag_5:\n      stop\n        /* \"contracts/userdefined-struct.sol\":386:529  function getBookDetails() view public returns(string memory,string memory,uint){\r... */\n    tag_4:\n      tag_9\n      tag_10\n      jump\t// in\n    tag_9:\n      mload(0x40)\n      tag_11\n      swap4\n      swap3\n      swap2\n      swap1\n      tag_12\n      jump\t// in\n    tag_11:\n      mload(0x40)\n      dup1\n      swap2\n      sub\n      swap1\n      return\n        /* \"contracts/userdefined-struct.sol\":233:378  function setBook(string memory title,string memory author,uint bookId,uint price) public {\r... */\n    tag_8:\n        /* \"contracts/userdefined-struct.sol\":339:370  Book(title,author,bookId,price) */\n      mload(0x40)\n      dup1\n      0x80\n      add\n      0x40\n      mstore\n      dup1\n        /* \"contracts/userdefined-struct.sol\":344:349  title */\n      dup6\n        /* \"contracts/userdefined-struct.sol\":339:370  Book(title,author,bookId,price) */\n      dup2\n      mstore\n      0x20\n      add\n        /* \"contracts/userdefined-struct.sol\":350:356  author */\n      dup5\n        /* \"contracts/userdefined-struct.sol\":339:370  Book(title,author,bookId,price) */\n      dup2\n      mstore\n      0x20\n      add\n        /* \"contracts/userdefined-struct.sol\":357:363  bookId */\n      dup4\n        /* \"contracts/userdefined-struct.sol\":339:370  Book(title,author,bookId,price) */\n      dup2\n      mstore\n      0x20\n      add\n        /* \"contracts/userdefined-struct.sol\":364:369  price */\n      dup3\n        /* \"contracts/userdefined-struct.sol\":339:370  Book(title,author,bookId,price) */\n      dup2\n      mstore\n      pop\n        /* \"contracts/userdefined-struct.sol\":333:338  book1 */\n      0x00\n        /* \"contracts/userdefined-struct.sol\":333:370  book1=Book(title,author,bookId,price) */\n      dup1\n      dup3\n      add\n      mload\n      dup2\n      0x00\n      add\n      swap1\n      dup1\n      mload\n      swap1\n      0x20\n      add\n      swap1\n      tag_14\n      swap3\n      swap2\n      swap1\n      tag_15\n      jump\t// in\n    tag_14:\n      pop\n      0x20\n      dup3\n      add\n      mload\n      dup2\n      0x01\n      add\n      swap1\n      dup1\n      mload\n      swap1\n      0x20\n      add\n      swap1\n      tag_16\n      swap3\n      swap2\n      swap1\n      tag_15\n      jump\t// in\n    tag_16:\n      pop\n      0x40\n      dup3\n      add\n      mload\n      dup2\n      0x02\n      add\n      sstore\n      0x60\n      dup3\n      add\n      mload\n      dup2\n      0x03\n      add\n      sstore\n      swap1\n      pop\n      pop\n        /* \"contracts/userdefined-struct.sol\":233:378  function setBook(string memory title,string memory author,uint bookId,uint price) public {\r... */\n      pop\n      pop\n      pop\n      pop\n      jump\t// out\n        /* \"contracts/userdefined-struct.sol\":386:529  function getBookDetails() view public returns(string memory,string memory,uint){\r... */\n    tag_10:\n        /* \"contracts/userdefined-struct.sol\":432:445  string memory */\n      0x60\n        /* \"contracts/userdefined-struct.sol\":446:459  string memory */\n      dup1\n        /* \"contracts/userdefined-struct.sol\":460:464  uint */\n      0x00\n        /* \"contracts/userdefined-struct.sol\":484:489  book1 */\n      dup1\n        /* \"contracts/userdefined-struct.sol\":484:495  book1.title */\n      0x00\n      add\n        /* \"contracts/userdefined-struct.sol\":496:501  book1 */\n      0x00\n        /* \"contracts/userdefined-struct.sol\":496:508  book1.author */\n      0x01\n      add\n        /* \"contracts/userdefined-struct.sol\":509:514  book1 */\n      0x00\n        /* \"contracts/userdefined-struct.sol\":509:520  book1.price */\n      0x03\n      add\n      sload\n        /* \"contracts/userdefined-struct.sol\":476:521  return (book1.title,book1.author,book1.price) */\n      dup3\n      dup1\n      sload\n      tag_18\n      swap1\n      tag_19\n      jump\t// in\n    tag_18:\n      dup1\n      0x1f\n      add\n      0x20\n      dup1\n      swap2\n      div\n      mul\n      0x20\n      add\n      mload(0x40)\n      swap1\n      dup2\n      add\n      0x40\n      mstore\n      dup1\n      swap3\n      swap2\n      swap1\n      dup2\n      dup2\n      mstore\n      0x20\n      add\n      dup3\n      dup1\n      sload\n      tag_20\n      swap1\n      tag_19\n      jump\t// in\n    tag_20:\n      dup1\n      iszero\n      tag_21\n      jumpi\n      dup1\n      0x1f\n      lt\n      tag_22\n      jumpi\n      0x0100\n      dup1\n      dup4\n      sload\n      div\n      mul\n      dup4\n      mstore\n      swap2\n      0x20\n      add\n      swap2\n      jump(tag_21)\n    tag_22:\n      dup3\n      add\n      swap2\n      swap1\n      0x00\n      mstore\n      keccak256(0x00, 0x20)\n      swap1\n    tag_23:\n      dup2\n      sload\n      dup2\n      mstore\n      swap1\n      0x01\n      add\n      swap1\n      0x20\n      add\n      dup1\n      dup4\n      gt\n      tag_23\n      jumpi\n      dup3\n      swap1\n      sub\n      0x1f\n      and\n      dup3\n      add\n      swap2\n    tag_21:\n      pop\n      pop\n      pop\n      pop\n      pop\n      swap3\n      pop\n      dup2\n      dup1\n      sload\n      tag_24\n      swap1\n      tag_19\n      jump\t// in\n    tag_24:\n      dup1\n      0x1f\n      add\n      0x20\n      dup1\n      swap2\n      div\n      mul\n      0x20\n      add\n      mload(0x40)\n      swap1\n      dup2\n      add\n      0x40\n      mstore\n      dup1\n      swap3\n      swap2\n      swap1\n      dup2\n      dup2\n      mstore\n      0x20\n      add\n      dup3\n      dup1\n      sload\n      tag_25\n      swap1\n      tag_19\n      jump\t// in\n    tag_25:\n      dup1\n      iszero\n      tag_26\n      jumpi\n      dup1\n      0x1f\n      lt\n      tag_27\n      jumpi\n      0x0100\n      dup1\n      dup4\n      sload\n      div\n      mul\n      dup4\n      mstore\n      swap2\n      0x20\n      add\n      swap2\n      jump(tag_26)\n    tag_27:\n      dup3\n      add\n      swap2\n      swap1\n      0x00\n      mstore\n      keccak256(0x00, 0x20)\n      swap1\n    tag_28:\n      dup2\n      sload\n      dup2\n      mstore\n      swap1\n      0x01\n      add\n      swap1\n      0x20\n      add\n      dup1\n      dup4\n      gt\n      tag_28\n      jumpi\n      dup3\n      swap1\n      sub\n      0x1f\n      and\n      dup3\n      add\n      swap2\n    tag_26:\n      pop\n      pop\n      pop\n      pop\n      pop\n      swap2\n      pop\n      swap3\n      pop\n      swap3\n      pop\n      swap3\n      pop\n        /* \"contracts/userdefined-struct.sol\":386:529  function getBookDetails() view public returns(string memory,string memory,uint){\r... */\n      swap1\n      swap2\n      swap3\n      jump\t// out\n    tag_15:\n      dup3\n      dup1\n      sload\n      tag_29\n      swap1\n      tag_19\n      jump\t// in\n    tag_29:\n      swap1\n      0x00\n      mstore\n      keccak256(0x00, 0x20)\n      swap1\n      0x1f\n      add\n      0x20\n      swap1\n      div\n      dup2\n      add\n      swap3\n      dup3\n      tag_31\n      jumpi\n      0x00\n      dup6\n      sstore\n      jump(tag_30)\n    tag_31:\n      dup3\n      0x1f\n      lt\n      tag_32\n      jumpi\n      dup1\n      mload\n      not(0xff)\n      and\n      dup4\n      dup1\n      add\n      or\n      dup6\n      sstore\n      jump(tag_30)\n    tag_32:\n      dup3\n      dup1\n      add\n      0x01\n      add\n      dup6\n      sstore\n      dup3\n      iszero\n      tag_30\n      jumpi\n      swap2\n      dup3\n      add\n    tag_33:\n      dup3\n      dup2\n      gt\n      iszero\n      tag_34\n      jumpi\n      dup3\n      mload\n      dup3\n      sstore\n      swap2\n      0x20\n      add\n      swap2\n      swap1\n      0x01\n      add\n      swap1\n      jump(tag_33)\n    tag_34:\n    tag_30:\n      pop\n      swap1\n      pop\n      tag_35\n      swap2\n      swap1\n      tag_36\n      jump\t// in\n    tag_35:\n      pop\n      swap1\n      jump\t// out\n    tag_36:\n    tag_37:\n      dup1\n      dup3\n      gt\n      iszero\n      tag_38\n      jumpi\n      0x00\n      dup2\n      0x00\n      swap1\n      sstore\n      pop\n      0x01\n      add\n      jump(tag_37)\n    tag_38:\n      pop\n      swap1\n      jump\t// out\n        /* \"#utility.yul\":7:352   */\n    tag_40:\n      0x00\n        /* \"#utility.yul\":110:176   */\n      tag_42\n        /* \"#utility.yul\":126:175   */\n      tag_43\n        /* \"#utility.yul\":168:174   */\n      dup5\n        /* \"#utility.yul\":126:175   */\n      tag_44\n      jump\t// in\n    tag_43:\n        /* \"#utility.yul\":110:176   */\n      tag_45\n      jump\t// in\n    tag_42:\n        /* \"#utility.yul\":101:176   */\n      swap1\n      pop\n        /* \"#utility.yul\":199:205   */\n      dup3\n        /* \"#utility.yul\":192:197   */\n      dup2\n        /* \"#utility.yul\":185:206   */\n      mstore\n        /* \"#utility.yul\":237:241   */\n      0x20\n        /* \"#utility.yul\":230:235   */\n      dup2\n        /* \"#utility.yul\":226:242   */\n      add\n        /* \"#utility.yul\":275:278   */\n      dup5\n        /* \"#utility.yul\":266:272   */\n      dup5\n        /* \"#utility.yul\":261:264   */\n      dup5\n        /* \"#utility.yul\":257:273   */\n      add\n        /* \"#utility.yul\":254:279   */\n      gt\n        /* \"#utility.yul\":251:253   */\n      iszero\n      tag_46\n      jumpi\n        /* \"#utility.yul\":292:293   */\n      0x00\n        /* \"#utility.yul\":289:290   */\n      dup1\n        /* \"#utility.yul\":282:294   */\n      revert\n        /* \"#utility.yul\":251:253   */\n    tag_46:\n        /* \"#utility.yul\":305:346   */\n      tag_47\n        /* \"#utility.yul\":339:345   */\n      dup5\n        /* \"#utility.yul\":334:337   */\n      dup3\n        /* \"#utility.yul\":329:332   */\n      dup6\n        /* \"#utility.yul\":305:346   */\n      tag_48\n      jump\t// in\n    tag_47:\n        /* \"#utility.yul\":91:352   */\n      pop\n      swap4\n      swap3\n      pop\n      pop\n      pop\n      jump\t// out\n        /* \"#utility.yul\":372:645   */\n    tag_49:\n      0x00\n        /* \"#utility.yul\":477:480   */\n      dup3\n        /* \"#utility.yul\":470:474   */\n      0x1f\n        /* \"#utility.yul\":462:468   */\n      dup4\n        /* \"#utility.yul\":458:475   */\n      add\n        /* \"#utility.yul\":454:481   */\n      slt\n        /* \"#utility.yul\":444:446   */\n      tag_51\n      jumpi\n        /* \"#utility.yul\":495:496   */\n      0x00\n        /* \"#utility.yul\":492:493   */\n      dup1\n        /* \"#utility.yul\":485:497   */\n      revert\n        /* \"#utility.yul\":444:446   */\n    tag_51:\n        /* \"#utility.yul\":535:541   */\n      dup2\n        /* \"#utility.yul\":522:542   */\n      calldataload\n        /* \"#utility.yul\":560:639   */\n      tag_52\n        /* \"#utility.yul\":635:638   */\n      dup5\n        /* \"#utility.yul\":627:633   */\n      dup3\n        /* \"#utility.yul\":620:624   */\n      0x20\n        /* \"#utility.yul\":612:618   */\n      dup7\n        /* \"#utility.yul\":608:625   */\n      add\n        /* \"#utility.yul\":560:639   */\n      tag_40\n      jump\t// in\n    tag_52:\n        /* \"#utility.yul\":551:639   */\n      swap2\n      pop\n        /* \"#utility.yul\":434:645   */\n      pop\n      swap3\n      swap2\n      pop\n      pop\n      jump\t// out\n        /* \"#utility.yul\":651:790   */\n    tag_53:\n      0x00\n        /* \"#utility.yul\":735:741   */\n      dup2\n        /* \"#utility.yul\":722:742   */\n      calldataload\n        /* \"#utility.yul\":713:742   */\n      swap1\n      pop\n        /* \"#utility.yul\":751:784   */\n      tag_55\n        /* \"#utility.yul\":778:783   */\n      dup2\n        /* \"#utility.yul\":751:784   */\n      tag_56\n      jump\t// in\n    tag_55:\n        /* \"#utility.yul\":703:790   */\n      swap3\n      swap2\n      pop\n      pop\n      jump\t// out\n        /* \"#utility.yul\":796:1720   */\n    tag_7:\n      0x00\n      dup1\n      0x00\n      dup1\n        /* \"#utility.yul\":975:978   */\n      0x80\n        /* \"#utility.yul\":963:972   */\n      dup6\n        /* \"#utility.yul\":954:961   */\n      dup8\n        /* \"#utility.yul\":950:973   */\n      sub\n        /* \"#utility.yul\":946:979   */\n      slt\n        /* \"#utility.yul\":943:945   */\n      iszero\n      tag_58\n      jumpi\n        /* \"#utility.yul\":992:993   */\n      0x00\n        /* \"#utility.yul\":989:990   */\n      dup1\n        /* \"#utility.yul\":982:994   */\n      revert\n        /* \"#utility.yul\":943:945   */\n    tag_58:\n        /* \"#utility.yul\":1063:1064   */\n      0x00\n        /* \"#utility.yul\":1052:1061   */\n      dup6\n        /* \"#utility.yul\":1048:1065   */\n      add\n        /* \"#utility.yul\":1035:1066   */\n      calldataload\n        /* \"#utility.yul\":1093:1111   */\n      0xffffffffffffffff\n        /* \"#utility.yul\":1085:1091   */\n      dup2\n        /* \"#utility.yul\":1082:1112   */\n      gt\n        /* \"#utility.yul\":1079:1081   */\n      iszero\n      tag_59\n      jumpi\n        /* \"#utility.yul\":1125:1126   */\n      0x00\n        /* \"#utility.yul\":1122:1123   */\n      dup1\n        /* \"#utility.yul\":1115:1127   */\n      revert\n        /* \"#utility.yul\":1079:1081   */\n    tag_59:\n        /* \"#utility.yul\":1153:1216   */\n      tag_60\n        /* \"#utility.yul\":1208:1215   */\n      dup8\n        /* \"#utility.yul\":1199:1205   */\n      dup3\n        /* \"#utility.yul\":1188:1197   */\n      dup9\n        /* \"#utility.yul\":1184:1206   */\n      add\n        /* \"#utility.yul\":1153:1216   */\n      tag_49\n      jump\t// in\n    tag_60:\n        /* \"#utility.yul\":1143:1216   */\n      swap5\n      pop\n        /* \"#utility.yul\":1006:1226   */\n      pop\n        /* \"#utility.yul\":1293:1295   */\n      0x20\n        /* \"#utility.yul\":1282:1291   */\n      dup6\n        /* \"#utility.yul\":1278:1296   */\n      add\n        /* \"#utility.yul\":1265:1297   */\n      calldataload\n        /* \"#utility.yul\":1324:1342   */\n      0xffffffffffffffff\n        /* \"#utility.yul\":1316:1322   */\n      dup2\n        /* \"#utility.yul\":1313:1343   */\n      gt\n        /* \"#utility.yul\":1310:1312   */\n      iszero\n      tag_61\n      jumpi\n        /* \"#utility.yul\":1356:1357   */\n      0x00\n        /* \"#utility.yul\":1353:1354   */\n      dup1\n        /* \"#utility.yul\":1346:1358   */\n      revert\n        /* \"#utility.yul\":1310:1312   */\n    tag_61:\n        /* \"#utility.yul\":1384:1447   */\n      tag_62\n        /* \"#utility.yul\":1439:1446   */\n      dup8\n        /* \"#utility.yul\":1430:1436   */\n      dup3\n        /* \"#utility.yul\":1419:1428   */\n      dup9\n        /* \"#utility.yul\":1415:1437   */\n      add\n        /* \"#utility.yul\":1384:1447   */\n      tag_49\n      jump\t// in\n    tag_62:\n        /* \"#utility.yul\":1374:1447   */\n      swap4\n      pop\n        /* \"#utility.yul\":1236:1457   */\n      pop\n        /* \"#utility.yul\":1496:1498   */\n      0x40\n        /* \"#utility.yul\":1522:1575   */\n      tag_63\n        /* \"#utility.yul\":1567:1574   */\n      dup8\n        /* \"#utility.yul\":1558:1564   */\n      dup3\n        /* \"#utility.yul\":1547:1556   */\n      dup9\n        /* \"#utility.yul\":1543:1565   */\n      add\n        /* \"#utility.yul\":1522:1575   */\n      tag_53\n      jump\t// in\n    tag_63:\n        /* \"#utility.yul\":1512:1575   */\n      swap3\n      pop\n        /* \"#utility.yul\":1467:1585   */\n      pop\n        /* \"#utility.yul\":1624:1626   */\n      0x60\n        /* \"#utility.yul\":1650:1703   */\n      tag_64\n        /* \"#utility.yul\":1695:1702   */\n      dup8\n        /* \"#utility.yul\":1686:1692   */\n      dup3\n        /* \"#utility.yul\":1675:1684   */\n      dup9\n        /* \"#utility.yul\":1671:1693   */\n      add\n        /* \"#utility.yul\":1650:1703   */\n      tag_53\n      jump\t// in\n    tag_64:\n        /* \"#utility.yul\":1640:1703   */\n      swap2\n      pop\n        /* \"#utility.yul\":1595:1713   */\n      pop\n        /* \"#utility.yul\":933:1720   */\n      swap3\n      swap6\n      swap2\n      swap5\n      pop\n      swap3\n      pop\n      jump\t// out\n        /* \"#utility.yul\":1726:2090   */\n    tag_65:\n      0x00\n        /* \"#utility.yul\":1842:1881   */\n      tag_67\n        /* \"#utility.yul\":1875:1880   */\n      dup3\n        /* \"#utility.yul\":1842:1881   */\n      tag_68\n      jump\t// in\n    tag_67:\n        /* \"#utility.yul\":1897:1968   */\n      tag_69\n        /* \"#utility.yul\":1961:1967   */\n      dup2\n        /* \"#utility.yul\":1956:1959   */\n      dup6\n        /* \"#utility.yul\":1897:1968   */\n      tag_70\n      jump\t// in\n    tag_69:\n        /* \"#utility.yul\":1890:1968   */\n      swap4\n      pop\n        /* \"#utility.yul\":1977:2029   */\n      tag_71\n        /* \"#utility.yul\":2022:2028   */\n      dup2\n        /* \"#utility.yul\":2017:2020   */\n      dup6\n        /* \"#utility.yul\":2010:2014   */\n      0x20\n        /* \"#utility.yul\":2003:2008   */\n      dup7\n        /* \"#utility.yul\":1999:2015   */\n      add\n        /* \"#utility.yul\":1977:2029   */\n      tag_72\n      jump\t// in\n    tag_71:\n        /* \"#utility.yul\":2054:2083   */\n      tag_73\n        /* \"#utility.yul\":2076:2082   */\n      dup2\n        /* \"#utility.yul\":2054:2083   */\n      tag_74\n      jump\t// in\n    tag_73:\n        /* \"#utility.yul\":2049:2052   */\n      dup5\n        /* \"#utility.yul\":2045:2084   */\n      add\n        /* \"#utility.yul\":2038:2084   */\n      swap2\n      pop\n        /* \"#utility.yul\":1818:2090   */\n      pop\n      swap3\n      swap2\n      pop\n      pop\n      jump\t// out\n        /* \"#utility.yul\":2096:2214   */\n    tag_75:\n        /* \"#utility.yul\":2183:2207   */\n      tag_77\n        /* \"#utility.yul\":2201:2206   */\n      dup2\n        /* \"#utility.yul\":2183:2207   */\n      tag_78\n      jump\t// in\n    tag_77:\n        /* \"#utility.yul\":2178:2181   */\n      dup3\n        /* \"#utility.yul\":2171:2208   */\n      mstore\n        /* \"#utility.yul\":2161:2214   */\n      pop\n      pop\n      jump\t// out\n        /* \"#utility.yul\":2220:2844   */\n    tag_12:\n      0x00\n        /* \"#utility.yul\":2447:2449   */\n      0x60\n        /* \"#utility.yul\":2436:2445   */\n      dup3\n        /* \"#utility.yul\":2432:2450   */\n      add\n        /* \"#utility.yul\":2424:2450   */\n      swap1\n      pop\n        /* \"#utility.yul\":2496:2505   */\n      dup2\n        /* \"#utility.yul\":2490:2494   */\n      dup2\n        /* \"#utility.yul\":2486:2506   */\n      sub\n        /* \"#utility.yul\":2482:2483   */\n      0x00\n        /* \"#utility.yul\":2471:2480   */\n      dup4\n        /* \"#utility.yul\":2467:2484   */\n      add\n        /* \"#utility.yul\":2460:2507   */\n      mstore\n        /* \"#utility.yul\":2524:2602   */\n      tag_80\n        /* \"#utility.yul\":2597:2601   */\n      dup2\n        /* \"#utility.yul\":2588:2594   */\n      dup7\n        /* \"#utility.yul\":2524:2602   */\n      tag_65\n      jump\t// in\n    tag_80:\n        /* \"#utility.yul\":2516:2602   */\n      swap1\n      pop\n        /* \"#utility.yul\":2649:2658   */\n      dup2\n        /* \"#utility.yul\":2643:2647   */\n      dup2\n        /* \"#utility.yul\":2639:2659   */\n      sub\n        /* \"#utility.yul\":2634:2636   */\n      0x20\n        /* \"#utility.yul\":2623:2632   */\n      dup4\n        /* \"#utility.yul\":2619:2637   */\n      add\n        /* \"#utility.yul\":2612:2660   */\n      mstore\n        /* \"#utility.yul\":2677:2755   */\n      tag_81\n        /* \"#utility.yul\":2750:2754   */\n      dup2\n        /* \"#utility.yul\":2741:2747   */\n      dup6\n        /* \"#utility.yul\":2677:2755   */\n      tag_65\n      jump\t// in\n    tag_81:\n        /* \"#utility.yul\":2669:2755   */\n      swap1\n      pop\n        /* \"#utility.yul\":2765:2837   */\n      tag_82\n        /* \"#utility.yul\":2833:2835   */\n      0x40\n        /* \"#utility.yul\":2822:2831   */\n      dup4\n        /* \"#utility.yul\":2818:2836   */\n      add\n        /* \"#utility.yul\":2809:2815   */\n      dup5\n        /* \"#utility.yul\":2765:2837   */\n      tag_75\n      jump\t// in\n    tag_82:\n        /* \"#utility.yul\":2414:2844   */\n      swap5\n      swap4\n      pop\n      pop\n      pop\n      pop\n      jump\t// out\n        /* \"#utility.yul\":2850:2979   */\n    tag_45:\n      0x00\n        /* \"#utility.yul\":2911:2931   */\n      tag_84\n      tag_85\n      jump\t// in\n    tag_84:\n        /* \"#utility.yul\":2901:2931   */\n      swap1\n      pop\n        /* \"#utility.yul\":2940:2973   */\n      tag_86\n        /* \"#utility.yul\":2968:2972   */\n      dup3\n        /* \"#utility.yul\":2960:2966   */\n      dup3\n        /* \"#utility.yul\":2940:2973   */\n      tag_87\n      jump\t// in\n    tag_86:\n        /* \"#utility.yul\":2891:2979   */\n      swap2\n      swap1\n      pop\n      jump\t// out\n        /* \"#utility.yul\":2985:3060   */\n    tag_85:\n      0x00\n        /* \"#utility.yul\":3051:3053   */\n      0x40\n        /* \"#utility.yul\":3045:3054   */\n      mload\n        /* \"#utility.yul\":3035:3054   */\n      swap1\n      pop\n        /* \"#utility.yul\":3025:3060   */\n      swap1\n      jump\t// out\n        /* \"#utility.yul\":3066:3374   */\n    tag_44:\n      0x00\n        /* \"#utility.yul\":3218:3236   */\n      0xffffffffffffffff\n        /* \"#utility.yul\":3210:3216   */\n      dup3\n        /* \"#utility.yul\":3207:3237   */\n      gt\n        /* \"#utility.yul\":3204:3206   */\n      iszero\n      tag_90\n      jumpi\n        /* \"#utility.yul\":3240:3258   */\n      tag_91\n      tag_92\n      jump\t// in\n    tag_91:\n        /* \"#utility.yul\":3204:3206   */\n    tag_90:\n        /* \"#utility.yul\":3278:3307   */\n      tag_93\n        /* \"#utility.yul\":3300:3306   */\n      dup3\n        /* \"#utility.yul\":3278:3307   */\n      tag_74\n      jump\t// in\n    tag_93:\n        /* \"#utility.yul\":3270:3307   */\n      swap1\n      pop\n        /* \"#utility.yul\":3362:3366   */\n      0x20\n        /* \"#utility.yul\":3356:3360   */\n      dup2\n        /* \"#utility.yul\":3352:3367   */\n      add\n        /* \"#utility.yul\":3344:3367   */\n      swap1\n      pop\n        /* \"#utility.yul\":3133:3374   */\n      swap2\n      swap1\n      pop\n      jump\t// out\n        /* \"#utility.yul\":3380:3479   */\n    tag_68:\n      0x00\n        /* \"#utility.yul\":3466:3471   */\n      dup2\n        /* \"#utility.yul\":3460:3472   */\n      mload\n        /* \"#utility.yul\":3450:3472   */\n      swap1\n      pop\n        /* \"#utility.yul\":3439:3479   */\n      swap2\n      swap1\n      pop\n      jump\t// out\n        /* \"#utility.yul\":3485:3654   */\n    tag_70:\n      0x00\n        /* \"#utility.yul\":3603:3609   */\n      dup3\n        /* \"#utility.yul\":3598:3601   */\n      dup3\n        /* \"#utility.yul\":3591:3610   */\n      mstore\n        /* \"#utility.yul\":3643:3647   */\n      0x20\n        /* \"#utility.yul\":3638:3641   */\n      dup3\n        /* \"#utility.yul\":3634:3648   */\n      add\n        /* \"#utility.yul\":3619:3648   */\n      swap1\n      pop\n        /* \"#utility.yul\":3581:3654   */\n      swap3\n      swap2\n      pop\n      pop\n      jump\t// out\n        /* \"#utility.yul\":3660:3737   */\n    tag_78:\n      0x00\n        /* \"#utility.yul\":3726:3731   */\n      dup2\n        /* \"#utility.yul\":3715:3731   */\n      swap1\n      pop\n        /* \"#utility.yul\":3705:3737   */\n      swap2\n      swap1\n      pop\n      jump\t// out\n        /* \"#utility.yul\":3743:3897   */\n    tag_48:\n        /* \"#utility.yul\":3827:3833   */\n      dup3\n        /* \"#utility.yul\":3822:3825   */\n      dup2\n        /* \"#utility.yul\":3817:3820   */\n      dup4\n        /* \"#utility.yul\":3804:3834   */\n      calldatacopy\n        /* \"#utility.yul\":3889:3890   */\n      0x00\n        /* \"#utility.yul\":3880:3886   */\n      dup4\n        /* \"#utility.yul\":3875:3878   */\n      dup4\n        /* \"#utility.yul\":3871:3887   */\n      add\n        /* \"#utility.yul\":3864:3891   */\n      mstore\n        /* \"#utility.yul\":3794:3897   */\n      pop\n      pop\n      pop\n      jump\t// out\n        /* \"#utility.yul\":3903:4210   */\n    tag_72:\n        /* \"#utility.yul\":3971:3972   */\n      0x00\n        /* \"#utility.yul\":3981:4094   */\n    tag_99:\n        /* \"#utility.yul\":3995:4001   */\n      dup4\n        /* \"#utility.yul\":3992:3993   */\n      dup2\n        /* \"#utility.yul\":3989:4002   */\n      lt\n        /* \"#utility.yul\":3981:4094   */\n      iszero\n      tag_101\n      jumpi\n        /* \"#utility.yul\":4080:4081   */\n      dup1\n        /* \"#utility.yul\":4075:4078   */\n      dup3\n        /* \"#utility.yul\":4071:4082   */\n      add\n        /* \"#utility.yul\":4065:4083   */\n      mload\n        /* \"#utility.yul\":4061:4062   */\n      dup2\n        /* \"#utility.yul\":4056:4059   */\n      dup5\n        /* \"#utility.yul\":4052:4063   */\n      add\n        /* \"#utility.yul\":4045:4084   */\n      mstore\n        /* \"#utility.yul\":4017:4019   */\n      0x20\n        /* \"#utility.yul\":4014:4015   */\n      dup2\n        /* \"#utility.yul\":4010:4020   */\n      add\n        /* \"#utility.yul\":4005:4020   */\n      swap1\n      pop\n        /* \"#utility.yul\":3981:4094   */\n      jump(tag_99)\n    tag_101:\n        /* \"#utility.yul\":4112:4118   */\n      dup4\n        /* \"#utility.yul\":4109:4110   */\n      dup2\n        /* \"#utility.yul\":4106:4119   */\n      gt\n        /* \"#utility.yul\":4103:4105   */\n      iszero\n      tag_102\n      jumpi\n        /* \"#utility.yul\":4192:4193   */\n      0x00\n        /* \"#utility.yul\":4183:4189   */\n      dup5\n        /* \"#utility.yul\":4178:4181   */\n      dup5\n        /* \"#utility.yul\":4174:4190   */\n      add\n        /* \"#utility.yul\":4167:4194   */\n      mstore\n        /* \"#utility.yul\":4103:4105   */\n    tag_102:\n        /* \"#utility.yul\":3952:4210   */\n      pop\n      pop\n      pop\n      pop\n      jump\t// out\n        /* \"#utility.yul\":4216:4536   */\n    tag_19:\n      0x00\n        /* \"#utility.yul\":4297:4298   */\n      0x02\n        /* \"#utility.yul\":4291:4295   */\n      dup3\n        /* \"#utility.yul\":4287:4299   */\n      div\n        /* \"#utility.yul\":4277:4299   */\n      swap1\n      pop\n        /* \"#utility.yul\":4344:4345   */\n      0x01\n        /* \"#utility.yul\":4338:4342   */\n      dup3\n        /* \"#utility.yul\":4334:4346   */\n      and\n        /* \"#utility.yul\":4365:4383   */\n      dup1\n        /* \"#utility.yul\":4355:4357   */\n      tag_104\n      jumpi\n        /* \"#utility.yul\":4421:4425   */\n      0x7f\n        /* \"#utility.yul\":4413:4419   */\n      dup3\n        /* \"#utility.yul\":4409:4426   */\n      and\n        /* \"#utility.yul\":4399:4426   */\n      swap2\n      pop\n        /* \"#utility.yul\":4355:4357   */\n    tag_104:\n        /* \"#utility.yul\":4483:4485   */\n      0x20\n        /* \"#utility.yul\":4475:4481   */\n      dup3\n        /* \"#utility.yul\":4472:4486   */\n      lt\n        /* \"#utility.yul\":4452:4470   */\n      dup2\n        /* \"#utility.yul\":4449:4487   */\n      eq\n        /* \"#utility.yul\":4446:4448   */\n      iszero\n      tag_105\n      jumpi\n        /* \"#utility.yul\":4502:4520   */\n      tag_106\n      tag_107\n      jump\t// in\n    tag_106:\n        /* \"#utility.yul\":4446:4448   */\n    tag_105:\n        /* \"#utility.yul\":4267:4536   */\n      pop\n      swap2\n      swap1\n      pop\n      jump\t// out\n        /* \"#utility.yul\":4542:4823   */\n    tag_87:\n        /* \"#utility.yul\":4625:4652   */\n      tag_109\n        /* \"#utility.yul\":4647:4651   */\n      dup3\n        /* \"#utility.yul\":4625:4652   */\n      tag_74\n      jump\t// in\n    tag_109:\n        /* \"#utility.yul\":4617:4623   */\n      dup2\n        /* \"#utility.yul\":4613:4653   */\n      add\n        /* \"#utility.yul\":4755:4761   */\n      dup2\n        /* \"#utility.yul\":4743:4753   */\n      dup2\n        /* \"#utility.yul\":4740:4762   */\n      lt\n        /* \"#utility.yul\":4719:4737   */\n      0xffffffffffffffff\n        /* \"#utility.yul\":4707:4717   */\n      dup3\n        /* \"#utility.yul\":4704:4738   */\n      gt\n        /* \"#utility.yul\":4701:4763   */\n      or\n        /* \"#utility.yul\":4698:4700   */\n      iszero\n      tag_110\n      jumpi\n        /* \"#utility.yul\":4766:4784   */\n      tag_111\n      tag_92\n      jump\t// in\n    tag_111:\n        /* \"#utility.yul\":4698:4700   */\n    tag_110:\n        /* \"#utility.yul\":4806:4816   */\n      dup1\n        /* \"#utility.yul\":4802:4804   */\n      0x40\n        /* \"#utility.yul\":4795:4817   */\n      mstore\n        /* \"#utility.yul\":4585:4823   */\n      pop\n      pop\n      pop\n      jump\t// out\n        /* \"#utility.yul\":4829:5009   */\n    tag_107:\n        /* \"#utility.yul\":4877:4954   */\n      0x4e487b7100000000000000000000000000000000000000000000000000000000\n        /* \"#utility.yul\":4874:4875   */\n      0x00\n        /* \"#utility.yul\":4867:4955   */\n      mstore\n        /* \"#utility.yul\":4974:4978   */\n      0x22\n        /* \"#utility.yul\":4971:4972   */\n      0x04\n        /* \"#utility.yul\":4964:4979   */\n      mstore\n        /* \"#utility.yul\":4998:5002   */\n      0x24\n        /* \"#utility.yul\":4995:4996   */\n      0x00\n        /* \"#utility.yul\":4988:5003   */\n      revert\n        /* \"#utility.yul\":5015:5195   */\n    tag_92:\n        /* \"#utility.yul\":5063:5140   */\n      0x4e487b7100000000000000000000000000000000000000000000000000000000\n        /* \"#utility.yul\":5060:5061   */\n      0x00\n        /* \"#utility.yul\":5053:5141   */\n      mstore\n        /* \"#utility.yul\":5160:5164   */\n      0x41\n        /* \"#utility.yul\":5157:5158   */\n      0x04\n        /* \"#utility.yul\":5150:5165   */\n      mstore\n        /* \"#utility.yul\":5184:5188   */\n      0x24\n        /* \"#utility.yul\":5181:5182   */\n      0x00\n        /* \"#utility.yul\":5174:5189   */\n      revert\n        /* \"#utility.yul\":5201:5303   */\n    tag_74:\n      0x00\n        /* \"#utility.yul\":5293:5295   */\n      0x1f\n        /* \"#utility.yul\":5289:5296   */\n      not\n        /* \"#utility.yul\":5284:5286   */\n      0x1f\n        /* \"#utility.yul\":5277:5282   */\n      dup4\n        /* \"#utility.yul\":5273:5287   */\n      add\n        /* \"#utility.yul\":5269:5297   */\n      and\n        /* \"#utility.yul\":5259:5297   */\n      swap1\n      pop\n        /* \"#utility.yul\":5249:5303   */\n      swap2\n      swap1\n      pop\n      jump\t// out\n        /* \"#utility.yul\":5309:5431   */\n    tag_56:\n        /* \"#utility.yul\":5382:5406   */\n      tag_116\n        /* \"#utility.yul\":5400:5405   */\n      dup2\n        /* \"#utility.yul\":5382:5406   */\n      tag_78\n      jump\t// in\n    tag_116:\n        /* \"#utility.yul\":5375:5380   */\n      dup2\n        /* \"#utility.yul\":5372:5407   */\n      eq\n        /* \"#utility.yul\":5362:5364   */\n      tag_117\n      jumpi\n        /* \"#utility.yul\":5421:5422   */\n      0x00\n        /* \"#utility.yul\":5418:5419   */\n      dup1\n        /* \"#utility.yul\":5411:5423   */\n      revert\n        /* \"#utility.yul\":5362:5364   */\n    tag_117:\n        /* \"#utility.yul\":5352:5431   */\n      pop\n      jump\t// out\n\n    auxdata: 0xa2646970667358221220413659723d5b62365a6c238ac2602d4b744c306a7f322bcbed90134d9d829cdf64736f6c63430008030033\n}\n",
				"bytecode": {
					"linkReferences": {},
					"object": "608060405234801561001057600080fd5b50610644806100206000396000f3fe608060405234801561001057600080fd5b50600436106100365760003560e01c80633cd0738d1461003b578063de761c6614610057575b600080fd5b61005560048036038101906100509190610347565b610077565b005b61005f6100f0565b60405161006e93929190610422565b60405180910390f35b6040518060800160405280858152602001848152602001838152602001828152506000808201518160000190805190602001906100b5929190610227565b5060208201518160010190805190602001906100d2929190610227565b50604082015181600201556060820151816003015590505050505050565b606080600080600001600060010160006003015482805461011090610525565b80601f016020809104026020016040519081016040528092919081815260200182805461013c90610525565b80156101895780601f1061015e57610100808354040283529160200191610189565b820191906000526020600020905b81548152906001019060200180831161016c57829003601f168201915b5050505050925081805461019c90610525565b80601f01602080910402602001604051908101604052809291908181526020018280546101c890610525565b80156102155780601f106101ea57610100808354040283529160200191610215565b820191906000526020600020905b8154815290600101906020018083116101f857829003601f168201915b50505050509150925092509250909192565b82805461023390610525565b90600052602060002090601f016020900481019282610255576000855561029c565b82601f1061026e57805160ff191683800117855561029c565b8280016001018555821561029c579182015b8281111561029b578251825591602001919060010190610280565b5b5090506102a991906102ad565b5090565b5b808211156102c65760008160009055506001016102ae565b5090565b60006102dd6102d88461048c565b610467565b9050828152602081018484840111156102f557600080fd5b6103008482856104e3565b509392505050565b600082601f83011261031957600080fd5b81356103298482602086016102ca565b91505092915050565b600081359050610341816105f7565b92915050565b6000806000806080858703121561035d57600080fd5b600085013567ffffffffffffffff81111561037757600080fd5b61038387828801610308565b945050602085013567ffffffffffffffff8111156103a057600080fd5b6103ac87828801610308565b93505060406103bd87828801610332565b92505060606103ce87828801610332565b91505092959194509250565b60006103e5826104bd565b6103ef81856104c8565b93506103ff8185602086016104f2565b610408816105e6565b840191505092915050565b61041c816104d9565b82525050565b6000606082019050818103600083015261043c81866103da565b9050818103602083015261045081856103da565b905061045f6040830184610413565b949350505050565b6000610471610482565b905061047d8282610557565b919050565b6000604051905090565b600067ffffffffffffffff8211156104a7576104a66105b7565b5b6104b0826105e6565b9050602081019050919050565b600081519050919050565b600082825260208201905092915050565b6000819050919050565b82818337600083830152505050565b60005b838110156105105780820151818401526020810190506104f5565b8381111561051f576000848401525b50505050565b6000600282049050600182168061053d57607f821691505b6020821081141561055157610550610588565b5b50919050565b610560826105e6565b810181811067ffffffffffffffff8211171561057f5761057e6105b7565b5b80604052505050565b7f4e487b7100000000000000000000000000000000000000000000000000000000600052602260045260246000fd5b7f4e487b7100000000000000000000000000000000000000000000000000000000600052604160045260246000fd5b6000601f19601f8301169050919050565b610600816104d9565b811461060b57600080fd5b5056fea2646970667358221220413659723d5b62365a6c238ac2602d4b744c306a7f322bcbed90134d9d829cdf64736f6c63430008030033",
					"opcodes": "PUSH1 0x80 PUSH1 0x40 MSTORE CALLVALUE DUP1 ISZERO PUSH2 0x10 JUMPI PUSH1 0x0 DUP1 REVERT JUMPDEST POP PUSH2 0x644 DUP1 PUSH2 0x20 PUSH1 0x0 CODECOPY PUSH1 0x0 RETURN INVALID PUSH1 0x80 PUSH1 0x40 MSTORE CALLVALUE DUP1 ISZERO PUSH2 0x10 JUMPI PUSH1 0x0 DUP1 REVERT JUMPDEST POP PUSH1 0x4 CALLDATASIZE LT PUSH2 0x36 JUMPI PUSH1 0x0 CALLDATALOAD PUSH1 0xE0 SHR DUP1 PUSH4 0x3CD0738D EQ PUSH2 0x3B JUMPI DUP1 PUSH4 0xDE761C66 EQ PUSH2 0x57 JUMPI JUMPDEST PUSH1 0x0 DUP1 REVERT JUMPDEST PUSH2 0x55 PUSH1 0x4 DUP1 CALLDATASIZE SUB DUP2 ADD SWAP1 PUSH2 0x50 SWAP2 SWAP1 PUSH2 0x347 JUMP JUMPDEST PUSH2 0x77 JUMP JUMPDEST STOP JUMPDEST PUSH2 0x5F PUSH2 0xF0 JUMP JUMPDEST PUSH1 0x40 MLOAD PUSH2 0x6E SWAP4 SWAP3 SWAP2 SWAP1 PUSH2 0x422 JUMP JUMPDEST PUSH1 0x40 MLOAD DUP1 SWAP2 SUB SWAP1 RETURN JUMPDEST PUSH1 0x40 MLOAD DUP1 PUSH1 0x80 ADD PUSH1 0x40 MSTORE DUP1 DUP6 DUP2 MSTORE PUSH1 0x20 ADD DUP5 DUP2 MSTORE PUSH1 0x20 ADD DUP4 DUP2 MSTORE PUSH1 0x20 ADD DUP3 DUP2 MSTORE POP PUSH1 0x0 DUP1 DUP3 ADD MLOAD DUP2 PUSH1 0x0 ADD SWAP1 DUP1 MLOAD SWAP1 PUSH1 0x20 ADD SWAP1 PUSH2 0xB5 SWAP3 SWAP2 SWAP1 PUSH2 0x227 JUMP JUMPDEST POP PUSH1 0x20 DUP3 ADD MLOAD DUP2 PUSH1 0x1 ADD SWAP1 DUP1 MLOAD SWAP1 PUSH1 0x20 ADD SWAP1 PUSH2 0xD2 SWAP3 SWAP2 SWAP1 PUSH2 0x227 JUMP JUMPDEST POP PUSH1 0x40 DUP3 ADD MLOAD DUP2 PUSH1 0x2 ADD SSTORE PUSH1 0x60 DUP3 ADD MLOAD DUP2 PUSH1 0x3 ADD SSTORE SWAP1 POP POP POP POP POP POP JUMP JUMPDEST PUSH1 0x60 DUP1 PUSH1 0x0 DUP1 PUSH1 0x0 ADD PUSH1 0x0 PUSH1 0x1 ADD PUSH1 0x0 PUSH1 0x3 ADD SLOAD DUP3 DUP1 SLOAD PUSH2 0x110 SWAP1 PUSH2 0x525 JUMP JUMPDEST DUP1 PUSH1 0x1F ADD PUSH1 0x20 DUP1 SWAP2 DIV MUL PUSH1 0x20 ADD PUSH1 0x40 MLOAD SWAP1 DUP2 ADD PUSH1 0x40 MSTORE DUP1 SWAP3 SWAP2 SWAP1 DUP2 DUP2 MSTORE PUSH1 0x20 ADD DUP3 DUP1 SLOAD PUSH2 0x13C SWAP1 PUSH2 0x525 JUMP JUMPDEST DUP1 ISZERO PUSH2 0x189 JUMPI DUP1 PUSH1 0x1F LT PUSH2 0x15E JUMPI PUSH2 0x100 DUP1 DUP4 SLOAD DIV MUL DUP4 MSTORE SWAP2 PUSH1 0x20 ADD SWAP2 PUSH2 0x189 JUMP JUMPDEST DUP3 ADD SWAP2 SWAP1 PUSH1 0x0 MSTORE PUSH1 0x20 PUSH1 0x0 KECCAK256 SWAP1 JUMPDEST DUP2 SLOAD DUP2 MSTORE SWAP1 PUSH1 0x1 ADD SWAP1 PUSH1 0x20 ADD DUP1 DUP4 GT PUSH2 0x16C JUMPI DUP3 SWAP1 SUB PUSH1 0x1F AND DUP3 ADD SWAP2 JUMPDEST POP POP POP POP POP SWAP3 POP DUP2 DUP1 SLOAD PUSH2 0x19C SWAP1 PUSH2 0x525 JUMP JUMPDEST DUP1 PUSH1 0x1F ADD PUSH1 0x20 DUP1 SWAP2 DIV MUL PUSH1 0x20 ADD PUSH1 0x40 MLOAD SWAP1 DUP2 ADD PUSH1 0x40 MSTORE DUP1 SWAP3 SWAP2 SWAP1 DUP2 DUP2 MSTORE PUSH1 0x20 ADD DUP3 DUP1 SLOAD PUSH2 0x1C8 SWAP1 PUSH2 0x525 JUMP JUMPDEST DUP1 ISZERO PUSH2 0x215 JUMPI DUP1 PUSH1 0x1F LT PUSH2 0x1EA JUMPI PUSH2 0x100 DUP1 DUP4 SLOAD DIV MUL DUP4 MSTORE SWAP2 PUSH1 0x20 ADD SWAP2 PUSH2 0x215 JUMP JUMPDEST DUP3 ADD SWAP2 SWAP1 PUSH1 0x0 MSTORE PUSH1 0x20 PUSH1 0x0 KECCAK256 SWAP1 JUMPDEST DUP2 SLOAD DUP2 MSTORE SWAP1 PUSH1 0x1 ADD SWAP1 PUSH1 0x20 ADD DUP1 DUP4 GT PUSH2 0x1F8 JUMPI DUP3 SWAP1 SUB PUSH1 0x1F AND DUP3 ADD SWAP2 JUMPDEST POP POP POP POP POP SWAP2 POP SWAP3 POP SWAP3 POP SWAP3 POP SWAP1 SWAP2 SWAP3 JUMP JUMPDEST DUP3 DUP1 SLOAD PUSH2 0x233 SWAP1 PUSH2 0x525 JUMP JUMPDEST SWAP1 PUSH1 0x0 MSTORE PUSH1 0x20 PUSH1 0x0 KECCAK256 SWAP1 PUSH1 0x1F ADD PUSH1 0x20 SWAP1 DIV DUP2 ADD SWAP3 DUP3 PUSH2 0x255 JUMPI PUSH1 0x0 DUP6 SSTORE PUSH2 0x29C JUMP JUMPDEST DUP3 PUSH1 0x1F LT PUSH2 0x26E JUMPI DUP1 MLOAD PUSH1 0xFF NOT AND DUP4 DUP1 ADD OR DUP6 SSTORE PUSH2 0x29C JUMP JUMPDEST DUP3 DUP1 ADD PUSH1 0x1 ADD DUP6 SSTORE DUP3 ISZERO PUSH2 0x29C JUMPI SWAP2 DUP3 ADD JUMPDEST DUP3 DUP2 GT ISZERO PUSH2 0x29B JUMPI DUP3 MLOAD DUP3 SSTORE SWAP2 PUSH1 0x20 ADD SWAP2 SWAP1 PUSH1 0x1 ADD SWAP1 PUSH2 0x280 JUMP JUMPDEST JUMPDEST POP SWAP1 POP PUSH2 0x2A9 SWAP2 SWAP1 PUSH2 0x2AD JUMP JUMPDEST POP SWAP1 JUMP JUMPDEST JUMPDEST DUP1 DUP3 GT ISZERO PUSH2 0x2C6 JUMPI PUSH1 0x0 DUP2 PUSH1 0x0 SWAP1 SSTORE POP PUSH1 0x1 ADD PUSH2 0x2AE JUMP JUMPDEST POP SWAP1 JUMP JUMPDEST PUSH1 0x0 PUSH2 0x2DD PUSH2 0x2D8 DUP5 PUSH2 0x48C JUMP JUMPDEST PUSH2 0x467 JUMP JUMPDEST SWAP1 POP DUP3 DUP2 MSTORE PUSH1 0x20 DUP2 ADD DUP5 DUP5 DUP5 ADD GT ISZERO PUSH2 0x2F5 JUMPI PUSH1 0x0 DUP1 REVERT JUMPDEST PUSH2 0x300 DUP5 DUP3 DUP6 PUSH2 0x4E3 JUMP JUMPDEST POP SWAP4 SWAP3 POP POP POP JUMP JUMPDEST PUSH1 0x0 DUP3 PUSH1 0x1F DUP4 ADD SLT PUSH2 0x319 JUMPI PUSH1 0x0 DUP1 REVERT JUMPDEST DUP2 CALLDATALOAD PUSH2 0x329 DUP5 DUP3 PUSH1 0x20 DUP7 ADD PUSH2 0x2CA JUMP JUMPDEST SWAP2 POP POP SWAP3 SWAP2 POP POP JUMP JUMPDEST PUSH1 0x0 DUP2 CALLDATALOAD SWAP1 POP PUSH2 0x341 DUP2 PUSH2 0x5F7 JUMP JUMPDEST SWAP3 SWAP2 POP POP JUMP JUMPDEST PUSH1 0x0 DUP1 PUSH1 0x0 DUP1 PUSH1 0x80 DUP6 DUP8 SUB SLT ISZERO PUSH2 0x35D JUMPI PUSH1 0x0 DUP1 REVERT JUMPDEST PUSH1 0x0 DUP6 ADD CALLDATALOAD PUSH8 0xFFFFFFFFFFFFFFFF DUP2 GT ISZERO PUSH2 0x377 JUMPI PUSH1 0x0 DUP1 REVERT JUMPDEST PUSH2 0x383 DUP8 DUP3 DUP9 ADD PUSH2 0x308 JUMP JUMPDEST SWAP5 POP POP PUSH1 0x20 DUP6 ADD CALLDATALOAD PUSH8 0xFFFFFFFFFFFFFFFF DUP2 GT ISZERO PUSH2 0x3A0 JUMPI PUSH1 0x0 DUP1 REVERT JUMPDEST PUSH2 0x3AC DUP8 DUP3 DUP9 ADD PUSH2 0x308 JUMP JUMPDEST SWAP4 POP POP PUSH1 0x40 PUSH2 0x3BD DUP8 DUP3 DUP9 ADD PUSH2 0x332 JUMP JUMPDEST SWAP3 POP POP PUSH1 0x60 PUSH2 0x3CE DUP8 DUP3 DUP9 ADD PUSH2 0x332 JUMP JUMPDEST SWAP2 POP POP SWAP3 SWAP6 SWAP2 SWAP5 POP SWAP3 POP JUMP JUMPDEST PUSH1 0x0 PUSH2 0x3E5 DUP3 PUSH2 0x4BD JUMP JUMPDEST PUSH2 0x3EF DUP2 DUP6 PUSH2 0x4C8 JUMP JUMPDEST SWAP4 POP PUSH2 0x3FF DUP2 DUP6 PUSH1 0x20 DUP7 ADD PUSH2 0x4F2 JUMP JUMPDEST PUSH2 0x408 DUP2 PUSH2 0x5E6 JUMP JUMPDEST DUP5 ADD SWAP2 POP POP SWAP3 SWAP2 POP POP JUMP JUMPDEST PUSH2 0x41C DUP2 PUSH2 0x4D9 JUMP JUMPDEST DUP3 MSTORE POP POP JUMP JUMPDEST PUSH1 0x0 PUSH1 0x60 DUP3 ADD SWAP1 POP DUP2 DUP2 SUB PUSH1 0x0 DUP4 ADD MSTORE PUSH2 0x43C DUP2 DUP7 PUSH2 0x3DA JUMP JUMPDEST SWAP1 POP DUP2 DUP2 SUB PUSH1 0x20 DUP4 ADD MSTORE PUSH2 0x450 DUP2 DUP6 PUSH2 0x3DA JUMP JUMPDEST SWAP1 POP PUSH2 0x45F PUSH1 0x40 DUP4 ADD DUP5 PUSH2 0x413 JUMP JUMPDEST SWAP5 SWAP4 POP POP POP POP JUMP JUMPDEST PUSH1 0x0 PUSH2 0x471 PUSH2 0x482 JUMP JUMPDEST SWAP1 POP PUSH2 0x47D DUP3 DUP3 PUSH2 0x557 JUMP JUMPDEST SWAP2 SWAP1 POP JUMP JUMPDEST PUSH1 0x0 PUSH1 0x40 MLOAD SWAP1 POP SWAP1 JUMP JUMPDEST PUSH1 0x0 PUSH8 0xFFFFFFFFFFFFFFFF DUP3 GT ISZERO PUSH2 0x4A7 JUMPI PUSH2 0x4A6 PUSH2 0x5B7 JUMP JUMPDEST JUMPDEST PUSH2 0x4B0 DUP3 PUSH2 0x5E6 JUMP JUMPDEST SWAP1 POP PUSH1 0x20 DUP2 ADD SWAP1 POP SWAP2 SWAP1 POP JUMP JUMPDEST PUSH1 0x0 DUP2 MLOAD SWAP1 POP SWAP2 SWAP1 POP JUMP JUMPDEST PUSH1 0x0 DUP3 DUP3 MSTORE PUSH1 0x20 DUP3 ADD SWAP1 POP SWAP3 SWAP2 POP POP JUMP JUMPDEST PUSH1 0x0 DUP2 SWAP1 POP SWAP2 SWAP1 POP JUMP JUMPDEST DUP3 DUP2 DUP4 CALLDATACOPY PUSH1 0x0 DUP4 DUP4 ADD MSTORE POP POP POP JUMP JUMPDEST PUSH1 0x0 JUMPDEST DUP4 DUP2 LT ISZERO PUSH2 0x510 JUMPI DUP1 DUP3 ADD MLOAD DUP2 DUP5 ADD MSTORE PUSH1 0x20 DUP2 ADD SWAP1 POP PUSH2 0x4F5 JUMP JUMPDEST DUP4 DUP2 GT ISZERO PUSH2 0x51F JUMPI PUSH1 0x0 DUP5 DUP5 ADD MSTORE JUMPDEST POP POP POP POP JUMP JUMPDEST PUSH1 0x0 PUSH1 0x2 DUP3 DIV SWAP1 POP PUSH1 0x1 DUP3 AND DUP1 PUSH2 0x53D JUMPI PUSH1 0x7F DUP3 AND SWAP2 POP JUMPDEST PUSH1 0x20 DUP3 LT DUP2 EQ ISZERO PUSH2 0x551 JUMPI PUSH2 0x550 PUSH2 0x588 JUMP JUMPDEST JUMPDEST POP SWAP2 SWAP1 POP JUMP JUMPDEST PUSH2 0x560 DUP3 PUSH2 0x5E6 JUMP JUMPDEST DUP2 ADD DUP2 DUP2 LT PUSH8 0xFFFFFFFFFFFFFFFF DUP3 GT OR ISZERO PUSH2 0x57F JUMPI PUSH2 0x57E PUSH2 0x5B7 JUMP JUMPDEST JUMPDEST DUP1 PUSH1 0x40 MSTORE POP POP POP JUMP JUMPDEST PUSH32 0x4E487B7100000000000000000000000000000000000000000000000000000000 PUSH1 0x0 MSTORE PUSH1 0x22 PUSH1 0x4 MSTORE PUSH1 0x24 PUSH1 0x0 REVERT JUMPDEST PUSH32 0x4E487B7100000000000000000000000000000000000000000000000000000000 PUSH1 0x0 MSTORE PUSH1 0x41 PUSH1 0x4 MSTORE PUSH1 0x24 PUSH1 0x0 REVERT JUMPDEST PUSH1 0x0 PUSH1 0x1F NOT PUSH1 0x1F DUP4 ADD AND SWAP1 POP SWAP2 SWAP1 POP JUMP JUMPDEST PUSH2 0x600 DUP2 PUSH2 0x4D9 JUMP JUMPDEST DUP2 EQ PUSH2 0x60B JUMPI PUSH1 0x0 DUP1 REVERT JUMPDEST POP JUMP INVALID LOG2 PUSH5 0x6970667358 0x22 SLT KECCAK256 COINBASE CALLDATASIZE MSIZE PUSH19 0x3D5B62365A6C238AC2602D4B744C306A7F322B 0xCB 0xED SWAP1 SGT 0x4D SWAP14 DUP3 SWAP13 0xDF PUSH5 0x736F6C6343 STOP ADDMOD SUB STOP CALLER "
				},
				"gasEstimates": {
					"creation": {
						"codeDepositCost": "320800",
						"executionCost": "362",
						"totalCost": "321162"
					},
					"external": {
						"getBookDetails()": "infinite",
						"setBook(string,string,uint256,uint256)": "infinite"
					}
				},
				"methodIdentifiers": {
					"getBookDetails()": "de761c66",
					"setBook(string,string,uint256,uint256)": "3cd0738d"
				}
			},
			"storageLayout": {
				"storage": [
					{
						"astId": 13,
						"contract": "contracts/userdefined-struct.sol:StudentDetails",
						"label": "book1",
						"offset": 0,
						"slot": "0",
						"type": "t_struct(Book)10_storage"
					}
				],
				"types": {
					"t_string_storage": {
						"encoding": "bytes",
						"label": "string",
						"numberOfBytes": "32"
					},
					"t_struct(Book)10_storage": {
						"encoding": "inplace",
						"label": "struct StudentDetails.Book",
						"members": [
							{
								"astId": 3,
								"contract": "contracts/userdefined-struct.sol:StudentDetails",
								"label": "title",
								"offset": 0,
								"slot": "0",
								"type": "t_string_storage"
							},
							{
								"astId": 5,
								"contract": "contracts/userdefined-struct.sol:StudentDetails",
								"label": "author",
								"offset": 0,
								"slot": "1",
								"type": "t_string_storage"
							},
							{
								"astId": 7,
								"contract": "contracts/userdefined-struct.sol:StudentDetails",
								"label": "bookId",
								"offset": 0,
								"slot": "2",
								"type": "t_uint256"
							},
							{
								"astId": 9,
								"contract": "contracts/userdefined-struct.sol:StudentDetails",
								"label": "price",
								"offset": 0,
								"slot": "3",
								"type": "t_uint256"
							}
						],
						"numberOfBytes": "128"
					},
					"t_uint256": {
						"encoding": "inplace",
						"label": "uint256",
						"numberOfBytes": "32"
					}
				}
			},
			"userdoc": {
				"kind": "user",
				"methods": {},
				"version": 1
			}
		}
	}
}