{
	"contracts/events.sol": {
		"Events": {
			"abi": [
				{
					"anonymous": false,
					"inputs": [
						{
							"indexed": true,
							"internalType": "address",
							"name": "addr",
							"type": "address"
						},
						{
							"indexed": false,
							"internalType": "string",
							"name": "message",
							"type": "string"
						},
						{
							"indexed": false,
							"internalType": "uint256",
							"name": "a",
							"type": "uint256"
						}
					],
					"name": "Log",
					"type": "event"
				},
				{
					"anonymous": false,
					"inputs": [],
					"name": "Log2",
					"type": "event"
				},
				{
					"inputs": [],
					"name": "testEvents",
					"outputs": [],
					"stateMutability": "nonpayable",
					"type": "function"
				}
			],
			"devdoc": {
				"kind": "dev",
				"methods": {},
				"version": 1
			},
			"evm": {
				"assembly": "    /* \"contracts/events.sol\":62:344  contract Events {... */\n  mstore(0x40, 0x80)\n  callvalue\n  dup1\n  iszero\n  tag_1\n  jumpi\n  0x00\n  dup1\n  revert\ntag_1:\n  pop\n  dataSize(sub_0)\n  dup1\n  dataOffset(sub_0)\n  0x00\n  codecopy\n  0x00\n  return\nstop\n\nsub_0: assembly {\n        /* \"contracts/events.sol\":62:344  contract Events {... */\n      mstore(0x40, 0x80)\n      callvalue\n      dup1\n      iszero\n      tag_1\n      jumpi\n      0x00\n      dup1\n      revert\n    tag_1:\n      pop\n      jumpi(tag_2, lt(calldatasize, 0x04))\n      shr(0xe0, calldataload(0x00))\n      dup1\n      0x0e5356ec\n      eq\n      tag_3\n      jumpi\n    tag_2:\n      0x00\n      dup1\n      revert\n        /* \"contracts/events.sol\":172:341  function testEvents() public {... */\n    tag_3:\n      tag_4\n      tag_5\n      jump\t// in\n    tag_4:\n      stop\n    tag_5:\n        /* \"contracts/events.sol\":221:231  msg.sender */\n      caller\n        /* \"contracts/events.sol\":217:256  Log(msg.sender,\"Welcome to Ethereum\",1) */\n      0xffffffffffffffffffffffffffffffffffffffff\n      and\n      0xfd33e90d0eac940755277aa91045b95664988beeeafc4ed7d1281a6d83afbc00\n        /* \"contracts/events.sol\":254:255  1 */\n      0x01\n        /* \"contracts/events.sol\":217:256  Log(msg.sender,\"Welcome to Ethereum\",1) */\n      mload(0x40)\n      tag_7\n      swap2\n      swap1\n      tag_8\n      jump\t// in\n    tag_7:\n      mload(0x40)\n      dup1\n      swap2\n      sub\n      swap1\n      log2\n        /* \"contracts/events.sol\":276:286  msg.sender */\n      caller\n        /* \"contracts/events.sol\":272:311  Log(msg.sender,\"Learning BlockChain\",0) */\n      0xffffffffffffffffffffffffffffffffffffffff\n      and\n      0xfd33e90d0eac940755277aa91045b95664988beeeafc4ed7d1281a6d83afbc00\n        /* \"contracts/events.sol\":309:310  0 */\n      0x00\n        /* \"contracts/events.sol\":272:311  Log(msg.sender,\"Learning BlockChain\",0) */\n      mload(0x40)\n      tag_9\n      swap2\n      swap1\n      tag_10\n      jump\t// in\n    tag_9:\n      mload(0x40)\n      dup1\n      swap2\n      sub\n      swap1\n      log2\n        /* \"contracts/events.sol\":327:333  Log2() */\n      0x312377a3c689ba11f0b42592002a46216d28178d72fd5dab92ef305701dd5bb6\n      mload(0x40)\n      mload(0x40)\n      dup1\n      swap2\n      sub\n      swap1\n      log1\n        /* \"contracts/events.sol\":172:341  function testEvents() public {... */\n      jump\t// out\n        /* \"#utility.yul\":7:176   */\n    tag_11:\n        /* \"#utility.yul\":91:102   */\n      0x00\n        /* \"#utility.yul\":125:131   */\n      dup3\n        /* \"#utility.yul\":120:123   */\n      dup3\n        /* \"#utility.yul\":113:132   */\n      mstore\n        /* \"#utility.yul\":165:169   */\n      0x20\n        /* \"#utility.yul\":160:163   */\n      dup3\n        /* \"#utility.yul\":156:170   */\n      add\n        /* \"#utility.yul\":141:170   */\n      swap1\n      pop\n        /* \"#utility.yul\":7:176   */\n      swap3\n      swap2\n      pop\n      pop\n      jump\t// out\n        /* \"#utility.yul\":182:351   */\n    tag_12:\n        /* \"#utility.yul\":322:343   */\n      0x57656c636f6d6520746f20457468657265756d00000000000000000000000000\n        /* \"#utility.yul\":318:319   */\n      0x00\n        /* \"#utility.yul\":310:316   */\n      dup3\n        /* \"#utility.yul\":306:320   */\n      add\n        /* \"#utility.yul\":299:344   */\n      mstore\n        /* \"#utility.yul\":182:351   */\n      pop\n      jump\t// out\n        /* \"#utility.yul\":357:723   */\n    tag_13:\n        /* \"#utility.yul\":499:502   */\n      0x00\n        /* \"#utility.yul\":520:587   */\n      tag_28\n        /* \"#utility.yul\":584:586   */\n      0x13\n        /* \"#utility.yul\":579:582   */\n      dup4\n        /* \"#utility.yul\":520:587   */\n      tag_11\n      jump\t// in\n    tag_28:\n        /* \"#utility.yul\":513:587   */\n      swap2\n      pop\n        /* \"#utility.yul\":596:689   */\n      tag_29\n        /* \"#utility.yul\":685:688   */\n      dup3\n        /* \"#utility.yul\":596:689   */\n      tag_12\n      jump\t// in\n    tag_29:\n        /* \"#utility.yul\":714:716   */\n      0x20\n        /* \"#utility.yul\":709:712   */\n      dup3\n        /* \"#utility.yul\":705:717   */\n      add\n        /* \"#utility.yul\":698:717   */\n      swap1\n      pop\n        /* \"#utility.yul\":357:723   */\n      swap2\n      swap1\n      pop\n      jump\t// out\n        /* \"#utility.yul\":729:814   */\n    tag_14:\n        /* \"#utility.yul\":774:781   */\n      0x00\n        /* \"#utility.yul\":803:808   */\n      dup2\n        /* \"#utility.yul\":792:808   */\n      swap1\n      pop\n        /* \"#utility.yul\":729:814   */\n      swap2\n      swap1\n      pop\n      jump\t// out\n        /* \"#utility.yul\":820:897   */\n    tag_15:\n        /* \"#utility.yul\":857:864   */\n      0x00\n        /* \"#utility.yul\":886:891   */\n      dup2\n        /* \"#utility.yul\":875:891   */\n      swap1\n      pop\n        /* \"#utility.yul\":820:897   */\n      swap2\n      swap1\n      pop\n      jump\t// out\n        /* \"#utility.yul\":903:963   */\n    tag_16:\n        /* \"#utility.yul\":931:934   */\n      0x00\n        /* \"#utility.yul\":952:957   */\n      dup2\n        /* \"#utility.yul\":945:957   */\n      swap1\n      pop\n        /* \"#utility.yul\":903:963   */\n      swap2\n      swap1\n      pop\n      jump\t// out\n        /* \"#utility.yul\":969:1127   */\n    tag_17:\n        /* \"#utility.yul\":1027:1036   */\n      0x00\n        /* \"#utility.yul\":1060:1121   */\n      tag_34\n        /* \"#utility.yul\":1078:1120   */\n      tag_35\n        /* \"#utility.yul\":1087:1119   */\n      tag_36\n        /* \"#utility.yul\":1113:1118   */\n      dup5\n        /* \"#utility.yul\":1087:1119   */\n      tag_14\n      jump\t// in\n    tag_36:\n        /* \"#utility.yul\":1078:1120   */\n      tag_16\n      jump\t// in\n    tag_35:\n        /* \"#utility.yul\":1060:1121   */\n      tag_15\n      jump\t// in\n    tag_34:\n        /* \"#utility.yul\":1047:1121   */\n      swap1\n      pop\n        /* \"#utility.yul\":969:1127   */\n      swap2\n      swap1\n      pop\n      jump\t// out\n        /* \"#utility.yul\":1133:1280   */\n    tag_18:\n        /* \"#utility.yul\":1228:1273   */\n      tag_38\n        /* \"#utility.yul\":1267:1272   */\n      dup2\n        /* \"#utility.yul\":1228:1273   */\n      tag_17\n      jump\t// in\n    tag_38:\n        /* \"#utility.yul\":1223:1226   */\n      dup3\n        /* \"#utility.yul\":1216:1274   */\n      mstore\n        /* \"#utility.yul\":1133:1280   */\n      pop\n      pop\n      jump\t// out\n        /* \"#utility.yul\":1286:1831   */\n    tag_8:\n        /* \"#utility.yul\":1488:1492   */\n      0x00\n        /* \"#utility.yul\":1526:1528   */\n      0x40\n        /* \"#utility.yul\":1515:1524   */\n      dup3\n        /* \"#utility.yul\":1511:1529   */\n      add\n        /* \"#utility.yul\":1503:1529   */\n      swap1\n      pop\n        /* \"#utility.yul\":1575:1584   */\n      dup2\n        /* \"#utility.yul\":1569:1573   */\n      dup2\n        /* \"#utility.yul\":1565:1585   */\n      sub\n        /* \"#utility.yul\":1561:1562   */\n      0x00\n        /* \"#utility.yul\":1550:1559   */\n      dup4\n        /* \"#utility.yul\":1546:1563   */\n      add\n        /* \"#utility.yul\":1539:1586   */\n      mstore\n        /* \"#utility.yul\":1603:1734   */\n      tag_40\n        /* \"#utility.yul\":1729:1733   */\n      dup2\n        /* \"#utility.yul\":1603:1734   */\n      tag_13\n      jump\t// in\n    tag_40:\n        /* \"#utility.yul\":1595:1734   */\n      swap1\n      pop\n        /* \"#utility.yul\":1744:1824   */\n      tag_41\n        /* \"#utility.yul\":1820:1822   */\n      0x20\n        /* \"#utility.yul\":1809:1818   */\n      dup4\n        /* \"#utility.yul\":1805:1823   */\n      add\n        /* \"#utility.yul\":1796:1802   */\n      dup5\n        /* \"#utility.yul\":1744:1824   */\n      tag_18\n      jump\t// in\n    tag_41:\n        /* \"#utility.yul\":1286:1831   */\n      swap3\n      swap2\n      pop\n      pop\n      jump\t// out\n        /* \"#utility.yul\":1837:2006   */\n    tag_19:\n        /* \"#utility.yul\":1977:1998   */\n      0x4c6561726e696e6720426c6f636b436861696e00000000000000000000000000\n        /* \"#utility.yul\":1973:1974   */\n      0x00\n        /* \"#utility.yul\":1965:1971   */\n      dup3\n        /* \"#utility.yul\":1961:1975   */\n      add\n        /* \"#utility.yul\":1954:1999   */\n      mstore\n        /* \"#utility.yul\":1837:2006   */\n      pop\n      jump\t// out\n        /* \"#utility.yul\":2012:2378   */\n    tag_20:\n        /* \"#utility.yul\":2154:2157   */\n      0x00\n        /* \"#utility.yul\":2175:2242   */\n      tag_44\n        /* \"#utility.yul\":2239:2241   */\n      0x13\n        /* \"#utility.yul\":2234:2237   */\n      dup4\n        /* \"#utility.yul\":2175:2242   */\n      tag_11\n      jump\t// in\n    tag_44:\n        /* \"#utility.yul\":2168:2242   */\n      swap2\n      pop\n        /* \"#utility.yul\":2251:2344   */\n      tag_45\n        /* \"#utility.yul\":2340:2343   */\n      dup3\n        /* \"#utility.yul\":2251:2344   */\n      tag_19\n      jump\t// in\n    tag_45:\n        /* \"#utility.yul\":2369:2371   */\n      0x20\n        /* \"#utility.yul\":2364:2367   */\n      dup3\n        /* \"#utility.yul\":2360:2372   */\n      add\n        /* \"#utility.yul\":2353:2372   */\n      swap1\n      pop\n        /* \"#utility.yul\":2012:2378   */\n      swap2\n      swap1\n      pop\n      jump\t// out\n        /* \"#utility.yul\":2384:2469   */\n    tag_21:\n        /* \"#utility.yul\":2429:2436   */\n      0x00\n        /* \"#utility.yul\":2458:2463   */\n      dup2\n        /* \"#utility.yul\":2447:2463   */\n      swap1\n      pop\n        /* \"#utility.yul\":2384:2469   */\n      swap2\n      swap1\n      pop\n      jump\t// out\n        /* \"#utility.yul\":2475:2633   */\n    tag_22:\n        /* \"#utility.yul\":2533:2542   */\n      0x00\n        /* \"#utility.yul\":2566:2627   */\n      tag_48\n        /* \"#utility.yul\":2584:2626   */\n      tag_49\n        /* \"#utility.yul\":2593:2625   */\n      tag_50\n        /* \"#utility.yul\":2619:2624   */\n      dup5\n        /* \"#utility.yul\":2593:2625   */\n      tag_21\n      jump\t// in\n    tag_50:\n        /* \"#utility.yul\":2584:2626   */\n      tag_16\n      jump\t// in\n    tag_49:\n        /* \"#utility.yul\":2566:2627   */\n      tag_15\n      jump\t// in\n    tag_48:\n        /* \"#utility.yul\":2553:2627   */\n      swap1\n      pop\n        /* \"#utility.yul\":2475:2633   */\n      swap2\n      swap1\n      pop\n      jump\t// out\n        /* \"#utility.yul\":2639:2786   */\n    tag_23:\n        /* \"#utility.yul\":2734:2779   */\n      tag_52\n        /* \"#utility.yul\":2773:2778   */\n      dup2\n        /* \"#utility.yul\":2734:2779   */\n      tag_22\n      jump\t// in\n    tag_52:\n        /* \"#utility.yul\":2729:2732   */\n      dup3\n        /* \"#utility.yul\":2722:2780   */\n      mstore\n        /* \"#utility.yul\":2639:2786   */\n      pop\n      pop\n      jump\t// out\n        /* \"#utility.yul\":2792:3337   */\n    tag_10:\n        /* \"#utility.yul\":2994:2998   */\n      0x00\n        /* \"#utility.yul\":3032:3034   */\n      0x40\n        /* \"#utility.yul\":3021:3030   */\n      dup3\n        /* \"#utility.yul\":3017:3035   */\n      add\n        /* \"#utility.yul\":3009:3035   */\n      swap1\n      pop\n        /* \"#utility.yul\":3081:3090   */\n      dup2\n        /* \"#utility.yul\":3075:3079   */\n      dup2\n        /* \"#utility.yul\":3071:3091   */\n      sub\n        /* \"#utility.yul\":3067:3068   */\n      0x00\n        /* \"#utility.yul\":3056:3065   */\n      dup4\n        /* \"#utility.yul\":3052:3069   */\n      add\n        /* \"#utility.yul\":3045:3092   */\n      mstore\n        /* \"#utility.yul\":3109:3240   */\n      tag_54\n        /* \"#utility.yul\":3235:3239   */\n      dup2\n        /* \"#utility.yul\":3109:3240   */\n      tag_20\n      jump\t// in\n    tag_54:\n        /* \"#utility.yul\":3101:3240   */\n      swap1\n      pop\n        /* \"#utility.yul\":3250:3330   */\n      tag_55\n        /* \"#utility.yul\":3326:3328   */\n      0x20\n        /* \"#utility.yul\":3315:3324   */\n      dup4\n        /* \"#utility.yul\":3311:3329   */\n      add\n        /* \"#utility.yul\":3302:3308   */\n      dup5\n        /* \"#utility.yul\":3250:3330   */\n      tag_23\n      jump\t// in\n    tag_55:\n        /* \"#utility.yul\":2792:3337   */\n      swap3\n      swap2\n      pop\n      pop\n      jump\t// out\n\n    auxdata: 0xa2646970667358221220340e6a902ea463d9492b7cff8de9f97ebcfb47126e4e10339aa40924f226b78a64736f6c634300081a0033\n}\n",
				"bytecode": {
					"linkReferences": {},
					"object": "6080604052348015600e575f80fd5b506102b88061001c5f395ff3fe608060405234801561000f575f80fd5b5060043610610029575f3560e01c80630e5356ec1461002d575b5f80fd5b610035610037565b005b3373ffffffffffffffffffffffffffffffffffffffff167ffd33e90d0eac940755277aa91045b95664988beeeafc4ed7d1281a6d83afbc00600160405161007e91906101a7565b60405180910390a23373ffffffffffffffffffffffffffffffffffffffff167ffd33e90d0eac940755277aa91045b95664988beeeafc4ed7d1281a6d83afbc005f6040516100cc9190610256565b60405180910390a27f312377a3c689ba11f0b42592002a46216d28178d72fd5dab92ef305701dd5bb660405160405180910390a1565b5f82825260208201905092915050565b7f57656c636f6d6520746f20457468657265756d000000000000000000000000005f82015250565b5f610146601383610102565b915061015182610112565b602082019050919050565b5f819050919050565b5f819050919050565b5f819050919050565b5f61019161018c6101878461015c565b61016e565b610165565b9050919050565b6101a181610177565b82525050565b5f6040820190508181035f8301526101be8161013a565b90506101cd6020830184610198565b92915050565b7f4c6561726e696e6720426c6f636b436861696e000000000000000000000000005f82015250565b5f610207601383610102565b9150610212826101d3565b602082019050919050565b5f819050919050565b5f61024061023b6102368461021d565b61016e565b610165565b9050919050565b61025081610226565b82525050565b5f6040820190508181035f83015261026d816101fb565b905061027c6020830184610247565b9291505056fea2646970667358221220340e6a902ea463d9492b7cff8de9f97ebcfb47126e4e10339aa40924f226b78a64736f6c634300081a0033",
					"opcodes": "PUSH1 0x80 PUSH1 0x40 MSTORE CALLVALUE DUP1 ISZERO PUSH1 0xE JUMPI PUSH0 DUP1 REVERT JUMPDEST POP PUSH2 0x2B8 DUP1 PUSH2 0x1C PUSH0 CODECOPY PUSH0 RETURN INVALID PUSH1 0x80 PUSH1 0x40 MSTORE CALLVALUE DUP1 ISZERO PUSH2 0xF JUMPI PUSH0 DUP1 REVERT JUMPDEST POP PUSH1 0x4 CALLDATASIZE LT PUSH2 0x29 JUMPI PUSH0 CALLDATALOAD PUSH1 0xE0 SHR DUP1 PUSH4 0xE5356EC EQ PUSH2 0x2D JUMPI JUMPDEST PUSH0 DUP1 REVERT JUMPDEST PUSH2 0x35 PUSH2 0x37 JUMP JUMPDEST STOP JUMPDEST CALLER PUSH20 0xFFFFFFFFFFFFFFFFFFFFFFFFFFFFFFFFFFFFFFFF AND PUSH32 0xFD33E90D0EAC940755277AA91045B95664988BEEEAFC4ED7D1281A6D83AFBC00 PUSH1 0x1 PUSH1 0x40 MLOAD PUSH2 0x7E SWAP2 SWAP1 PUSH2 0x1A7 JUMP JUMPDEST PUSH1 0x40 MLOAD DUP1 SWAP2 SUB SWAP1 LOG2 CALLER PUSH20 0xFFFFFFFFFFFFFFFFFFFFFFFFFFFFFFFFFFFFFFFF AND PUSH32 0xFD33E90D0EAC940755277AA91045B95664988BEEEAFC4ED7D1281A6D83AFBC00 PUSH0 PUSH1 0x40 MLOAD PUSH2 0xCC SWAP2 SWAP1 PUSH2 0x256 JUMP JUMPDEST PUSH1 0x40 MLOAD DUP1 SWAP2 SUB SWAP1 LOG2 PUSH32 0x312377A3C689BA11F0B42592002A46216D28178D72FD5DAB92EF305701DD5BB6 PUSH1 0x40 MLOAD PUSH1 0x40 MLOAD DUP1 SWAP2 SUB SWAP1 LOG1 JUMP JUMPDEST PUSH0 DUP3 DUP3 MSTORE PUSH1 0x20 DUP3 ADD SWAP1 POP SWAP3 SWAP2 POP POP JUMP JUMPDEST PUSH32 0x57656C636F6D6520746F20457468657265756D00000000000000000000000000 PUSH0 DUP3 ADD MSTORE POP JUMP JUMPDEST PUSH0 PUSH2 0x146 PUSH1 0x13 DUP4 PUSH2 0x102 JUMP JUMPDEST SWAP2 POP PUSH2 0x151 DUP3 PUSH2 0x112 JUMP JUMPDEST PUSH1 0x20 DUP3 ADD SWAP1 POP SWAP2 SWAP1 POP JUMP JUMPDEST PUSH0 DUP2 SWAP1 POP SWAP2 SWAP1 POP JUMP JUMPDEST PUSH0 DUP2 SWAP1 POP SWAP2 SWAP1 POP JUMP JUMPDEST PUSH0 DUP2 SWAP1 POP SWAP2 SWAP1 POP JUMP JUMPDEST PUSH0 PUSH2 0x191 PUSH2 0x18C PUSH2 0x187 DUP5 PUSH2 0x15C JUMP JUMPDEST PUSH2 0x16E JUMP JUMPDEST PUSH2 0x165 JUMP JUMPDEST SWAP1 POP SWAP2 SWAP1 POP JUMP JUMPDEST PUSH2 0x1A1 DUP2 PUSH2 0x177 JUMP JUMPDEST DUP3 MSTORE POP POP JUMP JUMPDEST PUSH0 PUSH1 0x40 DUP3 ADD SWAP1 POP DUP2 DUP2 SUB PUSH0 DUP4 ADD MSTORE PUSH2 0x1BE DUP2 PUSH2 0x13A JUMP JUMPDEST SWAP1 POP PUSH2 0x1CD PUSH1 0x20 DUP4 ADD DUP5 PUSH2 0x198 JUMP JUMPDEST SWAP3 SWAP2 POP POP JUMP JUMPDEST PUSH32 0x4C6561726E696E6720426C6F636B436861696E00000000000000000000000000 PUSH0 DUP3 ADD MSTORE POP JUMP JUMPDEST PUSH0 PUSH2 0x207 PUSH1 0x13 DUP4 PUSH2 0x102 JUMP JUMPDEST SWAP2 POP PUSH2 0x212 DUP3 PUSH2 0x1D3 JUMP JUMPDEST PUSH1 0x20 DUP3 ADD SWAP1 POP SWAP2 SWAP1 POP JUMP JUMPDEST PUSH0 DUP2 SWAP1 POP SWAP2 SWAP1 POP JUMP JUMPDEST PUSH0 PUSH2 0x240 PUSH2 0x23B PUSH2 0x236 DUP5 PUSH2 0x21D JUMP JUMPDEST PUSH2 0x16E JUMP JUMPDEST PUSH2 0x165 JUMP JUMPDEST SWAP1 POP SWAP2 SWAP1 POP JUMP JUMPDEST PUSH2 0x250 DUP2 PUSH2 0x226 JUMP JUMPDEST DUP3 MSTORE POP POP JUMP JUMPDEST PUSH0 PUSH1 0x40 DUP3 ADD SWAP1 POP DUP2 DUP2 SUB PUSH0 DUP4 ADD MSTORE PUSH2 0x26D DUP2 PUSH2 0x1FB JUMP JUMPDEST SWAP1 POP PUSH2 0x27C PUSH1 0x20 DUP4 ADD DUP5 PUSH2 0x247 JUMP JUMPDEST SWAP3 SWAP2 POP POP JUMP INVALID LOG2 PUSH5 0x6970667358 0x22 SLT KECCAK256 CALLVALUE 0xE PUSH11 0x902EA463D9492B7CFF8DE9 0xF9 PUSH31 0xBCFB47126E4E10339AA40924F226B78A64736F6C634300081A003300000000 "
				},
				"gasEstimates": {
					"creation": {
						"codeDepositCost": "139200",
						"executionCost": "181",
						"totalCost": "139381"
					},
					"external": {
						"testEvents()": "infinite"
					}
				},
				"methodIdentifiers": {
					"testEvents()": "0e5356ec"
				}
			},
			"storageLayout": {
				"storage": [],
				"types": null
			},
			"userdoc": {
				"kind": "user",
				"methods": {},
				"version": 1
			}
		}
	}
}