{
	"contracts/suicide.sol": {
		"KillContracts": {
			"abi": [
				{
					"inputs": [
						{
							"internalType": "address",
							"name": "_contractAddr",
							"type": "address"
						},
						{
							"internalType": "address",
							"name": "attacker",
							"type": "address"
						}
					],
					"name": "kill",
					"outputs": [],
					"stateMutability": "nonpayable",
					"type": "function"
				}
			],
			"devdoc": {
				"kind": "dev",
				"methods": {},
				"version": 1
			},
			"evm": {
				"assembly": "    /* \"contracts/suicide.sol\":62:551  contract KillContracts {... */\n  mstore(0x40, 0x80)\n  callvalue\n  dup1\n  iszero\n  tag_1\n  jumpi\n  0x00\n  dup1\n  revert\ntag_1:\n  pop\n  dataSize(sub_0)\n  dup1\n  dataOffset(sub_0)\n  0x00\n  codecopy\n  0x00\n  return\nstop\n\nsub_0: assembly {\n        /* \"contracts/suicide.sol\":62:551  contract KillContracts {... */\n      mstore(0x40, 0x80)\n      callvalue\n      dup1\n      iszero\n      tag_1\n      jumpi\n      0x00\n      dup1\n      revert\n    tag_1:\n      pop\n      jumpi(tag_2, lt(calldatasize, 0x04))\n      shr(0xe0, calldataload(0x00))\n      dup1\n      0x0567e83e\n      eq\n      tag_3\n      jumpi\n    tag_2:\n      0x00\n      dup1\n      revert\n        /* \"contracts/suicide.sol\":293:546  function kill(address _contractAddr,address attacker) public {... */\n    tag_3:\n      tag_4\n      0x04\n      dup1\n      calldatasize\n      sub\n      dup2\n      add\n      swap1\n      tag_5\n      swap2\n      swap1\n      tag_6\n      jump\t// in\n    tag_5:\n      tag_7\n      jump\t// in\n    tag_4:\n      stop\n    tag_7:\n        /* \"contracts/suicide.sol\":365:382  bytes memory data */\n      0x00\n        /* \"contracts/suicide.sol\":431:439  attacker */\n      dup2\n        /* \"contracts/suicide.sol\":385:440  abi.encodeWithSignature(\"destroySc(address)\", attacker) */\n      add(0x24, mload(0x40))\n      tag_9\n      swap2\n      swap1\n      tag_10\n      jump\t// in\n    tag_9:\n      mload(0x40)\n      0x20\n      dup2\n      dup4\n      sub\n      sub\n      dup2\n      mstore\n      swap1\n      0x40\n      mstore\n      and(not(0xffffffffffffffffffffffffffffffffffffffffffffffffffffffff), 0x0115c3dc00000000000000000000000000000000000000000000000000000000)\n      0x20\n      dup3\n      add\n      dup1\n      mload\n      0xffffffffffffffffffffffffffffffffffffffffffffffffffffffff\n      dup4\n      dup2\n      dup4\n      and\n      or\n      dup4\n      mstore\n      pop\n      pop\n      pop\n      pop\n        /* \"contracts/suicide.sol\":365:440  bytes memory data = abi.encodeWithSignature(\"destroySc(address)\", attacker) */\n      swap1\n      pop\n        /* \"contracts/suicide.sol\":452:464  bool success */\n      0x00\n        /* \"contracts/suicide.sol\":469:482  _contractAddr */\n      dup4\n        /* \"contracts/suicide.sol\":469:487  _contractAddr.call */\n      0xffffffffffffffffffffffffffffffffffffffff\n      and\n        /* \"contracts/suicide.sol\":488:492  data */\n      dup3\n        /* \"contracts/suicide.sol\":469:493  _contractAddr.call(data) */\n      mload(0x40)\n      tag_11\n      swap2\n      swap1\n      tag_12\n      jump\t// in\n    tag_11:\n      0x00\n      mload(0x40)\n      dup1\n      dup4\n      sub\n      dup2\n      0x00\n      dup7\n      gas\n      call\n      swap2\n      pop\n      pop\n      returndatasize\n      dup1\n      0x00\n      dup2\n      eq\n      tag_15\n      jumpi\n      mload(0x40)\n      swap2\n      pop\n      and(add(returndatasize, 0x3f), not(0x1f))\n      dup3\n      add\n      0x40\n      mstore\n      returndatasize\n      dup3\n      mstore\n      returndatasize\n      0x00\n      0x20\n      dup5\n      add\n      returndatacopy\n      jump(tag_14)\n    tag_15:\n      0x60\n      swap2\n      pop\n    tag_14:\n      pop\n        /* \"contracts/suicide.sol\":451:493  (bool success,) = _contractAddr.call(data) */\n      pop\n      swap1\n      pop\n        /* \"contracts/suicide.sol\":512:519  success */\n      dup1\n        /* \"contracts/suicide.sol\":504:538  require(success,\"killing aborted\") */\n      tag_16\n      jumpi\n      mload(0x40)\n      0x08c379a000000000000000000000000000000000000000000000000000000000\n      dup2\n      mstore\n      0x04\n      add\n      tag_17\n      swap1\n      tag_18\n      jump\t// in\n    tag_17:\n      mload(0x40)\n      dup1\n      swap2\n      sub\n      swap1\n      revert\n    tag_16:\n        /* \"contracts/suicide.sol\":354:546  {... */\n      pop\n      pop\n        /* \"contracts/suicide.sol\":293:546  function kill(address _contractAddr,address attacker) public {... */\n      pop\n      pop\n      jump\t// out\n        /* \"#utility.yul\":88:205   */\n    tag_20:\n        /* \"#utility.yul\":197:198   */\n      0x00\n        /* \"#utility.yul\":194:195   */\n      dup1\n        /* \"#utility.yul\":187:199   */\n      revert\n        /* \"#utility.yul\":334:460   */\n    tag_22:\n        /* \"#utility.yul\":371:378   */\n      0x00\n        /* \"#utility.yul\":411:453   */\n      0xffffffffffffffffffffffffffffffffffffffff\n        /* \"#utility.yul\":404:409   */\n      dup3\n        /* \"#utility.yul\":400:454   */\n      and\n        /* \"#utility.yul\":389:454   */\n      swap1\n      pop\n        /* \"#utility.yul\":334:460   */\n      swap2\n      swap1\n      pop\n      jump\t// out\n        /* \"#utility.yul\":466:562   */\n    tag_23:\n        /* \"#utility.yul\":503:510   */\n      0x00\n        /* \"#utility.yul\":532:556   */\n      tag_40\n        /* \"#utility.yul\":550:555   */\n      dup3\n        /* \"#utility.yul\":532:556   */\n      tag_22\n      jump\t// in\n    tag_40:\n        /* \"#utility.yul\":521:556   */\n      swap1\n      pop\n        /* \"#utility.yul\":466:562   */\n      swap2\n      swap1\n      pop\n      jump\t// out\n        /* \"#utility.yul\":568:690   */\n    tag_24:\n        /* \"#utility.yul\":641:665   */\n      tag_42\n        /* \"#utility.yul\":659:664   */\n      dup2\n        /* \"#utility.yul\":641:665   */\n      tag_23\n      jump\t// in\n    tag_42:\n        /* \"#utility.yul\":634:639   */\n      dup2\n        /* \"#utility.yul\":631:666   */\n      eq\n        /* \"#utility.yul\":621:684   */\n      tag_43\n      jumpi\n        /* \"#utility.yul\":680:681   */\n      0x00\n        /* \"#utility.yul\":677:678   */\n      dup1\n        /* \"#utility.yul\":670:682   */\n      revert\n        /* \"#utility.yul\":621:684   */\n    tag_43:\n        /* \"#utility.yul\":568:690   */\n      pop\n      jump\t// out\n        /* \"#utility.yul\":696:835   */\n    tag_25:\n        /* \"#utility.yul\":742:747   */\n      0x00\n        /* \"#utility.yul\":780:786   */\n      dup2\n        /* \"#utility.yul\":767:787   */\n      calldataload\n        /* \"#utility.yul\":758:787   */\n      swap1\n      pop\n        /* \"#utility.yul\":796:829   */\n      tag_45\n        /* \"#utility.yul\":823:828   */\n      dup2\n        /* \"#utility.yul\":796:829   */\n      tag_24\n      jump\t// in\n    tag_45:\n        /* \"#utility.yul\":696:835   */\n      swap3\n      swap2\n      pop\n      pop\n      jump\t// out\n        /* \"#utility.yul\":841:1315   */\n    tag_6:\n        /* \"#utility.yul\":909:915   */\n      0x00\n        /* \"#utility.yul\":917:923   */\n      dup1\n        /* \"#utility.yul\":966:968   */\n      0x40\n        /* \"#utility.yul\":954:963   */\n      dup4\n        /* \"#utility.yul\":945:952   */\n      dup6\n        /* \"#utility.yul\":941:964   */\n      sub\n        /* \"#utility.yul\":937:969   */\n      slt\n        /* \"#utility.yul\":934:1053   */\n      iszero\n      tag_47\n      jumpi\n        /* \"#utility.yul\":972:1051   */\n      tag_48\n      tag_20\n      jump\t// in\n    tag_48:\n        /* \"#utility.yul\":934:1053   */\n    tag_47:\n        /* \"#utility.yul\":1092:1093   */\n      0x00\n        /* \"#utility.yul\":1117:1170   */\n      tag_49\n        /* \"#utility.yul\":1162:1169   */\n      dup6\n        /* \"#utility.yul\":1153:1159   */\n      dup3\n        /* \"#utility.yul\":1142:1151   */\n      dup7\n        /* \"#utility.yul\":1138:1160   */\n      add\n        /* \"#utility.yul\":1117:1170   */\n      tag_25\n      jump\t// in\n    tag_49:\n        /* \"#utility.yul\":1107:1170   */\n      swap3\n      pop\n        /* \"#utility.yul\":1063:1180   */\n      pop\n        /* \"#utility.yul\":1219:1221   */\n      0x20\n        /* \"#utility.yul\":1245:1298   */\n      tag_50\n        /* \"#utility.yul\":1290:1297   */\n      dup6\n        /* \"#utility.yul\":1281:1287   */\n      dup3\n        /* \"#utility.yul\":1270:1279   */\n      dup7\n        /* \"#utility.yul\":1266:1288   */\n      add\n        /* \"#utility.yul\":1245:1298   */\n      tag_25\n      jump\t// in\n    tag_50:\n        /* \"#utility.yul\":1235:1298   */\n      swap2\n      pop\n        /* \"#utility.yul\":1190:1308   */\n      pop\n        /* \"#utility.yul\":841:1315   */\n      swap3\n      pop\n      swap3\n      swap1\n      pop\n      jump\t// out\n        /* \"#utility.yul\":1321:1439   */\n    tag_26:\n        /* \"#utility.yul\":1408:1432   */\n      tag_52\n        /* \"#utility.yul\":1426:1431   */\n      dup2\n        /* \"#utility.yul\":1408:1432   */\n      tag_23\n      jump\t// in\n    tag_52:\n        /* \"#utility.yul\":1403:1406   */\n      dup3\n        /* \"#utility.yul\":1396:1433   */\n      mstore\n        /* \"#utility.yul\":1321:1439   */\n      pop\n      pop\n      jump\t// out\n        /* \"#utility.yul\":1445:1667   */\n    tag_10:\n        /* \"#utility.yul\":1538:1542   */\n      0x00\n        /* \"#utility.yul\":1576:1578   */\n      0x20\n        /* \"#utility.yul\":1565:1574   */\n      dup3\n        /* \"#utility.yul\":1561:1579   */\n      add\n        /* \"#utility.yul\":1553:1579   */\n      swap1\n      pop\n        /* \"#utility.yul\":1589:1660   */\n      tag_54\n        /* \"#utility.yul\":1657:1658   */\n      0x00\n        /* \"#utility.yul\":1646:1655   */\n      dup4\n        /* \"#utility.yul\":1642:1659   */\n      add\n        /* \"#utility.yul\":1633:1639   */\n      dup5\n        /* \"#utility.yul\":1589:1660   */\n      tag_26\n      jump\t// in\n    tag_54:\n        /* \"#utility.yul\":1445:1667   */\n      swap3\n      swap2\n      pop\n      pop\n      jump\t// out\n        /* \"#utility.yul\":1673:1771   */\n    tag_27:\n        /* \"#utility.yul\":1724:1730   */\n      0x00\n        /* \"#utility.yul\":1758:1763   */\n      dup2\n        /* \"#utility.yul\":1752:1764   */\n      mload\n        /* \"#utility.yul\":1742:1764   */\n      swap1\n      pop\n        /* \"#utility.yul\":1673:1771   */\n      swap2\n      swap1\n      pop\n      jump\t// out\n        /* \"#utility.yul\":1777:1924   */\n    tag_28:\n        /* \"#utility.yul\":1878:1889   */\n      0x00\n        /* \"#utility.yul\":1915:1918   */\n      dup2\n        /* \"#utility.yul\":1900:1918   */\n      swap1\n      pop\n        /* \"#utility.yul\":1777:1924   */\n      swap3\n      swap2\n      pop\n      pop\n      jump\t// out\n        /* \"#utility.yul\":1930:2069   */\n    tag_29:\n        /* \"#utility.yul\":2019:2025   */\n      dup3\n        /* \"#utility.yul\":2014:2017   */\n      dup2\n        /* \"#utility.yul\":2009:2012   */\n      dup4\n        /* \"#utility.yul\":2003:2026   */\n      mcopy\n        /* \"#utility.yul\":2060:2061   */\n      0x00\n        /* \"#utility.yul\":2051:2057   */\n      dup4\n        /* \"#utility.yul\":2046:2049   */\n      dup4\n        /* \"#utility.yul\":2042:2058   */\n      add\n        /* \"#utility.yul\":2035:2062   */\n      mstore\n        /* \"#utility.yul\":1930:2069   */\n      pop\n      pop\n      pop\n      jump\t// out\n        /* \"#utility.yul\":2075:2461   */\n    tag_30:\n        /* \"#utility.yul\":2179:2182   */\n      0x00\n        /* \"#utility.yul\":2207:2245   */\n      tag_59\n        /* \"#utility.yul\":2239:2244   */\n      dup3\n        /* \"#utility.yul\":2207:2245   */\n      tag_27\n      jump\t// in\n    tag_59:\n        /* \"#utility.yul\":2261:2349   */\n      tag_60\n        /* \"#utility.yul\":2342:2348   */\n      dup2\n        /* \"#utility.yul\":2337:2340   */\n      dup6\n        /* \"#utility.yul\":2261:2349   */\n      tag_28\n      jump\t// in\n    tag_60:\n        /* \"#utility.yul\":2254:2349   */\n      swap4\n      pop\n        /* \"#utility.yul\":2358:2423   */\n      tag_61\n        /* \"#utility.yul\":2416:2422   */\n      dup2\n        /* \"#utility.yul\":2411:2414   */\n      dup6\n        /* \"#utility.yul\":2404:2408   */\n      0x20\n        /* \"#utility.yul\":2397:2402   */\n      dup7\n        /* \"#utility.yul\":2393:2409   */\n      add\n        /* \"#utility.yul\":2358:2423   */\n      tag_29\n      jump\t// in\n    tag_61:\n        /* \"#utility.yul\":2448:2454   */\n      dup1\n        /* \"#utility.yul\":2443:2446   */\n      dup5\n        /* \"#utility.yul\":2439:2455   */\n      add\n        /* \"#utility.yul\":2432:2455   */\n      swap2\n      pop\n        /* \"#utility.yul\":2183:2461   */\n      pop\n        /* \"#utility.yul\":2075:2461   */\n      swap3\n      swap2\n      pop\n      pop\n      jump\t// out\n        /* \"#utility.yul\":2467:2738   */\n    tag_12:\n        /* \"#utility.yul\":2597:2600   */\n      0x00\n        /* \"#utility.yul\":2619:2712   */\n      tag_63\n        /* \"#utility.yul\":2708:2711   */\n      dup3\n        /* \"#utility.yul\":2699:2705   */\n      dup5\n        /* \"#utility.yul\":2619:2712   */\n      tag_30\n      jump\t// in\n    tag_63:\n        /* \"#utility.yul\":2612:2712   */\n      swap2\n      pop\n        /* \"#utility.yul\":2729:2732   */\n      dup2\n        /* \"#utility.yul\":2722:2732   */\n      swap1\n      pop\n        /* \"#utility.yul\":2467:2738   */\n      swap3\n      swap2\n      pop\n      pop\n      jump\t// out\n        /* \"#utility.yul\":2744:2913   */\n    tag_31:\n        /* \"#utility.yul\":2828:2839   */\n      0x00\n        /* \"#utility.yul\":2862:2868   */\n      dup3\n        /* \"#utility.yul\":2857:2860   */\n      dup3\n        /* \"#utility.yul\":2850:2869   */\n      mstore\n        /* \"#utility.yul\":2902:2906   */\n      0x20\n        /* \"#utility.yul\":2897:2900   */\n      dup3\n        /* \"#utility.yul\":2893:2907   */\n      add\n        /* \"#utility.yul\":2878:2907   */\n      swap1\n      pop\n        /* \"#utility.yul\":2744:2913   */\n      swap3\n      swap2\n      pop\n      pop\n      jump\t// out\n        /* \"#utility.yul\":2919:3084   */\n    tag_32:\n        /* \"#utility.yul\":3059:3076   */\n      0x6b696c6c696e672061626f727465640000000000000000000000000000000000\n        /* \"#utility.yul\":3055:3056   */\n      0x00\n        /* \"#utility.yul\":3047:3053   */\n      dup3\n        /* \"#utility.yul\":3043:3057   */\n      add\n        /* \"#utility.yul\":3036:3077   */\n      mstore\n        /* \"#utility.yul\":2919:3084   */\n      pop\n      jump\t// out\n        /* \"#utility.yul\":3090:3456   */\n    tag_33:\n        /* \"#utility.yul\":3232:3235   */\n      0x00\n        /* \"#utility.yul\":3253:3320   */\n      tag_67\n        /* \"#utility.yul\":3317:3319   */\n      0x0f\n        /* \"#utility.yul\":3312:3315   */\n      dup4\n        /* \"#utility.yul\":3253:3320   */\n      tag_31\n      jump\t// in\n    tag_67:\n        /* \"#utility.yul\":3246:3320   */\n      swap2\n      pop\n        /* \"#utility.yul\":3329:3422   */\n      tag_68\n        /* \"#utility.yul\":3418:3421   */\n      dup3\n        /* \"#utility.yul\":3329:3422   */\n      tag_32\n      jump\t// in\n    tag_68:\n        /* \"#utility.yul\":3447:3449   */\n      0x20\n        /* \"#utility.yul\":3442:3445   */\n      dup3\n        /* \"#utility.yul\":3438:3450   */\n      add\n        /* \"#utility.yul\":3431:3450   */\n      swap1\n      pop\n        /* \"#utility.yul\":3090:3456   */\n      swap2\n      swap1\n      pop\n      jump\t// out\n        /* \"#utility.yul\":3462:3881   */\n    tag_18:\n        /* \"#utility.yul\":3628:3632   */\n      0x00\n        /* \"#utility.yul\":3666:3668   */\n      0x20\n        /* \"#utility.yul\":3655:3664   */\n      dup3\n        /* \"#utility.yul\":3651:3669   */\n      add\n        /* \"#utility.yul\":3643:3669   */\n      swap1\n      pop\n        /* \"#utility.yul\":3715:3724   */\n      dup2\n        /* \"#utility.yul\":3709:3713   */\n      dup2\n        /* \"#utility.yul\":3705:3725   */\n      sub\n        /* \"#utility.yul\":3701:3702   */\n      0x00\n        /* \"#utility.yul\":3690:3699   */\n      dup4\n        /* \"#utility.yul\":3686:3703   */\n      add\n        /* \"#utility.yul\":3679:3726   */\n      mstore\n        /* \"#utility.yul\":3743:3874   */\n      tag_70\n        /* \"#utility.yul\":3869:3873   */\n      dup2\n        /* \"#utility.yul\":3743:3874   */\n      tag_33\n      jump\t// in\n    tag_70:\n        /* \"#utility.yul\":3735:3874   */\n      swap1\n      pop\n        /* \"#utility.yul\":3462:3881   */\n      swap2\n      swap1\n      pop\n      jump\t// out\n\n    auxdata: 0xa264697066735822122042100e28d57c77c9deb8610bb1abae274db91d87160d2f039d9c894cbdbeefff64736f6c634300081a0033\n}\n",
				"bytecode": {
					"linkReferences": {},
					"object": "6080604052348015600e575f80fd5b506103628061001c5f395ff3fe608060405234801561000f575f80fd5b5060043610610029575f3560e01c80630567e83e1461002d575b5f80fd5b610047600480360381019061004291906101e6565b610049565b005b5f8160405160240161005b9190610233565b6040516020818303038152906040527f0115c3dc000000000000000000000000000000000000000000000000000000007bffffffffffffffffffffffffffffffffffffffffffffffffffffffff19166020820180517bffffffffffffffffffffffffffffffffffffffffffffffffffffffff838183161783525050505090505f8373ffffffffffffffffffffffffffffffffffffffff1682604051610100919061029e565b5f604051808303815f865af19150503d805f8114610139576040519150601f19603f3d011682016040523d82523d5f602084013e61013e565b606091505b5050905080610182576040517f08c379a00000000000000000000000000000000000000000000000000000000081526004016101799061030e565b60405180910390fd5b50505050565b5f80fd5b5f73ffffffffffffffffffffffffffffffffffffffff82169050919050565b5f6101b58261018c565b9050919050565b6101c5816101ab565b81146101cf575f80fd5b50565b5f813590506101e0816101bc565b92915050565b5f80604083850312156101fc576101fb610188565b5b5f610209858286016101d2565b925050602061021a858286016101d2565b9150509250929050565b61022d816101ab565b82525050565b5f6020820190506102465f830184610224565b92915050565b5f81519050919050565b5f81905092915050565b8281835e5f83830152505050565b5f6102788261024c565b6102828185610256565b9350610292818560208601610260565b80840191505092915050565b5f6102a9828461026e565b915081905092915050565b5f82825260208201905092915050565b7f6b696c6c696e672061626f7274656400000000000000000000000000000000005f82015250565b5f6102f8600f836102b4565b9150610303826102c4565b602082019050919050565b5f6020820190508181035f830152610325816102ec565b905091905056fea264697066735822122042100e28d57c77c9deb8610bb1abae274db91d87160d2f039d9c894cbdbeefff64736f6c634300081a0033",
					"opcodes": "PUSH1 0x80 PUSH1 0x40 MSTORE CALLVALUE DUP1 ISZERO PUSH1 0xE JUMPI PUSH0 DUP1 REVERT JUMPDEST POP PUSH2 0x362 DUP1 PUSH2 0x1C PUSH0 CODECOPY PUSH0 RETURN INVALID PUSH1 0x80 PUSH1 0x40 MSTORE CALLVALUE DUP1 ISZERO PUSH2 0xF JUMPI PUSH0 DUP1 REVERT JUMPDEST POP PUSH1 0x4 CALLDATASIZE LT PUSH2 0x29 JUMPI PUSH0 CALLDATALOAD PUSH1 0xE0 SHR DUP1 PUSH4 0x567E83E EQ PUSH2 0x2D JUMPI JUMPDEST PUSH0 DUP1 REVERT JUMPDEST PUSH2 0x47 PUSH1 0x4 DUP1 CALLDATASIZE SUB DUP2 ADD SWAP1 PUSH2 0x42 SWAP2 SWAP1 PUSH2 0x1E6 JUMP JUMPDEST PUSH2 0x49 JUMP JUMPDEST STOP JUMPDEST PUSH0 DUP2 PUSH1 0x40 MLOAD PUSH1 0x24 ADD PUSH2 0x5B SWAP2 SWAP1 PUSH2 0x233 JUMP JUMPDEST PUSH1 0x40 MLOAD PUSH1 0x20 DUP2 DUP4 SUB SUB DUP2 MSTORE SWAP1 PUSH1 0x40 MSTORE PUSH32 0x115C3DC00000000000000000000000000000000000000000000000000000000 PUSH28 0xFFFFFFFFFFFFFFFFFFFFFFFFFFFFFFFFFFFFFFFFFFFFFFFFFFFFFFFF NOT AND PUSH1 0x20 DUP3 ADD DUP1 MLOAD PUSH28 0xFFFFFFFFFFFFFFFFFFFFFFFFFFFFFFFFFFFFFFFFFFFFFFFFFFFFFFFF DUP4 DUP2 DUP4 AND OR DUP4 MSTORE POP POP POP POP SWAP1 POP PUSH0 DUP4 PUSH20 0xFFFFFFFFFFFFFFFFFFFFFFFFFFFFFFFFFFFFFFFF AND DUP3 PUSH1 0x40 MLOAD PUSH2 0x100 SWAP2 SWAP1 PUSH2 0x29E JUMP JUMPDEST PUSH0 PUSH1 0x40 MLOAD DUP1 DUP4 SUB DUP2 PUSH0 DUP7 GAS CALL SWAP2 POP POP RETURNDATASIZE DUP1 PUSH0 DUP2 EQ PUSH2 0x139 JUMPI PUSH1 0x40 MLOAD SWAP2 POP PUSH1 0x1F NOT PUSH1 0x3F RETURNDATASIZE ADD AND DUP3 ADD PUSH1 0x40 MSTORE RETURNDATASIZE DUP3 MSTORE RETURNDATASIZE PUSH0 PUSH1 0x20 DUP5 ADD RETURNDATACOPY PUSH2 0x13E JUMP JUMPDEST PUSH1 0x60 SWAP2 POP JUMPDEST POP POP SWAP1 POP DUP1 PUSH2 0x182 JUMPI PUSH1 0x40 MLOAD PUSH32 0x8C379A000000000000000000000000000000000000000000000000000000000 DUP2 MSTORE PUSH1 0x4 ADD PUSH2 0x179 SWAP1 PUSH2 0x30E JUMP JUMPDEST PUSH1 0x40 MLOAD DUP1 SWAP2 SUB SWAP1 REVERT JUMPDEST POP POP POP POP JUMP JUMPDEST PUSH0 DUP1 REVERT JUMPDEST PUSH0 PUSH20 0xFFFFFFFFFFFFFFFFFFFFFFFFFFFFFFFFFFFFFFFF DUP3 AND SWAP1 POP SWAP2 SWAP1 POP JUMP JUMPDEST PUSH0 PUSH2 0x1B5 DUP3 PUSH2 0x18C JUMP JUMPDEST SWAP1 POP SWAP2 SWAP1 POP JUMP JUMPDEST PUSH2 0x1C5 DUP2 PUSH2 0x1AB JUMP JUMPDEST DUP2 EQ PUSH2 0x1CF JUMPI PUSH0 DUP1 REVERT JUMPDEST POP JUMP JUMPDEST PUSH0 DUP2 CALLDATALOAD SWAP1 POP PUSH2 0x1E0 DUP2 PUSH2 0x1BC JUMP JUMPDEST SWAP3 SWAP2 POP POP JUMP JUMPDEST PUSH0 DUP1 PUSH1 0x40 DUP4 DUP6 SUB SLT ISZERO PUSH2 0x1FC JUMPI PUSH2 0x1FB PUSH2 0x188 JUMP JUMPDEST JUMPDEST PUSH0 PUSH2 0x209 DUP6 DUP3 DUP7 ADD PUSH2 0x1D2 JUMP JUMPDEST SWAP3 POP POP PUSH1 0x20 PUSH2 0x21A DUP6 DUP3 DUP7 ADD PUSH2 0x1D2 JUMP JUMPDEST SWAP2 POP POP SWAP3 POP SWAP3 SWAP1 POP JUMP JUMPDEST PUSH2 0x22D DUP2 PUSH2 0x1AB JUMP JUMPDEST DUP3 MSTORE POP POP JUMP JUMPDEST PUSH0 PUSH1 0x20 DUP3 ADD SWAP1 POP PUSH2 0x246 PUSH0 DUP4 ADD DUP5 PUSH2 0x224 JUMP JUMPDEST SWAP3 SWAP2 POP POP JUMP JUMPDEST PUSH0 DUP2 MLOAD SWAP1 POP SWAP2 SWAP1 POP JUMP JUMPDEST PUSH0 DUP2 SWAP1 POP SWAP3 SWAP2 POP POP JUMP JUMPDEST DUP3 DUP2 DUP4 MCOPY PUSH0 DUP4 DUP4 ADD MSTORE POP POP POP JUMP JUMPDEST PUSH0 PUSH2 0x278 DUP3 PUSH2 0x24C JUMP JUMPDEST PUSH2 0x282 DUP2 DUP6 PUSH2 0x256 JUMP JUMPDEST SWAP4 POP PUSH2 0x292 DUP2 DUP6 PUSH1 0x20 DUP7 ADD PUSH2 0x260 JUMP JUMPDEST DUP1 DUP5 ADD SWAP2 POP POP SWAP3 SWAP2 POP POP JUMP JUMPDEST PUSH0 PUSH2 0x2A9 DUP3 DUP5 PUSH2 0x26E JUMP JUMPDEST SWAP2 POP DUP2 SWAP1 POP SWAP3 SWAP2 POP POP JUMP JUMPDEST PUSH0 DUP3 DUP3 MSTORE PUSH1 0x20 DUP3 ADD SWAP1 POP SWAP3 SWAP2 POP POP JUMP JUMPDEST PUSH32 0x6B696C6C696E672061626F727465640000000000000000000000000000000000 PUSH0 DUP3 ADD MSTORE POP JUMP JUMPDEST PUSH0 PUSH2 0x2F8 PUSH1 0xF DUP4 PUSH2 0x2B4 JUMP JUMPDEST SWAP2 POP PUSH2 0x303 DUP3 PUSH2 0x2C4 JUMP JUMPDEST PUSH1 0x20 DUP3 ADD SWAP1 POP SWAP2 SWAP1 POP JUMP JUMPDEST PUSH0 PUSH1 0x20 DUP3 ADD SWAP1 POP DUP2 DUP2 SUB PUSH0 DUP4 ADD MSTORE PUSH2 0x325 DUP2 PUSH2 0x2EC JUMP JUMPDEST SWAP1 POP SWAP2 SWAP1 POP JUMP INVALID LOG2 PUSH5 0x6970667358 0x22 SLT KECCAK256 TIMESTAMP LT 0xE 0x28 0xD5 PUSH29 0x77C9DEB8610BB1ABAE274DB91D87160D2F039D9C894CBDBEEFFF64736F PUSH13 0x634300081A0033000000000000 "
				},
				"gasEstimates": {
					"creation": {
						"codeDepositCost": "173200",
						"executionCost": "218",
						"totalCost": "173418"
					},
					"external": {
						"kill(address,address)": "infinite"
					}
				},
				"methodIdentifiers": {
					"kill(address,address)": "0567e83e"
				}
			},
			"storageLayout": {
				"storage": [],
				"types": null
			},
			"userdoc": {
				"kind": "user",
				"methods": {},
				"version": 1
			}
		}
	}
}