{
	"contracts/artifacts/Task2.sol": {
		"Demo": {
			"abi": [
				{
					"inputs": [],
					"stateMutability": "payable",
					"type": "constructor"
				},
				{
					"inputs": [],
					"name": "deposit",
					"outputs": [],
					"stateMutability": "payable",
					"type": "function"
				},
				{
					"inputs": [
						{
							"internalType": "address",
							"name": "apocalypse",
							"type": "address"
						}
					],
					"name": "destroySc",
					"outputs": [],
					"stateMutability": "nonpayable",
					"type": "function"
				},
				{
					"inputs": [],
					"name": "getContractBalance",
					"outputs": [
						{
							"internalType": "uint256",
							"name": "",
							"type": "uint256"
						}
					],
					"stateMutability": "view",
					"type": "function"
				},
				{
					"inputs": [],
					"name": "owner",
					"outputs": [
						{
							"internalType": "address payable",
							"name": "",
							"type": "address"
						}
					],
					"stateMutability": "view",
					"type": "function"
				},
				{
					"inputs": [
						{
							"internalType": "address payable",
							"name": "_to",
							"type": "address"
						},
						{
							"internalType": "uint256",
							"name": "_amt",
							"type": "uint256"
						}
					],
					"name": "transferEther",
					"outputs": [],
					"stateMutability": "nonpayable",
					"type": "function"
				},
				{
					"inputs": [],
					"name": "withdraw",
					"outputs": [],
					"stateMutability": "nonpayable",
					"type": "function"
				},
				{
					"stateMutability": "payable",
					"type": "receive"
				}
			],
			"devdoc": {
				"kind": "dev",
				"methods": {},
				"version": 1
			},
			"evm": {
				"assembly": "    /* \"contracts/artifacts/Task2.sol\":170:2073  contract Demo {... */\n  mstore(0x40, 0x80)\n    /* \"contracts/artifacts/Task2.sol\":345:355  msg.sender */\n  caller\n    /* \"contracts/artifacts/Task2.sol\":329:334  owner */\n  0x00\n  dup1\n    /* \"contracts/artifacts/Task2.sol\":329:356  owner = payable(msg.sender) */\n  0x0100\n  exp\n  dup2\n  sload\n  dup2\n  0xffffffffffffffffffffffffffffffffffffffff\n  mul\n  not\n  and\n  swap1\n  dup4\n  0xffffffffffffffffffffffffffffffffffffffff\n  and\n  mul\n  or\n  swap1\n  sstore\n  pop\n    /* \"contracts/artifacts/Task2.sol\":170:2073  contract Demo {... */\n  dataSize(sub_0)\n  dup1\n  dataOffset(sub_0)\n  0x00\n  codecopy\n  0x00\n  return\nstop\n\nsub_0: assembly {\n        /* \"contracts/artifacts/Task2.sol\":170:2073  contract Demo {... */\n      mstore(0x40, 0x80)\n      jumpi(tag_1, lt(calldatasize, 0x04))\n      shr(0xe0, calldataload(0x00))\n      dup1\n      0x0115c3dc\n      eq\n      tag_3\n      jumpi\n      dup1\n      0x05b1137b\n      eq\n      tag_4\n      jumpi\n      dup1\n      0x3ccfd60b\n      eq\n      tag_5\n      jumpi\n      dup1\n      0x6f9fb98a\n      eq\n      tag_6\n      jumpi\n      dup1\n      0x8da5cb5b\n      eq\n      tag_7\n      jumpi\n      dup1\n      0xd0e30db0\n      eq\n      tag_8\n      jumpi\n      jump(tag_2)\n    tag_1:\n      jumpi(tag_2, calldatasize)\n      stop\n    tag_2:\n      0x00\n      dup1\n      revert\n        /* \"contracts/artifacts/Task2.sol\":1889:1986  function destroySc(address apocalypse) public{... */\n    tag_3:\n      callvalue\n      dup1\n      iszero\n      tag_11\n      jumpi\n      0x00\n      dup1\n      revert\n    tag_11:\n      pop\n      tag_12\n      0x04\n      dup1\n      calldatasize\n      sub\n      dup2\n      add\n      swap1\n      tag_13\n      swap2\n      swap1\n      tag_14\n      jump\t// in\n    tag_13:\n      tag_15\n      jump\t// in\n    tag_12:\n      stop\n        /* \"contracts/artifacts/Task2.sol\":1178:1539  function transferEther(address payable _to, uint256 _amt) public  {... */\n    tag_4:\n      callvalue\n      dup1\n      iszero\n      tag_16\n      jumpi\n      0x00\n      dup1\n      revert\n    tag_16:\n      pop\n      tag_17\n      0x04\n      dup1\n      calldatasize\n      sub\n      dup2\n      add\n      swap1\n      tag_18\n      swap2\n      swap1\n      tag_19\n      jump\t// in\n    tag_18:\n      tag_20\n      jump\t// in\n    tag_17:\n      stop\n        /* \"contracts/artifacts/Task2.sol\":746:1002  function withdraw() public isOwner {... */\n    tag_5:\n      callvalue\n      dup1\n      iszero\n      tag_21\n      jumpi\n      0x00\n      dup1\n      revert\n    tag_21:\n      pop\n      tag_22\n      tag_23\n      jump\t// in\n    tag_22:\n      stop\n        /* \"contracts/artifacts/Task2.sol\":1547:1662  function getContractBalance() isOwner public view returns (uint256) {... */\n    tag_6:\n      callvalue\n      dup1\n      iszero\n      tag_24\n      jumpi\n      0x00\n      dup1\n      revert\n    tag_24:\n      pop\n      tag_25\n      tag_26\n      jump\t// in\n    tag_25:\n      mload(0x40)\n      tag_27\n      swap2\n      swap1\n      tag_28\n      jump\t// in\n    tag_27:\n      mload(0x40)\n      dup1\n      swap2\n      sub\n      swap1\n      return\n        /* \"contracts/artifacts/Task2.sol\":191:219  address payable public owner */\n    tag_7:\n      callvalue\n      dup1\n      iszero\n      tag_29\n      jumpi\n      0x00\n      dup1\n      revert\n    tag_29:\n      pop\n      tag_30\n      tag_31\n      jump\t// in\n    tag_30:\n      mload(0x40)\n      tag_32\n      swap2\n      swap1\n      tag_33\n      jump\t// in\n    tag_32:\n      mload(0x40)\n      dup1\n      swap2\n      sub\n      swap1\n      return\n        /* \"contracts/artifacts/Task2.sol\":619:655  function deposit() public payable {} */\n    tag_8:\n      tag_34\n      tag_35\n      jump\t// in\n    tag_34:\n      stop\n        /* \"contracts/artifacts/Task2.sol\":1889:1986  function destroySc(address apocalypse) public{... */\n    tag_15:\n        /* \"contracts/artifacts/Task2.sol\":1966:1976  apocalypse */\n      dup1\n        /* \"contracts/artifacts/Task2.sol\":1945:1978  selfdestruct(payable(apocalypse)) */\n      0xffffffffffffffffffffffffffffffffffffffff\n      and\n      selfdestruct\n        /* \"contracts/artifacts/Task2.sol\":1178:1539  function transferEther(address payable _to, uint256 _amt) public  {... */\n    tag_20:\n        /* \"contracts/artifacts/Task2.sol\":1288:1292  _amt */\n      dup1\n        /* \"contracts/artifacts/Task2.sol\":1263:1284  address(this).balance */\n      selfbalance\n        /* \"contracts/artifacts/Task2.sol\":1263:1292  address(this).balance >= _amt */\n      lt\n      iszero\n        /* \"contracts/artifacts/Task2.sol\":1255:1326  require(address(this).balance >= _amt, \"Insufficient contract balance\") */\n      tag_38\n      jumpi\n      mload(0x40)\n      0x08c379a000000000000000000000000000000000000000000000000000000000\n      dup2\n      mstore\n      0x04\n      add\n      tag_39\n      swap1\n      tag_40\n      jump\t// in\n    tag_39:\n      mload(0x40)\n      dup1\n      swap2\n      sub\n      swap1\n      revert\n    tag_38:\n        /* \"contracts/artifacts/Task2.sol\":1360:1361  0 */\n      0x00\n        /* \"contracts/artifacts/Task2.sol\":1345:1362  _to != address(0) */\n      0xffffffffffffffffffffffffffffffffffffffff\n      and\n        /* \"contracts/artifacts/Task2.sol\":1345:1348  _to */\n      dup3\n        /* \"contracts/artifacts/Task2.sol\":1345:1362  _to != address(0) */\n      0xffffffffffffffffffffffffffffffffffffffff\n      and\n      sub\n        /* \"contracts/artifacts/Task2.sol\":1337:1392  require(_to != address(0), \"Invalid recipient address\") */\n      tag_41\n      jumpi\n      mload(0x40)\n      0x08c379a000000000000000000000000000000000000000000000000000000000\n      dup2\n      mstore\n      0x04\n      add\n      tag_42\n      swap1\n      tag_43\n      jump\t// in\n    tag_42:\n      mload(0x40)\n      dup1\n      swap2\n      sub\n      swap1\n      revert\n    tag_41:\n        /* \"contracts/artifacts/Task2.sol\":1406:1418  bool success */\n      0x00\n        /* \"contracts/artifacts/Task2.sol\":1424:1427  _to */\n      dup3\n        /* \"contracts/artifacts/Task2.sol\":1424:1432  _to.call */\n      0xffffffffffffffffffffffffffffffffffffffff\n      and\n        /* \"contracts/artifacts/Task2.sol\":1440:1444  _amt */\n      dup3\n        /* \"contracts/artifacts/Task2.sol\":1424:1479  _to.call{value: _amt}(\"Ether transfered successfully \") */\n      mload(0x40)\n      tag_44\n      swap1\n      tag_45\n      jump\t// in\n    tag_44:\n      0x00\n      mload(0x40)\n      dup1\n      dup4\n      sub\n      dup2\n      dup6\n      dup8\n      gas\n      call\n      swap3\n      pop\n      pop\n      pop\n      returndatasize\n      dup1\n      0x00\n      dup2\n      eq\n      tag_48\n      jumpi\n      mload(0x40)\n      swap2\n      pop\n      and(add(returndatasize, 0x3f), not(0x1f))\n      dup3\n      add\n      0x40\n      mstore\n      returndatasize\n      dup3\n      mstore\n      returndatasize\n      0x00\n      0x20\n      dup5\n      add\n      returndatacopy\n      jump(tag_47)\n    tag_48:\n      0x60\n      swap2\n      pop\n    tag_47:\n      pop\n        /* \"contracts/artifacts/Task2.sol\":1405:1479  (bool success, ) = _to.call{value: _amt}(\"Ether transfered successfully \") */\n      pop\n      swap1\n      pop\n        /* \"contracts/artifacts/Task2.sol\":1498:1505  success */\n      dup1\n        /* \"contracts/artifacts/Task2.sol\":1490:1531  require(success, \"Ether transfer failed\") */\n      tag_49\n      jumpi\n      mload(0x40)\n      0x08c379a000000000000000000000000000000000000000000000000000000000\n      dup2\n      mstore\n      0x04\n      add\n      tag_50\n      swap1\n      tag_51\n      jump\t// in\n    tag_50:\n      mload(0x40)\n      dup1\n      swap2\n      sub\n      swap1\n      revert\n    tag_49:\n        /* \"contracts/artifacts/Task2.sol\":1244:1539  {... */\n      pop\n        /* \"contracts/artifacts/Task2.sol\":1178:1539  function transferEther(address payable _to, uint256 _amt) public  {... */\n      pop\n      pop\n      jump\t// out\n        /* \"contracts/artifacts/Task2.sol\":746:1002  function withdraw() public isOwner {... */\n    tag_23:\n        /* \"contracts/artifacts/Task2.sol\":473:478  owner */\n      0x00\n      dup1\n      sload\n      swap1\n      0x0100\n      exp\n      swap1\n      div\n      0xffffffffffffffffffffffffffffffffffffffff\n      and\n        /* \"contracts/artifacts/Task2.sol\":459:478  msg.sender == owner */\n      0xffffffffffffffffffffffffffffffffffffffff\n      and\n        /* \"contracts/artifacts/Task2.sol\":459:469  msg.sender */\n      caller\n        /* \"contracts/artifacts/Task2.sol\":459:478  msg.sender == owner */\n      0xffffffffffffffffffffffffffffffffffffffff\n      and\n      eq\n        /* \"contracts/artifacts/Task2.sol\":451:516  require(msg.sender == owner, \"Only owner can call this function\") */\n      tag_53\n      jumpi\n      mload(0x40)\n      0x08c379a000000000000000000000000000000000000000000000000000000000\n      dup2\n      mstore\n      0x04\n      add\n      tag_54\n      swap1\n      tag_55\n      jump\t// in\n    tag_54:\n      mload(0x40)\n      dup1\n      swap2\n      sub\n      swap1\n      revert\n    tag_53:\n        /* \"contracts/artifacts/Task2.sol\":792:806  uint256 amount */\n      0x00\n        /* \"contracts/artifacts/Task2.sol\":809:830  address(this).balance */\n      selfbalance\n        /* \"contracts/artifacts/Task2.sol\":792:830  uint256 amount = address(this).balance */\n      swap1\n      pop\n        /* \"contracts/artifacts/Task2.sol\":858:859  0 */\n      0x00\n        /* \"contracts/artifacts/Task2.sol\":849:855  amount */\n      dup2\n        /* \"contracts/artifacts/Task2.sol\":849:859  amount > 0 */\n      gt\n        /* \"contracts/artifacts/Task2.sol\":841:882  require(amount > 0, \"No funds available\") */\n      tag_57\n      jumpi\n      mload(0x40)\n      0x08c379a000000000000000000000000000000000000000000000000000000000\n      dup2\n      mstore\n      0x04\n      add\n      tag_58\n      swap1\n      tag_59\n      jump\t// in\n    tag_58:\n      mload(0x40)\n      dup1\n      swap2\n      sub\n      swap1\n      revert\n    tag_57:\n        /* \"contracts/artifacts/Task2.sol\":896:908  bool success */\n      0x00\n        /* \"contracts/artifacts/Task2.sol\":914:919  owner */\n      dup1\n      0x00\n      swap1\n      sload\n      swap1\n      0x0100\n      exp\n      swap1\n      div\n      0xffffffffffffffffffffffffffffffffffffffff\n      and\n        /* \"contracts/artifacts/Task2.sol\":914:924  owner.call */\n      0xffffffffffffffffffffffffffffffffffffffff\n      and\n        /* \"contracts/artifacts/Task2.sol\":932:938  amount */\n      dup3\n        /* \"contracts/artifacts/Task2.sol\":914:943  owner.call{value: amount}(\"\") */\n      mload(0x40)\n      tag_60\n      swap1\n      tag_61\n      jump\t// in\n    tag_60:\n      0x00\n      mload(0x40)\n      dup1\n      dup4\n      sub\n      dup2\n      dup6\n      dup8\n      gas\n      call\n      swap3\n      pop\n      pop\n      pop\n      returndatasize\n      dup1\n      0x00\n      dup2\n      eq\n      tag_64\n      jumpi\n      mload(0x40)\n      swap2\n      pop\n      and(add(returndatasize, 0x3f), not(0x1f))\n      dup3\n      add\n      0x40\n      mstore\n      returndatasize\n      dup3\n      mstore\n      returndatasize\n      0x00\n      0x20\n      dup5\n      add\n      returndatacopy\n      jump(tag_63)\n    tag_64:\n      0x60\n      swap2\n      pop\n    tag_63:\n      pop\n        /* \"contracts/artifacts/Task2.sol\":895:943  (bool success, ) = owner.call{value: amount}(\"\") */\n      pop\n      swap1\n      pop\n        /* \"contracts/artifacts/Task2.sol\":962:969  success */\n      dup1\n        /* \"contracts/artifacts/Task2.sol\":954:994  require(success, \"Failed to send Ether\") */\n      tag_65\n      jumpi\n      mload(0x40)\n      0x08c379a000000000000000000000000000000000000000000000000000000000\n      dup2\n      mstore\n      0x04\n      add\n      tag_66\n      swap1\n      tag_67\n      jump\t// in\n    tag_66:\n      mload(0x40)\n      dup1\n      swap2\n      sub\n      swap1\n      revert\n    tag_65:\n        /* \"contracts/artifacts/Task2.sol\":781:1002  {... */\n      pop\n      pop\n        /* \"contracts/artifacts/Task2.sol\":746:1002  function withdraw() public isOwner {... */\n      jump\t// out\n        /* \"contracts/artifacts/Task2.sol\":1547:1662  function getContractBalance() isOwner public view returns (uint256) {... */\n    tag_26:\n        /* \"contracts/artifacts/Task2.sol\":1606:1613  uint256 */\n      0x00\n        /* \"contracts/artifacts/Task2.sol\":473:478  owner */\n      dup1\n      0x00\n      swap1\n      sload\n      swap1\n      0x0100\n      exp\n      swap1\n      div\n      0xffffffffffffffffffffffffffffffffffffffff\n      and\n        /* \"contracts/artifacts/Task2.sol\":459:478  msg.sender == owner */\n      0xffffffffffffffffffffffffffffffffffffffff\n      and\n        /* \"contracts/artifacts/Task2.sol\":459:469  msg.sender */\n      caller\n        /* \"contracts/artifacts/Task2.sol\":459:478  msg.sender == owner */\n      0xffffffffffffffffffffffffffffffffffffffff\n      and\n      eq\n        /* \"contracts/artifacts/Task2.sol\":451:516  require(msg.sender == owner, \"Only owner can call this function\") */\n      tag_69\n      jumpi\n      mload(0x40)\n      0x08c379a000000000000000000000000000000000000000000000000000000000\n      dup2\n      mstore\n      0x04\n      add\n      tag_70\n      swap1\n      tag_55\n      jump\t// in\n    tag_70:\n      mload(0x40)\n      dup1\n      swap2\n      sub\n      swap1\n      revert\n    tag_69:\n        /* \"contracts/artifacts/Task2.sol\":1633:1654  address(this).balance */\n      selfbalance\n        /* \"contracts/artifacts/Task2.sol\":1626:1654  return address(this).balance */\n      swap1\n      pop\n        /* \"contracts/artifacts/Task2.sol\":1547:1662  function getContractBalance() isOwner public view returns (uint256) {... */\n      swap1\n      jump\t// out\n        /* \"contracts/artifacts/Task2.sol\":191:219  address payable public owner */\n    tag_31:\n      0x00\n      dup1\n      sload\n      swap1\n      0x0100\n      exp\n      swap1\n      div\n      0xffffffffffffffffffffffffffffffffffffffff\n      and\n      dup2\n      jump\t// out\n        /* \"contracts/artifacts/Task2.sol\":619:655  function deposit() public payable {} */\n    tag_35:\n      jump\t// out\n        /* \"#utility.yul\":88:205   */\n    tag_74:\n        /* \"#utility.yul\":197:198   */\n      0x00\n        /* \"#utility.yul\":194:195   */\n      dup1\n        /* \"#utility.yul\":187:199   */\n      revert\n        /* \"#utility.yul\":334:460   */\n    tag_76:\n        /* \"#utility.yul\":371:378   */\n      0x00\n        /* \"#utility.yul\":411:453   */\n      0xffffffffffffffffffffffffffffffffffffffff\n        /* \"#utility.yul\":404:409   */\n      dup3\n        /* \"#utility.yul\":400:454   */\n      and\n        /* \"#utility.yul\":389:454   */\n      swap1\n      pop\n        /* \"#utility.yul\":334:460   */\n      swap2\n      swap1\n      pop\n      jump\t// out\n        /* \"#utility.yul\":466:562   */\n    tag_77:\n        /* \"#utility.yul\":503:510   */\n      0x00\n        /* \"#utility.yul\":532:556   */\n      tag_112\n        /* \"#utility.yul\":550:555   */\n      dup3\n        /* \"#utility.yul\":532:556   */\n      tag_76\n      jump\t// in\n    tag_112:\n        /* \"#utility.yul\":521:556   */\n      swap1\n      pop\n        /* \"#utility.yul\":466:562   */\n      swap2\n      swap1\n      pop\n      jump\t// out\n        /* \"#utility.yul\":568:690   */\n    tag_78:\n        /* \"#utility.yul\":641:665   */\n      tag_114\n        /* \"#utility.yul\":659:664   */\n      dup2\n        /* \"#utility.yul\":641:665   */\n      tag_77\n      jump\t// in\n    tag_114:\n        /* \"#utility.yul\":634:639   */\n      dup2\n        /* \"#utility.yul\":631:666   */\n      eq\n        /* \"#utility.yul\":621:684   */\n      tag_115\n      jumpi\n        /* \"#utility.yul\":680:681   */\n      0x00\n        /* \"#utility.yul\":677:678   */\n      dup1\n        /* \"#utility.yul\":670:682   */\n      revert\n        /* \"#utility.yul\":621:684   */\n    tag_115:\n        /* \"#utility.yul\":568:690   */\n      pop\n      jump\t// out\n        /* \"#utility.yul\":696:835   */\n    tag_79:\n        /* \"#utility.yul\":742:747   */\n      0x00\n        /* \"#utility.yul\":780:786   */\n      dup2\n        /* \"#utility.yul\":767:787   */\n      calldataload\n        /* \"#utility.yul\":758:787   */\n      swap1\n      pop\n        /* \"#utility.yul\":796:829   */\n      tag_117\n        /* \"#utility.yul\":823:828   */\n      dup2\n        /* \"#utility.yul\":796:829   */\n      tag_78\n      jump\t// in\n    tag_117:\n        /* \"#utility.yul\":696:835   */\n      swap3\n      swap2\n      pop\n      pop\n      jump\t// out\n        /* \"#utility.yul\":841:1170   */\n    tag_14:\n        /* \"#utility.yul\":900:906   */\n      0x00\n        /* \"#utility.yul\":949:951   */\n      0x20\n        /* \"#utility.yul\":937:946   */\n      dup3\n        /* \"#utility.yul\":928:935   */\n      dup5\n        /* \"#utility.yul\":924:947   */\n      sub\n        /* \"#utility.yul\":920:952   */\n      slt\n        /* \"#utility.yul\":917:1036   */\n      iszero\n      tag_119\n      jumpi\n        /* \"#utility.yul\":955:1034   */\n      tag_120\n      tag_74\n      jump\t// in\n    tag_120:\n        /* \"#utility.yul\":917:1036   */\n    tag_119:\n        /* \"#utility.yul\":1075:1076   */\n      0x00\n        /* \"#utility.yul\":1100:1153   */\n      tag_121\n        /* \"#utility.yul\":1145:1152   */\n      dup5\n        /* \"#utility.yul\":1136:1142   */\n      dup3\n        /* \"#utility.yul\":1125:1134   */\n      dup6\n        /* \"#utility.yul\":1121:1143   */\n      add\n        /* \"#utility.yul\":1100:1153   */\n      tag_79\n      jump\t// in\n    tag_121:\n        /* \"#utility.yul\":1090:1153   */\n      swap2\n      pop\n        /* \"#utility.yul\":1046:1163   */\n      pop\n        /* \"#utility.yul\":841:1170   */\n      swap3\n      swap2\n      pop\n      pop\n      jump\t// out\n        /* \"#utility.yul\":1176:1280   */\n    tag_80:\n        /* \"#utility.yul\":1221:1228   */\n      0x00\n        /* \"#utility.yul\":1250:1274   */\n      tag_123\n        /* \"#utility.yul\":1268:1273   */\n      dup3\n        /* \"#utility.yul\":1250:1274   */\n      tag_76\n      jump\t// in\n    tag_123:\n        /* \"#utility.yul\":1239:1274   */\n      swap1\n      pop\n        /* \"#utility.yul\":1176:1280   */\n      swap2\n      swap1\n      pop\n      jump\t// out\n        /* \"#utility.yul\":1286:1424   */\n    tag_81:\n        /* \"#utility.yul\":1367:1399   */\n      tag_125\n        /* \"#utility.yul\":1393:1398   */\n      dup2\n        /* \"#utility.yul\":1367:1399   */\n      tag_80\n      jump\t// in\n    tag_125:\n        /* \"#utility.yul\":1360:1365   */\n      dup2\n        /* \"#utility.yul\":1357:1400   */\n      eq\n        /* \"#utility.yul\":1347:1418   */\n      tag_126\n      jumpi\n        /* \"#utility.yul\":1414:1415   */\n      0x00\n        /* \"#utility.yul\":1411:1412   */\n      dup1\n        /* \"#utility.yul\":1404:1416   */\n      revert\n        /* \"#utility.yul\":1347:1418   */\n    tag_126:\n        /* \"#utility.yul\":1286:1424   */\n      pop\n      jump\t// out\n        /* \"#utility.yul\":1430:1585   */\n    tag_82:\n        /* \"#utility.yul\":1484:1489   */\n      0x00\n        /* \"#utility.yul\":1522:1528   */\n      dup2\n        /* \"#utility.yul\":1509:1529   */\n      calldataload\n        /* \"#utility.yul\":1500:1529   */\n      swap1\n      pop\n        /* \"#utility.yul\":1538:1579   */\n      tag_128\n        /* \"#utility.yul\":1573:1578   */\n      dup2\n        /* \"#utility.yul\":1538:1579   */\n      tag_81\n      jump\t// in\n    tag_128:\n        /* \"#utility.yul\":1430:1585   */\n      swap3\n      swap2\n      pop\n      pop\n      jump\t// out\n        /* \"#utility.yul\":1591:1668   */\n    tag_83:\n        /* \"#utility.yul\":1628:1635   */\n      0x00\n        /* \"#utility.yul\":1657:1662   */\n      dup2\n        /* \"#utility.yul\":1646:1662   */\n      swap1\n      pop\n        /* \"#utility.yul\":1591:1668   */\n      swap2\n      swap1\n      pop\n      jump\t// out\n        /* \"#utility.yul\":1674:1796   */\n    tag_84:\n        /* \"#utility.yul\":1747:1771   */\n      tag_131\n        /* \"#utility.yul\":1765:1770   */\n      dup2\n        /* \"#utility.yul\":1747:1771   */\n      tag_83\n      jump\t// in\n    tag_131:\n        /* \"#utility.yul\":1740:1745   */\n      dup2\n        /* \"#utility.yul\":1737:1772   */\n      eq\n        /* \"#utility.yul\":1727:1790   */\n      tag_132\n      jumpi\n        /* \"#utility.yul\":1786:1787   */\n      0x00\n        /* \"#utility.yul\":1783:1784   */\n      dup1\n        /* \"#utility.yul\":1776:1788   */\n      revert\n        /* \"#utility.yul\":1727:1790   */\n    tag_132:\n        /* \"#utility.yul\":1674:1796   */\n      pop\n      jump\t// out\n        /* \"#utility.yul\":1802:1941   */\n    tag_85:\n        /* \"#utility.yul\":1848:1853   */\n      0x00\n        /* \"#utility.yul\":1886:1892   */\n      dup2\n        /* \"#utility.yul\":1873:1893   */\n      calldataload\n        /* \"#utility.yul\":1864:1893   */\n      swap1\n      pop\n        /* \"#utility.yul\":1902:1935   */\n      tag_134\n        /* \"#utility.yul\":1929:1934   */\n      dup2\n        /* \"#utility.yul\":1902:1935   */\n      tag_84\n      jump\t// in\n    tag_134:\n        /* \"#utility.yul\":1802:1941   */\n      swap3\n      swap2\n      pop\n      pop\n      jump\t// out\n        /* \"#utility.yul\":1947:2437   */\n    tag_19:\n        /* \"#utility.yul\":2023:2029   */\n      0x00\n        /* \"#utility.yul\":2031:2037   */\n      dup1\n        /* \"#utility.yul\":2080:2082   */\n      0x40\n        /* \"#utility.yul\":2068:2077   */\n      dup4\n        /* \"#utility.yul\":2059:2066   */\n      dup6\n        /* \"#utility.yul\":2055:2078   */\n      sub\n        /* \"#utility.yul\":2051:2083   */\n      slt\n        /* \"#utility.yul\":2048:2167   */\n      iszero\n      tag_136\n      jumpi\n        /* \"#utility.yul\":2086:2165   */\n      tag_137\n      tag_74\n      jump\t// in\n    tag_137:\n        /* \"#utility.yul\":2048:2167   */\n    tag_136:\n        /* \"#utility.yul\":2206:2207   */\n      0x00\n        /* \"#utility.yul\":2231:2292   */\n      tag_138\n        /* \"#utility.yul\":2284:2291   */\n      dup6\n        /* \"#utility.yul\":2275:2281   */\n      dup3\n        /* \"#utility.yul\":2264:2273   */\n      dup7\n        /* \"#utility.yul\":2260:2282   */\n      add\n        /* \"#utility.yul\":2231:2292   */\n      tag_82\n      jump\t// in\n    tag_138:\n        /* \"#utility.yul\":2221:2292   */\n      swap3\n      pop\n        /* \"#utility.yul\":2177:2302   */\n      pop\n        /* \"#utility.yul\":2341:2343   */\n      0x20\n        /* \"#utility.yul\":2367:2420   */\n      tag_139\n        /* \"#utility.yul\":2412:2419   */\n      dup6\n        /* \"#utility.yul\":2403:2409   */\n      dup3\n        /* \"#utility.yul\":2392:2401   */\n      dup7\n        /* \"#utility.yul\":2388:2410   */\n      add\n        /* \"#utility.yul\":2367:2420   */\n      tag_85\n      jump\t// in\n    tag_139:\n        /* \"#utility.yul\":2357:2420   */\n      swap2\n      pop\n        /* \"#utility.yul\":2312:2430   */\n      pop\n        /* \"#utility.yul\":1947:2437   */\n      swap3\n      pop\n      swap3\n      swap1\n      pop\n      jump\t// out\n        /* \"#utility.yul\":2443:2561   */\n    tag_86:\n        /* \"#utility.yul\":2530:2554   */\n      tag_141\n        /* \"#utility.yul\":2548:2553   */\n      dup2\n        /* \"#utility.yul\":2530:2554   */\n      tag_83\n      jump\t// in\n    tag_141:\n        /* \"#utility.yul\":2525:2528   */\n      dup3\n        /* \"#utility.yul\":2518:2555   */\n      mstore\n        /* \"#utility.yul\":2443:2561   */\n      pop\n      pop\n      jump\t// out\n        /* \"#utility.yul\":2567:2789   */\n    tag_28:\n        /* \"#utility.yul\":2660:2664   */\n      0x00\n        /* \"#utility.yul\":2698:2700   */\n      0x20\n        /* \"#utility.yul\":2687:2696   */\n      dup3\n        /* \"#utility.yul\":2683:2701   */\n      add\n        /* \"#utility.yul\":2675:2701   */\n      swap1\n      pop\n        /* \"#utility.yul\":2711:2782   */\n      tag_143\n        /* \"#utility.yul\":2779:2780   */\n      0x00\n        /* \"#utility.yul\":2768:2777   */\n      dup4\n        /* \"#utility.yul\":2764:2781   */\n      add\n        /* \"#utility.yul\":2755:2761   */\n      dup5\n        /* \"#utility.yul\":2711:2782   */\n      tag_86\n      jump\t// in\n    tag_143:\n        /* \"#utility.yul\":2567:2789   */\n      swap3\n      swap2\n      pop\n      pop\n      jump\t// out\n        /* \"#utility.yul\":2795:2937   */\n    tag_87:\n        /* \"#utility.yul\":2898:2930   */\n      tag_145\n        /* \"#utility.yul\":2924:2929   */\n      dup2\n        /* \"#utility.yul\":2898:2930   */\n      tag_80\n      jump\t// in\n    tag_145:\n        /* \"#utility.yul\":2893:2896   */\n      dup3\n        /* \"#utility.yul\":2886:2931   */\n      mstore\n        /* \"#utility.yul\":2795:2937   */\n      pop\n      pop\n      jump\t// out\n        /* \"#utility.yul\":2943:3197   */\n    tag_33:\n        /* \"#utility.yul\":3052:3056   */\n      0x00\n        /* \"#utility.yul\":3090:3092   */\n      0x20\n        /* \"#utility.yul\":3079:3088   */\n      dup3\n        /* \"#utility.yul\":3075:3093   */\n      add\n        /* \"#utility.yul\":3067:3093   */\n      swap1\n      pop\n        /* \"#utility.yul\":3103:3190   */\n      tag_147\n        /* \"#utility.yul\":3187:3188   */\n      0x00\n        /* \"#utility.yul\":3176:3185   */\n      dup4\n        /* \"#utility.yul\":3172:3189   */\n      add\n        /* \"#utility.yul\":3163:3169   */\n      dup5\n        /* \"#utility.yul\":3103:3190   */\n      tag_87\n      jump\t// in\n    tag_147:\n        /* \"#utility.yul\":2943:3197   */\n      swap3\n      swap2\n      pop\n      pop\n      jump\t// out\n        /* \"#utility.yul\":3203:3372   */\n    tag_88:\n        /* \"#utility.yul\":3287:3298   */\n      0x00\n        /* \"#utility.yul\":3321:3327   */\n      dup3\n        /* \"#utility.yul\":3316:3319   */\n      dup3\n        /* \"#utility.yul\":3309:3328   */\n      mstore\n        /* \"#utility.yul\":3361:3365   */\n      0x20\n        /* \"#utility.yul\":3356:3359   */\n      dup3\n        /* \"#utility.yul\":3352:3366   */\n      add\n        /* \"#utility.yul\":3337:3366   */\n      swap1\n      pop\n        /* \"#utility.yul\":3203:3372   */\n      swap3\n      swap2\n      pop\n      pop\n      jump\t// out\n        /* \"#utility.yul\":3378:3557   */\n    tag_89:\n        /* \"#utility.yul\":3518:3549   */\n      0x496e73756666696369656e7420636f6e74726163742062616c616e6365000000\n        /* \"#utility.yul\":3514:3515   */\n      0x00\n        /* \"#utility.yul\":3506:3512   */\n      dup3\n        /* \"#utility.yul\":3502:3516   */\n      add\n        /* \"#utility.yul\":3495:3550   */\n      mstore\n        /* \"#utility.yul\":3378:3557   */\n      pop\n      jump\t// out\n        /* \"#utility.yul\":3563:3929   */\n    tag_90:\n        /* \"#utility.yul\":3705:3708   */\n      0x00\n        /* \"#utility.yul\":3726:3793   */\n      tag_151\n        /* \"#utility.yul\":3790:3792   */\n      0x1d\n        /* \"#utility.yul\":3785:3788   */\n      dup4\n        /* \"#utility.yul\":3726:3793   */\n      tag_88\n      jump\t// in\n    tag_151:\n        /* \"#utility.yul\":3719:3793   */\n      swap2\n      pop\n        /* \"#utility.yul\":3802:3895   */\n      tag_152\n        /* \"#utility.yul\":3891:3894   */\n      dup3\n        /* \"#utility.yul\":3802:3895   */\n      tag_89\n      jump\t// in\n    tag_152:\n        /* \"#utility.yul\":3920:3922   */\n      0x20\n        /* \"#utility.yul\":3915:3918   */\n      dup3\n        /* \"#utility.yul\":3911:3923   */\n      add\n        /* \"#utility.yul\":3904:3923   */\n      swap1\n      pop\n        /* \"#utility.yul\":3563:3929   */\n      swap2\n      swap1\n      pop\n      jump\t// out\n        /* \"#utility.yul\":3935:4354   */\n    tag_40:\n        /* \"#utility.yul\":4101:4105   */\n      0x00\n        /* \"#utility.yul\":4139:4141   */\n      0x20\n        /* \"#utility.yul\":4128:4137   */\n      dup3\n        /* \"#utility.yul\":4124:4142   */\n      add\n        /* \"#utility.yul\":4116:4142   */\n      swap1\n      pop\n        /* \"#utility.yul\":4188:4197   */\n      dup2\n        /* \"#utility.yul\":4182:4186   */\n      dup2\n        /* \"#utility.yul\":4178:4198   */\n      sub\n        /* \"#utility.yul\":4174:4175   */\n      0x00\n        /* \"#utility.yul\":4163:4172   */\n      dup4\n        /* \"#utility.yul\":4159:4176   */\n      add\n        /* \"#utility.yul\":4152:4199   */\n      mstore\n        /* \"#utility.yul\":4216:4347   */\n      tag_154\n        /* \"#utility.yul\":4342:4346   */\n      dup2\n        /* \"#utility.yul\":4216:4347   */\n      tag_90\n      jump\t// in\n    tag_154:\n        /* \"#utility.yul\":4208:4347   */\n      swap1\n      pop\n        /* \"#utility.yul\":3935:4354   */\n      swap2\n      swap1\n      pop\n      jump\t// out\n        /* \"#utility.yul\":4360:4535   */\n    tag_91:\n        /* \"#utility.yul\":4500:4527   */\n      0x496e76616c696420726563697069656e74206164647265737300000000000000\n        /* \"#utility.yul\":4496:4497   */\n      0x00\n        /* \"#utility.yul\":4488:4494   */\n      dup3\n        /* \"#utility.yul\":4484:4498   */\n      add\n        /* \"#utility.yul\":4477:4528   */\n      mstore\n        /* \"#utility.yul\":4360:4535   */\n      pop\n      jump\t// out\n        /* \"#utility.yul\":4541:4907   */\n    tag_92:\n        /* \"#utility.yul\":4683:4686   */\n      0x00\n        /* \"#utility.yul\":4704:4771   */\n      tag_157\n        /* \"#utility.yul\":4768:4770   */\n      0x19\n        /* \"#utility.yul\":4763:4766   */\n      dup4\n        /* \"#utility.yul\":4704:4771   */\n      tag_88\n      jump\t// in\n    tag_157:\n        /* \"#utility.yul\":4697:4771   */\n      swap2\n      pop\n        /* \"#utility.yul\":4780:4873   */\n      tag_158\n        /* \"#utility.yul\":4869:4872   */\n      dup3\n        /* \"#utility.yul\":4780:4873   */\n      tag_91\n      jump\t// in\n    tag_158:\n        /* \"#utility.yul\":4898:4900   */\n      0x20\n        /* \"#utility.yul\":4893:4896   */\n      dup3\n        /* \"#utility.yul\":4889:4901   */\n      add\n        /* \"#utility.yul\":4882:4901   */\n      swap1\n      pop\n        /* \"#utility.yul\":4541:4907   */\n      swap2\n      swap1\n      pop\n      jump\t// out\n        /* \"#utility.yul\":4913:5332   */\n    tag_43:\n        /* \"#utility.yul\":5079:5083   */\n      0x00\n        /* \"#utility.yul\":5117:5119   */\n      0x20\n        /* \"#utility.yul\":5106:5115   */\n      dup3\n        /* \"#utility.yul\":5102:5120   */\n      add\n        /* \"#utility.yul\":5094:5120   */\n      swap1\n      pop\n        /* \"#utility.yul\":5166:5175   */\n      dup2\n        /* \"#utility.yul\":5160:5164   */\n      dup2\n        /* \"#utility.yul\":5156:5176   */\n      sub\n        /* \"#utility.yul\":5152:5153   */\n      0x00\n        /* \"#utility.yul\":5141:5150   */\n      dup4\n        /* \"#utility.yul\":5137:5154   */\n      add\n        /* \"#utility.yul\":5130:5177   */\n      mstore\n        /* \"#utility.yul\":5194:5325   */\n      tag_160\n        /* \"#utility.yul\":5320:5324   */\n      dup2\n        /* \"#utility.yul\":5194:5325   */\n      tag_92\n      jump\t// in\n    tag_160:\n        /* \"#utility.yul\":5186:5325   */\n      swap1\n      pop\n        /* \"#utility.yul\":4913:5332   */\n      swap2\n      swap1\n      pop\n      jump\t// out\n        /* \"#utility.yul\":5338:5485   */\n    tag_93:\n        /* \"#utility.yul\":5439:5450   */\n      0x00\n        /* \"#utility.yul\":5476:5479   */\n      dup2\n        /* \"#utility.yul\":5461:5479   */\n      swap1\n      pop\n        /* \"#utility.yul\":5338:5485   */\n      swap3\n      swap2\n      pop\n      pop\n      jump\t// out\n        /* \"#utility.yul\":5491:5671   */\n    tag_94:\n        /* \"#utility.yul\":5631:5663   */\n      0x4574686572207472616e736665726564207375636365737366756c6c79200000\n        /* \"#utility.yul\":5627:5628   */\n      0x00\n        /* \"#utility.yul\":5619:5625   */\n      dup3\n        /* \"#utility.yul\":5615:5629   */\n      add\n        /* \"#utility.yul\":5608:5664   */\n      mstore\n        /* \"#utility.yul\":5491:5671   */\n      pop\n      jump\t// out\n        /* \"#utility.yul\":5677:6077   */\n    tag_95:\n        /* \"#utility.yul\":5836:5839   */\n      0x00\n        /* \"#utility.yul\":5857:5941   */\n      tag_164\n        /* \"#utility.yul\":5938:5940   */\n      0x1e\n        /* \"#utility.yul\":5933:5936   */\n      dup4\n        /* \"#utility.yul\":5857:5941   */\n      tag_93\n      jump\t// in\n    tag_164:\n        /* \"#utility.yul\":5850:5941   */\n      swap2\n      pop\n        /* \"#utility.yul\":5950:6043   */\n      tag_165\n        /* \"#utility.yul\":6039:6042   */\n      dup3\n        /* \"#utility.yul\":5950:6043   */\n      tag_94\n      jump\t// in\n    tag_165:\n        /* \"#utility.yul\":6068:6070   */\n      0x1e\n        /* \"#utility.yul\":6063:6066   */\n      dup3\n        /* \"#utility.yul\":6059:6071   */\n      add\n        /* \"#utility.yul\":6052:6071   */\n      swap1\n      pop\n        /* \"#utility.yul\":5677:6077   */\n      swap2\n      swap1\n      pop\n      jump\t// out\n        /* \"#utility.yul\":6083:6462   */\n    tag_45:\n        /* \"#utility.yul\":6267:6270   */\n      0x00\n        /* \"#utility.yul\":6289:6436   */\n      tag_167\n        /* \"#utility.yul\":6432:6435   */\n      dup3\n        /* \"#utility.yul\":6289:6436   */\n      tag_95\n      jump\t// in\n    tag_167:\n        /* \"#utility.yul\":6282:6436   */\n      swap2\n      pop\n        /* \"#utility.yul\":6453:6456   */\n      dup2\n        /* \"#utility.yul\":6446:6456   */\n      swap1\n      pop\n        /* \"#utility.yul\":6083:6462   */\n      swap2\n      swap1\n      pop\n      jump\t// out\n        /* \"#utility.yul\":6468:6639   */\n    tag_96:\n        /* \"#utility.yul\":6608:6631   */\n      0x4574686572207472616e73666572206661696c65640000000000000000000000\n        /* \"#utility.yul\":6604:6605   */\n      0x00\n        /* \"#utility.yul\":6596:6602   */\n      dup3\n        /* \"#utility.yul\":6592:6606   */\n      add\n        /* \"#utility.yul\":6585:6632   */\n      mstore\n        /* \"#utility.yul\":6468:6639   */\n      pop\n      jump\t// out\n        /* \"#utility.yul\":6645:7011   */\n    tag_97:\n        /* \"#utility.yul\":6787:6790   */\n      0x00\n        /* \"#utility.yul\":6808:6875   */\n      tag_170\n        /* \"#utility.yul\":6872:6874   */\n      0x15\n        /* \"#utility.yul\":6867:6870   */\n      dup4\n        /* \"#utility.yul\":6808:6875   */\n      tag_88\n      jump\t// in\n    tag_170:\n        /* \"#utility.yul\":6801:6875   */\n      swap2\n      pop\n        /* \"#utility.yul\":6884:6977   */\n      tag_171\n        /* \"#utility.yul\":6973:6976   */\n      dup3\n        /* \"#utility.yul\":6884:6977   */\n      tag_96\n      jump\t// in\n    tag_171:\n        /* \"#utility.yul\":7002:7004   */\n      0x20\n        /* \"#utility.yul\":6997:7000   */\n      dup3\n        /* \"#utility.yul\":6993:7005   */\n      add\n        /* \"#utility.yul\":6986:7005   */\n      swap1\n      pop\n        /* \"#utility.yul\":6645:7011   */\n      swap2\n      swap1\n      pop\n      jump\t// out\n        /* \"#utility.yul\":7017:7436   */\n    tag_51:\n        /* \"#utility.yul\":7183:7187   */\n      0x00\n        /* \"#utility.yul\":7221:7223   */\n      0x20\n        /* \"#utility.yul\":7210:7219   */\n      dup3\n        /* \"#utility.yul\":7206:7224   */\n      add\n        /* \"#utility.yul\":7198:7224   */\n      swap1\n      pop\n        /* \"#utility.yul\":7270:7279   */\n      dup2\n        /* \"#utility.yul\":7264:7268   */\n      dup2\n        /* \"#utility.yul\":7260:7280   */\n      sub\n        /* \"#utility.yul\":7256:7257   */\n      0x00\n        /* \"#utility.yul\":7245:7254   */\n      dup4\n        /* \"#utility.yul\":7241:7258   */\n      add\n        /* \"#utility.yul\":7234:7281   */\n      mstore\n        /* \"#utility.yul\":7298:7429   */\n      tag_173\n        /* \"#utility.yul\":7424:7428   */\n      dup2\n        /* \"#utility.yul\":7298:7429   */\n      tag_97\n      jump\t// in\n    tag_173:\n        /* \"#utility.yul\":7290:7429   */\n      swap1\n      pop\n        /* \"#utility.yul\":7017:7436   */\n      swap2\n      swap1\n      pop\n      jump\t// out\n        /* \"#utility.yul\":7442:7662   */\n    tag_98:\n        /* \"#utility.yul\":7582:7616   */\n      0x4f6e6c79206f776e65722063616e2063616c6c20746869732066756e6374696f\n        /* \"#utility.yul\":7578:7579   */\n      0x00\n        /* \"#utility.yul\":7570:7576   */\n      dup3\n        /* \"#utility.yul\":7566:7580   */\n      add\n        /* \"#utility.yul\":7559:7617   */\n      mstore\n        /* \"#utility.yul\":7651:7654   */\n      0x6e00000000000000000000000000000000000000000000000000000000000000\n        /* \"#utility.yul\":7646:7648   */\n      0x20\n        /* \"#utility.yul\":7638:7644   */\n      dup3\n        /* \"#utility.yul\":7634:7649   */\n      add\n        /* \"#utility.yul\":7627:7655   */\n      mstore\n        /* \"#utility.yul\":7442:7662   */\n      pop\n      jump\t// out\n        /* \"#utility.yul\":7668:8034   */\n    tag_99:\n        /* \"#utility.yul\":7810:7813   */\n      0x00\n        /* \"#utility.yul\":7831:7898   */\n      tag_176\n        /* \"#utility.yul\":7895:7897   */\n      0x21\n        /* \"#utility.yul\":7890:7893   */\n      dup4\n        /* \"#utility.yul\":7831:7898   */\n      tag_88\n      jump\t// in\n    tag_176:\n        /* \"#utility.yul\":7824:7898   */\n      swap2\n      pop\n        /* \"#utility.yul\":7907:8000   */\n      tag_177\n        /* \"#utility.yul\":7996:7999   */\n      dup3\n        /* \"#utility.yul\":7907:8000   */\n      tag_98\n      jump\t// in\n    tag_177:\n        /* \"#utility.yul\":8025:8027   */\n      0x40\n        /* \"#utility.yul\":8020:8023   */\n      dup3\n        /* \"#utility.yul\":8016:8028   */\n      add\n        /* \"#utility.yul\":8009:8028   */\n      swap1\n      pop\n        /* \"#utility.yul\":7668:8034   */\n      swap2\n      swap1\n      pop\n      jump\t// out\n        /* \"#utility.yul\":8040:8459   */\n    tag_55:\n        /* \"#utility.yul\":8206:8210   */\n      0x00\n        /* \"#utility.yul\":8244:8246   */\n      0x20\n        /* \"#utility.yul\":8233:8242   */\n      dup3\n        /* \"#utility.yul\":8229:8247   */\n      add\n        /* \"#utility.yul\":8221:8247   */\n      swap1\n      pop\n        /* \"#utility.yul\":8293:8302   */\n      dup2\n        /* \"#utility.yul\":8287:8291   */\n      dup2\n        /* \"#utility.yul\":8283:8303   */\n      sub\n        /* \"#utility.yul\":8279:8280   */\n      0x00\n        /* \"#utility.yul\":8268:8277   */\n      dup4\n        /* \"#utility.yul\":8264:8281   */\n      add\n        /* \"#utility.yul\":8257:8304   */\n      mstore\n        /* \"#utility.yul\":8321:8452   */\n      tag_179\n        /* \"#utility.yul\":8447:8451   */\n      dup2\n        /* \"#utility.yul\":8321:8452   */\n      tag_99\n      jump\t// in\n    tag_179:\n        /* \"#utility.yul\":8313:8452   */\n      swap1\n      pop\n        /* \"#utility.yul\":8040:8459   */\n      swap2\n      swap1\n      pop\n      jump\t// out\n        /* \"#utility.yul\":8465:8633   */\n    tag_100:\n        /* \"#utility.yul\":8605:8625   */\n      0x4e6f2066756e647320617661696c61626c650000000000000000000000000000\n        /* \"#utility.yul\":8601:8602   */\n      0x00\n        /* \"#utility.yul\":8593:8599   */\n      dup3\n        /* \"#utility.yul\":8589:8603   */\n      add\n        /* \"#utility.yul\":8582:8626   */\n      mstore\n        /* \"#utility.yul\":8465:8633   */\n      pop\n      jump\t// out\n        /* \"#utility.yul\":8639:9005   */\n    tag_101:\n        /* \"#utility.yul\":8781:8784   */\n      0x00\n        /* \"#utility.yul\":8802:8869   */\n      tag_182\n        /* \"#utility.yul\":8866:8868   */\n      0x12\n        /* \"#utility.yul\":8861:8864   */\n      dup4\n        /* \"#utility.yul\":8802:8869   */\n      tag_88\n      jump\t// in\n    tag_182:\n        /* \"#utility.yul\":8795:8869   */\n      swap2\n      pop\n        /* \"#utility.yul\":8878:8971   */\n      tag_183\n        /* \"#utility.yul\":8967:8970   */\n      dup3\n        /* \"#utility.yul\":8878:8971   */\n      tag_100\n      jump\t// in\n    tag_183:\n        /* \"#utility.yul\":8996:8998   */\n      0x20\n        /* \"#utility.yul\":8991:8994   */\n      dup3\n        /* \"#utility.yul\":8987:8999   */\n      add\n        /* \"#utility.yul\":8980:8999   */\n      swap1\n      pop\n        /* \"#utility.yul\":8639:9005   */\n      swap2\n      swap1\n      pop\n      jump\t// out\n        /* \"#utility.yul\":9011:9430   */\n    tag_59:\n        /* \"#utility.yul\":9177:9181   */\n      0x00\n        /* \"#utility.yul\":9215:9217   */\n      0x20\n        /* \"#utility.yul\":9204:9213   */\n      dup3\n        /* \"#utility.yul\":9200:9218   */\n      add\n        /* \"#utility.yul\":9192:9218   */\n      swap1\n      pop\n        /* \"#utility.yul\":9264:9273   */\n      dup2\n        /* \"#utility.yul\":9258:9262   */\n      dup2\n        /* \"#utility.yul\":9254:9274   */\n      sub\n        /* \"#utility.yul\":9250:9251   */\n      0x00\n        /* \"#utility.yul\":9239:9248   */\n      dup4\n        /* \"#utility.yul\":9235:9252   */\n      add\n        /* \"#utility.yul\":9228:9275   */\n      mstore\n        /* \"#utility.yul\":9292:9423   */\n      tag_185\n        /* \"#utility.yul\":9418:9422   */\n      dup2\n        /* \"#utility.yul\":9292:9423   */\n      tag_101\n      jump\t// in\n    tag_185:\n        /* \"#utility.yul\":9284:9423   */\n      swap1\n      pop\n        /* \"#utility.yul\":9011:9430   */\n      swap2\n      swap1\n      pop\n      jump\t// out\n        /* \"#utility.yul\":9436:9550   */\n    tag_102:\n      pop\n      jump\t// out\n        /* \"#utility.yul\":9556:9954   */\n    tag_103:\n        /* \"#utility.yul\":9715:9718   */\n      0x00\n        /* \"#utility.yul\":9736:9819   */\n      tag_188\n        /* \"#utility.yul\":9817:9818   */\n      0x00\n        /* \"#utility.yul\":9812:9815   */\n      dup4\n        /* \"#utility.yul\":9736:9819   */\n      tag_93\n      jump\t// in\n    tag_188:\n        /* \"#utility.yul\":9729:9819   */\n      swap2\n      pop\n        /* \"#utility.yul\":9828:9921   */\n      tag_189\n        /* \"#utility.yul\":9917:9920   */\n      dup3\n        /* \"#utility.yul\":9828:9921   */\n      tag_102\n      jump\t// in\n    tag_189:\n        /* \"#utility.yul\":9946:9947   */\n      0x00\n        /* \"#utility.yul\":9941:9944   */\n      dup3\n        /* \"#utility.yul\":9937:9948   */\n      add\n        /* \"#utility.yul\":9930:9948   */\n      swap1\n      pop\n        /* \"#utility.yul\":9556:9954   */\n      swap2\n      swap1\n      pop\n      jump\t// out\n        /* \"#utility.yul\":9960:10339   */\n    tag_61:\n        /* \"#utility.yul\":10144:10147   */\n      0x00\n        /* \"#utility.yul\":10166:10313   */\n      tag_191\n        /* \"#utility.yul\":10309:10312   */\n      dup3\n        /* \"#utility.yul\":10166:10313   */\n      tag_103\n      jump\t// in\n    tag_191:\n        /* \"#utility.yul\":10159:10313   */\n      swap2\n      pop\n        /* \"#utility.yul\":10330:10333   */\n      dup2\n        /* \"#utility.yul\":10323:10333   */\n      swap1\n      pop\n        /* \"#utility.yul\":9960:10339   */\n      swap2\n      swap1\n      pop\n      jump\t// out\n        /* \"#utility.yul\":10345:10515   */\n    tag_104:\n        /* \"#utility.yul\":10485:10507   */\n      0x4661696c656420746f2073656e64204574686572000000000000000000000000\n        /* \"#utility.yul\":10481:10482   */\n      0x00\n        /* \"#utility.yul\":10473:10479   */\n      dup3\n        /* \"#utility.yul\":10469:10483   */\n      add\n        /* \"#utility.yul\":10462:10508   */\n      mstore\n        /* \"#utility.yul\":10345:10515   */\n      pop\n      jump\t// out\n        /* \"#utility.yul\":10521:10887   */\n    tag_105:\n        /* \"#utility.yul\":10663:10666   */\n      0x00\n        /* \"#utility.yul\":10684:10751   */\n      tag_194\n        /* \"#utility.yul\":10748:10750   */\n      0x14\n        /* \"#utility.yul\":10743:10746   */\n      dup4\n        /* \"#utility.yul\":10684:10751   */\n      tag_88\n      jump\t// in\n    tag_194:\n        /* \"#utility.yul\":10677:10751   */\n      swap2\n      pop\n        /* \"#utility.yul\":10760:10853   */\n      tag_195\n        /* \"#utility.yul\":10849:10852   */\n      dup3\n        /* \"#utility.yul\":10760:10853   */\n      tag_104\n      jump\t// in\n    tag_195:\n        /* \"#utility.yul\":10878:10880   */\n      0x20\n        /* \"#utility.yul\":10873:10876   */\n      dup3\n        /* \"#utility.yul\":10869:10881   */\n      add\n        /* \"#utility.yul\":10862:10881   */\n      swap1\n      pop\n        /* \"#utility.yul\":10521:10887   */\n      swap2\n      swap1\n      pop\n      jump\t// out\n        /* \"#utility.yul\":10893:11312   */\n    tag_67:\n        /* \"#utility.yul\":11059:11063   */\n      0x00\n        /* \"#utility.yul\":11097:11099   */\n      0x20\n        /* \"#utility.yul\":11086:11095   */\n      dup3\n        /* \"#utility.yul\":11082:11100   */\n      add\n        /* \"#utility.yul\":11074:11100   */\n      swap1\n      pop\n        /* \"#utility.yul\":11146:11155   */\n      dup2\n        /* \"#utility.yul\":11140:11144   */\n      dup2\n        /* \"#utility.yul\":11136:11156   */\n      sub\n        /* \"#utility.yul\":11132:11133   */\n      0x00\n        /* \"#utility.yul\":11121:11130   */\n      dup4\n        /* \"#utility.yul\":11117:11134   */\n      add\n        /* \"#utility.yul\":11110:11157   */\n      mstore\n        /* \"#utility.yul\":11174:11305   */\n      tag_197\n        /* \"#utility.yul\":11300:11304   */\n      dup2\n        /* \"#utility.yul\":11174:11305   */\n      tag_105\n      jump\t// in\n    tag_197:\n        /* \"#utility.yul\":11166:11305   */\n      swap1\n      pop\n        /* \"#utility.yul\":10893:11312   */\n      swap2\n      swap1\n      pop\n      jump\t// out\n\n    auxdata: 0xa26469706673582212208999bf2bf378430ee7970930fb00d348ab4ec02730c756c7e06ea75b9091315c64736f6c634300081a0033\n}\n",
				"bytecode": {
					"linkReferences": {},
					"object": "6080604052335f806101000a81548173ffffffffffffffffffffffffffffffffffffffff021916908373ffffffffffffffffffffffffffffffffffffffff1602179055506109f7806100505f395ff3fe608060405260043610610058575f3560e01c80630115c3dc1461006357806305b1137b1461008b5780633ccfd60b146100b35780636f9fb98a146100c95780638da5cb5b146100f3578063d0e30db01461011d5761005f565b3661005f57005b5f80fd5b34801561006e575f80fd5b5061008960048036038101906100849190610555565b610127565b005b348015610096575f80fd5b506100b160048036038101906100ac91906105ee565b610140565b005b3480156100be575f80fd5b506100c761029e565b005b3480156100d4575f80fd5b506100dd61043d565b6040516100ea919061063b565b60405180910390f35b3480156100fe575f80fd5b506101076104d2565b6040516101149190610663565b60405180910390f35b6101256104f5565b005b8073ffffffffffffffffffffffffffffffffffffffff16ff5b80471015610183576040517f08c379a000000000000000000000000000000000000000000000000000000000815260040161017a906106d6565b60405180910390fd5b5f73ffffffffffffffffffffffffffffffffffffffff168273ffffffffffffffffffffffffffffffffffffffff16036101f1576040517f08c379a00000000000000000000000000000000000000000000000000000000081526004016101e89061073e565b60405180910390fd5b5f8273ffffffffffffffffffffffffffffffffffffffff1682604051610216906107b0565b5f6040518083038185875af1925050503d805f8114610250576040519150601f19603f3d011682016040523d82523d5f602084013e610255565b606091505b5050905080610299576040517f08c379a00000000000000000000000000000000000000000000000000000000081526004016102909061080e565b60405180910390fd5b505050565b5f8054906101000a900473ffffffffffffffffffffffffffffffffffffffff1673ffffffffffffffffffffffffffffffffffffffff163373ffffffffffffffffffffffffffffffffffffffff161461032b576040517f08c379a00000000000000000000000000000000000000000000000000000000081526004016103229061089c565b60405180910390fd5b5f4790505f8111610371576040517f08c379a000000000000000000000000000000000000000000000000000000000815260040161036890610904565b60405180910390fd5b5f805f9054906101000a900473ffffffffffffffffffffffffffffffffffffffff1673ffffffffffffffffffffffffffffffffffffffff16826040516103b690610945565b5f6040518083038185875af1925050503d805f81146103f0576040519150601f19603f3d011682016040523d82523d5f602084013e6103f5565b606091505b5050905080610439576040517f08c379a0000000000000000000000000000000000000000000000000000000008152600401610430906109a3565b60405180910390fd5b5050565b5f805f9054906101000a900473ffffffffffffffffffffffffffffffffffffffff1673ffffffffffffffffffffffffffffffffffffffff163373ffffffffffffffffffffffffffffffffffffffff16146104cc576040517f08c379a00000000000000000000000000000000000000000000000000000000081526004016104c39061089c565b60405180910390fd5b47905090565b5f8054906101000a900473ffffffffffffffffffffffffffffffffffffffff1681565b565b5f80fd5b5f73ffffffffffffffffffffffffffffffffffffffff82169050919050565b5f610524826104fb565b9050919050565b6105348161051a565b811461053e575f80fd5b50565b5f8135905061054f8161052b565b92915050565b5f6020828403121561056a576105696104f7565b5b5f61057784828501610541565b91505092915050565b5f61058a826104fb565b9050919050565b61059a81610580565b81146105a4575f80fd5b50565b5f813590506105b581610591565b92915050565b5f819050919050565b6105cd816105bb565b81146105d7575f80fd5b50565b5f813590506105e8816105c4565b92915050565b5f8060408385031215610604576106036104f7565b5b5f610611858286016105a7565b9250506020610622858286016105da565b9150509250929050565b610635816105bb565b82525050565b5f60208201905061064e5f83018461062c565b92915050565b61065d81610580565b82525050565b5f6020820190506106765f830184610654565b92915050565b5f82825260208201905092915050565b7f496e73756666696369656e7420636f6e74726163742062616c616e63650000005f82015250565b5f6106c0601d8361067c565b91506106cb8261068c565b602082019050919050565b5f6020820190508181035f8301526106ed816106b4565b9050919050565b7f496e76616c696420726563697069656e742061646472657373000000000000005f82015250565b5f61072860198361067c565b9150610733826106f4565b602082019050919050565b5f6020820190508181035f8301526107558161071c565b9050919050565b5f81905092915050565b7f4574686572207472616e736665726564207375636365737366756c6c792000005f82015250565b5f61079a601e8361075c565b91506107a582610766565b601e82019050919050565b5f6107ba8261078e565b9150819050919050565b7f4574686572207472616e73666572206661696c656400000000000000000000005f82015250565b5f6107f860158361067c565b9150610803826107c4565b602082019050919050565b5f6020820190508181035f830152610825816107ec565b9050919050565b7f4f6e6c79206f776e65722063616e2063616c6c20746869732066756e6374696f5f8201527f6e00000000000000000000000000000000000000000000000000000000000000602082015250565b5f61088660218361067c565b91506108918261082c565b604082019050919050565b5f6020820190508181035f8301526108b38161087a565b9050919050565b7f4e6f2066756e647320617661696c61626c6500000000000000000000000000005f82015250565b5f6108ee60128361067c565b91506108f9826108ba565b602082019050919050565b5f6020820190508181035f83015261091b816108e2565b9050919050565b50565b5f6109305f8361075c565b915061093b82610922565b5f82019050919050565b5f61094f82610925565b9150819050919050565b7f4661696c656420746f2073656e642045746865720000000000000000000000005f82015250565b5f61098d60148361067c565b915061099882610959565b602082019050919050565b5f6020820190508181035f8301526109ba81610981565b905091905056fea26469706673582212208999bf2bf378430ee7970930fb00d348ab4ec02730c756c7e06ea75b9091315c64736f6c634300081a0033",
					"opcodes": "PUSH1 0x80 PUSH1 0x40 MSTORE CALLER PUSH0 DUP1 PUSH2 0x100 EXP DUP2 SLOAD DUP2 PUSH20 0xFFFFFFFFFFFFFFFFFFFFFFFFFFFFFFFFFFFFFFFF MUL NOT AND SWAP1 DUP4 PUSH20 0xFFFFFFFFFFFFFFFFFFFFFFFFFFFFFFFFFFFFFFFF AND MUL OR SWAP1 SSTORE POP PUSH2 0x9F7 DUP1 PUSH2 0x50 PUSH0 CODECOPY PUSH0 RETURN INVALID PUSH1 0x80 PUSH1 0x40 MSTORE PUSH1 0x4 CALLDATASIZE LT PUSH2 0x58 JUMPI PUSH0 CALLDATALOAD PUSH1 0xE0 SHR DUP1 PUSH4 0x115C3DC EQ PUSH2 0x63 JUMPI DUP1 PUSH4 0x5B1137B EQ PUSH2 0x8B JUMPI DUP1 PUSH4 0x3CCFD60B EQ PUSH2 0xB3 JUMPI DUP1 PUSH4 0x6F9FB98A EQ PUSH2 0xC9 JUMPI DUP1 PUSH4 0x8DA5CB5B EQ PUSH2 0xF3 JUMPI DUP1 PUSH4 0xD0E30DB0 EQ PUSH2 0x11D JUMPI PUSH2 0x5F JUMP JUMPDEST CALLDATASIZE PUSH2 0x5F JUMPI STOP JUMPDEST PUSH0 DUP1 REVERT JUMPDEST CALLVALUE DUP1 ISZERO PUSH2 0x6E JUMPI PUSH0 DUP1 REVERT JUMPDEST POP PUSH2 0x89 PUSH1 0x4 DUP1 CALLDATASIZE SUB DUP2 ADD SWAP1 PUSH2 0x84 SWAP2 SWAP1 PUSH2 0x555 JUMP JUMPDEST PUSH2 0x127 JUMP JUMPDEST STOP JUMPDEST CALLVALUE DUP1 ISZERO PUSH2 0x96 JUMPI PUSH0 DUP1 REVERT JUMPDEST POP PUSH2 0xB1 PUSH1 0x4 DUP1 CALLDATASIZE SUB DUP2 ADD SWAP1 PUSH2 0xAC SWAP2 SWAP1 PUSH2 0x5EE JUMP JUMPDEST PUSH2 0x140 JUMP JUMPDEST STOP JUMPDEST CALLVALUE DUP1 ISZERO PUSH2 0xBE JUMPI PUSH0 DUP1 REVERT JUMPDEST POP PUSH2 0xC7 PUSH2 0x29E JUMP JUMPDEST STOP JUMPDEST CALLVALUE DUP1 ISZERO PUSH2 0xD4 JUMPI PUSH0 DUP1 REVERT JUMPDEST POP PUSH2 0xDD PUSH2 0x43D JUMP JUMPDEST PUSH1 0x40 MLOAD PUSH2 0xEA SWAP2 SWAP1 PUSH2 0x63B JUMP JUMPDEST PUSH1 0x40 MLOAD DUP1 SWAP2 SUB SWAP1 RETURN JUMPDEST CALLVALUE DUP1 ISZERO PUSH2 0xFE JUMPI PUSH0 DUP1 REVERT JUMPDEST POP PUSH2 0x107 PUSH2 0x4D2 JUMP JUMPDEST PUSH1 0x40 MLOAD PUSH2 0x114 SWAP2 SWAP1 PUSH2 0x663 JUMP JUMPDEST PUSH1 0x40 MLOAD DUP1 SWAP2 SUB SWAP1 RETURN JUMPDEST PUSH2 0x125 PUSH2 0x4F5 JUMP JUMPDEST STOP JUMPDEST DUP1 PUSH20 0xFFFFFFFFFFFFFFFFFFFFFFFFFFFFFFFFFFFFFFFF AND SELFDESTRUCT JUMPDEST DUP1 SELFBALANCE LT ISZERO PUSH2 0x183 JUMPI PUSH1 0x40 MLOAD PUSH32 0x8C379A000000000000000000000000000000000000000000000000000000000 DUP2 MSTORE PUSH1 0x4 ADD PUSH2 0x17A SWAP1 PUSH2 0x6D6 JUMP JUMPDEST PUSH1 0x40 MLOAD DUP1 SWAP2 SUB SWAP1 REVERT JUMPDEST PUSH0 PUSH20 0xFFFFFFFFFFFFFFFFFFFFFFFFFFFFFFFFFFFFFFFF AND DUP3 PUSH20 0xFFFFFFFFFFFFFFFFFFFFFFFFFFFFFFFFFFFFFFFF AND SUB PUSH2 0x1F1 JUMPI PUSH1 0x40 MLOAD PUSH32 0x8C379A000000000000000000000000000000000000000000000000000000000 DUP2 MSTORE PUSH1 0x4 ADD PUSH2 0x1E8 SWAP1 PUSH2 0x73E JUMP JUMPDEST PUSH1 0x40 MLOAD DUP1 SWAP2 SUB SWAP1 REVERT JUMPDEST PUSH0 DUP3 PUSH20 0xFFFFFFFFFFFFFFFFFFFFFFFFFFFFFFFFFFFFFFFF AND DUP3 PUSH1 0x40 MLOAD PUSH2 0x216 SWAP1 PUSH2 0x7B0 JUMP JUMPDEST PUSH0 PUSH1 0x40 MLOAD DUP1 DUP4 SUB DUP2 DUP6 DUP8 GAS CALL SWAP3 POP POP POP RETURNDATASIZE DUP1 PUSH0 DUP2 EQ PUSH2 0x250 JUMPI PUSH1 0x40 MLOAD SWAP2 POP PUSH1 0x1F NOT PUSH1 0x3F RETURNDATASIZE ADD AND DUP3 ADD PUSH1 0x40 MSTORE RETURNDATASIZE DUP3 MSTORE RETURNDATASIZE PUSH0 PUSH1 0x20 DUP5 ADD RETURNDATACOPY PUSH2 0x255 JUMP JUMPDEST PUSH1 0x60 SWAP2 POP JUMPDEST POP POP SWAP1 POP DUP1 PUSH2 0x299 JUMPI PUSH1 0x40 MLOAD PUSH32 0x8C379A000000000000000000000000000000000000000000000000000000000 DUP2 MSTORE PUSH1 0x4 ADD PUSH2 0x290 SWAP1 PUSH2 0x80E JUMP JUMPDEST PUSH1 0x40 MLOAD DUP1 SWAP2 SUB SWAP1 REVERT JUMPDEST POP POP POP JUMP JUMPDEST PUSH0 DUP1 SLOAD SWAP1 PUSH2 0x100 EXP SWAP1 DIV PUSH20 0xFFFFFFFFFFFFFFFFFFFFFFFFFFFFFFFFFFFFFFFF AND PUSH20 0xFFFFFFFFFFFFFFFFFFFFFFFFFFFFFFFFFFFFFFFF AND CALLER PUSH20 0xFFFFFFFFFFFFFFFFFFFFFFFFFFFFFFFFFFFFFFFF AND EQ PUSH2 0x32B JUMPI PUSH1 0x40 MLOAD PUSH32 0x8C379A000000000000000000000000000000000000000000000000000000000 DUP2 MSTORE PUSH1 0x4 ADD PUSH2 0x322 SWAP1 PUSH2 0x89C JUMP JUMPDEST PUSH1 0x40 MLOAD DUP1 SWAP2 SUB SWAP1 REVERT JUMPDEST PUSH0 SELFBALANCE SWAP1 POP PUSH0 DUP2 GT PUSH2 0x371 JUMPI PUSH1 0x40 MLOAD PUSH32 0x8C379A000000000000000000000000000000000000000000000000000000000 DUP2 MSTORE PUSH1 0x4 ADD PUSH2 0x368 SWAP1 PUSH2 0x904 JUMP JUMPDEST PUSH1 0x40 MLOAD DUP1 SWAP2 SUB SWAP1 REVERT JUMPDEST PUSH0 DUP1 PUSH0 SWAP1 SLOAD SWAP1 PUSH2 0x100 EXP SWAP1 DIV PUSH20 0xFFFFFFFFFFFFFFFFFFFFFFFFFFFFFFFFFFFFFFFF AND PUSH20 0xFFFFFFFFFFFFFFFFFFFFFFFFFFFFFFFFFFFFFFFF AND DUP3 PUSH1 0x40 MLOAD PUSH2 0x3B6 SWAP1 PUSH2 0x945 JUMP JUMPDEST PUSH0 PUSH1 0x40 MLOAD DUP1 DUP4 SUB DUP2 DUP6 DUP8 GAS CALL SWAP3 POP POP POP RETURNDATASIZE DUP1 PUSH0 DUP2 EQ PUSH2 0x3F0 JUMPI PUSH1 0x40 MLOAD SWAP2 POP PUSH1 0x1F NOT PUSH1 0x3F RETURNDATASIZE ADD AND DUP3 ADD PUSH1 0x40 MSTORE RETURNDATASIZE DUP3 MSTORE RETURNDATASIZE PUSH0 PUSH1 0x20 DUP5 ADD RETURNDATACOPY PUSH2 0x3F5 JUMP JUMPDEST PUSH1 0x60 SWAP2 POP JUMPDEST POP POP SWAP1 POP DUP1 PUSH2 0x439 JUMPI PUSH1 0x40 MLOAD PUSH32 0x8C379A000000000000000000000000000000000000000000000000000000000 DUP2 MSTORE PUSH1 0x4 ADD PUSH2 0x430 SWAP1 PUSH2 0x9A3 JUMP JUMPDEST PUSH1 0x40 MLOAD DUP1 SWAP2 SUB SWAP1 REVERT JUMPDEST POP POP JUMP JUMPDEST PUSH0 DUP1 PUSH0 SWAP1 SLOAD SWAP1 PUSH2 0x100 EXP SWAP1 DIV PUSH20 0xFFFFFFFFFFFFFFFFFFFFFFFFFFFFFFFFFFFFFFFF AND PUSH20 0xFFFFFFFFFFFFFFFFFFFFFFFFFFFFFFFFFFFFFFFF AND CALLER PUSH20 0xFFFFFFFFFFFFFFFFFFFFFFFFFFFFFFFFFFFFFFFF AND EQ PUSH2 0x4CC JUMPI PUSH1 0x40 MLOAD PUSH32 0x8C379A000000000000000000000000000000000000000000000000000000000 DUP2 MSTORE PUSH1 0x4 ADD PUSH2 0x4C3 SWAP1 PUSH2 0x89C JUMP JUMPDEST PUSH1 0x40 MLOAD DUP1 SWAP2 SUB SWAP1 REVERT JUMPDEST SELFBALANCE SWAP1 POP SWAP1 JUMP JUMPDEST PUSH0 DUP1 SLOAD SWAP1 PUSH2 0x100 EXP SWAP1 DIV PUSH20 0xFFFFFFFFFFFFFFFFFFFFFFFFFFFFFFFFFFFFFFFF AND DUP2 JUMP JUMPDEST JUMP JUMPDEST PUSH0 DUP1 REVERT JUMPDEST PUSH0 PUSH20 0xFFFFFFFFFFFFFFFFFFFFFFFFFFFFFFFFFFFFFFFF DUP3 AND SWAP1 POP SWAP2 SWAP1 POP JUMP JUMPDEST PUSH0 PUSH2 0x524 DUP3 PUSH2 0x4FB JUMP JUMPDEST SWAP1 POP SWAP2 SWAP1 POP JUMP JUMPDEST PUSH2 0x534 DUP2 PUSH2 0x51A JUMP JUMPDEST DUP2 EQ PUSH2 0x53E JUMPI PUSH0 DUP1 REVERT JUMPDEST POP JUMP JUMPDEST PUSH0 DUP2 CALLDATALOAD SWAP1 POP PUSH2 0x54F DUP2 PUSH2 0x52B JUMP JUMPDEST SWAP3 SWAP2 POP POP JUMP JUMPDEST PUSH0 PUSH1 0x20 DUP3 DUP5 SUB SLT ISZERO PUSH2 0x56A JUMPI PUSH2 0x569 PUSH2 0x4F7 JUMP JUMPDEST JUMPDEST PUSH0 PUSH2 0x577 DUP5 DUP3 DUP6 ADD PUSH2 0x541 JUMP JUMPDEST SWAP2 POP POP SWAP3 SWAP2 POP POP JUMP JUMPDEST PUSH0 PUSH2 0x58A DUP3 PUSH2 0x4FB JUMP JUMPDEST SWAP1 POP SWAP2 SWAP1 POP JUMP JUMPDEST PUSH2 0x59A DUP2 PUSH2 0x580 JUMP JUMPDEST DUP2 EQ PUSH2 0x5A4 JUMPI PUSH0 DUP1 REVERT JUMPDEST POP JUMP JUMPDEST PUSH0 DUP2 CALLDATALOAD SWAP1 POP PUSH2 0x5B5 DUP2 PUSH2 0x591 JUMP JUMPDEST SWAP3 SWAP2 POP POP JUMP JUMPDEST PUSH0 DUP2 SWAP1 POP SWAP2 SWAP1 POP JUMP JUMPDEST PUSH2 0x5CD DUP2 PUSH2 0x5BB JUMP JUMPDEST DUP2 EQ PUSH2 0x5D7 JUMPI PUSH0 DUP1 REVERT JUMPDEST POP JUMP JUMPDEST PUSH0 DUP2 CALLDATALOAD SWAP1 POP PUSH2 0x5E8 DUP2 PUSH2 0x5C4 JUMP JUMPDEST SWAP3 SWAP2 POP POP JUMP JUMPDEST PUSH0 DUP1 PUSH1 0x40 DUP4 DUP6 SUB SLT ISZERO PUSH2 0x604 JUMPI PUSH2 0x603 PUSH2 0x4F7 JUMP JUMPDEST JUMPDEST PUSH0 PUSH2 0x611 DUP6 DUP3 DUP7 ADD PUSH2 0x5A7 JUMP JUMPDEST SWAP3 POP POP PUSH1 0x20 PUSH2 0x622 DUP6 DUP3 DUP7 ADD PUSH2 0x5DA JUMP JUMPDEST SWAP2 POP POP SWAP3 POP SWAP3 SWAP1 POP JUMP JUMPDEST PUSH2 0x635 DUP2 PUSH2 0x5BB JUMP JUMPDEST DUP3 MSTORE POP POP JUMP JUMPDEST PUSH0 PUSH1 0x20 DUP3 ADD SWAP1 POP PUSH2 0x64E PUSH0 DUP4 ADD DUP5 PUSH2 0x62C JUMP JUMPDEST SWAP3 SWAP2 POP POP JUMP JUMPDEST PUSH2 0x65D DUP2 PUSH2 0x580 JUMP JUMPDEST DUP3 MSTORE POP POP JUMP JUMPDEST PUSH0 PUSH1 0x20 DUP3 ADD SWAP1 POP PUSH2 0x676 PUSH0 DUP4 ADD DUP5 PUSH2 0x654 JUMP JUMPDEST SWAP3 SWAP2 POP POP JUMP JUMPDEST PUSH0 DUP3 DUP3 MSTORE PUSH1 0x20 DUP3 ADD SWAP1 POP SWAP3 SWAP2 POP POP JUMP JUMPDEST PUSH32 0x496E73756666696369656E7420636F6E74726163742062616C616E6365000000 PUSH0 DUP3 ADD MSTORE POP JUMP JUMPDEST PUSH0 PUSH2 0x6C0 PUSH1 0x1D DUP4 PUSH2 0x67C JUMP JUMPDEST SWAP2 POP PUSH2 0x6CB DUP3 PUSH2 0x68C JUMP JUMPDEST PUSH1 0x20 DUP3 ADD SWAP1 POP SWAP2 SWAP1 POP JUMP JUMPDEST PUSH0 PUSH1 0x20 DUP3 ADD SWAP1 POP DUP2 DUP2 SUB PUSH0 DUP4 ADD MSTORE PUSH2 0x6ED DUP2 PUSH2 0x6B4 JUMP JUMPDEST SWAP1 POP SWAP2 SWAP1 POP JUMP JUMPDEST PUSH32 0x496E76616C696420726563697069656E74206164647265737300000000000000 PUSH0 DUP3 ADD MSTORE POP JUMP JUMPDEST PUSH0 PUSH2 0x728 PUSH1 0x19 DUP4 PUSH2 0x67C JUMP JUMPDEST SWAP2 POP PUSH2 0x733 DUP3 PUSH2 0x6F4 JUMP JUMPDEST PUSH1 0x20 DUP3 ADD SWAP1 POP SWAP2 SWAP1 POP JUMP JUMPDEST PUSH0 PUSH1 0x20 DUP3 ADD SWAP1 POP DUP2 DUP2 SUB PUSH0 DUP4 ADD MSTORE PUSH2 0x755 DUP2 PUSH2 0x71C JUMP JUMPDEST SWAP1 POP SWAP2 SWAP1 POP JUMP JUMPDEST PUSH0 DUP2 SWAP1 POP SWAP3 SWAP2 POP POP JUMP JUMPDEST PUSH32 0x4574686572207472616E736665726564207375636365737366756C6C79200000 PUSH0 DUP3 ADD MSTORE POP JUMP JUMPDEST PUSH0 PUSH2 0x79A PUSH1 0x1E DUP4 PUSH2 0x75C JUMP JUMPDEST SWAP2 POP PUSH2 0x7A5 DUP3 PUSH2 0x766 JUMP JUMPDEST PUSH1 0x1E DUP3 ADD SWAP1 POP SWAP2 SWAP1 POP JUMP JUMPDEST PUSH0 PUSH2 0x7BA DUP3 PUSH2 0x78E JUMP JUMPDEST SWAP2 POP DUP2 SWAP1 POP SWAP2 SWAP1 POP JUMP JUMPDEST PUSH32 0x4574686572207472616E73666572206661696C65640000000000000000000000 PUSH0 DUP3 ADD MSTORE POP JUMP JUMPDEST PUSH0 PUSH2 0x7F8 PUSH1 0x15 DUP4 PUSH2 0x67C JUMP JUMPDEST SWAP2 POP PUSH2 0x803 DUP3 PUSH2 0x7C4 JUMP JUMPDEST PUSH1 0x20 DUP3 ADD SWAP1 POP SWAP2 SWAP1 POP JUMP JUMPDEST PUSH0 PUSH1 0x20 DUP3 ADD SWAP1 POP DUP2 DUP2 SUB PUSH0 DUP4 ADD MSTORE PUSH2 0x825 DUP2 PUSH2 0x7EC JUMP JUMPDEST SWAP1 POP SWAP2 SWAP1 POP JUMP JUMPDEST PUSH32 0x4F6E6C79206F776E65722063616E2063616C6C20746869732066756E6374696F PUSH0 DUP3 ADD MSTORE PUSH32 0x6E00000000000000000000000000000000000000000000000000000000000000 PUSH1 0x20 DUP3 ADD MSTORE POP JUMP JUMPDEST PUSH0 PUSH2 0x886 PUSH1 0x21 DUP4 PUSH2 0x67C JUMP JUMPDEST SWAP2 POP PUSH2 0x891 DUP3 PUSH2 0x82C JUMP JUMPDEST PUSH1 0x40 DUP3 ADD SWAP1 POP SWAP2 SWAP1 POP JUMP JUMPDEST PUSH0 PUSH1 0x20 DUP3 ADD SWAP1 POP DUP2 DUP2 SUB PUSH0 DUP4 ADD MSTORE PUSH2 0x8B3 DUP2 PUSH2 0x87A JUMP JUMPDEST SWAP1 POP SWAP2 SWAP1 POP JUMP JUMPDEST PUSH32 0x4E6F2066756E647320617661696C61626C650000000000000000000000000000 PUSH0 DUP3 ADD MSTORE POP JUMP JUMPDEST PUSH0 PUSH2 0x8EE PUSH1 0x12 DUP4 PUSH2 0x67C JUMP JUMPDEST SWAP2 POP PUSH2 0x8F9 DUP3 PUSH2 0x8BA JUMP JUMPDEST PUSH1 0x20 DUP3 ADD SWAP1 POP SWAP2 SWAP1 POP JUMP JUMPDEST PUSH0 PUSH1 0x20 DUP3 ADD SWAP1 POP DUP2 DUP2 SUB PUSH0 DUP4 ADD MSTORE PUSH2 0x91B DUP2 PUSH2 0x8E2 JUMP JUMPDEST SWAP1 POP SWAP2 SWAP1 POP JUMP JUMPDEST POP JUMP JUMPDEST PUSH0 PUSH2 0x930 PUSH0 DUP4 PUSH2 0x75C JUMP JUMPDEST SWAP2 POP PUSH2 0x93B DUP3 PUSH2 0x922 JUMP JUMPDEST PUSH0 DUP3 ADD SWAP1 POP SWAP2 SWAP1 POP JUMP JUMPDEST PUSH0 PUSH2 0x94F DUP3 PUSH2 0x925 JUMP JUMPDEST SWAP2 POP DUP2 SWAP1 POP SWAP2 SWAP1 POP JUMP JUMPDEST PUSH32 0x4661696C656420746F2073656E64204574686572000000000000000000000000 PUSH0 DUP3 ADD MSTORE POP JUMP JUMPDEST PUSH0 PUSH2 0x98D PUSH1 0x14 DUP4 PUSH2 0x67C JUMP JUMPDEST SWAP2 POP PUSH2 0x998 DUP3 PUSH2 0x959 JUMP JUMPDEST PUSH1 0x20 DUP3 ADD SWAP1 POP SWAP2 SWAP1 POP JUMP JUMPDEST PUSH0 PUSH1 0x20 DUP3 ADD SWAP1 POP DUP2 DUP2 SUB PUSH0 DUP4 ADD MSTORE PUSH2 0x9BA DUP2 PUSH2 0x981 JUMP JUMPDEST SWAP1 POP SWAP2 SWAP1 POP JUMP INVALID LOG2 PUSH5 0x6970667358 0x22 SLT KECCAK256 DUP10 SWAP10 0xBF 0x2B RETURN PUSH25 0x430EE7970930FB00D348AB4EC02730C756C7E06EA75B909131 TLOAD PUSH5 0x736F6C6343 STOP ADDMOD BYTE STOP CALLER "
				},
				"gasEstimates": {
					"creation": {
						"codeDepositCost": "510200",
						"executionCost": "24782",
						"totalCost": "534982"
					},
					"external": {
						"deposit()": "207",
						"destroySc(address)": "28025",
						"getContractBalance()": "2660",
						"owner()": "2571",
						"transferEther(address,uint256)": "infinite",
						"withdraw()": "infinite"
					}
				},
				"methodIdentifiers": {
					"deposit()": "d0e30db0",
					"destroySc(address)": "0115c3dc",
					"getContractBalance()": "6f9fb98a",
					"owner()": "8da5cb5b",
					"transferEther(address,uint256)": "05b1137b",
					"withdraw()": "3ccfd60b"
				}
			},
			"storageLayout": {
				"storage": [
					{
						"astId": 3,
						"contract": "contracts/artifacts/Task2.sol:Demo",
						"label": "owner",
						"offset": 0,
						"slot": "0",
						"type": "t_address_payable"
					}
				],
				"types": {
					"t_address_payable": {
						"encoding": "inplace",
						"label": "address payable",
						"numberOfBytes": "20"
					}
				}
			},
			"userdoc": {
				"kind": "user",
				"methods": {},
				"version": 1
			}
		}
	}
}