{
	"data": {
		"bytecode": {
			"linkReferences": {},
			"object": "6080604052348015600e575f80fd5b506101bb8061001c5f395ff3fe608060405234801561000f575f80fd5b5060043610610029575f3560e01c80630e5356ec1461002d575b5f80fd5b610035610037565b005b3373ffffffffffffffffffffffffffffffffffffffff167f5e8673f0a6120f8a1a8cdf3874d02d66a0b0ea8f7b5a22b44d25a3b57369cc51600160405161007e9190610159565b60405180910390a27f5e7df75d54e493185612379c616118a4c9ac802de621b010c96f74d22df4b30a60405160405180910390a1565b5f819050919050565b5f819050919050565b5f819050919050565b5f6100e96100e46100df846100b4565b6100c6565b6100bd565b9050919050565b6100f9816100cf565b82525050565b5f82825260208201905092915050565b7f4920616d20746865206d616e00000000000000000000000000000000000000005f82015250565b5f610143600c836100ff565b915061014e8261010f565b602082019050919050565b5f60408201905061016c5f8301846100f0565b818103602083015261017d81610137565b90509291505056fea2646970667358221220ceef4323d2117c009a733ead8a7f82abbf38b21b8288b2c365b465f2c84e9bea64736f6c634300081a0033",
			"opcodes": "PUSH1 0x80 PUSH1 0x40 MSTORE CALLVALUE DUP1 ISZERO PUSH1 0xE JUMPI PUSH0 DUP1 REVERT JUMPDEST POP PUSH2 0x1BB DUP1 PUSH2 0x1C PUSH0 CODECOPY PUSH0 RETURN INVALID PUSH1 0x80 PUSH1 0x40 MSTORE CALLVALUE DUP1 ISZERO PUSH2 0xF JUMPI PUSH0 DUP1 REVERT JUMPDEST POP PUSH1 0x4 CALLDATASIZE LT PUSH2 0x29 JUMPI PUSH0 CALLDATALOAD PUSH1 0xE0 SHR DUP1 PUSH4 0xE5356EC EQ PUSH2 0x2D JUMPI JUMPDEST PUSH0 DUP1 REVERT JUMPDEST PUSH2 0x35 PUSH2 0x37 JUMP JUMPDEST STOP JUMPDEST CALLER PUSH20 0xFFFFFFFFFFFFFFFFFFFFFFFFFFFFFFFFFFFFFFFF AND PUSH32 0x5E8673F0A6120F8A1A8CDF3874D02D66A0B0EA8F7B5A22B44D25A3B57369CC51 PUSH1 0x1 PUSH1 0x40 MLOAD PUSH2 0x7E SWAP2 SWAP1 PUSH2 0x159 JUMP JUMPDEST PUSH1 0x40 MLOAD DUP1 SWAP2 SUB SWAP1 LOG2 PUSH32 0x5E7DF75D54E493185612379C616118A4C9AC802DE621B010C96F74D22DF4B30A PUSH1 0x40 MLOAD PUSH1 0x40 MLOAD DUP1 SWAP2 SUB SWAP1 LOG1 JUMP JUMPDEST PUSH0 DUP2 SWAP1 POP SWAP2 SWAP1 POP JUMP JUMPDEST PUSH0 DUP2 SWAP1 POP SWAP2 SWAP1 POP JUMP JUMPDEST PUSH0 DUP2 SWAP1 POP SWAP2 SWAP1 POP JUMP JUMPDEST PUSH0 PUSH2 0xE9 PUSH2 0xE4 PUSH2 0xDF DUP5 PUSH2 0xB4 JUMP JUMPDEST PUSH2 0xC6 JUMP JUMPDEST PUSH2 0xBD JUMP JUMPDEST SWAP1 POP SWAP2 SWAP1 POP JUMP JUMPDEST PUSH2 0xF9 DUP2 PUSH2 0xCF JUMP JUMPDEST DUP3 MSTORE POP POP JUMP JUMPDEST PUSH0 DUP3 DUP3 MSTORE PUSH1 0x20 DUP3 ADD SWAP1 POP SWAP3 SWAP2 POP POP JUMP JUMPDEST PUSH32 0x4920616D20746865206D616E0000000000000000000000000000000000000000 PUSH0 DUP3 ADD MSTORE POP JUMP JUMPDEST PUSH0 PUSH2 0x143 PUSH1 0xC DUP4 PUSH2 0xFF JUMP JUMPDEST SWAP2 POP PUSH2 0x14E DUP3 PUSH2 0x10F JUMP JUMPDEST PUSH1 0x20 DUP3 ADD SWAP1 POP SWAP2 SWAP1 POP JUMP JUMPDEST PUSH0 PUSH1 0x40 DUP3 ADD SWAP1 POP PUSH2 0x16C PUSH0 DUP4 ADD DUP5 PUSH2 0xF0 JUMP JUMPDEST DUP2 DUP2 SUB PUSH1 0x20 DUP4 ADD MSTORE PUSH2 0x17D DUP2 PUSH2 0x137 JUMP JUMPDEST SWAP1 POP SWAP3 SWAP2 POP POP JUMP INVALID LOG2 PUSH5 0x6970667358 0x22 SLT KECCAK256 0xCE 0xEF NUMBER 0x23 0xD2 GT PUSH29 0x9A733EAD8A7F82ABBF38B21B8288B2C365B465F2C84E9BEA64736F6C PUSH4 0x4300081A STOP CALLER "
		},
		"gasEstimates": {
			"creation": {
				"codeDepositCost": "88600",
				"executionCost": "133",
				"totalCost": "88733"
			},
			"external": {
				"testEvents()": "3562"
			}
		},
		"methodIdentifiers": {
			"testEvents()": "0e5356ec"
		}
	},
	"abi": [
		{
			"anonymous": false,
			"inputs": [
				{
					"indexed": true,
					"internalType": "address",
					"name": "addr",
					"type": "address"
				},
				{
					"indexed": false,
					"internalType": "uint256",
					"name": "a",
					"type": "uint256"
				},
				{
					"indexed": false,
					"internalType": "string",
					"name": "str",
					"type": "string"
				}
			],
			"name": "Aditya",
			"type": "event"
		},
		{
			"anonymous": false,
			"inputs": [],
			"name": "Log",
			"type": "event"
		},
		{
			"inputs": [],
			"name": "testEvents",
			"outputs": [],
			"stateMutability": "nonpayable",
			"type": "function"
		}
	]
}