{
	"data": {
		"bytecode": {
			"linkReferences": {},
			"object": "6080604052348015600e575f80fd5b506107d98061001c5f395ff3fe608060405234801561000f575f80fd5b5060043610610034575f3560e01c80633cd0738d14610038578063de761c6614610054575b5f80fd5b610052600480360381019061004d919061038c565b610074565b005b61005c6100dd565b60405161006b93929190610497565b60405180910390f35b6040518060800160405280858152602001848152602001838152602001828152505f80820151815f0190816100a991906106d4565b5060208201518160010190816100bf91906106d4565b50604082015181600201556060820151816003015590505050505050565b6060805f805f015f6001015f600301548280546100f990610507565b80601f016020809104026020016040519081016040528092919081815260200182805461012590610507565b80156101705780601f1061014757610100808354040283529160200191610170565b820191905f5260205f20905b81548152906001019060200180831161015357829003601f168201915b5050505050925081805461018390610507565b80601f01602080910402602001604051908101604052809291908181526020018280546101af90610507565b80156101fa5780601f106101d1576101008083540402835291602001916101fa565b820191905f5260205f20905b8154815290600101906020018083116101dd57829003601f168201915b50505050509150925092509250909192565b5f604051905090565b5f80fd5b5f80fd5b5f80fd5b5f80fd5b5f601f19601f8301169050919050565b7f4e487b71000000000000000000000000000000000000000000000000000000005f52604160045260245ffd5b61026b82610225565b810181811067ffffffffffffffff8211171561028a57610289610235565b5b80604052505050565b5f61029c61020c565b90506102a88282610262565b919050565b5f67ffffffffffffffff8211156102c7576102c6610235565b5b6102d082610225565b9050602081019050919050565b828183375f83830152505050565b5f6102fd6102f8846102ad565b610293565b90508281526020810184848401111561031957610318610221565b5b6103248482856102dd565b509392505050565b5f82601f8301126103405761033f61021d565b5b81356103508482602086016102eb565b91505092915050565b5f819050919050565b61036b81610359565b8114610375575f80fd5b50565b5f8135905061038681610362565b92915050565b5f805f80608085870312156103a4576103a3610215565b5b5f85013567ffffffffffffffff8111156103c1576103c0610219565b5b6103cd8782880161032c565b945050602085013567ffffffffffffffff8111156103ee576103ed610219565b5b6103fa8782880161032c565b935050604061040b87828801610378565b925050606061041c87828801610378565b91505092959194509250565b5f81519050919050565b5f82825260208201905092915050565b8281835e5f83830152505050565b5f61045a82610428565b6104648185610432565b9350610474818560208601610442565b61047d81610225565b840191505092915050565b61049181610359565b82525050565b5f6060820190508181035f8301526104af8186610450565b905081810360208301526104c38185610450565b90506104d26040830184610488565b949350505050565b7f4e487b71000000000000000000000000000000000000000000000000000000005f52602260045260245ffd5b5f600282049050600182168061051e57607f821691505b602082108103610531576105306104da565b5b50919050565b5f819050815f5260205f209050919050565b5f6020601f8301049050919050565b5f82821b905092915050565b5f600883026105937fffffffffffffffffffffffffffffffffffffffffffffffffffffffffffffffff82610558565b61059d8683610558565b95508019841693508086168417925050509392505050565b5f819050919050565b5f6105d86105d36105ce84610359565b6105b5565b610359565b9050919050565b5f819050919050565b6105f1836105be565b6106056105fd826105df565b848454610564565b825550505050565b5f90565b61061961060d565b6106248184846105e8565b505050565b5b818110156106475761063c5f82610611565b60018101905061062a565b5050565b601f82111561068c5761065d81610537565b61066684610549565b81016020851015610675578190505b61068961068185610549565b830182610629565b50505b505050565b5f82821c905092915050565b5f6106ac5f1984600802610691565b1980831691505092915050565b5f6106c4838361069d565b9150826002028217905092915050565b6106dd82610428565b67ffffffffffffffff8111156106f6576106f5610235565b5b6107008254610507565b61070b82828561064b565b5f60209050601f83116001811461073c575f841561072a578287015190505b61073485826106b9565b86555061079b565b601f19841661074a86610537565b5f5b828110156107715784890151825560018201915060208501945060208101905061074c565b8683101561078e578489015161078a601f89168261069d565b8355505b6001600288020188555050505b50505050505056fea2646970667358221220c8e9249570b12a3d6362fe60baa4ec8fae5bae8ae8f24fa2330df2fa99c0d2af64736f6c634300081a0033",
			"opcodes": "PUSH1 0x80 PUSH1 0x40 MSTORE CALLVALUE DUP1 ISZERO PUSH1 0xE JUMPI PUSH0 DUP1 REVERT JUMPDEST POP PUSH2 0x7D9 DUP1 PUSH2 0x1C PUSH0 CODECOPY PUSH0 RETURN INVALID PUSH1 0x80 PUSH1 0x40 MSTORE CALLVALUE DUP1 ISZERO PUSH2 0xF JUMPI PUSH0 DUP1 REVERT JUMPDEST POP PUSH1 0x4 CALLDATASIZE LT PUSH2 0x34 JUMPI PUSH0 CALLDATALOAD PUSH1 0xE0 SHR DUP1 PUSH4 0x3CD0738D EQ PUSH2 0x38 JUMPI DUP1 PUSH4 0xDE761C66 EQ PUSH2 0x54 JUMPI JUMPDEST PUSH0 DUP1 REVERT JUMPDEST PUSH2 0x52 PUSH1 0x4 DUP1 CALLDATASIZE SUB DUP2 ADD SWAP1 PUSH2 0x4D SWAP2 SWAP1 PUSH2 0x38C JUMP JUMPDEST PUSH2 0x74 JUMP JUMPDEST STOP JUMPDEST PUSH2 0x5C PUSH2 0xDD JUMP JUMPDEST PUSH1 0x40 MLOAD PUSH2 0x6B SWAP4 SWAP3 SWAP2 SWAP1 PUSH2 0x497 JUMP JUMPDEST PUSH1 0x40 MLOAD DUP1 SWAP2 SUB SWAP1 RETURN JUMPDEST PUSH1 0x40 MLOAD DUP1 PUSH1 0x80 ADD PUSH1 0x40 MSTORE DUP1 DUP6 DUP2 MSTORE PUSH1 0x20 ADD DUP5 DUP2 MSTORE PUSH1 0x20 ADD DUP4 DUP2 MSTORE PUSH1 0x20 ADD DUP3 DUP2 MSTORE POP PUSH0 DUP1 DUP3 ADD MLOAD DUP2 PUSH0 ADD SWAP1 DUP2 PUSH2 0xA9 SWAP2 SWAP1 PUSH2 0x6D4 JUMP JUMPDEST POP PUSH1 0x20 DUP3 ADD MLOAD DUP2 PUSH1 0x1 ADD SWAP1 DUP2 PUSH2 0xBF SWAP2 SWAP1 PUSH2 0x6D4 JUMP JUMPDEST POP PUSH1 0x40 DUP3 ADD MLOAD DUP2 PUSH1 0x2 ADD SSTORE PUSH1 0x60 DUP3 ADD MLOAD DUP2 PUSH1 0x3 ADD SSTORE SWAP1 POP POP POP POP POP POP JUMP JUMPDEST PUSH1 0x60 DUP1 PUSH0 DUP1 PUSH0 ADD PUSH0 PUSH1 0x1 ADD PUSH0 PUSH1 0x3 ADD SLOAD DUP3 DUP1 SLOAD PUSH2 0xF9 SWAP1 PUSH2 0x507 JUMP JUMPDEST DUP1 PUSH1 0x1F ADD PUSH1 0x20 DUP1 SWAP2 DIV MUL PUSH1 0x20 ADD PUSH1 0x40 MLOAD SWAP1 DUP2 ADD PUSH1 0x40 MSTORE DUP1 SWAP3 SWAP2 SWAP1 DUP2 DUP2 MSTORE PUSH1 0x20 ADD DUP3 DUP1 SLOAD PUSH2 0x125 SWAP1 PUSH2 0x507 JUMP JUMPDEST DUP1 ISZERO PUSH2 0x170 JUMPI DUP1 PUSH1 0x1F LT PUSH2 0x147 JUMPI PUSH2 0x100 DUP1 DUP4 SLOAD DIV MUL DUP4 MSTORE SWAP2 PUSH1 0x20 ADD SWAP2 PUSH2 0x170 JUMP JUMPDEST DUP3 ADD SWAP2 SWAP1 PUSH0 MSTORE PUSH1 0x20 PUSH0 KECCAK256 SWAP1 JUMPDEST DUP2 SLOAD DUP2 MSTORE SWAP1 PUSH1 0x1 ADD SWAP1 PUSH1 0x20 ADD DUP1 DUP4 GT PUSH2 0x153 JUMPI DUP3 SWAP1 SUB PUSH1 0x1F AND DUP3 ADD SWAP2 JUMPDEST POP POP POP POP POP SWAP3 POP DUP2 DUP1 SLOAD PUSH2 0x183 SWAP1 PUSH2 0x507 JUMP JUMPDEST DUP1 PUSH1 0x1F ADD PUSH1 0x20 DUP1 SWAP2 DIV MUL PUSH1 0x20 ADD PUSH1 0x40 MLOAD SWAP1 DUP2 ADD PUSH1 0x40 MSTORE DUP1 SWAP3 SWAP2 SWAP1 DUP2 DUP2 MSTORE PUSH1 0x20 ADD DUP3 DUP1 SLOAD PUSH2 0x1AF SWAP1 PUSH2 0x507 JUMP JUMPDEST DUP1 ISZERO PUSH2 0x1FA JUMPI DUP1 PUSH1 0x1F LT PUSH2 0x1D1 JUMPI PUSH2 0x100 DUP1 DUP4 SLOAD DIV MUL DUP4 MSTORE SWAP2 PUSH1 0x20 ADD SWAP2 PUSH2 0x1FA JUMP JUMPDEST DUP3 ADD SWAP2 SWAP1 PUSH0 MSTORE PUSH1 0x20 PUSH0 KECCAK256 SWAP1 JUMPDEST DUP2 SLOAD DUP2 MSTORE SWAP1 PUSH1 0x1 ADD SWAP1 PUSH1 0x20 ADD DUP1 DUP4 GT PUSH2 0x1DD JUMPI DUP3 SWAP1 SUB PUSH1 0x1F AND DUP3 ADD SWAP2 JUMPDEST POP POP POP POP POP SWAP2 POP SWAP3 POP SWAP3 POP SWAP3 POP SWAP1 SWAP2 SWAP3 JUMP JUMPDEST PUSH0 PUSH1 0x40 MLOAD SWAP1 POP SWAP1 JUMP JUMPDEST PUSH0 DUP1 REVERT JUMPDEST PUSH0 DUP1 REVERT JUMPDEST PUSH0 DUP1 REVERT JUMPDEST PUSH0 DUP1 REVERT JUMPDEST PUSH0 PUSH1 0x1F NOT PUSH1 0x1F DUP4 ADD AND SWAP1 POP SWAP2 SWAP1 POP JUMP JUMPDEST PUSH32 0x4E487B7100000000000000000000000000000000000000000000000000000000 PUSH0 MSTORE PUSH1 0x41 PUSH1 0x4 MSTORE PUSH1 0x24 PUSH0 REVERT JUMPDEST PUSH2 0x26B DUP3 PUSH2 0x225 JUMP JUMPDEST DUP2 ADD DUP2 DUP2 LT PUSH8 0xFFFFFFFFFFFFFFFF DUP3 GT OR ISZERO PUSH2 0x28A JUMPI PUSH2 0x289 PUSH2 0x235 JUMP JUMPDEST JUMPDEST DUP1 PUSH1 0x40 MSTORE POP POP POP JUMP JUMPDEST PUSH0 PUSH2 0x29C PUSH2 0x20C JUMP JUMPDEST SWAP1 POP PUSH2 0x2A8 DUP3 DUP3 PUSH2 0x262 JUMP JUMPDEST SWAP2 SWAP1 POP JUMP JUMPDEST PUSH0 PUSH8 0xFFFFFFFFFFFFFFFF DUP3 GT ISZERO PUSH2 0x2C7 JUMPI PUSH2 0x2C6 PUSH2 0x235 JUMP JUMPDEST JUMPDEST PUSH2 0x2D0 DUP3 PUSH2 0x225 JUMP JUMPDEST SWAP1 POP PUSH1 0x20 DUP2 ADD SWAP1 POP SWAP2 SWAP1 POP JUMP JUMPDEST DUP3 DUP2 DUP4 CALLDATACOPY PUSH0 DUP4 DUP4 ADD MSTORE POP POP POP JUMP JUMPDEST PUSH0 PUSH2 0x2FD PUSH2 0x2F8 DUP5 PUSH2 0x2AD JUMP JUMPDEST PUSH2 0x293 JUMP JUMPDEST SWAP1 POP DUP3 DUP2 MSTORE PUSH1 0x20 DUP2 ADD DUP5 DUP5 DUP5 ADD GT ISZERO PUSH2 0x319 JUMPI PUSH2 0x318 PUSH2 0x221 JUMP JUMPDEST JUMPDEST PUSH2 0x324 DUP5 DUP3 DUP6 PUSH2 0x2DD JUMP JUMPDEST POP SWAP4 SWAP3 POP POP POP JUMP JUMPDEST PUSH0 DUP3 PUSH1 0x1F DUP4 ADD SLT PUSH2 0x340 JUMPI PUSH2 0x33F PUSH2 0x21D JUMP JUMPDEST JUMPDEST DUP2 CALLDATALOAD PUSH2 0x350 DUP5 DUP3 PUSH1 0x20 DUP7 ADD PUSH2 0x2EB JUMP JUMPDEST SWAP2 POP POP SWAP3 SWAP2 POP POP JUMP JUMPDEST PUSH0 DUP2 SWAP1 POP SWAP2 SWAP1 POP JUMP JUMPDEST PUSH2 0x36B DUP2 PUSH2 0x359 JUMP JUMPDEST DUP2 EQ PUSH2 0x375 JUMPI PUSH0 DUP1 REVERT JUMPDEST POP JUMP JUMPDEST PUSH0 DUP2 CALLDATALOAD SWAP1 POP PUSH2 0x386 DUP2 PUSH2 0x362 JUMP JUMPDEST SWAP3 SWAP2 POP POP JUMP JUMPDEST PUSH0 DUP1 PUSH0 DUP1 PUSH1 0x80 DUP6 DUP8 SUB SLT ISZERO PUSH2 0x3A4 JUMPI PUSH2 0x3A3 PUSH2 0x215 JUMP JUMPDEST JUMPDEST PUSH0 DUP6 ADD CALLDATALOAD PUSH8 0xFFFFFFFFFFFFFFFF DUP2 GT ISZERO PUSH2 0x3C1 JUMPI PUSH2 0x3C0 PUSH2 0x219 JUMP JUMPDEST JUMPDEST PUSH2 0x3CD DUP8 DUP3 DUP9 ADD PUSH2 0x32C JUMP JUMPDEST SWAP5 POP POP PUSH1 0x20 DUP6 ADD CALLDATALOAD PUSH8 0xFFFFFFFFFFFFFFFF DUP2 GT ISZERO PUSH2 0x3EE JUMPI PUSH2 0x3ED PUSH2 0x219 JUMP JUMPDEST JUMPDEST PUSH2 0x3FA DUP8 DUP3 DUP9 ADD PUSH2 0x32C JUMP JUMPDEST SWAP4 POP POP PUSH1 0x40 PUSH2 0x40B DUP8 DUP3 DUP9 ADD PUSH2 0x378 JUMP JUMPDEST SWAP3 POP POP PUSH1 0x60 PUSH2 0x41C DUP8 DUP3 DUP9 ADD PUSH2 0x378 JUMP JUMPDEST SWAP2 POP POP SWAP3 SWAP6 SWAP2 SWAP5 POP SWAP3 POP JUMP JUMPDEST PUSH0 DUP2 MLOAD SWAP1 POP SWAP2 SWAP1 POP JUMP JUMPDEST PUSH0 DUP3 DUP3 MSTORE PUSH1 0x20 DUP3 ADD SWAP1 POP SWAP3 SWAP2 POP POP JUMP JUMPDEST DUP3 DUP2 DUP4 MCOPY PUSH0 DUP4 DUP4 ADD MSTORE POP POP POP JUMP JUMPDEST PUSH0 PUSH2 0x45A DUP3 PUSH2 0x428 JUMP JUMPDEST PUSH2 0x464 DUP2 DUP6 PUSH2 0x432 JUMP JUMPDEST SWAP4 POP PUSH2 0x474 DUP2 DUP6 PUSH1 0x20 DUP7 ADD PUSH2 0x442 JUMP JUMPDEST PUSH2 0x47D DUP2 PUSH2 0x225 JUMP JUMPDEST DUP5 ADD SWAP2 POP POP SWAP3 SWAP2 POP POP JUMP JUMPDEST PUSH2 0x491 DUP2 PUSH2 0x359 JUMP JUMPDEST DUP3 MSTORE POP POP JUMP JUMPDEST PUSH0 PUSH1 0x60 DUP3 ADD SWAP1 POP DUP2 DUP2 SUB PUSH0 DUP4 ADD MSTORE PUSH2 0x4AF DUP2 DUP7 PUSH2 0x450 JUMP JUMPDEST SWAP1 POP DUP2 DUP2 SUB PUSH1 0x20 DUP4 ADD MSTORE PUSH2 0x4C3 DUP2 DUP6 PUSH2 0x450 JUMP JUMPDEST SWAP1 POP PUSH2 0x4D2 PUSH1 0x40 DUP4 ADD DUP5 PUSH2 0x488 JUMP JUMPDEST SWAP5 SWAP4 POP POP POP POP JUMP JUMPDEST PUSH32 0x4E487B7100000000000000000000000000000000000000000000000000000000 PUSH0 MSTORE PUSH1 0x22 PUSH1 0x4 MSTORE PUSH1 0x24 PUSH0 REVERT JUMPDEST PUSH0 PUSH1 0x2 DUP3 DIV SWAP1 POP PUSH1 0x1 DUP3 AND DUP1 PUSH2 0x51E JUMPI PUSH1 0x7F DUP3 AND SWAP2 POP JUMPDEST PUSH1 0x20 DUP3 LT DUP2 SUB PUSH2 0x531 JUMPI PUSH2 0x530 PUSH2 0x4DA JUMP JUMPDEST JUMPDEST POP SWAP2 SWAP1 POP JUMP JUMPDEST PUSH0 DUP2 SWAP1 POP DUP2 PUSH0 MSTORE PUSH1 0x20 PUSH0 KECCAK256 SWAP1 POP SWAP2 SWAP1 POP JUMP JUMPDEST PUSH0 PUSH1 0x20 PUSH1 0x1F DUP4 ADD DIV SWAP1 POP SWAP2 SWAP1 POP JUMP JUMPDEST PUSH0 DUP3 DUP3 SHL SWAP1 POP SWAP3 SWAP2 POP POP JUMP JUMPDEST PUSH0 PUSH1 0x8 DUP4 MUL PUSH2 0x593 PUSH32 0xFFFFFFFFFFFFFFFFFFFFFFFFFFFFFFFFFFFFFFFFFFFFFFFFFFFFFFFFFFFFFFFF DUP3 PUSH2 0x558 JUMP JUMPDEST PUSH2 0x59D DUP7 DUP4 PUSH2 0x558 JUMP JUMPDEST SWAP6 POP DUP1 NOT DUP5 AND SWAP4 POP DUP1 DUP7 AND DUP5 OR SWAP3 POP POP POP SWAP4 SWAP3 POP POP POP JUMP JUMPDEST PUSH0 DUP2 SWAP1 POP SWAP2 SWAP1 POP JUMP JUMPDEST PUSH0 PUSH2 0x5D8 PUSH2 0x5D3 PUSH2 0x5CE DUP5 PUSH2 0x359 JUMP JUMPDEST PUSH2 0x5B5 JUMP JUMPDEST PUSH2 0x359 JUMP JUMPDEST SWAP1 POP SWAP2 SWAP1 POP JUMP JUMPDEST PUSH0 DUP2 SWAP1 POP SWAP2 SWAP1 POP JUMP JUMPDEST PUSH2 0x5F1 DUP4 PUSH2 0x5BE JUMP JUMPDEST PUSH2 0x605 PUSH2 0x5FD DUP3 PUSH2 0x5DF JUMP JUMPDEST DUP5 DUP5 SLOAD PUSH2 0x564 JUMP JUMPDEST DUP3 SSTORE POP POP POP POP JUMP JUMPDEST PUSH0 SWAP1 JUMP JUMPDEST PUSH2 0x619 PUSH2 0x60D JUMP JUMPDEST PUSH2 0x624 DUP2 DUP5 DUP5 PUSH2 0x5E8 JUMP JUMPDEST POP POP POP JUMP JUMPDEST JUMPDEST DUP2 DUP2 LT ISZERO PUSH2 0x647 JUMPI PUSH2 0x63C PUSH0 DUP3 PUSH2 0x611 JUMP JUMPDEST PUSH1 0x1 DUP2 ADD SWAP1 POP PUSH2 0x62A JUMP JUMPDEST POP POP JUMP JUMPDEST PUSH1 0x1F DUP3 GT ISZERO PUSH2 0x68C JUMPI PUSH2 0x65D DUP2 PUSH2 0x537 JUMP JUMPDEST PUSH2 0x666 DUP5 PUSH2 0x549 JUMP JUMPDEST DUP2 ADD PUSH1 0x20 DUP6 LT ISZERO PUSH2 0x675 JUMPI DUP2 SWAP1 POP JUMPDEST PUSH2 0x689 PUSH2 0x681 DUP6 PUSH2 0x549 JUMP JUMPDEST DUP4 ADD DUP3 PUSH2 0x629 JUMP JUMPDEST POP POP JUMPDEST POP POP POP JUMP JUMPDEST PUSH0 DUP3 DUP3 SHR SWAP1 POP SWAP3 SWAP2 POP POP JUMP JUMPDEST PUSH0 PUSH2 0x6AC PUSH0 NOT DUP5 PUSH1 0x8 MUL PUSH2 0x691 JUMP JUMPDEST NOT DUP1 DUP4 AND SWAP2 POP POP SWAP3 SWAP2 POP POP JUMP JUMPDEST PUSH0 PUSH2 0x6C4 DUP4 DUP4 PUSH2 0x69D JUMP JUMPDEST SWAP2 POP DUP3 PUSH1 0x2 MUL DUP3 OR SWAP1 POP SWAP3 SWAP2 POP POP JUMP JUMPDEST PUSH2 0x6DD DUP3 PUSH2 0x428 JUMP JUMPDEST PUSH8 0xFFFFFFFFFFFFFFFF DUP2 GT ISZERO PUSH2 0x6F6 JUMPI PUSH2 0x6F5 PUSH2 0x235 JUMP JUMPDEST JUMPDEST PUSH2 0x700 DUP3 SLOAD PUSH2 0x507 JUMP JUMPDEST PUSH2 0x70B DUP3 DUP3 DUP6 PUSH2 0x64B JUMP JUMPDEST PUSH0 PUSH1 0x20 SWAP1 POP PUSH1 0x1F DUP4 GT PUSH1 0x1 DUP2 EQ PUSH2 0x73C JUMPI PUSH0 DUP5 ISZERO PUSH2 0x72A JUMPI DUP3 DUP8 ADD MLOAD SWAP1 POP JUMPDEST PUSH2 0x734 DUP6 DUP3 PUSH2 0x6B9 JUMP JUMPDEST DUP7 SSTORE POP PUSH2 0x79B JUMP JUMPDEST PUSH1 0x1F NOT DUP5 AND PUSH2 0x74A DUP7 PUSH2 0x537 JUMP JUMPDEST PUSH0 JUMPDEST DUP3 DUP2 LT ISZERO PUSH2 0x771 JUMPI DUP5 DUP10 ADD MLOAD DUP3 SSTORE PUSH1 0x1 DUP3 ADD SWAP2 POP PUSH1 0x20 DUP6 ADD SWAP5 POP PUSH1 0x20 DUP2 ADD SWAP1 POP PUSH2 0x74C JUMP JUMPDEST DUP7 DUP4 LT ISZERO PUSH2 0x78E JUMPI DUP5 DUP10 ADD MLOAD PUSH2 0x78A PUSH1 0x1F DUP10 AND DUP3 PUSH2 0x69D JUMP JUMPDEST DUP4 SSTORE POP JUMPDEST PUSH1 0x1 PUSH1 0x2 DUP9 MUL ADD DUP9 SSTORE POP POP POP JUMPDEST POP POP POP POP POP POP JUMP INVALID LOG2 PUSH5 0x6970667358 0x22 SLT KECCAK256 0xC8 0xE9 0x24 SWAP6 PUSH17 0xB12A3D6362FE60BAA4EC8FAE5BAE8AE8F2 0x4F LOG2 CALLER 0xD CALLCODE STATICCALL SWAP10 0xC0 0xD2 0xAF PUSH5 0x736F6C6343 STOP ADDMOD BYTE STOP CALLER "
		},
		"gasEstimates": {
			"creation": {
				"codeDepositCost": "401800",
				"executionCost": "434",
				"totalCost": "402234"
			},
			"external": {
				"getBookDetails()": "infinite",
				"setBook(string,string,uint256,uint256)": "infinite"
			}
		},
		"methodIdentifiers": {
			"getBookDetails()": "de761c66",
			"setBook(string,string,uint256,uint256)": "3cd0738d"
		}
	},
	"abi": [
		{
			"inputs": [],
			"name": "getBookDetails",
			"outputs": [
				{
					"internalType": "string",
					"name": "",
					"type": "string"
				},
				{
					"internalType": "string",
					"name": "",
					"type": "string"
				},
				{
					"internalType": "uint256",
					"name": "",
					"type": "uint256"
				}
			],
			"stateMutability": "view",
			"type": "function"
		},
		{
			"inputs": [
				{
					"internalType": "string",
					"name": "title",
					"type": "string"
				},
				{
					"internalType": "string",
					"name": "author",
					"type": "string"
				},
				{
					"internalType": "uint256",
					"name": "bookId",
					"type": "uint256"
				},
				{
					"internalType": "uint256",
					"name": "price",
					"type": "uint256"
				}
			],
			"name": "setBook",
			"outputs": [],
			"stateMutability": "nonpayable",
			"type": "function"
		}
	]
}