{
	"data": {
		"bytecode": {
			"linkReferences": {},
			"object": "6080604052348015600e575f80fd5b506101ba8061001c5f395ff3fe608060405234801561000f575f80fd5b5060043610610034575f3560e01c80638fe5956714610038578063b03e16221461005a575b5f80fd5b61004061007a565b6040516100519594939291906100fe565b60405180910390f35b6100626100b8565b6040516100719392919061014f565b60405180910390f35b5f805f805f805f8061008a6100b8565b9250925092505f806014600a6039925050915084848484849950995099509950995050505050509091929394565b5f805f600a6001602d925092509250909192565b5f819050919050565b6100de816100cc565b82525050565b5f8115159050919050565b6100f8816100e4565b82525050565b5f60a0820190506101115f8301886100d5565b61011e60208301876100ef565b61012b60408301866100d5565b61013860608301856100d5565b61014560808301846100d5565b9695505050505050565b5f6060820190506101625f8301866100d5565b61016f60208301856100ef565b61017c60408301846100d5565b94935050505056fea2646970667358221220856a2650d8a5c8782ba55138c7c9077f36f920326141275549e4985ca32a9a8d64736f6c634300081a0033",
			"opcodes": "PUSH1 0x80 PUSH1 0x40 MSTORE CALLVALUE DUP1 ISZERO PUSH1 0xE JUMPI PUSH0 DUP1 REVERT JUMPDEST POP PUSH2 0x1BA DUP1 PUSH2 0x1C PUSH0 CODECOPY PUSH0 RETURN INVALID PUSH1 0x80 PUSH1 0x40 MSTORE CALLVALUE DUP1 ISZERO PUSH2 0xF JUMPI PUSH0 DUP1 REVERT JUMPDEST POP PUSH1 0x4 CALLDATASIZE LT PUSH2 0x34 JUMPI PUSH0 CALLDATALOAD PUSH1 0xE0 SHR DUP1 PUSH4 0x8FE59567 EQ PUSH2 0x38 JUMPI DUP1 PUSH4 0xB03E1622 EQ PUSH2 0x5A JUMPI JUMPDEST PUSH0 DUP1 REVERT JUMPDEST PUSH2 0x40 PUSH2 0x7A JUMP JUMPDEST PUSH1 0x40 MLOAD PUSH2 0x51 SWAP6 SWAP5 SWAP4 SWAP3 SWAP2 SWAP1 PUSH2 0xFE JUMP JUMPDEST PUSH1 0x40 MLOAD DUP1 SWAP2 SUB SWAP1 RETURN JUMPDEST PUSH2 0x62 PUSH2 0xB8 JUMP JUMPDEST PUSH1 0x40 MLOAD PUSH2 0x71 SWAP4 SWAP3 SWAP2 SWAP1 PUSH2 0x14F JUMP JUMPDEST PUSH1 0x40 MLOAD DUP1 SWAP2 SUB SWAP1 RETURN JUMPDEST PUSH0 DUP1 PUSH0 DUP1 PUSH0 DUP1 PUSH0 DUP1 PUSH2 0x8A PUSH2 0xB8 JUMP JUMPDEST SWAP3 POP SWAP3 POP SWAP3 POP PUSH0 DUP1 PUSH1 0x14 PUSH1 0xA PUSH1 0x39 SWAP3 POP POP SWAP2 POP DUP5 DUP5 DUP5 DUP5 DUP5 SWAP10 POP SWAP10 POP SWAP10 POP SWAP10 POP SWAP10 POP POP POP POP POP POP SWAP1 SWAP2 SWAP3 SWAP4 SWAP5 JUMP JUMPDEST PUSH0 DUP1 PUSH0 PUSH1 0xA PUSH1 0x1 PUSH1 0x2D SWAP3 POP SWAP3 POP SWAP3 POP SWAP1 SWAP2 SWAP3 JUMP JUMPDEST PUSH0 DUP2 SWAP1 POP SWAP2 SWAP1 POP JUMP JUMPDEST PUSH2 0xDE DUP2 PUSH2 0xCC JUMP JUMPDEST DUP3 MSTORE POP POP JUMP JUMPDEST PUSH0 DUP2 ISZERO ISZERO SWAP1 POP SWAP2 SWAP1 POP JUMP JUMPDEST PUSH2 0xF8 DUP2 PUSH2 0xE4 JUMP JUMPDEST DUP3 MSTORE POP POP JUMP JUMPDEST PUSH0 PUSH1 0xA0 DUP3 ADD SWAP1 POP PUSH2 0x111 PUSH0 DUP4 ADD DUP9 PUSH2 0xD5 JUMP JUMPDEST PUSH2 0x11E PUSH1 0x20 DUP4 ADD DUP8 PUSH2 0xEF JUMP JUMPDEST PUSH2 0x12B PUSH1 0x40 DUP4 ADD DUP7 PUSH2 0xD5 JUMP JUMPDEST PUSH2 0x138 PUSH1 0x60 DUP4 ADD DUP6 PUSH2 0xD5 JUMP JUMPDEST PUSH2 0x145 PUSH1 0x80 DUP4 ADD DUP5 PUSH2 0xD5 JUMP JUMPDEST SWAP7 SWAP6 POP POP POP POP POP POP JUMP JUMPDEST PUSH0 PUSH1 0x60 DUP3 ADD SWAP1 POP PUSH2 0x162 PUSH0 DUP4 ADD DUP7 PUSH2 0xD5 JUMP JUMPDEST PUSH2 0x16F PUSH1 0x20 DUP4 ADD DUP6 PUSH2 0xEF JUMP JUMPDEST PUSH2 0x17C PUSH1 0x40 DUP4 ADD DUP5 PUSH2 0xD5 JUMP JUMPDEST SWAP5 SWAP4 POP POP POP POP JUMP INVALID LOG2 PUSH5 0x6970667358 0x22 SLT KECCAK256 DUP6 PUSH11 0x2650D8A5C8782BA55138C7 0xC9 SMOD PUSH32 0x36F920326141275549E4985CA32A9A8D64736F6C634300081A00330000000000 "
		},
		"gasEstimates": {
			"creation": {
				"codeDepositCost": "88400",
				"executionCost": "133",
				"totalCost": "88533"
			},
			"external": {
				"desctructuringFunc()": "infinite",
				"multipleToReturn()": "infinite"
			}
		},
		"methodIdentifiers": {
			"desctructuringFunc()": "8fe59567",
			"multipleToReturn()": "b03e1622"
		}
	},
	"abi": [
		{
			"inputs": [],
			"name": "desctructuringFunc",
			"outputs": [
				{
					"internalType": "uint256",
					"name": "",
					"type": "uint256"
				},
				{
					"internalType": "bool",
					"name": "",
					"type": "bool"
				},
				{
					"internalType": "uint256",
					"name": "",
					"type": "uint256"
				},
				{
					"internalType": "uint256",
					"name": "",
					"type": "uint256"
				},
				{
					"internalType": "uint256",
					"name": "",
					"type": "uint256"
				}
			],
			"stateMutability": "pure",
			"type": "function"
		},
		{
			"inputs": [],
			"name": "multipleToReturn",
			"outputs": [
				{
					"internalType": "uint256",
					"name": "",
					"type": "uint256"
				},
				{
					"internalType": "bool",
					"name": "",
					"type": "bool"
				},
				{
					"internalType": "uint256",
					"name": "",
					"type": "uint256"
				}
			],
			"stateMutability": "pure",
			"type": "function"
		}
	]
}